:020000041000EA
:1000000000B5324B212058609868022188439860DF
:10001000D860186158612E4B002199600221596106
:100020000121F02299502B49196001219960352056
:1000300000F044F80222904214D00621196600F024
:1000400034F8196E01211966002018661A6600F04E
:100050002CF8196E196E196E052000F02FF8012189
:100060000842F9D1002199601B49196000215960AB
:100070001A491B48016001219960EB211966A021F2
:10008000196600F012F800219960164914480160C1
:100090000121996001BC002800D000471248134993
:1000A000086003C880F30888084703B5996A0420EC
:1000B0000142FBD001200142F8D103BD02B5186610
:1000C0001866FFF7F2FF186E186E02BD00000240BE
:1000D000000000180000070000035F00212200005C
:1000E000F4000018222000A00001001008ED00E03C
:1000F00000000000000000000000000074B24E7A12
:1001000000000420F7010010CB010010CD01001009
:10011000C9010010C9010010C9010010C901001077
:10012000C9010010C9010010C9010010CF01001061
:10013000C9010010C9010010D1010010D301001045
:10014000C1010010C1010010C1010010C101001067
:10015000C1010010C1010010C1010010C101001057
:10016000C1010010C1010010C1010010C101001047
:10017000C1010010C1010010C1010010C101001037
:10018000C1010010C1010010C1010010C101001027
:10019000C1010010C1010010C1010010C101001017
:1001A000C1010010C1010010C1010010C101001007
:1001B000C1010010C1010010C1010010C1010010F7
:1001C000EFF30580103800BE00BE00BE00BE00BECA
:1001D00000BE00BEF2EB8871D0380210F038021079
:1001E0003802001090A31AE71E481F49086006C88D
:1001F00081F3088810471D480068002801D019487D
:10020000F3E70DA40ECC002902D000F012F8F9E7B4
:100210001749184A002000E001C19142FCD116495B
:100220008847164988471649884700BEFDE701C937
:1002300001C29A42FBD37047F0380210C000002080
:1002400040640020709C0210000004200000042084
:10025000709C02100000032000000320000000003A
:10026000704700000000000008ED00E0000000D032
:1002700040640020AC7C00208DC700102179001064
:1002800085C70010F8B5C0460448054B10B5834239
:1002900003D0044B002B00D0984710BD40640020D1
:1002A000406400200000000006480749091A8B102E
:1002B000C90FC91810B5491003D0044B002B00D04A
:1002C000984710BD406400204064002000000000FA
:1002D00010B5074C2378002B09D1FFF7D5FF054B4C
:1002E000002B02D0044800E000BF0123237010BDA2
:1002F000D077002000000000B8EC0110054B10B5CD
:10030000002B03D00449054800E000BFFFF7CCFFF5
:1003100010BDC04600000000D4770020B8EC0110EA
:10032000F0B54746CE461F4B80B5C3589C461E4B82
:10033000C3581E001D4BC3581F0001292BD0022992
:1003400016D0002910D11A491A4A1B4B90469946DB
:100350000D00144C015114494250144A8350AC45CD
:1003600014D00122154BC254C0BCB946B046F0BDF2
:1003700013490C4C134A01510D000B49124B4250CA
:1003800090460A4A99468350AC45EAD14645E8D1A1
:100390004F45E6D1E8E70D490D4A0E4B9046994688
:1003A0000D00D6E7A0460000A4460000A8460000C5
:1003B000D2DDF40015152A007887D70094060000D6
:1003C000F5E9DC0032231500E3BD8E00D5EEE40034
:1003D0001C2918009FD9BA0030B59C466B461C7B7F
:1003E0000F230500D01703409B181B11132B1FD898
:1003F000A320CA1D400082421AD80E48EA1814549D
:1004000062461078002813D00722CC1722405118DA
:100410009A00D318DB000433EA186346C9105B1A4C
:1004200001335054585C002802D001312829F8D1FA
:1004300030BDC046440600009C460F2370B5040042
:10044000D01703409B181B11132B1FD8A320CA1DC4
:10045000400082421AD801250D48E2181554624620
:100460001078002812D00722CE17324051189A0077
:10047000D318DB000433C910E2186B1A63445054DC
:10048000585C002802D001312829F8D170BDC0463F
:100490006C0600007047C0467047C046C9239B00E9
:1004A00070B5C518041D0600A54207D020002822FB
:1004B000202128340AF02EFDA542F7D10A4BF0186E
:1004C0001433F318984203D0142200210AF022FDBD
:1004D000064BF0181433F618B04203D01422002152
:1004E0000AF018FD70BDC046440600006C0600000E
:1004F000F0B5DE464E464546574683462B23E0B5CB
:10050000D14C5B44A5441493D023DB005B4415938A
:100510000023CE4DCE4E1393CE4B5D44041D5E445E
:1005200012950E94109311961695179418965A4694
:10053000C94BD35C002B13D1C8230E989B002822F3
:10054000C1181DF0BFFD00280AD1129B1A781B7D2F
:100550009A4205D1119B1A781B7D9A4200D1EBE19A
:10056000A022002192001AA80AF0D4FCBB4B002262
:100570001B6856AF0D93119B6AAD1B78B8460F935D
:100580002EAB059338AB089342AB07934CAB9C461C
:100590007EAB069388AB9A4663460B93534609930A
:1005A0005B46199360AB9C4692A89CA90A9574AFD0
:1005B0000E9B9B5C99463733DBB2322B03D8109CE1
:1005C0009B00E3589F464B46203B5E2B00D900E240
:1005D0004B4600245B004B44A1469B007D3BFF3B08
:1005E0000C940F9C002C75D10D9CE55CE3182E003B
:1005F000059D2E705C782500089C25709C78250050
:10060000079C2570DC780B9D2C701C7925004446D6
:1006100025705C792500644625709C790A9D2C70B4
:10062000DC793C701C7A2500069C25705C7A099D5B
:100630002C709C7A0470DB7A0B700C9B002B00D121
:10064000BEE00024A2464C462823012C00D1BEE087
:10065000022C00D0A7E11AACA24410242500544675
:10066000A5541AAC1B1908249C54059B0132013374
:100670000593089B013701330893079B0130013331
:1006800007930B9B013101330B93012398449C4446
:100690000A9B01330A93069B01330693099B01339E
:1006A0000993272A84D1199B9B46149B1A7813001F
:1006B0003733DBB2322B00D9D4E069499B00CB58E9
:1006C0009F46002480230C940334A1460F9CDB003A
:1006D000002C89D00D9CE55C059CAA4625706578A8
:1006E0002E005546354365700D9CE3185C78A24694
:1006F0005546089C257065782E0055463543657033
:100700009C78A2465546079C257065782E00554674
:1007100035436570DC780B9EA246347074782500F2
:1007200054462C4374701C790A9EA2464446554692
:1007300025706478250054462C4325004446657096
:100740005C79A24664465546257064782500544677
:100750002C432500644665709C79A24634707478F9
:10076000250054462C437470DC79A2463C707C789A
:10077000250054462C437C701C7AA2465546069CA4
:10078000257065782E005546354365705C7A099E64
:10079000A24634707478250054462C4374709C7AB9
:1007A000A24604704478250054462C434470DB7AFA
:1007B0004C780B7023434B700C9B002B00D040E710
:1007C0007824A2464C46A023012C00D040E71AAC66
:1007D000A244082425005446A5541AAC1B19102421
:1007E0009C5442E7DC2300240C940334A1469B0074
:1007F000F7E6D023F7E70024D0230C940134A14678
:100800009B00EEE6D02300240C940234A1469B000A
:10081000E7E6C423E7E7C423F5E7002480230C942C
:100820000234A146DB00DCE6EE23DCE70024CA2329
:100830000C940434A1469B00D3E60124E023A14696
:100840005B000C94CDE6C04614FDFFFF440600009B
:100850006C060000B8EC011094060000145E002045
:1008600084ED01101300203B5E2B00D91EE15300E4
:100870009B18002100229B007D3BFF3B77200D9EB3
:1008800016AFF45C10373C54F3185C7828303C54B5
:100890009C7828303C54DC7828303C5418201C7953
:1008A000FF303C5440205C79FF303C5468209C79F8
:1008B000FF303C549020DC79FF303C54B8201C7A47
:1008C000FF303C54E0205C7AFF303C549C7A7E48F8
:1008D0003C54DB7A7D4816AC10342354002900D1F7
:1008E00082E028230021012A00D182E0022A00D0E0
:1008F0008AE01AAA94461022614427310A7008221D
:10090000634427331A70129B0F9A1B78002A65D014
:10091000002B00D19BE06E4B59466E4A8A580292DA
:100920000193A02201231AA9039100930020139997
:100930000F33520007F0AAF9129B159A0133129354
:10094000139B10331393149B283314930E9B28335B
:100950000E93119B01331193934200D0E7E5C92018
:10096000C82280001799920058449A46169D189EF6
:100970000AF0D6FACB23DB005B4407CD07C306CDD4
:1009800006C3534607CE07C306CE06C30022594608
:10099000514BCA54BB239B009D44F0BCBB46B2469E
:1009A000A946A046F0BD032C0AD11AACA2441024DB
:1009B00025005446A5541AAC1B1928249C5454E60F
:1009C0004B46042C00D050E60C33037010330B70F0
:1009D0004BE600240423A1460C9402E6002B2FD002
:1009E0005A463E4BD35897E7A0237821012A00D0DE
:1009F0007CE71AAA94460822614427310A70102223
:100A0000634427331A707EE7032A0AD11AAA944650
:100A10001022614427310A702822634427331A7058
:100A200071E7042A00D06EE71021274B16A8401862
:100A30000C32C254254B16A810324118CA5462E732
:100A40005A46274BD3585946244A8A5867E7204BC1
:100A5000F9E7802300210222DB000FE7C4230021F5
:100A600002229B000AE7D023002102229B0005E717
:100A7000C423002103229B0000E7EE230021032270
:100A80009B00FBE6DC23002103229B00F6E6D0233B
:100A9000002103229B00F1E6D023002101229B00CC
:100AA000ECE6802300210322DB00E7E6042300219B
:100AB0000022E3E6E023012101225B00DEE6CA23F7
:100AC000002104229B00D9E6070200002F0200004B
:100AD0005252F000A846000094060000A446000010
:100AE000A046000010B5040002490AF01FFA2000D9
:100AF00010BDC046AC460000F0B5C64600B5027851
:100B00000E00303AD1B20300092932D8451C407892
:100B100001003039CCB2092C18D89000821898788E
:100B200052008A1801003039CCB29F1C092C0BD816
:100B3000D878844630204042604404000020092CCC
:100B40003FD880BCB846F0BD2B003D000221040018
:100B50008C432C2C0FD000280BD100235001801A7D
:100B600080008018C000C0183060431E9841C0B299
:100B7000E7E70020E5E768783038C1B20929F8D8FE
:100B8000D9788C463039092928D8810009184900BC
:100B9000614430390C00302149428C461879844434
:100BA0006146C9B2092914D85B790020190030398F
:100BB0000929C6D9002BC4D1A3001B195B006344CB
:100BC000CCE7900082185200DD1C60463B008A187A
:100BD000BCE70028CDD10A236343BFE76346002B5F
:100BE000C7D164234343B9E7F0B5CE46474680B545
:100BF00013788946844611009DB0002B60D00B27E6
:100C000001223F2603AD6F4408E018004B78210015
:100C1000B854002B12D00132642A2ED01800C238EA
:100C20004C1C0128F1D848788046B04380281AD05F
:100C3000180043462100B854002BECD10023AA1819
:100C4000137062461268D4681F4A94421FD04A4605
:100C5000009300212B0060461201A0471DB0C0BCCC
:100C6000B946B046F0BD9C01F8234046DB001C406D
:100C700030408B7820430231CAE70B326A440023AC
:100C8000137062461268D4680F4A9442DFD1484616
:100C90001328E3D802000D492C7862445354002CE9
:100CA000DCD0002283001B18DB0004336344A91846
:100CB0009C544C78002CD1D00132282AF7D1CDE7B2
:100CC00003AD2A00DBE7C046D9030010440600004C
:100CD000F0B54646D6464F46C0B5A54CA54BA544F3
:100CE000C45C80460D00002C00D101E10B889C46BD
:100CF000A14B6344632B00D9FAE08A78531E9146D6
:100D00000B2B00D9F4E0CB789A46002B00D1EFE012
:100D10009A4BCAAE83CB83C6022A00D110E14B4660
:100D2000CAAA9B18013B1F78574500D2E0E09448BF
:100D300011F0EEFE08239843C0B2002800D0D7E09F
:100D4000904811F0E5FE08239843C0B2002800D077
:100D5000CEE01022002108A80AF0DCF810220021C1
:100D60000CA80AF0D7F828212B88874A18A80BF07E
:100D700089FCE9782B880191A978844A009104A81C
:100D800010210BF07FFC012218A932A810F046FDBB
:100D9000002842D18023369ACA9091461600DB0182
:100DA0009A4200D3A4E0D4204146C0000918CAAB3F
:100DB00032A811F009F9002800D099E0CA9B4B45F0
:100DC00000D095E032A811F0F7FC002800D08FE0A9
:100DD0000A2E28D9424667496D487318D3189A4697
:100DE0006C4B10189B1A984606E00378471C0A2B98
:100DF00006D03800574516D043461B18002BF4D1B7
:100E00000600471C0A2204A901301DF05BF90028E6
:100E1000EFD1F37A2C2BECD16BE00438C0B201286F
:100E200066D800239946EC68002C11DBFA212000DB
:100E3000890009F08FF9FA2106008900200009F0E5
:100E400089F933000091544A102108A80BF01AFCCC
:100E50002C69002C11DBFA212000890009F07AF9B5
:100E6000FA2106008900200009F074F9330000918E
:100E7000494A10210CA80BF005FC0CAB019308AB00
:100E80004021464A009322A804AB0BF0FBFB444BE5
:100E900010AA62CB62C262CB62C2196801381160CB
:100EA000998891809B7993713E2821D8322218A984
:100EB000CAA810F0B3FC00281AD14B4603AD002B92
:100EC00020D110A803931DF065FB03AD06000200BE
:100ED0002B0010A9CAA811F0A7F9002802D1039B82
:100EE0009E420FD0CAA811F00FFBCAA811F064FCF3
:100EF00000242000B123DB009D44E0BCBA46B1468B
:100F0000A846F0BD002322A803931DF043FB2B004D
:100F10000400020022A9CAA811F086F90028E1D134
:100F2000039B9C42DED1CAA811F0EEFA0400CAA8C5
:100F300011F042FC0443E4B263425C41E4B2D8E7FE
:100F40006646B30700D0EAE66421300009F02AF9CA
:100F500089B21D27002900D0E6E691313000FF312B
:100F600009F020F989B2002900D1DDE6D7E6C046B4
:100F700078FAFFFF9506000030F8FFFFACEE011095
:100F800050EE01105CEE01106CEE011084EE0110C9
:100F90009F06000061F9FFFF94EE0110A0EE011022
:100FA000BCEE0110F0B5C64600B51C4B84B286B04D
:100FB000E31801900020632B18D86B469A79531ED2
:100FC00017000B2B12D86B46DB799846002B0DD0FF
:100FD000134B03AD43CB43C5022A0BD003AABB1866
:100FE000013B1D78002042469542404106B080BC3E
:100FF000B846F0BDA307F1D16421200009F0D2F872
:1010000089B21D250029EDD191312000FF3109F071
:10101000C9F889B20029E5D0E0E7C04630F8FFFF03
:10102000ACEE0110F0B5CE46474680B505885C4B66
:101030000400EB1885B0632B03D88078431E0B2B7C
:1010400005D9002005B0C0BCB946B046F0BDE37874
:101050009846002BF5D0534B9946494601ABC4C97D
:10106000C4C3022858D001AB1B18013B1B78434571
:10107000E7D34D4B9D421DD043464A460133DBB278
:10108000E37001A99C469846C8CAC8C102285ED030
:1010900001AA1218013A1278944509D901230130A6
:1010A000C0B2E3700D281BD101230135A370258048
:1010B0000120C7E70C281ED041464A460131C9B27B
:1010C000E17001AB8846E0CAE0C302280BD001AB57
:1010D0001B18013B1B788B42EAD201230130E370DD
:1010E000A0700120AEE743461C2BE1D90423FF3357
:1010F00001206380A6E743461F2BA2D04A46013356
:10110000DBB2E37001A9C1CAC1C16A46D27B9A426F
:10111000CED20123E370C7E7AB072ED164212800AC
:1011200009F040F889B2002931D1C82128004900CE
:1011300009F038F889B2002929D06B465B799845C7
:1011400000D97EE743460133E370DBB29846AB0734
:10115000C9D16421280009F025F889B2002907D1F6
:1011600091312800FF3109F01DF889B20029BAD168
:1011700043461D2BBAD8012064E76B465B7998453E
:1011800000D95EE7084B9D4200D075E794E74346DF
:101190001D2B00D955E70133E370DBB29846D8E741
:1011A00030F8FFFFACEE011033080000F0B54E46FA
:1011B0004546DE465746E0B5C34C0D00A5440493B2
:1011C000F0AB1B7803929946C04BC35C002B04D054
:1011D0000868FFF7E7FE00280AD100242000E72373
:1011E0009B009D44F0BCBB46B246A946A046F0BD5C
:1011F000B74811F08DFC0824A043C0B20028ECD100
:10120000B44811F085FCA043C0B20028E5D1EA78CB
:101210002B880192AA780D2100920EA8AE4A0BF0FD
:1012200031FA0CAF2B6838000C93FFF7FBFE041E5D
:101230000790D2D0FA783B880192BA780D210092BB
:1012400012A8A54A0BF01EFAE9782B880191A9781B
:10125000A24A009116A840210BF014FA0A2216A9FE
:101260004EA810F0DBFA0028B7D15D2226909C49E9
:1012700026AB4EA810F0D8FF9A4A071E03D1269B32
:101280005D2B00D140E112AB01930EABA021009386
:1012900026A80BF0F7F900260027934BB8469B468B
:1012A000924B079A9A46924B0994089306950EE042
:1012B000002E59D1002200265946043143468B4660
:1012C00051460133043198468A460E2B59D0414687
:1012D000069B1B89CB40DB07EED5002AE8D0002E09
:1012E000E8D04B46002B3CD15B461E680BAC03227A
:1012F0000021200009F00EFE327800250DAB002AF7
:1013000021D005935C2A21D03B2A1FD02C2A1DD046
:101310000A2A20D02270657020000D951DF03AF940
:10132000210007000200059B4EA810F07DFF002859
:1013300002D10D9B9F4202D000260022BCE77278AA
:101340000136002ADED10022079EB5E75C236270D9
:101350002370A570E0E7089A138823809378A37020
:10136000DAE753461E68C1E70D9262490DAB0232BF
:101370004EA810F059FF00289CD10D9B022B99D14B
:10138000AFE7099C069D002A45D0002E00D02BE235
:10139000594A039BA021009326A8049B0BF072F9E5
:1013A000EF68002F75DB4B46002B00D018E1FA21C7
:1013B000524E38008900039608F0CCFE0191FA21C4
:1013C0003800890008F0C6FE32000090A0214C4B86
:1013D00026A80BF057F92F69002F12DB494CFA2190
:1013E0003800890008F0B6FE0191FA213800890022
:1013F00008F0B0FE23000090A021039A26A80BF06D
:1014000041F94EA811F080F84EA811F0D5F916A8B0
:1014100011F010FAE1E6039BA0210093364A049BE9
:1014200026A80BF02FF9002EBAD00DAB984600235A
:1014300026A80D931DF0AEF843460200070026A92A
:101440004EA810F0F1FEEE68002803D10D9B9F42DC
:1014500000D1F0E0002E1CDB4B46002B00D090E2C8
:10146000FA21264F30008900039708F073FE01919E
:10147000FA213000890008F06DFE3A000090A021AA
:101480001F4B26A80BF0FEF82F691E4C002FA6DA82
:10149000B7E72F69002FB4DB4B46002B00D049E2A1
:1014A000FA213800890008F055FE0191FA21380030
:1014B000890008F04FFEA0210090124B0F4A26A889
:1014C0000BF0E0F89DE7C04664FCFFFF95060000C6
:1014D00050EE01101CEF01102CEF01103CEF011039
:1014E0006CEF0110CCEF0110540E02108C0E0210A4
:1014F000C4F001103CF0011048F0011090F0011010
:10150000B4F001100CEF011012AB01930EABA0214F
:10151000009326A80BF0B6F826A80D971DF03AF810
:101520000DAB0700020026A94EA8984610F07CFEDD
:10153000002800D0AFE60D9B9F4200D0ABE6002311
:1015400023220D93C54943464EA810F06DFE002896
:1015500000D0A0E60D9B232B00D09CE64B46C04E4E
:10156000002B00D1BF4E0BAF03220021380009F041
:10157000D1FCAA46412325005C2B25D03B2B23D050
:101580002C2B21D00A2B25D03B7000237B7000230D
:1015900038000D931CF0FEFF4346040002003900A2
:1015A0004EA810F041FE002802D10D9B9C4203D0B2
:1015B0002C00002655466FE673780136002BDBD1F0
:1015C0002C00079E554667E65C227B7000233A702C
:1015D000BB70DCE7A44B1A883A809B78BB70D6E7D7
:1015E000FA21A24E38008900039608F0B3FD01915C
:1015F000FA213800890008F0ADFD32009C4B0090C4
:10160000A02126A80BF03EF82F69002F00DAF8E69B
:10161000FA213800890008F09DFD0191FA21380077
:10162000890008F097FDA0210090924B039A26A80C
:101630000BF028F8E5E6002E00DA6CE18E490D90FB
:10164000434602224EA88A4610F0EEFDEF680028BD
:1016500000D0A8E60D9B022B00D0A4E64B46002B41
:1016600000D06BE1FA21814B38008900039308F028
:1016700071FD0191FA213800890008F06BFDA0216D
:1016800000907E4B039A26A80AF0FCFF0BAF0322C2
:101690000021380009F03EFC08AB78331B78002BA2
:1016A0002FD0A34626AE5C2B00D18BE03B2B00D184
:1016B00088E02C2B00D185E00A2B00D18EE03B7016
:1016C00000237B70002338000D931CF063FF43461A
:1016D0000400020039004EA810F0A6FD002802D137
:1016E0000D9B9C4208D02F69002F00DA89E64B46FB
:1016F000002B00D172E68BE773780136002BD2D134
:101700005C462B69002B00DA89E0002302220D934E
:10171000514643464EA810F087FD2F690028E6D1B8
:101720000D9B022BE3D1FA213800890008F012FD4D
:101730000E00FA213800890008F00CFD4B46002B02
:1017400000D110E10090A0214A4B039A019626A8EF
:101750000AF098FF0BAF03220021380009F0DAFBF2
:1017600008AB78331B78002B59D0AA46A1464546D2
:1017700026AE1FE03B2B1FD02C2B1DD00A2B27D0D1
:101780003B7000237B70002338000D931CF002FF98
:101790002B000400020039004EA810F045FD00287F
:1017A00000D02EE60D9B9C4200D02AE673780136CD
:1017B000002B32D05C2BDDD15C227B7000233A7091
:1017C000BB70E0E75C227B7000233A70BB7079E766
:1017D000254B1A883A809B78BB70D4E7224B1A8835
:1017E0003A809B78BB706DE7002304220D93244957
:1017F0000DAB4EA8984610F017FD224A002800D0E5
:10180000C7E50D9B042B00D0C3E5039BA0210093EB
:1018100026A8049B0AF036FF09E64C4655462B7D68
:10182000002B5CD0002308220D93174943464EA895
:1018300010F0FAFC002800D0E3E50D9B082B00D047
:10184000DFE50BAF03220021380009F063FB2B7D9D
:10185000002B44D0A1461435444637E018F001105F
:10186000ECEE0110DCEE0110C4F0011090F001105C
:10187000A4F00110FCEE011060F00110B4F00110B2
:1018800040F0011048F0011064F001103B2B1FD014
:101890002C2B1DD00A2B47D03B7000237B700023DC
:1018A00038000D931CF076FE23000600020039007C
:1018B0004EA810F0B9FC002800D0A2E50D9B9E4276
:1018C00000D09EE56B780135002B07D05C2BDDD175
:1018D0005C227B7000233A70BB70E0E74C4600232B
:1018E0001D220D932F4943464EA810F09DFC002861
:1018F00000D086E50D9B1D2B00D082E54EA810F090
:1019000003FE05004EA810F057FF2843C0B2002880
:1019100000D163E47BE52B69002B00DA7FE7224BE3
:101920009A46224B0393F0E6214B1A883A809B7823
:10193000BB70B4E71D4B1F4C039350E5FA211B4BC2
:1019400038008900039308F005FC0191FA21380062
:10195000890008F0FFFBA0210090174B039A26A8EE
:101960000AF090FE92E6FA2138008900019608F00C
:10197000F1FBA0210090114B039A26A80AF082FEE9
:10198000E8E6FA21094F30008900039708F0E2FBEE
:101990000191FA213000890008F0DCFB3A00064B87
:1019A00000902DE670F0011060F0011090F0011031
:1019B000C4F00110FCEE0110A4F001100CEF0110B6
:1019C00070B504000D001CF0E5FD030000200A2B9B
:1019D00002D123792D2B00D070BDE3792D2BFBD1C3
:1019E00030225242944623789C446346DBB2092B52
:1019F000F2D861788918CBB2092BEDD8A278303AA9
:101A0000D3B2092BE8D8E378303B1E00DBB2092BB8
:101A1000E2D86379303B092BDED8A379303B092B20
:101A2000DAD8237A303B092B29D8637A303B092B4B
:101A300025D8FA2360469B004343642041439B1909
:101A40005B189100521852009B182B806379303B31
:101A50009A009B18A2795B00303A9B18AB70237AEE
:101A6000303B9A009B18627A5B00303A9B18EB700F
:101A700068882B8800041843FFF794FAACE700202D
:101A8000AAE7C046F8B504000D006B4A002109F032
:101A900041FA6A4BAA882360042323716B68E280B1
:101AA0001A0C1B0E6372664B2272EB5AAA89638171
:101AB0002B886282A3812B89E3816B892382EB6867
:101AC0001A0C1B0E63752B8A2275E3826B69002B3F
:101AD00001DA01235B42A361AB69002B01DA012328
:101AE0005B428026E361202376012900A3512B006D
:101AF0001C317D33994206D020006122203009F04C
:101B00000FFA8123A35180235B01E7582B004C4A35
:101B10008033AE18781E1D009E4243D02A88E319F8
:101B2000E255120A5A70AA789A70EA78DA706A68EE
:101B3000110A1A715971110C120EDA712A899971F0
:101B40001A72120A5A72EA68002A01DA0122524213
:101B5000110A9A72D972110C120E5A732A691973EA
:101B6000002A01DA012252423800110A9A73D9730D
:101B70001130110C120E1974290022542A003B0056
:101B8000143175321233914251D06122E01809F0BC
:101B9000C7F93800733772307835AE42BED1802332
:101BA0005B01E750002F44D00123661C3618250046
:101BB000012024495B422A78013553405A080340EA
:101BC0005B420B405A405308024052420A40534085
:101BD0005A0803405B420B405A40530802405242AD
:101BE0000A4053405A0803405B420B405A40530896
:101BF000024052420A4053405A0803405B420B40A5
:101C00005A405308024052420A405340B542D2D192
:101C1000DB43E219190AE3555170190C1B0E917040
:101C2000D3708022043752012000A750F8BD1F0056
:101C3000B2E70023EDE7C046041000004C505331DA
:101C4000080F00002083B8EDF0B54546DE46574644
:101C50004E46E0B57E4C7F4BA544CB1880460192A2
:101C6000012B0DD97C4BCB18012B09D90026300054
:101C70007A4B9D44F0BCBB46B246A946A046F0BD97
:101C800043465B18DA1E10781A1F127800021043C0
:101C90009A1E127844460127120402430120013B98
:101CA0001D78261F2D0615436D4A76187F4223782E
:101CB00001347B405F0803405B4213405F407B0878
:101CC00007407F4217407B405F0803405B42134060
:101CD0005F407B0807407F4217407B405F0803401E
:101CE0005B4213405F407B0807407F4217407B40C8
:101CF0005F0803405B4213405F407B089C460740FF
:101D00007B42674613405F40A642D0D1FB43AB42C3
:101D1000ACD1434642469B7852781B0412021343CF
:101D20004246127813434246D278120613434D4A74
:101D300093429BD1434642465B7912791B0213437F
:101D40000093012B71D0022B7DD0032B73D1464B16
:101D5000994200D08AE702AB9A4600211800434A14
:101D600009F0D8F8012352465370414A5146229255
:101D700084228B50853A8B33CA500433CA500121D8
:101D80003C4C3D4840AB3D4D02AE1C8058805960F4
:101D9000DA601A61AD197833AB42F4D1434642465A
:101DA0001B7AD2791B0412021343424692795146A0
:101DB00013434246527A504612061343524653602A
:101DC00043462E4A9B7A8B5442462D49D27A42543E
:101DD000009901295AD04146097B012900D945E7DC
:101DE00001700099042900D0A9E14146497B0229EC
:101DF00000D93BE7002441701F21002000269142BA
:101E000060410139994266410E27064043464146EA
:101E1000DA195378C95D1B020B4351460B81937845
:101E200004378B72D378CB723BE0DF231B019942DE
:101E300000D01BE78FE7042B00D017E7114B994226
:101E400000D013E787E7104B994200D00EE782E7F6
:101E5000E4F0FFFF8FF1FFFF10F2FFFF1C0F000007
:101E60002083B8ED4C505331710E00000C0F000070
:101E7000EA070911EA07000009110000080F000035
:101E8000090F0000720E0000F10D00000024002078
:101E900000261D31994260410131914266410C2773
:101EA000064043464246DB195978D25D0902114388
:101EB0009A78DD7812040A432D06154352465C7960
:101EC000D5601A7924021443524638001482DA7914
:101ED000997912020A43197A0A30090411435A7A8D
:101EE00012060A43511C05D0A5498C46511E614576
:101EF00000D920E151464A614246D97A125C090272
:101F000011431A7B5B7B12040A4339001B061343FF
:101F10000E315A1C04D09A485A1E824200D91EE142
:101F200052464144936109A8612208F0F9FF6F23EA
:101F30009946B944002E14D0002D00D11DE1802314
:101F4000DB019C4200D318E17C235246D35C002B7A
:101F500000D012E11389002B03D09068FFF722F81C
:101F60000600524653465146127F5E201C337D3197
:101F7000002A0CD000240025203AD2B290426C41B5
:101F8000013326408B4215D01A78002AF2D15A1C10
:101F900091420FD0531C8B420CD050780028F6D0C1
:101FA000931C994206D09278002AF0D01A00531C54
:101FB0008B42F2D18023554653449B460027F5358A
:101FC0005B461F805F80009B022B0FD943464C4627
:101FD00040464B44DA7899785B78005D1B020343F6
:101FE0005846038004238170C270994443464B4491
:101FF0005A7899781202090448460A434146095C16
:10200000D8790A43D978000209060A4359464A603A
:102010005A79197912020A4359460A8149461A7AAD
:102020000A31120410439A7910435A7A1206024375
:10203000501C03D0524C501EA04278D85846C26063
:10204000DA7A187B1202000402434046415C5B7B53
:102050000A4349461B0613430E315A1C03D0484815
:102060005A1E824254D85C465A46143413612000EA
:102070006122414408F054FF6F239944002E54D04C
:102080005B465B68002B50D05B4680221B89D201E7
:1020900093424AD274235A46D35C002B45D113880D
:1020A000002B03D01068FEF77DFF060023785E2228
:1020B000002B20D10134AC420BD02378002B05D16A
:1020C0000134A54205D02378002BF3D00134A5427A
:1020D000F6D178239B442B4B02AA9B1878359B455D
:1020E00000D06DE7002E00D1C0E55146264A019888
:1020F00008F016FFBBE53900203BDBB29A4279417C
:1021000001340E40A542E4D02378002BD8D0F2E76A
:1021100001235C465A465B4214341361200061225D
:10212000414408F0FDFE6F2399440026BEE70122DA
:102130000026524282E7012200265242DAE61F219F
:1021400000240020002691426041013999426641F5
:10215000009B0D270640032B00D157E6A1E6012383
:1021600052465B4293614144612209A808F0D8FEBF
:102170006F2399460026B944F3E60026F1E6C046EF
:102180003E420F00080F00000A0F0000F0B5CE46D7
:102190004746E92280B55F4C1201A5448C0000211E
:1021A000050008F0B7FE5C4B0122E15802A80FF0D1
:1021B00035FB031FDBB20400012B04D9002809D032
:1021C0000322564BEA542800554B9D44C0BCB946E7
:1021D000B046F0BD069A534B17009B18012B07D948
:1021E000514ABB18012B03D90023019098460AE0FD
:1021F00000233A000193290001AB02A80FF0E4FE8E
:1022000001230400984602A810F0D6FA0443E4B271
:10221000002CD5D101220121444E454C4548D8AB74
:102220006E4452421C8058805960DA601A617833DB
:102230009E42F7D14346002B02D0019BBB4203D004
:102240000222364BEA54BEE73B4B2A689A42F7D14A
:102250003B00103B1A009946AB689A42F0D1391FF7
:10226000681842786B5C12021A4383781B0413438C
:10227000C27812061A439446002948D001232E0042
:1022800001202C1F2D49E4195B42327801365A4057
:102290005308024052420A4053405A0803405B42EE
:1022A0000B405A405308024052420A4053405A08D9
:1022B00003405B420B405A405308024052420A40DE
:1022C00053405A0803405B420B405A4053080240B7
:1022D00052420A4053405A0803405B420B4053406D
:1022E000A642D2D1DB439C45AAD1280049469AAAEE
:1022F0000C30FFF7A9FC0028A2D06A68104BEA5006
:102300004A46104BEA500122044BEA545BE7012392
:102310005B42E7E784EEFFFF040E02108C0E000024
:102320007C1100007FF1FFFF00F2FFFF7011000041
:10233000EA070000091100004C5052312083B8ED2B
:10234000840E0000880E0000F0B5C64600B5984621
:102350002E4B2F4CC35CA5440F000400002B41D032
:102360002C4B9A4237D900216846FFF70FFFE9232B
:102370001B016B4418000121FFF708FF6B46264A3A
:102380009B5C032B27D0E9206946000109188A5C71
:10239000032A20D0012B27D0012A19D1E9216A462E
:1023A0001E4B09015218D358E92212016A44012038
:1023B0001100D322D200A050194A3800A350194B63
:1023C000CA5843460C311A6008F0AAFD012003E008
:1023D0000020134300D00320E9235B019D4480BC0F
:1023E000B846F0BD0220F7E70C4B00209C466B4638
:1023F00061465B586946012ADBD1E926654636010C
:102400008A1952599A42D4D91300CDE79506000093
:10241000E0E2FFFF710E00008C0E0000840E000051
:102420009C060000880E0000F0B54646D6464F4692
:10243000C0B5654B654CC55CA544884604001600D4
:10244000002D06D0624BC35C002B02D1614B9A4237
:1024500009D000252800FC235B019D44E0BCBA465E
:10246000B146A846F0BD5C4FC3590133F1D05B487B
:1024700010F04EFBF7231842EBD1D323DB00E358D7
:1024800000215A4253419BA8DBB2554A994608F0B5
:1024900041FD544B9D229B93E359920001339C9341
:1024A0006B4641469E529EA8320008F039FD4E4BC5
:1024B00001216B449C4601234C4A9BA85B42067851
:1024C00001305E4073080E407642164073405E084D
:1024D0000B405B4213405E4073080E40764216404C
:1024E00073405E080B405B4213405E4073080E4031
:1024F0007642164073405E080B405B4213405E40DC
:1025000073080E407642164073405E080B405B42F3
:10251000134073406045D2D19B206946DB436E4631
:102520008000334A09188B523618190C0232B15404
:10253000304A1B0EB3544A462F4B9200D15802A882
:102540000A220FF06BF9002800D082E7244E01AB7D
:1025500032009BA9019002A80FF066FE070002A8B6
:102560000FF0D2FF804602A810F026F9019B9A4690
:10257000B34225D13B00424613431843C0B2002862
:102580001ED11E4B49466B441800FFF7FFFD6A46FB
:102590001A481B4B1218D35C012B11D103006B445A
:1025A000524618009BA91BF08DFD002808D1D323AB
:1025B0004A46DB00E250084AA3580133A35049E7DA
:1025C0000122034BE25444E79506000080E0FFFF40
:1025D00096060000720E00009C06000050EE0110EE
:1025E000820E00004C505231EA1000002083B8EDFA
:1025F0007E0E0000810E0000040E0210F01000009C
:102600008C0E0000F0B54646D6464F46F223C0B5C4
:102610001B018B4CC358A54488460400002B00D0F6
:10262000EBE0884BC35C002B13D00379012B00D166
:10263000F3E0854B8549864A601864210AF022F848
:102640000020BE239B019D44E0BCBA46B146A8468B
:10265000F0BD804B7F4D6B441800FFF713FA8022CA
:102660006846216852010B68401986581B6A7A4AED
:102670008946934200D0D2E0784BCB5C002B00D14E
:10268000C4E0774B0D00CB5C002B00D0BEE0754B57
:102690009E4200D0BAE0744FCB59013300D1B5E06F
:1026A000724810F035FAF723184200D0AEE0D32379
:1026B000DB00EB5800215A4253419AA8DBB26C4A26
:1026C0009A4608F027FC6B4B9C229A93EB59920098
:1026D00001339B936B469E525E4B32006B44190054
:1026E0009DA808F01DFC01235B429C460121624A23
:1026F0009AA86546037801306B405D080B405B4249
:1027000013406B405D080B405B4213405D406B081B
:102710000D406D4215405D406B080D406D42154007
:102720005D406B080D406D4215405D406B080D40EB
:102730006D4215405D406B080D406D4215406B4089
:102740005D080B405B4213405D404C4BAC466B4414
:102750009842CED19A206946EB436D468000484AA4
:1027600009188B522D18190C0232A954454A1B0E18
:10277000AB545246444B9200D15802A80A220FF0A3
:102780004DF8002842D13A4A01AB9AA9019002A81B
:102790000FF04AFD060002A80FF0B6FE050002A8E1
:1027A00010F00AF8019B324A1F0093422AD13300ED
:1027B0002B431843C0B2002824D1344B51466B44FC
:1027C0001800FFF7E3FC6A463049314B5218D35CDE
:1027D000012B17D12D4B3A006B4418009AA91BF01E
:1027E00071FC00280ED1D32349465246DB00CA5063
:1027F0001D4A8B5801338B5018E00379012B0AD006
:10280000244B17E701224946154BCA542379012B63
:1028100013D0214B0EE7214B0CE7214B0AE70D4962
:1028200032004846694498470028EFD041461D4A87
:10283000201D08F075FB012003E71B4BFAE6C0469C
:1028400080D0FFFF240F00002CF10110A30F000027
:1028500088F101107C1F000029240010950600005B
:1028600096060000720E00009C06000050EE01105B
:10287000820E00004C5052312083B8EDE61000006B
:102880007E0E0000810E0000040E0210EC1000000D
:102890008C0E0000E8F001106CF10110C8F001107E
:1028A00000F101100A0F00004CF10110F0B557467D
:1028B000DE464E464546F1220100E0B5C74C0768AA
:1028C000A544120105908A5838688369092A00D105
:1028D00011E2C34A4979934200D012E2C14BFB583E
:1028E0009A46C14BFB589946C04BFB589846012964
:1028F00000D123E2022900D1E7E1002911D1BC4B2C
:10290000BC49BD4A0E0015009C46B64C3B51B64B27
:10291000F950B64BFA50E24500D1E5E10122B74B40
:10292000FA548368B64A934200D0F4E1C9239B006D
:10293000FE183D1DB54207D0280028222021283549
:1029400008F0E8FAAE42F7D1AE4B14220021F81895
:1029500008F0E0FAAC4B14220021F81808F0DAFA7B
:10296000F2230C2005991B01CB5840180C0081461E
:10297000002B0DD0A54A885C1F21C01A1F3007F01C
:1029800011FCA4460B015B1ADB0084339C44E14636
:102990000B2200211AA808F0BDFA4B461868FEF772
:1029A00001FB002800D0B9E1059B1B79012B00D168
:1029B000C2E1974B49464968964A00911AA80B21F3
:1029C00009F060FE28AB9B4680211AAB5846924A1C
:1029D00009F058FE059B18685B461B78002B01D157
:1029E00002F02DF9C72548AC0C9416AC2D193F24E4
:1029F000A446F824E40001225946A04682461C0061
:102A0000C23C4E1C012C00D8BBE03100AB540B780B
:102A1000002B00D1C9E00132642AF0D12C225046AB
:102A2000FF3216ABD218002313700368DE687B4BAD
:102A30009A469E4200D0C4E00122724B0C99C254C7
:102A40000A7800230430002A07D0C254CA185278EA
:102A5000002A02D00133282BF7D1059B1B79012BCB
:102A600000D1B9E06E4A059C8021A368584609F060
:102A700009FE5B461B782068002B01D102F0DCF8D0
:102A80003F24A446F824E40001225946A0460690BB
:102A90001C00C23C4E1C012C00D8C9E03100AB54D4
:102AA0000B78002B00D1D7E00132642AF0D12C2220
:102AB00016ABFF320698D218002313700268D6684E
:102AC000564500D0D2E04F4A0C99821853700A78CC
:102AD0002C30002A07D0C254CA185278002A02D0DB
:102AE0000133282BF7D1F223059A1B01D358002B71
:102AF00000D1C7E01379012B01D102F04FF8412337
:102B0000106848493F24A446F824E4000122A04666
:102B100006901C00C23C4E1C012C00D8BDE03100C8
:102B2000AB540B78002B00D1CBE00132642AF0D1FA
:102B30002C2216ABFF320698D218002313700268BD
:102B4000D668564501D002F070F82E4A0C998218CA
:102B500093700A785430002A07D0C254CA185278A9
:102B6000002A02D00133282BF7D1F123059A1B014B
:102B7000D358092B01D901F063FC2B4A9B00D35891
:102B80009F464C78604627008743802F00D03CE763
:102B900040469B010340604604402343DBB20231C0
:102BA000AB540B78002B00D035E70C9B50469A189D
:102BB000002313700368DE68184B9A469E4200D1CA
:102BC0003AE701230022009300210C9BB047059BAC
:102BD0001B79012B00D045E7144A44E75CFCFFFF5A
:102BE00021030010A0460000A4460000A8460000F3
:102BF000D2DDF40015152A007887D700940600006E
:102C00009D040010440600006C0600000C0F00003C
:102C100090F10110B8FA0110C0FA0110D9030010A8
:102C2000A4F10110B4F10110A40B021094F10110F1
:102C30004C78604627008743802F00D02EE740461F
:102C40009B010340604604402343DBB20231AB5496
:102C50000B78002B00D027E70C9B06989A180023CE
:102C600013700268D668564500D12CE710220093F5
:102C700000210C9BB047F223059A1B01D358002B6F
:102C800000D037E7F1231B01D358092B01D901F0FC
:102C9000D7FBE34A9B00D3589F464C7860462700F9
:102CA0008743802F00D03AE740469B0103406046AF
:102CB00004402343DBB20231AB540B78002B00D02D
:102CC00033E70C9B06989A1837E7D64BD64C9C46B0
:102CD0003B51D649D64BD74AF950D74B15000E0079
:102CE000FA50E24500D019E6B14500D016E6A845F5
:102CF00000D013E615E6D14A895CD14A934200D14F
:102D0000ECE538009847059BCE4A1F683868836811
:102D1000934200D10AE63800984721E649464B46DF
:102D2000C9781B88019149468978C74A00911AA839
:102D30000B2109F0A7FC45E6C44B3BE6C44BC54953
:102D4000C54A0E0015009C46DFE5059B1B79012B4B
:102D500001D102F001FDC14EF822059BD200186896
:102D6000432101233F27944681460A00C23A741C3E
:102D7000012A00D845E12600E9543178002901D123
:102D800002F0E5FC0133642BEFD12C234846FF33DE
:102D900016AA9B1800221A700368DE68564501D0F7
:102DA00002F034FEAE4BC318DA700C9B7C301A78FC
:102DB0000023002A08D0C2540C9AD2185278002A54
:102DC00002D00133282BF6D1059B1B79012B01D1B1
:102DD00002F04FFDA34A3F24A046F824A24B0599D8
:102DE000E400CE58086873425E4101213123A146B8
:102DF000F6B206901C00C23C571C012C01D802F010
:102E0000CFFA3A006B541378002B01D102F02CFD5D
:102E100001316429EED12C2116ABFF310698C91877
:102E200000230B700368DF68574501D002F0E7FD0F
:102E30008B4BC3189E710C9BF4301A780023002A28
:102E400008D0C2540C9AD2185278002A02D001330A
:102E5000282BF6D1059B1B79012B01D102F05AFCDE
:102E6000824A3F24A046F8247F4B0599E400CE58BF
:102E70000868013E73425E4101213223A146F6B249
:102E800006901C00C23C571C012C01D802F09BFA92
:102E90003A006B541378002B01D102F03EFC013153
:102EA0006429EED12C2116ABFF310698C9180023F6
:102EB0000B700368DF68574501D002F014FE684BC1
:102EC000C318DE710C9B1D301A78FF300023002AD6
:102ED00008D0C2540C9AD2185278002A02D001337A
:102EE000282BF6D1059B1B79012B01D102F00FFC99
:102EF0005F4A3F24A046F8245B4B0599E400CE5876
:102F00000868023E73425E4101213323A146F6B2B6
:102F100006901C00C23C571C012C01D802F066FA36
:102F20003A006B541378002B01D102F0FBFB013106
:102F30006429EED12C2116ABFF310698C918002365
:102F40000B700368DF68574501D002F09AFD444BCF
:102F5000C3181E720C9B45301A78FF300023002ADC
:102F600008D0C2540C9AD2185278002A02D00133E9
:102F7000282BF6D1059B1B79012B01D102F0D7FB41
:102F80003C4EF822059BD2001868452101233F27BB
:102F9000944681460A00C23A741C012A01D802F004
:102FA00038FA2600E9543178002901D102F0C2FB39
:102FB0000133642BEED12C234846FF3316AA9B180D
:102FC00000221A700368DE68564501D002F059FCF1
:102FD000234BC318DA720C9BBD301A78FF300023E4
:102FE000002A01D101F0F0FDC2540C9AD218527897
:102FF000002A01D101F0E8FD0133282BF4D101F0C2
:10300000E3FD72781000B843802800D0B3E6604634
:10301000890101403A4011430236C9B2ACE6C046CC
:10302000CC0B0210F5E9DC00A046000032231500AD
:10303000A4460000E3BD8E00A8460000260F000055
:10304000210300109D04001084EE01108CF101108A
:10305000D5EEE4001C2918009FD9BA0064F80110CD
:10306000440600007CF80110140F00009CF80110C9
:10307000BCF80110ECF80110059B1B79012B01D164
:1030800002F062FBAB4EF822059BD20018684C217F
:1030900001233F27944681460A00C23A741C012A44
:1030A00000D838E12600E9543178002901D102F036
:1030B000FCFB0133642BEFD12C234846FF3316AAC7
:1030C0009B1800221A700368DE68564501D002F092
:1030D000ABFC994BC318DA700C9B7C301A78002338
:1030E000002A08D0C2540C9AD2185278002A02D072
:1030F0000133282BF6D13F24A046F8248F4B059AA4
:10310000E400D658106873425E4101223123A14683
:103110008B49F6B206901C00C23C4F1C012C01D812
:1031200002F0F4F83900AB540B78002B01D102F017
:10313000C1FB0132642AEED10698013AD2239B00EA
:10314000D21816ABD2187F4BD21800231370036825
:10315000DF68574501D002F083FC774BC3189E719E
:103160000C9BF4301A780023002A08D0C2540C9A21
:10317000D2185278002A02D00133282BF6D13F24EE
:10318000A046F8246D4B059AE400D6581068013E1D
:1031900073425E4101223223A1466B49F6B206908A
:1031A0001C00C23C4F1C012C01D802F0C2F83900AF
:1031B000AB540B78002B01D102F071FB0132642A71
:1031C000EED10698013AD2239B00D21816ABD21842
:1031D0005C4BD218002313700368DF68574501D099
:1031E00002F037FC544BC318DE710C9B1D301A786B
:1031F000FF300023002A08D0C2540C9AD21852780B
:10320000002A02D00133282BF6D1059B1B79012B14
:1032100001D102F041FB4D4EF822059BD200186807
:10322000452101233F27944681460A00C23A741C77
:10323000012A01D802F090F82600E95431780029DB
:1032400001D102F019FB0133642BEED12C23484647
:10325000FF3316AA9B1800221A700368DE685645D1
:1032600001D002F0DAFB344BC3189A720C9B9530F4
:103270001A78FF300023002A08D0C2540C9AD218C2
:103280005278002A02D00133282BF6D1059A1379FF
:10329000012B01D102F053FA542310682C4E3F2227
:1032A0009446F822D200012790461A00C23A711CB7
:1032B000012A01D802F060F80E00EB553378002B9C
:1032C00001D102F0E5FA0137642FEED12C2716ABBD
:1032D000FF37FF1800223A700368DE68564501D0B8
:1032E00002F0CFFA144BC318DA720C9BBD301A7877
:1032F000FF300023002A01D101F066FCC2540C9A71
:10330000D2185278002A01D101F05EFC0133282B3B
:10331000F4D101F059FC72781000B843802800D035
:10332000C0E66046890101403A4011430236C9B205
:10333000B9E6C046ACF7011044060000140F0000C7
:10334000B8F7011080FDFFFFC4F70110F8F7011076
:103350003CF80110059C0321C14A2068FDF744FC9C
:103360002379012B01D102F09DFABE4BBE4A05998B
:103370008A5C002A01D001F0B7FFBC49BC4A009129
:103380005846802109F07EF9BA4B059AD658106844
:1033900073425E415B461B78F6B2002B01D102F00E
:1033A00021FB3F24A046F824E40001225946A1460F
:1033B000069607901F00C23F4C1C012F01D801F058
:1033C000DAF92100AB540B78002B01D102F0E8FAB6
:1033D0000132642AEED12C2216ABFF32069E0798EA
:1033E000D218002313700368DF68574501D002F03C
:1033F000F2FAA14BC3189E710C9BF4301A7800238B
:10340000002A08D0C2540C9AD2185278002A02D04E
:103410000133282BF6D1059B1B79012B01D102F03A
:103420005EFA964B059C58466179954A01310091A8
:10343000802109F027F98F4B2068E658013E73423E
:103440005E415B461B78F6B2002B01D102F0CDFA4B
:103450003F24A046F824E40001225946A1460690E4
:103460001C00C23C4F1C012C01D801F0F3FE3900B6
:10347000AB540B78002B01D102F02CFA0132642AF4
:10348000EED12C2216ABFF320698D218002313700F
:103490000368DF68574501D002F0AAFA764BC318DB
:1034A000DE710C9B1D301A78FF300023002A08D0F3
:1034B000C2540C9AD2185278002A02D00133282B19
:1034C000F6D1059B1B79012B01D102F000FA6D4A60
:1034D0003F24A046F824674B0599E400CE580868BD
:1034E000023E73425E4101213323A146F6B20690AB
:1034F0001C00C23C571C012C01D801F0BEFE3A0052
:103500006B541378002B01D102F0D7F901316429F3
:10351000EED12C2116ABFF310698C91800230B7091
:103520000368DF68574501D002F085FA524BC31893
:103530001E720C9B45301A78FF300023002A08D0F9
:10354000C2540C9AD2185278002A02D00133282B88
:10355000F6D1059B1B79012B01D102F009F94A4EE6
:10356000F822059BD20018684C2101233F2794467E
:1035700081460A00C23A741C012A01D801F090FE6B
:103580002600E9543178002901D102F09BF901337A
:10359000642BEED12C234846FF3316AA9B18002239
:1035A0001A700368DE68564501D002F04BFA324BC0
:1035B000C318DA720C9BBD301A78FF300023002A42
:1035C00008D0C2540C9AD2185278002A02D0013383
:1035D000282BF6D1059A1379012B01D102F0C3F8FB
:1035E00045231068294E3F229446F822D200012735
:1035F00090461A00C23A711C012A01D801F060FEFF
:103600000E00EB553378002B01D102F0A8F80137FA
:10361000642FEED12C2716ABFF37FF1800223A702B
:103620000368DE68564501D002F032FA124BC31827
:103630001A730C9BE5301A78FF300023002A01D161
:1036400001F0C2FAC2540C9AD2185278002A01D161
:1036500001F0BAFA0133282BF4D101F0B5FAC046D3
:1036600010FB0110D4F60110250F0000E0F6011048
:1036700020FB0110140F00004406000000F70110A9
:1036800028FB01101CF7011048F701108CF70110FE
:10369000059A1379012B01D102F080F843231068B9
:1036A000AF4A3F24A446F824E4000121A046814605
:1036B0001C00C23C561C012C00D872E232006B5434
:1036C0001378002B01D102F064F801316429EFD1A5
:1036D0002C214846FF3116ABC91800230B70026835
:1036E000D668564501D002F0E3F99E4A8218D3709D
:1036F0000C9B7C301A780023002A08D0C2540C9A04
:10370000D2185278002A02D00133282BF6D1059B1B
:103710001B79012B01D102F036F8934A059B998A57
:10372000002901D102F0C1F94E0801D102F0BAF925
:103730000120030006400B409B198E0834D0064040
:103740009B19CE0830D006409B190E092CD006409C
:103750009B194E0928D006409B198E0924D006409B
:103760009B19CE0920D006409B190E0A1CD0304070
:103770001B184E0A18D0012006409B198E0A13D040
:1037800006409B19CE0A0FD006409B190E0B0BD09A
:1037900006409B194E0B07D006409B198E0B03D099
:1037A0003040C318C90B5B188021584608F06AFFE7
:1037B000059B18685B461B78002B01D102F06FF95E
:1037C0003F24A446F824E40001225946A04681463D
:1037D0001C00C23C4E1C012C01D801F02AFE310015
:1037E000AB540B78002B01D101F0C8FF0132642AE1
:1037F000EED12C224846FF3216ABD21800231370AC
:103800000268D668564501D002F034F9554A82184C
:1038100093710C9BF4301A780023002A08D0C2540C
:103820000C9AD2185278002A02D00133282BF6D1F4
:10383000059B1B79012B01D101F09DFF4B4A059B94
:10384000998A002901D102F012F94E0801D102F043
:103850000EF98B083ED00120070006400F40BE192C
:1038600003409B19CE0830D006409B190E092CD07E
:1038700006409B194E0928D006409B198E0924D07A
:1038800006409B19CE0920D006409B190E0A1CD079
:1038900030401B184E0A18D0012006409B198E0A92
:1038A00013D006409B19CE0A0FD006409B190E0B71
:1038B0000BD006409B194E0B07D006409B198E0B70
:1038C00003D03040C318C90B5B18022199428941CB
:1038D0000A230B408021584608F0D4FE059B186847
:1038E0005B461B78002B01D102F020F93F24A4464F
:1038F000F824E40001225946A04681461C00C23C3F
:103900004E1C012C01D801F0A6FD3100AB540B7800
:10391000002B01D101F084FF0132642AEED12C2268
:103920004846FF3216ABD218002313700268D668DF
:10393000564501D002F025F90A4A821813720C9BF1
:1039400045301A78FF300023002A11D0C2540C9A57
:10395000D2185278002A0BD00133282BF6D107E079
:1039600014F901104406000034F901105CF901104B
:10397000059B9B8A002B47D05A0801D102F0F6F82C
:10398000012108000A40184080189A0801D102F06D
:10399000E8F80A401218D80830D008401218180960
:1039A0002CD008401218580928D00840121898093D
:1039B00024D008401218D80920D008401218180A3C
:1039C0001CD001405218580A18D001210840121882
:1039D000980A13D008401218D80A0FD008401218BD
:1039E000180B0BD008401218580B07D008401218BB
:1039F000980B03D001408A18DB0BD21893009B1858
:103A00005B00022A00D90A3380215846E34A08F0B5
:103A100039FE059B18685B461978002901D102F030
:103A200082F8F822D20001235E463F279446814661
:103A30000A00C23A741C012A01D801F01EFD2600BA
:103A4000E9543178002901D101F0E5FE0133642BFE
:103A5000EED12C234846FF3316AA9B1800221A7079
:103A60000368DE68564501D002F056F8CC4BC31807
:103A70009A720C9B95301A78FF300023002A08D0E8
:103A8000C2540C9AD2185278002A02D00133282B43
:103A9000F6D1059B1B79012B01D101F091FEC14E9E
:103AA000F822059BD2001868452101233F27944640
:103AB00081460A00C23A741C012A01D801F0EDFCCB
:103AC0002600E9543178002901D101F07CFE013350
:103AD000642BEED12C234846FF3316AA9B180022F4
:103AE0001A700368DE68564501D002F072F883212F
:103AF000AB4B8900C3185A730C9B40181A780023EB
:103B0000002A08D0C2540C9AD2185278002A02D047
:103B10000133282BF6D1059A1379012B01D101F03D
:103B20004AFE41231068A04E3F229446F822D2005C
:103B3000012790461A00C23A711C012A01D801F0EF
:103B4000BCFC0E00EB553378002B01D101F04EFE8A
:103B50000137642FEED12C2716ABFF37FF18002258
:103B60003A700368DE68564501D001F09FFD972149
:103B70008B4B8900C318DA730C9B40181A7800230A
:103B8000002A01D101F020F8C2540C9AD2185278C0
:103B9000002A01D101F018F80133282BF4D101F0EB
:103BA00013F85478604627008743802F00D085E5BE
:103BB00040469B0103406046044023430232DBB28F
:103BC0007DE5059B1B79012B01D101F0DFFD774AD3
:103BD000059C03212068FDF707F82379012B01D10B
:103BE00001F0E1FD724A059C724958466318802134
:103BF000994608F047FD704B2068E65873425E41D5
:103C00005B461B78F6B2002B01D102F002F83F248C
:103C100001225946A04684461800C2384F1C01288C
:103C200000D8D7E03900AB540B78002B01D101F05C
:103C3000BDFD0132642AEFD12C226046FF3216AB63
:103C4000D218002313700368DF68574501D001F0D4
:103C50005CFF534BC3189E710C9BF4301A78002301
:103C6000002A08D0C2540C9AD2185278002A02D0E6
:103C70000133282BF6D1059B1B79012B01D101F0D3
:103C8000C4FD4E4A059C4E4B5846E1180B00884631
:103C9000802108F0F7FC484B2068E358013B5A426A
:103CA0005341DFB25B461B78002B01D101F0BCFF12
:103CB0003F2401225946A44606901E00C23E4C1CD9
:103CC000012E01D801F04EFA2100AB540B78002BE5
:103CD00001D101F00AFD0132642AEED12C2216AB8B
:103CE000FF320698D218002313700368DE68564529
:103CF00001D001F0FFFE2A4BC3185F720C9B6D30A0
:103D00001A78FF300023002A08D0C2540C9AD21827
:103D10005278002A02D00133282BF6D10023059ACD
:103D20001D934893234BD35C002B01D101F05DFC24
:103D300048461DA9FCF7E0FE002801D001F057FC21
:103D4000059B1B79012B01D101F0DEFC1D4B80216D
:103D500058461D4A08F096FC059C5A460C212068DE
:103D6000FCF742FF2379012B01D101F0CAFC174A6D
:103D7000059C0E212068FCF737FFF2221201A258A1
:103D80002379002A01D101F0B5FC012B01D101F00A
:103D9000B8FE0F4A059B00F013FFC04634FB01102C
:103DA0004406000098F90110D4F90110ACF5011097
:103DB000D0F50110930F00001C0F0000F0F501106A
:103DC0009B0F000040F6011088F1011068F6011009
:103DD00060F50110444648780690A043802800D042
:103DE00020E7F8209B01C00003401800069B023129
:103DF00023400343DBB216E7059B1B79012B01D15E
:103E000001F02FFDE14A059C03212068FCF7ECFE40
:103E1000DF4BDF4FE35C3F19002B6ED0C823B94660
:103E20000793C33B06931DAE29220021300007F003
:103E300071F838001AF0AEFB0400282800D92824B5
:103E400022003900300007F06BF8059B18683378C2
:103E5000002B01D101F002FDF821C9008846494636
:103E60000122089184463100B14609940A9718004E
:103E7000C2384C1C012800D85CE12100AB540B78FF
:103E8000002B00D16AE10132642AF0D12C22604675
:103E9000089B4E46FF329946099C16AB0A9FD218E2
:103EA000002313700268D2689046069AD04500D06D
:103EB00065E18118B74A8B540C9B07991A78043135
:103EC00000234118002A08D00C98CA54C21852780E
:103ED000002A02D00133282BF7D13F193B78002B61
:103EE0000AD0069B01330693079B28331A000793D9
:103EF000A0235B009A4297D14F46059B1B79012B6B
:103F000001D101F0A8FCA44E38001AF043FB3200A6
:103F100003008021584608F0B5FB059C5A460A214B
:103F20002068FCF761FEF2221201A2582379002AD0
:103F300001D100F025FE012B01D101F085FE974A49
:103F4000059B0E211868FCF74FFE0599944B0868F5
:103F5000CB5C002B01D000F03FFE924BCB5C002BE2
:103F600001D101F0B5FDF8248E4AE40089183F27FD
:103F70000122A44681461C00C23C4E1C012C01D8E3
:103F800001F001FB3100AB540B78002B01D101F0A3
:103F90000EFB0132642AEED12C224846FF3216ABCA
:103FA000D218002313700268D668564501D001F07C
:103FB00014FBAB24774A0C99821853740A78A40036
:103FC0000019002A07D0C254CA185278002A02D019
:103FD0000133282BF7D1059B1868059B1B79012B12
:103FE00001D101F0CCFA55236F493F24A446F824AF
:103FF000E4000122A04681461C00C23C4E1C012C5C
:1040000001D800F024FE3100AB540B78002B01D115
:1040100000F033FE0132642AEED12C2216ABFF32BF
:10402000D2180023484613700368DD68554501D057
:1040300000F02EFE0122BF24564B0C99C318DA74EF
:104040000A78A40000230019002A07D0C254CA1815
:104050005278002A02D00133282BF7D1059B534A0E
:104060001B68190014931B685B69934201D001F02F
:10407000A3FA484A00238D180A002B321292D0224C
:104080004B4ED20013934B4B0C1D761852180E94C6
:104090001592169311961095179518961994464BEC
:1040A000149AD35C002B14D1C8230E989B002822AD
:1040B000C1181AF007F800280BD1109B1A781B7D45
:1040C0009A4206D1119B1A781B7D9A4201D100F0C9
:1040D0007BFFA02200210C98920006F01BFF374BBB
:1040E0008EAF1B68A2AD0593119BB6AC1B78B94689
:1040F0000F935CAB099366AB089370AB07937AABF5
:10410000984684AB9C46ACAB06930023C0A8CAA9D2
:104110000D9398AF0B950A940E9B0D9A9A5C130021
:104120003733DBB2322B01D900F0BBFD169C9B006C
:10413000E3589F4648783F270600BE43802E00D0B4
:104140009BE644469B0123403F2420400343DBB2CF
:104150000231AB540B78002B00D094E6089B4E46FE
:1041600099460C9B60469A18002313700268099CBC
:10417000D2680A9F9046069AD04500D199E60093EE
:1041800000210C9B1201C047A7E6C04630F5011084
:10419000320F0000440600004CF5011060F50110DC
:1041A0000D100000A30F00009CFA0110F104001094
:1041B0006C060000F40B021094060000145E002050
:1041C000059B1B79012B01D101F042FB904A059C14
:1041D000904E8021A3595846013308F053FA5A46AD
:1041E00003212068FCF700FDA259511C8B005B18CD
:1041F0005B0006930E2B01D900F0C8FF93009B18BB
:104200005F00069BBB4201D800F0CDFC824B0893B7
:10421000824B0993824B0A933F239846059B1B7957
:10422000012B69D0099ABB00D1580B78002B01D122
:1042300001F0C1FBF820C000012284460797180056
:10424000C2384C1C01285BD92100AB540B78002BE1
:1042500067D00132202AF2D1C73216AB079FD2189D
:10426000002313704B461A890123FA40134057224A
:10427000013B9343783301930C9B7C1C8021089A6B
:1042800000935846230008F0FDF905990868036873
:10429000DE68604BCA5893009B18624A5B008A58DC
:1042A000FB1A5F1DD31A5A425341DBB2564501D067
:1042B00000F06DFC132F15D85B49C21953545B46AF
:1042C000197800290ED00023BA00D219D200043286
:1042D0008218D1545946C9184978002902D00133AF
:1042E000282BF6D1069B9C4201D100F05CFC059B7B
:1042F00027001B79012B95D10A9ABB00D15894E76E
:10430000487847460600BE43802E9DD164469B01F7
:10431000234038400343DBB20231AB540B78002B0F
:1043200097D10C9B079F9A189AE7059C0321206858
:104330003E4AFCF759FC3E4B2068E35C002B01D160
:1043400001F002FC3A4A0126A7183F229446F822BF
:10435000D20090461A00C23A791C012A46D90F00B1
:10436000AB553B78002B01D101F06EFA0136642E7B
:10437000F0D12C2616ABFF36F618002232700368F7
:10438000DE68564501D001F01EFB274B0132C318F1
:104390009A710C9BF4301A780023002A08D0C2547A
:1043A0000C9AD2185278002A02D00133282BF6D169
:1043B000059B1B79012B01D101F075F91D4A059C64
:1043C00009212068FCF710FC2379012B01D101F0B1
:1043D00067F9194A059C0C212068FCF705FC237934
:1043E000012B01D101F050F9144AA9E57A781400A3
:1043F000914662469443802CB1D142469B011340C2
:104400004946624611400B430237DBB2A8E7C0467B
:1044100068F40110180F000000FB0110540E021088
:104420008C0E0210140F000044060000F8FA011070
:10443000270F000088F30110D4F3011018F40110C5
:10444000059A1379012B01D101F0B0FA44231068C9
:10445000D24A3F24A446F824E4000121A046814624
:104460001C00C23C561C012C00D874E132006B5475
:104470001378002B01D101F0A1FA01316429EFD1A9
:104480002C214846FF3116ABC91800230B70026877
:10449000D668564501D001F05DFBC14A8218D37041
:1044A0000C9B7C301A780023002A08D0C2540C9A46
:1044B000D2185278002A02D00133282BF6D1059C5D
:1044C000B84B8021E3585846B74A08F0DBF85B4602
:1044D0001B782068002B01D101F039FB3F22944664
:1044E000F822D20001265F4690461A00C23A791C93
:1044F000012A01D800F04EFE0F00AB553B78002B8F
:1045000001D101F0C6F80136642EEED12C2616AB8F
:10451000FF36F618002232700368DE68564501D077
:1045200001F0CDFA9E4BC3185A710C9BCC301A780F
:104530000023002A08D0C2540C9AD2185278002ABC
:1045400002D00133282BF6D1984B0893984B1F00CB
:104550000023079308331E00373398460C9B994677
:104560000599944B079ACB5CD340012214001C4060
:1045700006941A4200D19FE0731C9B460B79012BD5
:1045800001D101F071F822008B49059B0A97186848
:104590005B468446099393464E2306961800C2381C
:1045A0004E1C012801D800F009FE3100AB540B78F5
:1045B000002B01D100F018FE0132642AEED15B46D7
:1045C0002C226046069E0693099BFF329B460A9F5B
:1045D00016ABD218002313700268D268140052453B
:1045E00001D001F07BF8132E18DC6D498219535469
:1045F0004B461978002911D0B2009219D20004322A
:10460000821800234846069CD154C11849780029D5
:1046100002D00133282BF7D181460694059B023640
:104620001B79012B01D100F0D4FF3A68059B186873
:104630001378002B01D101F0F4FA8446069C099608
:104640000A971800C238511C012801D800F0D6FD85
:104650000A002B551378002B01D100F0E5FD013441
:10466000642CEED12C246046FF3416AB099E0A9FC1
:10467000E418002323700268D4685A46544501D0D8
:1046800001F025F8132A17DC4549821853544B468C
:104690001978002910D05B469A005A44D20004329F
:1046A000821800234846D154C1184978002902D005
:1046B0000133282BF7D18146079B089A0133083232
:1046C000079308920437062B00D049E7059B1B7916
:1046D000012B01D100F0E1FF384EF822059BD200FA
:1046E0001868452101233F27944681460A00C23AB3
:1046F000741C012A01D800F09DFD2600E954317890
:10470000002901D100F0D9FF0133642BEED12C2315
:104710004846FF3316AA9B1800221A700368DE6809
:10472000564501D000F0C2FF97211D4B8900C318E8
:10473000DA730C9B40181A780023002A00D143E258
:10474000C2540C9AD2185278002A00D13CE20133AC
:10475000282BF5D138E25478604627008743802F14
:1047600000D083E640469B0103406046044023435B
:104770000232DBB27BE64F7846463800B0438028F1
:1047800001D0FEF71EFE9C014B461C4043463B40B9
:1047900023430231DBB2FEF715FEC04608FA0110D2
:1047A00044060000081000003CFB0110240E02101B
:1047B0000C0E02100C10000028FA01105CFA011017
:1047C000059B1B79012B01D101F034FA059BD74AD7
:1047D000186854233F24A446F824E4000121A0468D
:1047E00006901E00C23E541C012E01D800F05AFC57
:1047F00022006B541378002B01D100F0F2FF01313D
:104800006429EED12C2116ABFF310698C91800237C
:104810000B700268D668564501D001F0EDF9C44A24
:104820008218D3700C9B7C301A780023002A08D0A1
:10483000C2540C9AD2185278002A02D00133282B85
:10484000F6D1059B1B790793012B01D100F0C0FF26
:104850004B461989002901D101F0C2F9B54B99469F
:104860004B0801D101F0B1F90126320033400A4072
:104870009B18880801D101F0A2F902003240D21839
:10488000CF0801D101F098F933003B4008099B188B
:10489000041E8446069301D101F08BF934401B19A4
:1048A0004C09089401D101F068F934401B198C09B6
:1048B00001D101F05EF934401B19CC0901D101F09E
:1048C00058F934401B190C0A01D101F052F9344057
:1048D0001B194C0A01D101F04CF926409B198C0A96
:1048E0000126002C01D100F0ABFF34401B19CC0A8B
:1048F00001D100F0A5FF34401B190C0B01D100F0D1
:104900009FFF34401B194C0B01D100F099FF34403C
:104910001B198C0B01D100F093FF34401B19CC0BF9
:1049200001D100F08DFF3E400133B218012738401D
:1049300082186846008C002828D038401218880950
:1049400024D038401218C80920D038401218080A5C
:104950001CD038401218480A18D038401218880A5B
:1049600014D038401218C80A10D038401218080B5A
:104970000CD038401218480B08D00740D2198E0BC3
:1049800004D0012030408218C90B521891008918B8
:104990004900022A00D90A31F222059812018258F0
:1049A000002A01D100F045FF079A012A01D101F048
:1049B000FDF8614A02920E220191009280214A463E
:1049C000584607F05FFE059B18685B46197800297A
:1049D00001D101F0E4F83F229446F822D2000123ED
:1049E0005E4690460A00C23A741C012A00D86BE366
:1049F0002600E9543178002901D100F016FF013377
:104A0000642BEFD12C2316AAFF339B1800221A70B7
:104A10000368DE68564501D001F0BAF8444BC3186C
:104A20001A710C9BA4301A780023002A08D0C254B3
:104A30000C9AD2185278002A02D00133282BF6D1D2
:104A40003E4B1DAE1D933E4B7361059B1B79012BA5
:104A500001D100F0D4FE3B483B493C4A3C4B33611A
:104A6000F223F260059A1B01B160D15870600029F1
:104A700001D000F0BFFE30230622B0468900033A81
:104A80008844511E8A41032152421140F0221700EE
:104A9000B13A93460C9A062644469146093109914B
:104AA00005982C4AB11F82580068521A51424A4157
:104AB000D2B29446002B01D100F0AAFE22686146D2
:104AC0009046069101224146B446A04607900897B9
:104AD0001C00C23C481C012C00D807E30100AB5469
:104AE0000B78002B00D115E30132642AF0D12C227F
:104AF0004446069B6646FF329C46079816AB089FC5
:104B0000D218002313700368DB689846534500D021
:104B10000FE36146064B8219D1544B461A78391D72
:104B200000234118002A20D0484615E018F2011051
:104B30004406000040F2011060F20110E4FA011096
:104B4000ECFA0110D0F20110E0F20110ECF20110C9
:104B500000F30110140F0000CA54C2185278002A42
:104B600002D00133282BF7D18146099B0136B3428D
:104B700001D100F07DFD636804341B7828378FE78E
:104B8000012B01D101F053F8D04AFFF7D9F9009376
:104B900000215B463A01B047FFF7A4FB4A231068A7
:104BA000CB49FDF7AFFFF222059912018A580B7924
:104BB000002A33D0012B01D100F08DFF0B00C54A34
:104BC0000F211868FCF710F80599C34B0868CB5CF7
:104BD000002B01D1FFF7C1F903681E69BF4B9E424C
:104BE00001D000F0ECFC0122BD4BC3185A74BD4B40
:104BF000CA5C002A01D1FFF7F0F9AB240023A4001E
:104C00000019B94C0919C254CA5C002A01D1FFF736
:104C1000E2F90133282BF6D1FFF7DDF9012B01D1A1
:104C200001F00EF80B00B14ACAE7009320220021E0
:104C30000C9BB047FDF799FF0C9AFDF73DFFC72588
:104C400048AB1A000C9316ABED18FDF7ECFE4C7850
:104C5000604627008743802F01D0FFF7D4F94046F4
:104C60009B010340604604402343DBB20231AB5456
:104C70000B78002B01D0FFF7CDF90C9B48469A1812
:104C8000002313700368DD68554501D1FFF7D2F9A1
:104C900001239822009300210C9B5200A847FFF7A4
:104CA000DDF91300203B5E2B01D900F01AFC530004
:104CB0009B18002292469B007D3BFF3B0F9C002CE3
:104CC0006CD1059D099EEC5CEB1834705C78089DF6
:104CD0002C709C78079D2C704546DC782C706546BE
:104CE0001C792C704D465C792C709C790B9D3C7026
:104CF000DC792C701C7A069D2C705C7A0A9D2C70D5
:104D00009C7A0470DB7A0B705346002B00D194E040
:104D100028230024012A00D194E0022A00D1E5E3EF
:104D2000032A01D100F0EBFB042A03D11023037006
:104D300010330B70099A0D9B01320992089A0133C6
:104D400001320892079A0D93013207920122904492
:104D5000944491440B9A013701320B92069A013028
:104D6000013206920A9A013101320A92272B01D0B0
:104D7000FFF7D2F9129B1A7813003733DBB2322BCC
:104D800000D9B7E05A499B00CB589F4600228023A8
:104D90000F9C9246DB000332002C92D0099D059CAB
:104DA0006E78E45C2C7034436C70059C089DE318AD
:104DB0005C786E782C7034436C70079D9C786E78AC
:104DC0002C7034436C704546DC782C706D782C4325
:104DD00045466C7065461C792C706D782C43654691
:104DE0006C704D465C792C706D782C434D466C7020
:104DF0009C797D783C702C437C700B9EDC797578B7
:104E000034702C43069D74701C7A6E782C70344379
:104E10000A9E6C705C7A757834702C4374709C7A3E
:104E2000457804702C434470DB7A4C780B70234334
:104E30004B705346002B00D06AE7A0237824012A48
:104E400000D06AE70C9A0D9E1419D3180822A255B7
:104E500008329A556EE7002280239246DB00023228
:104E60002CE70022EE2392469B00033226E7002225
:104E7000DC2392469B00033220E70022D023924697
:104E80009B0003321AE70022D02392469B00013296
:104E900014E70022D02392469B0002320EE7002244
:104EA000C42392469B00033208E70022C4239246A3
:104EB0009B00023202E70022CA2392469B00043282
:104EC000FCE6E02301225B009246F7E6D4F30110F2
:104ED000D0F1011090F401100D1000003904001001
:104EE0006C060000A30F0000A40F0000ACF401103A
:104EF000C00C02101300203B5E2B00D93BE3530093
:104F00009B18002100229B007D3BFF3B7720059EE4
:104F10000C9DF45CF3182C545C7828302C549C784D
:104F200028302C54DC7828302C5418201C79FF3081
:104F30002C5440205C79FF302C5468209C79FF3041
:104F40002C549020DC79FF302C54B8201C7AFF3090
:104F50002C54E0205C7AFF302C549C7AE4482C548A
:104F6000D87AE44BE854002900D1D8E22823002164
:104F7000012A00D1D8E2022A00D1E9E2032A00D1B5
:104F8000DCE2042A06D1DA4B0C990C32CA54D94B14
:104F90001032CA54109B0F9A1B78002A00D1B8E235
:104FA000002B00D1E5E2D44BD44A14998A580292DE
:104FB0000193A02201230C990093039100201399DF
:104FC0000F33520002F062FE109B159A01331093CA
:104FD000139B10331393129B283312930E9B283389
:104FE0000E93119B013311939A4201D0FFF757F8AA
:104FF000C923C822149F9B001999F8189200179D85
:10500000189E05F08DFFCB22D200BB1807CD07C339
:1050100006CD06C3159B07CE07C306CE06C30022E6
:10502000B74BFA54E9239B009D44F0BCBB46B24603
:10503000A946A046F0BDC423002103229B0065E7DA
:10504000C423002102229B0060E7D0230021032219
:105050009B005BE7D023002101229B0056E7D02371
:10506000002102229B0051E7802300210222DB0065
:105070004CE7EE23002103229B0047E7DC230021BD
:1050800003229B0042E7802300210322DB003DE74F
:10509000CA23002104229B0038E7E02301210122DA
:1050A0005B0033E75678604637008743802F01D096
:1050B000FFF79EFB9C0143461C406346334023435D
:1050C0000232DBB2FFF795FB727817009146624619
:1050D0009743802F00D08BE44246890111404C4613
:1050E0006246144021430236C9B282E44C785F46DE
:1050F0002600BE43802E00D0F0E4F8209B01C000C3
:1051000003403C402343DBB20231AB540B78002B0D
:1051100000D0E9E4069B66469C46002307984A4473
:10512000137003684446DB68089F9846534500D1D6
:10513000EFE463460021009332014B46C04714E57B
:10514000F222059912018A580B79002A01D1FFF742
:1051500039FB012B01D100F05FFD43230868694A48
:10516000FFF738FB664648780790B043802801D0A7
:10517000FEF7AAFDF8249B01E4001C406346079853
:10518000023103402343DBB2FEF79FFD0E2306935B
:10519000FFF734F87A781400914662469443802CE5
:1051A00001D0FFF7A9F942469B01134049466246E8
:1051B00011400B430237DBB2FFF79FF948784746AF
:1051C0000400BC43802C01D0FFF7EFF9F8249B01C9
:1051D000E400234038400343DBB20231AB540B7888
:1051E000002B01D0FFF7E8F95B46069E0693099B6A
:1051F00060469B460A9F4A44FFF7ECF956784746BB
:105200003000B843802801D0FFF722FAF8219B0133
:10521000C9000B403E403343DBB202322B551378BA
:10522000002B01D0FFF71BFA6046099E0A9F4C44F1
:10523000FFF71FFA72781000B843802801D0FFF7FB
:105240005CFA6046890101403A4011430236C9B216
:10525000FFF754FA444648788346A043802801D09B
:10526000FEF705F948469B0103405C464046044072
:1052700023430231DBB2FEF7FBF844465078834605
:10528000A043802801D0FEF73AF948469B0103402D
:105290005C464046044023430232DBB2FEF730F95D
:1052A00072781000B843802801D0FEF769F9604693
:1052B000890101403A4011430236C9B2FEF761F953
:1052C00072781400914662469443802C01D0FEF718
:1052D00097F942469B0113404946624611400B43F1
:1052E0000236DBB2FEF78DF90749FEF747F8C046F4
:1052F000070200002F0200005252F000A8460000F2
:1053000094060000F0F10110E8F6011044464878D8
:105310008346A043802801D0FDF704FF48469B0147
:1053200003405C464046044023430231DBB2FDF7B4
:10533000FAFE444648788346A043802801D0FDF712
:1053400036FF48469B0103405C46404604402343E9
:105350000231DBB2FDF72CFF72781000B8438028D1
:1053600001D0FDF769FF6046890101403A401143D1
:105370000236C9B2FDF761FF7278140091466246A9
:105380009443802C01D0FDF797FF42469B011340C8
:105390004946624611400B430236DBB2FDF78DFFF2
:1053A000444650788346A043802801D0FDF729FD6C
:1053B00048469B0103405C4640460440234302327A
:1053C000DBB2FDF71FFD444650788346A04380289A
:1053D00001D0FDF75DFD48469B0103405C46404619
:1053E000044023430232DBB2FDF753FD44465078BC
:1053F0008346A043802801D0FDF792FD48469B01DB
:1054000003405C464046044023430232DBB2FDF7D2
:1054100088FD72781000B843802801D0FDF7C1FDE7
:105420006046890101403A4011430236C9B2FDF796
:10543000B9FD4C78604627008743802F01D0FEF7E6
:10544000CEF940469B0103406046044023430231AD
:10545000DBB2FEF7C5F94C78604627008743802F02
:1054600001D0FEF752FA40469B01034060460440DB
:1054700023430231DBB2FEF749FA72781000B843D9
:10548000802801D0FEF7DBFA6046890101403A40EE
:1054900011430236C9B2FEF7D3FA72781000B8434E
:1054A000802801D0FEF70CFB6046890101403A409C
:1054B00011430236C9B2FEF704FB7278140091461C
:1054C00062469443802C01D0FEF73BFB42469B0191
:1054D00013404946624611400B430236DBB2FEF7E9
:1054E00031FB002204239246FFF7E8FB0C9A0D9E45
:1054F0001419D3181022A255083A9A551AE40C9A96
:105500000D9E1419D3181022A25518329A55FFF780
:1055100011FC002B26D0F34B149AD35844E5A0235A
:105520007821012A00D026E50C9A5118D3180822B8
:1055300027310A70273308321A702BE50C9A51185C
:10554000D318102227310A70273318321A7021E538
:105550000C9A5118D318102227310A702733083AB1
:105560001A7017E5E04B149AD358DE4A14998A58FA
:105570001DE5DE4BF9E7042300210022C6E4DC49E7
:105580004733FEF732FD4C782000B843802801D025
:10559000FEF7F8FC60469B0103403C402343DBB22E
:1055A0000231AB540B78002B01D0FEF7F2FC0C9BC0
:1055B00048469A18FEF7F5FC0800984732E5CD4AB0
:1055C0000C008B18882200215200B0472068FEF79B
:1055D00004FD089B1A68FFF729F888220093002130
:1055E0000C9B5200B047FEF7F6FC013B1D93C24BEB
:1055F000059AD35C002B65D040460C99FBF77CFAEA
:10560000002801D1FEF79CFB059B1D991B79002901
:1056100001DAFEF797FB489A002A01DAFEF792FBBF
:10562000521AD11756184E40012B00D14EE2B34FFB
:10563000D243D3171A000123FA219A432C339846F8
:1056400030008900904404F085FD0191FA2130007A
:10565000890004F07FFD434600903A0080215846BF
:1056600007F010F8FEF778FB2200A549FEF78DFF42
:10567000059B1B79012B0AD0A24A059B10211868B3
:10568000FBF7B2FAFFF7A0FA9F4AFEF759FC9F4AD0
:10569000F3E70C9B9E19FEF73DFF9D4EFFF71DF8AB
:1056A0009C4AFEF797FE9C4AFEF789FE0092002175
:1056B000F0220C9BB047FFF787FA0C9A4846D318A4
:1056C000FFF72AF8013B48931379FEF73BFB009361
:1056D00000214B461201A047FEF7EEFF0093002188
:1056E0004B463201A047FEF799FF0C9B06989A188B
:1056F000FEF7F9FA012B00D1F1E1884A059BFFF78B
:105700005FFA874AFEF734FB864BFEF720FB864A9A
:10571000FDF7EFFB854AFDF7A4FB0C9B0698591893
:10572000FDF7C5FB0C9B06985918FDF708FC804E49
:10573000FDF727FC0C9A4846D318FDF741FC50238F
:1057400010687C4EFDF7ABFD7B4EFDF79CFC0C9A80
:105750004846D318FDF71EFB784EFDF7FDFA0C9B6B
:10576000DF19FDF75BFFC3231068754EFDF73BFFA4
:10577000744EFDF7F5FE744AFEF761F80C9B48463F
:105780009A18FEF73BF8714AFDF7C8FF704AFEF71A
:105790001FFA0C9B48465918FDF79FFF10685423C9
:1057A0006C4AFDF77EFF6C4AFEF71DFA0C9B6046C3
:1057B0009A18FEF746FA55231068684EFEF7B4F9BA
:1057C000674EFEF76DF90C9A4846D318FEF787F935
:1057D0004B461989002900D1ABE1624B9946FFF78E
:1057E0003FF80C9B06985918FFF711F80C9BDF192E
:1057F000FEF7B5F9312301210322FFF73EF95A489C
:105800005A495B4A5B4BFFF72AF95B4AFEF73AFAC3
:105810004A46FFF776F90C9A4846D318FEF71EF968
:105820000C9B48469A18FEF77FF80C9AD318FFF79E
:10583000EDF8079A012A00D183E1504AFFF7BAF840
:105840003E40B218FFF772F80C9B9E19FEF795FDCB
:105850004B4AFEF7BCFC4B4EFEF756FB0C9AFEF78C
:105860001FFB494AFEF7CFFA0C9B06985918FDF723
:10587000D7FA464AFDF7AFFA0C9A4846D318FDF717
:10588000EAFC00920021B0220C9BB047FFF79CF984
:105890000C9BDF19FDF71EFD3D4EFDF7BDFC069884
:1058A000FDF791FC3B4BFDF761FD0C9A4846D31880
:1058B000FDF707FC0698FDF741FC0C9B069859186C
:1058C000FDF72CFE0C9A4846D318FDF768FE324AC5
:1058D000FDF7FEFD0C9B06989A18FDF7D7FD2F4BA0
:1058E000FDF7A0FDA4460000A04600005252F000C3
:1058F00078FA0110A30F00009B0F000018F60110AA
:1059000014FA01103CF30110F0F3011014F301102C
:1059100038FA0110ACF3011060F3011080F60110A9
:1059200050F6011034F60110ACF801108CF801109B
:10593000CCF8011014F80110A4F7011058F8011068
:1059400068F7011024F7011044F9011024F901103F
:1059500098F5011000F90110C0F50110B0F901101F
:1059600074F9011020F2011088F2011098F2011070
:10597000A8F20110BCF20110E0F5011068F201106C
:1059800040F4011038F5011024F501106CF80110F5
:10599000D4F70110C8F601100CF70110F4F601104D
:1059A0000C9B069E07989A18FDF71BFD10684A236A
:1059B000A74AFEF74EFD0C9AFEF752FC0C9B484698
:1059C0005918FEF762FD01236022009300210C9B11
:1059D000B047FEF7EDFC602200210C9B0096B84713
:1059E000FDF719FD0C9AFDF7FCFC0C9AFDF74EFD36
:1059F000702200210C9B0096B847FDF762FD6022E3
:105A000000210C9B0096B847FDF724FA0092002174
:105A100030220C9BB047FDF7D7F900920021A0225D
:105A20000C9BB047FDF732FC0092002130220C9B0A
:105A3000B047FDF760FB802200210C9B0096B84721
:105A4000FDF787FD00920021B0220C9BB047FDF7C7
:105A5000C1FD702200210C9B0096B847FDF7D5FBD5
:105A6000602200210C9B0096B847FDF788FB0023BD
:105A7000FDF730FF0093602200210C9BB047FDF73B
:105A8000D7FE802200210C9B0096B847FDF772FAE2
:105A900000920021C0220C9BB047FFF795F80C9AAA
:105AA000FDF7ACFE0123FDF77FFE0023FDF77CFE32
:105AB0000093302200210C9BB047FDF728FE009296
:105AC000002150220C9BB047FEF73EFD614FAFE531
:105AD0000C9AFEF766FA0B005F4AFFF771F85F4A0F
