:020000041000EA
:1000000000B5324B212058609868022188439860DF
:10001000D860186158612E4B002199600221596106
:100020000121F02299502B49196001219960352056
:1000300000F044F80222904214D00621196600F024
:1000400034F8196E01211966002018661A6600F04E
:100050002CF8196E196E196E052000F02FF8012189
:100060000842F9D1002199601B49196000215960AB
:100070001A491B48016001219960EB211966A021F2
:10008000196600F012F800219960164914480160C1
:100090000121996001BC002800D000471248134993
:1000A000086003C880F30888084703B5996A0420EC
:1000B0000142FBD001200142F8D103BD02B5186610
:1000C0001866FFF7F2FF186E186E02BD00000240BE
:1000D000000000180000070000035F00212200005C
:1000E000F4000018222000A00001001008ED00E03C
:1000F00000000000000000000000000074B24E7A12
:1001000000000420F7010010CB010010CD01001009
:10011000C9010010C9010010C9010010C901001077
:10012000C9010010C9010010C9010010CF01001061
:10013000C9010010C9010010D1010010D301001045
:10014000C1010010C1010010C1010010C101001067
:10015000C1010010C1010010C1010010C101001057
:10016000C1010010C1010010C1010010C101001047
:10017000C1010010C1010010C1010010C101001037
:10018000C1010010C1010010C1010010C101001027
:10019000C1010010C1010010C1010010C101001017
:1001A000C1010010C1010010C1010010C101001007
:1001B000C1010010C1010010C1010010C1010010F7
:1001C000EFF30580103800BE00BE00BE00BE00BECA
:1001D00000BE00BEF2EB8871E85F021008600210FA
:1001E0003802001090A31AE71E481F49086006C88D
:1001F00081F3088810471D480068002801D019487D
:10020000F3E70DA40ECC002902D000F012F8F9E7B4
:100210001749184A002000E001C19142FCD116495B
:100220008847164988471649884700BEFDE701C937
:1002300001C29A42FBD3704708600210C000002040
:100240004064002088C30210000004200000042045
:1002500088C30210000003200000032000000000FB
:10026000704700000000000008ED00E0000000D032
:100270004064002004800020E9E80010E5990010A7
:10028000E1E80010F8B5C0460448054B10B58342BC
:1002900003D0044B002B00D0984710BD40640020D1
:1002A000406400200000000006480749091A8B102E
:1002B000C90FC91810B5491003D0044B002B00D04A
:1002C000984710BD406400204064002000000000FA
:1002D00010B5074C2378002B09D1FFF7D5FF054B4C
:1002E000002B02D0044800E000BF0123237010BDA2
:1002F000287B002000000000480E0210054B10B5BE
:10030000002B03D00449054800E000BFFFF7CCFFF5
:1003100010BDC046000000002C7B0020480E0210DB
:10032000F0B54746CE461F4B80B5C3589C461E4B82
:10033000C3581E001D4BC3581F0001292BD0022992
:1003400016D0002910D11A491A4A1B4B90469946DB
:100350000D00144C015114494250144A8350AC45CD
:1003600014D00122154BC254C0BCB946B046F0BDF2
:1003700013490C4C134A01510D000B49124B4250CA
:1003800090460A4A99468350AC45EAD14645E8D1A1
:100390004F45E6D1E8E70D490D4A0E4B9046994688
:1003A0000D00D6E7A0460000A4460000A8460000C5
:1003B000D2DDF40015152A007887D70094060000D6
:1003C000F5E9DC0032231500E3BD8E00D5EEE40034
:1003D0001C2918009FD9BA0030B59C466B461C7B7F
:1003E0000F230500D01703409B181B11132B1FD898
:1003F000A320CA1D400082421AD80E48EA1814549D
:1004000062461078002813D00722CC1722405118DA
:100410009A00D318DB000433EA186346C9105B1A4C
:1004200001335054585C002802D001312829F8D1FA
:1004300030BDC046440600009C460F2370B5040042
:10044000D01703409B181B11132B1FD8A320CA1DC4
:10045000400082421AD801250D48E2181554624620
:100460001078002812D00722CE17324051189A0077
:10047000D318DB000433C910E2186B1A63445054DC
:10048000585C002802D001312829F8D170BDC0463F
:100490006C060000C0231A4A9B01116870B54B40DE
:1004A000E021C9010B40174984460B6080211020D0
:1004B00000250426144C4900266013680B42FCD02A
:1004C000536801381B041B0CED180028F4D10F4BA6
:1004D0002D096B430E4A934205D8012261460D4B0C
:1004E0000130CA5470BD0C4A934204D96246094B8C
:1004F000D0540020F6E76246064BD05CF2E7C046D7
:1005000000C0044000D0044000E00440AC260000DD
:100510006772D9009706000020E2DD007047C046F0
:100520007047C046C9239B0070B5C518041D06005E
:10053000A54207D020002822202128340CF098FD65
:10054000A542F7D10A4BF0181433F318984203D0A0
:10055000142200210CF08CFD064BF0181433F61811
:10056000B04203D0142200210CF082FD70BDC046C1
:10057000440600006C060000F0B5DE464E464546D7
:10058000574683462B23E0B5D44C5B44A5441493D3
:10059000D023DB005B4415930023D14DD14E139340
:1005A000D14B5D44041D5E4412950D941093119639
:1005B0001695179618945A46CC4BD35C002B13D142
:1005C000C8230D989B002822C1181FF045FE002863
:1005D0000AD1129B1A781B7D9A4205D1119B1A7879
:1005E0001B7D9A4200D1F1E1A022002192001AA8BD
:1005F0000CF03EFDBE4B00221B687EAD0F93119B9D
:1006000088AC1B786AAF0E932EAB9C4638AB09932F
:1006100042AB08934CAB069356AB079360AB9A463C
:10062000634605935B46199374AB9C4692A89CA9BC
:100630000A940B950D9B9B5C98464033DBB23B2B99
:1006400003D8109C9B00E3589F464346203B5E2BFB
:1006500000D908E2434600245B004344A0469B00C7
:100660007D3BFF3B0C940E9C002C75D10F9C059E8E
:10067000E55CE31835705C782500099C25709C7852
:100680002500089C2570DC782500069C25701C79C7
:100690002500079C25705C792500544625709C79BF
:1006A0003C70DC792500644625701C7A0B9D2C700B
:1006B0005C7A0A9D2C709C7A0470DB7A0B700C9B20
:1006C000002B00D1BFE00024A14644462823012C82
:1006D00000D1BFE0022C00D0AFE11AACA14410243D
:1006E00025004C46A5541AAC1B1908249C54059BA4
:1006F000013201330593099B013701330993089BAC
:10070000013001330893069B013101330693079BA7
:100710000133079301239A449C440B9B01330B93B1
:100720000A9B01330A93272A84D1199B9B46149B69
:100730001A7813004033DBB23B2B00D9DCE06D4963
:100740009B00CB589F46002480230C940334A04682
:100750000E9CDB00002C89D00F9C059EE55CE31805
:10076000A946357075782E004D463543059E757047
:100770005C78A1464D46099C257065782E004D4653
:10078000354365709C78A1464D46089C2570657878
:100790002E004D4635436570DC78A1464D46069CDB
:1007A000257065782E004D46354365701C79A1464D
:1007B0004D46079C257065782E004D463543657083
:1007C0005C79A14654464D462570647825004C4618
:1007D0002C432500544665709C79A1463C707C787A
:1007E0000B9E25004C462C437C70DC79A146644668
:1007F0004D462570647825004C462C432500644600
:1008000065701C7AA1463470747825004C462C43E0
:1008100074705C7A0A9EA1463470747825004C4648
:100820002C4374709C7AA1460470447825004C4691
:100830002C434470DB7A4C780B7023434B700C9B39
:10084000002B00D03FE77824A1464446A023012C8A
:1008500000D03FE71AACA144082425004C46A5541B
:100860001AAC1B1910249C5441E7002480230C94DB
:100870000234A046DB00F6E6D02300240C940334B7
:10088000A0469B00EFE60024D0230C940134A04640
:100890009B00E8E6D02300240C940234A0469B0081
:1008A000E1E6C423E9E7C423F5E70124C8230C9457
:1008B0000134A0465B00D6E6EE23DEE7DC23DCE76E
:1008C0000024CA230C940434A0469B00CBE60124E8
:1008D000E023A0465B000C94C5E6C04614FDFFFF74
:1008E000440600006C060000480E0210940600004A
:1008F000145E0020380F02101300203B5E2B00D93D
:10090000FBE053009B18002100229B007D3BFF3B36
:1009100077200F9E16AFF45C10373C54F3185C78C8
:1009200028303C549C7828303C54DC7828303C54A7
:1009300018201C79FF303C5440205C79FF303C5437
:1009400068209C79FF303C549020DC79FF303C5487
:10095000B8201C7AFF303C54E0205C7AFF303C54D5
:100960009C7A81483C54DB7A804816AC103423547E
:10097000002900D182E028230021012A00D182E051
:10098000022A00D08AE01AAA944610226144273134
:100990000A700822634427331A70129B0E9A1B7840
:1009A000002A65D0002B00D19BE0714B5946714A5B
:1009B0008A5802920193A02201231AA9039100935D
:1009C000002013990F33520009F0FCF9129B159A7D
:1009D00001331293139B10331393149B28331493F6
:1009E0000D9B28330D93119B01331193934200D03B
:1009F000E1E5C920C82280001899920058449A461F
:100A0000169D179E0CF03AFBCB23DB005B4407CD11
:100A100007C306CD06C3534607CE07C306CE06C39B
:100A200000225946544BCA54BB239B009D44F0BC42
:100A3000BB46B246A946A046F0BD032C0AD11AAC6B
:100A4000A144102425004C46A5541AAC1B19282497
:100A50009C544CE64346042C00D048E60C3303700B
:100A600010330B7043E600240423A0460C94FAE5EF
:100A7000002B2FD05A46414BD35897E7A02378211B
:100A8000012A00D07CE71AAA944608226144273143
:100A90000A701022634427331A707EE7032A0AD1B2
:100AA0001AAA94461022614427310A70282263440E
:100AB00027331A7071E7042A00D06EE710212A4B01
:100AC00016A840180C32C254284B16A810324118F0
:100AD000CA5462E75A462A4BD3585946274A8A587D
:100AE00067E7234BF9E7802300210222DB000FE7B1
:100AF000EE23002103229B000AE7042300210022A9
:100B000006E7C823012102225B0001E7C42300217C
:100B100003229B00FCE6C423002102229B00F7E68F
:100B2000DC23002103229B00F2E6D02300210322D4
:100B30009B00EDE6D023002101229B00E8E6D023B4
:100B4000002102229B00E3E6802300210322DB0038
:100B5000DEE6CA23002104229B00D9E6E02301211E
:100B600001225B00D4E6C046070200002F0200000D
:100B70005252F000A846000094060000A44600006F
:100B8000A046000010B5040002490CF07DFA2000D8
:100B900010BDC046AC460000F0B5C64600B50278B0
:100BA0000E00303AD1B20300092932D8451C4078F2
:100BB00001003039CCB2092C18D8900082189878EE
:100BC00052008A1801003039CCB29F1C092C0BD876
:100BD000D878844630204042604404000020092C2C
:100BE0003FD880BCB846F0BD2B003D000221040078
:100BF0008C432C2C0FD000280BD100235001801ADD
:100C000080008018C000C0183060431E9841C0B2F8
:100C1000E7E70020E5E768783038C1B20929F8D85D
:100C2000D9788C463039092928D88100091849001B
:100C3000614430390C00302149428C461879844493
:100C40006146C9B2092914D85B79002019003039EE
:100C50000929C6D9002BC4D1A3001B195B0063442A
:100C6000CCE7900082185200DD1C60463B008A18D9
:100C7000BCE70028CDD10A236343BFE76346002BBE
:100C8000C7D164234343B9E7F0B5CE46474680B5A4
:100C900013788946844611009DB0002B60D00B2745
:100CA00001223F2603AD6F4408E018004B78210075
:100CB000B854002B12D00132642A2ED01800C2384A
:100CC0004C1C0128F1D848788046B04380281AD0BF
:100CD000180043462100B854002BECD10023AA1879
:100CE000137062461268D4681F4A94421FD04A4665
:100CF000009300212B0060461201A0471DB0C0BC2C
:100D0000B946B046F0BD9C01F8234046DB001C40CC
:100D100030408B7820430231CAE70B326A4400230B
:100D2000137062461268D4680F4A9442DFD1484675
:100D30001328E3D802000D492C7862445354002C48
:100D4000DCD0002283001B18DB0004336344A918A5
:100D50009C544C78002CD1D00132282AF7D1CDE711
:100D600003AD2A00DBE7C046D903001044060000AB
:100D7000F0B54646D6464F46C0B5A54CA54BA54452
:100D8000C45C80460D00002C00D101E10B889C461C
:100D9000A14B6344632B00D9FAE08A78531E914635
:100DA0000B2B00D9F4E0CB789A46002B00D1EFE072
:100DB0009A4BCAAE83CB83C6022A00D110E14B46C0
:100DC000CAAA9B18013B1F78574500D2E0E094481F
:100DD00013F068FF08239843C0B2002800D0D7E082
:100DE000904813F05FFF08239843C0B2002800D05A
:100DF000CEE01022002108A80CF03AF910220021C0
:100E00000CA80CF035F928212B88874A18A80DF07A
:100E1000E7FCE9782B880191A978844A009104A81D
:100E200010210DF0DDFC012218A932A812F0C0FD3E
:100E3000002842D18023369ACA9091461600DB01E1
:100E40009A4200D3A4E0D4204146C0000918CAAB9E
:100E500032A813F083F9002800D099E0CA9B4B45D3
:100E600000D095E032A813F071FD002800D08FE08B
:100E70000A2E28D9424667496D487318D3189A46F6
:100E80006C4B10189B1A984606E00378471C0A2BF7
:100E900006D03800574516D043461B18002BF4D116
:100EA0000600471C0A2204A901301FF0D5F90028CA
:100EB000EFD1F37A2C2BECD16BE00438C0B20128CF
:100EC00066D800239946EC68002C11DBFA2120003B
:100ED00089000BF0EDF9FA210600890020000BF0E3
:100EE000E7F933000091544A102108A80DF078FC6E
:100EF0002C69002C11DBFA21200089000BF0D8F9B5
:100F0000FA210600890020000BF0D2F9330000918D
:100F1000494A10210CA80DF063FC0CAB019308ABFF
:100F20004021464A009322A804AB0DF059FC444BE3
:100F300010AA62CB62C262CB62C21968013811602A
:100F4000998891809B7993713E2821D8322218A9E3
:100F5000CAA812F02DFD00281AD14B4603AD002B74
:100F600020D110A803931FF0DFFB03AD06000200A1
:100F70002B0010A9CAA813F021FA002802D1039B64
:100F80009E420FD0CAA813F089FBCAA813F0DEFC5A
:100F900000242000B123DB009D44E0BCBA46B146EA
:100FA000A846F0BD002322A803931FF0BDFB2B0031
:100FB0000400020022A9CAA813F000FA0028E1D117
:100FC000039B9C42DED1CAA813F068FB0400CAA8A8
:100FD00013F0BCFC0443E4B263425C41E4B2D8E7E2
:100FE0006646B30700D0EAE6642130000BF088F9CA
:100FF00089B21D27002900D0E6E691313000FF318B
:101000000BF07EF989B2002900D1DDE6D7E6C046B3
:1010100078FAFFFF9506000030F8FFFF84100210F9
:101020002810021034100210441002105C1002103C
:101030009F06000061F9FFFF6C100210781002108B
:1010400094100210F0B5C64600B51C4B84B286B0B1
:10105000E31801900020632B18D86B469A79531E31
:1010600017000B2B12D86B46DB799846002B0DD05E
:10107000134B03AD43CB43C5022A0BD003AABB18C5
:10108000013B1D78002042469542404106B080BC9D
:10109000B846F0BDA307F1D1642120000BF030F970
:1010A00089B21D250029EDD191312000FF310BF0CF
:1010B00027F989B20029E5D0E0E7C04630F8FFFF04
:1010C00084100210F0B5CE46474680B505885C4BCB
:1010D0000400EB1885B0632B03D88078431E0B2BDC
:1010E00005D9002005B0C0BCB946B046F0BDE378D4
:1010F0009846002BF5D0534B9946494601ABC4C9DD
:10110000C4C3022858D001AB1B18013B1B784345D0
:10111000E7D34D4B9D421DD043464A460133DBB2D7
:10112000E37001A99C469846C8CAC8C102285ED08F
:1011300001AA1218013A1278944509D90123013005
:10114000C0B2E3700D281BD101230135A3702580A7
:101150000120C7E70C281ED041464A460131C9B2DA
:10116000E17001AB8846E0CAE0C302280BD001ABB6
:101170001B18013B1B788B42EAD201230130E3703C
:10118000A0700120AEE743461C2BE1D90423FF33B6
:1011900001206380A6E743461F2BA2D04A460133B5
:1011A000DBB2E37001A9C1CAC1C16A46D27B9A42CF
:1011B000CED20123E370C7E7AB072ED1642128000C
:1011C0000BF09EF889B2002931D1C82128004900CE
:1011D0000BF096F889B2002929D06B465B799845C7
:1011E00000D97EE743460133E370DBB29846AB0794
:1011F000C9D1642128000BF083F889B2002907D1F6
:1012000091312800FF310BF07BF889B20029BAD167
:1012100043461D2BBAD8012064E76B465B7998459D
:1012200000D95EE7084B9D4200D075E794E743463E
:101230001D2B00D955E70133E370DBB29846D8E7A0
:1012400030F8FFFF8410021033080000F0B5DE46CE
:10125000454657464E46E0B5C34C0D00A5440493A1
:10126000F0AB1B7803929B46C04BC35C002B04D0B1
:101270000868FFF7E7FE00280AD100242000E723D2
:101280009B009D44F0BCBB46B246A946A046F0BDBB
:10129000B74813F007FD0824A043C0B20028ECD1E2
:1012A000B44813F0FFFCA043C0B20028E5D1EA78AF
:1012B0002B880192AA780D2100920EA8AE4A0DF05B
:1012C0008FFA0CAF2B6838000C93FFF7FBFE041E5F
:1012D0000790D2D0FA783B880192BA780D2100921B
:1012E00012A8A54A0DF07CFAE9782B880191A9781B
:1012F000A24A009116A840210DF072FA0A2216A9FE
:101300004EA812F055FB0028B7D15D2226909C49CB
:1013100026AB4EA813F052F89A4A071E03D1269B1B
:101320005D2B00D140E112AB01930EABA0210093E5
:1013300026A80DF055FA00260027934BB8469A468A
:10134000924B079A9946924B0994089306950EE0A2
:10135000002E59D1002200265146043143468A46C8
:1013600049460133043198468946102B59D04146ED
:10137000069B1B89CB40DB07EED5002AE8D0002E68
:10138000E8D05B46002B3CD153461E680BAC0322D1
:10139000002120000BF06CFE327800250DAB002AF6
:1013A00021D005935C2A21D03B2A1FD02C2A1DD0A6
:1013B0000A2A20D02270657020000D951FF0B4F924
:1013C000210007000200059B4EA812F0F7FF00283D
:1013D00002D10D9B9F4202D000260022BCE772780A
:1013E0000136002ADED10022079EB5E75C23627039
:1013F0002370A570E0E7089A138823809378A37080
:10140000DAE74B461E68C1E70D9262490DAB023226
:101410004EA812F0D3FF00289CD10D9B022B99D12E
:10142000AFE7099C069D002A45D0002E00D02BE294
:10143000594A039BA021009326A8049B0DF0D0F9E4
:10144000EF68002F75DB5B46002B00D018E1FA2116
:10145000524E3800890003960AF02AFF0191FA21C2
:10146000380089000AF024FF32000090A0214C4B84
:1014700026A80DF0B5F92F69002F12DB494CFA218F
:10148000380089000AF014FF0191FA213800890020
:101490000AF00EFF23000090A021039A26A80DF069
:1014A0009FF94EA813F0FAF84EA813F04FFA16A8B9
:1014B00013F08AFAE1E6039BA0210093364A049BCD
:1014C00026A80DF08DF9002EBAD00DAB984600235A
:1014D00026A80D931FF028F943460200070026A90D
:1014E0004EA812F06BFFEE68002803D10D9B9F42BF
:1014F00000D1F0E0002E1CDB5B46002B00D090E218
:10150000FA21264F3000890003970AF0D1FE01919D
:10151000FA21300089000AF0CBFE3A000090A021A9
:101520001F4B26A80DF05CF92F691E4C002FA6DA80
:10153000B7E72F69002FB4DB5B46002B00D049E2F0
:10154000FA21380089000AF0B3FE0191FA2138002F
:1015500089000AF0ADFEA0210090124B0F4A26A888
:101560000DF03EF99DE7C04664FCFFFF95060000C4
:1015700028100210F41002100411021014110210AD
:1015800044110210A41102104035021080350210DF
:101590009C12021014120210201202106812021083
:1015A0008C120210E410021012AB01930EABA021BA
:1015B000009326A80DF014F926A80D971FF0B4F893
:1015C0000DAB0700020026A94EA8984612F0F6FEC1
:1015D000002800D0AFE60D9B9F4200D0ABE6002371
:1015E00023220D93C54943464EA812F0E7FE00287A
:1015F00000D0A0E60D9B232B00D09CE65B46C04E9E
:10160000002B00D1BF4E0BAF0322002138000BF09E
:101610002FFDA946412325005C2B25D03B2B23D051
:101620002C2B21D00A2B25D03B7000237B7000236C
:1016300038000D931FF078F843460400020039008B
:101640004EA812F0BBFE002802D10D9B9C4203D095
:101650002C0000264D466FE673780136002BDBD157
:101660002C00079E4D4667E65C227B7000233A7093
:10167000BB70DCE7A44B1A883A809B78BB70D6E736
:10168000FA21A24E3800890003960AF011FE01915A
:10169000FA21380089000AF00BFE32009C4B0090C2
:1016A000A02126A80DF09CF82F69002F00DAF8E69B
:1016B000FA21380089000AF0FBFD0191FA21380077
:1016C00089000AF0F5FDA0210090924B039A26A80C
:1016D0000DF086F8E5E6002E00DA6CE18E490D90FB
:1016E000434602224EA8894612F068FEEF680028A1
:1016F00000D0A8E60D9B022B00D0A4E65B46002B91
:1017000000D06BE1FA21814B3800890003930AF085
:10171000CFFD0191FA21380089000AF0C9FDA0210E
:1017200000907E4B039A26A80DF05AF80BAF0322C7
:10173000002138000BF09CFC08AB78331B78002BA1
:101740002FD0A24626AE5C2B00D18BE03B2B00D1E4
:1017500088E02C2B00D185E00A2B00D18EE03B7075
:1017600000237B70002338000D931EF0DDFF4346FD
:101770000400020039004EA812F020FE002802D119
:101780000D9B9C4208D02F69002F00DA89E65B464A
:10179000002B00D172E68BE773780136002BD2D193
:1017A00054462B69002B00DA89E0002302220D93B6
:1017B000494643464EA812F001FE2F690028E6D1A3
:1017C0000D9B022BE3D1FA21380089000AF070FD4D
:1017D0000E00FA21380089000AF06AFD5B46002BF2
:1017E00000D110E10090A0214A4B039A019626A84F
:1017F0000CF0F6FF0BAF0322002138000BF038FC91
:1018000008AB78331B78002B59D0AA46A146454631
:1018100026AE1FE03B2B1FD02C2B1DD00A2B27D030
:101820003B7000237B70002338000D931EF07CFF7B
:101830002B000400020039004EA812F0BFFD002862
:1018400000D02EE60D9B9C4200D02AE6737801362C
:10185000002B32D05C2BDDD15C227B7000233A70F0
:10186000BB70E0E75C227B7000233A70BB7079E7C5
:10187000254B1A883A809B78BB70D4E7224B1A8894
:101880003A809B78BB706DE7002304220D932449B6
:101890000DAB4EA8984612F091FD224A002800D0C8
:1018A000C7E50D9B042B00D0C3E5039BA02100934B
:1018B00026A8049B0CF094FF09E64C4655462B7D68
:1018C000002B5CD0002308220D93174943464EA8F5
:1018D00012F074FD002800D0E3E50D9B082B00D02A
:1018E000DFE50BAF0322002138000BF0C1FB2B7D9D
:1018F000002B44D0A1461435444637E0F0110210C5
:10190000C4100210B41002109C12021068120210CF
:101910007C120210D4100210381202108C12021025
:1019200018120210201202103C1202103B2B1FD082
:101930002C2B1DD00A2B47D03B7000237B7000233B
:1019400038000D931EF0F0FE23000600020039005F
:101950004EA812F033FD002800D0A2E50D9B9E4258
:1019600000D09EE56B780135002B07D05C2BDDD1D4
:101970005C227B7000233A70BB70E0E74C4600238A
:101980001D220D932F4943464EA812F017FD002843
:1019900000D086E50D9B1D2B00D082E54EA812F0ED
:1019A0007DFE05004EA812F0D1FF2843C0B20028EA
:1019B00000D163E47BE52B69002B00DA7FE7224B43
:1019C0009946224B0393F0E6214B1A883A809B7884
:1019D000BB70B4E71D4B1F4C039350E5FA211B4B22
:1019E0003800890003930AF063FC0191FA21380062
:1019F00089000AF05DFCA0210090174B039A26A8ED
:101A00000CF0EEFE92E6FA213800890001960AF009
:101A10004FFCA0210090114B039A26A80CF0E0FE89
:101A2000E8E6FA21094F3000890003970AF040FCEC
:101A30000191FA21300089000AF03AFC3A00064B85
:101A400000902DE64812021038120210681202109F
:101A50009C120210D41002107C120210E41002102A
:101A600070B504000D001EF05FFE030000200A2B7D
:101A700002D123792D2B00D070BDE3792D2BFBD122
:101A800030225242944623789C446346DBB2092BB1
:101A9000F2D861788918CBB2092BEDD8A278303A08
:101AA000D3B2092BE8D8E378303B1E00DBB2092B18
:101AB000E2D86379303B092BDED8A379303B092B80
:101AC000DAD8237A303B092B29D8637A303B092BAB
:101AD00025D8FA2360469B004343642041439B1969
:101AE0005B189100521852009B182B806379303B91
:101AF0009A009B18A2795B00303A9B18AB70237A4E
:101B0000303B9A009B18627A5B00303A9B18EB706E
:101B100068882B8800041843FFF794FAACE700208C
:101B2000AAE7C046F0B5C646040000B50D007C4AE1
:101B3000002182B00BF09CFA7A4BAA88236005231F
:101B400023716B68E2801A0C1B0E6372764B227253
:101B5000EB5AAA8963812B886282A3812B89E38156
:101B60006B892382EB681A0C1B0E63752B8A227516
:101B7000E3826B69002B01DA01235B42A361AB694D
:101B8000002B01DA01235B42C026E36120237601AA
:101B90002900A3512B001C317D33994206D020002F
:101BA000612220300BF06AFA8123A351C0235B012C
:101BB000E7585D4B2E009C468036AC44E0466645B7
:101BC0003DD03288E319E255120A5A70B2789A7001
:101BD000F278DA707268110A1A715971110C120ECA
:101BE000DA71328999711A72120A5A72F268002AED
:101BF00001DA01225242110A9A72D972110C120EA4
:101C00005A7332691973002A01DA01225242110A09
:101C10009A73D973110C120E19745A74310033006F
:101C20003800143175331230994200D174E06122CA
:101C300020180BF023FA73377836B045C1D13B4BEF
:101C4000C022EB5C5201E355394B7E1C9C46AC44F0
:101C50006346A650374A0193AD18654514D0019AE2
:101C6000701C1378511CA355130020182233212215
:101C700001930BF003FA019B370022369D42EED10F
:101C8000C0235B012137E650002E47D0631CDF19CB
:101C900001232500012028495B422A780135534061
:101CA0005A0803405B420B405A40530802405242DC
:101CB0000A4053405A0803405B420B405A405308C5
:101CC000024052420A4053405A0803405B420B40D4
:101CD0005A405308024052420A4053405A080340B7
:101CE0005B420B405A405308024052420A40534064
:101CF000BD42D2D1DB43A219190AA3555170190C68
:101D00001B0ED370C023200004365B019170E65097
:101D100002B080BCB846F0BD07008DE70023EAE7BB
:101D2000041800004C505331080F00000A0F000047
:101D30000B0F00003B1200002083B8EDF0B5DE462B
:101D400057464E464546E0B5C14CC24BA5440392AA
:101D50000400994212D0C04BCB18012B0ED9BF4BB7
:101D6000CB18012B0AD9002398464046BC4B9D4412
:101D7000F0BCBB46B246A946A046F0BD6318DA1EC9
:101D800010781A1F1278000210439A1E1278013B35
:101D90001E78120401230243250001208C463606DA
:101DA0001643271FAF4A7F185B42297801355940F7
:101DB0004B080140494211404B40590803405B42E7
:101DC000134059404B080140494211404B405908CB
:101DD00003405B42134059404B08014049421140C7
:101DE0004B40590803405B42134059404B080140A7
:101DF000494211404B40590803405B4213404B405D
:101E0000AF42D2D1DB436146B342ACD1A378627812
:101E10001B041202134322781343E2781206134381
:101E2000914A93429FD1637922791B021343009315
:101E3000012B00D1EEE0022B00D1F8E0032B00D003
:101E4000EEE08A4B994200D08DE704AB9946002121
:101E50001800874A0BF00CF901234A465370854A53
:101E60004946249284228B50853A8B33CA500433DE
:101E7000CA500121804D814842AB814E04AF1D8084
:101E800058805960DA601A61F61978339E42F4D1AD
:101E9000237AE2791B0412021343A27949461343C1
:101EA000627A4846120613434A465360744BA27A3C
:101EB000CA547449E37A43540099012900D128E2B5
:101EC000217B012900D94EE701700099032900D830
:101ED00032E2617B022900D945E7002541701F21CC
:101EE0000020994268411E2301000020934268416E
:101EF00003000B4098460E26A2195378A15D1B02E1
:101F00000B4349460B81937804368B72D378CB729E
:101F1000A3195978A25D090211439A78DD78120459
:101F20000A432D0615434A46D5605A79197912029B
:101F30000A43494630000A82DA79997912020A4343
:101F4000197A0A30090411435A7A12060A43511CBD
:101F500004D04D4F511EB94200D9E9E149464A61CA
:101F6000D97A225C090211431A7B5B7B12040A4373
:101F700031001B0613430E315A1C04D042485A1E2E
:101F8000824200D9EBE14A46611893610BA86122B5
:101F90000BF074F86F239A464346B244002B0DD0E1
:101FA000002D51D07C234A46D35C002B4CD11389A1
:101FB000002B03D09068FFF745F880464A464B4611
:101FC0004946127F1C337D31002A0FD05E204546E2
:101FD00000260027203AD2B290427E41013335409C
:101FE0008B4257D01A78002AF2D1A8465A1C8A424E
:101FF00051D0531C8B424ED050780028F6D0931C01
:102000008B4248D09278002AF0D01A00531C8B42A1
:10201000F2D140E0DF231B01994200D0A3E614E790
:10202000042B09D1194B994200D09CE60DE7184BBF
:10203000994200D097E608E7052B00D093E6054BC0
:10204000994200D08FE600E700239846B6E7C046E5
:10205000ACEDFFFFA31100008FF1FFFF10F2FFFFB7
:10206000541200002083B8ED4C505331710E000023
:102070003C120000EA070911EA07000009110000FC
:10208000080F0000090F00003E420F00720E000012
:10209000F10D0000A84680234B449B4623004E468A
:1020A000444600279846F5365B461F805F80009BBC
:1020B000022B0FD94346554640465344DA78997867
:1020C0005B78405D1B020343584603800423817004
:1020D000C2709A44434653445A78997812020904CC
:1020E00050460A434146095CD8790A43D978000230
:1020F00009060A4359464A605A79197912020A4375
:1021000059460A8151461A7A0A31120410439A79C3
:1021100010435A7A12060243501C04D0974D501EA9
:10212000A84200D9F1E05846C260DA7A187B120260
:10213000000402434046415C5B7B0A4351461B0658
:1021400013430E315A1C04D08C485A1E824200D9C7
:10215000C7E05D465A4614351361280061224144A8
:102160000AF08CFF6F235344019353466E3302935E
:10217000002C00D1C5E05B465B68002B00D1C0E0BD
:102180005B4674229B5C002B00D0BAE05B46019A50
:102190001B889246002B04D05B461868FEF752FF5E
:1021A00004002B785E22002B7ED10135AE420BD08D
:1021B0002B78002B05D10135AE4205D02B78002BB2
:1021C000F3D00135AE42F6D178239B446C4B04AA80
:1021D0009B1878365B4500D066E74346A0461C0056
:1021E000009B052B56D14946019B0027E25C654BBD
:1021F0000234CA540023182191425B4142461A40DE
:10220000029B614EE418614BA0464B449B46604BD9
:1022100014004B449A464E444346002102200022BB
:102220001B78350098424A4114405A461370434681
:10223000213D21222800591C0AF020FF002C04D047
:1022400053461C7863425C41E4B22B78002B39D1B1
:102250000135B5420BD02B78002B05D10135AE42AC
:1022600005D02B78002BF3D00135AE42F6D14A468B
:10227000444BD35CBB4204D95B465B785A1E934106
:102280001C402223013798449B4422369A44182F3D
:10229000C2D1A0464346002B00D164E549463D4AE1
:1022A00003980AF0EBFE60E53900203BDBB29A426E
:1022B000794101350C40AE4286D02B78002B00D1FD
:1022C00079E7F1E7002200215E20203BDBB2984253
:1022D0004A4101351440AE42C9D02B78002BBDD005
:1022E000F0E701235D465A465B421435136128002E
:1022F000612241440AF0C2FE6F2353440193013B23
:102300000293019B00249A464BE70122002452428B
:1023100009E7002500201E31994268411E23010073
:1023200000209342684103000B4098460C26EFE5DD
:1023300000229046013A11E61E210025002091421C
:1023400068410200002001319942684103001340B6
:102350009846009B0D26032B00D1CDE5D8E501233F
:102360004A465B429361611861220BA80AF086FE1F
:102370006F239A460023B24498461FE63E420F0060
:10238000080F00000A0F00002D0F00000B0F0000C7
:102390002C0F00003B120000F0B5CE4647468E22BF
:1023A00080B5614C5201A5448C00002105000AF063
:1023B0005FFE5E4B0122E15802A811F0F9FA031FFB
:1023C000DBB20400012B04D9002809D00322584BAA
:1023D000EA542800574B9D44C0BCB946B046F0BDF6
:1023E000069A554B17009A420BD054495318012BAB
:1023F00007D9534ABB18012B03D9002301909846F3
:102400000AE000233A000193290001AB02A811F071
:10241000A5FE01230400984602A812F097FA04438F
:10242000E4B2002CD2D101220121464E464C47484D
:10243000D8AB6E4452421C8058805960DA601A61F1
:1024400078339E42F7D14346002B02D0019BBB421A
:1024500003D00222364BEA54BBE73D4B2A689A422E
:10246000F7D13B00103B1A009946AB689A42F0D175
:10247000391F681842786B5C12021A4383781B0478
:102480001343C27812061A439446002948D0012308
:102490002E0001202C1F2F49E4195B4232780136AF
:1024A0005A405308024052420A4053405A080340DF
:1024B0005B420B405A405308024052420A4053408C
:1024C0005A0803405B420B405A40530802405242B4
:1024D0000A4053405A0803405B420B405A4053089D
:1024E000024052420A4053405A0803405B420B40AC
:1024F0005340A642D2D1DB439C45AAD1280049468D
:102500009AAA0C30FFF71AFC0028A2D06A68124B76
:10251000EA504A46114BEA500122054BEA5458E76B
:1025200001235B42E7E7C04654EBFFFFF0340210A3
:10253000BC110000AC140000B31100007FF1FFFFDC
:1025400000F2FFFF70110000EA070000091100000F
:102550004C5052312083B8EDB4110000B811000086
:10256000F0B5C64600B598462E4B2F4CC35CA5442B
:102570000F000400002B41D02C4B9A4237D9002188
:102580006846FFF709FF8E235B016B4418000121A9
:10259000FFF702FF6B46264A9B5C032B27D08E2059
:1025A0006946400109188A5C032A20D0012B27D0F4
:1025B000012A19D18E216A461E4B49015218D3585F
:1025C0008E2252016A4401201100D322D200A05071
:1025D000194A3800A350194BCA5843460C311A60A7
:1025E0000AF04CFD012003E00020134300D003203B
:1025F0008E239B019D4480BCB846F0BD0220F7E7C6
:102600000C4B00209C466B4661465B586946012A8C
:10261000DBD18E26654676018A1952599A42D4D961
:102620001300CDE79506000080DCFFFFA21100003B
:10263000BC110000B41100009C060000B81100009D
:10264000F0B54646D6464F46C0B5684B684CC55CAB
:10265000A544884604001600002D06D0654BC35CD7
:10266000002B02D1644B9A4208D000252800634B0E
:102670009D44E0BCBA46B146A846F0BD604FC35980
:102680000133F2D05F4812F00DFBF7231842ECD172
:10269000D323DB00E35800215A4253419BA8DBB20D
:1026A000594A99460AF0E4FC584B9D229B93E35902
:1026B000920001339C936B4641469E529EA8320085
:1026C0000AF0DCFC524B01216B449C460123514A29
:1026D0009BA85B42067801305E4073080E4076424C
:1026E000164073405E080B405B4213405E40730827
:1026F0000E407642164073405E080B405B4213402A
:102700005E4073080E407642164073405E080B40F0
:102710005B4213405E4073080E40764216407340A1
:102720005E080B405B42134073406045D2D19B2052
:102730006946DB436E468000374A09188B54374A96
:10274000190A3618B1546E46354A190C3618B15468
:10275000344A1B0EB3544A46334B9200D15802A858
:102760000A2211F025F9002800D07EE7264E01ABA1
:1027700032009BA9019002A811F020FE070002A8D8
:1027800011F08CFF804602A812F0E0F8019B9A46F7
:10279000B34227D13B00424613431843C0B200283E
:1027A00020D1A1235B016B4418004946FFF7F4FDDB
:1027B000A1206A461D4B40011218D35C012B11D198
:1027C00003006B44524618009BA91DF045FD0028EC
:1027D00008D1D3234A46DB00E250094AA35801330B
:1027E000A35043E70122034BE2543EE79506000065
:1027F00020DAFFFF96060000A3110000E02500008C
:102800009C06000028100210B31100004C505231F9
:102810001B1400002083B8EDAF110000B0110000C0
:10282000B1110000B2110000F0340210BC11000020
:10283000F0B54646D6464F46C0B58D4B8D4CC35875
:10284000A54488460400002B00D0EFE08A4BC35C0F
:10285000002B12D00379012B00D1F7E0874B884978
:10286000884A601864210BF0BBFF0020864B9D4412
:10287000E0BCBA46B146A846F0BD844B834D6B44DC
:102880001800FFF74FF9C0226846216852010B6813
:10289000401986585B6A7E4A8946934200D0D7E049
:1028A0007C4BCB5C002B00D1C9E07B4B0D00CB5C9B
:1028B000002B00D0C3E0794B9E4200D0BFE0784FA0
:1028C000CB59013300D1BAE0764812F0EBF9F72387
:1028D000184200D0B3E0D323DB00EB5800215A426A
:1028E00053419AA8DBB2704A9A460AF0C1FB6F4B7B
:1028F0009C229A93EB59920001339B936B469E5214
:10290000624B32006B4419009DA80AF0B7FB01230B
:102910005B429C460121664A9AA8654603780130CD
:102920006B405D080B405B4213406B405D080B4001
:102930005B4213405D406B080D406D4215405D40A9
:102940006B080D406D4215405D406B080D406D42B7
:1029500015405D406B080D406D4215405D406B08B1
:102960000D406D4215406B405D080B405B421340CB
:102970005D40504BAC466B449842CED19A2069469C
:10298000EB436D4680004C4A09188B544B4A190A98
:102990002D18A9546D464A4A190C2D18A954494AB4
:1029A0001B0EAB545246484B9200D15802A80A2243
:1029B00010F0FEFF002842D13B4A01AB9AA90190DA
:1029C00002A811F0FBFC060002A811F067FE05004A
:1029D00002A811F0BBFF019B334A1F0093422AD18A
:1029E00033002B431843C0B2002824D1374B514643
:1029F0006B441800FFF7D0FC6A463449344B521838
:102A0000D35C012B17D1314B3A006B4418009AA9C3
:102A10001DF022FC00280ED1D32349465246DB008C
:102A2000CA501F4A8B5801338B5018E00379012B91
:102A30000AD0284B13E701224946174BCA54237981
:102A4000012B13D0244B0AE7244B08E7244B06E75D
:102A50000E4932004846694498470028EFD0414665
:102A6000204A201D0AF00AFB0120FFE61E4BF6E675
:102A70005012000020C2FFFF541200000413021085
:102A8000F412000060130210E03D0000DC2500009D
:102A9000412600109506000096060000A3110000D4
:102AA0009C06000028100210B31100004C50523157
:102AB0002083B8ED17140000AF110000B011000022
:102AC000B1110000B2110000F03402101C1400001B
:102AD000BC110000C012021044130210A012021018
:102AE000D81202103B12000024130210F0B5DE468B
:102AF0004E4645465746E0B5D94BDA4CC55C060014
:102B00008B46A544002D00D18EE0D74B0022C35C3C
:102B1000B4461C00D54BC718390000200B78013291
:102B20001B1B5E4273412231C018AA42F6D366468F
:102B3000A4461824002814D0CD4B0024F158604638
:102B40003B0003E001342233AC4209D21A788242BE
:102B5000F8D1002905D0013401392233AC42F5D334
:102B60001824AC4260D223011B195B00F21898466E
:102B7000BE4BD35C5B4500D1BFE1331D190001930F
:102B8000982302A89B01BB4A18180AF077FA9822EA
:102B9000434602A992015218B7499B18C91822222C
:102BA00003A8894600930AF069FA009BB34A611CA6
:102BB0009A1800248D4212D92B00B846B2460D0057
:102BC00016001F004B4631191819222201350AF050
:102BD00055FA2234BD42F5D33D00564647466B4672
:102BE0005A461A739823013D280102AA40199B01F5
:102BF0009B184000C018A04B2222C01803A90AF05D
:102C00003DFA9F4BF458002C16D19E4BF35C002BE1
:102C10001ED03379012B00D174E19B499B4B701876
:102C20009B4A64210BF0DCFD9A4B9D44F0BCBB46F3
:102C3000B246A946A046F0BD3379012B00D163E12D
:102C4000954B9149924A701864210BF0C9FDEBE74E
:102C5000982302AA9B019918904B9818FEF762FFDF
:102C6000C02233688D48984602A91B685201091892
:102C70008D585B6A8A4A934200D04DE14246894BA7
:102C8000D35C002B00D133E1874BD35C002B00D009
:102C90002EE1864B9D4200D02AE1854BD35801336B
:102CA00000D125E1834811F0FDFFF723184200D041
:102CB0001EE1D3234246DB00D35800215A42534140
:102CC000DAB20092A5A87C4A0AF0D2F942467B4BC0
:102CD00002A9A593764BA8A8D358A5220133A693A1
:102CE000920002AB9D526D4B2A0059180AF0C6F9AA
:102CF000A44601240121724D02AB724AA5A8ED1829
:102D000064420378013063405C080B405B4213402F
:102D100063405C080B405B4213405C4063080C401E
:102D2000644214405C4063080C40644214405C40C0
:102D300063080C40644214405C4063080C406442E9
:102D400014405C4063080C406442144063405C08DB
:102D50000B405B4213405C40A842D2D1A320E34326
:102D60008000594A02A909188B5402AD574A190A22
:102D70002D18A954564A02AD190C2D18A954554ABC
:102D80001B0EAB54009A544B9200D1580CA80A2247
:102D9000644610F00DFE002800D0A9E002AB464AC0
:102DA000A5A902900CA811F009FB82460CA811F00D
:102DB00075FC81460CA811F0C9FD029D3E4B9D4259
:102DC00000D091E04B4652461A4303001343DBB256
:102DD000002B00D088E0A22302AA5B01981800997A
:102DE000FFF7DAFAA2213D4B02AA49015218D35C3F
:102DF000012B79D1A22302A85B012A00A5A91818EA
:102E00001DF02AFA00286FD1D32342460099DB0037
:102E1000D15043464146264A9B5801338B50982354
:102E200002A99B0159182E4A01980AF027F9584621
:102E30000D4BF0540A4BF15C002977D000223B780F
:102E400001321B1A5D426B412237E4189142F6D8D9
:102E5000013C074BF4503379012B59D0214BF0E65C
:102E60000E0F0000B4AFFFFF5E1300000F0F000055
:102E7000441200003C1200000B0F00002D0F000058
:102E80005012000054120000F4120000041302104B
:102E9000601302104C500000C01202103C380000B9
:102EA000412600109506000096060000A3110000C0
:102EB0009C06000028100210B31100004C50523143
:102EC0003B1400002083B8EDAF110000B0110000EA
:102ED000B1110000B2110000F0340210BC1100006A
:102EE0003B120000BC13021001224146114BCA5490
:102EF0003379012B0AD0104BA3E63379012B09D08B
:102F00000E4B9EE60E4B9CE60E4B9AE60E4B98E659
:102F10000E4B96E60E4B94E60E4902A809182A00BD
:102F200040469847002800D079E7E1E70124644251
:102F30008FE7C04696060000441302108813021063
:102F4000D8120210A012021024130210A8130210AB
:102F5000641302103C380000F0B55746DE464E467A
:102F60004546E0B54E4C4F4BA5440191C75C8246A7
:102F7000002F00D18CE04C4B0022C65C4B4B002450
:102F80005344984619000B7801329B1B5842434129
:102F90002231E418BA42F6D3012C79D906AB9B460C
:102FA0006022002118000AF063F80025A4465C4660
:102FB00042462800002303E001332232BB4209D2FB
:102FC0001178B142F8D1002805D0013301382232FE
:102FD000BB42F5D31823013508C46545E8D19926CD
:102FE00004ABB601F618534604331900304A3000DA
:102FF000039364460AF042F852462E4BD358984643
:10300000019B002B68D00122631E4244914602932B
:10301000434500D136E343465A469B00D2582648E2
:1030200004ABC01813019B185B00244AF3189D18C9
:1030300029002222070001900AF020F84B465A4648
:103040009B00D35828001C01E41864001B4B341962
:10305000E418222221000AF011F82222390020006F
:103060000AF00CF85246164BD358002B00D0E9E179
:10307000144BD35C002B00D1FCE11379012B00D160
:10308000CCE211486421114B114A50440BF0A8FBCB
:10309000104B9D44F0BCBB46B246A946A046F0BDCD
:1030A0006CAFFFFF0E0F00005E1300000F0F00005B
:1030B0003C120000441200007C3800000B0F00009E
:1030C0005012000054120000F41200000413021009
:1030D00060130210945000004346002B00D098E289
:1030E000069ADE4804ABC01813019B185B00DC4A4B
:1030F000F3189D1829002222019009F0BFFF631EDA
:103100009946032C01D800F0F7FC5B465A6828006A
:1031100013019B18D24A5B009046F3189844222270
:10312000414609F0ABFF5B469A68404613019B1885
:103130005B00CB4AF3189D182900222209F09EFF5C
:103140004B46042B01D800F0E5FC5B46DA6828000A
:1031500013019B185B00C24AF3189F183900222202
:1031600009F08CFF5B461A69380013019B18BC4AB2
:103170005B009046F31898442222414609F07EFFF6
:103180004B46062B01D800F0C1FC5B465A6940460D
:1031900013019B185B00B24AF3189D1829002222E4
:1031A00009F06CFF5B469A69280013019B18AC4A32
:1031B0005B009046F31898442222414609F05EFFD6
:1031C0004B46082B01D800F09DFC5B46DA6940466F
:1031D00013019B185B00A24AF3189D1829002222B4
:1031E00009F04CFF5B461A6A280013019B189C4AA1
:1031F0005B009046F31898442222414609F03EFFB6
:103200004B460A2B01D800F079FC5B465A6A4046CF
:1032100013019B185B00924AF3189D182900222283
:1032200009F02CFF5B469A6A280013019B188C4A10
:103230005B009046F31898442222414609F01EFF95
:103240004B460C2B01D800F079FC5B46DA6A40460D
:1032500013019B185B00824AF3189F183900222241
:1032600009F00CFF5B461B6B22221D0198462B00C8
:10327000434459007A4B7118C918380009F0FEFE12
:103280004B460E2B01D800F055FC5B465A6B744B35
:1032900028009C464044E04613019B185B00F3184D
:1032A00040009844301822224146604409F0E6FE6E
:1032B0005B469A6B404613019B185B00684AF31803
:1032C0009D182900222209F0D9FE4B46102B01D867
:1032D00000F02CFC5B46DA6B280013019B18604A57
:1032E0005B009046F31898442222414609F0C6FE3E
:1032F0005B461A6C404613019B185B00584AF31852
:103300009D182900222209F0B9FE4B46122B01D844
:1033100000F008FC5B465A6C280013019B18504AC9
:103320005B009046F31898442222414609F0A6FE1D
:103330005B469A6C404613019B185B00484AF318A1
:103340009D182900222209F099FE4B46142B00D823
:10335000E4E35B46DA6C280013019B18404A5B00EB
:103360009046F31898442222414609F087FE5B46B6
:103370001A6D404613019B185B00394AF3189D18DB
:103380002900222209F07AFE4B46172B00D0ADE32C
:103390005B465A6D280013019B18314A5B0090462A
:1033A000F31898444146222209F068FE5B469B6D63
:1033B00022221901C9184900294B71184046C91821
:1033C00009F05CFE162317229846930015005A4612
:1033D000D258434659469B00CB581801C018204B81
:1033E00040009C46E04613019B185B00F31898448C
:1033F000301822224146604409F040FE6B1C9C427A
:103400000CD95A469B00D35840461901C9184900A7
:10341000134B71182222C91809F030FE4B465A4648
:103420009B00D35801991801C01840000C4B30186C
:103430002222C01809F022FE52460A4BD358002B14
:1034400000D115E61379012B00D1E9E0064B0748BE
:103450006421074A50440BF0C3F919E67C38000098
:103460000B0F000050120000C0120210F4120000F6
:1034700060130210019D31002800FEF753FB5346F4
:10348000C0221C685201236801955B6AAD586A4AE4
:10349000934200D018E3694BE35C002B00D1C4E0F9
:1034A000674BE35C002B00D0BFE0664B9D4200D031
:1034B000BBE0654BE358013300D1B6E0634811F03F
:1034C000F1FBF723184200D0AFE0D323DB00E35831
:1034D000B7AF5A425341DAB20021029238005C4A37
:1034E00009F0C6FD5B4B2A00B793574B0199E3588F
:1034F000BAA80133B8933D8109F0C0FD564B04AA28
:103500009B18012538009C460121544A6D420378DE
:1035100001306B405D080B405B4213406B405D081F
:103520000B405B4213405D406B080D406D421540FF
:103530005D406B080D406D4215406B405D080B40CF
:103540005B4213405D406B080D406D4215406B407F
:103550005D080B405B4213405D406B0898460D4090
:103560006B42454613405D408445D0D1EB433C4A15
:10357000190ABB543B4A1EA8B9543B4A190CB9540A
:103580003A4A1B0EBB54029A394B9200D1580A2278
:1035900010F00EFA002848D105AB39002C4A0590EE
:1035A0001EA810F00BFF83461EA811F077F8050047
:1035B0001EA811F0CBF9059B9846254B984531D1B3
:1035C0005A4603002A431343DBB2002B2AD1A4231B
:1035D00004AA5B0198180299FEF7DEFEA421254B90
:1035E00004AA49015218D35C012B1BD1A42304A8BF
:1035F0005B014246390018181CF02EFE002811D13C
:10360000D323029ADB00E2500F4AA3580133A350A0
:1036100061E201235B4243449946FCE4164B16E702
:10362000164B14E70122064BE25453461B79012B3B
:1036300000D15FE2124B0AE7412600109506000018
:1036400096060000A31100009C060000281002103E
:10365000B31100004C5052317B1400002083B8EDB0
:10366000AF110000B0110000B1110000B211000054
:10367000F0340210BC110000D8120210A012021087
:1036800044130210F44804ABC018029B01909B0045
:1036900099465B464A469B5822221901C91849009F
:1036A000EE4B7118C91809F0E9FCA21E012A00D8D6
:1036B000D8E1A121A300C9015B1804A95B18E8495E
:1036C00092005B5859461801C018E44B8A589C4632
:1036D00013019B185B004000F31863443018190075
:1036E000222260441D0009F0C9FCE31E02939B00E6
:1036F00099465B464A469A58280013019B18D74AB8
:103700005B009046F31898442222414609F0B6FC2B
:10371000231F012B00D8A5E15A469B00D2584046F2
:1037200013019B185B00CD4AF3189D182900222233
:1037300009F0A4FC631F02939B0099465B464A462E
:103740009A58280013019B18C44A5B009046F3184E
:1037500098442222414609F091FCA31F012B00D876
:1037600080E15A469B00D258404613019B185B00EB
:10377000BA4AF3189D182900222209F07FFCE31FA2
:1037800002939B0099465B464A469A5828001301CB
:103790009B18B24A5B009046F31898442222414697
:1037A00009F06CFC2300083B012B00D85AE15A4673
:1037B0009B00D258404613019B185B00A74AF318A0
:1037C0009D182900222209F059FC09235B429C46DE
:1037D000A444634602939B0099465B464A469A5826
:1037E000280013019B189D4A5B009046F3189844EB
:1037F0002222414609F042FC23000A3B012B00D85B
:1038000030E15A469B00D258404613019B185B009A
:10381000924AF3189D182900222209F02FFC0B234D
:103820005B429C46A444634602939B0099465B46D8
:103830004A469A58280013019B18884A5B00904614
:10384000F31898442222414609F018FC23000C3B4F
:10385000012B00D806E15A469B00D258404613017E
:103860009B185B007D4AF3189F183900222209F04B
:1038700005FC0D235B429C46A444634602939B00D7
:1038800099465B464A469B5838001D0198462B00D6
:1038900043445900714B7118C918222209F0EEFBFC
:1038A00023000E3B012B00D8DCE05A469B00D25887
:1038B00028006A4B40449C4613019B185B00400063
:1038C000F318634430181900222260441D0009F0E7
:1038D000D5FB0F235B429C46A444634602939B00A6
:1038E00099465B464A469A58280013019B185B4A42
:1038F0005B009046F31898442222414609F0BEFB33
:103900002300103B012B00D8ACE05A469B00D25854
:10391000404613019B185B00504AF3189D1829007C
:10392000222209F0ABFB11235B429C46A444634670
:1039300002939B0099465B464A469A582800130119
:103940009B18464A5B009046F31898442222414651
:1039500009F094FB2300123B012B00D882E05A4669
:103960009B00D258404613019B185B003B4AF3185A
:103970009D182900222209F081FB13235B429C46FB
:10398000A444634602939B0099465B464A469A5874
:10399000280013019B18314A5B009046F3189844A5
:1039A0002222414609F06AFB2300143B012B59D91E
:1039B0005A469B00D258404613019B185B00274A89
:1039C000F3189D182900222209F058FB15235B42A9
:1039D0009C46A444634602939B0099465B464A4634
:1039E0009A58280013019B181C4A5B009046F31854
:1039F00098442222414609F041FB182C32D15B4603
:103A00009B6822221C01E4186400144B3419E4184A
:103A10002100404609F032FB5B465B682222190117
:103A2000C91849000D4B7118C918200009F026FB70
:103A30005B465B6822221801C018084B40009C4678
:103A4000069B30181901C918490071186044614477
:103A500009F014FB29E0C0467C3800000B0F000081
:103A600084AFFFFF5A464946029D013DAB00D35843
:103A700052581C011001E41880186400314A4000BB
:103A80003419A418301880182100222209F0F6FAFF
:103A9000002D0AD0069B22221901C9184900294B82
:103AA00071182000C91809F0E9FA069B22221801B2
:103AB000C0184000234B3018C018019909F0DEFAF5
:103AC00000239946FFF7CEFA2A0020000199984773
:103AD000002800D1A9E531001B4A039809F0CEFA6D
:103AE00052464946194BD150FFF7D2FA1423984653
:103AF0005A1C6AE4164BAAE4012266E4082398469D
:103B00005A1C62E4062398465A1C5EE40423984635
:103B10005A1C5AE4022398465A1C56E4122398462B
:103B20005A1C52E4102398465A1C4EE40E23984621
:103B30005A1C4AE40C2398465A1C46E40A23984629
:103B40005A1C42E40B0F00003B120000441200001C
:103B500024130210F0B55746DE464E4645469222E3
:103B60000100E0B5D84C0768A544520104908A587A
:103B70003868C3690B2A00D1FEE1D44A49799342DF
:103B800000D0FFE1D24BFB589A46D24BFB589946E6
:103B9000D14BFB589846012901D101F083FC022941
:103BA00000D110E2002900D1FBE18368CB4A9342A7
:103BB00000D0F1E1C9239B00FE183D1DB54207D09E
:103BC000280028222021283509F052FAAE42F7D1E8
:103BD000C34B14220021F81809F04AFAC14B1422F1
:103BE0000021F81809F044FA0C200499BE4B401843
:103BF000CB580C008146002B0DD0BC4A885C1F219D
:103C0000C01A1F3008F07CFBA4460B015B1ADB00D6
:103C100084339C44E1460B2200211BA809F028FABA
:103C20004B461868FDF70EFA002800D096E1049B79
:103C30001B79012B00D1B2E1AD4B49464968AD4A31
:103C400000911BA80B210AF0CBFD2AAB9B468021DB
:103C50001BAB5846A84A0AF0C3FD049B18685B4694
:103C60001B78002B01D101F00FFECF254AAC0D943B
:103C700016AC2D193F24A446F824E400012259462D
:103C8000A04682461C00C23C4E1C012C00D8B9E064
:103C90003100AB540B78002B00D1C7E00132642A0D
:103CA000F0D134225046FF3216ABD21800231370E5
:103CB0000368DE68914B9A469E4200D0C2E0012222
:103CC000874B0D99C2540A7800230430002A07D08C
:103CD000C254CA185278002A02D00133282BF7D1D7
:103CE000049B1B79012B00D1B7E0854A049C8021FD
:103CF000A36858460AF074FD5B461B782068002BC9
:103D000001D101F0BEFD3F24A446F824E4000122C5
:103D10005946A04605901C00C23C4E1C012C00D800
:103D20009DE03100AB540B78002B00D1ABE00132A9
:103D3000642AF0D1342216ABFF320598D218002342
:103D400013700268D668564500D0A6E0644A0D9903
:103D5000821853700A782C30002A07D0C254CA182F
:103D60005278002A02D00133282BF7D15E4B049AF7
:103D7000D358002B00D19BE01379012B01D101F026
:103D800099FB412310685F493F24A446F824E400CE
:103D90000122A04605901C00C23C4E1C012C00D8FC
:103DA000B8E03100AB540B78002B00D1C6E00132F3
:103DB000642AF0D1342216ABFF32D21800230598C2
:103DC00013700268D668564500D0C1E0444A0D9988
:103DD000821893700A785430002A07D0C254CA1847
:103DE0005278002A02D00133282BF7D19223049A6B
:103DF0005B01D3580B2B01D901F088FB424A9B0091
:103E0000D3589F464C78604627008743802F00D0C8
:103E10003EE740469B010340604604402343DBB23B
:103E20000231AB540B78002B00D037E70D9B504686
:103E30009A18002313700368DE68304B9A469E423E
:103E400000D13CE701230022009300210D9BB047E5
:103E5000049B1B79012B00D047E72C4A46E74C789E
:103E6000604627008743802F00D05AE740469B01D9
:103E70000340604604402343DBB20231AB540B786D
:103E8000002B00D053E70D9B05989A180023137060
:103E90000268D668564500D158E7102200930021E9
:103EA0000D9BB047104B049AD358002B00D063E70A
:103EB00092235B01D3580B2B01D901F027FB144A45
:103EC0009B00D3589F46C04654FCFFFF21030010BF
:103ED000A0460000A4460000A846000025050010EA
:103EE000440600006C060000501200000C0F000099
:103EF000CC130210101F0210181F0210D90300105B
:103F0000E0130210F0130210F0300210D013021070
:103F1000203102104C78604627008743802F00D064
:103F20003FE740469B010340604604402343DBB229
:103F30000231AB540B78002B00D038E70D9B05986D
:103F40009A18002313700268D668564500D13DE7E1
:103F50000093202200210D9BB04747E749464B467E
:103F6000C9781B88019149468978D74A00911BA8D6
:103F70000B210AF035FC68E6D44A895CD44A9342A6
:103F800000D1FFE538009847049BD24A1F68386883
:103F90008368934200D10DE63800984724E6CE4B63
:103FA0004BE6CE4BCE49CF4A0E0015009C46CE4C78
:103FB0003B51CE4BF950CE4BFA50E24511D0012285
:103FC000CC4BFA54F1E5CC4BC74C9C463B51CB490A
:103FD000C64BCB4AF950C64B15000E00FA50E245CD
:103FE000EDD1B145EBD1A845E9D1DEE5049B1B79C4
:103FF000012B01D102F036FDC24EF822049BD20003
:104000001868432101233F27944681460A00C23A9B
:10401000741C012A00D849E12600E95431780029AE
:1040200001D102F01AFD0133642BEFD1342348464D
:10403000FF3316AA9B1800221A700368DE685645E3
:1040400001D002F020FEB04BC318DA700D9B7C301B
:104050001A780023002A08D0C2540D9AD218527838
:10406000002A02D00133282BF6D1049B1B79012BA7
:1040700001D102F0EAFCA5493F24A446F824A44B50
:10408000049AE400D658106873425E41012231233D
:10409000A146F6B205901C00C23C4F1C012C01D871
:1040A00002F0A6F93900AB540B78002B01D102F0D5
:1040B000CFFC0132642AEED1342216ABFF320598D0
:1040C000D218002313700368DF68574501D002F04F
:1040D00004FE8D4BC3189E710D9BF4301A7800239B
:1040E000002A08D0C2540D9AD2185278002A02D061
:1040F0000133282BF6D1049B1B79012B01D102F04F
:10410000A1FC844E3F24824B0499A446CA58F8244B
:10411000013A53425A41E400D2B2086832230121E5
:10412000A146934605901C00C23C771C012C01D887
:1041300002F071F93E006B543378002B01D102F08C
:1041400075FC01316429EED134215A46FF3116AB9A
:104150000598C91800230B700368DE68564501D026
:1041600002F0C9FD684BC318DA710D9B1D301A7837
:10417000FF300023002A08D0C2540D9AD21852787A
:10418000002A02D00133282BF6D1049B1B79012B86
:1041900001D102F048FC604E3F245D4B0499A446D7
:1041A000CA58F824023A53425A41E400D2B208688D
:1041B00033230121A146934605901C00C23C771C85
:1041C000012C01D802F038F93E006B543378002BF3
:1041D00001D102F031FC01316429EED134215A467B
:1041E000FF3116AB0598C91800230B700368DE6811
:1041F000564501D002F06AFD434BC3181A720D9B5D
:1042000045301A78FF300023002A08D0C2540D9A96
:10421000D2185278002A02D00133282BF6D1049B01
:104220001B79012B01D102F0FBFB3C4EF822049BD1
:10423000D2001868452101233F27944681460A0091
:10424000C23A741C012A01D802F007F92600E95489
:104250003178002901D102F0DEFB0133642BEED16D
:1042600034234846FF3316AA9B1800221A700368AD
:10427000DE68564501D002F037FD234BC318DA72D1
:104280000D9BBD301A78FF300023002A01D101F0C8
:10429000CEFAC2540D9AD2185278002A01D101F0F8
:1042A000C6FA0133282BF4D101F0C1FA727810005C
:1042B000B843802800D0AFE66046890101403A400B
:1042C00011430236C9B2A8E65C1002105612000073
:1042D0002103001025050010C8130210D2DDF400E0
:1042E00015152A007887D700A0460000A4460000D4
:1042F000A846000094060000F5E9DC003223150012
:10430000E3BD8E00901C021044060000A81C0210A1
:1043100044120000C81C0210E81C0210181D0210F4
:10432000049B1B79012B01D102F005FC824A049CFD
:1043300003212068FCF7A8FC804B2068E6583F2446
:10434000A446F82473425E41E40001233122A146D1
:104350007B49F6B205901400C23C4F1C012C00D8DA
:104360008DE03900EA540A78002A01D102F0E6FB18
:104370000133642BEFD10598013BD42292009B18A6
:1043800016AA9B186F4A9B1800221A700368DF68F0
:10439000574501D002F089FC6B4BC3189E710D9BF1
:1043A000F4301A780023002A08D0C2540D9AD2188B
:1043B0005278002A02D00133282BF6D13F245F4BDC
:1043C000049AA446D158F82401394B425941E400DB
:1043D000C9B2106801233222A1468B465B4E05907C
:1043E0001400C23C771C012C01D801F0E0FE3E0015
:1043F000EA543278002A01D102F0F2FA0133642B38
:10440000EED159460598013BD42292009B1816AA7A
:104410009B184C4A9B1800221A700368DE685645A8
:1044200001D002F0A3FC484BC318D9710D9B1D307D
:104430001A78FF300023002A08D0C2540D9AD218EF
:104440005278002A02D00133282BF6D1049B1B7925
:10445000012B01D102F032FB3D4A049C0A21206865
:10446000FCF712FC2379012B01D102F024FB394A1D
:10447000049B0B211868FCF707FC01F0D8F964468F
:1044800048788346A043802800D06AE748469201D6
:1044900002405C466046044022430231D2B261E7EA
:1044A000049C03212C4A2068FCF7EEFB2379012BA6
:1044B00001D102F061F9294B294A04998A5C002A4A
:1044C00001D001F0E1FF2749274A00915846802199
:1044D0000AF086F9194B049AD658106873425E4167
:1044E0005B461B78F6B2002B01D102F03DFC3F2465
:1044F000A446F824E40001225946A14606900BE0A8
:104500000100AB540B78002B01D102F065FA0132A7
:10451000642A01D102F033F91F00481CC23F059004
:10452000012FEDD84F7864463800A043802801D190
:1045300002F095F80599E4E7D81B02104412000038
:10454000E41B021080FDFFFF44060000F01B021078
:10455000241C0210681C0210981F0210001B02107D
:10456000551200000C1B0210A81F0210049A1379A8
:10457000012B01D102F02BFB43231068AE49F82434
:10458000E40001223F27A04681461C00C23C4E1C8D
:10459000012C00D870E23100AB540B78002B01D114
:1045A00002F01AFB0132642AEFD134224846FF326E
:1045B00016ABD218002313700268D668564501D096
:1045C00002F071FC9D4A8218D3700D9B7C301A78E2
:1045D0000023002A08D0C2540D9AD2185278002A1B
:1045E00002D00133282BF6D1049B1B79012B01D17A
:1045F00002F00EFA924A049B988A002801D102F038
:1046000084FB460801D102F086FB01210B000E401D
:1046100003409B19860834D00E409B19C60830D041
:104620000E409B1906092CD00E409B19460928D034
:104630000E409B19860924D00E409B19C60920D034
:104640000E409B19060A1CD031405B18460A18D050
:1046500001210E409B19860A13D00E409B19C60AF1
:104660000FD00E409B19060B0BD00E409B19460B2A
:1046700007D00E409B19860B03D03140C918C30BDD
:10468000CB18802158460AF0ABF8049B18685B46AB
:104690001B78002B01D102F03BFBF824E40001223F
:1046A00059463F27A04681461C00C23C4E1C012CA7
:1046B00001D801F045FE3100AB540B78002B01D13D
:1046C00002F0ECF90132642AEED134224846FF327E
:1046D00016ABD218002313700268D668564501D075
:1046E00002F0A9FA554A821893710D9BF4301A789A
:1046F0000023002A08D0C2540D9AD2185278002AFA
:1047000002D00133282BF6D1049B1B79012B01D158
:1047100002F0C1F94B4A049B988A002801D102F0AB
:104720009BFA460801D102F097FA83083ED0012196
:104730000F000E400740BE190B409B19C60830D031
:104740000E409B1906092CD00E409B19460928D013
:104750000E409B19860924D00E409B19C60920D013
:104760000E409B19060A1CD031405B18460A18D02F
:1047700001210E409B19860A13D00E409B19C60AD0
:104780000FD00E409B19060B0BD00E409B19460B09
:1047900007D00E409B19860B03D03140C918C30BBC
:1047A000CB180221994289410A230B4080215846A7
:1047B0000AF016F8049B18685B461B78002B01D1A1
:1047C00002F05EFAF824E400012259463F27A04691
:1047D00081461C00C23C4E1C012C01D801F0C0FDDA
:1047E0003100AB540B78002B01D102F04FF90132AC
:1047F000642AEED134224846FF3216ABD218002389
:1048000013700268D668564501D002F01EFA0B4AB2
:10481000821813720D9B45301A78FF300023002A4E
:1048200012D0C2540D9AD2185278002A0CD00133FB
:10483000282BF6D108E0C046401D021044060000B7
:10484000601D0210881D0210049B9B8A002B47D01C
:104850005A0801D102F026FA012108000A40184046
:1048600080189A0801D102F018FA0A401218D808E4
:1048700030D00840121818092CD0084012185809D6
:1048800028D008401218980924D008401218D809D6
:1048900020D008401218180A1CD001405218580A9B
:1048A00018D0012108401218980A13D00840121895
:1048B000D80A0FD008401218180B0BD00840121855
:1048C000580B07D008401218980B03D001408A18E3
:1048D000DB0BD21893009B185B00022A00D90A3325
:1048E000802158468C4A09F07BFF049B18685B4680
:1048F0001B78002B01D102F0C0F93F229446F82228
:10490000D20001265F4690461A00C23A791C012A5D
:1049100001D801F035FD0F00AB553B78002B01D1DC
:1049200002F0B0F80136642EEED1342616ABFF3615
:10493000F618002232700368DE68564501D002F096
:1049400095F9764BC3189A720D9B95301A78FF3003
:104950000023002A08D0C2540D9AD2185278002A97
:1049600002D00133282BF6D1049B1B79012B01D1F6
:1049700002F080F86A4EF822049BD20018684521A4
:1049800001233F27944681460A00C23A741C012A3B
:1049900001D801F009FD2600E9543178002901D140
:1049A00002F06BF80133642BEED134234846FF3319
:1049B00016AA9B1800221A700368DE68564501D0BB
:1049C00002F04DF98321554B8900C3185A730D9B92
:1049D00040181A780023002A08D0C2540D9AD21821
:1049E0005278002A02D00133282BF6D1049A137989
:1049F000012B01D102F039F841231068494F3F22C1
:104A00009446F822D200012690461A00C23A791C38
:104A1000012A01D801F0D8FC0F00AB553B78002BE0
:104A200001D102F040F80136642EEED1342616ABE7
:104A3000FF36F618002232700368DE68564501D052
:104A400002F053F89721354B8900C318DA730D9B98
:104A500040181A780023002A01D100F0E8FEC25461
:104A60000D9AD2185278002A01D100F0E0FE0133ED
:104A7000282BF4D100F0DBFE4C782000B8438028CE
:104A800000D088E540469B0103403C40234302316F
:104A9000DBB281E59B22049952018A580B79172ACF
:104AA00001D801F0EAFC012B01D102F03AF90C0027
:104AB0001D4A20680321FCF7E7F81C4B1B4EE35C02
:104AC00020683619002B01D102F019FA3F24A446C0
:104AD000F824E40031000122A14606900BE0010019
:104AE000AB540B78002B01D102F06DF80132642A2F
:104AF00001D102F026F81F00481CC23F0590012F8B
:104B0000EDD84F7864463800A043802801D101F0E9
:104B10009CFD0599E4E7C046BC1F02104406000056
:104B2000C41D0210001E0210241A0210C31200003D
:104B3000C44B0498C25CC44BC75C002F01D102F087
:104B40006CF800260021C14BC018037801319B1A74
:104B50005C4263412230F6188F42F6D8002E06D010
:104B6000BB4B0498C158B14201D3711EC150049B84
:104B700092001B7998461EAB9C466446B54B83CB8E
:104B800083C40D9C83CB83C44346012B01D101F028
:104B90008EFF6346D3588021AF4A5846009609F0ED
:104BA0001FFE049C5A4603212068FCF76DF8002E76
:104BB00001D001F02BFB2379012B01D102F06AF81F
:104BC000A64A049B06211868FCF75EF8049B1B7933
:104BD000012B01D102F013F8A14A049C0E21206898
:104BE000FCF752F82379012B01D102F005F89D4A18
:104BF000049C0F212068FCF747F82379012B01D191
:104C000002F000F8984A049B10211868FCF73CF861
:104C1000964B049CE35C002B01D000F00FFE944BFC
:104C20002068E35C002B01D102F07FF8F821904A64
:104C3000C900A6183F2701228C4681461900C239B7
:104C4000741C012901D801F081FC2600AB54337893
:104C5000002B01D101F08EFC0132642AEED1342206
:104C60004846FF3216ABD218002313700268D6688C
:104C7000564501D001F0CCFCAB247E4A0D99821838
:104C800053740A78A4000019002A07D0C254CA1825
:104C90005278002A02D00133282BF7D1049B1868E0
:104CA00003685B699847049B020018681B79002A17
:104CB0001FD002681669012B01D101F099FC6E4BDF
:104CC0009E4201D001F0BAFC6C4901226C4BB52424
:104CD000C3189A740023A4005A3200190131C25437
:104CE000CA5C002A02D00133282BF8D1049A137928
:104CF0001068012B01D101F025FC552361493F24A7
:104D0000A446F824E4000122A04681461C00C23CCF
:104D10004E1C012C01D800F0DFFD3100AB540B78A4
:104D2000002B01D100F0EEFD0132642AEED13422D5
:104D300016ABFF32D2180023484613700368DD68B3
:104D4000554501D000F0E9FD0122BF24494B0D99E2
:104D5000C318DA740A78A40000230019002A07D0C7
:104D6000C254CA185278002A02D00133282BF7D136
:104D7000049B454A1B68190015931B689B69934265
:104D800001D001F017FC3B4A00238D180A002B329A
:104D90001492D0223A4ED20013933C4B0C1D76183D
:104DA000521811950E941692109312961795189604
:104DB0001994374B159AD35C002B14D1C8230E9845
:104DC0009B002822C1181BF047FA00280BD1119B29
:104DD0001A781B7D9A4206D1129B1A781B7D9A4243
:104DE00001D100F05EFFA022002192000D9808F092
:104DF0003FF9284B00221B68A4AE0C93129BAEAD6A
:104E00001B78B8AC0F935EAB079368AB069372AB9D
:104E100005937CAB049386AB9A4690AB9C469AAFC5
:104E2000C2A8CCA9089409950A960E9B9B5C98464B
:104E30004033DBB23B2B01D900F078FD109C9B0086
:104E4000E3589F465E1300000E0F00000F0F000096
:104E500044120000C0350210741F02102419021001
:104E600074190210B4190210F81902105D13000031
:104E7000F41200004406000039040010BC1E0210A9
:104E80006C060000F41E021079050010503102106B
:104E900094060000145E0020049B1B79012B01D1B5
:104EA00001F0A2FDDC4A049C03212068FBF7ECFE24
:104EB0002379012B01D101F0EAFBD84A049CD8499F
:104EC000584663188021984609F08AFCD54B206823
:104ED000E65873425E415B461B78F6B2002B01D167
:104EE00001F0EBFF3F2401225946A4468146481CAD
:104EF00005901800C238012800D8B8E00599AB54D5
:104F00000B78002B01D101F0DCFD0132642AEED1D7
:104F100034224846FF3216ABD218002313700368C0
:104F2000DF68574501D001F0AFFFBF4BC3189E713A
:104F30000D9BF4301A780023002A08D0C2540D9A31
:104F4000D2185278002A02D00133282BF6D1049BC4
:104F50001B79012B01D101F00CFCB44A049CB44B29
:104F60005846E1180B008946802109F039FCAD4B09
:104F70002068E358013B5A425341DFB25B461B783D
:104F8000002B01D101F0EDFE3F2401225946A44639
:104F900005901C00C23C4E1C012C01D801F0F3F816
:104FA0003100AB540B78002B01D101F0DDFB013255
:104FB000642AEED1342216ABFF320598D2180023B2
:104FC00013700368DE68564501D001F0C3FE964BAE
:104FD000C3185F720D9B6D301A78FF300023002AD2
:104FE00008D0C2540D9AD2185278002A02D0013348
:104FF000282BF6D10023049A1E934A93884BD35C46
:10500000002B01D101F072FB40461EA9FBF7C4FD45
:10501000002801D001F06CFB049B1B79012B01D10E
:1050200001F061FB834B80215846834A09F0D8FB8D
:10503000049C5A460C212068FBF726FE2379012B9D
:1050400001D101F04DFB7D4A049C0E212068FBF745
:105050001BFE7B4A2379A258002A01D101F065FD8D
:10506000012B01D101F0D5FD764A049BDBE34F789B
:1050700064463800A043802800D03FE7F8209B0119
:10508000C000034027403B430231DBB237E7049BBB
:105090001B79012B01D101F037FD6B4A049C0321E0
:1050A0002068FBF7F1FD694B684FE35C3F19002B6B
:1050B00066D0C8230793C33B1C003A339946059733
:1050C00008970D9F1EAE29220021300007F0D0FF67
:1050D00005981BF029FB0690282801D92823069360
:1050E0003000069A059907F0C9FF049B18683378C9
:1050F000002B01D101F005FDF821C90088460122ED
:10510000B446310009900A940B971C00C23C481C1D
:10511000012C5DD90100AB540B78002B69D0013212
:10512000642AF2D134226646FF3216AB09980A9CF3
:105130000B9FD218002313700268D2689046524524
:1051400063D1394A01198B5407993A7804314118CF
:10515000002A07D0CA54FA185278002A02D0013324
:10516000282BF7D1059B069A9B1805931B78002BDB
:1051700005D0079B013428330793082CA3D1089F3F
:10518000049B1B79012B01D101F0C1FC304E38008A
:105190001BF0CAFA320003008021584609F020FBB8
:1051A000049C5A460A212068FBF76EFD244A2379A5
:1051B000A258002A01D000F057FE012B01D101F0C6
:1051C00041FD244A049B0E211868FBF75DFD2EE388
:1051D0004C784F462600BE43802E9BD140469B0113
:1051E00003403C402343DBB20231AB540B78002B2D
:1051F00095D100230B9F0998BA1813700268664670
:10520000D2680A9C904652459BD0009300213B00F7
:105210002201C047A6E7C046E81702100C1802108A
:10522000E41200004C120000440600002C1802108A
:10523000EC1200007C18021060130210A418021077
:10524000501200009C1702106C170210621200002E
:105250008817021010160210049B1B79012B01D134
:1052600001F040FC994A0221049C994E5846A359EA
:10527000009101337E3109F0B3FA5A4603212068C8
:10528000FBF702FDA259511C8B005B185B000593D4
:10529000102B01D900F0E4FD93009B185F00059BE3
:1052A000BB4200D8B2E28B4B07938B4B08938B4BDE
:1052B00009933F239846049B1B79012B67D0089ADA
:1052C000BB00D1580B78002B01D101F008FCF8206D
:1052D000C0000122844606971800C2384C1C0128E1
:1052E00059D92100AB540B78002B65D00132202A0C
:1052F000F2D1CF3216AB069FD218002313704B4663
:105300001A890123FA4013405722013B9343783313
:1053100001930D9B7C1C8021079A00935846230023
:1053200009F05EFA049908680368DE68684BCA5899
:1053300093009B186A4A5B008A58FB1A5F1DD31AB8
:105340005A425341DBB2564500D0B8E0132F15D86E
:105350006449C21953545B46197800290ED00023C2
:10536000BA00D219D20004328218D1545946C91851
:105370004978002902D00133282BF6D1059B9C42A5
:1053800000D143E2049B27001B79012B97D1099A96
:10539000BB00D15896E7487847460600BE43802EAA
:1053A0009FD164469B01234038400343DBB2023166
:1053B000AB540B78002B99D10D9B069F9A189CE754
:1053C000049C03212068484AFBF75EFC474B206899
:1053D000E35C002B01D101F095FC444A0126A7189B
:1053E0003F229446F822D20090461A00C23A791C15
:1053F000012A46D90F00AB553B78002B01D101F0B3
:1054000003FB0136642EF0D1342616ABFF36F618B6
:10541000002232700368DE68564501D001F03BFD82
:10542000304B0132C3189A710D9BF4301A78002367
:10543000002A08D0C2540D9AD2185278002A02D0FD
:105440000133282BF6D1049B1B79012B01D101F0EC
:1054500043FB274A049C09212068FBF715FC2379AC
:10546000012B01D101F035FB224A049C0C2120685C
:10547000FBF70AFC2379012B01D101F027FB1E4A1F
:10548000A0E67A781400914662469443802CB1D10C
:1054900042469B0113404946624611400B43023786
:1054A000DBB2A8E7154B1649164A0E0015009C46BC
:1054B000FEF77DFD4A2310681349FEF765FC009353
:1054C00000215B463A01B04758E7C046A4160210D7
:1054D00048120000641F021040350210803502108F
:1054E00044120000440600005C1F02105712000026
:1054F000C41502101016021054160210D5EEE40066
:105500001C2918009FD9BA000C140210049A1379B0
:10551000012B01D101F06EFA44231068DE49F82412
:10552000E40001223F27A04681461C00C23C4E1CDD
:10553000012C00D85CE13100AB540B78002B01D179
:1055400001F05DFA0132642AEFD134224846FF327D
:1055500016ABD218002313700268D668564501D0E6
:1055600001F08BFCCD4A8218D3700D9B7C301A78E9
:105570000023002A08D0C2540D9AD2185278002A6B
:1055800002D00133282BF6D1049CC54B8021E3586F
:105590005846C44A09F024F95B461B782068002B62
:1055A00001D101F067FC3F229446F822D200012687
:1055B0005F4690461A00C23A791C012A00D8EBE3F4
:1055C0000F00AB553B78002B01D101F07AF8013682
:1055D000642EEFD1342616ABFF36F6180022327057
:1055E0000368DE68564501D001F0ADFBAB4BC31834
:1055F0005A710D9BCC301A780023002A08D0C2546F
:105600000D9AD2185278002A02D00133282BF6D1F5
:10561000A54B0693A54B1F000023059308331E00DE
:10562000373398460499A24B059ACB5CD3400122AC
:1056300014001C401A4200D18EE0731C9B460B796B
:10564000012B01D100F0F7FF9A49049B2200186852
:10565000A1464E238446079608971C00C23C481C6E
:10566000012C00D8BAE30100AB540B78002B00D119
:10567000C8E30132642AF0D1342260464C46FF323E
:1056800016AB079E089FD218002313700268D268D9
:105690009146524501D001F006F8132E15DC7F49E2
:1056A000821953540D9B197800290ED00023B200A3
:1056B0009219D20004328218D1540D99C918497830
:1056C000002902D00133282BF6D1049B02361B7926
:1056D000012B01D100F0ABFF3A68049B18681378E6
:1056E000002B01D101F011FC0790511C89461900D3
:1056F000C239012900D88CE34A462B551378002B78
:1057000000D19BE30134642CEFD1342416ABFF3479
:105710000798E418002323700268D4685A46544559
:1057200001D000F0C7FF132A16DC5C4982185354DD
:105730000D9B197800290FD05B469A0000235A442C
:10574000D20004328218D1540D99C9184978002921
:1057500002D00133282BF6D1059B069A013308327B
:10576000059306920437062B00D05BE7049B1B7958
:10577000012B01D100F094FF4F4EF822049BD20080
:105780001868452101233F27944681460A00C23A02
:10579000741C012A00D855E32600E9543178002909
:1057A00001D101F0A9F90133642BEFD1342348462C
:1057B000FF3316AA9B1800221A700368DE6856454C
:1057C00001D001F092F99721344B8900C318DA73A4
:1057D0000D9B40181A780023002A28D0C2540D9A35
:1057E000D2185278002A22D00133282BF6D11EE09D
:1057F0004C782000B843802800D09CE640469B01AE
:1058000003403C4023430231DBB295E604992B4A26
:105810000B798A58002A00D0B7E2012B01D101F0A0
:1058200070FB0B00264A0F211868FBF72DFA254B59
:10583000049CE35C002B01D1FFF7F1F92068224AB8
:1058400003681E69964201D000F0D8FE01211F4A6C
:10585000821851741E4AA25C002A01D1FFF721FA76
:10586000AB210023890040181A496118C254CA5C50
:10587000002A01D1FFF712FA0133282BF6D1FFF7E6
:105880000DFA0D9AFEF75BFACF254AAB1A000D937D
:1058900016ABED18FEF70AFA341E0210440600009B
:1058A00058130000C41F021010350210F834021003
:1058B0005C130000541E0210881E021050120000DB
:1058C000E81602105D130000390400106C06000099
:1058D000F4120000F51200004C7860462700874360
:1058E000802F01D0FFF719FA40469B010340604624
:1058F00004402343DBB20231AB540B78002B01D0C0
:10590000FFF712FA0D9B48469A180023137003689C
:10591000DD68554501D1FFF717FA0123982200935E
:1059200000210D9B5200A847FFF722FA4346203B77
:105930005E2B01D900F0C3FD434600245B004344C5
:10594000A0469B007D3BFF3B0B940F9C002C77D126
:105950000C9CE55CE3182E00079D2E705C782500FA
:10596000069C25709C782500059C2570DC78250018
:10597000049C25701C792500544625705C7925000F
:10598000644625709C790A9D3C70DC792C701C7AE9
:10599000099D2C705C7A089D2C709C7A0470DB7ACF
:1059A0000B700B9B002B00D1C0E00024A1464446A5
:1059B0002823012C00D1C0E0022C01D100F067FDAA
:1059C000032C01D100F06FFD4346042C03D10C33AE
:1059D000037010330B70079B013201330793069B52
:1059E000013701330693059B013001330593049B76
:1059F00001310133049301239A449C440A9B0133EF
:105A00000A93099B01330993089B01330893272AC2
:105A100001D0FFF70AFA149B1A7813004033DBB267
:105A20003B2B00D9CCE0E6499B00CB589F46002495
:105A300080230B940334A0460F9CDB00002C87D0FE
:105A40000C9CE55C079CA946257065782E004D46A8
:105A5000354365700C9CE3185C78A1464D46069C66
:105A6000257065782E004D46354365709C78A146BB
:105A70004D46059C257065782E004D463543657072
:105A8000DC78A1464D46049C257065782E004D4675
:105A9000354365701C79A14654464D46257064789F
:105AA00025004C462C432500544665705C79A14680
:105AB00064464D462570647825004C462C432500ED
:105AC000644665709C79A1463C707C780A9E2500EE
:105AD0004C462C437C70DC79A146347074782500E8
