:020000041000EA
:1000000000B5324B212058609868022188439860DF
:10001000D860186158612E4B002199600221596106
:100020000121F02299502B49196001219960352056
:1000300000F044F80222904214D00621196600F024
:1000400034F8196E01211966002018661A6600F04E
:100050002CF8196E196E196E052000F02FF8012189
:100060000842F9D1002199601B49196000215960AB
:100070001A491B48016001219960EB211966A021F2
:10008000196600F012F800219960164914480160C1
:100090000121996001BC002800D000471248134993
:1000A000086003C880F30888084703B5996A0420EC
:1000B0000142FBD001200142F8D103BD02B5186610
:1000C0001866FFF7F2FF186E186E02BD00000240BE
:1000D000000000180000070000035F00212200005C
:1000E000F4000018222000A00001001008ED00E03C
:1000F00000000000000000000000000074B24E7A12
:1001000000000420F7010010CB010010CD01001009
:10011000C9010010C9010010C9010010C901001077
:10012000C9010010C9010010C9010010CF01001061
:10013000C9010010C9010010D1010010D301001045
:10014000C1010010C1010010C1010010C101001067
:10015000C1010010C1010010C1010010C101001057
:10016000C1010010C1010010C1010010C101001047
:10017000C1010010C1010010C1010010C101001037
:10018000C1010010C1010010C1010010C101001027
:10019000C1010010C1010010C1010010C101001017
:1001A000C1010010C1010010C1010010C101001007
:1001B000C1010010C1010010C1010010C1010010F7
:1001C000EFF30580103800BE00BE00BE00BE00BECA
:1001D00000BE00BEF2EB887190DD0110B0DD0110B1
:1001E0003802001090A31AE71E481F49086006C88D
:1001F00081F3088810471D480068002801D019487D
:10020000F3E70DA40ECC002902D000F012F8F9E7B4
:100210001749184A002000E001C19142FCD116495B
:100220008847164988471649884700BEFDE701C937
:1002300001C29A42FBD37047B0DD0110C00000201C
:1002400010240020000102100000042000000420FF
:100250000001021000000320000003200000000045
:10026000704700000000000008ED00E0000000D032
:1002700010240020AC3B0020D1810010B5330010C9
:10028000C9810010F8B5C0460448054B10B583423B
:1002900003D0044B002B00D0984710BD1024002041
:1002A000102400200000000006480749091A8B109E
:1002B000C90FC91810B5491003D0044B002B00D04A
:1002C000984710BD102400201024002000000000DA
:1002D00010B5074C2378002B09D1FFF7D5FF054B4C
:1002E000002B02D0044800E000BF0123237010BDA2
:1002F000D03600200000000068A20110054B10B5A8
:10030000002B03D00449054800E000BFFFF7CCFFF5
:1003100010BDC04600000000D436002068A20110C5
:1003200030B59C466B461C7B0F230500D01703405D
:100330009B181B11132B1FD8A320CA1D40008242FB
:100340001AD80E48EA18145462461078002813D0C0
:100350000722CC17224051189A00D318DB0004332F
:10036000EA186346C9105B1A01335054585C0028E0
:1003700002D001312829F8D130BDC0464406000022
:100380007047C0467047C046C9239B0070B5C5186A
:10039000041D0600A54207D0200028222021283471
:1003A00006F0DAFAA542F7D1054BF0181433F61827
:1003B000B04203D01422002106F0CEFA70BDC04630
:1003C00044060000F0B557464E464546DE46E0B5C9
:1003D000A44CA54BA5449A46031D99460893CB23EC
:1003E000DB009846804443468244544609934B467A
:1003F00000269E4F0E940F930A909D4B0A9AD35C51
:10040000002B0DD1C82308989B002822C11819F091
:1004100031F9002804D12278237D9A4200D1F5E0F9
:10042000A0220021920010A806F096FA0023386856
:100430000B940C960D976EE04A0052188D4992006D
:100440008B468D4917008A468C49160089468C498F
:10045000150088468B4914008C46944461460491EB
:1004600011007439FF390591874993448C469444AF
:100470006146924491449044723A783F773E763D8B
:10048000753CFF3AFF3FFF3EFF3DFF3C0691079260
:100490005A460CA9825C6031CA5452460CA9825C4F
:1004A0008831CA544A460CA9825CB031CA544246CB
:1004B0000CA9825CD831CA54049A4CA9825CCA54F3
:1004C000C25D94270CA97F00C919CA540CA9825D8A
:1004D0005131FF31CA540CA9425D7931FF31CA5400
:1004E000025D86240CA9A131FF31CA54059A0CA9DA
:1004F000825CC931FF31CA54069A0CA9825CF13181
:10050000FF31CA54079A0CA9825CA4000919CA5485
:100510000133282B65D0089AD15CE92918D00A004C
:10052000203A5E2A88D90F220792013A0692013AB0
:100530000592053A0492013A9046013A9146013AF1
:100540009246013A0C240B250A26092793469FE779
:10055000D0229200825C0CA96031CA544B4A0CA98B
:10056000825CD831CA54D1229200825C4CA9CA5410
:10057000474A0CA9825C2931FF31CA54454A0CA96B
:10058000825C5131FF31CA54434A0CA9825C7931F3
:10059000FF31CA54D222862492000CA9825CA13178
:1005A000FF31CA543D4A0CA9825CC931FF31CA549B
:1005B0003B4A0CA9825CF131FF31CA54394AA4008C
:1005C000825C0CA90919CA5408210CAA8832D1549A
:1005D0001022693C0CA9FF3C0919CA540133282B8D
:1005E00099D10B9C0C9E23780D9F002B37D02E4B5E
:1005F0002E4A02920193A022012310A90391009395
:10060000310000200F33520003F062F8089B0134E0
:1006100028330893099B1036A34200D0EDE60E9BC9
:10062000C8229A46099B0A9D98460F9B9200190082
:10063000C9239B00E81806F095F94246534613CBB0
:1006400013C203CB03C20022094BEA54B1239B001F
:100650009D44F0BCBB46B246A946A046F0BD144B33
:10066000114AC6E73CFDFFFF44060000E41D0020E0
:100670006C06000084FEFFFF85FEFFFF86FEFFFF85
:1006800087FEFFFF88FEFFFF8EFEFFFF4303000093
:100690004503000046030000470300004903000033
:1006A0004A0300004B0300001C2918009FD9BA0020
:1006B000D5EEE400CF2110B50400C90006F058F9CA
:1006C000200010BDF0B5C64600B502780E00303AE5
:1006D000D1B20300092932D8451C407801003039D5
:1006E000CCB2092C18D890008218987852008A1839
:1006F00001003039CCB29F1C092C0BD8D878844625
:1007000030204042604404000020092C3FD880BCC7
:10071000B846F0BD2B003D00022104008C432C2C78
:100720000FD000280BD100235001801A80008018C0
:10073000C000C0183060431E9841C0B2E7E70020F7
:10074000E5E768783038C1B20929F8D8D9788C46FD
:100750003039092928D88100091849006144303905
:100760000C00302149428C46187984446146C9B254
:10077000092914D85B790020190030390929C6D914
:10078000002BC4D1A3001B195B006344CCE790008D
:1007900082185200DD1C60463B008A18BCE7002826
:1007A000CDD10A236343BFE76346002BC7D164233F
:1007B0004343B9E7F8B504000F00654A002106F08D
:1007C000CBF8644B3A882360012323713B68E280B5
:1007D0001A0C1B0E6372604B2272FB5A63817B689A
:1007E000E3603B892382FB68002B01DA01235B4233
:1007F0001A0C63821B0E63753B692275002B01DAAC
:1008000001235B421A0C8025E3821B0E63761A23B8
:100810006D01390063513B001431753322769942E2
:1008200006D0200061221A3006F09CF87B23635129
:1008300080235B01E5583B00474A7833BF181E0010
:10084000681E9F423BD032686319110A6255597085
:10085000110C120EDA70B28899701A71120A5A715C
:10086000B268002A01DA01225242110A9A71D97142
:10087000110C120E5A72F2681972002A01DA012262
:1008800052422800110A9A72D9720D30110C120EC0
:1008900019733100225432002B00103171320E33A3
:1008A000914251D06122E01806F05CF828006F35C3
:1008B0006E307436B742C6D180235B01E550002DFF
:1008C00044D00123671C3F182600012023495B42C6
:1008D0003278013653405A0803405B420B405A407D
:1008E0005308024052420A4053405A0803405B42B8
:1008F0000B405A405308024052420A4053405A08A3
:1009000003405B420B405A405308024052420A40A7
:1009100053405A0803405B420B405A405308024080
:1009200052420A405340B742D2D1DB436219190AFE
:1009300063555170190C1B0ED370802304355B0175
:100940002000E5509170F8BD1D00B2E70023EDE7EF
:10095000041000004C505331840E00002083B8ED89
:10096000F0B5DE464E4657464546DF23E0B5734CAC
:1009700006009346A5441B01994245D10127012158
:100980006F4B704AC35C825C1B04120213436E4AB5
:100990007F42825C13436D4A845C6D4A24061C438B
:1009A000694BC518037801307B405F080B405B4200
:1009B00013405F407B080F407F4217407B405F0839
:1009C0000B405B4213405F407B080F407F42174063
:1009D0007B405F080B405B4213405F407B080F4049
:1009E0007F4217407B405F080B405B4213405F40F3
:1009F0007B089C460F407B42674613405F40854220
:100A0000D0D1FB43A34209D000252800514B9D447F
:100A1000F0BCBB46B246A946A046F0BDB37872789A
:100A20001B041202134332781343F2781206134365
:100A3000494A9342E8D17479337924021C43012C4A
:100A4000E2D10021454A684605F086FF0122524264
:100A5000D3176F4601214248209221931E943BAB4D
:100A6000684419609A60DA6074338342F9D1337A4A
:100A7000F2791B0412021343B2793A491343727A92
:100A80000025120613430093354AB37A0020BB5465
:100A9000F27A00247A541F21914268410139994227
:100AA0006C41727BB37B12021B041343327B757C57
:100AB0001343F27B2D0212061A43337C90461D43EA
:100AC0007A60F37C327D1B0212041A43B37C04402B
:100AD0001A43737D3D811B0613435A1C03D02249E0
:100AE0005A1E8A4226D8327EFB60F37D12041B0216
:100AF0001A43B37D1A43737E1B0613435A1C03D05B
:100B000019495A1E8A4231D8310061221A3105A88A
:100B10003B6105F027FF002C31D04346002B2ED03F
:100B200080231B019D422AD27423FD5C6B425D41F0
:100B3000EDB225E0012300245B42D4E774F1FFFF0E
:100B4000EE0D0000ED0D0000EC0D0000EF0D0000BB
:100B50002083B8ED8C0E00004C505331880E0000FD
:100B6000840E0000850E00003E420F00012331007C
:100B70005B4261221A3105A83B6105F0F3FE0025B6
:100B80003B0039003A7D14337531002A0FD05E20C6
:100B90008C4600240021203AD2B290424C410133CD
:100BA00025409C4516D01A78002AF2D161465A1C7D
:100BB00091420FD0531C8B420CD050780028F6D0B5
:100BC000931C994206D09278002AF0D01A00531C48
:100BD0008B42F2D178239846103399464F4B3C0014
:100BE0009C46BC44E246B8447B36E934B944737849
:100BF000B2781B021204134332781343F2781206C0
:100C0000134342461360737932791B021343424601
:100C10009380F279337A12021B041A43B3791A4390
:100C2000737A1B0613435A1C03D03D495A1E8A424D
:100C300070D842469360F27A337B12021B041A4347
:100C4000B37A1A43737B1B0613435A1C03D03449EF
:100C50005A1E8A424ED842463100D3604B4671320A
:100C60004846D21A0E3105F07DFE002D4ED0434687
:100C70001B68002B4AD0434680229B881201934276
:100C800044D270234246D55C6B425D41EDB24B4687
:100C90001A78002A15D05E21B44600200026203A9A
:100CA000D2B291427041013305409C4230D01A7853
:100CB000002AF2D1664601339C420BD01A78002AF2
:100CC00005D10133A34205D01A78002AF3D00133AD
:100CD0009C42F0D17423743498446F36994454453F
:100CE00085D1002D00D18FE6390058460D4A05F018
:100CF00039FE8AE6012342465B42D36031004B460F
:100D000071324846D21A0E3105F02CFE0025BEE79E
:100D10006646DFE7012300255B428AE7F50E000007
:100D20003E420F00860E0000F0B5504C504AA544DC
:100D30008C000021050005F00FFE4E4B0122E1580A
:100D400002A80CF0B1F9031FDBB20400012B23D978
:100D5000002825D1E023069A079F160001901B0169
:100D60009A4221D002A80DF06DF90443E4B2002CA0
:100D700016D1012201214048D5AB68445242196086
:100D80009A60DA6074339842F9D1E0231B019E42E5
:100D900013D00222394BEA542800394B9D44F0BD50
:100DA0000322364BEA54F7E7002FDBD1290001ABD1
:100DB00002A80CF04FFD0400D4E7002FE9D1019BFD
:100DC000B342E6D12F4B2A689A42E2D1DF23AA68C8
:100DD0001B019A42DDD12C4B2800EE582A4B0124EE
:100DE0009C4601232949AC445B42027801305A40B9
:100DF0005308224052420A4053405A0823405B4263
:100E00000B405A405308224052420A4053405A086D
:100E100023405B420B405A405308224052420A4052
:100E200053405A0823405B420B405A40530822402B
:100E300052420A4053405A0823405B420B40534001
:100E40006045D2D1DB439E42A3D1DF2128009AAA7C
:100E500009010C30FFF784FD00289AD0E0236A686E
:100E60001B01EA50054BEC5496E7C0460CEFFFFF20
:100E7000080E000028B30110EC100000040E000062
:100E8000F41000004C505231FC0D00002083B8EDEE
:100E9000F0B51F002C4B2D4CC35CA5440E00040084
:100EA000002B36D0DF231B019A4232D30021684643
:100EB000FFF73AFF264B01216B441800FFF734FF80
:100EC0006B46244A9B5C032B23D0694620480918B3
:100ED000885C03281DD0012B25D001281DD1E023DB
:100EE0006A461B491B015218D35801229446184ADE
:100EF0006A441100CE226046D200A050164A30004B
:100F0000A350DF2212013A600C3105F02BFD0120C5
:100F100000E00220114B9D44F0BD002BF9D1431E8F
:100F200098414000F6E7E02200216B4612018C4612
:100F30009B5869460128DDD1054D481982589A42CF
:100F4000D8D91300D1E7C0466D060000ECE3FFFFDF
:100F5000080E0000040E000074060000141C0000BF
:100F6000F0B54646D6464F46C0B5614B614CC55CB0
:100F7000A544884604001600002D07D05E4BC35CD4
:100F8000002B03D1DF231B019A4208D00025280043
:100F90005A4B9D44E0BCBA46B146A846F0BD584FF6
:100FA000C3590133F2D057480DF08AF8F72318429D
:100FB000ECD1CE23DB00E35800215A425341E0221A
:100FC000DBB212019AA8994605F0C6FC4E4B9C2252
:100FD0009A93E359920001339B936B4641469E528C
:100FE0009DA8320005F0BEFC484B01216B449C4695
:100FF0000123474A9AA85B42067801305E40730895
:101000000E407642164073405E080B405B42134030
:101010005E4073080E407642164073405E080B40F7
:101020005B4213405E4073080E40764216407340A8
:101030005E080B405B4213405E4073080E407642F0
:10104000164073405E080B405B421340734060459E
:10105000D2D1DB432D4A02A86A4413604A462D4B85
:101060009200D1580A220CF01FF8002800D08DE71A
:10107000E026360101AB32009AA9019002A80CF0DB
:1010800019FD070002A80CF085FE804602A80CF0AE
:10109000D9FF019B9A46B34225D13B0042461343F8
:1010A0001843C0B200281ED11B4B49466B441800A0
:1010B000FFF73AFE6A461848184B1218D35C012B0A
:1010C00011D103006B44524618009AA918F0D2FAC5
:1010D000002808D1CE234A46DB00E250084AA35834
:1010E0000133A35053E70122034BE2544EE7C046BD
:1010F0006D06000090E1FFFF6E060000701E00000C
:101100007406000078A201104C50523164100000A7
:101110002083B8ED28B3011068100000040E000011
:10112000F0B557464546DE464E46E0B50768D64C14
:101130003B68D64A9B680500A544934201D000F065
:1011400013FFC9239B00FE183C1DB44207D02000AA
:1011500028222021283405F0FFFBA642F7D1CC4BF2
:1011600014220021F81805F0F7FB12ACAB685021EF
:101170002000C84A06F0A8FF2868C74E0368DF6849
:10118000B74201D000F0F4FE0122C14BC2542278D4
:1011900000230430002A07D0C254E2185278002AF3
:1011A00002D00133282BF7D16B6850212000BB4AB5
:1011B00006F08AFF28680368DF68B74201D000F0B4
:1011C000DFFEB34B2278C11800234B70002A01D1F7
:1011D00001F088F82C30C254E2185278002A02D06C
:1011E0000133282BF7D1AE4BEB58042B01D900F07B
:1011F000F3FEAC4A9B00D3589F4628680368DF681B
:10120000B74201D001F066F80022A14BA649C318ED
:10121000DA70002350327C30C254CA5C002A02D0FB
:101220000133282BF8D1A14BA14AEF183B005021E4
:10123000200006F049FF9F4B2868EB585A42534163
:101240000268DBB2D2689046B24201D001F00CF8DD
:101250008F4A8218937122780023F430002A07D035
:10126000C254E2185278002A02D00133282BF7D159
:10127000914B924A9846A84443465021200006F0DC
:1012800023FF8C4B2868EB58013B5A4253410268BC
:10129000DBB2D2689146B24201D000F0DEFF7C4A58
:1012A0008218537222786D300023FF30002A07D055
:1012B000C254E2185278002A02D00133282BF7D109
:1012C000002326931193794BEB5C002B01D100F0A6
:1012D00033FF380011A9FFF7F5F900280DD0764B40
:1012E000EB5C002B01D100F0B4FF404626A9FFF7CC
:1012F000E9F9002801D000F023FF2200704B03CB56
:1013000003C2198811809B78937028680368DF688E
:10131000B74201D000F08EFF00225D4BC3181A7354
:101320002278002A13D00023E530FF30C254E2189F
:101330005278002A02D00133282BF7D1286803689D
:10134000DC68B44201D000F043FF514BC3180022C7
:101350008D219A730023890040185A495632C2548D
:10136000CA5C002A02D00133282BF8D12868036810
:10137000DC68B44201D000F023FF00229721444BE7
:101380008900C318DA73002340184F494832C25409
:10139000CA5C002A02D00133282BF8D128680368E0
:1013A0000400DF68B74201D000F0C5FD0022384BD1
:1013B000C3185A74454AAA5C002A15D0AB210023F1
:1013C0008900401842496918C254CA5C002A02D0F8
:1013D0000133282BF8D12C682368DF68B74201D08D
:1013E00000F0B8FD2A4BE3180122BF21DA74002374
:1013F0008900641837494732E254CA5C002A02D097
:101400000133282BF8D12B68334A98461B681B6997
:10141000934201D000F08CFD1D4B002643441D007B
:10142000042343449A460793CB23DB004344994665
:1014300043460B934B460C935346284F08960E9306
:101440000F950D97264B0B9AD35C002B0ED1C8231A
:1014500007989B002822C11818F00CF9002805D124
:101460002A782B7D9A4201D100F024FDA02226ACDF
:1014700092000021200005F06FFA0D9B00221868F1
:1014800009950A94A1E0C046E4FCFFFF890300101F
:101490004406000080A2011021030010A4A2011044
:1014A0008C0E0000A8B201108DA30110FE0E0000EA
:1014B000A0A30110980E0000060F0000B0A30110B9
:1014C000C0A30110E5A30110FDA301100E0F000041
:1014D0000F0F0000F5A40110C5030010E41D00204B
:1014E0006C0600004B005B1847499B008B46474940
:1014F0001F008A4646491E00894646491D00884607
:1015000045491C008C469C4461460491190074397D
:10151000FF39059141499B448C469A44994498442B
:101520009C44723B783F773E763D753CFF3BFF3FE6
:10153000FF3EFF3DFF3C06935B460CA9C35CB83100
:101540008B5453460CA9C35CE0318B544B460CA919
:10155000C35C0931FF318B5443460CA9C35C313164
:10156000FF318B54049B0CA9C35C5931FF318B5460
:10157000C35DC0270CA97F00C9198B540CA9835DDA
:10158000A931FF318B540CA9435DD131FF318B540C
:10159000035D88240CA9F931FF318B54059BA4000D
:1015A000C35C0CA909198B5463462834C35C0CA98D
:1015B00009198B54069B0CA9C35C283409198B5458
:1015C0000132282A01D100F062FC079B995CE929CD
:1015D00001D100F00EFC0B00203B5E2B82D90F23C3
:1015E0000693013B9C46013B0593053B0493013B5D
:1015F0009846013B9946013B9A46013B0C240B253A
:101600000A2609279B4697E784FEFFFF85FEFFFF1A
:1016100086FEFFFF87FEFFFF88FEFFFF8EFEFFFFB7
:1016200028680368DF68B74201D000F04BFE002253
:10163000AC4BAD49C318DA70002354327C30C2542D
:10164000CA5C002A02D00133282BF8D1AA89002ACB
:1016500001D100F06BFE500801D100F064FE0121C1
:101660000B00084013401B18900834D008401B188A
:10167000D00830D008401B1810092CD008401B1887
:10168000500928D008401B18900924D008401B1886
:10169000D00920D008401B18100A1CD001405B184C
:1016A000500A18D0012108401B18900A13D0084096
:1016B0001B18D00A0FD008401B18100B0BD0084085
:1016C0001B18500B07D008401B18900B03D001408B
:1016D000C918D30BCB1850212000844A06F0F4FC23
:1016E00028680368DF68B74201D000F079FD002266
:1016F0007C4BC3189A7122780023F430002A07D05B
:10170000C254E2185278002A02D00133282BF7D1B4
:10171000AA89002A01D100F08AFD500801D100F009
:1017200086FD93083ED001210F000840174038186D
:101730000B401B18D00830D008401B1810092CD0C3
:1017400008401B18500928D008401B18900924D0C5
:1017500008401B18D00920D008401B18100A1CD0C4
:1017600001405B18500A18D0012108401B18900A4C
:1017700013D008401B18D00A0FD008401B18100BBC
:101780000BD008401B18500B07D008401B18900BBB
:1017900003D00140C918D30BCB1802229A429241C0
:1017A0000A23134050212000514A06F08DFC28687E
:1017B0000368DF68B74201D000F021FD0022494BE9
:1017C000C3181A72227845300023FF30002A07D050
:1017D000C254E2185278002A02D00133282BF7D1E4
:1017E000AB89002B47D0580801D100F0A7FD01219B
:1017F0000A0008401A4080189A0801D100F099FDAB
:101800000A401218D80830D00840121818092CD0F5
:1018100008401218580928D008401218980924D0F6
:1018200008401218D80920D008401218180A1CD0F5
:1018300001405218580A18D0012108401218980A7D
:1018400013D008401218D80A0FD008401218180BED
:101850000BD008401218580B07D008401218980BEC
:1018600003D001408A18DB0BD21893009B185B0051
:10187000022A00D90A33502120001E4A06F024FC17
:1018800028680368DF68B74201D000F03EFD0022FF
:10189000144BC3189A722278002A13D00023953073
:1018A000FF30C254E2185278002A02D00133282BAC
:1018B000F7D128680368DC68B44201D000F01DFD50
:1018C000084BC318002283215A7300238900401853
:1018D00009494532C254CA5C002A0FD00133282B73
:1018E000F8D10BE04406000021A4011034A401103B
:1018F00044A401105CA401106DA4011028680368C1
:10190000DC68B44201D000F0F6FC00229721514B74
:101910008900C318DA73002340184F495532C25466
:10192000CA5C002A00D139E50133282BF7D135E50F
:101930004A4B5021EB5820000133494A06F0C4FBC2
:1019400028680368DF68B74201D000F0B3FC0022CA
:10195000404BC318DA70227800237C30002A07D06D
:10196000C254E2185278002A02D00133282BF7D152
:101970003A4BEB585A1C9100894691444A460B2A2F
:1019800001D90B2291469F00FF18B94549D9354B23
:101990009B46354B9A46B8465A4641460137BB00EE
:1019A000D258AB892000CB4001210B40013B56317E
:1019B0008B437833019300923B005246073906F07F
:1019C00083FB264BEA5893009B184246D11AE92321
:1019D0001B01EB584A005B1A59424B41D8B22B68A5
:1019E000053219680493C9688846B14200D090E274
:1019F000132A14D89918174BC854217800290ED0EF
:101A000093009B18DB00049A0433D0180023C154C0
:101A1000E2185178002902D00133282BF7D1B945BB
:101A2000B9D128680368DC68B44200D0BEE3002264
:101A3000A121084B8900C3181A74002340180B49D0
:101A40004532C254CA5C002A00D1A7E40133282BD6
:101A5000F7D1A3E4440600008DA40110940E000009
:101A6000E4A201105CB301100CA301101DA301102E
:101A700028680368DF68B74201D000F013FC894B87
:101A8000C11800234122CB7087497C30C254CA5C04
:101A9000002A02D00133282BF8D1AA89002A01D1CB
:101AA00000F03EFC530801D100F037FC012739005B
:101AB0003B4011405B18900801D100F053FC3840C6
:101AC000D1088B461B18002901D100F049FC58466B
:101AD0003900014010098146C918002801D100F0E1
:101AE0003CFC38408046500984468844002801D197
:101AF00000F02FFC384082469009C244002801D1F2
:101B000000F023FC38408046D009D044002801D1A1
:101B100000F017FC38408044100A01D100F011FC9D
:101B200007404744510A00D162E308000121084000
:101B30003F18900A00D15CE308403F18D00A00D15A
:101B400057E308403F18100B00D152E308403F18FC
:101B5000500B00D14DE308403F18900B00D148E3F3
:101B600008403F18D00B00D143E358460140484697
:101B7000C9187B1C012738404018614689B2884645
:101B80006146002929D0414639404018910924D0A6
:101B900039404018D10920D039404018110A1CD0D2
:101BA00039404018510A18D039404018910A14D0D1
:101BB00039404018D10A10D039404018110B0CD0D0
:101BC00039404018510B08D039404018970B04D0C9
:101BD000012139400818D20B8018810009184900EA
:101BE000022800D90A310091200050212F4A06F026
:101BF0006BFA28680368DB689C46B34200D021E397
:101C00000022284BC3181A712278002A0DD0002315
:101C1000A430C254E2185278002A02D00133282B93
:101C2000F7D128680368DB689C4626AB9846424695
:101C30001F4B92CB92C21B6844461360F023994617
:101C400000239846E9231B019A4633006746260085
:101C5000444698465246A9583368091B4A425141A6
:101C6000C9B2474500D098E2124F62008218D155A0
:101C7000197800290CD05F1C4B4600220433C3188E
:101C80009954B95C002902D00132282AF8D1286879
:101C90000134042C00D186E25023994403680436B1
:101CA000DF68D7E744060000B5A20110C0A201100A
:101CB0008CB301104A06000028680368DF68B74249
:101CC00000D0E8E20022B24BB249C318DA70002318
:101CD0004E327C30C254CA5C002A02D00133282B19
:101CE000F8D1AD4B9B46EB5CAB44002B45D0C823F1
:101CF0000593C33BB0469A465E46A94626AF049775
:101D000029220021049804F027FE300017F01AFF62
:101D10000500282800D928252A003100049804F05D
:101D200021FE4B4618680368DB681F00434500D05E
:101D3000F6E0534600229649C318049F5A54059969
:101D40003A78043100234118002A08D0CA54FA18FE
:101D50005278002A02D00133282BF7D10497761944
:101D60003378002B07D001239A44059B2833059331
:101D70005346082BC4D146464D46584617F0E2FE5E
:101D800050210300854A200006F09EF92868036868
:101D9000DF68B74200D077E200227D4BC3189A7209
:101DA0002278002A12D000239530FF30C254E21866
:101DB0005278002A02D00133282BF7D12868036813
:101DC000DC68B44200D056E2714BC31800228D216A
:101DD0009A7300238900401871494532C254CA5C85
:101DE000002A01D1FFF7DAFA0133282BF6D1FFF7E9
:101DF000D5FAD0239B00C35C0CA9B8318B54694B36
:101E00000CA9C35C3131FF318B54D1230CA99B0049
:101E1000C35C5931FF318B54634B0CA9C35C8131D6
:101E2000FF318B54614B0CA9C35CA931FF318B543A
:101E30005F4B0CA9C35CD131FF318B54D223882472
:101E40009B000CA9C35CF931FF318B54594BA400A2
:101E5000C35C0CA909198B54574B2834C35C0CA9DB
:101E600009198B54554B2834C35C0CA909198B54A0
:101E700008210CABE03399541023693C0CA9FF3CBA
:101E800009198B540132282A01D0FFF79EFB099DC6
:101E90000A9C2B78002B39D1494B4A4A0292019374
:101EA000A022012300200093089903940F335200CD
:101EB00001F00EFC089B013510330893079B283373
:101EC00007930C9B9D4201D0FFF7BCFA0B9BC920E6
:101ED00098460E9BC82219000F9B80009B469200DB
:101EE000404404F03FFD2A005B4613CB13C203CBF2
:101EF00003C200224146344BCA54C7239B009D4471
:101F0000F0BCBB46B246A946A046F0BD2D4B2F4AB9
:101F1000C4E700902300002104981201C0477EE529
:101F200053461A01002300210093049BB84716E78B
:101F300040469847E1E7002388220093244B002184
:101F4000EB185200B8472C682368DF68B74201D10C
:101F5000FFF748FA012200923032002120001D4B89
:101F6000FF32B847FFF74FFA38009847FFF7FDF800
:101F700001230022009300212300B847FFF714F942
:101F800000231022009300212300B847FFF72BF90C
:101F90004406000045A301109D0E000054A301104B
:101FA00069A301104303000045030000460300003D
:101FB00047030000490300004A0300004B030000F0
:101FC000D5EEE4001C2918006C0600009FD9BA0069
:101FD0000E0F0000F4A4011028680368DF68B74200
:101FE00000D01DE10022E24BE249C318DA70002361
:101FF0004A327C30C254CA5C002A02D00133282BFA
:10200000F8D1DD4B5021EB582000DC4A06F05CF89B
:1020100028680368DF68B74200D0FAE000220100B8
:10202000D34BCC31C3185A7122780023002A08D030
:10203000CA54E2185278002A02D00133282BF7D173
:102040002868CF4BB246984601239B46CD4B0027CC
:10205000082499464646CC4B5A46EB5CFB401A4254
:102060003FD00368DB689846A31C0493D0455DD13C
:10207000132C35DC0021BE4B0219D154A1000919E3
:10208000C900043141184E2200234846CA54C25C9C
:10209000002A02D00133282BF8D18146631C9C46CC
:1020A000286833680268D4686246544538D1132AD8
:1020B00016DC00248118AE4A8C54197800290FD000
:1020C000624692006244D20004328018002201333A
:1020D0008154995C002902D00132282AF8D128685D
:1020E000049C01370836062FB5D103685646DC68D4
:1020F000544500D08BE0002297219D4B8900C318E6
:10210000DA7300234018A1494532C254CA5C002A40
:1021100001D1FFF743F90133282BF6D1FFF73EF940
:10212000002112010091A0472868D9E70021984BAF
:1021300022010091C047B1E7013B1193FFF7CFF8AF
:10214000119A002A01DAFFF7D8F8269B002B01DA52
:10215000FFF7D3F89B1ADA179918DB43DB175140C6
:102160001A0001239A4313002D228946FA21904632
:1021700048468900984403F00FFD0191FA21484632
:10218000890003F009FD834F009043463A00502137
:10219000200005F099FFFFF7B8F862010091603266
:1021A0000021B84773E54646FFF7F9F80022009290
:1021B00001320021784BFF32A0472868FFF7EFF883
:1021C000764B002200210092F032A047FFF7E6F89C
:1021D000002200210092724BE032A047FFF7C6F8C0
:1021E00000236022009300212300B847FFF790FAF4
:1021F000012158460140C91810093B00BAE40023E8
:102200008022009300212300B847FFF7E9FA654BCD
:10221000D7E700235022009300212300B8470FE79F
:10222000002200210092604B3032B847E9E60023DB
:10223000FFF7B8FA0023C022009300212300B8471B
:10224000FFF77CF800234022009300212300E047A1
:10225000E7E4013B2693FFF750F800939022230018
:102260000021C847FFF72CF80093602223000021CB
:10227000C047FEF7FDFF0022002100924B4BE032E9
:10228000A0472868FFF78BF80023A02200930021C5
:102290002300B84792E5002200210092444B3032DF
:1022A000B8471EE5002200210092424B3032B84769
:1022B000FFF7F3FB00233022009300212300B847EF
:1022C000FFF756FB0022002100923B4B3032B8470B
:1022D000FFF7BCF9002200210092384B3032B8479A
:1022E000FEF7A1FF364BEB58042B00D977E6354AB1
:1022F0009B00D3589F46344B63E700220021009295
:10230000324BD032A047FFF7F9FA0023A022009306
:1023100000212300B847FFF7CCFA01230A2162E429
:10232000002300215FE40123FFF7D5F90023FFF725
:10233000D2F983001B185B00FFF79DFA0A23FFF711
:102340009AFA48464346FFF715FC48465346FFF7BE
:1023500011FC43460120FFF70DFC581C0B003CE428
:1023600018003AE44A1C9100891849003BE4C04631
:1023700044060000ADA40110380F000064A4011051
:1023800030B30110BDA401103C0F0000D1A4011016
:10239000BCA40110CCA301101CA30110FCA30110CC
:1023A000E4A30110D0A40110ACA4011068A3011093
:1023B00044A30110B4A2011020A401108CA30110A9
:1023C0008C0E0000BCB201108CA401106CA4011092
:1023D000F0B5414C414BA54404006B44180000216A
:1023E0003F4A04F0B9FA25682B685E693D4B9E426E
:1023F0004CD13D4BEB5C002B39D0002101A8FEF7FE
:1024000093FC3A4B01216B441800FEF78DFC384ACF
:1024100001AB9B5C032B2AD0684634494018825C90
:10242000032A24D0012B47D0012A42D1E0231B01EB
:10243000C3582E4A01206A441100CE22D200A8506F
:102440002C4A0C31AB50DF252B4B2D016B441D600A
:10245000224B2A006B44180004F084FA29001F4B19
:10246000221D6B441800FEF77BFA002808D10122D8
:10247000224B2349E254234B2432E01804F072FA31
:102480002000FEF74DFE204B9D44F0BD80221A4BEC
:10249000124928006B4452016944B0470228E6D033
:1024A0000128EDD16B4680220C4952015B189958E6
:1024B000D5E71343E4D0DAE7E02601AB360100208C
:1024C0009B5901A9012AB8D16A46084FD2199259DD
:1024D0009A42B2D91300ACE7E4D3FFFF141C00000A
:1024E00004100000910E00106D0600000C0E00009C
:1024F000040E000074060000142C00009C0E000066
:1025000018A501100E0F00001C2C0000F0B5454668
:10251000DE4657464E46E0B5534C0D00A544040038
:102520001B291ED0514B29229C4684440021604621
:10253000E14604F011FA4E4BE358052B06D84D4AFC
:102540009B00D3589F460D2D00D185E32000FEF758
:10255000E7FD494B9D44F0BCBB46B246A946A046A8
:10256000F0BD0023424A00218350043283503F4B88
:102570002922C01804F0F0F92000FEF7D1FDE8E7A9
:102580000D2DE3D1A089002801D100F0FDFC410808
:1025900001D100F08DFE0122130011400340C91843
:1025A000830801D100F088FE13405B18C10830D0C9
:1025B00011405B1801092CD011405B18410928D04B
:1025C00011405B18810924D011405B18C10920D04B
:1025D0000A409B18010A1CD0012211405B18410AD5
:1025E00017D011405B18810A13D011405B18C10A43
:1025F0000FD011405B18010B0BD011405B18410B41
:1026000007D011405B18810B03D00A40D218C30BCE
:10261000D3189A00D21852009346022B01D90A32DD
:102620009346A3689846013307D05B46DB43626854
:1026300003929A4201D800F0B1FC1C2248460F498F
:1026400004F090F982E7FA239B009D4200D138E321
:102650000B4B9D4200D079E1E92103230901625827
:1026600001321340635071E7E4C2FFFF0E0F000018
:102670008C0E0000D0B201101C3D0000ACA5011072
:10268000E9030000E34B0521E05883001B18DA1F23
:10269000042A01D80631C91ADF4AAA18012A00D82B
:1026A00000E3FA229200954200D1E0E2DB4A954233
:1026B00001D100F0BDFD0D2D01D100F0C6FD313D71
:1026C000AB46082D00D941E7D54D04ABED18231DCD
:1026D00019002800D34A9A4604F044F9D24BE35C2F
:1026E000002B00D000E35A4601239340A289290021
:1026F000534003932B81CD4B04AA9F183800FEF75B
:1027000059F8802226685201336802979B69BF58A6
:10271000C74A0496934201D000F0D4FDC54BF35C48
:10272000002B00D1DFE3C44BF35C002B00D0DAE3D5
:10273000DF231B019F4200D0D5E3C04AB3580133C9
:1027400000D1D0E3BE480BF0BBFCF723184200D009
:10275000C9E3CE23DB00F35800215A425341D8B2DB
:102760000590E022A1A88046120104F0F5F8404649
:10277000B44BB24AA193B35802990133A2933A00E1
:102780000781A4A804F0EEF8AF4B04AA9B1826001A
:10279000012440469C460121AC4A64420378013042
:1027A00063405C080B405B42134063405C080B4095
:1027B0005B42134063405C080B405B421340634044
:1027C0005C080B405B42134063405C080B405B427B
:1027D000134063405C080B405B4213405C4063085D
:1027E0000C406442144063405C080B405B42134061
:1027F0005C406045D2D1E343934A04A95350059A03
:10280000934B9200D15808A80A2234000AF04CFCDD
:10281000002800D067E3E022414607AB1201079091
:1028200008A80BF047F9070008A80BF0B3FA060058
:1028300008A80BF007FCE021079B090102938B42DB
:1028400001D000F0AAFD3A00030032431343DBB28B
:10285000002B01D000F0A1FD7E4B04AA9E18300091
:102860000599FEF761FA7C4B3000F35C012B01D037
:1028700000F093FD4146029A16F0FCFE002801D0BC
:1028800000F08BFDCE230499059ADB00CA506B4AF9
:102890008B5801338B50039B704A2B812900504683
:1028A00004F060F80521584603F09EF9594B0521C4
:1028B000E050584603F098F9E9231B01E15045E642
:1028C0000D2D00D1E0E0664BE01817F03BF9082D24
:1028D00000D195E07F2D00D192E02B00203B5E2BB4
:1028E00000D933E65F2800D930E65D4B2018C55487
:1028F0005C4BC0180023037028E60D2D00D12BE29D
:1029000000DCE6E17F2D00D1BAE100DDFBE22A0028
:102910002C3A0D2A00D919E6534BD340DB0700D4DB
:1029200014E6524B5248E358DB00C01820181E0032
:1029300017F008F9062800D908E64D4AA3191B1814
:102940009D544C4A9B1800221A70FFE5290031392A
:10295000032900D9DEE2354A04ABD2181000464BF9
:102960008900E0CBE0C01B6803608D580022434B18
:102970000021E5500433E2504846293203F0ECFFD1
:10298000022D00D1B6E2032D00D0DFE50022374B47
:102990002569E250364B00219C46A444604608322B
:1029A000674603F0D9FF002D01DB00F04AFC344BF1
:1029B0009C46A4446746082200213800656903F05C
:1029C000CBFF01239846002D00DABFE5FA2128004D
:1029D000890003F0E1F8FA2106008900280003F0DD
:1029E000DBF83300009138000821264A05F06CFB23
:1029F0004346012B00D1A9E53B0008331F00DAE76D
:102A0000002800D1A2E5084B2018C018002303704D
:102A10009CE5C046940E000016FCFFFFE903000091
:102A20007C1E0000880E00009C0E0000042D00009B
:102A3000610F00106D0600006E06000074060000B5
:102A400078A201104C505231701000002083B8ED74
:102A500028B3011074100000040E0000860E000060
:102A60009D0E00009E0E0000F53F0000980E000035
:102A7000FE0E0000FF0E00009CB301108C0E000043
:102A8000060F00006CA201109A4D04ABED18231D37
:102A90001900994A28009A4603F064FF974B98481A
:102AA000E11804ABC018612203F05CFF954BE35CB6
:102AB000002B00D018E1944B04AA9F18380029007D
:102AC000FDF778FE802226685201336802979B69E1
:102AD000BF588E4AB346934200D0DBE38C4BF35C85
:102AE000002B00D1FFE18B4BF35C002B00D0FAE10F
:102AF000DF231B019F4200D0F5E1874AB358013321
:102B000000D1F0E185480BF0DBFAF723184200D042
:102B1000E9E1CE23DB00F35800215A425341D8B2F9
:102B20000390E022A1A88046120103F015FF404661
:102B30007B4B794AA193B35802990133A2933A008F
:102B40000781A4A803F00EFF764B04AA9B189C46AD
:102B50000123260001214446734A5B422078013458
:102B600058404308084040421040434058080B403A
:102B70005B421340584043080840404210404340E5
:102B800058080B405B4213405840430808404042FD
:102B90001040434058080B405B42134058404308E4
:102BA000084040421040434058080B405B421340ED
:102BB00043406445D2D1DB435A4A04A95350039A97
:102BC0005A4B9200D15808A80A2234000AF06CFA35
:102BD000002800D087E1E022414607AB12010790B0
:102BE00008A80AF067FF070008A80BF0D3F8060052
:102BF00008A80BF027FAE021079B090102938B42FA
:102C000000D085E33A00030032431343DBB2002BCC
:102C100000D07DE3464B04AA9E1830000399FEF7CE
:102C200083F8444B3000F35C012B00D070E3414645
:102C3000029A16F01FFD002800D069E3CE23594602
:102C4000039ADB00CA50344A8B5801338B50290059
:102C50005046394A03F086FE0023384A0021A3502B
:102C60000432A3504846292203F076FE6EE4E9259B
:102C70002D0160590138401802F0B6FF615165E43A
:102C80002F4BE5582F4BED00E818201816F05AFF8F
:102C9000002800D15AE42C4A63191B189B18002203
:102CA0001A7053E4294B0321ED186B1E9D41013529
:102CB000401902F099FF0022254BE150043BE250FD
:102CC00044E4E921032309016258033213406350AD
:102CD0003CE4082DD4D0092D00D037E40123184A54
:102CE000A1585B1AA35031E428224846194903F041
:102CF00039FE2BE47C1E0000880E00009D0E0000B3
:102D0000901E00009C0E0000042D0000610F0010BA
:102D10006D0600006E0600007406000078A2011027
:102D20004C505231701000002083B8ED28B30110D0
:102D300074100000040E0000860E00008C0E0000CF
:102D4000980E0000FE0E0000FD0E000015FCFFFFB7
:102D5000940E000040A50110764D04ABED18231D24
:102D600019002800744A9A4603F0FCFD734BE35C9B
:102D7000002B00D170E2724904ABC9186F4BE01808
:102D8000FDF7A0FC002800D1CCE06D4B04AA9E58B2
:102D90006C4BE35C002B00D184E26B4904ABC91897
:102DA000684BE018FDF78EFC002800D1BAE0664BB6
:102DB00004AA9A58654BE35C002B95D104A98C4674
:102DC0005F4B290063441E605F4B63441A60604B95
:102DD000634418001F00FDF7EDFC802226685201B5
:102DE000336802979B69BF585A4AB346934200D052
:102DF00050E2594BF35C002B75D0584BF35C002B21
:102E000071D1DF231B019F426DD1554AB358013365
:102E100069D054480BF054F9F72302001A4011000E
:102E2000184260D1CE23DB00F3585A425341D8B246
:102E30000390E022A1A88046120103F08DFD4046D8
:102E4000494B474AA193B35802990133A2933A00E0
:102E50000781A4A803F086FD444B04AA9B189C4656
:102E60000123260001214446414A5B422078013477
:102E700058404308084040421040434058080B4027
:102E80005B421340584043080840404210404340D2
:102E900058080B405B4213405840430808404042EA
:102EA0001040434058080B405B42134058404308D1
:102EB000084040421040434058080B405B421340DA
:102EC0004340A445D2D1DB43284A04A95350039A76
:102ED000284B9100C9580A2208A834000AF0E4F8E7
:102EE000002800D177E61E224846234903F03AFD28
:102EF000FFF72CFB2100214B61221831E01803F071
:102F000031FDFFF723FB1E4BED18012D00D8E5E640
:102F1000FFF71CFB0D2D01D0FFF718FBE9231B0168
:102F2000E15818E523224846164903F01BFDFFF738
:102F30000DFBC0467C1E0000880E0000FE0E000047
:102F4000881E0000060F00008C1E00009C0E000072
:102F5000042D0000610F00106D0600006E060000D9
:102F60007406000078A201104C505231701000001D
:102F70002083B8ED28B3011068A501109D0E000054
:102F800018FCFFFF88A50110A3689846013301D102
:102F9000FFF753FB6368039300239B46E34D04ABA9
:102FA000ED18231D1900E24A28009A4603F0DAFCC6
:102FB0007420E04E04A9AB5D71225843DE4BC0186B
:102FC00004ABC018DD4BC018F4235B01591803F0A3
:102FD000C9FCA85D1F21013002F006FED84AA955A0
:102FE000AB5C1E2B01D80133AB545E46039BCF4A2A
:102FF000D44FD548F61804ABFF18D65000217022E4
:10300000C018029703F0A8FC04A98C460123F42001
:10301000CE4A3B606244023B1360CD4A40016244A9
:10302000136039007122604403F09CFC4246531C3B
:103030006B60039B1D2B00D911E11D2E00D834E1DC
:1030400001230493452E0CD90223049A1A430492B7
:10305000772E06D9B32E00D944E10423049A1A43EB
:103060000492BC4BE35C002B00D03DE6029F29009C
:103070003800FDF79FFB80222668520133680297D3
:103080009B69BF58B44A0396934200D023E1B34BE7
:10309000F35C002B00D126E7B14BF35C002B00D092
:1030A00021E7DF231B019F4200D01CE7AD4BF35803
:1030B000013300D117E7AC480BF002F8F7231842B0
:1030C00000D010E7CE23DB00F358A1A85A425341A9
:1030D000DAB20592E02280460021120103F03CFCA6
:1030E0004246A24B0299A1939E4BA4A8F3582600F6
:1030F0000133A29317813A0003F034FC9C4B04AADD
:103100009B189C460123012144469A4A5B42207841
:10311000013458404308084040421040434058089A
:103120000B405B4213405840430808404042104067
:10313000434058080B405B42134058404308084046
:1031400040421040434058080B405B4213405840F7
:103150004308084040421040434058080B405B423F
:1031600013404340A445D2D1DB43814A04A95350C4
:10317000059A814B9100C9580A2208A8340009F029
:1031800093FF002800D0AEE6E022414607AB1201D3
:10319000079008A80AF08EFC070008A80AF0FAFDBC
:1031A000060008A80AF04EFFE021079B09010293E0
:1031B0008B4200D0F6E03A00030032431343DBB207
:1031C000002B00D0EEE06D4B04AA9E18300005994C
:1031D000FDF7AAFD6A4B3000F35C012B00D0E1E063
:1031E0004146029A16F046FA002800D0DAE0CE23D3
:1031F0000399059ADB00CA505A4A8B5801338B5009
:10320000290050465F4A03F0ADFB5A465E4B002151
:10321000E250049A5D4B4846E25405225C4BE25072
:1032200000220433E250293203F096FBFFF78EF9B7
:10323000E9252D016059013002F0D6FC6151FFF7FC
:1032400085F900239846FFF7C1FBE9221201A25835
:103250009B189B46FFF738FA0126764298E5452BE6
:1032600000D897E0772B5DD9B32B4CD9F92B40D9F7
:103270000022A5230492039A5B009A4200D3F0E651
:10328000A5235B009E4200D2EBE62023049A1A435A
:103290000492E6E63A00584602999847002800D082
:1032A000D5E420E60122524284E500230493D8E6C7
:1032B0000A239B46FFF7B5F98B005B185B009B4622
:1032C000FFF7AFF930003A0002999847002801D083
:1032D000FFF7E1FA07E630003A0002999847002824
:1032E0008ED100E6F92E18D91C23049A1A430492B1
:1032F000B7E600230493F92E00D8B2E61023049A0F
:103300001A430492BCE7B32ECFD908230493F2E703
:1033100001225946124BCA54E5E50C23049A1A437C
:1033200004929EE60023049392E6C0467C1E0000B1
:10333000880E0000840E0000083D0000ECE1FFFF55
:10334000850E0000042D0000082D00000C2D00004B
:10335000102D00009C0E0000610F00106D06000093
:103360006E0600007406000078A201104C50523125
:10337000701000002083B8ED28B301107410000015
:10338000040E0000860E0000380F00003C0F000005
:103390008C0E00000023049354E60122044B049990
:1033A000CA54A0E50122024B0399CA549BE5C046CA
:1033B0006E06000070B55F4884B00CF045F9002837
:1033C0000BD15D4803AB02AA01A902F0CDF8002899
:1033D0000AD15A48584900F0EFFF594814F010FE3E
:1033E00054480CF04DF9ECE7039A0299019801F06A
:1033F000E1FF00F0D7FE00F0ABFE142000F0BEFFAE
:10340000D02380221B0652035A625A610BF04EFFF2
:10341000002828D14B4D4C480CF016F94B4C002895
:1034200046D12000FEF7D4FF494D00F0DDFE01003B
:10343000B7280BDCB02824DDB139062906D889006D
:103440006B589F4643492000FFF760F8052001F0C4
:103450004BFDEAE74049F6E7FA218900F3E73F49E7
:10346000F1E71B21EFE7002000F092F801223C4930
:10347000383009F019FD43425841324D394BE85478
:10348000C9E70D28DFD005DC0828DCD00A2807D1E1
:103490000D21D8E71B28D6D07F2804D10821D2E7F8
:1034A0000928D0D0D2E70300203B5E2BCBD9CDE753
:1034B000200000212C4A20C003F04EFA0122524283
:1034C000D317226163618423E25004330121E25067
:1034D00023002548A160E167F033201819609A6045
:1034E000DA6074338342F9D10025002000211F4B9C
:1034F0006122E5500433E31803C31D4B2900E55056
:103500001C4BE5541C4BE01803F026FA1B4B29001A
:10351000E018102203F020FA194B2922E0182900A4
:1035200003F01AFA174B0848E550174BE5540CF016
:10353000A7F876E7F837002088070200C8A5011031
:10354000850300106C140020F437002010240020A4
:10355000E8B20110E9030000EA030000EB030000F9
:10356000FCA501106D060000880E00008C0E000006
:10357000980E00009C0E00009D0E0000FE0E000044
:103580000E0F0000380F00003C0F000001207047B4
:10359000002801D1014870470020FCE7E81A00200C
:1035A00001207047002801D1014870470020FCE746
:1035B000A01D00200EB4F0B582B008AB01936B469D
:1035C000D02480278025DE1C36232406AD01FF0190
:1035D00033703100A7610122A5610A4816F0D8FDB9
:1035E000019B65611B6801223370310067610548EA
:1035F000A56116F0CDFD656102B0F0BC08BC03B05A
:103600001847C04600000440F0B5CE4647461E00AD
:10361000D024802380B5240683B09B018025A3613C
:103620000F002A23694681469046ED010122A561DB
:10363000013126480B7016F0ABFD40464B46011297
:103640001A12DBB21B02D2B2C9B209041A430A43EE
:1036500003061A43656101A901921C48042216F071
:1036600097FD2B236A46A56193706B460122991C36
:10367000164816F08DFD3B123212FFB23F02DBB24C
:10368000D2B212043B43134336063343656104222E
:103690000E4801A9019316F07BFD0A9BA561002B42
:1036A00012D02C236A46D3706B460122D91C0748DE
:1036B00016F06EFDD02380221B06D2015A6103B0A2
:1036C000C0BCB946B046F0BD2E23EBE70000044075
:1036D000F0B54E4657464546DE46E0B593B00E007F
:1036E0001C9907008946BD490A9088460024095F55
:1036F00007920D93814200DCC1E0B9480990002493
:10370000005FB04200DCBAE04C466243D21900D5FB
:10371000B5E06343F34200D5B1E0F443E41734402D
:103720002500FC43013AE4173C40914200DC4A1E6C
:103730005B19013B984200DCA8E01D990EA8091412
:1037400001721D99091241721D99817211A98A464F
:1037500050461E99091401701E99091241701E9954
:1037600081700121200000912900FFF74DFF0D9A83
:10377000002A7FDD0798030053430B931E9B013300
:1037800000D185E04B46002B74DD0023C3461D00AD
:103790000200C846340046440E950696250046466B
:1037A000079B0592D71A0C972B000135002B54DB91
:1037B000099B00229B5EAB425CDB079B002B4CDD30
:1037C0000C9B0B9A1900013A0A9B0492089500225F
:1037D0009146002B00DAD7E007200127049A1C004D
:1037E000521A024097404A46D51ACA1090464A4695
:1037F0000393C1460292B8462F005D468B4607E010
:1038000003225146774816F0C3FC3B199E4212DD55
:103810000022AB5E0134A342F7DB4A461F9B9B5C50
:1038200042461A42ECD003226E4810A916F0B0FCB2
:103830003B199E42ECDC029B59469946AB4600225E
:10384000039B4E4502DD4846721E121A0133D318FF
:10385000059A01319142BAD1089D069B9D42A3D1A0
:10386000079B059A0E9DD2180D9B0135B046069E0A
:10387000AB428FD1D02380221B0692015A6113B034
:10388000F0BCBB46B246A946A046F0BD431E54E775
:103890004B46002BEEDD002300271D000590059B05
:1038A000079A0F959B1A9B464B46F4185B464D466C
:1038B000C34608940E9333000136002B4BDB099B63
:1038C00000229B5EB342D5DB0B9A0E99013A069219
:1038D000079A0A9B002A3EDD0C96002B6ADB002229
:1038E0000292069A1C00501A0722024001209040C2
:1038F000029A0391D61ACA10B14690465E46834694
:1039000004930022B35E0134A34212DB42461F9BA4
:103910009B5C5A461A422DD150467A78B9783B784A
:10392000017042708370514603222E4816F030FC1D
:1039300003374B461B199D42E3DC029AB3460399B9
:10394000049B95421CDC00220133D318059A0131F7
:103950009142C2D10C9E089BB342ACD1059B079A01
:10396000A9469B180F9D05930D9B0135D846AB4288
:1039700095D17FE7032210A91A4816F009FCD7E772
:1039800010006A1E121ADFE7F218501E1043C0170B
:10399000002402409A4201DDD41A013C581C24182C
:1039A000D01A9A4200DC012081462300864200DDC5
:1039B00012E74DE7EA18501E1043C0170240D01A14
:1039C0000400934200DB012402940138934200DB9F
:1039D00000200133C318A54283DCB7E7A03B0020D9
:1039E000A23B00200000044070B5D02480250022B6
:1039F00000210F2000F08EFC2D0224060022012160
:103A00000F2000F087FC65610021114801F0F6F9F4
:103A1000002200210F2000F07DFC012200210F2058
:103A200000F078FCA5610021094801F0E7F90022C7
:103A300000210F2000F06EFC002201210F2000F079
:103A400069FC65610021034801F0D8F970BDC046EA
:103A500010270000400D0300F0B583B0FFF7C4FF4E
:103A6000A022FE4B52001A80FD4BD0241A806A46D9
:103A7000E02380268025D3716B462406AD01F60134
:103A8000A661D91D0122A561F64816F081FB002729
:103A90006B466561D91DDF7101226661F148A56140
:103AA00016F076FB6A4603216561D171694666614D
:103AB0000122A5610731EB4816F06AFB694609202F
:103AC00065610122C87166610731A561E54816F09C
:103AD0005FFB082368466561C11DC37101226661F1
:103AE000E048A56116F054FB684616226561C11DC9
:103AF000C27166610122A561DA4816F049FB6A4687
:103B00000A216561D171694666610122A5610731AB
:103B1000D44816F03DFB3F236A466946656107318C
:103B2000D371D04866610122A56116F031FB78237C
:103B30006A46694665610731D371CA4866610122E8
:103B4000A56116F025FB4C236A466946656107317D
:103B5000D371C44866610122A56116F019FB69465C
:103B60000922656107310A70BE486661083AA5619D
:103B700016F00EFB6A460A206561D07168466661E0
:103B8000C11D0122A561B74816F002FB6A46082153
:103B90006561D171694666610122A5610731B1484D
:103BA00016F0F6FA6A4616216561D17169466661BA
:103BB0000122A5610731AB4816F0EAFA1A236A46DA
:103BC000694665610731D371A64866610122A56126
:103BD00016F0DEFA69460F2065610122C871666140
:103BE0000731A5619F4816F0D3FAE1236946656164
:103BF0000122CB719B48A6610731A56116F0C8FA76
:103C0000694665610122CF71964866610731A561F9
:103C100016F0BEFA6946162065610122C871666118
:103C20000731A5618F4816F0B3FA1923694665611B
:103C30000122CB718B4866610731A56116F0A8FAA5
:103C40006946032365610122CB71864866610731AD
:103C5000A56116F09DFA6B460F2165610122D971AD
:103C600080486661D91DA56116F092FA0523694660
:103C700065610122CB717B4866610731A56116F051
:103C800087FA3223694665610122CB717548666106
:103C90000731A56116F07CFA45236946656101226A
:103CA000CB71704866610731A56116F071FA462341
:103CB000694665610122CB716A4866610731A56179
:103CC00016F066FA0423694665610122CB716548E6
:103CD00066610731A56116F05BFA0E2369466561DE
:103CE0000122CB715F4866610731A56116F050FA79
:103CF0000D23694665610122CB715A48666107311F
:103D0000A56116F045FA3523694665610122CB713C
:103D1000544866610731A56116F03AFA37236946BF
:103D200065610122CB714F4866610731A56116F0CC
:103D30002FFA6B460F226561D91DDA714948666119
:103D40000E3AA56116F024FA6A46C0236561D37164
:103D50006B46A661D91D0122A561424816F018FAEA
:103D60006A4617236561D3716B466661D91D0122CE
:103D7000A5613C4816F00CFA6A4615236561D371BB
:103D80006B466661D91D0122A561364816F000FA1E
:103D90006A46C1236561D3716B46A661D91D0122B4
:103DA000A561304816F0F4F96A4641236561D37184
:103DB0006B466661D91D0122A5612A4816F0E8F913
:103DC0006A46C5236561D3716B46A661D91D012280
:103DD000A561244816F0DCF96B466561D91DDF71D9
:103DE000012266611F48A56116F0D2F96A461223C6
:103DF0006561D3716B466661D91D0122A5611948C1
:103E000016F0C6F96A4680236561D3716B46666118
:103E1000D91D0122A561134816F0BAF96A46362168
:103E20006561D1716946A6610122A56107310D481E
:103E300016F0AEF948236A46694665610731D371C9
:103E4000084866610122A56116F0A2F93A236A4684
:103E5000694665610731D37106E0C046A03B00208A
:103E6000A23B0020000004409848A6610122A56101
:103E700016F08EF966236A46694665610731D3718B
:103E8000924866610122A56116F082F9B0236A4664
:103E9000694665610731D3718C48A6610122A5612D
:103EA00016F076F96A46694665610731D771874829
:103EB00066610122A56116F06BF9B1236A46694675
:103EC00065610731D3718148A6610122A56116F0B1
:103ED0005FF9A0236A46694665610731D3717B4863
:103EE00066610122A56116F053F921236A466946ED
:103EF00065610731D3717548A6610122A56116F08D
:103F000047F9B4236A46694665610731D3716F4842
:103F1000A6610122A56116F03BF96A46022165619E
:103F2000D171694666610122A5610731674816F0C3
:103F30002FF9B6236A46694665610731D371634834
:103F4000A6610122A56116F023F96A460221656186
:103F5000D171694666610122A56107315B4816F09F
:103F600017F96A4602216561D171694666610122CD
:103F7000A5610731554816F00BF93B236A4669469F
:103F800065610731D371514866610122A56116F060
:103F9000FFF8B7236A46694665610731D3714B481C
:103FA000A6610122A56116F0F3F8C6236A466946A8
:103FB00065610731D371454866610122A56116F03C
:103FC000E7F8E9236A46694665610731D3713F48DE
:103FD000A6610122A56116F0DBF86A4669466561B3
:103FE0000731D771394866610122A56116F0D0F812
:103FF000F7236A46694665610731D3713348A66184
:104000000122A56116F0C4F8A9236A4669466561D4
:104010000731D3712D4866610122A56116F0B8F809
:1040200051236A46694665610731D3712748666145
:104030000122A56116F0ACF82C236A466946656139
:104040000731D371214866610122A56116F0A0F8FD
:1040500082236A46694665610731D3711B486661F0
:104060000122A56116F094F811236A46694665613C
:104070000731D37115480122A661A56116F088F8B1
:104080007820656100F030FF29236A466946D371C4
:1040900007310122A6610D48A56116F079F8782054
:1040A000656100F021FF6A463623D3716B46A66135
:1040B000D91D0122A561054816F06AF848220121A0
:1040C00036206561FFF776FA03B0F0BD00000440CA
:1040D00070B50A2000F052F90B2000F04FF90C20C7
:1040E00000F04CF90D2000F049F90E2000F046F9DF
:1040F0000F2000F043F9D02480232406DB00636204
:1041000080231B016362802680238025DB01B601AA
:104110002D0266620C4963620C48656204F0DEF9A8
:1041200001210A2000F0DEF801210B2000F0DAF86E
:1041300001210C2000F0D6F801210C2000F0FCF841
:104140006661656170BDC04640787D010000044035
:1041500010B5FFF7BDFFFFF77FFC0B4B0B4C1A6848
:104160000B4B1178527819800A4B1A800A4B0020A9
:10417000185E01F011FDFF22084B12021A600022A6
:10418000074B20701A6010BDE41D0020AA3B0020E0
:104190009E3B00209C3B0020A03B00206C3B00206D
:1041A000683B002010B50321072000F09BF8032195
:1041B000062000F097F80949094804F0F9FB0022AD
:1041C0000121072000F0A6F800220121062000F0BE
:1041D000A1F80122034B1A7010BDC0461027000041
:1041E000701E0020A63B002030B587B000236A4631
:1041F000D38209331375324B1B78002B3AD000F071
:104200009DFF00232F4A304C80185941002935DB8F
:1042100000230290039100931F212000013305AA7F
:1042200004F0EEFB033043D8102000F05DFE00F0F8
:1042300085FF0023234A80185941002922DB0025ED
:1042400016220290039102231F21200000956A4448
:1042500004F0F6FB03302FD86B46D88A002809D02B
:104260001A4B984216D01A4B98420FD0FF230340A6
:10427000012B12D00120404207B030BD012015496A
:104280004042C5E7012013494042D8E70122124BC2
:104290001A60EFE7104B1D60ECE7000A0300613B7A
:1042A000192BE9D80C4B1B68002BE5D06038E3E7ED
:1042B0000A4804F0F5F8DDE7094804F0F1F8D9E719
:1042C000A63B002020A10700701E0020037E0000F6
:1042D000027E0000FFFFFF7F583B002020A7011057
:1042E00040A7011010B54024074A83009A181268AD
:1042F000C0005440C0222240044C1B191A60044BD9
:10430000C018416010BDC04604C0014004D0014047
:1043100000400140064B8000C3181B68C900920092
:104320000A435A400C231340024A80180360704726
:1043300004C0014004D001408000002904D0054B96
:10434000C018022303607047034BC01802230360A8
:10435000F9E7C04604E0014004F00140054B80004D
:10436000C3181B68090159403023034A0B408018C9
:104370000360704704C0014004D001400123D022F3
:104380008340120693629361084A83009A18116869
:104390004022514080320A400549C0005B181A6033
:1043A000044BC018052343607047C04604C0014059
:1043B00004D00140004001400FB400B5084883B06C
:1043C00004F06EF8049B002B07D005A9180001919A
:1043D00003F08EFE034804F063F8012003F0A0FE12
:1043E00064A7011074A7011070B58C461600EFF396
:1043F000108472B60F490B68002BFCD0BFF35F8F9F
:104400006346DB08C5180722C05C63461A400123D7
:1044100093401A000240034207D118432870BFF3AB
:104420005F8F0A6084F3108870BD61463000FFF72B
:10443000C3FFC0462C0100D0F8B5CE4647468C4697
:1044400080B51C00EFF3108872B61C490B68002B76
:10445000FCD0BFF35F8FA24221D80723994602E028
:104460000132944218D34946012611408E40D308A8
:10447000C718C35C1E42F3D1100033433B70BFF337
:104480005F8F00220D4B1A6088F3108800280EDB26
:10449000C0BCB946B046F8BD01204042EFE7BFF3CB
:1044A0005F8F00230B6088F3108801204042634631
:1044B000002BEDD00898FFF77FFFC0462C0100D0FD
:1044C000044A1078431CDBB2172B00D91023137059
:1044D0007047C046E81D00200021044B044ABFF38A
:1044E0005F8F02C39342FAD17047C046000100D0EB
:1044F000800100D0084B094A1360094A1360094A39
:104500001360094A1360094A1360094A1360094A93
:104510001360094A136070478080808000E400E0E7
:1045200004E400E008E400E00CE400E010E400E053
:1045300014E400E018E400E01CE400E01F2318404D
:104540001E3B8340002905D0C021044A4900535036
:1045500013607047802201498B50FAE700E100E0C8
:1045600070B50D00EFF3108672B60F4A1368002B7A
:10457000FCD0BFF35F8F0D4B10309B6884001B593C
:104580000B4A934203D09D4201D001F0D9F9074B69
:104590009B681D51BFF35F8FBFF35F8F0022024BFB
:1045A0001A6086F3108870BD240100D000ED00E091
:1045B000C1010010F0B5DE4657464E464546E0B50F
:1045C000824683B08B461700EFF3108872B6604ABC
:1045D0001368002BFCD0BFF35F8F00255D4B5D5748
:1045E0009946002D00DA9AE04A466B005A4C5E1953
:1045F000B6000193A31900939B791370574B9A68E7
:10460000534610339B00D15899460B1B2F2B32D9A0
:10461000534B994200D098E0019B0236ED18514B64
:10462000AD006353504BA619043B9B1B4F4A1B051F
:104630005B0D651913436B804D4B0121AB80FF234C
:10464000AB715B46AB60009BEF710B4319004A46B0
:10465000424B9B689950BFF35F8FBFF35F8F00227F
:104660003B4B1A6088F3108803B0F0BCBB46B246DF
:10467000A946A046F0BD01200A008243D379B44682
:10468000BB422DD83B4BB51C190013001B1B5B41D3
:104690005943090D8C46334B6519A353324B00998E
:1046A000043B5B1B1B05314D5B0D2B4304364B80DC
:1046B000A619131F9B1B1B055B0D1D4363468B71C6
:1046C0005B468B602C4B8D80CF7113600143BEE73E
:1046D0005800C01880002018C679BE4225D90200B3
:1046E0000623D356002BF3DA9A46131D9C46234823
:1046F0006346009E9571043EF61A36051B4B760DF7
:104700001E43019B96805A1953469200A418A37128
:104710005B46194AA0802260E771A36097E701F029
:104720000FF900254B465D575EE766469A46131D16
:104730009C469088043640050015A6196044801BED
:1047400000050A4E400D3043D2E701F0F9F863E767
:10475000240100D0A93B0020EC1D002000ED00E06A
:10476000C101001000A1FFFF1C1E002000E0FFFFA0
:1047700001BDFFFFAAAA00000148804701BD00005B
:104780000123034370B59C46EFF30581EFF31085D9
:1047900072B6214A1368002BFCD0BFF35F8F1F4B0A
:1047A00004001F4AE41A64416243120D1D4C890043
:1047B000A66852B2765866451CD0062159569142D9
:1047C0001CD012215956914222D01E215956914295
:1047D00020D02A2159560324914210D0124B197827
:1047E0001A708171BFF35F8F00220B4B1A6085F343
:1047F000108870BDA3680D4C5C50EFE70024610089
:10480000091989005B18FF21997109499980E5E729
:104810000124F4E70224F2E7240100D0EC1D00207B
:10482000AAAA000000ED00E0A93B0020C101001091
:1048300001BDFFFF70B504000E001500FFF740FE3C
:104840000100200000F006F8A680E580BFF35F8F2E
:1048500070BDC046024BC918890001607047C04650
:104860004000003470B5114C114DAC420FD2FF2600
:104870002368002B0CD0FFF723FE01002000FFF778
:10488000E9FFA680BFF35F8F0834AC42F0D370BD60
:10489000FFF716FE01002000FFF7DCFF2671BFF3D3
:1048A0005F8F0834AC42E3D3F1E7C046F823002021
:1048B0001024002010B50400FFF702FE01002000C4
:1048C000FFF7C8FFFF232371BFF35F8F10BDC04602
:1048D0000A4B1968EFF3108072B60A68002AFCD000
:1048E000BFF35F8F1B68BFF35F8F00221A6080F3F6
:1048F000108840BF002000217047C046903B002038
:10490000F0B5DE4657464E464546E0B585B0EFF376
:10491000058303221A40B34B91005F580123934053
:104920009B4602925A468846AF4B1A60AF4B0393A0
:104930005B46AF4843630823FE5E002E37DABB8830
:104940001BB2002B00DBA4E0BB79002B00D0E5E01C
:104950000823F95E002920DB4B007A695B18DB0035
:10496000D3189D68DC686B1C00D104E1A0480100ED
:104970004144826A0B69AE1A9B1A9E4215D30123E9
:10498000026A029883401A420FD0994800F0CEFB89
:104990008C4202DCCCD18542CAD940BF05B0F0BC04
:1049A000BB46B246A946A046F0BD0D61EDE77A6967
:1049B000730091469B19DB0099444B469C68DD6867
:1049C00000F0B4FB8D42BADC00D1F6E0002D00DA35
:1049D000DBE04A464B4652691B699246039A934272
:1049E00000D1CCE04A460821785E52880004514646
:1049F00010439847009001910099019A0B001343CE
:104A000000D1C2E013000A00002B00DBD9E0200037
:104A10002900801A99414B469860D96000229B5E1C
:104A2000002B00DA8BE75D007C69EA18D200A2183F
:104A300000949468D268A2468A4200DD7FE702D1E2
:104A4000844200D97BE70824A4463B81BC44009CF7
:104A500000972F006546B4463E0006E05E00F2185F
:104A6000D200A2189768D268BA468A4207DC00D101
:104A7000B4E0F318DB00E518E35E002BEEDA6646DF
:104A80004A46009F13802E80BB881BB2002B00DAA1
:104A90005AE73A69EFF3108172B61368002BFCD025
:104AA000BFF35F8F0123BE885B42BB8036B23B6998
:104AB000BFF35F8F00221A6081F31088002E00DAA6
:104AC00042E73B0008333A0099467D6973009B1921
:104AD0000824115FDB004846EB18002913DB9C68B3
:104AE0000093A446DC6806E0A34240D00023F95EB0
:104AF0003800002906DB4F007F18FF00EF19FB6824
:104B0000A342F1DD009B068000201E5E1980002E6E
:104B1000DCDA1700BB79002B00D119E70023BB7149
:104B20000823F95E4B1C00D137E73D000835AC4641
:104B30007C6903E084464B1C00D109E74B005B18FD
:104B4000DB00E0180A00E15E43881BB2002BF1DABB
:104B500001256D42EE178560C66008257B5F934294
:104B6000E9D0634619803B8903803A81E3E7BB685B
:104B70006345BBD9C6E7631C00D0F7E605E753469B
:104B800050461B699847002823D14B461B883A6939
:104B90003B81EFF3108372B611680029FCD0BFF39C
:104BA0005F8F49467A880A803A697E80BFF35F8FBB
:104BB0000021116083F31088C1E6844200D805E724
:104BC000BDE60B4800F0B2FA009B019CC0186141A1
:104BD00021E753460CCB009201930DE7824500D8A4
:104BE00047E74CE77C3B00203C7005400149001042
:104BF0000040054070B52D4C2569002D04D00A21D8
:104C00002B48FFF727FE70BD2A4E0321294800F0EC
:104C100083FAE660FFF754FC274B0322C018D02329
:104C200022701B061B6801216370244B8000A36067
:104C30000F2320610220638063694942A1801980AB
:104C40000231198647311D83585218315A52753234
:104C50005C39995218320131995218320131995206
:104C6000183201319952083518329D5202311832EA
:104C70009952183201319952183201319952183231
:104C80000131995218320131995218320131995239
:104C90000B4B0C49DC6001303562FFF761FC0121F0
:104CA0000320FFF74BFC084B1D60A8E7341E0020D3
:104CB000903B00200040054040000034FFFF100002
:104CC0007C3B0020014900103860054070B582B07F
:104CD0000092019301000269EFF3108472B6136829
:104CE000002BFCD0BFF35F8F0223C85E0D69002844
:104CF0003FDB4A69430016001B18DB00D218F35A49
:104D00004B80BFF35F8F00232B6084F31088069BDA
:104D10001361079B5361009B019C9360D46053888F
:104D200001335B045B0C1D1C002B20D0ACB20304D0
:104D3000558023430D69EFF3108C72B62C68002C5C
:104D4000FCD0BFF35F8F8C88148088800A69BFF322
:104D50005F8F002010608CF310880A78013090403B
:104D6000CA68084952181060180002B070BD0125C9
:104D7000DCE7BFF35F8F00232B6084F31088013BD7
:104D8000F2E7C0463C20000010B543890A14934264
:104D90001ADD53009B184269DB00D3180469EFF356
:104DA000108C72B62268002AFCD0BFF35F8F5A883D
:104DB000090494B2090C8A4208D00369BFF35F8FDB
:104DC00000221A608CF31088002010BD094A22438B
:104DD0005A80012302698371BFF35F8F0021116044
:104DE0008CF31088027804499340C268012052185D
:104DF0001360EAE70080FFFF3C200000F0B5C646E4
:104E000000B582B004000D0000F098F924184D415F
:104E1000002D02DA01242F4D644206267642F71750
:104E200036196F41AF4214D811D000F087F9320023
:104E30003B00121A8B41002B15DC002B46D02000C2
:104E4000290000F0BBF902B080BCB846F0BDA64214
:104E5000EBD90026002700F071F932003B00121A4E
:104E60008B41002BE9DD00F069F932003B00121A9A
:104E70008B41002B0ADB00230193174B3200009378
:104E800016483B00FFF722FF0130D8D0002339003D
:104E9000B0469C46124A1348536A994204D8966A0F
:104EA0004645CCD29942CAD10668EFF3108772B654
:104EB0003368002BFCD0BFF35F8F0368BFF35F8FB5
:104EC00066461E6087F3108820BFE5E7002AB6D04B
:104ED000C9E7C046FFFFFF7FD1480010341E002005
:104EE00000400540903B0020F0B5C64600B582B0BA
:104EF000040000F023F9FA2206000F00200000232E
:104F00000021920001F094FC8019794104000D1EEB
:104F100002DA01242E4D644206267642F71736192E
:104F20006F41AF4214D811D000F008F932003B00B5
:104F3000121A8B41002B15DC002B46D020002900D3
:104F400000F03CF902B080BCB846F0BDA642EBD9F7
:104F50000026002700F0F2F832003B00121A8B41C5
:104F6000002BE9DD00F0EAF832003B00121A8B4119
:104F7000002B0ADB00230193164B320000931648E6
:104F80003B00FFF7A3FE0130D8D000233900B04624
:104F90009C46124A1248536A994204D8966A46457A
:104FA000CCD29942CAD10668EFF3108772B6336843
:104FB000002BFCD0BFF35F8F0368BFF35F8F6646A3
:104FC0001E6087F3108820BFE5E7002AB6D0C9E746
:104FD000FFFFFF7FD1480010341E00200040054035
:104FE000903B0020F0B5CE46474680B504000D004A
:104FF00085B0EFF305868946002E10D03649002093
:105000004B6AAB4206D38A6A5B1B591E8B41A24294
:105010004041184305B0C0BCB946B046F0BD2F4F63
:10502000FB683A7898461800039200F07FF8039ADC
:10503000131D42469B009B5822001B1A9C462B00C6
:10504000121A8B419E4210DC0DD020BF224A002054
:10505000536A4B45DED3926A5B1B591E8B41A242B9
:1050600040411843D6E79445EFD900F067F8220095
:105070002B00121A8B41002B1BDB00230193184BD2
:105080002200009338002B00FFF720FE002810DDDF
:10509000114B5A6A4A451CD39B6AA34217D301009D
:1050A0003800FFF771FE0C4A0020536A4B45B1D31C
:1050B000D1E7094A0020536A4B45ABD30020926ADE
:1050C0005B1BA24240415A1E93411843A2E74A4546
:1050D000E5D120BFE3E7C04600400540341E002074
:1050E000D1480010036808499C464A6A436800207A
:1050F000934207D89B1A5A1E93416246896A91428D
:10510000404118437047C046004005400CC001486C
:105110007047C046E550001010B5024A0248FFF73C
:1051200063F910BD78A701102C3B00200300416AF1
:105130000A00986A596A8A42FAD17047034B596A41
:105140000A00986A596A9142FAD1704700400540B6
:1051500070B505000E00184A536A1900946A536A24
:105160008B42FAD1200019002C00350024184D4143
:10517000AB4216D813D0104B2A005B6A9D4203D96C
:105180000D494B6A9342FCD3934207D10A4A02E08D
:10519000516A994202D1916AA142F9D370BDA042ED
:1051A000E9D9054B5B6A1C005A1CEFD0012201248F
:1051B0006442E5175242E3E700400540064A536A5D
:1051C0009942FCD807D1044B02E05A6A914202D1BD
:1051D0009A6A9042F9D8704700400540F8B5DE461B
:1051E0004E4645465746E0B505008B4618000A99DD
:1051F000914600F0F9FC0A9B6C001E026419304BCA
:10520000A400E418636880469E4200D966602F1FA0
:10521000FBB29A46012B2FD9C0238022294FAD0023
:105220009B0179591201E3181A6000291BD14B46E2
:1052300022685B015340E022134080225201A218F1
:1052400013605346012B2FD9802380229B01E31842
:1052500012011A60434666607B51F0BCBB46B24601
:10526000A946A046F8BD786900F0BEFC01304300B5
:105270001B18033BFDD2DAE75B46012BCCD1C023E0
:1052800003229B01E3181A60023AA3681A42FCD079
:105290004A46236852015A40E023134080225201BB
:1052A000A218084F1360AD005846032321684140FF
:1052B0000B40136001228240A3681A42FCD0C3E76E
:1052C00000800040303B0020F0B5D6464F464646B1
:1052D000440098462418324BA400E41863688A46B8
:1052E0009146C0B5FF2B02D880235B006360061F88
:1052F000F6B2012E2FD9C02380222A4F85009B01B0
:1053000079591201E3181A6000291BD14B46226813
:105310005B015340E022134080225201A218136027
:10532000012E30D9802380229B01E31812011A60DC
:1053300080235B00636043467B51E0BCBA46B146C4
:10534000A846F0BD786900F04FFC013043001B18FF
:10535000033BFDD2DAE75346012BCCD1C023032215
:105360009B01E3181A60023AA3681A42FCD04A462D
:10537000236852015A40E023134080225201A218B0
:10538000084F1360850050460323216841400B40BD
:10539000136001228240A3681A42FCD0C2E7C046D3
:1053A00000800040303B0020014B8000C058704717
:1053B000303B0020F0B5C64600B55B4B15005A687F
:1053C00084460F0082B0FF2A02D8802252005A6021
:1053D0000322564B54481A60012382681342FCD0C2
:1053E000202201685140C0320A4051490A600268D7
:1053F0004D485A40032313400B6002238268134236
:10540000FCD0802280264B4B12011A604A4C4B4B39
:10541000760046606246636101213B004848009582
:10542000E04600F0E5F929004046794300F0DCFB56
:10543000444B05005A68FF2A00D85E608022424B28
:1054400012011A602169002907D0606900F0CCFBC5
:10545000013043001B18033BFDD2E023394A3B488F
:1054600011680B40036002231168594001330B405F
:105470000421036093681942FCD08021344B090158
:1054800019608021334B490051602361264B5A68D3
:10549000FF2A00D8596003220121244B1A60224AB6
:1054A00093681942FCD0E023106803402048036051
:1054B000126803234A40022113401B4A0360936889
:1054C0001942FCD080211B4B090119608021224B1D
:1054D0004900516065615A68FF2A00D859608022EE
:1054E0001E4B12011A60A169002907D0606900F003
:1054F0007BFB013043001B18033BFDD240231649C0
:105500000A685A40A0331340154A13608022154B95
:1055100012011A6080235B004B60084BA36102B04C
:1055200080BCB846F0BDC0463C8000403CB0004066
:105530003C9000403CA00040303B0020006CDC026E
:10554000008002403080004030B000403090004089
:1055500030A00040001BB7004880004048B0004029
:105560004890004048A00040F0B545468046A02045
:1055700057464E46DE461C00984B400081469A46F0
:10558000E0B585B0019102920394954B9A4509D9F3
:1055900001235B429944934B9A444B460F2BF4D121
:1055A00000208EE00725904C54442F006F432000CC
:1055B000390000F019FBAB466E1E404553D07543D1
:1055C000200029002F0000F00FFB80455CD04346EF
:1055D000751EA8461D005B46FF1A3900200000F02A
:1055E00003FB85425DD0B31E9846022E00D1BAE07F
:1055F0005B46FF1A3900200000F0F6FA854267D0BA
:10560000F31E9846032E69D05B46FF1A390020002E
:1056100000F0EAFA854200D176E0331F9846042E66
:1056200000D178E05B46FF1A3900200000F0DCFA78
:10563000854200D17EE0052E00D180E05B4620004F
:10564000F91AA84600F0D0FA06258045ADD1002908
:10565000ABD1CA460199D946029A039C053D28E080
:105660002B00454698463900200000F0BDFA00297D
:1056700000D1A4E06E1EAB467543200029002F0028
:1056800000F0B2FA8045A2D13900200000F0ACFA57
:1056900000299CD1CA463500D9460199029A039C3B
:1056A00007E000299FD1CA464546D9460199029A8A
:1056B000039C50464D4B43430B604B460120136007
:1056C000256005B0F0BCBB46B246A946A046F0BD79
:1056D0000029E8D0F31E9846032E95D10323092113
:1056E00020000927984600F07FFAA842B8D003238B
:1056F000062120009B460226033F00F075FA8542F2
:1057000048D00123984666E70029CCD0331F98463D
:10571000042E00D086E723099D4256D00C27200096
:105720003900B346013E00F05FFA854232D00223D1
:10573000984650E70029B6D0052E00D07EE7192103
:105740002000192700F050FA85422DD014212000A6
:10575000053F00F049FA854217D005239B46023BDE
:105760000426984637E7A846A1088D4214D0610860
:105770008D421CD0444500D00AE70123CA460125CA
:1057800099460199029A039C93E70523A8469B46F4
:10579000042679E7A84677E70223CA4602259946F8
:1057A0000199029A039C84E7A84605255BE702233A
:1057B000CA46012599460199029A039C79E7CA468F
:1057C0000199A946029A039C73E70423CA461D0067
:1057D00099460199029A039C6BE7C04650262F0018
:1057E00050F80C0020D1FFFFB0710B00001BB70078
:1057F000F0B5C646040000B52348160098460D00D3
:1058000000F0F2F90100300000F0EEF94346069A8C
:105810001B04120313439C4623680600002B22DB63
:105820001A4B1B48E218531E9A4180235242120B16
:105830009B011203D218174B1A60174B1A60130002
:1058400001688B43FBD12122144B2560E318A6602D
:105850001A602268002AFCDA6246E26008221A60B6
:1058600080BCB846F0BD3F2322681340AB42D7D17D
:10587000A3681B051B0D8342D2D1EE22E368D2023E
:1058800013406345CCD1EBE7001BB7000040FDBFE0
:1058900008C0004000E0004000F00040043000007C
:1058A0008023024A9B000B43D3627047008005406F
:1058B000002310B50100988A1B8B984710BDC04685
:1058C000162310B5010018885B88984710BDC046A4
:1058D000F8B54746CE4680B50F1E18D0142399461A
:1058E000043304000025012698464B461888434699
:1058F00021681B88984701C4431E98410135064022
:10590000AF42F2D13000C0BCB946B046F8BD012666
:10591000F8E7C046AA23064A1B0113608D235B00EB
:10592000D3600449044B19605368002BFCDA7047BC
:105930000040024000B0FA00006002407047C046DC
:1059400010B50148FEF738FD9CA7011070B5074D52
:10595000074EB54209D20024013E761BB608013637
:1059600008CD01349847B442FAD170BD20A201108D
:105970005CA20110054B064A06491A60064A074B0D
:105980001A6010000B689843FBD1704700E000409C
:10599000BFCDFBFE08C00040FE7F3C0000F0004091
:1059A000044BDB6C002B03D18022034BD2021A6024
:1059B0007047C046000011504C201150044A054B5E
:1059C0001A60054A1368DB018033FBD17047C0467B
:1059D000FFFFFF0100F0004008C000404022034BE1
:1059E0009A675A671A67DA667047C04600F0014046
:1059F00010B5FEF771FD10BD70B52849284D294E30
:105A00006D1AAC102200302C00D9302230009200E8
:105A100000F0A8FFBC2D3DD823002A3B224A052BCD
:105A20001DD9302075196D07A446001BEB0F002D02
:105A300003DA611C8C46A1007250C01AE3189B0067
:105A40004108F318C900C9181A605A60083399420E
:105A5000FAD1012303421DD0984360440400A300FF
:105A6000F250631C2F2C15D09B00F250A31C2E2C3F
:105A700010D09B00F250E31C2D2C0BD09B00F25059
:105A8000231D2C2C06D09B00F250631D2B2C01D023
:105A90009B00F250054B9E6070BDC0460001001097
:105AA000C001001000000020C101001000ED00E066
:105AB000002310B5294C82B0A367FFF72BFF01220A
:105AC000274B1A60636C012BFCD10322254B1A6013
:105AD000224A936B012BFCD1013300930121224A0E
