:020000041000EA
:1000000000B5324B212058609868022188439860DF
:10001000D860186158612E4B002199600221596106
:100020000121F02299502B49196001219960352056
:1000300000F044F80222904214D00621196600F024
:1000400034F8196E01211966002018661A6600F04E
:100050002CF8196E196E196E052000F02FF8012189
:100060000842F9D1002199601B49196000215960AB
:100070001A491B48016001219960EB211966A021F2
:10008000196600F012F800219960164914480160C1
:100090000121996001BC002800D000471248134993
:1000A000086003C880F30888084703B5996A0420EC
:1000B0000142FBD001200142F8D103BD02B5186610
:1000C0001866FFF7F2FF186E186E02BD00000240BE
:1000D000000000180000070000035F00212200005C
:1000E000F4000018222000A00001001008ED00E03C
:1000F00000000000000000000000000074B24E7A12
:1001000000000420F7010010CB010010CD01001009
:10011000C9010010C9010010C9010010C901001077
:10012000C9010010C9010010C9010010CF01001061
:10013000C9010010C9010010D1010010D301001045
:10014000C1010010C1010010C1010010C101001067
:10015000C1010010C1010010C1010010C101001057
:10016000C1010010C1010010C1010010C101001047
:10017000C1010010C1010010C1010010C101001037
:10018000C1010010C1010010C1010010C101001027
:10019000C1010010C1010010C1010010C101001017
:1001A000C1010010C1010010C1010010C101001007
:1001B000C1010010C1010010C1010010C1010010F7
:1001C000EFF30580103800BE00BE00BE00BE00BECA
:1001D00000BE00BEF2EB8871906E0110B06E01108F
:1001E0003802001090A31AE71E481F49086006C88D
:1001F00081F3088810471D480068002801D019487D
:10020000F3E70DA40ECC002902D000F012F8F9E7B4
:100210001749184A002000E001C19142FCD116495B
:100220008847164988471649884700BEFDE701C937
:1002300001C29A42FBD37047B06E0110C00000208B
:1002400004240020F4910110000004200000042088
:10025000F4910110000003200000032000000000C2
:10026000704700000000000008ED00E0000000D032
:1002700004240020DC3B0020F9A90010C95D001017
:10028000F1A90010F8B5C0460448054B10B58342EB
:1002900003D0044B002B00D0984710BD042400204D
:1002A000042400200000000006480749091A8B10AA
:1002B000C90FC91810B5491003D0044B002B00D04A
:1002C000984710BD042400200424002000000000F2
:1002D00010B5074C2378002B09D1FFF7D5FF054B4C
:1002E000002B02D0044800E000BF0123237010BDA2
:1002F000103700200000000018440110054B10B515
:10030000002B03D00449054800E000BFFFF7CCFFF5
:1003100010BDC04600000000143700201844011032
:1003200070B504AC26780F24D5172C40A4182411DE
:10033000132C1DD8A325CA1D6D00AA4218D80D4D37
:10034000021956551D78002D12D00722CE173240C3
:100350005118A2001219D2000332C91080185B1A7A
:1003600001E0282904D0013145545D5C002DF8D10D
:1003700070BDC046440600007047C0467047C04686
:10038000C9239B0070B5041DC5180600AC4207D0F8
:10039000200028222021283408F04AFFA542F7D166
:1003A000054BF01814339C466644B04203D0142227
:1003B000002108F03DFF70BD44060000F0B557462F
:1003C0004E46DE464546E0B5DC4CDD4BA54499463D
:1003D000031D98460A93CB23DB00C71881444C4683
:1003E00000268246BB46D74B0B935246D64BD35C76
:1003F000002B0FD1C8230A989B0001009C4628229D
:10040000614413F075FC002804D12278237D9A42C0
:1004100000D1B9E0A0220021920012A808F008FF44
:10042000CA4B00251F6853460E934B460F93434615
:1004300010935B460C940D9611930A9B5A5D130022
:100440003733DBB2322B03D80B999B00CB589F4636
:100450001300203B5E2B00D866E20F230993013B7B
:100460000893013B0793013B0693033B0593013B34
:100470009846013B9946013B9A46013B9B46002327
:100480000B240A2604229C466020BA5C0EA9091897
:100490004A555A462830BA5C0EA909184A555246A0
:1004A0002830BA5C0EA909184A554A462830BA5C69
:1004B0000EA909184A554246BA5C4EA94A55059AF2
:1004C0005030BA5C0EA909184A55BA5D28300EA9F9
:1004D00009184A553A5D28300EA909184A55069A56
:1004E0002830BA5C0EA909184A55079A2830BA5C18
:1004F0000EA909184A55089A2830BA5C0EA909189D
:100500004A55099A0EA9BA5C283009184A5562461C
:10051000002A00D1EBE128220021012B00D1EBE1E0
:10052000022B00D1F6E1032B00D1ECE1042B0AD120
:10053000F8210EAA490052180C33535528310EAA3F
:100540001033521853550135282D00D075E70E9BF6
:100550000C9C9A460F9B0D9E9946109B9846119BAA
:100560009B462378002B00D0DBE1794B794A02923D
:100570000193A022012312A90391009331000020CE
:100580000F33520005F0C0FD0A9B013428331036AA
:100590000A93A34500D028E7C9235546C8225F46E1
:1005A0009B004146E818920008F048FE3A004B468E
:1005B00013CB13C203CB03C20022634BEA54B32311
:1005C0009B009D44F0BCBB46B246A946A046F0BD88
:1005D000614B80220993614B614C0893614B624EE1
:1005E0000793013B0693614BD2000593604B9846FD
:1005F000604B9946604B9A46604B9B4600239C4655
:10060000033341E7544B80220993544B544C0893D5
:10061000544B554E0793013B0693544BD200059320
:10062000534B9846534B9946534B9A46534B9B46D4
:1006300000239C46023327E7514BEE220993514B8E
:10064000514C0893514B524E0793013B0693514B2B
:1006500092000593013B98464F4B99464F4B9A4663
:100660004F4B9B4600239C4603330DE74D4BDC224A
:1006700009934D4B4D4C08934D4B4E4E0793013B08
:1006800006934D4B92000593013B98464B4B994680
:100690004B4B9A464B4B9B4600239C460333F3E659
:1006A000494BD0220993494B494C0893494B4A4E38
:1006B0000793013B0693494B92000593013B9846F3
:1006C000474B9946474B9A46474B9B4600239C46CF
:1006D0000333D9E63C4BD02209933C4B3C4C089366
:1006E0003C4B3D4E0793013B06933C4B92000593D8
:1006F000013B98463A4B99463A4B9A463A4B9B46B1
:1007000000239C460233BFE6384BCA220993384B7C
:10071000384C0893384B394E0793013B0693384BBE
:1007200092000593013B9846364B9946364B9A46C4
:10073000364B9B4600239C460433A5E634FDFFFF61
:1007400044060000184401106C060000041E00203E
:10075000D5EEE4001C2918000B0400000A04000078
:10076000070400000904000006040000050400005E
:10077000040400000304000002040000010400005F
:10078000C3030000C2030000BF030000C103000058
:10079000BE030000BD030000BB030000BA0300005D
:1007A000B90300007B0300007A0300007703000018
:1007B0007903000076030000750300007303000056
:1007C00072030000710300004B0300004A030000A5
:1007D00047030000490300004603000045030000F2
:1007E0004303000042030000410300003303000004
:1007F000320300002F030000310300002E0300002D
:100800002D0300002B0300002A0300002903000031
:100810005E4BC42209935E4B5E4C08935E4B5F4E69
:100820000793013B06935E4B92000593013B98466C
:100830005C4B99465C4B9A465C4B9B4600239C461E
:10084000033321E6514BC4220993514B514C089379
:10085000514B524E0793013B0693514B9200059327
:10086000013B98464F4B99464F4B9A464F4B9B4600
:1008700000239C46023307E6CC23FF330993013B58
:100880000893CA23FF330793013B0693C623FF3324
:100890000593013B9846C423FF339946013B9A4692
:1008A000C223C824E326E022FF339B46C13BFF3B23
:1008B0009C46FF3476005200E6E53D4BD02209937A
:1008C0003C4B3D4C08933D4B3D4E0793013B0693FB
:1008D0003C4B92000593013B98463B4B99463B4B62
:1008E0009A463B4B9B4600239C460133CCE5A02215
:1008F0007821012B00D013E6082012AB5B19585465
:10090000102199541FE6102012AB5B19585428216E
:10091000995418E6102012AB5B19585408219954C9
:1009200011E62C4B2C4A22E62C4953008B462C49CD
:100930009B188A462B499B0089462B491A008846FA
:100940002A491E008C469C446146059128491C009A
:100950008C469C4461460791264918008C469B446E
:100960009C449A4499449844723BFF3B61460993E6
:10097000002375387D3A773E763CFF389C46FF3A37
:10098000FF3EFF3C069008917EE5C0461B03000039
:100990001A030000170300001903000016030000EB
:1009A00015030000130300001203000011030000F0
:1009B0004B0300004A030000470300004903000006
:1009C000460300004503000043030000420300000B
:1009D000410300001C2918009FD9BA0085FEFFFFC3
:1009E00086FEFFFF87FEFFFF88FEFFFF89FEFFFFF9
:1009F0008DFEFFFF8EFEFFFFCF2110B50400C90062
:100A000008F022FC200010BDF0B502780300303A57
:100A1000D0B209282DD858785E1C0400303CE5B2CD
:100A2000092D13D890008218987852000500303DA7
:100A3000A218ECB29F1C092C06D8DC7800202600F6
:100A4000303E092E39D8F0BD33003E0002240500A7
:100A5000A5432C2D0FD000280BD1002453019B1A45
:100A60009B009B18DB001B19D817C01A0B60C00F26
:100A7000E9E70020E7E770783038C4B2092CF8D8ED
:100A8000DC782500303DEEB2092E23D884002018F2
:100A900040002D1818790400303CE6B2092E14D815
:100AA0005B7900201E00303E092ECCD9002BCAD124
:100AB000AB005B195B00E418D0E7DE1C93009B18C9
:100AC0005B00EA1820003B00C0E70028D1D10A24CF
:100AD0006C43C3E7002CCCD164244443BEE7C0463A
:100AE000F0B5D6464F4646460400C0B5804A0F00D2
:100AF000002108F09DFB7F4BBA88236002232371FD
:100B00007B68E2801A0C1B0E63727B4B2272FB5ACD
:100B100063813B782373BB681A0A6373A2731A0C50
:100B20001B0EE2732374BB8963741B0AA3743B69B5
:100B3000002B01DA01235B421A0AE37422751A0CB6
:100B40001B0EA3757B696275002B01DA01235B42E2
:100B50001A0A8025E37522761A0C1B0EA3761B2336
:100B60006D01390063513B00183179336276994247
:100B700006D0200061221B3008F060FB7C2363510B
:100B800080225201A5585C4A3B0094467C3367445E
:100B9000BA461E00681E9F4239D15BE0D1B2100AEE
:100BA0008846110C120E9146C0B2C9B26746424641
:100BB000E2550A2294464A465A72F268D87119726E
:100BC000AC44002A3CDBD1B2100A8846110C120E4C
:100BD0009146C0B2C9B242466746E255D872280073
:100BE0004A460D3019733100225432002B00103167
:100BF00071320E33914200D175E06122E01808F0A5
:100C00001DFB28006F356E307436B2451FD0326838
:100C10006319110A62555970110C120EDA70B288FC
:100C200099701A71120A5A71B268A91D8C46002A6D
:100C3000B4DAFF22FF279146FF21FF20B846B5E72F
:100C4000FF22FF279146FF21FF20B846C3E78023FC
:100C50005B01E550002D48D00123671C3F1826009A
:100C6000012026495B423278013653405A0803403E
:100C70005B420B405A405308024052420A405340E4
:100C80005A0803405B420B405A405308024052420C
:100C90000A4053405A0803405B420B405A405308F5
:100CA000024052420A4053405A0803405B420B4004
:100CB0005A405308024052420A405340B742D2D1F0
:100CC000DB436219190A63555170190C1B0ED3705E
:100CD000802304355B012000E5509170E0BCBA46EA
:100CE000B146A846F0BD1D008EE70023E9E7C046E7
:100CF000041000004C505331880E00002083B8EDE2
:100D0000F0B55746DE464E464546E0B5CD4BCE4C97
:100D1000CB1807009246A544012B49D84318DA1E88
:100D200010781A1F1278000210439A1E013B1E7899
:100D30000123127836061204024316435B42B04682
:100D40003C009C4601203D1FC04A6D186646237832
:100D500001345E4073080640764216405E407308D8
:100D60000640764216405E407308064076421640C2
:100D70005E4073080640764216405E4073080640A7
:100D8000764216405E4073080640764216405E404A
:100D9000730806407642164073405E0803405B428B
:100DA00013405E40B446AC42D0D1F343434509D032
:100DB00000252800A64B9D44F0BCBB46B246A94680
:100DC000A046F0BDBB787A781B04120213433A7830
:100DD0001343FA78120613439E4A9342E8D17C7972
:100DE0003B7924021C43012C05D0022CE0D19A4B04
:100DF0009942DDD103E0DF231B019942D8D10021C4
:100E0000964A02A808F014FA0123012202A8844697
:100E100002A9524221938333CA500433CA509049E5
:100E20003EAB61448B46012119609A60DA607433ED
:100E30009B45F9D13B7AFA791B0412021343BA7924
:100E400002A913437A7A02A8120613430393BA7ACB
:100E5000834B0C26CA548349FB7A4354397B022CBA
:100E600057D000251E2A03D81F229A426D41EDB2A9
:100E7000BB195978BA5D090211439A7830001204FF
:100E80000A43D9780A30090611435A7989460491F0
:100E9000197912020A439046414602AA9181DA79F1
:100EA000997912020A43197A090411435A7A1206EF
:100EB0000A43511C03D06C4C511EA14259D8D97A17
:100EC00006923A5C090211431A7B5B7B12040A43C7
:100ED00031001B0613430E315A1C03D062485A1EC0
:100EE00082421CD808AC612220007918079308F0D0
:100EF000A5F9002D1CD04B46002B19D080231B01D7
:100F0000984515D2782302AAD55C6B425D41EDB2BB
:100F10000FE0012900D94BE701700136A1E7012359
:100F200008AC5B42612220007918079308F086F92B
:100F3000002502AA944679210022614491465E323E
:100F400023008846944600200DE04946002907D139
:100F500004006146203AD2B29142444162421540B7
:100F60000133434509D01A78002AEED10122914677
:100F7000F6E7012200255242A1E76F36BB19019323
:100F800002AB9C4625ABED24994621AB9846002642
:100F9000644401994B788A781B02120413430A783F
:100FA0001343CA7812061343424613604B790A79F9
:100FB0001B02134342469380CA790B7A12021B0428
:100FC0001A438B791A434B7A1B0613435A1C04D0DD
:100FD00025495A1E8A4200D97FE042460199936012
:100FE000CA7A0B7B12021B041A438B7A1A434B7B7F
:100FF0001B0613435A1C03D01B495A1E8A425DD854
:101000004246D36043464A4601999A1A484671328D
:101010000E3108F013F9002D5DD043461B68002BFC
:1010200059D04246802392881B019A4253D27023A2
:101030004246D55C6B425D41EDB24B4600215E20DD
:1010400020E0C04610F2FFFF64F1FFFF2083B8EDFF
:101050009C0E00004C505331F10D00008C0E00002E
:10106000880E0000890E00003E420F00002906D1C4
:101070003700203AD2B2904277417A42154001338C
:10108000A34206D01A78002AF0D101330121A342ED
:10109000F8D174229446019A74336F32E0441C00F4
:1010A0000192E144D84500D073E7002D00D17FE6DE
:1010B00050460C4A02A908F0C1F87AE601234246DC
:1010C0005B42D36043464A4601999A1A48467132B8
:1010D0000E3108F0B3F80025AFE7012300255B428D
:1010E0007BE7C0468A0E0000F0B5E1225D4C12019C
:1010F000A5440C000021050008F09AF85A4BA40002
:10110000E158012202A80EF005FC031FDBB2040027
:10111000012B36D9002838D1069E544B0190F71880
:10112000012F36D902A80FF055FC0443E4B2002C7D
:101130002BD100214E4A9AA808F07AF801204042AB
:10114000C1179E909F919A21012301226846890030
:10115000401852429C93B9938333C250684604337B
:101160004118CA5001214348D6AB684419609A60BF
:10117000DA6074339842F9D1012F12D902223E4B22
:10118000EA5428003D4B9D44F0BD03223A4BEA54FB
:10119000F7E73200290001AB02A80FF003F80400C2
:1011A000C0E7019BB342E9D1354B2A689A42E5D1A9
:1011B0003400AB68103C9C42E0D1AB19043B597839
:1011C0001A78090211439A78DF7812040A433F061D
:1011D0001743BC4601232F1FBF19280001262949A8
:1011E0005B42027801305A405308324052420A4072
:1011F00053405A0833405B420B405A405308324038
:1012000052420A4053405A0833405B420B405A4016
:101210005308324052420A4053405A0833405B421E
:101220000B405A405308324052420A4053405A0839
:1012300033405B420B405340B842D2D1DB439C4524
:101240009CD1280021009AAA0C30FFF759FD0028F4
:1012500000D193E70C4B6A68EA500C4BEC50064BFC
:10126000EE548EE704EFFFFF0854011000F2FFFF79
:101270008C0E0000F01000000C0E0000FC100000AE
:101280004C5052312083B8ED040E0000080E0000CF
:10129000F0B50D002D492E4C415CA5441E00040004
:1012A000002937D0DF231B019A4233D90021684639
:1012B000FFF71AFFE1231B016B4418000121FFF720
:1012C00013FF6B46234A9B5C032B23D0E120694626
:1012D000000109188A5C032A1CD0012B24D0012AA2
:1012E0001CD1E1216A461C4B09015218D358E12256
:1012F00012016A4401201100CE22D200A050174AE8
:101300002800A350164BCA580C31326007F096FFE4
:10131000012000E00220134B9D44F0BD002BF9D1C9
:10132000531E9A415000F6E70B4B00209C466B463B
:1013300061465B586946012ADED1E1273F01CA199F
:101340006746D2599A42D7D91300D0E76D060000FC
:10135000DCE3FFFF0C0E0000040E0000740600002A
:10136000080E0000241C0000F0B5454657464E46C6
:10137000DE46E0B56D4B6E4CC65C05000F00904636
:10138000A544002E00D1C6E06A4BC35C002B00D000
:10139000C1E0694B9A4200D0BDE0684B9A46C35801
:1013A000013300D1B7E066480FF050FBF723184235
:1013B00000D0B0E0CE23DB00EB5800215A425A4166
:1013C0009DA8D3B25F4A019307F032FF5E4B9D2187
:1013D0009D935346EB58890001339E93434602AADE
:1013E0005218138039004246A0A807F027FF02AB2D
:1013F0009C4601235B4298460121544F544A9DA8C4
:1014000067444446037801305C4063080C40644202
:1014100014405C4063080C40644214405C40630824
:101420000C40644214405C4063080C406442144029
:101430005C4063080C40644214405C4063080C400C
:10144000644214405C4063080C40644214406340B2
:101450005C080B405B4213405C40A0468742D0D101
:101460009B20E34380003B4A02A909188B5402AC3D
:10147000394A190A2418A154384A02AC190C241804
:10148000A1541B0E0132A354019A354B9200D1583E
:1014900004A80A220EF03EFA00283CD1294B9DA94F
:1014A0009A46039003AB524604A80EF0B3FF804661
:1014B00004A80FF02BF9814604A80FF08BFA039BC8
:1014C0009B46534524D143464A4613431843C0B272
:1014D00000281DD102AA9446224B019C63449846E1
:1014E00018002100FFF700FE42461F4BD35C012B82
:1014F0000ED15A4640469DA912F0FAFB002807D1AA
:10150000CE230E4ADB00EC50AB580133AB5003E066
:101510000122084BEA5400263000144B9D44F0BCD5
:10152000BB46B246A946A046F0BDC0466D060000C7
:1015300074E1FFFF6E060000F10D0000740600006C
:10154000F8440110010E00004C50523169100000A7
:101550002083B8EDFD0D0000FE0D0000FF0D000022
:1015600008540110701000000C0E00008C1E0000CA
:10157000F0B54E46DE4657464546E0B50668DA4CBD
:101580003368DA4A9B68A5440400934200D0D1E155
:10159000C9239B00F718351DBD4207D0280028221B
:1015A0002021283507F044FEAF42F7D1D04B14225A
:1015B0000021F01807F03CFE0C22EA2390461B01A4
:1015C000E358A044002B0BD0CA4A1F21A05CC01ACC
:1015D0001F3006F091FF74234B4380339846A0449C
:1015E0002379012B00D16BE1C34B41460968C34A03
:1015F00000911EA8802109F0ADF940220EAB9B1886
:101600001B782068002B00D197E13EAD0EAEB446AA
:10161000AA46BF2565440595F825ED003F26AC4652
:1016200083463F3A1EA91D00C23D4F1C012D00D824
:10163000C6E03900059883540B78002B00D1D2E026
:101640000132642AEFD124220EAB9C465846FF3269
:101650006244002313700368DD68A94B99469D42DC
:1016600000D0CBE00122A24BC25453461A7804307A
:101670000023002A0AD0514602E00133282B04D06F
:10168000C254CA185278002AF7D18A462379012B0E
:1016900000D1BDE09B4AA36880211EA809F05AF939
:1016A00040220EAB9B181B782068002B00D109E16B
:1016B000F825ED003F26AC463F3A1EA904901F00D6
:1016C000C23F4D1C012F00D8A4E029000598835487
:1016D0000B78002B00D1B1E00132642AEFD1242233
:1016E0000EAB9C46FF3204986244002313700268DC
:1016F000D5684D4500D0AAE07D4A82185370534604
:101700001A782C300023002A0AD0514602E0013317
:10171000282B04D0C254CA185278002AF7D18A461E
:10172000EA231B01E358002B00D19BE023792068BA
:10173000012B01D101F002FE41237349F825ED0090
:1017400001223F26AC4604901F00C23F4D1C012FD2
:1017500000D892E02900059883540B78002B00D123
:101760009FE00132642AEFD10EAB24229C46002375
:10177000FF326244049813700268D5684D4500D06A
:1017800098E05B4A8218937053461A7854300023CD
:10179000002A0AD0514602E00133282B04D0C2545B
:1017A000CA185278002AF7D18A46E9231B01E35868
:1017B000072B01D901F0CBFA544A9B00D3589F461E
:1017C0004D782800B043802800D032E760469B0166
:1017D0000340354005982B43DBB2023183540B782C
:1017E000002B00D02CE700235846524413700368A6
:1017F000DD68434B99469D4200D133E70123002227
:10180000009300215346A8472379012B00D041E7DC
:101810003F4A40E74F783800B043802800D054E773
:101820009D0163461D403B00334005982B43DBB2CE
:10183000023183540B78002B00D04DE70023524433
:10184000049813700268D5684D4500D154E70093A1
:10185000102253460021A847EA231B01E358002B1E
:1018600000D063E7E9231B01E358072B01D901F0FE
:101870006EFA284A9B00D3589F464F783800B043F1
:10188000802800D066E79D0163461D403B00334041
:1018900005982B43DBB2023183540B78002B00D028
:1018A0005FE700235244049813700268D5684D45E1
:1018B00000D166E70093202253460021A84774E731
:1018C000154B92E6524610E7EA221201A2582379FC
:1018D000002A26D02068012B01D102F012FA4323FE
:1018E0000E4902F010FAC04684FCFFFF810300108D
:1018F000440600008C0E000004450110E44C011069
:101900002103001018450110284501109C520110B8
:1019100008450110BC52011000450110644501103A
:1019200023792068012B01D102F0B9FE5423CB4961
:1019300002F0E9F9300098473EE63EAB0EA99A4620
:101940001A008C46BF236344059382E62379012B5A
:1019500001D102F0A1FEC24FF8222368D200049305
:101960004C2101233F20904608E0059AD15431785C
:1019700000296AD00133642B12D037000A00C23A22
:101980007E1C012AF1D87A7815008543802DECD190
:1019900045468901294002401143BE1CC9B2E4E713
:1019A00024230EAA9446FF336344002204991A703C
:1019B0000B68DD684D4501D002F066FEA9480B00BA
:1019C00084466344DA7053461A78002A0ED0002306
:1019D00050467C3102E00133282B04D0CA54C2188F
:1019E0005278002AF7D18246236804933F209E4B09
:1019F0008446E358F8205D425D419C4EC0000122C0
:101A000031218046B346EDB2069308E0059B995418
:101A10003978002971D00132642A18D0BB46584663
:101A2000471C0800C2380128F0D85846467863465B
:101A3000300098438028E9D140468901084061463A
:101A4000314001430137C9B2E0E75344ADE7069B9B
:101A5000013AD021890052180EA98C46844962446B
:101A60008C4600216244117004990A68D6684E457C
:101A700001D002F001FE7B480A0084466244957161
:101A800052461278002A10D000235046F43102E06A
:101A90000133282B04D0CA54C2185278002AF7D137
:101AA0008246714B2268E3580492013B5A425341EB
:101AB000F820DBB2C000012232213F2784469B463A
:101AC0006C4D08E0059B9954317800296DD00132A6
:101AD000642A14D035000800C2386E1C0128F1D8E1
:101AE00068780300BB43802BECD163468901194021
:101AF00038400143AE1CC9B2E4E7069BA9E75B4648
:101B0000013AD021890052180EA98C4658496244E6
:101B10008C4600216244117004990A68D5684D45CD
:101B200001D002F0A1FD4F480A008446624453727E
:101B300053461A78002A0FD06D3100235046FF31EA
:101B400002E00133282B04D0CA54C2185278002A6C
:101B5000F7D18246236804932579012D01D102F043
:101B600080FD4548F821C900012245233F278C46C6
:101B7000A34608E005998B543378002B6AD00132D4
:101B8000642A14D030001900C239461C0129F1D84A
:101B900041780C00BC43802CECD164469B0123406F
:101BA00039400B43861CDBB2E4E75B46A9E72422FD
:101BB0000EAB9C465C46FF326244002304991370CE
:101BC0000A68D6684E4501D002F043FD25480A0058
:101BD00084466244537353461A78002A12D08320F5
:101BE0008000844600235046614402E00133282BE4
:101BF00004D0CA54C2185278002AF7D1824623680A
:101C000025790493012D01D102F01FFD54211B4FB2
:101C1000F822D20001233F20904609E0059AD154D2
:101C20003178002900D184E30133642B28D03700B8
:101C30000A00C23A7E1C012AF0D87A781500854342
:101C4000802DEBD145468901294002401143BE1C3D
:101C5000C9B2E3E75C465244AFE7C0468C45011089
:101C6000804A011044060000940E00008C4A0110C6
:101C700080FDFFFF984A0110CC4A0110104B011063
:101C800024230EAA9446FF336344002204981A705A
:101C90000368DD684D4500D04FE39B4903008C4647
:101CA0006344DA7353461978002911D00300972052
:101CB000800084465046634402E00132282A04D062
:101CC0009954811849780029F7D1824623680493F2
:101CD0008E4BE15CE018002900D12CE3F822D20001
:101CE00001233F2590460A00C23A471C012A00D82A
:101CF000C1E03800059AD1540178002900D1CDE027
:101D00000133642BEFD124230EAA9446FF3363449E
:101D1000002204991A700B68DD684D4500D0C6E0BA
:101D200079480B00844663445A7453461A78002A53
:101D300011D0AB208000844600235046614402E06D
:101D40000133282B04D0CA54C2185278002AF7D184
:101D50008246236804932379012B00D1E3E25521C5
:101D60006B48F822D20001233F2590460A00C23A70
:101D7000471C012A00D8A2E03800059AD154017806
:101D8000002900D1AEE00133642BEFD10EAA242349
:101D900094460022FF33634404991A700B68DD688F
:101DA0004D4500D0A7E058480B00844601326344FB
:101DB000DA7453461A78002A11D0BF208000844676
:101DC00000235046614402E00133282B04D0CA545A
:101DD000C2185278002AF7D1824623680493049CE3
:101DE0004C4A23681B69934200D09FE2A022002145
:101DF0009200504607F01CFA434A230094461D1DEA
:101E000064449C4600230C93434BA0460E935346D8
:101E1000143262440A950D920F9410950B933F4B28
:101E2000049AD35C002B10D1C8230A989B000100B0
:101E30009C462822614411F05BFF002805D14346EF
:101E40001A781B7D9A4200D122E1A02200210B9832
:101E5000920007F0EDF9324B0021186843461193C8
:101E60000A9B5C5C23003733DBB2322B5AD80E9AC4
:101E70009B00D3589F4642781600AE43802E00D078
:101E800037E7464689012A4031401143059AC9B2D5
:101E90000230D1540178002900D031E700225344A8
:101EA00004991A700B68DD684D4500D138E700923F
:101EB00088220800534600215200A84749E742788B
:101EC0001600AE43802E00D056E7464689012A40D0
:101ED00031401143059AC9B20230D154017800292A
:101EE00000D050E70022534404991A700B68DD6853
:101EF0004D4500D157E701239822080000930021A7
:101F000053465200A84768E744060000170F000038
:101F1000C84C0110BD030010DC5201106C0600001B
:101F2000041E00202300203B5E2B01D802F05BFB47
:101F300006230022099303330893023B9946053395
:101F40000793023B069301330593063B9A46013BF8
:101F50009B46043398460E260D270F2500239446F2
:101F60005C46045D8822A34652000EACA4185A4673
:101F700062545246825C9C24924664000EAA121956
:101F800054465454099A0EAC825C9246B0225200D8
:101F9000A418524662544A46825C0EAC9146C42252
:101FA0005200A4184A4662544246825C0EAC9046E7
:101FB000D8225200A41842466254089A0EAC825CA1
:101FC0009046EC225200A41842466254069A0EAC87
:101FD000825C904680229200A41842466254059A80
:101FE0000EAC825C90468A229200A418424662544B
:101FF000079A0EAC825C904694229200A418424646
:102000006254C25D9E270EACBF00E4196254825D2B
:10201000A8260EACB600A4196254425DB2250EACDF
:10202000AD00641962546246002A00D158E12822AA
:102030000024012B00D158E1022B00D167E1032BD2
:1020400000D15BE1042B0AD1A8240EAAA400121926
:102050000C33535428340EAA10331219535401313F
:10206000282900D0FCE6119B98461B78002B00D055
:1020700056E1E24BE24A02920193A02201230B991E
:102080000093039100200C990F33520004F03CF8A8
:1020900001239C460C9BE04410330C930A9B28338D
:1020A0000A930D9B434500D0B9E6C923049E9B00CB
:1020B0009C463000C822109D9200290060440F9C6D
:1020C00007F0BCF80D9B07CC07C3250006CD06C35F
:1020D0000022CC4BF254DF239B009D44F0BCBB4656
:1020E000B246A946A046F0BD0022C74B94460993CC
:1020F000C64BC74E0893C74BC74F99460533079346
:10210000C64BC74D0693C74B0593C74B9A46013B39
:102110009B46C64B9846032322E70022BA4B9446BF
:102120000993BA4BBA4E0893BA4BBB4F9946053345
:102130000793BA4BBA4D0693BA4B0593BA4B9A46DE
:10214000013B9B46B94B9846022309E7B84BB94E71
:102150000993B94BB94F0893B94BBA4D994605331A
:102160000793B94B0693B94B0593B94B00229A4696
:10217000013B9B460433984694460323F0E6B54B57
:10218000B54E0993B54BB64F0893B64BB64D99462D
:1021900005330793B54B0693B54B0593B54BE5E770
:1021A000B54BB64E0993B64BB64F0893B64BB74DE9
:1021B000994605330793B64B0693B64B0593B64B3A
:1021C000D4E70022AC4B94460993AD4BAB4E089339
:1021D000AD4BAC4F994605330793AD4BAB4D0693D2
:1021E000AC4B0593AC4B9A46013B9B460433984657
:1021F0000123B5E6A04BA14E0993A14BA14F089333
:10220000A14BA24D994605330793A14B0693A14BD1
:102210000593A14B00229A46013B9B460433984606
:10222000944602239CE69D4B9D4E09939D4B9E4FE9
:1022300008939E4B9E4D9946053307939D4B0693FD
:102240009D4B05939D4B91E7944B954E0993954B70
:10225000954F0893954B964D994605330793954BAB
:102260000693954B0593954BD4E70022944B9446E7
:102270000993944B944E0893944B954F994605338C
:102280000793944B944D0693944B0593944B9A4625
:10229000013B9B4604339846042361E6E1235B003F
:1022A0000993C623FF330893C423FF3399460533AC
:1022B0000793023B0693C823FF330593C223E52609
:1022C000CA27CC250122FF339A46013B9B460433A3
:1022D0009846C43B94467600FF37FF35FF3B3FE608
:1022E000A0227824012B00D0A6E60B9D0823AC4643
:1022F00064446354624408335354B0E60B9D102386
:10230000AC4664446354624418335354A7E60B9DAF
:102310001023AC46644463546244083B53549EE625
:10232000374B704AA7E648216F481AE520009847C6
:10233000D1E65344A9E45346EAE400925346F0221E
:102340000021A847C2E4F8212068C90001234322E4
:102350003F278C468346654D0CE00599CA54327878
:10236000002A01D100F07DFF0133642B01D100F080
:10237000EEFE35001100C2396E1C0129EDD86978D6
:102380000800B8438028E8D16046920102403940F5
:102390000A43AE1CD2B2E0E726792068012E01D1B3
:1023A00002F01DF94323524D3F218C46F821C9000C
:1023B00001228846AB4604900AE005998B543B788D
:1023C000002B00D135E10132642A00D192E0BB46F6
:1023D00059464F1C1900C2390129EED859464D788B
:1023E0006046290081438029E7D141469B0119407D
:1023F00063462B400B430137DBB2DEE7D5EEE4004A
:102400001C2918006C0600000204000005040000EE
:102410000A04000003040000090400000604000090
:102420000B04000007040000010400000404000085
:10243000BA030000C2030000BD030000C103000096
:10244000BB030000C3030000BE030000BF03000085
:10245000B9030000720300007A0300007503000056
:1024600079030000730300007B0300007603000083
:102470007703000071030000420300004A030000DC
:102480004503000049030000430300004B03000024
:102490004603000047030000410300001203000050
:1024A0001A030000150300001903000013030000C5
:1024B0001B030000160300001703000011030000B7
:1024C0002A0300002D030000320300002B0300004C
:1024D000310300002E030000330300002F0300002F
:1024E000290300009FD9BA00A44C0110A049011093
:1024F000404B011024220EAB9C46FF3204986244EC
:10250000002313700268D5684D4501D002F05FF8D2
:10251000BE4A8218D37053461A78002A0DD0002381
:1025200051467C3002E00133282B04D0C254CA1833
:102530005278002AF7D18A462679012E01D102F07D
:1025400043F8B34A218A002901D102F03AF8012068
:1025500005004B080D40002B01D102F02FF803407D
:102560005B198D0834D005405B19CD0830D005408B
:102570005B190D092CD005405B194D0928D0054089
:102580005B198D0924D005405B19CD0920D0054089
:102590005B190D0A1CD028401B184D0A18D00120C9
:1025A00005405B198D0A13D005405B19CD0A0FD089
:1025B00005405B190D0B0BD005405B194D0B07D087
:1025C00005405B198D0B03D028401B18C90B5B1805
:1025D00080211EA808F0BEF940220EAB9B181B7884
:1025E0002068002B01D101F0E6FFF821C9003F2748
:1025F0008C4683463F3A1EAD09E005998B543378EB
:10260000002B00D1C1E00132642A15D03500190039
:10261000C2396E1C0129F0D869780800B8438028B7
:10262000EBD160469B01034039400B43AE1CDBB24B
:10263000E3E70498524463E724220EAB9C465846D5
:10264000FF326244002313700268D5684D4501D003
:1026500001F0AAFF6D4A8218937153461A78F4303C
:102660000023002A0AD0514602E00133282B04D06F
:10267000C254CA185278002AF7D18A462379012B0E
:1026800001D101F08EFF634A218A002901D101F0B6
:1026900085FF012005004B080D40002B01D101F002
:1026A0007DFF03405D198B0801D101F077FF0340E6
:1026B0005B19CD0830D005405B190D092CD00540C1
:1026C0005B194D0928D005405B198D0924D00540C0
:1026D0005B19CD0920D005405B190D0A1CD028409C
:1026E0001B184D0A18D0012005405B198D0A13D024
:1026F00005405B19CD0A0FD005405B190D0B0BD0BF
:1027000005405B194D0B07D005405B198D0B03D0BD
:1027100028401B18C90B5B180221994289410A23E2
:102720000B4080211EA808F015F940220EAB9B1823
:102730001B782068002B01D101F09EFEF821C90012
:102740003F278C4683463F3A1EAD0CE005998B54DB
:102750003378002B01D100F0C4FE0132642A01D18C
:1027600000F01BFE35001900C2396E1C0129EDD89E
:1027700069780800B8438028E8D160469B0103408F
:1027800039400B43AE1CDBB2E0E75846524459E7F0
:102790002379012B01D101F0FEFE1F4A1F4B80213E
:1027A000E3581EA8013308F0D5F840220EAB9B1861
:1027B0001B782068002B01D101F0EAFEF8211EAD44
:1027C000C9003F278C46AB463F3A09E005998B5438
:1027D0003378002B00D1C0E00132642A20D0B34608
:1027E00059464E1C1900C2390129EFD859464D7877
:1027F0002900B9438029E9D161469B0119402B008A
:102800003B400B430136DBB2E0E7C0464406000024
:10281000604B0110884B0110FC460110980E00001F
:1028200024220EAB9C46FF326244002313700268E0
:10283000D5684D4501D001F0A4FEB44A8218D3708A
:1028400053461A787C300023002A0AD0514602E011
:102850000133282B04D0C254CA185278002AF7D169
:102860008A46AB4BE35801339D00ED18AB460B2D68
:1028700001D90B239B46053DAB4500D88BE056465E
:10288000A44B0693A44B0793A44B0893069AAB0062
:10289000D158079AD3582279012A00D119000B7810
:1028A000002B75D0012204941800C2384F1C012857
:1028B00055D93900059883540B78002B65D0013227
:1028C000202AF1D10EAADF239446049C63440022FF
:1028D0001A7043469A880123EA4013405722013B6D
:1028E000934378336F1C8021089A019300963B0034
:1028F0001EA808F02FF82068894903686158DB6832
:102900009A46834BE25893009B18EB1A5A00CB1A55
:1029100059424B410532DBB2CA454BD1132A18D874
:102920007A4D81184B5540210EAB5B181978002960
:102930000FD093009B18DB0004330022C31802E081
:102940000132282A05D099541EA9891849780029EE
:10295000F6D15F451ED03D0098E7524465E74878C0
:10296000040082463F208443802CA2D1F8209B01A2
:10297000C000034054463F20044023430598DBB287
:10298000023183540B78002B99D1049CB3189EE735
:1029900033009CE7B246EA221201A2582379002AAA
:1029A0000ED0012B01D101F0E6FD23685D4A0493AE
:1029B0003C230DE00093002112011EABD047C8E775
:1029C000012B01D101F0D1FD2368574A049345231F
:1029D000F821C90001203F2688460CE0059A1354CF
:1029E0002B78002B01D101F0BEFD0130642801D10C
:1029F00001F08EFD2A001900C239551C0129EDD8BD
:102A000051780F00B743802FE8D145469B012B40FA
:102A100031400B43951CDBB2E0E726792068012E9C
:102A200001D101F071FD5723404D3F218C46F82123
:102A3000C90001228846AB4604900CE005998B54EE
:102A40003B78002B01D100F076FC0132642A01D1E1
:102A500000F00BFCBB4659464F1C1900C239012936
:102A6000ECD859464D786046290081438029E5D14C
:102A700041469B01194063462B400B430137DBB2B3
:102A8000DCE723792068012B01D101F039FD4E23C9
:102A9000274DF821C90001223F278C46834609E0D3
:102AA00005998B543378002B00D1F1E00132642A70
:102AB00012D035001900C2396E1C0129F0D869788E
:102AC0000800B8438028EBD160469B0103403940A1
:102AD0000B43AE1CDBB2E3E724220EAB9C46584608
:102AE000FF326244002313700268D5684D4501D05F
:102AF00001F0FFFC054A8218D37053461A787C30E7
:102B00000023002A1FD0514617E0C04644060000AB
:102B1000980E00005854011084540110144D0110F7
:102B2000940E0000244701109047011084480110C2
:102B3000C44701100133282B04D0C254CA1852785C
:102B4000002AF7D18A46D14BE718E35C002B64D00A
:102B500005231E00534613ADBA460497A0462F0026
:102B60001D0029220021380006F062FB049811F0B4
:102B70005FF98346282801D928239B465A46380006
:102B8000049906F05BFB434618683B78002B00D1A4
:102B9000A5E0012294463A0061468446501C069006
:102BA0001800C238012876D90598069A435413783C
:102BB000002B00D184E001316429EFD124230EAA37
:102BC00060469446FF336344002119700368DB6854
:102BD0001C004B457DD1AE4A831999542A78002AAE
:102BE0000FD0B3009B19DB000433049CC31802E030
:102BF0000131282904D05A546A185278002AF7D192
:102C00000494049B5B4404931B78002B02D0013690
:102C1000082EA6D157464446AA462379012B01D156
:102C200001F064FC9B4D380011F002F92A0003000A
:102C300080211EA807F08EFE4022236804930EAB6D
:102C40009B181978002901D101F04DFCF822D2001F
:102C500001233F2090461EAF08E0059AD1543178F9
:102C6000002972D00133642B3BD037000A00C23AEE
:102C70007E1C012AF1D87A7815008543802DECD18D
:102C800045468901294002401143BE1CC9B2E4E710
:102C90005846524426E73F2450780790A0438028A6
:102CA00082D1F8209B01C0001840079B02322340CC
:102CB00003430598DBB243541378002B00D07AE726
:102CC0006B180021604619700368DB681C004B45D7
:102CD00081D000912B0000213201A04791E72B0009
:102CE00072E724230EAA9446FF336344002204991A
:102CF0001A700B68DD684D4501D001F0ECFB6448AB
:102D00000B00844663449A7253461A78002A0FD007
:102D1000953100235046FF3102E00133282B04D0C7
:102D2000CA54C2185278002AF7D182462368049305
:102D3000EA221201A2582379002A00D102E3012BD2
:102D400001D101F0C5FB544801E35344CEE7237998
:102D50002068012B01D101F0B7FB44234F4DF8212E
:102D6000C90001223F278C46834608E005998B5411
:102D70003378002B6BD00132642A12D03500190051
:102D8000C2396E1C0129F1D869780800B84380283F
:102D9000ECD160469B01034039400B43AE1CDBB2D3
:102DA000E4E724220EAB9C465846FF3262440023DF
:102DB00013700268D5684D4501D001F07EFB344A9E
:102DC0008218D37053461A787C300023002A0AD028
:102DD000514602E00133282B04D0C254CA1852785D
:102DE000002AF7D18A462E4B8021E3582D4A1EA88F
:102DF00007F0B0FD4022236804930EAB9B181978AE
:102E0000002901D101F056FBF822D20001233F2016
:102E100090461EAF09E0059AD1543178002900D1BF
:102E2000A4E00133642B15D037000A00C23A7E1C9F
:102E3000012AF0D87A7815008543802DEBD14546DC
:102E40008901294002401143BE1CC9B2E3E758463C
:102E50005244ACE724230EAA9446FF336344002275
:102E600004991A700B68DD684D4501D001F01AFB1A
:102E700007480B00844663445A7153461A78002A67
:102E80001DD000235046CC3111E0C046A60E0000F4
:102E900044060000E0470110F4470110344C0110D3
:102EA0007C0F0000384D01100133282B04D0CA5488
:102EB000C2185278002AF7D1824623680493CC4B7B
:102EC00020790893CB4B564607930023069308338B
:102ED0001F0080460498F8231B01069AE35CD34048
:102EE000012215001D401A4200D1ADE07B1C9B461B
:102EF0004346012B00D1DDE0BF4984464E23280024
:102F0000A2464A1C04921A00C23A012A30D9059AF4
:102F1000049913540B78002B40D001306428F0D171
:102F200024220EAB60469C465446FF326244002386
:102F300013700268D26892464A4534D1132F3AD8AA
:102F4000AE49C21953543278002A34D0BB00DB1981
:102F5000DB0004330021C31802E00131282927D007
:102F60005A5472185278002AF7D121E0534476E778
:102F70004A78140009923F229443802CC7D1F8224A
:102F80009B01D20013403F22099C0231144023438D
:102F9000059ADBB213540B78002BBED102005446C5
:102FA0006046B218C3E70093002133003A01D047CE
:102FB0002379206898464146089B02371A68079B88
:102FC0001B68012900D11A001378002B01D101F0F0
:102FD00063FA0990511C0491C22149428C469C44D9
:102FE0006146012968D90599049A4B551378002B3D
:102FF00076D00135642DEDD124250EAB9C46FF35EE
:103000000998654400232B700268D5685A464D45DF
:1030100069D1132A18D87949821853543278002A72
:1030200012D05B469B005B44DB0004330021C318D5
:1030300002E00131282904D05A5472185278002A2B
:10304000F7D1237920689846089A069B04320892A3
:10305000079A0133083206930792062B00D03AE70D
:1030600004904046B246012801D101F018FA644F9D
:10307000F822D200012345213F20904608E0059A1E
:10308000D1543178002960D00133642B31D037001E
:103090000A00C23A7E1C012AF1D87A7815008543CD
:1030A000802DECD145468901294002401143BE1CC8
:1030B000C9B2E4E7534920E73F2051788C46814369
:1030C000802990D19901F823DB0019406346034021
:1030D0000B430599DBB202324B551378002B88D194
:1030E000099875198EE70093002133001201A84753
:1030F000A7E724230EAA9446FF33634400220498D2
:103100001A700368DD684D4501D0FFF716F93B4999
:1031100003008C466344DA7353461978002901D1C1
:10312000FEF7D6FD03009720800084465046634496
:1031300004E00132282A01D1FEF7C7FD9954811815
:1031400049780029F5D1FEF7C0FD5344D6E758462B
:10315000013BD02292009B180EAA94462A4A63444F
:103160009446002263441A700368DD684D4501D01F
:1031700001F08BF9214BC318DA7053461A787C3072
:103180000023002A0AD0514602E00133282B04D044
:10319000C254CA185278002AF7D18A462379012BE3
:1031A00001D101F06FF9194B194AA25C002A5AD1DA
:1031B0001849194A00911EA8802107F0CBFB174B34
:1031C0004021E3585D425D412268EDB204920EAAAF
:1031D00052181278002A01D101F051F93F2084469B
:1031E000F8201EAEC0008046B3463F39069322E069
:1031F0001054011028540110544C011044060000D2
:10320000884C0110404C011080FDFFFFBC490110AB
:10321000A50E0000C8490110284D0110940E0000B1
:10322000059B5A543A78002A00D1ACE20131642956
:1032300000D159E1BB465846471C1000C23801284E
:10324000EED8584646786346300098438028E7D148
:103250004046920110406246324002430137D2B2EA
:10326000DEE7584675E7BF49A3E724220EAB9C462C
:10327000FF3204986244002313700268D5684D45FC
:1032800001D001F0F1F8B84A8218D37053461A7889
:10329000002A0DD0002351467C3002E00133282B58
:1032A00004D0C254CA185278002AF7D18A46267927
:1032B000012E01D101F09FF8AC4AAD4B8021984618
:1032C000A04443461EA807F045FBAA4B4022E15804
:1032D00020684B4259410EAB9B181B78C9B2002B9A
:1032E00001D101F085F83F25AC46F825ED00AB464D
:1032F0003F3A1EAE04910AE005998B542B78002BBF
:1033000000D1CDE10132642A00D160E12E001F001E
:10331000C23F751C012FEFD86146777806978F431F
:10332000802FE9D15F469B011F40069BB51C0B40D7
:103330003B43DBB2E0E7049852449CE78E494933B3
:10334000FEF7FCF9012B01D101F04FF88B48F82270
:10335000D200012345213F2590460CE0059AD15427
:103360003978002901D101F073F80133642B01D1C0
:1033700001F044F838000A00C23A471C012AEDD88F
:1033800042781600AE43802EE8D14646890131408E
:103390002A401143871CC9B2E0E724220EAB9C46A9
:1033A0005846FF326244002313700268D5684D45C9
:1033B00001D001F013F86C4A8218137253461A7840
:1033C00045300023FF30002A0AD0514602E0013385
:1033D000282B04D0C254CA185278002AF7D18A4642
:1033E000238A002B01D100F0F6FF01210A005808C2
:1033F0001A40002801D100F0EBFF084080189A081D
:1034000001D100F0E0FF0A401218D80830D008407F
:10341000121818092CD008401218580928D0084052
:103420001218980924D008401218D80920D0084052
:103430001218180A1CD001405218580A18D001213D
:1034400008401218980A13D008401218D80A0FD052
:1034500008401218180B0BD008401218580B07D050
:1034600008401218980B03D001405218DB0BD218F9
:1034700093009B185B00022A00D90A338021404A3E
:103480001EA807F067FA4022236804930EAB9B182E
:103490001978002901D100F077FFF822D20001232A
:1034A0003F2090461EAF0AE0059AD154317800299A
:1034B00000D1BBE10133642B00D167E137000A0082
:1034C000C23A7E1C012AEFD87A7815008543802DF8
:1034D000EAD145468901294002401143BE1CC9B2C8
:1034E000E2E7584652445EE724210EAA9446FF3193
:1034F000069B614400220A7004990A68D6684E450A
:1035000001D000F058FF18480A00844662449571C3
:1035100052461278002A10D000235046F43102E0BF
:103520000133282B04D0CA54C2185278002AF7D18C
:103530008246144B2268E35804922079012801D175
:1035400000F019FF104E3F25013B5A425341AC4653
:10355000F825DBB2ED0001213222A846B3460693DE
:103560001FE0C046D049011044060000A8480110E1
:10357000070F00009C0E0000444501100C4801108C
:10358000304D0110940E0000EC490110059B5A5477
:103590003A78002A00D16CE20131642900D116E2A8
:1035A000BB465D466F1C1500C23D012DEED85D4641
:1035B0006E78634635009D43802DE7D145469201E4
:1035C0001540624632402A430137D2B2DEE7242258
:1035D0000EAB9C46FF3204996244002313700368CB
:1035E000DD684D4501D000F0DFFED34BC318997163
:1035F00053461A78F4300023002A0AD0514602E0DC
:103600000133282B04D0C254CA185278002AF7D1AB
:103610008A462379012B01D100F0C3FEC74AC84B6B
:103620008021E7183B001EA807F094F9C54B2068DD
:10363000E358013B5A4253414022D9B20EAB9B188A
:103640001B78002B01D100F0A9FE3F26B446F826D6
:10365000F600B3463F3A1EAD069107900AE0059981
:103660008B54049B1B78002B00D188E00132642A24
:1036700019D0049D1E00691CC23E0491012EEED893
:103680006E786046310081438029E8D159469B011C
:103690000B40A91C654635402B430491DBB2DEE7A5
:1036A0000499524499E724220EAB9C46FF320699B6
:1036B00007986244002313700368DD684D4501D00C
:1036C00000F065FE9C4BC318597253461A786D3052
:1036D0000023FF30002A0AD0514602E00133282B94
:1036E00004D0C254CA185278002AF7D18A4600235F
:1036F00012931393944BE35C002B00D12EE14046D0
:1037000012A9FDF781F9002800D029E12379012BC6
:1037100001D100F02DFE8D4B80218D4A1EA807F0AF
:1037200019F94022236804930EAB9B1819780029DD
:1037300001D100F023FEF822D20001233F20904661
:103740001EAF0AE0059AD1543178002900D1E4E196
:103750000133642B00D18FE137000A00C23A7E1C8E
:10376000012AEFD87A7815008543802DEAD14546A5
:103770008901294002401143BE1CC9B2E2E7069903
:103780000798524496E7069B5144B3E624230EAAB9
:103790009446FF336344002204991A700B68DD6875
:1037A0004D4501D000F0DCFD63480B0084466344C6
:1037B0009A7253461A78002A0FD09531002350464A
:1037C000FF3102E00133282B04D0CA54C2185278CA
:1037D000002AF7D18246236804932579012D01D16F
:1037E00000F08BFD5B48F821C900012245233F27EB
:1037F0008C46A34608E005998B543378002B69D09A
:103800000132642A14D030001900C239461C012943
:10381000F1D841780C00BC43802CECD164469B016C
:10382000234039400B43861CDBB2E4E75344B2E744
:1038300024220EAB9C465C46FF326244002304996E
:1038400013700A68D6684E4501D000F04EFD3A4824
:103850000A0084466244537353461A78002A12D0F1
:1038600083208000844600235046614402E00133F7
:10387000282B04D0CA54C2185278002AF7D18246A5
:10388000236825790493012D01D100F02AFD4121FF
:10389000314FF822D20001233F20904608E0059ADC
:1038A000D1543178002944D00133642B15D037002E
:1038B0000A00C23A7E1C012AF1D87A7815008543A5
:1038C000802DECD145468901294002401143BE1CA0
:1038D000C9B2E4E75C465244B0E724230EAA9446FA
:1038E000FF336344002204981A700368DD684D4575
:1038F00001D0FEF722FD104903008C466344DA73C1
:1039000053461978002901D1FEF7E2F90300972008
:10391000800084465046634404E00132282A01D1E5
:10392000FEF7D3F99954811849780029F5D1FEF7AB
:10393000CCF95344D6E7C04644060000C8480110FD
:103940000F0F00009C0E0000070F00001849011027
:10395000244D0110C44B0110004C0110013B129387
:10396000D14BE35C002B01D100F0B7FC380013A968
:10397000FDF74AF8002800D1C8E6129923790029FA
:1039800000DAC4E6139A002A00DAC0E6521AD11708
:1039900055184D40012B01D100F0F3FCC34ED2432A
:1039A000FA210123D717280089009F4304F07CFDEA
:1039B0000191FA212800890004F076FD2D3700904E
:1039C0003B00320080211EA806F0C4FFA9E6242196
:1039D0000EAA9446FF31069B614400220A700499A6
:1039E0000A68D5684D4501D000F06FFCB04D0A0063
:1039F000AC466244537253461A78002A10D06D3197
:103A000000235046FF3102E00133282B04D0CA5472
:103A1000C2185278002AF7D182462368207904938D
:103A2000012801D100F04EFCA24DF821C90001226D
:103A300043233F278C46834609E005998B5433780E
:103A4000002B00D1BBE00132642A68D03500190098
:103A5000C2396E1C0129F0D869780800B843802863
:103A6000EBD160469B01034039400B43AE1CDBB2F7
:103A7000E3E7069B5144B0E724230EAA9446FF33A4
:103A80006344002204991A700B68DD684D4501D02B
:103A900000F010FC86480B00844663441A735346BA
:103AA0001A78002A0FD0E53100235046FF3102E09A
:103AB0000133282B04D0CA54C2185278002AF7D1F7
:103AC0008246236804932079012801D100F0EEFB9F
:103AD0004223794DF821C90001223F278C468346B5
:103AE00009E005998B543378002B00D19FE0013217
:103AF000642A67D035001900C2396E1C0129F0D83C
:103B000069780800B8438028EBD160469B010340E8
:103B100039400B43AE1CDBB2E3E75344B1E7242248
:103B20000EAB9C465846FF32624400230499137042
:103B30000A68D5684D4500D0B1E35D4D0A00AC463A
:103B40006244537353461A78002A12D083208000AF
:103B5000844600235046614402E00133282B04D000
:103B6000CA54C2185278002AF7D1824623682079B5
:103B70000493012800D18FE34521504FF822D20051
:103B800001233F20904608E0059AD154317800295E
:103B90007CD00133642B4DD037000A00C23A7E1C22
:103BA000012AF1D87A7815008543802DECD145465D
:103BB0008901294002401143BE1CC9B2E4E75846BE
:103BC0005244B2E724220EAB9C465846FF32624470
:103BD0000023049913700A68D5684D4500D054E35A
:103BE000334D0A00AC466244937353461A78002A58
:103BF00012D08D208000844600235046614402E0AC
:103C00000133282B04D0CA54C2185278002AF7D1A5
:103C10008246236820790493EA231B01E358002B92
:103C200036D04523012800D1FFE2254A35E0584629
:103C30005244CDE724230EAA9446FF336344002266
:103C400004981A700368DD684D4501D0FEF775FBD6
:103C5000174903008C466344DA73534619780029E8
:103C600001D1FEF735F803009720800084465046C6
:103C7000634404E00132282A01D1FEF726F8995462
:103C8000811849780029F5D1FEF71FF85344D6E78B
:103C9000012800D1C6E255230A4AF821C9000120B3
:103CA0003F2688461BE0C0460F0F0000F048011079
:103CB000440600001C4A011040490110604A0110EE
:103CC000F447011080490110059A13542B78002BFA
:103CD00000D1D8E20130642800D1A8E22A001900FE
:103CE000C239551C0129EFD851780F00B743802FF6
:103CF000EAD145469B012B4031400B43951CDBB27A
:103D0000E2E7A0494933F825ED0001223F27AC4600
:103D10008B4609E005998B543378002B00D119E1CB
:103D20000132642A15D0B34659464E1C1900C239D7
:103D30000129EFD8594649780D00BD43802DE9D1BE
:103D400065469B011D400B003B402B430136DBB217
:103D5000E0E724220EAB9C46FF326244002313703E
:103D60000268D5684D4500D056E2874A8218D37064
:103D700053461A787C300023002A0AD0514602E0CC
:103D80000133282B04D0C254CA185278002AF7D124
:103D90008A4623799B46012B00D13AE27B4B06935E
:103DA00043469988002900D130E2012632004B08B1
:103DB0000A40002B00D126E233409B18880800D12E
:103DC0001CE202003240D218CD0800D114E23300C8
:103DD0002B409B1808099846049000D10AE237004E
:103DE0000740BC464F0963440797002F00D1FEE10E
:103DF0003740BC468F096344002F00D1F5E13740BE
:103E0000BC46CF096344002F00D1EEE13740BC46E9
:103E10000F0A6344002F00D1E7E13E409B190120C7
:103E20004E0A00D1D4E106409B198E0A00D1CFE1A1
:103E300006409B19CE0A00D1CAE106409B190E0B21
:103E400000D1C5E106409B194E0B00D1C5E10640EB
:103E50009B198E0B00D1BBE106409B19CE0B00D104
:103E6000B3E1284012186846008A013301254E0943
:103E700028401218B0B2002E28D028401218880905
:103E800024D028401218C80920D028401218080A47
:103E90001CD028401218480A18D028401218880A46
:103EA00014D028401218C80A10D028401218080B45
:103EB0000CD028401218480B08D0054052198D0B21
:103EC00004D0012028401218C90B521891008918FB
:103ED0004900022A00D90A31EA221201A258002A16
:103EE00000D1DCE05A46012A00D1CEE0284A0192F6
:103EF0000091069A80211EA806F02CFD402223681E
:103F000004930EAB9B181B78002B25D0F822D2000F
:103F100001203F2694461EAF0AE0059A13540B7801
:103F2000002B00D1B9E00130642800D1AFE00F00D0
:103F30001A00C23A791C012AEFD87A781500B543E5
:103F4000802DEAD161469B010B4032401343B91CDE
:103F5000DBB2E2E7524401E75046002204990270C6
:103F60000B68DD684D4500D0F1E007480B00844642
:103F700063441A7153461A78002A16D0002350461B
:103F8000A4310AE07045011044060000B445011058
:103F9000D44501100133282B04D0CA54C2185278DA
:103FA000002AF7D1824623680493D54B13AD2B61C9
:103FB0002379012B00D1C3E0D248D349D34AD44B53
:103FC0001390EB60EA231B01E65813ABB44669601B
:103FD000AA609846002556460498624653425341CB
:103FE00002225B42134003339D427FD2434619684D
:103FF000C84BE3585B1B5A425341DBB21F000B789E
:10400000002B6CD001228246A34610004A1C049269
:104010001A00C23A012A47D9059A049913540B7819
:10402000002B57D001306428F0D124220EAB50462B
:104030009A465C46FF3252440023137003686A01BB
:10404000DB6860329A464B454BD1B34B1211811855
:10405000CF543178002913D093009B18DB00043330
:104060000022C31802E00132282A04D09954B11862
:1040700049780029F7D1EA231B01E35820689C46C0
:1040800004239A460135D044A7E7A44A2FE7242009
:104090000EAB9C46FF3060445FE750445DE75A46F4
:1040A000012A52D09E4A22E74A78140006923F2203
:1040B0009443802CB0D1F8249B01E40023403F249A
:1040C000069A023122401343059ADBB213540B784F
:1040D000002BA7D102005C465046B218ACE7320074
:1040E000AAE7330000210097D047C4E70490237962
:1040F000B246012B22D08B4FF822D20001233C2163
:104100003F20904608E0059AD154317800294FD0DD
:104110000133642B22D037000A00C23A7E1C012AE8
:10412000F1D87A7815008543802DECD14546890178
:10413000294002401143BE1CC9B2E4E77A4FDBE7D5
:104140007A487B497B4A7C4B3AE77C4ACFE60800B9
:104150000092534640220021A84724E724230EAAB8
:104160009446FF336344002204991A700B68DD689B
:104170004D451FD168480B00844663441A7453466A
:104180001A78002A01D1FDF7A3FDA1208000844602
:1041900000235046614404E00133282B01D1FDF790
:1041A00094FDCA54C2185278002AF5D1FDF78DFD4E
:1041B0005344D8E700928022080053460021520061
:1041C000A84723680493FDF783FD002D00D17DE609
:1041D000284012186846008A48E628400D0912183F
:1041E000A8B2002D00D041E670E642463EE64246C7
:1041F00001203BE6013269E6130067E601329100D7
:104200008918490068E601230A2165E60023002198
:1042100062E64B4B0693C3E50093302253460021E0
:10422000A847B6E54823474A37E5474A35E52420FD
:104230000EAB9C46FF306044002202700498036875
:10424000DD684D4501D0FEF778F8334903008C4610
:104250006344DA7353461978002901D1FDF738FD1C
:1042600003009720800084465046634404E00132F6
:10427000282A01D1FDF729FD995481184978002990
:10428000F5D1FDF722FD5044D6E708000093E02267
:1042900053460021A847BCE4C3212C4F6EE408001C
:1042A0000093D02253460021A8475FE45623284DAF
:1042B000FFF710FC080000925346C0220021A847D7
:1042C000FFF7FFFB234DFFF7B0FB080000939022A0
:1042D00053460021A847FFF7A0FB013B1393FFF7CC
:1042E00015FA55211C4FFFF7D4FA08000093D0228D
:1042F00053460021B047FFF7C3FA1848FFF773FA97
:10430000084D01104446011054460110604601104A
:1043100074460110940E000044060000F0450110A0
:10432000DC450110B046011088460110FC45011023
:104330000C4601101C46011030460110E4450110E6
:104340009445011058490110504801103C4A011091
:1043500028490110F4490110DC4B0110A04B011059
:10436000080000925346A0220021A847FFF733FA25
:10437000CD4BFFF7D1F9CD4EFFF7E5F85346FFF7E8
:1043800080FBCB4EFFF70BFB5346FFF704FA00917F
:10439000534690220021A847FFF7A9F95246FFF79C
:1043A00089F9C44AFFF73BF9009153466022002186
:1043B000A847FFF72EF90800534660220021009518
:1043C000B047FFF7B6F883001B185B00FFF756F8FD
:1043D0000A23FFF753F80023FFF750F800938022D9
:1043E00053460021A847FEF7FBFFB348FEF7AFFF97
:1043F0005246FFF7F2F8B14AFEF75FFF24230EAAF8
:104400009446FF336344002204991A700B68DD68F8
:104410004D451FD1AA480B00844663449A73534606
:104420001A78002A01D1FDF753FC8D2080008446C4
:1044300000235046614404E00133282B01D1FDF7ED
:1044400044FCCA54C2185278002AF5D1FDF73DFC4D
:104450005344D8E70800534600920021E022A847C1
:1044600023680493FDF734FC009330225346002167
:10447000A8472679FEF71CFF5246FEF794FF5146E7
:10448000FFF738F88F4BFEF78FFE0092534630222D
:104490000021A847FEF782FE3500FEF7B3FD8A4FE4
:1044A000FEF7E6FD08000092534650220021A8477F
:1044B000FEF703FD5346FEF7D2FC0093302253462D
:1044C0000021A847FEF78FFC4A23804DFEF747FCEA
:1044D0007F48FEF73CFF080000925346A0220021CF
:1044E000A847FEF723FC5346FEF700FC794DFEF784
:1044F0009AFB0093302253460021A847FEF723FB86
:104500004223754DFEF7C5FA5323744DFEF78DFA1D
:1045100024200EAB9C46FF306044002204990270B8
:104520000B68DD684D4500D044E665480B008446C5
:1045300063441A7453461A78002A01D1FDF7C8FB68
:10454000A1208000844600235046614404E00133EA
:10455000282B01D1FDF7B9FBCA54C2185278002AA2
:10456000F5D1FDF7B2FB5044D7E723685C4A0493CA
:104570004523FEF72DFA23685A4A04933C23FEF79D
:1045800027FA0093302253460021A847FEF769F925
:104590005246FEF74AF9544AFEF700F90023FEF7A7
:1045A000C0F8524AFEF770F800936022534600218B
:1045B000A847FEF763F85246FEF744F80123FEF7DA
:1045C00007F80023FEF704F8494AFDF7BBFF009304
:1045D000302253460021A8472679FDF7AEFF542329
:1045E000444DFDF7E1FE444B0C229846434B624399
:1045F0009B46434B15009A46424B17009C469444F9
:1046000063460593404B1600994691444B460693EA
:104610003E4B9044994691444B4607933C4B934400
:1046200099463C4B92449C4694446346089300232D
:1046300091447B3A723D743F733EFF3A9C46FF3D86
:10464000FF3FFF3E0992FDF78BFC5021324FFDF7F3
:10465000DFFA08000093D02253460021B047FDF74F
:10466000CEFA2E48FDF77EFA0800009390225346BA
:104670000021A847FDF76EFA08005346602200218A
:104680000095B047FDF70DFA08000092534630221E
:104690000021A847FDF7A8F9214FFDF75DF9214951
:1046A0004033FFF730FBC0460C490110DC490110D4
:1046B000D8480110B8480110284801109848011046
:1046C00044060000B0490110644C0110204C011058
:1046D00050480110CC470110B84701107048011034
:1046E0006447011040470110D4460110704B01107F
:1046F000504B01102C4B011088FEFFFF84FEFFFF82
:1047000085FEFFFF8BFEFFFF8AFEFFFF8CFEFFFF93
:1047100087FEFFFF89FEFFFFE84A0110A84A01104B
:10472000784A011080450110F0B5434C434BA54435
:1047300004006B4418000021414A04F079FD25680B
:104740002B685E693F4B9E4254D13F4BEB5C002B84
:104750003DD0002101A8FCF7C7FC3C4B01216B4474
:104760001800FCF7C1FC6B46394A04339B5C032BF1
:104770002DD0684635494018825C032A27D0012B8A
:1047800048D0012A43D1334BC358304A01206A44F0
:104790001100CE22D200A8502F4AAB502F4BCA583E
:1047A0002F4B0C316B441A60244B6B44180004F0FF
:1047B00045FD8023694621485B010918C95803005B
:1047C0006B441800221DFCF79BFA00280CD1012233
:1047D000244BE2542379012B2CD0234B2348642112
:1047E000234A201806F0B6F82000FCF7C1FE214B42
:1047F0009D44F0BD80221A4B104928006B445201A1
:104800006944B0470228E2D00128EDD1D1E7134333
:10481000EAD0DCE76B460F4E043300209B5901A918
:10482000012AB6D16A46094FD21992599A42B0D993
:104830001300AAE7104BD1E7D4D3FFFF241C0000DC
:1048400004100000911200106D060000140E00000C
:104850000C0E0000040E000074060000080E00009C
:10486000242C0000A40E0000684D0110170F00005A
:10487000244D01102C2C0000404D0110F0B54E4687
:104880004546DE465746E923E0B5BF4C1B01A5442B
:10489000BE4C0500E6581B280BD0BD4B64220021FE
:1048A000E01804F0C5FC072E10D8BA4BB6009B598F
:1048B0009F46072E00D161E10022E250B64BE25044
:1048C000B34B0021E018643204F0B2FC2000FCF786
:1048D0004FFEB24B9D44F0BCBB46B246A946A04633
:1048E000F0BDAF4BEB18012B00D841E12B00313B61
:1048F000012B00D8C4E10D2DE8D1A74BE358A94AFC
:10490000A65C002B00D0C5E1E92307221B01E25081
:104910009F4B0021E0185D3204F08AFC9E4BE6506C
:10492000D4E79F4BEB18012B00D821E12B00313B42
:10493000012B03D90D2DC9D1974BE358994AA354A4
:10494000E92306221B01E2500022934BB7E7EA233A
:104950001B01E658002E00D0FDE00D2D00D16BE3C9
:10496000914BE0180FF064FA082D00D15AE37F2D27
:1049700000D157E32B00203B5E2BA7D85F28A5D89A
:10498000894B2018C554894B9C46604406709DE7AE
:10499000EA231B01E658002E00D0DCE00D2D01D1EA
:1049A00000F0B4FD01DC00F051FC7F2D01D101F0DD
:1049B00041F801DD00F07CFF2A002C3A0D2A00D9D5
:1049C00084E77B4BD340DB0700D47FE7794BE75884
:1049D000794BFF00F81820180FF02AFA062800D9A2
:1049E00074E7754BE7193F18FD54744B9C466744B8
:1049F0003E706BE70D2D00D068E7228A002A01D1B6
:104A000000F0F4FD0121080053081040002B01D1F3
:104A100001F032F80B401818930801D101F02FF87B
:104A20000B401B18D00830D008401B1810092CD0A0
:104A300008401B18500928D008401B18900924D0A2
:104A400008401B18D00920D001405B18100A1CD068
:104A5000012108401B18500A17D008401B18900A63
:104A600013D008401B18D00A0FD008401B18100B99
:104A70000BD008401B18500B07D008401B18900B98
:104A800003D001405B18D20B9B189E00F6187600ED
:104A9000022B00D90A36E3689846013306D0A36892
:104AA0009A46F3439A4501D800F0A9FD2379012BDA
:104AB00001D100F02FFF424B54E00D2D00D005E74F
:104AC000E92200231201A350334A0021A350304BA6
:104AD0006422E01804F0ACFBF8E63A4B9D4200D1AA
:104AE0008EE0394B9D4200D1FEE1EA231B01E758DD
:104AF00079427941FA23490003319B009D4200D05D
:104B0000DEE1254D60590138401803F0F5FC615194
:104B1000DCE62E4B2E4FEB18E059012B62D90B210E
:104B200083001B18C91A052900D90521FA22920011
:104B30009542E6D0274A954200D1A4E0EA2212012C
:104B4000A258002A00D1C1E30D2D06D0313D082D19
:104B500000D9BBE601E00D2DB2D02379012B00D1A5
:104B60008CE01D4B64211D4A1D4805F0F3FEADE6A7
:104B70000123094AA1585B1AA350A7E60622E25076
:104B80000022054B9BE6C046D4C2FFFF082400204C
:104B9000170F0000A8530110940E00002C3D0000D8
:104BA00018FCFFFFA50E0000A60E0000A70E0000D7
:104BB000F53F00009C0E0000070F0000080F0000EA
:104BC000304F0110EA030000EB03000016FCFFFF6A
:104BD000980E0000E9030000FC4D0110244D011067
:104BE0001F330020EC4B0321EE18731E9E4101364B
:104BF000801903F081FC0022E84BE151E25065E6A8
:104C0000EA22E74B1201A758E35C9F4200D313E36B
:104C1000002303210137A750E04AA350E14AA350E3
:104C200030318D4201DD01F091F8313D2E0004ABB1
:104C30009C46DD4ADD4B62441100944625CB25C1DC
:104C400021CB21C16346B600F558062D01D100F0F5
:104C500094FCE92300261B01E550D04B64229846C2
:104C6000E650D34B0021E01804F0E2FA072D00D003
:104C700043E14246CF4BE35CA35027E6CE4B71E7BE
:104C8000C64AA3503BE6C54D6059013003F034FCE1
:104C900061511BE604AB9C46C84DC94A65442800D7
:104CA000211D04F0CBFAEA231B01E3582E70002BE0
:104CB00000D052E7C34BE35C002B00D00DE104AB06
:104CC0009C46B94F290067443800FBF709FF802252
:104CD00023685201BA5899461B6892469B69BA4AA2
:104CE000934201D000F007FF4A46B84BD35C002B3B
:104CF00001D100F0BBFEB64BD35C002B01D000F01D
:104D0000B5FEB44B9A4501D000F0B0FEB24BD3587B
:104D1000013301D100F0AAFEB0480BF097FEF72353
:104D200001001940184201D000F0A0FECE234A46EF
:104D3000DB00D3585A425341DAB29346A1AA9046B7
:104D4000A74A404604F074FA4A46A64B3900A1939C
:104D5000A14BA4A8D35852460133A29343461A81CB
:104D600004F06CFA04AB9C4640469F4F0123674415
:104D70000121A44604009D4A5B422078013458403A
:104D80004308084040421040434058080B405B42F3
:104D900013405840430808404042104043405808E0
:104DA0000B405B42134058404308084040421040CB
:104DB000434058080B405B421340584043080840AA
:104DC00040421040434058080B405B421340434070
:104DD000A742D2D1DB4341464046854A64468B54C4
:104DE000844A190A8154844A190C81541B0E0132D9
:104DF00083545A46814B9100C9580A2208A80AF0E8
:104E000089FD002801D000F031FE754F41463A007F
:104E1000079007AB08A80BF0FDFA08AB0390180049
:104E20000BF074FC08AB049018000BF0D3FD07994D
:104E300003008A46B94201D000F014FE039A049997
:104E40000A431343DBB2002B01D000F00BFE04AB8E
:104E50009C466B4F594667443800FCF745F9694B4F
:104E6000FB5C012B01D000F0FDFD524641463800AD
:104E70000EF03EFF002801D000F0F4FDCE234A469C
:104E80005946DB00D1504B464946534A9B580133A3
:104E90008B5029005C4A201D04F0D0F9E922002340
:104EA0001201A3503D4A0021A350414B6422E01857
:104EB00004F0BEF9012E01D100F0D1FD534B51E6B3
:104EC000534B9D4200D1DEE6302D00DDA8E60D2DCE
:104ED00000D0FBE4314BE658A9E62379012B01D140
:104EE00000F00FFD4B4B3DE6EA2200231201A350D8
:104EF0002A4AA3502B4AA350E8E4022D00D125E30F
:104F0000032D00D0E2E4444BE650002F01D100F025
:104F100015FD2B4B1F21E05C1F30C01B03F0ECFA8A
:104F200074234B438033E3183C4D9E6808220021D4
:104F3000280004F07DF9002E01DB00F0D5FD0835D6
:104F4000EA231B01E358002B01D000F0E6FC23000C
:104F50000C33082200212800DE6804F069F90123DF
:104F60009946002E00DAB1E4FA213000890003F0FE
:104F70009BFAFA2180468900300003F095FA284F09
:104F80004346280000913A00082105F0E3FC4B4617
:104F90000835012BD4D199E415FCFFFF940E0000D5
:104FA0008D0E0000980E0000142D0000B05401106A
:104FB000170F0000A50E0000DC4D0110881E000038
:104FC0008C0E0000A40E0000691300106D06000096
:104FD0006E060000F10D000074060000F844011098
:104FE000010E00004C505231711000002083B8EDCA
:104FF000FD0D0000FE0D0000FF0D00000854011023
:10500000781000000C0E00008A0E0000004F011006
:10501000E9030000404E01109C0E00000F330020F9
:10502000EC440110002800D150E48F4B20189C461E
:1050300000236044037049E404AB9C468B4D8C4ACA
:105040006544211D280004F0F9F88A4BF520E11889
:1050500004AB9C4640016122604404F0EFF8864BAB
:10506000E35C002B00D038E704AB9C46834F29005B
:1050700067443800FBF734FD802226685201BA5895
:10508000336892469B697E4A934201D000F029FE24
:105090007C4BF35C002B01D100F076FC7A4BF35C87
:1050A000002B01D000F070FC784B9A4501D000F045
:1050B0006BFC774B9B46F358013301D100F064FC45
:1050C00074480BF0C3FCF72301001940184201D0CB
:1050D00000F05AFCCE23DB00F3585A425341DBB2B6
:1050E0009946A1AB18006C4A984604F0A1F86B4BA6
:1050F0005246A1935B46F35839000133A2934346CD
:10510000A4A81A8104F09AF804AB9C4601234046F7
:105110000121A246624F634A67445B420478013032
:1051200063405C080B405B4213405C4063080C40EA
:105130006442144063405C080B405B421340634090
:105140005C080B405B4213405C4063080C406442C7
:10515000144063405C080B405B42134063405C08B2
:105160000B405B42134063405C080B405B421340C2
:105170006340B842D2D1DB43414640464A4A544696
:105180008B544A4A190A8154494A190C81541B0EFE
:10519000013283544A46474B9100C9580A2208A855
:1051A0000AF0B8FB002800D0EEE33B4F41463A003E
:1051B000079007AB08A80BF02DF908AB0390180077
:1051C0000BF0A4FA08AB834618000BF003FC079A17
:1051D00003009246BA4201D000F0AFFD5A46039F49
:1051E00017433B43DBB2002B01D000F0A6FD04AB1C
:1051F0009C46314F494667443800FBF775FF2F4BFB
:10520000FB5C012B01D000F098FD5246414638006E
:105210000EF06EFD002801D000F08FFDCE234A462F
:10522000DB00F2501A4AB3580133B3502900244A24
:10523000201D04F003F843E42279002B00D163E33E
:10524000012A01D100F023FC1E4B8BE4082D00D174
:10525000F0E3092D01D0FFF739FB01231A4AA158C9
:105260005B1AA350FFF732FBA50E0000881E00005A
:105270008C0E0000A60E0000A40E0000142D0000ED
:10528000691300106D0600006E060000F10D0000AD
:1052900074060000F8440110010E00004C50523119
:1052A000711000002083B8EDFD0D0000FE0D000020
:1052B000FF0D000008540110781000000C0E0000D3
:1052C0008A0E0000A04D01109C0E00000D2D00D193
:1052D00030E3313D2E00082D01D9FFF7F7FA04AB7A
:1052E0009C46A94DA94A65442800211D03F0A6FF4C
:1052F0000122B240AB895340AB81A54BE35C002B4C
:1053000000D0EAE504AB9C46A24F29006744380070
:10531000FBF7E6FB802223685201BA5899461B68C6
:1053200093469B699C4A934201D000F0E3FC4A46B5
:105330009A4BD35C002B00D126E3994BD35C002B16
:1053400000D021E3974B9B4500D01DE3964BD358EB
:10535000013300D118E395480BF078FBF7230100E7
:105360001940184200D00FE3CE234A46DB00D35841
:1053700003915A425341DBB29A46A1AB98461800BA
:105380008B4A03F055FF41468A4A039BCA540133B6
:10539000120A042BFAD14A46834B0800D358002244
:1053A0000133811801320B711B0A042AF9D1002341
:1053B0005A46C11801330A72120A042BF9D1390076
:1053C0008046784AA4A803F039FF04AB9C46012329
:1053D00079495B426144474601209C46774A0394E1
:1053E00064463B7801375C406308044064421440E3
:1053F0005C40630804406442144063405C0803401E
:105400005B42134063405C0803405B4213406340CF
:105410005C0803405B42134063405C0803405B420E
:10542000134063405C0803405B42134063405C08E8
:1054300003405B4213405C40A446B942D0D12300F4
:105440000022DB43039C8B5401321B0A042AFAD14D
:1054500052465B4B9100C9580A2208A80AF05AFA32
:10546000002800D090E2524F41463A00079007AB27
:1054700008A80AF0CFFF08AB039018000BF046F91C
:1054800008AB049018000BF0A5FA079903008B46AF
:10549000B94200D074E2039A04990A431343DBB281
:1054A000002B00D06CE204AB9C46464F514667444B
:1054B0003800FBF719FE444BFB5C012B00D05FE288
:1054C0005A46414638000EF013FC002800D057E23F
:1054D000CE234A465146DB00D1504B464946324A1C
:1054E0009B5801338B50394A2900201D03F0A6FE3A
:1054F0000521300003F000F8354B0521E050300065
:1055000002F0FAFF334BE150FFF7E0F904AB9C46A1
:105510001D4D1E4A65442800211D03F08FFE2E4BB1
:10552000E35C002B00D1CBE12B4B2C49E01804AB02
:105530009C466144FBF768FA002800D0C6E1237955
:10554000012B00D1D4E2264BFFF70CFB21000C31DC
:10555000002F0AD00D4B1F21E05C1F30C01B02F052
:10556000CBFF74234B438033E1181E4B6122E018BC
:10557000103103F063FEFFF7A9F922791A4BE254C8
:10558000153BE550FFF7E0F9881E00008C0E000087
:10559000A40E0000142D0000691300106D06000019
:1055A0006E060000F10D000074060000F8440110C2
:1055B000010E00004C505231711000002083B8EDF4
:1055C00008540110781000000C0E00008A0E000034
:1055D000980E0000940E0000070F0000981E0000B7
:1055E000C04E0110A60E0000A50E0000E36898460C
:1055F000013301D1FFF75AFAA36800269A4604AB9B
:105600009C46E64DE64A6544211D280003F016FE3F
:105610007420E44F04A9EB5D71225843E24BC0189B
:1056200004AB9C46E14B60449C4660448C46E04B96
:105630006344190003F002FEE85D1F21013002F00F
:105640005BFFDC4AE955AB5C1E2B01D80133AB5440
:10565000B346D3445B466B6004AB9C46D648D74FF9
:10566000702200216044674403F0E2FD04A98C46E7
:105670000123D34A3B606244023B1360D14A3900A4
:1056800062441360CA4B71226344180003F0D6FDD4
:1056900043460133AB6053461D2B00D952E15B46B4
:1056A0001D2B00D9FDE100239946EA231B01E35895
:1056B000002B01D0FFF751FAC34BE35C002B01D064
:1056C000FFF70BFC29003800FBF70AFA8022236859
:1056D0005201BA589A461B6893469B69BB4A93424B
:1056E00000D010E35246BA4BD35C002B00D14BE103
:1056F000B84BD35C002B00D046E1B74B9B4500D0A4
:1057000042E1B64BD358013300D13DE1B4480BF030
:105710009DF9F72301001940184200D034E1CE234F
:105720005246DB00D35804915A425341DBB20393F3
:10573000A1AB98461800AB4A03F07AFD4146AA4A4D
:10574000049BCA540133120A042BFAD15246A34BCC
:105750000800D35800220133811801320B711B0A53
:10576000042AF9D100235A46C11801330A72120AD9
:10577000042BF9D139008046974AA4A803F05EFDB6
:1057800004AB9C46994901236144474601208C465D
:10579000974A5B423978013759404B0801404942EA
:1057A00011404B40590803405B42134059404B089D
:1057B0000140494211404B40590803405B421340AD
:1057C00059404B080140494211404B4059080340A1
:1057D0005B42134059404B080140494211404B4045
:1057E000590803405B4213404B40BC45D2D161464F
:1057F000DB4300228B5401321B0A042AFAD1039A9C
:105800007C4B9100C9580A2208A80AF083F80028A6
:1058100000D0B9E0734F41463A00079007AB08A8A3
:105820000AF0F8FD08AB049018000AF06FFF08AB0F
:10583000059018000BF0CEF8079903008B46B9428B
:1058400000D07EE2049A05990A431343DBB2002B91
:1058500000D076E204AB9C46674F0399674438005A
:10586000FBF742FC654BFB5C012B00D069E25A461A
:10587000414638000EF03CFA002800D061E2CE2309
:1058800052460399DB00D15053465146534A9B5828
:1058900001338B505A4A2900201D03F0CFFC4A46A1
:1058A000584BE6500433E2540522F03BFFF74BF827
:1058B000554B9C466544012D00D8CEE4FFF706F811
:1058C00004A98C46514A013B62441360504BE35C8F
:1058D000002B00D1DEE04E4B4E49E01804AB9C4655
:1058E0006144FBF791F8002800D128E6364BE35CD1
:1058F000002B00D108E12279474B012A01D0FFF7A4
:1059000031F9464BFFF72EF9012A00D1BCE0444B98
:10591000FFF728F9434BFFF725F9214A1F21A05C27
:105920001F30C01A02F0E8FD74234B438033E318A4
:10593000FFF70FFB3C4AA6589E19D0E423000C3316
:10594000FFF7F2FA452B00D8F4E1772B00D8EEE10F
:10595000B32B00D8E8E1F92B00D802E2A5230022FE
:105960005B0091469A4500D39FE6A5235B009B45CB
:1059700000D29AE64A462B3BFF3B1A43914694E6F7
:1059800001224946134BCA542279284B012A01D0DF
:10599000FFF7E8F8264BFFF7E5F8C046881E000041
:1059A0008C0E0000880E0000183D0000ECE1FFFFA7
:1059B000901E0000890E0000182D0000142D00001C
:1059C0001C2D0000202D0000A40E00006913001003
:1059D0006D0600006E060000F10D00007406000068
:1059E000F8440110010E00004C50523171100000BB
:1059F0002083B8ED08540110781000000C0E000050
:105A00008A0E00007C0F000018FCFFFF981E0000AB
:105A10000F0F00009C1E0000404E0110144E01109C
:105A2000C84D0110144F0110940E0000804E01105B
:105A3000604E0110CC4BE558CC4BED00E818201817
:105A40000EF0F6F9002801D1FEF740FFC84A6319AD
:105A5000944600221B1863441A70FEF737FFC54BAB
:105A6000FFF780F801224946C34BCA542379012B22
:105A700090D0C24BFFF776F80A26FFF70CF88600A5
:105A800036187600FFF707F8BD4BFFF76BF8BD4BF4
:105A9000FFF768F804A98C46BB4A013B62441360D7
:105AA00024E7012399465B46452B00D8FDE54A468D
:105AB00002231A4391465B46772B00D8F5E54A4608
:105AC00004231A4391465B46B32B00D8EDE54A46C2
:105AD00008231A4391465B46F92B00D8E5E54A4670
