:020000041000EA
:1000000000B5324B212058609868022188439860DF
:10001000D860186158612E4B002199600221596106
:100020000121F02299502B49196001219960352056
:1000300000F044F80222904214D00621196600F024
:1000400034F8196E01211966002018661A6600F04E
:100050002CF8196E196E196E052000F02FF8012189
:100060000842F9D1002199601B49196000215960AB
:100070001A491B48016001219960EB211966A021F2
:10008000196600F012F800219960164914480160C1
:100090000121996001BC002800D000471248134993
:1000A000086003C880F30888084703B5996A0420EC
:1000B0000142FBD001200142F8D103BD02B5186610
:1000C0001866FFF7F2FF186E186E02BD00000240BE
:1000D000000000180000070000035F00212200005C
:1000E000F4000018222000A00001001008ED00E03C
:1000F00000000000000000000000000074B24E7A12
:1001000000000420F7010010CB010010CD01001009
:10011000C9010010C9010010C9010010C901001077
:10012000C9010010C9010010C9010010CF01001061
:10013000C9010010C9010010D1010010D301001045
:10014000C1010010C1010010C1010010C101001067
:10015000C1010010C1010010C1010010C101001057
:10016000C1010010C1010010C1010010C101001047
:10017000C1010010C1010010C1010010C101001037
:10018000C1010010C1010010C1010010C101001027
:10019000C1010010C1010010C1010010C101001017
:1001A000C1010010C1010010C1010010C101001007
:1001B000C1010010C1010010C1010010C1010010F7
:1001C000EFF30580103800BE00BE00BE00BE00BECA
:1001D00000BE00BEF2EB8871F03802101039021038
:1001E0003802001090A31AE71E481F49086006C88D
:1001F00081F3088810471D480068002801D019487D
:10020000F3E70DA40ECC002902D000F012F8F9E7B4
:100210001749184A002000E001C19142FCD116495B
:100220008847164988471649884700BEFDE701C937
:1002300001C29A42FBD3704710390210C00000205F
:1002400040640020909C0210000004200000042064
:10025000909C02100000032000000320000000001A
:10026000704700000000000008ED00E0000000D032
:1002700040640020AC7C00207DC700101179001084
:1002800075C70010F8B5C0460448054B10B5834249
:1002900003D0044B002B00D0984710BD40640020D1
:1002A000406400200000000006480749091A8B102E
:1002B000C90FC91810B5491003D0044B002B00D04A
:1002C000984710BD406400204064002000000000FA
:1002D00010B5074C2378002B09D1FFF7D5FF054B4C
:1002E000002B02D0044800E000BF0123237010BDA2
:1002F000D077002000000000A8EC0110054B10B5DD
:10030000002B03D00449054800E000BFFFF7CCFFF5
:1003100010BDC04600000000D4770020A8EC0110FA
:10032000F0B54746CE461F4B80B5C3589C461E4B82
:10033000C3581E001D4BC3581F0001292BD0022992
:1003400016D0002910D11A491A4A1B4B90469946DB
:100350000D00144C015114494250144A8350AC45CD
:1003600014D00122154BC254C0BCB946B046F0BDF2
:1003700013490C4C134A01510D000B49124B4250CA
:1003800090460A4A99468350AC45EAD14645E8D1A1
:100390004F45E6D1E8E70D490D4A0E4B9046994688
:1003A0000D00D6E7A0460000A4460000A8460000C5
:1003B000D2DDF40015152A007887D70094060000D6
:1003C000F5E9DC0032231500E3BD8E00D5EEE40034
:1003D0001C2918009FD9BA0030B59C466B461C7B7F
:1003E0000F230500D01703409B181B11132B1FD898
:1003F000A320CA1D400082421AD80E48EA1814549D
:1004000062461078002813D00722CC1722405118DA
:100410009A00D318DB000433EA186346C9105B1A4C
:1004200001335054585C002802D001312829F8D1FA
:1004300030BDC046440600009C460F2370B5040042
:10044000D01703409B181B11132B1FD8A320CA1DC4
:10045000400082421AD801250D48E2181554624620
:100460001078002812D00722CE17324051189A0077
:10047000D318DB000433C910E2186B1A63445054DC
:10048000585C002802D001312829F8D170BDC0463F
:100490006C0600007047C0467047C046C9239B00E9
:1004A00070B5C518041D0600A54207D020002822FB
:1004B000202128340AF026FDA542F7D10A4BF01876
:1004C0001433F318984203D0142200210AF01AFDC5
:1004D000064BF0181433F618B04203D01422002152
:1004E0000AF010FD70BDC046440600006C06000016
:1004F000F0B5DE464E464546574683462B23E0B5CB
:10050000D14C5B44A5441493D023DB005B4415938A
:100510000023CE4DCE4E1393CE4B5D44041D5E445E
:1005200012950E94109311961695179418965A4694
:10053000C94BD35C002B13D1C8230E989B002822F3
:10054000C1181DF0B7FD00280AD1129B1A781B7D37
:100550009A4205D1119B1A781B7D9A4200D1EBE19A
:10056000A022002192001AA80AF0CCFCBB4B00226A
:100570001B6856AF0D93119B6AAD1B78B8460F935D
:100580002EAB059338AB089342AB07934CAB9C461C
:100590007EAB069388AB9A4663460B93534609930A
:1005A0005B46199360AB9C4692A89CA90A9574AFD0
:1005B0000E9B9B5C99463733DBB2322B03D8109CE1
:1005C0009B00E3589F464B46203B5E2B00D900E240
:1005D0004B4600245B004B44A1469B007D3BFF3B08
:1005E0000C940F9C002C75D10D9CE55CE3182E003B
:1005F000059D2E705C782500089C25709C78250050
:10060000079C2570DC780B9D2C701C7925004446D6
:1006100025705C792500644625709C790A9D2C70B4
:10062000DC793C701C7A2500069C25705C7A099D5B
:100630002C709C7A0470DB7A0B700C9B002B00D121
:10064000BEE00024A2464C462823012C00D1BEE087
:10065000022C00D0A7E11AACA24410242500544675
:10066000A5541AAC1B1908249C54059B0132013374
:100670000593089B013701330893079B0130013331
:1006800007930B9B013101330B93012398449C4446
:100690000A9B01330A93069B01330693099B01339E
:1006A0000993272A84D1199B9B46149B1A7813001F
:1006B0003733DBB2322B00D9D4E069499B00CB58E9
:1006C0009F46002480230C940334A1460F9CDB003A
:1006D000002C89D00D9CE55C059CAA4625706578A8
:1006E0002E005546354365700D9CE3185C78A24694
:1006F0005546089C257065782E0055463543657033
:100700009C78A2465546079C257065782E00554674
:1007100035436570DC780B9EA246347074782500F2
:1007200054462C4374701C790A9EA2464446554692
:1007300025706478250054462C4325004446657096
:100740005C79A24664465546257064782500544677
:100750002C432500644665709C79A24634707478F9
:10076000250054462C437470DC79A2463C707C789A
:10077000250054462C437C701C7AA2465546069CA4
:10078000257065782E005546354365705C7A099E64
:10079000A24634707478250054462C4374709C7AB9
:1007A000A24604704478250054462C434470DB7AFA
:1007B0004C780B7023434B700C9B002B00D040E710
:1007C0007824A2464C46A023012C00D040E71AAC66
:1007D000A244082425005446A5541AAC1B19102421
:1007E0009C5442E7DC2300240C940334A1469B0074
:1007F000F7E6D023F7E70024D0230C940134A14678
:100800009B00EEE6D02300240C940234A1469B000A
:10081000E7E6C423E7E7C423F5E7002480230C942C
:100820000234A146DB00DCE6EE23DCE70024CA2329
:100830000C940434A1469B00D3E60124E023A14696
:100840005B000C94CDE6C04614FDFFFF440600009B
:100850006C060000A8EC011094060000145E002055
:1008600074ED01101300203B5E2B00D91EE15300F4
:100870009B18002100229B007D3BFF3B77200D9EB3
:1008800016AFF45C10373C54F3185C7828303C54B5
:100890009C7828303C54DC7828303C5418201C7953
:1008A000FF303C5440205C79FF303C5468209C79F8
:1008B000FF303C549020DC79FF303C54B8201C7A47
:1008C000FF303C54E0205C7AFF303C549C7A7E48F8
:1008D0003C54DB7A7D4816AC10342354002900D1F7
:1008E00082E028230021012A00D182E0022A00D0E0
:1008F0008AE01AAA94461022614427310A7008221D
:10090000634427331A70129B0F9A1B78002A65D014
:10091000002B00D19BE06E4B59466E4A8A580292DA
:100920000193A02201231AA9039100930020139997
:100930000F33520007F0A2F9129B159A013312935C
:10094000139B10331393149B283314930E9B28335B
:100950000E93119B01331193934200D0E7E5C92018
:10096000C82280001799920058449A46169D189EF6
:100970000AF0CEFACB23DB005B4407CD07C306CDDC
:1009800006C3534607CE07C306CE06C30022594608
:10099000514BCA54BB239B009D44F0BCBB46B2469E
:1009A000A946A046F0BD032C0AD11AACA2441024DB
:1009B00025005446A5541AAC1B1928249C5454E60F
:1009C0004B46042C00D050E60C33037010330B70F0
:1009D0004BE600240423A1460C9402E6002B2FD002
:1009E0005A463E4BD35897E7A0237821012A00D0DE
:1009F0007CE71AAA94460822614427310A70102223
:100A0000634427331A707EE7032A0AD11AAA944650
:100A10001022614427310A702822634427331A7058
:100A200071E7042A00D06EE71021274B16A8401862
:100A30000C32C254254B16A810324118CA5462E732
:100A40005A46274BD3585946244A8A5867E7204BC1
:100A5000F9E7802300210222DB000FE7C4230021F5
:100A600002229B000AE7D023002102229B0005E717
:100A7000C423002103229B0000E7EE230021032270
:100A80009B00FBE6DC23002103229B00F6E6D0233B
:100A9000002103229B00F1E6D023002101229B00CC
:100AA000ECE6802300210322DB00E7E6042300219B
:100AB0000022E3E6E023012101225B00DEE6CA23F7
:100AC000002104229B00D9E6070200002F0200004B
:100AD0005252F000A846000094060000A446000010
:100AE000A046000010B5040002490AF017FA2000E1
:100AF00010BDC046AC460000F0B5C64600B5027851
:100B00000E00303AD1B20300092932D8451C407892
:100B100001003039CCB2092C18D89000821898788E
:100B200052008A1801003039CCB29F1C092C0BD816
:100B3000D878844630204042604404000020092CCC
:100B40003FD880BCB846F0BD2B003D000221040018
:100B50008C432C2C0FD000280BD100235001801A7D
:100B600080008018C000C0183060431E9841C0B299
:100B7000E7E70020E5E768783038C1B20929F8D8FE
:100B8000D9788C463039092928D8810009184900BC
:100B9000614430390C00302149428C461879844434
:100BA0006146C9B2092914D85B790020190030398F
:100BB0000929C6D9002BC4D1A3001B195B006344CB
:100BC000CCE7900082185200DD1C60463B008A187A
:100BD000BCE70028CDD10A236343BFE76346002B5F
:100BE000C7D164234343B9E7F0B5CE46474680B545
:100BF00013788946844611009DB0002B60D00B27E6
:100C000001223F2603AD6F4408E018004B78210015
:100C1000B854002B12D00132642A2ED01800C238EA
:100C20004C1C0128F1D848788046B04380281AD05F
:100C3000180043462100B854002BECD10023AA1819
:100C4000137062461268D4681F4A94421FD04A4605
:100C5000009300212B0060461201A0471DB0C0BCCC
:100C6000B946B046F0BD9C01F8234046DB001C406D
:100C700030408B7820430231CAE70B326A440023AC
:100C8000137062461268D4680F4A9442DFD1484616
:100C90001328E3D802000D492C7862445354002CE9
:100CA000DCD0002283001B18DB0004336344A91846
:100CB0009C544C78002CD1D00132282AF7D1CDE7B2
:100CC00003AD2A00DBE7C046D9030010440600004C
:100CD000F0B54646D6464F46C0B5A54CA54BA544F3
:100CE000C45C80460D00002C00D101E10B889C46BD
:100CF000A14B6344632B00D9FAE08A78531E9146D6
:100D00000B2B00D9F4E0CB789A46002B00D1EFE012
:100D10009A4BCAAE83CB83C6022A00D110E14B4660
:100D2000CAAA9B18013B1F78574500D2E0E09448BF
:100D300011F0E6FE08239843C0B2002800D0D7E0A7
:100D4000904811F0DDFE08239843C0B2002800D07F
:100D5000CEE01022002108A80AF0D4F810220021C9
:100D60000CA80AF0CFF828212B88874A18A80BF086
:100D700081FCE9782B880191A978844A009104A824
:100D800010210BF077FC012218A932A810F03EFDCB
:100D9000002842D18023369ACA9091461600DB0182
:100DA0009A4200D3A4E0D4204146C0000918CAAB3F
:100DB00032A811F001F9002800D099E0CA9B4B45F8
:100DC00000D095E032A811F0EFFC002800D08FE0B1
:100DD0000A2E28D9424667496D487318D3189A4697
:100DE0006C4B10189B1A984606E00378471C0A2B98
:100DF00006D03800574516D043461B18002BF4D1B7
:100E00000600471C0A2204A901301DF053F90028EE
:100E1000EFD1F37A2C2BECD16BE00438C0B201286F
:100E200066D800239946EC68002C11DBFA212000DB
:100E3000890009F087F9FA2106008900200009F0ED
:100E400081F933000091544A102108A80BF012FCDC
:100E50002C69002C11DBFA212000890009F072F9BD
:100E6000FA2106008900200009F06CF93300009196
:100E7000494A10210CA80BF0FDFB0CAB019308AB09
:100E80004021464A009322A804AB0BF0F3FB444BED
:100E900010AA62CB62C262CB62C2196801381160CB
:100EA000998891809B7993713E2821D8322218A984
:100EB000CAA810F0ABFC00281AD14B4603AD002B9A
:100EC00020D110A803931DF05DFB03AD06000200C6
:100ED0002B0010A9CAA811F09FF9002802D1039B8A
:100EE0009E420FD0CAA811F007FBCAA811F05CFC03
:100EF00000242000B123DB009D44E0BCBA46B1468B
:100F0000A846F0BD002322A803931DF03BFB2B0055
:100F10000400020022A9CAA811F07EF90028E1D13C
:100F2000039B9C42DED1CAA811F0E6FA0400CAA8CD
:100F300011F03AFC0443E4B263425C41E4B2D8E706
:100F40006646B30700D0EAE66421300009F022F9D2
:100F500089B21D27002900D0E6E691313000FF312B
:100F600009F018F989B2002900D1DDE6D7E6C046BC
:100F700078FAFFFF9506000030F8FFFF9CEE0110A5
:100F800040EE01104CEE01105CEE011074EE011009
:100F90009F06000061F9FFFF84EE011090EE011042
:100FA000ACEE0110F0B5C64600B51C4B84B286B05D
:100FB000E31801900020632B18D86B469A79531ED2
:100FC00017000B2B12D86B46DB799846002B0DD0FF
:100FD000134B03AD43CB43C5022A0BD003AABB1866
:100FE000013B1D78002042469542404106B080BC3E
:100FF000B846F0BDA307F1D16421200009F0CAF87A
:1010000089B21D250029EDD191312000FF3109F071
:10101000C1F889B20029E5D0E0E7C04630F8FFFF0B
:101020009CEE0110F0B5CE46474680B505885C4B76
:101030000400EB1885B0632B03D88078431E0B2B7C
:1010400005D9002005B0C0BCB946B046F0BDE37874
:101050009846002BF5D0534B9946494601ABC4C97D
:10106000C4C3022858D001AB1B18013B1B78434571
:10107000E7D34D4B9D421DD043464A460133DBB278
:10108000E37001A99C469846C8CAC8C102285ED030
:1010900001AA1218013A1278944509D901230130A6
:1010A000C0B2E3700D281BD101230135A370258048
:1010B0000120C7E70C281ED041464A460131C9B27B
:1010C000E17001AB8846E0CAE0C302280BD001AB57
:1010D0001B18013B1B788B42EAD201230130E370DD
:1010E000A0700120AEE743461C2BE1D90423FF3357
:1010F00001206380A6E743461F2BA2D04A46013356
:10110000DBB2E37001A9C1CAC1C16A46D27B9A426F
:10111000CED20123E370C7E7AB072ED164212800AC
:1011200009F038F889B2002931D1C82128004900D6
:1011300009F030F889B2002929D06B465B799845CF
:1011400000D97EE743460133E370DBB29846AB0734
:10115000C9D16421280009F01DF889B2002907D1FE
:1011600091312800FF3109F015F889B20029BAD170
:1011700043461D2BBAD8012064E76B465B7998453E
:1011800000D95EE7084B9D4200D075E794E74346DF
:101190001D2B00D955E70133E370DBB29846D8E741
:1011A00030F8FFFF9CEE011033080000F0B5DE467A
:1011B000454657464E46E0B5C34C0D00A544049342
:1011C000F0AB1B7803929B46C04BC35C002B04D052
:1011D0000868FFF7E7FE00280AD100242000E72373
:1011E0009B009D44F0BCBB46B246A946A046F0BD5C
:1011F000B74811F085FC0824A043C0B20028ECD108
:10120000B44811F07DFCA043C0B20028E5D1EA78D3
:101210002B880192AA780D2100920EA8AE4A0BF0FD
:1012200029FA0CAF2B6838000C93FFF7FBFE041E65
:101230000790D2D0FA783B880192BA780D210092BB
:1012400012A8A54A0BF016FAE9782B880191A97823
:10125000A24A009116A840210BF00CFA0A2216A906
:101260004EA810F0D3FA0028B7D15D2226909C49F1
:1012700026AB4EA810F0D0FF9A4A071E03D1269B3A
:101280005D2B00D140E112AB01930EABA021009386
:1012900026A80BF0EFF900260027934BB8469A4694
:1012A000924B079A9946924B0994089306950EE043
:1012B000002E59D1002200265146043143468A4669
:1012C00049460133043198468946102B59D041468E
:1012D000069B1B89CB40DB07EED5002AE8D0002E09
:1012E000E8D05B46002B3CD153461E680BAC032272
:1012F0000021200009F006FE327800250DAB002AFF
:1013000021D005935C2A21D03B2A1FD02C2A1DD046
:101310000A2A20D02270657020000D951DF032F948
:10132000210007000200059B4EA810F075FF002861
:1013300002D10D9B9F4202D000260022BCE77278AA
:101340000136002ADED10022079EB5E75C236270D9
:101350002370A570E0E7089A138823809378A37020
:10136000DAE74B461E68C1E70D9262490DAB0232C7
:101370004EA810F051FF00289CD10D9B022B99D153
:10138000AFE7099C069D002A45D0002E00D02BE235
:10139000594A039BA021009326A8049B0BF06AF9ED
:1013A000EF68002F75DB5B46002B00D018E1FA21B7
:1013B000524E38008900039608F0C4FE0191FA21CC
:1013C0003800890008F0BEFE32000090A0214C4B8E
:1013D00026A80BF04FF92F69002F12DB494CFA2198
:1013E0003800890008F0AEFE0191FA21380089002A
:1013F00008F0A8FE23000090A021039A26A80BF075
:1014000039F94EA811F078F84EA811F0CDF916A8C8
:1014100011F008FAE1E6039BA0210093364A049BF1
:1014200026A80BF027F9002EBAD00DAB9846002362
:1014300026A80D931DF0A6F843460200070026A932
:101440004EA810F0E9FEEE68002803D10D9B9F42E4
:1014500000D1F0E0002E1CDB5B46002B00D090E2B8
:10146000FA21264F30008900039708F06BFE0191A6
:10147000FA213000890008F065FE3A000090A021B2
:101480001F4B26A80BF0F6F82F691E4C002FA6DA8A
:10149000B7E72F69002FB4DB5B46002B00D049E291
:1014A000FA213800890008F04DFE0191FA21380038
:1014B000890008F047FEA0210090124B0F4A26A891
:1014C0000BF0D8F89DE7C04664FCFFFF95060000CE
:1014D00040EE01100CEF01101CEF01102CEF011079
:1014E0005CEF0110BCEF0110600E0210A00E0210A4
:1014F000B4F001102CF0011038F0011080F0011050
:10150000A4F00110FCEE011012AB01930EABA02170
:10151000009326A80BF0AEF826A80D971DF032F820
:101520000DAB0700020026A94EA8984610F074FEE5
:10153000002800D0AFE60D9B9F4200D0ABE6002311
:1015400023220D93C54943464EA810F065FE00289E
:1015500000D0A0E60D9B232B00D09CE65B46C04E3E
:10156000002B00D1BF4E0BAF03220021380009F041
:10157000C9FCA946412325005C2B25D03B2B23D059
:101580002C2B21D00A2B25D03B7000237B7000230D
:1015900038000D931CF0F6FF4346040002003900AA
:1015A0004EA810F039FE002802D10D9B9C4203D0BA
:1015B0002C0000264D466FE673780136002BDBD1F8
:1015C0002C00079E4D4667E65C227B7000233A7034
:1015D000BB70DCE7A44B1A883A809B78BB70D6E7D7
:1015E000FA21A24E38008900039608F0ABFD019164
:1015F000FA213800890008F0A5FD32009C4B0090CC
:10160000A02126A80BF036F82F69002F00DAF8E6A3
:10161000FA213800890008F095FD0191FA2138007F
:10162000890008F08FFDA0210090924B039A26A814
:101630000BF020F8E5E6002E00DA6CE18E490D9003
:10164000434602224EA8894610F0E6FDEF680028C6
:1016500000D0A8E60D9B022B00D0A4E65B46002B31
:1016600000D06BE1FA21814B38008900039308F028
:1016700069FD0191FA213800890008F063FDA0217D
:1016800000907E4B039A26A80AF0F4FF0BAF0322CA
:101690000021380009F036FC08AB78331B78002BAA
:1016A0002FD0A24626AE5C2B00D18BE03B2B00D185
:1016B00088E02C2B00D185E00A2B00D18EE03B7016
:1016C00000237B70002338000D931CF05BFF434622
:1016D0000400020039004EA810F09EFD002802D13F
:1016E0000D9B9C4208D02F69002F00DA89E65B46EB
:1016F000002B00D172E68BE773780136002BD2D134
:1017000054462B69002B00DA89E0002302220D9356
:10171000494643464EA810F07FFD2F690028E6D1C8
:101720000D9B022BE3D1FA213800890008F00AFD55
:101730000E00FA213800890008F004FD5B46002BFA
:1017400000D110E10090A0214A4B039A019626A8EF
:101750000AF090FF0BAF03220021380009F0D2FB02
:1017600008AB78331B78002B59D0AA46A1464546D2
:1017700026AE1FE03B2B1FD02C2B1DD00A2B27D0D1
:101780003B7000237B70002338000D931CF0FAFEA1
:101790002B000400020039004EA810F03DFD002887
:1017A00000D02EE60D9B9C4200D02AE673780136CD
:1017B000002B32D05C2BDDD15C227B7000233A7091
:1017C000BB70E0E75C227B7000233A70BB7079E766
:1017D000254B1A883A809B78BB70D4E7224B1A8835
:1017E0003A809B78BB706DE7002304220D93244957
:1017F0000DAB4EA8984610F00FFD224A002800D0ED
:10180000C7E50D9B042B00D0C3E5039BA0210093EB
:1018100026A8049B0AF02EFF09E64C4655462B7D70
:10182000002B5CD0002308220D93174943464EA895
:1018300010F0F2FC002800D0E3E50D9B082B00D04F
:10184000DFE50BAF03220021380009F05BFB2B7DA5
:10185000002B44D0A1461435444637E008F001106F
:10186000DCEE0110CCEE0110B4F0011080F001109C
:1018700094F00110ECEE011050F00110A4F00110F2
:1018800030F0011038F0011054F001103B2B1FD044
:101890002C2B1DD00A2B47D03B7000237B700023DC
:1018A00038000D931CF06EFE230006000200390084
:1018B0004EA810F0B1FC002800D0A2E50D9B9E427E
:1018C00000D09EE56B780135002B07D05C2BDDD175
:1018D0005C227B7000233A70BB70E0E74C4600232B
:1018E0001D220D932F4943464EA810F095FC002869
:1018F00000D086E50D9B1D2B00D082E54EA810F090
:10190000FBFD05004EA810F04FFF2843C0B2002891
:1019100000D163E47BE52B69002B00DA7FE7224BE3
:101920009946224B0393F0E6214B1A883A809B7824
:10193000BB70B4E71D4B1F4C039350E5FA211B4BC2
:1019400038008900039308F0FDFB0191FA2138006B
:10195000890008F0F7FBA0210090174B039A26A8F6
:101960000AF088FE92E6FA2138008900019608F014
:10197000E9FBA0210090114B039A26A80AF07AFEF9
:10198000E8E6FA21094F30008900039708F0DAFBF6
:101990000191FA213000890008F0D4FB3A00064B8F
:1019A00000902DE660F0011050F0011080F0011061
:1019B000B4F00110ECEE011094F00110FCEE0110F7
:1019C00070B504000D001CF0DDFD030000200A2BA3
:1019D00002D123792D2B00D070BDE3792D2BFBD1C3
:1019E00030225242944623789C446346DBB2092B52
:1019F000F2D861788918CBB2092BEDD8A278303AA9
:101A0000D3B2092BE8D8E378303B1E00DBB2092BB8
:101A1000E2D86379303B092BDED8A379303B092B20
:101A2000DAD8237A303B092B29D8637A303B092B4B
:101A300025D8FA2360469B004343642041439B1909
:101A40005B189100521852009B182B806379303B31
:101A50009A009B18A2795B00303A9B18AB70237AEE
:101A6000303B9A009B18627A5B00303A9B18EB700F
:101A700068882B8800041843FFF794FAACE700202D
:101A8000AAE7C046F8B504000D006B4A002109F032
:101A900039FA6A4BAA882360042323716B68E280B9
:101AA0001A0C1B0E6372664B2272EB5AAA89638171
:101AB0002B886282A3812B89E3816B892382EB6867
:101AC0001A0C1B0E63752B8A2275E3826B69002B3F
:101AD00001DA01235B42A361AB69002B01DA012328
:101AE0005B428026E361202376012900A3512B006D
:101AF0001C317D33994206D020006122203009F04C
:101B000007FA8123A35180235B01E7582B004C4A3D
:101B10008033AE18781E1D009E4243D02A88E319F8
:101B2000E255120A5A70AA789A70EA78DA706A68EE
:101B3000110A1A715971110C120EDA712A899971F0
:101B40001A72120A5A72EA68002A01DA0122524213
:101B5000110A9A72D972110C120E5A732A691973EA
:101B6000002A01DA012252423800110A9A73D9730D
:101B70001130110C120E1974290022542A003B0056
:101B8000143175321233914251D06122E01809F0BC
:101B9000BFF93800733772307835AE42BED180233A
:101BA0005B01E750002F44D00123661C3618250046
:101BB000012024495B422A78013553405A080340EA
:101BC0005B420B405A405308024052420A40534085
:101BD0005A0803405B420B405A40530802405242AD
:101BE0000A4053405A0803405B420B405A40530896
:101BF000024052420A4053405A0803405B420B40A5
:101C00005A405308024052420A405340B542D2D192
:101C1000DB43E219190AE3555170190C1B0E917040
:101C2000D3708022043752012000A750F8BD1F0056
:101C3000B2E70023EDE7C046041000004C505331DA
:101C4000080F00002083B8EDF0B54546DE46574644
:101C50004E46E0B57E4C7F4BA544CB1880460192A2
:101C6000012B0DD97C4BCB18012B09D90026300054
:101C70007A4B9D44F0BCBB46B246A946A046F0BD97
:101C800043465B18DA1E10781A1F127800021043C0
:101C90009A1E127844460127120402430120013B98
:101CA0001D78261F2D0615436D4A76187F4223782E
:101CB00001347B405F0803405B4213405F407B0878
:101CC00007407F4217407B405F0803405B42134060
:101CD0005F407B0807407F4217407B405F0803401E
:101CE0005B4213405F407B0807407F4217407B40C8
:101CF0005F0803405B4213405F407B089C460740FF
:101D00007B42674613405F40A642D0D1FB43AB42C3
:101D1000ACD1434642469B7852781B0412021343CF
:101D20004246127813434246D278120613434D4A74
:101D300093429BD1434642465B7912791B0213437F
:101D40000093012B71D0022B7DD0032B73D1464B16
:101D5000994200D08AE702AB9A4600211800434A14
:101D600009F0D0F8012352465370414A514622925D
:101D700084228B50853A8B33CA500433CA500121D8
:101D80003C4C3D4840AB3D4D02AE1C8058805960F4
:101D9000DA601A61AD197833AB42F4D1434642465A
:101DA0001B7AD2791B0412021343424692795146A0
:101DB00013434246527A504612061343524653602A
:101DC00043462E4A9B7A8B5442462D49D27A42543E
:101DD000009901295AD04146097B012900D945E7DC
:101DE00001700099042900D09FE14146497B0229F6
:101DF00000D93BE7002441701F21002000269142BA
:101E000060410139994266410E25064043464146EC
:101E10005A195378495D1B020B4351460B81937845
:101E200004358B72D378CB723BE0DF231B019942E0
:101E300000D01BE78FE7042B00D017E7114B994226
:101E400000D013E787E7104B994200D00EE782E7F6
:101E5000E4F0FFFF8FF1FFFF10F2FFFF1C0F000007
:101E60002083B8ED4C505331710E00000C0F000070
:101E7000EA070911EA07000009110000080F000035
:101E8000090F0000720E0000F10D00000024002078
:101E900000261D31994260410131914266410C2575
:101EA0000640434642465B195978525D0902114388
:101EB0009A78DC7812040A43240614435246D4600C
:101EC0005A79197912020A43514628000A82DA79AE
:101ED000997912020A43197A0A30090411435A7A8D
:101EE00012060A43511C04D0A04F511EB94200D91A
:101EF00017E151464A614246D97A125C0902114300
:101F00001A7B5B7B12040A4329001B0613430E3124
:101F10005A1C04D095485A1E824200D915E15246F7
:101F20004144936109A8612208F0F2FF6F239946AA
:101F3000A944002E0FD0002C00D114E152460D33DD
:101F4000D35C002B00D00EE11389002B03D09068E6
:101F5000FFF728F80600524653465146127F5E208E
:101F60001C337D31002A0CD000240025203AD2B247
:101F700090426C4101332640994215D01A78002ACC
:101F8000F2D15A1C91420FD0531C99420CD0507878
:101F90000028F6D0931C994206D09278002AF0D0FF
:101FA0001A00531C9942F2D18023554653449B4654
:101FB0000027F5355B461F805F80009B022B0FD901
:101FC00043464C4640464B44DA7899785B78005D4E
:101FD0001B0203435846038004238170C270994456
:101FE00043464B445A7899781202090448460A43FA
:101FF0004146095CD8790A43D978000209060A43A8
:1020000059464A605A79197912020A4359460A8197
:1020100049461A7A0A31120410439A7910435A7ABF
:1020200012060243501C03D0504C501EA04274D8DC
:102030005846C260DA7A187B120200040243404616
:10204000415C5B7B0A4349461B0613430E315A1C15
:1020500003D046485A1E824250D85C465A46143431
:10206000136120006122414408F052FF6F2399441C
:10207000002E50D05B465B68002B4CD05B46742230
:102080009B5C002B47D15B461B88002B04D05B4632
:102090001868FEF787FF060023785E22002B20D108
:1020A0000134AC420BD02378002B05D10134A5427A
:1020B00005D02378002BF3D00134A542F6D1782344
:1020C0009B442B4B02AA9B1878359B4500D071E7A7
:1020D000002E00D1CAE55146264A019808F018FFA3
:1020E000C5E53900203BDBB29A42794101340E400C
:1020F000A542E4D02378002BD8D0F2E701235C4638
:102100005A465B421434136120006122414408F0B6
:10211000FFFE6F2399440026BEE7012200265242AB
:1021200086E7012200265242E3E61F210024002018
:10213000002691426041013999426641009B0D257C
:102140000640032B00D161E6ABE6012352465B4219
:1021500093614144612209A808F0DAFE6F23994691
:102160000026A944F7E60026F5E6C0463E420F00E9
:10217000080F00000A0F0000F0B5CE464746E922DE
:1021800080B55F4C1201A5448C000021050008F0C9
:10219000B9FE5C4B0122E15802A80FF037FB031F88
:1021A000DBB20400012B04D9002809D00322564BCE
:1021B000EA542800554B9D44C0BCB946B046F0BD1A
:1021C000069A534B17009B18012B07D9514ABB188D
:1021D000012B03D90023019098460AE000233A001E
:1021E0000193290001AB02A80FF0E6FE01230400D1
:1021F000984602A810F0D8FA0443E4B2002CD5D1D6
:1022000001220121444E454C4548D8AB6E44524210
:102210001C8058805960DA601A6178339E42F7D189
:102220004346002B02D0019BBB4203D00222364B17
:10223000EA54BEE73B4B2A689A42F7D13B00103B79
:102240001A009946AB689A42F0D1391F6818427853
:102250006B5C12021A4383781B041343C278120684
:102260001A439446002948D001232E0001202C1F38
:102270002D49E4195B42327801365A405308024036
:1022800052420A4053405A0803405B420B405A40B6
:102290005308024052420A4053405A0803405B42EE
:1022A0000B405A405308024052420A4053405A08D9
:1022B00003405B420B405A405308024052420A40DE
:1022C00053405A0803405B420B405340A642D2D1D0
:1022D000DB439C45AAD1280049469AAA0C30FFF757
:1022E000B3FC0028A2D06A68104BEA504A46104B53
:1022F000EA500122044BEA545BE701235B42E7E723
:1023000084EEFFFF100E02108C0E00007C11000006
:102310007FF1FFFF00F2FFFF70110000EA070000ED
:10232000091100004C5052312083B8ED840E00009A
:10233000880E0000F0B5C64600B598462E4B2F4CCF
:10234000C35CA5440F000400002B41D02C4B9A42E3
:1023500037D900216846FFF70FFFE9231B016B44C3
:1023600018000121FFF708FF6B46264A9B5C032BF0
:1023700027D0E9206946000109188A5C032A20D089
:10238000012B27D0012A19D1E9216A461E4B0901E8
:102390005218D358E92212016A4401201100D322B5
:1023A000D200A050194A3800A350194BCA584346CE
:1023B0000C311A6008F0ACFD012003E0002013434B
:1023C00000D00320E9235B019D4480BCB846F0BDEA
:1023D0000220F7E70C4B00209C466B4661465B5899
:1023E0006946012ADBD1E926654636018A19525928
:1023F0009A42D4D91300CDE795060000E0E2FFFF32
:10240000710E00008C0E0000840E00009C0600007F
:10241000880E0000F0B54646D6464F46C0B5654B1F
:10242000654CC55CA544884604001600002D06D006
:10243000624BC35C002B02D1614B9A4209D000254C
:102440002800FC235B019D44E0BCBA46B146A84687
:10245000F0BD5C4FC3590133F1D05B4810F050FB25
:10246000F7231842EBD1D323DB00E35800215A4273
:1024700053419BA8DBB2554A994608F043FD544BA3
:102480009D229B93E359920001339C936B464146F6
:102490009E529EA8320008F03BFD4E4B01216B443A
:1024A0009C4601234C4A9BA85B42067801305E4063
:1024B00073080E407642164073405E080B405B4244
:1024C00013405E4073080E407642164073405E082B
:1024D0000B405B4213405E4073080E40764216404C
:1024E00073405E080B405B4213405E4073080E4031
:1024F0007642164073405E080B405B4213407340C7
:102500006045D2D19B206946DB436E468000334A4A
:1025100009188B523618190C0232B154304A1B0E6E
:10252000B3544A462F4B9200D15802A80A220FF00A
:102530006DF9002800D082E7244E01AB32009BA940
:10254000019002A80FF068FE070002A80FF0D4FF68
:10255000804602A810F028F9019B9A46B34225D183
:102560003B00424613431843C0B200281ED11E4B05
:1025700049466B441800FFF7FFFD6A461A481B4B9B
:102580001218D35C012B11D103006B445246180082
:102590009BA91BF08FFD002808D1D3234A46DB00FE
:1025A000E250084AA3580133A35049E70122034BE4
:1025B000E25444E79506000080E0FFFF9606000025
:1025C000720E00009C06000040EE0110820E00001A
:1025D0004C505231EA1000002083B8ED7E0E00000E
:1025E000810E0000100E0210F01000008C0E000092
:1025F000F0B54646D6464F46F223C0B51B018B4C7C
:10260000C358A54488460400002B00D0EBE0884B5B
:10261000C35C002B13D00379012B00D1F3E0854B71
:102620008549864A601864210AF024F80020BE23F8
:102630009B019D44E0BCBA46B146A846F0BD804B24
:102640007F4D6B441800FFF71DFA80226846216811
:1026500052010B68401986581B6A7A4A8946934290
:1026600000D0D2E0784BCB5C002B00D1C4E0774B9C
:102670000D00CB5C002B00D0BEE0754B9E4200D01D
:10268000BAE0744FCB59013300D1B5E0724810F075
:1026900037FAF723184200D0AEE0D323DB00EB5823
:1026A00000215A4253419AA8DBB26C4A9A4608F07C
:1026B00029FC6B4B9C229A93EB59920001339B931C
:1026C0006B469E525E4B32006B4419009DA808F089
:1026D0001FFC01235B429C460121624A9AA8654681
:1026E000037801306B405D080B405B4213406B4048
:1026F0005D080B405B4213405D406B080D406D422E
:1027000015405D406B080D406D4215405D406B0803
:102710000D406D4215405D406B080D406D42154007
:102720005D406B080D406D4215406B405D080B40ED
:102730005B4213405D404C4BAC466B449842CED15B
:102740009A206946EB436D468000484A09188B522F
:102750002D18190C0232A954454A1B0EAB5452468F
:10276000444B9200D15802A80A220FF04FF80028DB
:1027700042D13A4A01AB9AA9019002A80FF04CFD50
:10278000060002A80FF0B8FE050002A810F00CF831
:10279000019B324A1F0093422AD133002B43184336
:1027A000C0B2002824D1344B51466B441800FFF7C7
:1027B000E3FC6A463049314B5218D35C012B17D1E8
:1027C0002D4B3A006B4418009AA91BF073FC0028AB
:1027D0000ED1D32349465246DB00CA501D4A8B58BE
:1027E00001338B5018E00379012B0AD0244B17E7F3
:1027F00001224946154BCA542379012B13D0214B92
:102800000EE7214B0CE7214B0AE70D493200484601
:10281000694498470028EFD041461D4A201D08F022
:1028200077FB012003E71B4BFAE6C04680D0FFFF91
:10283000240F00001CF10110A30F000078F101101B
:102840007C1F00001524001095060000960600006D
:10285000720E00009C06000040EE0110820E000087
:102860004C5052312083B8EDE61000007E0E00007F
:10287000810E0000100E0210EC1000008C0E000003
:10288000D8F001105CF10110B8F00110F0F0011067
:102890000A0F00003CF10110F0B55746DE464E46E7
:1028A0004546F1220100E0B5C74C0768A544120176
:1028B00005908A5838688369092A00D111E2C34A11
:1028C0004979934200D012E2C14BFB589A46C14B62
:1028D000FB589946C04BFB589846012900D123E28A
:1028E000022900D1E7E1002911D1BC4BBC49BD4A06
:1028F0000E0015009C46B64C3B51B64BF950B64BFA
:10290000FA50E24500D1E5E10122B74BFA54836861
:10291000B64A934200D0F4E1C9239B00FE183D1D46
:10292000B54207D0280028222021283508F0EAFAED
:10293000AE42F7D1AE4B14220021F81808F0E2FAAB
:10294000AC4B14220021F81808F0DCFAF2230C201A
:1029500005991B01CB5840180C008146002B0DD067
:10296000A54A885C1F21C01A1F3007F013FCA4463B
:102970000B015B1ADB0084339C44E1460B220021EF
:102980001AA808F0BFFA4B461868FEF70BFB0028A0
:1029900000D0B9E1059B1B79012B00D1C2E1974B17
:1029A00049464968964A00911AA80B2109F062FE2F
:1029B00028AB9B4680211AAB5846924A09F05AFE32
:1029C000059B18685B461B78002B01D102F02FF99C
:1029D000C72548AC0C9416AC2D193F24A446F82406
:1029E000E40001225946A04682461C00C23C4E1C0F
:1029F000012C00D8BBE03100AB540B78002B00D188
:102A0000C9E00132642AF0D12C225046FF3216ABC5
:102A1000D218002313700368DE687B4B9A469E42EF
:102A200000D0C4E00122724B0C99C2540A780023F2
:102A30000430002A07D0C254CA185278002A02D0A3
:102A40000133282BF7D1059B1B79012B00D1B9E06D
:102A50006E4A059C8021A368584609F00BFE5B4630
:102A60001B782068002B01D102F0DEF83F24A44639
:102A7000F824E40001225946A04606901C00C23CFE
:102A80004E1C012C00D8C9E03100AB540B78002B50
:102A900000D1D7E00132642AF0D12C2216ABFF32EC
:102AA0000698D218002313700268D668564500D0E5
:102AB000D2E04F4A0C99821853700A782C30002AC1
:102AC00007D0C254CA185278002A02D00133282BEA
:102AD000F7D1F223059A1B01D358002B00D1C7E090
:102AE0001379012B01D102F051F8412310684849B4
:102AF0003F24A446F824E4000122A04606901C00CE
:102B0000C23C4E1C012C00D8BDE03100AB540B7808
:102B1000002B00D1CBE00132642AF0D12C2216AB7D
:102B2000FF320698D218002313700268D668564503
:102B300001D002F072F82E4A0C99821893700A782C
:102B40005430002A07D0C254CA185278002A02D042
:102B50000133282BF7D1F123059A1B01D358092BF8
:102B600001D901F065FC2B4A9B00D3589F464C7855
:102B7000604627008743802F00D03CE740469B01FA
:102B80000340604604402343DBB20231AB540B7870
:102B9000002B00D035E70C9B50469A180023137089
:102BA0000368DE68184B9A469E4200D13AE701233B
:102BB0000022009300210C9BB047059B1B79012B41
:102BC00000D045E7144A44E75CFCFFFF21030010F6
:102BD000A0460000A4460000A8460000D2DDF40094
:102BE00015152A007887D700940600009D04001070
:102BF000440600006C0600000C0F000080F101107C
:102C0000A8FA0110B0FA0110D903001094F10110D4
:102C1000A4F10110B00B021084F101104C78604651
:102C200027008743802F00D02EE740469B010340BA
:102C3000604604402343DBB20231AB540B78002BD7
:102C400000D027E70C9B06989A180023137002689F
:102C5000D668564500D12CE71022009300210C9B2A
:102C6000B047F223059A1B01D358002B00D037E759
:102C7000F1231B01D358092B01D901F0D9FBE34AF9
:102C80009B00D3589F464C78604627008743802F8F
:102C900000D03AE740469B0103406046044023438E
:102CA000DBB20231AB540B78002B00D033E70C9B26
:102CB00006989A1837E7D64BD64C9C463B51D649D6
:102CC000D64BD74AF950D74B15000E00FA50E245C3
:102CD00000D019E6B14500D016E6A84500D013E6AD
:102CE00015E6D14A895CD14A934200D1ECE538001F
:102CF0009847059BCE4A1F6838688368934200D185
:102D00000AE63800984721E649464B46C9781B88B1
:102D1000019149468978C74A00911AA80B2109F008
:102D2000A9FC45E6C44B3BE6C44BC549C54A0E0069
:102D300015009C46DFE5059B1B79012B01D102F0B4
:102D400003FDC14EF822059BD200186843210123E0
:102D50003F27944681460A00C23A741C012A00D8D3
:102D600045E12600E9543178002901D102F0E7FC61
:102D70000133642BEFD12C234846FF3316AA9B184E
:102D800000221A700368DE68564501D002F036FE54
:102D9000AE4BC318DA700C9B7C301A780023002AE3
:102DA00008D0C2540C9AD2185278002A02D00133AB
:102DB000282BF6D1059B1B79012B01D102F051FD87
:102DC000A34A3F24A046F824A24B0599E400CE581C
:102DD000086873425E4101213123A146F6B2069094
:102DE0001C00C23C571C012C01D802F0D1FA3A0059
:102DF0006B541378002B01D102F02EFD01316429B0
:102E0000EED12C2116ABFF310698C91800230B70A8
:102E10000368DF68574501D002F0E9FD8B4BC3180A
:102E20009E710C9BF4301A780023002A08D0C254FB
:102E30000C9AD2185278002A02D00133282BF6D1EE
:102E4000059B1B79012B01D102F05CFC824A3F24D7
:102E5000A046F8247F4B0599E400CE580868013E4F
:102E600073425E4101213223A146F6B206901C0056
:102E7000C23C571C012C01D802F09DFA3A006B5459
:102E80001378002B01D102F040FC01316429EED10E
:102E90002C2116ABFF310698C91800230B7003686C
:102EA000DF68574501D002F016FE684BC318DE718B
:102EB0000C9B1D301A78FF300023002A08D0C25422
:102EC0000C9AD2185278002A02D00133282BF6D15E
:102ED000059B1B79012B01D102F011FC5F4A3F24B5
:102EE000A046F8245B4B0599E400CE580868023EE2
:102EF00073425E4101213323A146F6B206901C00C5
:102F0000C23C571C012C01D802F068FA3A006B54FD
:102F10001378002B01D102F0FDFB01316429EED1C1
:102F20002C2116ABFF310698C91800230B700368DB
:102F3000DF68574501D002F09CFD444BC3181E7258
:102F40000C9B45301A78FF300023002A08D0C25469
:102F50000C9AD2185278002A02D00133282BF6D1CD
:102F6000059B1B79012B01D102F0D9FB3C4EF822C5
:102F7000059BD2001868452101233F2794468146CE
:102F80000A00C23A741C012A01D802F03AFA26005B
:102F9000E9543178002901D102F0C4FB0133642BDC
:102FA000EED12C234846FF3316AA9B1800221A7034
:102FB0000368DE68564501D002F05BFC234BC31862
:102FC000DA720C9BBD301A78FF300023002A01D141
:102FD00001F0F2FDC2540C9AD2185278002A01D1A5
:102FE00001F0EAFD0133282BF4D101F0E5FD727800
:102FF0001000B843802800D0B3E660468901014044
:103000003A4011430236C9B2ACE6C046D80B0210B2
:10301000F5E9DC00A046000032231500A4460000BC
:10302000E3BD8E00A8460000260F0000210300101B
:103030009D04001074EE01107CF10110D5EEE40047
:103040001C2918009FD9BA0054F80110440600004A
:103050006CF80110140F00008CF80110ACF801108E
:10306000DCF80110059B1B79012B01D102F064FBF8
:10307000AB4EF822059BD20018684C2101233F2754
:10308000944681460A00C23A741C012A00D838E1ED
:103090002600E9543178002901D102F0FEFB01330A
:1030A000642BEFD12C234846FF3316AA9B1800222D
:1030B0001A700368DE68564501D002F0ADFC994BEA
:1030C000C318DA700C9B7C301A780023002A08D0D1
:1030D000C2540C9AD2185278002A02D00133282BFD
:1030E000F6D13F24A046F8248F4B059AE400D65829
:1030F000106873425E4101223123A1468B49F6B22A
:1031000006901C00C23C4F1C012C01D802F0F6F8BE
:103110003900AB540B78002B01D102F0C3FB013214
:10312000642AEED10698013AD2239B00D21816AB3E
:10313000D2187F4BD218002313700368DF685745FD
:1031400001D002F085FC774BC3189E710C9BF430C4
:103150001A780023002A08D0C2540C9AD218527848
:10316000002A02D00133282BF6D13F24A046F824B0
:103170006D4B059AE400D6581068013E73425E41DB
:1031800001223223A1466B49F6B206901C00C23CD4
:103190004F1C012C01D802F0C4F83900AB540B7855
:1031A000002B01D102F073FB0132642AEED10698A4
:1031B000013AD2239B00D21816ABD2185C4BD2181E
:1031C000002313700368DF68574501D002F039FC13
:1031D000544BC318DE710C9B1D301A78FF3000234E
:1031E000002A08D0C2540C9AD2185278002A02D071
:1031F0000133282BF6D1059B1B79012B01D102F05D
:1032000043FB4D4EF822059BD2001868452101234F
:103210003F27944681460A00C23A741C012A01D80D
:1032200002F092F82600E9543178002901D102F029
:103230001BFB0133642BEED12C234846FF3316AA27
:103240009B1800221A700368DE68564501D002F010
:10325000DCFB344BC3189A720C9B95301A78FF3004
:103260000023002A08D0C2540C9AD2185278002A9F
:1032700002D00133282BF6D1059A1379012B01D105
:1032800002F055FA542310682C4E3F229446F8223F
:10329000D200012790461A00C23A711C012A01D8B7
:1032A00002F062F80E00EB553378002B01D102F0EA
:1032B000E7FA0137642FEED12C2716ABFF37FF1842
:1032C00000223A700368DE68564501D002F0D1FA58
:1032D000144BC318DA720C9BBD301A78FF300023F0
:1032E000002A01D101F068FCC2540C9AD21852781D
:1032F000002A01D101F060FC0133282BF4D101F048
:103300005BFC72781000B843802800D0C0E66046AD
:10331000890101403A4011430236C9B2B9E6C046BC
:103320009CF7011044060000140F0000A8F70110DC
:1033300080FDFFFFB4F70110E8F701102CF8011031
:10334000059C0321C14A2068FDF74EFC2379012B1F
:1033500001D102F09FFABE4BBE4A05998A5C002A51
:1033600001D001F0B9FFBC49BC4A00915846802108
:1033700009F080F9BA4B059AD658106873425E413D
:103380005B461B78F6B2002B01D102F023FB3F24F1
:10339000A046F824E40001225946A146069607906B
:1033A0001F00C23F4C1C012F01D801F0DCF92100A5
:1033B000AB540B78002B01D102F0EAFA0132642AF7
:1033C000EED12C2216ABFF32069E0798D2180023AE
:1033D00013700368DF68574501D002F0F4FAA14B7F
:1033E000C3189E710C9BF4301A780023002A08D071
:1033F000C2540C9AD2185278002A02D00133282BDA
:10340000F6D1059B1B79012B01D102F060FA964B96
:10341000059C58466179954A01310091802109F057
:1034200029F98F4B2068E658013E73425E415B46A6
:103430001B78F6B2002B01D102F0CFFA3F24A04650
:10344000F824E40001225946A14606901C00C23C23
:103450004F1C012C01D801F0F5FE3900AB540B785C
:10346000002B01D102F02EFA0132642AEED12C2277
:1034700016ABFF320698D218002313700368DF687A
:10348000574501D002F0ACFA764BC318DE710C9BA5
:103490001D301A78FF300023002A08D0C2540C9A3D
:1034A000D2185278002A02D00133282BF6D1059B7E
:1034B0001B79012B01D102F002FA6D4A3F24A0468C
:1034C000F824674B0599E400CE580868023E734221
:1034D0005E4101213323A146F6B206901C00C23C96
:1034E000571C012C01D801F0C0FE3A006B54137830
:1034F000002B01D102F0D9F901316429EED12C2140
:1035000016ABFF310698C91800230B700368DF68FB
:10351000574501D002F087FA524BC3181E720C9B1C
:1035200045301A78FF300023002A08D0C2540C9A84
:10353000D2185278002A02D00133282BF6D1059BED
:103540001B79012B01D102F00BF94A4EF822059BA1
:10355000D20018684C2101233F27944681460A0077
:10356000C23A741C012A01D801F092FE2600E954E7
:103570003178002901D102F09DF90133642BEED19D
:103580002C234846FF3316AA9B1800221A700368A2
:10359000DE68564501D002F04DFA324BC318DA729C
:1035A0000C9BBD301A78FF300023002A08D0C2548B
:1035B0000C9AD2185278002A02D00133282BF6D167
:1035C000059A1379012B01D102F0C5F84523106843
:1035D000294E3F229446F822D200012790461A0035
:1035E000C23A711C012A01D801F062FE0E00EB55AF
:1035F0003378002B01D102F0AAF80137642FEED105
:103600002C2716ABFF37FF1800223A700368DE68DC
:10361000564501D002F034FA124BC3181A730C9BB2
:10362000E5301A78FF300023002A01D101F0C4FAF6
:10363000C2540C9AD2185278002A01D101F0BCFA77
:103640000133282BF4D101F0B7FAC04600FB01107A
:10365000C4F60110250F0000D0F6011010FB011078
:10366000140F000044060000F0F6011018FB0110D2
:103670000CF7011038F701107CF70110059A137947
:10368000012B01D102F082F843231068AF4A3F2496
:10369000A446F824E4000121A04681461C00C23C57
:1036A000561C012C00D872E232006B541378002BA8
:1036B00001D102F066F801316429EFD12C2148468E
:1036C000FF3116ABC91800230B700268D668564547
:1036D00001D002F0E5F99E4A8218D3700C9B7C3031
:1036E0001A780023002A08D0C2540C9AD2185278B3
:1036F000002A02D00133282BF6D1059B1B79012B20
:1037000001D102F038F8934A059B998A002901D12A
:1037100002F0C3F94E0801D102F0BCF90120030008
:1037200006400B409B198E0834D006409B19CE08EA
:1037300030D006409B190E092CD006409B194E092B
:1037400028D006409B198E0924D006409B19CE092B
:1037500020D006409B190E0A1CD030401B184E0A80
:1037600018D0012006409B198E0A13D006409B19E1
:10377000CE0A0FD006409B190E0B0BD006409B19AA
:103780004E0B07D006409B198E0B03D03040C31858
:10379000C90B5B188021584608F06CFF059B186820
:1037A0005B461B78002B01D102F071F93F24A4463F
:1037B000F824E40001225946A04681461C00C23C80
:1037C0004E1C012C01D801F02CFE3100AB540B78BB
:1037D000002B01D101F0CAFF0132642AEED12C2264
:1037E0004846FF3216ABD218002313700268D66821
:1037F000564501D002F036F9554A821893710C9B58
:10380000F4301A780023002A08D0C2540C9AD21837
:103810005278002A02D00133282BF6D1059B1B7960
:10382000012B01D101F09FFF4B4A059B998A00298A
:1038300001D102F014F94E0801D102F010F98B0801
:103840003ED00120070006400F40BE1903409B19DF
:10385000CE0830D006409B190E092CD006409B198B
:103860004E0928D006409B198E0924D006409B198A
:10387000CE0920D006409B190E0A1CD030401B18E0
:103880004E0A18D0012006409B198E0A13D006401C
:103890009B19CE0A0FD006409B190E0B0BD0064089
:1038A0009B194E0B07D006409B198E0B03D030405E
:1038B000C318C90B5B180221994289410A230B40A6
:1038C0008021584608F0D6FE059B18685B461B7899
:1038D000002B01D102F022F93F24A446F824E40091
:1038E00001225946A04681461C00C23C4E1C012CB8
:1038F00001D801F0A8FD3100AB540B78002B01D1A9
:1039000001F086FF0132642AEED12C224846FF32B4
:1039100016ABD218002313700268D668564501D042
:1039200002F027F90A4A821813720C9B45301A7864
:10393000FF300023002A11D0C2540C9AD2185278BA
:10394000002A0BD00133282BF6D107E004F901102F
:103950004406000024F901104CF90110059B9B8AD4
:10396000002B47D05A0801D102F0F8F801210800D5
:103970000A40184080189A0801D102F0EAF80A407B
:103980001218D80830D00840121818092CD0084056
:103990001218580928D008401218980924D0084055
:1039A0001218D80920D008401218180A1CD001405B
:1039B0005218580A18D0012108401218980A13D03A
:1039C00008401218D80A0FD008401218180B0BD054
:1039D00008401218580B07D008401218980B03D053
:1039E00001408A18DB0BD21893009B185B00022A57
:1039F00000D90A3380215846E34A08F03BFE059B74
:103A000018685B461978002901D102F084F8F82281
:103A1000D20001235E463F27944681460A00C23AFF
:103A2000741C012A01D801F020FD2600E9543178E8
:103A3000002901D101F0E7FE0133642BEED12C23E4
:103A40004846FF3316AA9B1800221A700368DE68E6
:103A5000564501D002F058F8CC4BC3189A720C9B13
:103A600095301A78FF300023002A08D0C2540C9AEF
:103A7000D2185278002A02D00133282BF6D1059BA8
:103A80001B79012B01D101F093FEC14EF822059B59
:103A9000D2001868452101233F27944681460A0039
:103AA000C23A741C012A01D801F0EFFC2600E95447
:103AB0003178002901D101F07EFE0133642BEED173
:103AC0002C234846FF3316AA9B1800221A7003685D
:103AD000DE68564501D002F074F88321AB4B8900B3
:103AE000C3185A730C9B40181A780023002A08D078
:103AF000C2540C9AD2185278002A02D00133282BD3
:103B0000F6D1059A1379012B01D101F04CFE412326
:103B10001068A04E3F229446F822D200012790461A
:103B20001A00C23A711C012A01D801F0BEFC0E0035
:103B3000EB553378002B01D101F050FE0137642F93
:103B4000EED12C2716ABFF37FF1800223A7003681E
:103B5000DE68564501D001F0A1FD97218B4B89000D
:103B6000C318DA730C9B40181A780023002A01D17D
:103B700001F022F8C2540C9AD2185278002A01D1CE
:103B800001F01AF80133282BF4D101F015F854781C
:103B9000604627008743802F00D085E540469B0183
:103BA00003406046044023430232DBB27DE5059BBF
:103BB0001B79012B01D101F0E1FD774A059C03211E
:103BC0002068FDF711F82379012B01D101F0E3FD05
:103BD000724A059C7249584663188021994608F03C
:103BE00049FD704B2068E65873425E415B461B7886
:103BF000F6B2002B01D102F004F83F24012259460D
:103C0000A04684461800C2384F1C012800D8D7E0CF
:103C10003900AB540B78002B01D101F0BFFD01320C
:103C2000642AEFD12C226046FF3216ABD218002353
:103C300013700368DF68574501D001F05EFF534BF6
:103C4000C3189E710C9BF4301A780023002A08D008
:103C5000C2540C9AD2185278002A02D00133282B71
:103C6000F6D1059B1B79012B01D101F0C6FD4E4A0F
:103C7000059C4E4B5846E1180B008846802108F001
:103C8000F9FC484B2068E358013B5A425341DFB2EC
:103C90005B461B78002B01D101F0BEFF3F240122BF
:103CA0005946A44606901E00C23E4C1C012E01D867
:103CB00001F050FA2100AB540B78002B01D101F038
:103CC0000CFD0132642AEED12C2216ABFF3206988D
:103CD000D218002313700368DE68564501D001F046
:103CE00001FF2A4BC3185F720C9B6D301A78FF30AE
:103CF0000023002A08D0C2540C9AD2185278002A05
:103D000002D00133282BF6D10023059A1D93489346
:103D1000234BD35C002B01D101F05FFC48461DA969
:103D2000FCF7EAFE002801D001F059FC059B1B7945
:103D3000012B01D101F0E0FC1D4B802158461D4AAA
:103D400008F098FC059C5A460C212068FCF74CFFB3
:103D50002379012B01D101F0CCFC174A059C0E21DF
:103D60002068FCF741FFF2221201A2582379002AB1
:103D700001D101F0B7FC012B01D101F0BAFE0F4ACD
:103D8000059B00F015FFC04624FB0110440600000F
:103D900088F90110C4F901109CF50110C0F501105B
:103DA000930F00001C0F0000E0F501109B0F0000B6
:103DB00030F6011078F1011058F6011050F501109D
:103DC000444648780690A043802800D020E7F82099
:103DD0009B01C00003401800069B023123400343AF
:103DE000DBB216E7059B1B79012B01D101F031FDF8
:103DF000E14A059C03212068FCF7F6FEDF4BDF4F0C
:103E0000E35C3F19002B6ED0C823B9460793C33B30
:103E100006931DAE29220021300007F073F8380008
:103E20001AF0B0FB0400282800D928242200390009
:103E3000300007F06DF8059B18683378002B01D12E
:103E400001F004FDF821C900884649460122089185
:103E500084463100B14609940A971800C2384C1CB8
:103E6000012800D85CE12100AB540B78002B00D175
:103E70006AE10132642AF0D12C226046089B4E464A
:103E8000FF329946099C16AB0A9FD2180023137083
:103E90000268D2689046069AD04500D065E1811844
:103EA000B74A8B540C9B07991A78043100234118A8
:103EB000002A08D00C98CA54C2185278002A02D09E
:103EC0000133282BF7D13F193B78002B0AD0069BF2
:103ED00001330693079B28331A000793A0235B0046
:103EE0009A4297D14F46059B1B79012B01D101F0D6
:103EF000AAFCA44E38001AF045FB320003008021D2
:103F0000584608F0B7FB059C5A460A212068FCF782
:103F10006BFEF2221201A2582379002A01D100F08F
:103F200027FE012B01D101F087FE974A059B0E2148
:103F30001868FCF759FE0599944B0868CB5C002B78
:103F400001D000F041FE924BCB5C002B01D101F07F
:103F5000B7FDF8248E4AE40089183F270122A446C1
:103F600081461C00C23C4E1C012C01D801F003FB11
:103F70003100AB540B78002B01D101F010FB013262
:103F8000642AEED12C224846FF3216ABD218002309
:103F900013700268D668564501D001F016FBAB24B9
:103FA000774A0C99821853740A78A4000019002AE1
:103FB00007D0C254CA185278002A02D00133282BE5
:103FC000F7D1059B1868059B1B79012B01D101F0E6
:103FD000CEFA55236F493F24A446F824E400012279
:103FE000A04681461C00C23C4E1C012C01D800F0AA
:103FF00026FE3100AB540B78002B01D100F035FECA
:104000000132642AEED12C2216ABFF32D2180023E3
:10401000484613700368DD68554501D000F030FE56
:104020000122BF24564B0C99C318DA740A78A400F5
:1040300000230019002A07D0C254CA185278002A57
:1040400002D00133282BF7D1059B534A1B68190076
:1040500014931B685B69934201D001F0A5FA484AAA
:1040600000238D180A002B321292D0224B4ED20020
:1040700013934B4B0C1D761852180E9415921693F1
:1040800011961095179518961994464B149AD35C6F
:10409000002B14D1C8230E989B002822C1181AF0B7
:1040A00009F800280BD1109B1A781B7D9A4206D183
:1040B000119B1A781B7D9A4201D100F07DFFA0224E
:1040C00000210C98920006F01DFF374B8EAF1B6845
:1040D000A2AD0593119BB6AC1B78B9460F935CABB0
:1040E000099366AB089370AB07937AAB984684ABA1
:1040F0009C46ACAB06930023C0A8CAA90D9398AF09
:104100000B950A940E9B0D9A9A5C13003733DBB221
:10411000322B01D900F0BDFD169C9B00E3589F4651
:1041200048783F270600BE43802E00D09BE64446D9
:104130009B0123403F2420400343DBB20231AB54B8
:104140000B78002B00D094E6089B4E4699460C9BBA
:1041500060469A18002313700268099CD2680A9F6F
:104160009046069AD04500D199E6009300210C9B19
:104170001201C047A7E6C04620F50110320F00002B
:10418000440600003CF5011050F501100D10000030
:10419000A30F00008CFA0110F10400106C0600005F
:1041A000000C021094060000145E0020059B1B7991
:1041B000012B01D101F044FB914A0221059C914E53
:1041C0005846A359009101337E3108F053FA5A46FC
:1041D00003212068FCF708FDA259511C8B005B18D5
:1041E0005B000693102B01D900F0C8FF93009B18C9
:1041F0005F00069BBB4201D800F0CDFC824B0893C8
:10420000824B0993824B0A933F239846059B1B7967
:10421000012B69D0099ABB00D1580B78002B01D132
:1042200001F0C1FBF820C000012284460797180066
:10423000C2384C1C01285BD92100AB540B78002BF1
:1042400067D00132202AF2D1C73216AB079FD218AD
:10425000002313704B461A890123FA40134057225A
:10426000013B9343783301930C9B7C1C8021089A7B
:1042700000935846230008F0FDF905990868036883
:10428000DE68604BCA5893009B18624A5B008A58EC
:10429000FB1A5F1DD31A5A425341DBB2564501D077
:1042A00000F06DFC132F15D85B49C21953545B46BF
:1042B000197800290ED00023BA00D219D200043296
:1042C0008218D1545946C9184978002902D00133BF
:1042D000282BF6D1069B9C4201D100F05CFC059B8B
:1042E00027001B79012B95D10A9ABB00D15894E77E
:1042F000487847460600BE43802E9DD164469B0108
:10430000234038400343DBB20231AB540B78002B1F
:1043100097D10C9B079F9A189AE7059C0321206868
:104320003E4AFCF761FC3E4B2068E35C002B01D168
:1043300001F002FC3A4A0126A7183F229446F822CF
:10434000D20090461A00C23A791C012A46D90F00C1
:10435000AB553B78002B01D101F06EFA0136642E8B
:10436000F0D12C2616ABFF36F61800223270036807
:10437000DE68564501D001F01EFB274B0132C31801
:104380009A710C9BF4301A780023002A08D0C2548A
:104390000C9AD2185278002A02D00133282BF6D179
:1043A000059B1B79012B01D101F075F91D4A059C74
:1043B00009212068FCF718FC2379012B01D101F0B9
:1043C00067F9194A059C0C212068FCF70DFC23793C
:1043D000012B01D101F050F9144AA7E57A781400B5
:1043E000914662469443802CB1D142469B011340D2
:1043F0004946624611400B430237DBB2A8E7C0468C
:1044000058F40110180F0000F0FA0110600E0210AD
:10441000A00E0210140F000044060000E8FA01107C
:10442000270F000078F30110C4F3011008F4011005
:10443000059A1379012B01D101F0B0FA44231068D9
:10444000D24A3F24A446F824E4000121A046814634
:104450001C00C23C561C012C00D874E132006B5485
:104460001378002B01D101F0A1FA01316429EFD1B9
:104470002C214846FF3116ABC91800230B70026887
:10448000D668564501D001F05DFBC14A8218D37051
:104490000C9B7C301A780023002A08D0C2540C9A56
:1044A000D2185278002A02D00133282BF6D1059C6D
:1044B000B84B8021E3585846B74A08F0DBF85B4612
:1044C0001B782068002B01D101F039FB3F22944674
:1044D000F822D20001265F4690461A00C23A791CA3
:1044E000012A01D800F04EFE0F00AB553B78002B9F
:1044F00001D101F0C6F80136642EEED12C2616ABA0
:10450000FF36F618002232700368DE68564501D087
:1045100001F0CDFA9E4BC3185A710C9BCC301A781F
:104520000023002A08D0C2540C9AD2185278002ACC
:1045300002D00133282BF6D1984B0893984B1F00DB
:104540000023079308331E00373398460C9B994687
:104550000599944B079ACB5CD340012214001C4070
:1045600006941A4200D19FE0731C9B460B79012BE5
:1045700001D101F071F822008B49059B0A97186858
:104580005B468446099393464E2306961800C2382C
:104590004E1C012801D800F009FE3100AB540B7805
:1045A000002B01D100F018FE0132642AEED15B46E7
:1045B0002C226046069E0693099BFF329B460A9F6B
:1045C00016ABD218002313700268D268140052454B
:1045D00001D001F07BF8132E18DC6D498219535479
:1045E0004B461978002911D0B2009219D20004323A
:1045F000821800234846069CD154C11849780029E6
:1046000002D00133282BF7D181460694059B023650
:104610001B79012B01D100F0D4FF3A68059B186883
:104620001378002B01D101F0F4FA8446069C099618
:104630000A971800C238511C012801D800F0D6FD95
:104640000A002B551378002B01D100F0E5FD013451
:10465000642CEED12C246046FF3416AB099E0A9FD1
:10466000E418002323700268D4685A46544501D0E8
:1046700001F025F8132A17DC4549821853544B469C
:104680001978002910D05B469A005A44D2000432AF
:10469000821800234846D154C1184978002902D015
:1046A0000133282BF7D18146079B089A0133083242
:1046B000079308920437062B00D049E7059B1B7926
:1046C000012B01D100F0E1FF384EF822059BD2000A
:1046D0001868452101233F27944681460A00C23AC3
:1046E000741C012A01D800F09DFD2600E9543178A0
:1046F000002901D100F0D9FF0133642BEED12C2326
:104700004846FF3316AA9B1800221A700368DE6819
:10471000564501D000F0C2FF97211D4B8900C318F8
:10472000DA730C9B40181A780023002A00D143E268
:10473000C2540C9AD2185278002A00D13CE20133BC
:10474000282BF5D138E25478604627008743802F24
:1047500000D083E640469B0103406046044023436B
:104760000232DBB27BE64F7846463800B043802801
:1047700001D0FEF71CFE9C014B461C4043463B40CB
:1047800023430231DBB2FEF713FEC046F8F90110F5
:1047900044060000081000002CFB0110300E02102F
:1047A000180E02100C10000018FA01104CFA01103B
:1047B000059B1B79012B01D101F034FA059BD74AE7
:1047C000186854233F24A446F824E4000121A0469D
:1047D00006901E00C23E541C012E01D800F05AFC67
:1047E00022006B541378002B01D100F0F2FF01314D
:1047F0006429EED12C2116ABFF310698C91800238D
:104800000B700268D668564501D001F0EDF9C44A34
:104810008218D3700C9B7C301A780023002A08D0B1
:10482000C2540C9AD2185278002A02D00133282B95
:10483000F6D1059B1B790793012B01D100F0C0FF36
:104840004B461989002901D101F0C2F9B54B9946AF
:104850004B0801D101F0B1F90126320033400A4082
:104860009B18880801D101F0A2F902003240D21849
:10487000CF0801D101F098F933003B4008099B189B
:10488000041E8446069301D101F08BF934401B19B4
:104890004C09089401D101F068F934401B198C09C6
:1048A00001D101F05EF934401B19CC0901D101F0AE
:1048B00058F934401B190C0A01D101F052F9344067
:1048C0001B194C0A01D101F04CF926409B198C0AA6
:1048D0000126002C01D100F0ABFF34401B19CC0A9B
:1048E00001D100F0A5FF34401B190C0B01D100F0E1
:1048F0009FFF34401B194C0B01D100F099FF34404D
:104900001B198C0B01D100F093FF34401B19CC0B09
:1049100001D100F08DFF3E400133B218012738402D
:1049200082186846008C002828D038401218880960
:1049300024D038401218C80920D038401218080A6C
:104940001CD038401218480A18D038401218880A6B
:1049500014D038401218C80A10D038401218080B6A
:104960000CD038401218480B08D00740D2198E0BD3
:1049700004D0012030408218C90B521891008918C8
:104980004900022A00D90A31F22205981201825800
:10499000002A01D100F045FF079A012A01D101F058
:1049A000FDF8614A029210220191009280214A464C
:1049B000584607F05FFE059B18685B46197800298A
:1049C00001D101F0E4F83F229446F822D2000123FD
:1049D0005E4690460A00C23A741C012A00D86BE376
:1049E0002600E9543178002901D100F016FF013387
:1049F000642BEFD12C2316AAFF339B1800221A70C8
:104A00000368DE68564501D001F0BAF8444BC3187C
:104A10001A710C9BA4301A780023002A08D0C254C3
:104A20000C9AD2185278002A02D00133282BF6D1E2
:104A30003E4B1DAE1D933E4B7361059B1B79012BB5
:104A400001D100F0D4FE3B483B493C4A3C4B33612A
:104A5000F223F260059A1B01B160D1587060002901
:104A600001D000F0BFFE30230622B0468900033A91
:104A70008844511E8A41032152421140F0221700FE
:104A8000B13A93460C9A062644469146093109915B
:104A900005982C4AB11F82580068521A51424A4167
:104AA000D2B29446002B01D100F0AAFE22686146E2
:104AB0009046069101224146B446A04607900897C9
:104AC0001C00C23C481C012C00D807E30100AB5479
:104AD0000B78002B00D115E30132642AF0D12C228F
:104AE0004446069B6646FF329C46079816AB089FD5
:104AF000D218002313700368DB689846534500D032
:104B00000FE36146064B8219D1544B461A78391D82
:104B100000234118002A20D0484615E008F2011071
:104B20004406000030F2011050F20110D4FA0110D6
:104B3000DCFA0110C0F20110D0F20110DCF2011019
:104B4000F0F20110140F0000CA54C2185278002A63
:104B500002D00133282BF7D18146099B0136B3429D
:104B600001D100F07DFD636804341B7828378FE79E
:104B7000012B01D101F053F8D04AFFF7D7F9009388
:104B800000215B463A01B047FFF7A4FB4A231068B7
:104B9000CB49FDF7ADFFF222059912018A580B7936
:104BA000002A33D0012B01D100F08DFF0B00C54A44
:104BB0000F211868FCF718F80599C34B0868CB5CFF
:104BC000002B01D1FFF7BFF903681E69BF4B9E425E
:104BD00001D000F0ECFC0122BD4BC3185A74BD4B50
:104BE000CA5C002A01D1FFF7EEF9AB240023A40030
:104BF0000019B94C0919C254CA5C002A01D1FFF747
:104C0000E0F90133282BF6D1FFF7DBF9012B01D1B5
:104C100001F00EF80B00B14ACAE7009320220021F0
:104C20000C9BB047FDF797FF0C9AFDF73BFFC7259C
:104C300048AB1A000C9316ABED18FDF7EAFE4C7862
:104C4000604627008743802F01D0FFF7D2F9404606
:104C50009B010340604604402343DBB20231AB5466
:104C60000B78002B01D0FFF7CBF90C9B48469A1824
:104C7000002313700368DD68554501D1FFF7D0F9B3
:104C800001239822009300210C9B5200A847FFF7B4
:104C9000DBF91300203B5E2B01D900F01AFC530016
:104CA0009B18002292469B007D3BFF3B0F9C002CF3
:104CB0006CD1059D099EEC5CEB1834705C78089D06
:104CC0002C709C78079D2C704546DC782C706546CE
:104CD0001C792C704D465C792C709C790B9D3C7036
:104CE000DC792C701C7A069D2C705C7A0A9D2C70E5
:104CF0009C7A0470DB7A0B705346002B00D194E051
:104D000028230024012A00D194E0022A00D1E5E3FF
:104D1000032A01D100F0EBFB042A03D11023037016
:104D200010330B70099A0D9B01320992089A0133D6
:104D300001320892079A0D930132079201229044A2
:104D4000944491440B9A013701320B92069A013038
:104D5000013206920A9A013101320A92272B01D0C0
:104D6000FFF7D0F9129B1A7813003733DBB2322BDE
:104D700000D9B7E05A499B00CB589F4600228023B8
:104D80000F9C9246DB000332002C92D0099D059CBB
:104D90006E78E45C2C7034436C70059C089DE318BD
:104DA0005C786E782C7034436C70079D9C786E78BC
:104DB0002C7034436C704546DC782C706D782C4335
:104DC00045466C7065461C792C706D782C436546A1
:104DD0006C704D465C792C706D782C434D466C7030
:104DE0009C797D783C702C437C700B9EDC797578C7
:104DF00034702C43069D74701C7A6E782C7034438A
:104E00000A9E6C705C7A757834702C4374709C7A4E
:104E1000457804702C434470DB7A4C780B70234344
:104E20004B705346002B00D06AE7A0237824012A58
:104E300000D06AE70C9A0D9E1419D3180822A255C7
:104E400008329A556EE7002280239246DB00023238
:104E50002CE70022EE2392469B00033226E7002235
:104E6000DC2392469B00033220E70022D0239246A7
:104E70009B0003321AE70022D02392469B000132A6
:104E800014E70022D02392469B0002320EE7002254
:104E9000C42392469B00033208E70022C4239246B3
:104EA0009B00023202E70022CA2392469B00043292
:104EB000FCE6E02301225B009246F7E6C4F3011012
:104EC000C0F1011080F401100D1000003904001031
:104ED0006C060000A30F0000A40F00009CF401105A
:104EE000CC0C02101300203B5E2B00D93BE3530097
:104EF0009B18002100229B007D3BFF3B7720059EF5
:104F00000C9DF45CF3182C545C7828302C549C785D
:104F100028302C54DC7828302C5418201C79FF3091
:104F20002C5440205C79FF302C5468209C79FF3051
:104F30002C549020DC79FF302C54B8201C7AFF30A0
:104F40002C54E0205C7AFF302C549C7AE4482C549A
:104F5000D87AE44BE854002900D1D8E22823002174
:104F6000012A00D1D8E2022A00D1E9E2032A00D1C5
:104F7000DCE2042A06D1DA4B0C990C32CA54D94B24
:104F80001032CA54109B0F9A1B78002A00D1B8E245
:104F9000002B00D1E5E2D44BD44A14998A580292EE
:104FA0000193A02201230C990093039100201399EF
:104FB0000F33520002F062FE109B159A01331093DA
:104FC000139B10331393129B283312930E9B283399
:104FD0000E93119B013311939A4201D0FFF755F8BC
:104FE000C923C822149F9B001999F8189200179D95
:104FF000189E05F08DFFCB22D200BB1807CD07C34A
:1050000006CD06C3159B07CE07C306CE06C30022F6
:10501000B74BFA54E9239B009D44F0BCBB46B24613
:10502000A946A046F0BDC423002103229B0065E7EA
:10503000C423002102229B0060E7D0230021032229
:105040009B005BE7D023002101229B0056E7D02381
:10505000002102229B0051E7802300210222DB0075
:105060004CE7EE23002103229B0047E7DC230021CD
:1050700003229B0042E7802300210322DB003DE75F
:10508000CA23002104229B0038E7E02301210122EA
:105090005B0033E75678604637008743802F01D0A6
:1050A000FFF79EFB9C0143461C406346334023436D
:1050B0000232DBB2FFF795FB727817009146624629
:1050C0009743802F00D08BE44246890111404C4623
:1050D0006246144021430236C9B282E44C785F46EE
:1050E0002600BE43802E00D0F0E4F8209B01C000D3
:1050F00003403C402343DBB20231AB540B78002B1E
:1051000000D0E9E4069B66469C46002307984A4483
:10511000137003684446DB68089F9846534500D1E6
:10512000EFE463460021009332014B46C04714E58B
:10513000F222059912018A580B79002A01D1FFF752
:1051400039FB012B01D100F05FFD43230868694A58
:10515000FFF738FB664648780790B043802801D0B7
:10516000FEF7A8FDF8249B01E4001C406346079865
:10517000023103402343DBB2FEF79DFD102306936B
:10518000FFF734F87A781400914662469443802CF5
:1051900001D0FFF7A9F942469B01134049466246F8
:1051A00011400B430237DBB2FFF79FF948784746BF
:1051B0000400BC43802C01D0FFF7EFF9F8249B01D9
:1051C000E400234038400343DBB20231AB540B7898
:1051D000002B01D0FFF7E8F95B46069E0693099B7A
:1051E00060469B460A9F4A44FFF7ECF956784746CB
:1051F0003000B843802801D0FFF722FAF8219B0144
:10520000C9000B403E403343DBB202322B551378CA
:10521000002B01D0FFF71BFA6046099E0A9F4C4401
:10522000FFF71FFA72781000B843802801D0FFF70B
:105230005CFA6046890101403A4011430236C9B226
:10524000FFF754FA444648788346A043802801D0AB
:10525000FEF703F948469B0103405C464046044084
:1052600023430231DBB2FEF7F9F844465078834617
:10527000A043802801D0FEF738F948469B0103403F
:105280005C464046044023430232DBB2FEF72EF96F
:1052900072781000B843802801D0FEF767F96046A5
:1052A000890101403A4011430236C9B2FEF75FF965
:1052B00072781400914662469443802C01D0FEF728
:1052C00095F942469B0113404946624611400B4303
:1052D0000236DBB2FEF78BF90749FEF745F8C04608
:1052E000070200002F0200005252F000A846000002
:1052F00094060000E0F10110D8F601104446487809
:105300008346A043802801D0FDF702FF48469B0159
:1053100003405C464046044023430231DBB2FDF7C4
:10532000F8FE444648788346A043802801D0FDF724
:1053300034FF48469B0103405C46404604402343FB
:105340000231DBB2FDF72AFF72781000B8438028E3
:1053500001D0FDF767FF6046890101403A401143E3
:105360000236C9B2FDF75FFF7278140091466246BB
:105370009443802C01D0FDF795FF42469B011340DA
:105380004946624611400B430236DBB2FDF78BFF04
:10539000444650788346A043802801D0FDF727FD7E
:1053A00048469B0103405C4640460440234302328A
:1053B000DBB2FDF71DFD444650788346A0438028AC
:1053C00001D0FDF75BFD48469B0103405C4640462B
:1053D000044023430232DBB2FDF751FD44465078CE
:1053E0008346A043802801D0FDF790FD48469B01ED
:1053F00003405C464046044023430232DBB2FDF7E3
:1054000086FD72781000B843802801D0FDF7BFFDFB
:105410006046890101403A4011430236C9B2FDF7A6
:10542000B7FD4C78604627008743802F01D0FEF7F8
:10543000CCF940469B0103406046044023430231BF
:10544000DBB2FEF7C3F94C78604627008743802F14
:1054500001D0FEF750FA40469B01034060460440ED
:1054600023430231DBB2FEF747FA72781000B843EB
:10547000802801D0FEF7D9FA6046890101403A4000
:1054800011430236C9B2FEF7D1FA72781000B84360
:10549000802801D0FEF70AFB6046890101403A40AE
:1054A00011430236C9B2FEF702FB7278140091462E
:1054B00062469443802C01D0FEF739FB42469B01A3
:1054C00013404946624611400B430236DBB2FEF7F9
:1054D0002FFB002204239246FFF7E8FB0C9A0D9E57
:1054E0001419D3181022A255083A9A551AE40C9AA6
:1054F0000D9E1419D3181022A25518329A55FFF791
:1055000011FC002B26D0F34B149AD35844E5A0236A
:105510007821012A00D026E50C9A5118D3180822C8
:1055200027310A70273308321A702BE50C9A51186C
:10553000D318102227310A70273318321A7021E548
:105540000C9A5118D318102227310A702733083AC1
:105550001A7017E5E04B149AD358DE4A14998A580A
:105560001DE5DE4BF9E7042300210022C6E4DC49F7
:105570004733FEF730FD4C782000B843802801D037
:10558000FEF7F6FC60469B0103403C402343DBB240
:105590000231AB540B78002B01D0FEF7F0FC0C9BD2
:1055A00048469A18FEF7F3FC0800984732E5CD4AC2
:1055B0000C008B18882200215200B0472068FEF7AB
:1055C00002FD089B1A68FFF729F888220093002142
:1055D0000C9B5200B047FEF7F4FC013B1D93C24BFD
:1055E000059AD35C002B65D040460C99FBF784FAF2
:1055F000002801D1FEF79AFB059B1D991B79002914
:1056000001DAFEF795FB489A002A01DAFEF790FBD3
:10561000521AD11756184E40012B00D14EE2B34F0B
:10562000D243D3171A000123FA219A432C33984608
:1056300030008900904404F085FD0191FA2130008A
:10564000890004F07FFD434600903A0080215846CF
:1056500007F010F8FEF776FB2200A549FEF78DFF54
:10566000059B1B79012B0AD0A24A059B10211868C3
:10567000FBF7BAFAFFF7A0FA9F4AFEF757FC9F4ADA
:10568000F3E70C9B9E19FEF73DFF9D4EFFF71DF8BB
:105690009C4AFEF797FE9C4AFEF789FE0092002185
:1056A000F0220C9BB047FFF787FA0C9A4846D318B4
:1056B000FFF72AF8013B48931379FEF739FB009373
:1056C00000214B461201A047FEF7EEFF0093002198
:1056D0004B463201A047FEF799FF0C9B06989A189B
:1056E000FEF7F7FA012B00D1F1E1884A059BFFF79D
:1056F0005FFA874AFEF732FB864BFEF71EFB864AAF
:10570000FDF7EDFB854AFDF7A2FB0C9B06985918A7
:10571000FDF7C3FB0C9B06985918FDF706FC804E5D
:10572000FDF725FC0C9A4846D318FDF73FFC5023A3
:1057300010687C4EFDF7A9FD7B4EFDF79AFC0C9A94
:105740004846D318FDF71CFB784EFDF7FBFA0C9B7F
:10575000DF19FDF759FFC3231068754EFDF739FFB8
:10576000744EFDF7F3FE744AFEF75FF80C9B484653
:105770009A18FEF739F8714AFDF7C6FF704AFEF72E
:105780001DFA0C9B48465918FDF79DFF10685423DD
:105790006C4AFDF77CFF6C4AFEF71BFA0C9B6046D7
:1057A0009A18FEF744FA55231068684EFEF7B2F9CE
:1057B000674EFEF76BF90C9A4846D318FEF785F949
:1057C0004B461989002900D1ABE1624B9946FFF79E
:1057D0003FF80C9B06985918FFF711F80C9BDF193E
:1057E000FEF7B3F9312301210322FFF73EF95A48AE
:1057F0005A495B4A5B4BFFF72AF95B4AFEF738FAD6
:105800004A46FFF776F90C9A4846D318FEF71CF97A
:105810000C9B48469A18FEF77DF80C9AD318FFF7B0
:10582000EDF8079A012A00D183E1504AFFF7BAF850
:105830003E40B218FFF772F80C9B9E19FEF795FDDB
:105840004B4AFEF7BAFC4B4EFEF754FB0C9AFEF7A0
:105850001DFB494AFEF7CDFA0C9B06985918FDF737
:10586000D5FA464AFDF7ADFA0C9A4846D318FDF72B
:10587000E8FC00920021B0220C9BB047FFF79CF996
:105880000C9BDF19FDF71CFD3D4EFDF7BBFC069898
:10589000FDF78FFC3B4BFDF75FFD0C9A4846D31894
:1058A000FDF705FC0698FDF73FFC0C9B0698591880
:1058B000FDF72AFE0C9A4846D318FDF766FE324AD9
:1058C000FDF7FCFD0C9B06989A18FDF7D5FD2F4BB4
:1058D000FDF79EFDA4460000A04600005252F000D5
:1058E00068FA0110A30F00009B0F000008F60110DA
:1058F00004FA01102CF30110E0F3011004F301107D
:1059000028FA01109CF3011050F3011070F60110F9
:1059100040F6011024F601109CF801107CF80110EB
:10592000BCF8011004F8011094F7011048F80110B8
:1059300058F7011014F7011034F9011014F901108F
:1059400088F50110F0F80110B0F50110A0F9011070
:1059500064F9011010F2011078F2011088F20110C0
:1059600098F20110ACF20110D0F5011058F20110BC
:1059700030F4011028F5011014F501105CF8011045
:10598000C4F70110B8F60110FCF60110E4F601109E
:105990000C9B069E07989A18FDF719FD10684A237C
:1059A000A74AFEF74EFD0C9AFEF752FC0C9B4846A8
:1059B0005918FEF762FD01236022009300210C9B21
:1059C000B047FEF7EDFC602200210C9B0096B84723
:1059D000FDF717FD0C9AFDF7FAFC0C9AFDF74CFD4C
:1059E000702200210C9B0096B847FDF760FD6022F5
:1059F00000210C9B0096B847FDF722FA0092002187
:105A000030220C9BB047FDF7D5F900920021A0226F
:105A10000C9BB047FDF730FC0092002130220C9B1C
:105A2000B047FDF75EFB802200210C9B0096B84733
:105A3000FDF785FD00920021B0220C9BB047FDF7D9
:105A4000BFFD702200210C9B0096B847FDF7D3FBE9
:105A5000602200210C9B0096B847FDF786FB0023CF
:105A6000FDF72EFF0093602200210C9BB047FDF74D
:105A7000D5FE802200210C9B0096B847FDF770FAF6
:105A800000920021C0220C9BB047FFF795F80C9ABA
:105A9000FDF7AAFE0123FDF77DFE0023FDF77AFE48
:105AA0000093302200210C9BB047FDF726FE0092A8
:105AB000002150220C9BB047FEF73EFD614FAFE541
:105AC0000C9AFEF764FA0B005F4AFFF771F85F4A21
:105AD000059BFFF76DF8702200210C9B0096B847DC
