:020000041000EA
:1000000000B5324B212058609868022188439860DF
:10001000D860186158612E4B002199600221596106
:100020000121F02299502B49196001219960352056
:1000300000F044F80222904214D00621196600F024
:1000400034F8196E01211966002018661A6600F04E
:100050002CF8196E196E196E052000F02FF8012189
:100060000842F9D1002199601B49196000215960AB
:100070001A491B48016001219960EB211966A021F2
:10008000196600F012F800219960164914480160C1
:100090000121996001BC002800D000471248134993
:1000A000086003C880F30888084703B5996A0420EC
:1000B0000142FBD001200142F8D103BD02B5186610
:1000C0001866FFF7F2FF186E186E02BD00000240BE
:1000D000000000180000070000035F00212200005C
:1000E000F4000018222000A00001001008ED00E03C
:1000F00000000000000000000000000074B24E7A12
:1001000000000420F7010010CB010010CD01001009
:10011000C9010010C9010010C9010010C901001077
:10012000C9010010C9010010C9010010CF01001061
:10013000C9010010C9010010D1010010D301001045
:10014000C1010010C1010010C1010010C101001067
:10015000C1010010C1010010C1010010C101001057
:10016000C1010010C1010010C1010010C101001047
:10017000C1010010C1010010C1010010C101001037
:10018000C1010010C1010010C1010010C101001027
:10019000C1010010C1010010C1010010C101001017
:1001A000C1010010C1010010C1010010C101001007
:1001B000C1010010C1010010C1010010C1010010F7
:1001C000EFF30580103800BE00BE00BE00BE00BECA
:1001D00000BE00BEF2EB887150DC021070DC021031
:1001E0003802001090A31AE71E481F49086006C88D
:1001F00081F3088810471D480068002801D019487D
:10020000F3E70DA40ECC002902D000F012F8F9E7B4
:100210001749184A002000E001C19142FCD116495B
:100220008847164988471649884700BEFDE701C937
:1002300001C29A42FBD3704770DC0210C00000205C
:10024000806A0020304603100000042000000420D3
:1002500030460310000003200000032000000000CF
:10026000704700000000000008ED00E0000000D032
:10027000806A002004870020D52D011051DE001077
:10028000CD2D0110F8B5C0460448054B10B583428A
:1002900003D0044B002B00D0984710BD806A00208B
:1002A000806A00200000000006480749091A8B10E8
:1002B000C90FC91810B5491003D0044B002B00D04A
:1002C000984710BD806A0020806A0020000000006E
:1002D00010B5074C2378002B09D1FFF7D5FF054B4C
:1002E000002B02D0044800E000BF0123237010BDA2
:1002F000288200200000000038530210054B10B582
:10030000002B03D00449054800E000BFFFF7CCFFF5
:1003100010BDC046000000002C820020385302109F
:10032000F0B54746CE46284B80B5C3589C46274B70
:10033000C3581E00264BC3589846042940D8254B65
:1003400089005B589F462449244A254B170099464B
:100350000D001D4C01511D4942501D4A8350AC45B2
:1003600014D001221F4BC254C0BCB946B046F0BDE8
:100370001D49154C1D4A01510D0014491C4B42509A
:100380001700134A99468350AC45EAD1BE42E8D1E2
:10039000C845E6D1E8E71749174A184B17009946B0
:1003A0000D00D6E71649174A174B170099460D005E
:1003B000CFE71649164A174B170099460D00C8E7B4
:1003C00099463700E2E7C046E04C0000E44C0000EC
:1003D000E84C000038530210D5EEE4001C29180048
:1003E0009FD9BA00D40C0000D2DDF40015152A0004
:1003F0007887D700F1E7FF002C203100D0B2EE0063
:10040000F5E9DC0032231500E3BD8E00BAE5FF00FC
:100410001620300062ADF30030B59C466B461C7B65
:100420000F230500D01703409B181B11132B1FD857
:10043000A320CA1D400082421AD80E48EA1814545C
:1004400062461078002813D00722CC17224051189A
:100450009A00D318DB000433EA186346C9105B1A0C
:1004600001335054585C002802D001312829F8D1BA
:1004700030BDC0464406000084460F2010B5C64675
:10048000D4172040801800B50011132817D8002B6E
:1004900015DD0722CC172240511882001218094896
:1004A000D2001218C9100120CB18624405E00029BF
:1004B00000DB50540131994201DA2729F7DD10BCE5
:1004C000A04610BD940600009C460F2370B50400A2
:1004D000D01703409B181B11132B1FD8A320CA1D34
:1004E000400082421AD801250D48E2181554624690
:1004F0001078002812D00722CE17324051189A00E7
:10050000D318DB000433C910E2186B1A634450544B
:10051000585C002802D001312829F8D170BDC046AE
:100520006C060000C0231A4A9B01116870B54B404D
:10053000E021C9010B40174984460B60802110203F
:1005400000250426144C4900266013680B42FCD099
:10055000536801381B041B0CED180028F4D10F4B15
:100560002D096B430E4A934205D8012261460D4B7B
:100570000130CA5470BD0C4A934204D96246094BFB
:10058000D0540020F6E76246064BD05CF2E7C04646
:1005900000C0044000D0044000E00440AC2600004D
:1005A0006772D900D70C000020E2DD007047C0461A
:1005B0007047C046C9239B0070B5C518041D0600CE
:1005C000A54207D0200028222021283410F0C6FFA1
:1005D000A542F7D10F4BF0181433F318984203D00B
:1005E0001422002110F0BAFF0B4BF0181433F3184B
:1005F000984203D01422002110F0B0FF074BF018EE
:10060000074BF618B04204D0C8220021920010F027
:10061000A5FF70BD440600006C06000094060000B3
:10062000B4090000F0B557464E464546DE46E0B5F3
:100630000023E94CE94AA5448418E94A1D93861829
:10064000D022E84BE8491F93E84BD2001A93E84BBD
:10065000071D091812181994219435000C001C90DC
:100660001E921B9306972091229623971CE02278D6
:10067000237D9A422BD19B210901282219987118B8
:1006800024F060F8002822D1199B013428331993F3
:100690001D9B013510331D93069B283306931E9B2B
:1006A0009C4201D100F06BFED24B1C9AD35C002B14
:1006B0000DD1C820069E800031182822300024F079
:1006C00041F8002803D12A782B7D9A42CFD0A0226E
:1006D0000021920026A810F041FF1F9B1F6823787D
:1006E0001593002B00D025E300269EAB9A463AAB2B
:1006F0000C9344AB0E934EAB0F9358AB109362AB7D
:1007000007936CAB089376AB099380AB0A938AABE3
:100710000B9394AB0D93A8AB059324942595069B5E
:100720009A5D13004033DBB23B2B03D81B999B002F
:10073000CB589F461300203B5E2B00D9E1E25300CB
:100740009B1899000B008C460D007D3BFF3B1393DB
:10075000A94BAA4A634498462B0062449146013A49
:100760001292A74A080062441692A64A2C00D21898
:100770007B3BFF3B1593013B119300239346753957
:100780007638773C783DFF39FF38FF3CFF3D1793C3
:100790001893129AB8449446BC4462461492424656
:1007A000139B13927A18159912928846169A1199EA
:1007B000B844944642468846B84441461191199936
:1007C000FB5C895DB94438183C197D19BC44BB44B5
:1007D0001592002900D032E20C998B5511990B78B3
:1007E0000E998B5513780F998B555B4610991B7892
:1007F0008B55634607991B788B552B7808998B5539
:10080000237809998B5503780A998B55129B0B997C
:100810001B788B55149B0D991B788B554B46514675
:100820001B78139A0B701378059A9355179B002B1E
:1008300000D04BE2189BA0227821012B00D14BE283
:10084000022B00D156E2032B00D14CE2042B05D140
:1008500052460C331370059A103393550123013619
:100860009A44282E00D05AE7259D249C2B78002BF3
:1008700001D100F080FD644B1C9AD358634A1C9947
:100880008A5802920193A022012326A90391009382
:1008900000201D990F3352000DF00AFDF4E60023ED
:1008A00017935B4B812111935A4B5B4D15935B4B17
:1008B0005B4C9B465B4B5C4816935C4BC90098466F
:1008C0005B4B1293093B13935A4B9946032318939E
:1008D0005FE700231793584BD2211193574B584D84
:1008E0001593584B584C9B4601331693574B584819
:1008F0009846584B89001293093B1393564B9946DF
:100900000123189345E7002317934B4BD2211193F2
:100910004A4B4B4D15934B4B4B4C9B460133169317
:100920004A4B4B4898464B4B89001293093B139313
:10093000494B9946022318932BE700231793474B03
:10094000CC211193464B474D1593474B474C9B4643
:1009500001331693464B47489846474B89001293FC
:10096000093B1393454B99460423189311E7002341
:100970001793434BC6211193424B434D1593434B61
:10098000434C9B4601331693424B43489846434B96
:1009900089001293093B1393414B99460323189303
:1009A000F7E600231793364BC6211193354B364D8E
:1009B0001593364B364C9B4601331693354B3648D0
:1009C0009846364B89001293093B1393344B994652
:1009D00002231893DDE6C046E4FCFFFF9406000006
:1009E00044060000546400206C0600003C540210D1
:1009F0004C530210D40C00008FFEFFFF8EFEFFFF51
:100A000088FEFFFF87FEFFFFE44C0000E84C00007B
:100A100001040000020400000504000003040000BB
:100A20000604000004040000070400000B0400009A
:100A3000090400000A040000410300004203000012
:100A40004503000043030000460300004B03000081
:100A500047030000490300004A0300002903000087
:100A60002A0300002D0300002B0300002E030000CA
:100A7000330300002F0300003103000032030000A5
:100A8000110300001203000015030000130300000F
:100A9000160300001B0300001703000019030000E9
:100AA0001A030000C223FF33119301331593C423AB
:100AB000FF339B4601331693CC23FF339846CA235A
:100AC000C625E324C820E421FF331293093B139386
:100AD0000A339946CA3BFF3BFF356400FF304900AB
:100AE0001793189355E600231793A44B8121119374
:100AF000A34BA44D1593A44BA44C9B46A44BA548D3
:100B00001693A54BC9009846A44B1293093B139327
:100B1000A34B9946022318933BE600231793A14B5E
:100B2000F0211193A04BA14D1593A14BA14C9B46D5
:100B300001331693A04BA1489846A14B890012930C
:100B4000093B13939F4B99460323189321E60023F7
:100B500017939D4BDE2111939C4B9D4D15939D4BFF
:100B60009D4C9B46013316939C4B9D4898469D4B4C
:100B700089001293093B13939B4B994603231893C7
:100B800007E600231793994BD2211193984B994D67
:100B90001593994B994C9B4601331693984B994862
:100BA0009846994B89001293093B1393974B9946AA
:100BB00003231893EDE5C223FF33119301331593FB
:100BC000C423FF339B4601331693CC23FF3398464F
:100BD000CA23C625E324C820E421FF331293093B2E
:100BE00013930A339946CA3BFF3B17930133FF35F2
:100BF0006400FF3049001893CBE59223FF33119333
:100C0000013315939423FF339B46013316939C23A2
:100C1000FF3398469A239625CB249820CC21FF3386
:100C20001293093B13930A3399469A3BFF3B179360
:100C30000133FF356400FF3049001893A9E55A08D5
:100C400013430C9A9355119B1B785A0813430E9A21
:100C50009355159B1B785A0813430F9A93555B467F
:100C60001B785A081343109A935563461B785A0809
:100C70001343079A93552B78089A5D082B43935595
:100C80002378099A5C082343935503780A9A5808F5
:100C900003439355129B0B9A1B7859080B439355AA
:100CA000149B1B785A0813430D9A93554B461B7897
:100CB0005A08134352461370139B1B785A08134368
:100CC000059A9355179B002B00D1B3E5189B28225A
:100CD0000021012B00D0B3E5082026AB9B19585406
:100CE00010219954BAE5102026AB9B19585428219D
:100CF0009954B3E5102026AB9B19585408219954F8
:100D0000ACE5002317930533119301331593013399
:100D10009B460133169307339846023B1293093BD7
:100D200013930A339946002309250A240B200C212A
:100D300018932EE500263AAB0C9344AB0E934EABC2
:100D40000F9358AB109362AB07936CAB089376ABE1
:100D5000099380AB0A938AAB0B9394AB0D93A8AB2A
:100D6000059316941795069B9A5D13004033DBB2EA
:100D70003B2B4DD81A999B00CB589F46010400008D
:100D80000204000005040000030400000604000043
:100D900004040000070400000B0400000904000024
:100DA0000A040000B9030000BA030000BD030000FC
:100DB000BB030000BE030000C3030000BF0300002C
:100DC000C1030000C20300007103000072030000B1
:100DD0007503000073030000760300007B0300002E
:100DE00077030000790300007A030000410300004C
:100DF00042030000450300004303000046030000D7
:100E00004B03000047030000490300004A030000B1
:100E10001300203B5E2B00D992E251008918E64A6C
:100E200089009446E54A0D00904688444246149253
:100E3000E34A0B009046884442461392E14A00245C
:100E40009046884442461292DF4A733D9046884459
:100E500042461192DD4A7D3B9046DD4A8C449146E4
:100E6000DC4A88449246DC4A8944934600228A44FC
:100E70008B447C39FF3DFF3BFF39FB5C5808034343
:100E80000C9883557B5C59080B430E998B555B4638
:100E9000FB5C59080B430F998B555346FB5C590873
:100EA0000B4310998B554B46FB5C59080B43079934
:100EB0008B554346FB5C59080B4308998B55119B96
:100EC000FB5C59080B4309998B55129BFB5C590835
:100ED0000B430A998B55139BFB5C59080B430B99E9
:100EE0008B556346FB5C59080B430D998B557B5D15
:100EF00059080B4322A9F131FF318B55149BFB5C40
:100F000059080B4305998B55002C00D1F8E1282393
:100F10000021012A00D1F8E1022A00D107E2032AC8
:100F200000D1FBE1042A07D1102322AAF132FF32BB
:100F30009355059A103393550136282E00D012E7A9
:100F4000179D169C2B78002B00D011E2A34BA44ACE
:100F50001C998A5895E4A34B00249B46A24B03227C
:100F60009A46A24BA2499946A24BA34D9846A34B41
:100F70001193A34B129301331393A24B1493A24BDF
:100F80009C46093B79E7A14B00249B46A04B0122DC
:100F90009A46013399469F4B9F4998469F4BA04DD7
:100FA0001193A04B1293013313939F4B14939F4BB8
:100FB0009C46093B61E7954B00249B46944B0222DB
:100FC0009A4601339946934B93499846934B944DD7
:100FD0001193944B129301331393934B1493934BAC
:100FE0009C46093B49E7924B00249B46914B0422C7
:100FF0009A4601339946904B90499846904B914DB3
:101000001193914B129301331393904B1493904B84
:101010009C46093B31E78F4B00249B468E4B0322B5
:101020009A46013399468D4B8D4998468D4B8E4D8E
:1010300011938E4B1293013313938D4B14938D4B5D
:101040009C46093B19E7834B00249B46824B0222B6
:101050009A4601339946814B81499846814B824D8E
:101060001193824B129301331393814B1493814B51
:101070009C46093B01E7C9235B009B469423FF3351
:101080009A46013399469623FF33984601331193CC
:101090009823FF331293013313939C23FF3314934C
:1010A0009A239221CD25FF339C460222159CFF31C5
:1010B000093B6D00E1E64B4B00249B464A4B022264
:1010C0009A464A4B4A4999464A4B4B4D98464B4B98
:1010D00011934B4B1293013313934A4B14934A4B86
:1010E0009C46093BC9E6644B00249B46634B0322A4
:1010F0009A4601339946624B62499846624B634D6A
:101100001193634B129301331393624B1493624B0D
:101110009C46093BB1E6614B00249B46604B032291
:101120009A46013399465F4B5F4998465F4B604D45
:101130001193604B1293013313935F4B14935F4BE6
:101140009C46093B99E6314B00249B46304B0322D9
:101150009A46013399462F4B2F4998462F4B304DD5
:101160001193304B1293013313932F4B14932F4B46
:101170009C46093B81E6E1235B009B46C423FF3389
:101180009A4601339946C623FF339846013311939B
:10119000C823FF33129301331393CC23FF331493EB
:1011A000CA23C221E525FF339C460122159CFF314D
:1011B000093B6D0061E6C0468DFEFFFF8FFEFFFF1D
:1011C0008CFEFFFF8BFEFFFF8AFEFFFF89FEFFFF05
:1011D00088FEFFFF87FEFFFF86FEFFFF5252F000F2
:1011E000E44C0000020400000304000004040000BA
:1011F00001040000050400000A04000006040000C9
:10120000070400000B040000090400004203000072
:1012100043030000450300004103000046030000B3
:101220004A030000470300004B030000490300008D
:101230002A0300002B0300002D03000029030000F7
:101240002E030000320300002F03000033030000D0
:101250003103000012030000130300001503000017
:1012600011030000160300001A030000170300001A
:101270001B03000019030000BA030000BB030000B9
:10128000BD030000B9030000BE030000C20300005C
:10129000BF030000C3030000C1030000720300008D
:1012A0007303000075030000710300007603000063
:1012B0007A030000770300007B030000790300003D
:1012C000E1235B009B46C423FF339A4601339946D2
:1012D000C623FF33984601331193C823FF3312937B
:1012E00001331393CC23FF331493CA23C221E52582
:1012F000FF339C460222159CFF31093B6D00BCE583
:10130000A0237821012A00D006E626AA94460822C6
:1013100061448A55102263449A550DE626AA9446E4
:10132000102261448A55282263449A5504E626AA6D
:101330009446102261448A55082263449A55FBE57D
:1013400006239B4601339A4601339946013398465A
:101350000133119301331293013313930333149325
:10136000023B9C4605210E2500240022093B84E512
:101370001B4BFFF783FA1B4B1C9AD358E7E5209BC6
:10138000C8229846C9231C9D239F9B003900E8185A
:101390009200A246229E219C10F0E6F8CB22D200B9
:1013A000AB1807CE07C306CE06C3524643462F00EE
:1013B00023CB23C203CB03C2C8220B4B2100F81856
:1013C000920010F0D1F80022084BFA54C7239B007A
:1013D0009D44F0BCBB46B246A946A046F0BDC046FF
:1013E0005252F000E04C0000B4090000D40C0000A0
:1013F00010B50400024910F0BDF8200010BDC04631
:10140000EC4C0000F0B5C64600B502780E00303A4C
:10141000D1B20300092932D8451C40780100303987
:10142000CCB2092C18D890008218987852008A18EB
:1014300001003039CCB29F1C092C0BD8D8788446D7
:1014400030204042604404000020092C3FD880BC7A
:10145000B846F0BD2B003D00022104008C432C2C2B
:101460000FD000280BD100235001801A8000801873
:10147000C000C0183060431E9841C0B2E7E70020AA
:10148000E5E768783038C1B20929F8D8D9788C46B0
:101490003039092928D881000918490061443039B8
:1014A0000C00302149428C46187984446146C9B207
:1014B000092914D85B790020190030390929C6D9C7
:1014C000002BC4D1A3001B195B006344CCE7900040
:1014D00082185200DD1C60463B008A18BCE70028D9
:1014E000CDD10A236343BFE76346002BC7D16423F2
:1014F0004343B9E770B50400002906D1002B0AD197
:10150000036042608360200070BD062B32D86E49B4
:101510009A008A589746012B10D0022B4FD00C2BE3
:1015200052D80A21023B016042608360EBE703224C
:1015300002600022023B42608360E4E70433036000
:1015400042608160DFE7042303600023436083601F
:10155000D9E70023036043608360D4E7012303607D
:10156000002343608360CEE70223036000234360CF
:101570008360C8E7073B1A0001294AD002292ED010
:101580001D00542B5BD8112118000FF02FF91121E9
:10159000060028000FF02AF900294AD04B1E012925
:1015A00078D0012B00D183E00321022B2BD0591AD4
:1015B000002968D1092366602360A160A3E707338F
:1015C0000360426081609EE70D2B17D00E2B49D03F
:1015D0000F2B4ED00E2342600360816093E7190009
:1015E0004F2B44D81E090F231A400B4221D0531E03
:1015F000012A4FD0012B5BD00221D8E7093B0360C1
:10160000426081607FE70633236000236660A36049
:1016100079E71D00452B23D80D3118000FF0E6F8AF
:101620000E21060028000FF0E1F8002901D0013951
:10163000BEE70523236000236660A36063E75523AC
:101640001100D21A994204D12200204B23CB23C28D
:1016500059E7012A12D022001D4B23CB23C252E7A7
:101660004623EDE7033B0360426081604BE7502374
:10167000E6E7023B03604260816044E72200154BCD
:1016800023CB23C23FE70A290AD80A2366602360D6
:10169000A16038E70623236000236660A36032E779
:1016A0000B290BD00B23236000236660A3602AE77D
:1016B0000723236000236660A36024E704232360DC
:1016C00000236660A3601EE72C55021098B102103B
:1016D000B0B10210A4B10210F0B54646D6464F464E
:1016E000C0B5A54CA54BA544C45C80460D00002C9C
:1016F00000D101E10B889C46A14B6344632B00D9C8
:10170000FAE08A78531E91460B2B00D9F4E0CB788F
:101710009A46002B00D1EFE09A4BCAAE83CB83C62A
:10172000022A00D110E14B46CAAA9B18013B1F7840
:10173000574500D2E0E0944817F02AFD082398436B
:10174000C0B2002800D0D7E0904817F021FD082350
:101750009843C0B2002800D0CEE01022002108A893
:101760000FF0FCFE102200210CA80FF0F7FE28213C
:101770002B88874A18A811F0A9FAE9782B880191DB
:10178000A978844A009104A8102111F09FFA01223F
:1017900018A932A816F082FB002842D18023369A7D
:1017A000CA9091461600DB019A4200D3A4E0CE20F5
:1017B000414600010918CAAB32A816F045FF0028BF
:1017C00000D099E0CA9B4B4500D095E032A817F0B5
:1017D00033FB002800D08FE00A2E28D94246674903
:1017E0006D487318D3189A466C4B10189B1A98467C
:1017F00006E00378471C0A2B06D03800574516D060
:1018000043461B18002BF4D10600471C0A2204A9EA
:10181000013022F097FF0028EFD1F37A2C2BECD186
:101820006BE00438C0B2012866D800239946EC6802
:10183000002C11DBFA21200089000EF0AFFFFA2105
:101840000600890020000EF0A9FF33000091544AE1
:10185000102108A811F03AFA2C69002C11DBFA21AA
:10186000200089000EF09AFFFA210600890020006E
:101870000EF094FF33000091494A10210CA811F09A
:1018800025FA0CAB019308AB4021464A009322A8ED
:1018900004AB11F01BFA444B10AA62CB62C262CBBC
:1018A00062C2196801381160998891809B7993719F
:1018B0003E2821D8322218A9CAA816F0EFFA00282B
:1018C0001AD14B4603AD002B20D110A8039323F06F
:1018D000A1F903AD060002002B0010A9CAA816F05A
:1018E000E3FF002802D1039B9E420FD0CAA817F045
:1018F0004BF9CAA817F0A0FA00242000B123DB009E
:101900009D44E0BCBA46B146A846F0BD002322A8DB
:10191000039323F07FF92B000400020022A9CAA838
:1019200016F0C2FF0028E1D1039B9C42DED1CAA879
:1019300017F02AF90400CAA817F07EFA0443E4B2AB
:1019400063425C41E4B2D8E76646B30700D0EAE6FA
:10195000642130000EF04AFF89B21D27002900D013
:10196000E6E691313000FF310EF040FF89B20029E8
:1019700000D1DDE6D7E6C04678FAFFFFD50C0000BF
:1019800030F8FFFFA05502104855021050550210C4
:101990006055021078550210DF0C000021F3FFFFA4
:1019A0008855021094550210B0550210F0B5C64685
:1019B00000B51C4B84B286B0E31801900020632B65
:1019C00018D86B469A79531E17000B2B12D86B460A
:1019D000DB799846002B0DD0134B03AD43CB43C5A9
:1019E000022A0BD003AABB18013B1D7800204246F7
:1019F0009542404106B080BCB846F0BDA307F1D186
:101A0000642120000EF0F2FE89B21D250029EDD1DF
:101A100091312000FF310EF0E9FE89B20029E5D0B6
:101A2000E0E7C04630F8FFFFA0550210F0B5CE4603
:101A3000474680B505885C4B0400EB1885B0632BE6
:101A400003D88078431E0B2B05D9002005B0C0BCFD
:101A5000B946B046F0BDE3789846002BF5D0534B1D
:101A60009946494601ABC4C9C4C3022858D001AB4A
:101A70001B18013B1B784345E7D34D4B9D421DD0BE
:101A800043464A460133DBB2E37001A99C469846BF
:101A9000C8CAC8C102285ED001AA1218013A127839
:101AA000944509D901230130C0B2E3700D281BD140
:101AB00001230135A37025800120C7E70C281ED023
:101AC00041464A460131C9B2E17001AB8846E0CADD
:101AD000E0C302280BD001AB1B18013B1B788B42E3
:101AE000EAD201230130E370A0700120AEE7434643
:101AF0001C2BE1D90423FF3301206380A6E7434672
:101B00001F2BA2D04A460133DBB2E37001A9C1CA40
:101B1000C1C16A46D27B9A42CED20123E370C7E7A5
:101B2000AB072ED1642128000EF060FE89B2002997
:101B300031D1C821280049000EF058FE89B2002991
:101B400029D06B465B79984500D97EE7434601333F
:101B5000E370DBB29846AB07C9D1642128000EF0D0
:101B600045FE89B2002907D191312800FF310EF0DE
:101B70003DFE89B20029BAD143461D2BBAD80120B7
:101B800064E76B465B79984500D95EE7084B9D4258
:101B900000D075E794E743461D2B00D955E7013384
:101BA000E370DBB29846D8E730F8FFFFA05502108B
:101BB00033080000F0B5DE46454657464E46E0B5D0
:101BC000C34C0D00A5440493F0AB1B7803929B46D5
:101BD000C04BC35C002B04D00868FFF7E7FE002869
:101BE0000AD100242000E7239B009D44F0BCBB46A3
:101BF000B246A946A046F0BDB74817F0C9FA082476
:101C0000A043C0B20028ECD1B44817F0C1FAA043F9
:101C1000C0B20028E5D1EA782B880192AA780D217C
:101C200000920EA8AE4A11F051F80CAF2B683800A4
:101C30000C93FFF7FBFE041E0790D2D0FA783B8886
:101C40000192BA780D21009212A8A54A11F03EF82F
:101C5000E9782B880191A978A24A009116A8402121
:101C600011F034F80A2216A94EA816F017F9002828
:101C7000B7D15D2226909C4926AB4EA816F014FEE3
:101C80009A4A071E03D1269B5D2B00D140E112AB7F
:101C900001930EABA021009326A811F017F800269F
:101CA0000027934BB8469A46924B079A9946924B17
:101CB0000994089306950EE0002E59D100220026C3
:101CC0005146043143468A46494601330431984619
:101CD0008946102B59D04146069B1B89CB40DB0718
:101CE000EED5002AE8D0002EE8D05B46002B3CD190
:101CF00053461E680BAC0322002120000FF02EFC7F
:101D0000327800250DAB002A21D005935C2A21D022
:101D10003B2A1FD02C2A1DD00A2A20D022706570A1
:101D200020000D9522F076FF210007000200059BA0
:101D30004EA816F0B9FD002802D10D9B9F4202D09B
:101D400000260022BCE772780136002ADED100228C
:101D5000079EB5E75C2362702370A570E0E7089AE0
:101D6000138823809378A370DAE74B461E68C1E797
:101D70000D9262490DAB02324EA816F095FD002877
:101D80009CD10D9B022B99D1AFE7099C069D002A9F
:101D900045D0002E00D02BE2594A039BA02100938E
:101DA00026A8049B10F092FFEF68002F75DB5B46BE
:101DB000002B00D018E1FA21524E3800890003961A
:101DC0000EF0ECFC0191FA21380089000EF0E6FCDF
:101DD00032000090A0214C4B26A810F077FF2F690D
:101DE000002F12DB494CFA21380089000EF0D6FC96
:101DF0000191FA21380089000EF0D0FC23000090F8
:101E0000A021039A26A810F061FF4EA816F0BCFE90
:101E10004EA817F011F816A817F04CF8E1E6039B4E
:101E2000A0210093364A049B26A810F04FFF002EF5
:101E3000BAD00DAB9846002326A80D9322F0EAFEF7
:101E400043460200070026A94EA816F02DFDEE68B5
:101E5000002803D10D9B9F4200D1F0E0002E1CDB37
:101E60005B46002B00D090E2FA21264F300089001B
:101E700003970EF093FC0191FA21300089000EF0D7
:101E80008DFC3A000090A0211F4B26A810F01EFFE9
:101E90002F691E4C002FA6DAB7E72F69002FB4DB9D
:101EA0005B46002B00D049E2FA21380089000EF091
:101EB00075FC0191FA21380089000EF06FFCA02119
:101EC0000090124B0F4A26A810F000FF9DE7C04675
:101ED00064FCFFFFD50C000048550210105602109C
:101EE000205602103056021060560210C0560210E2
:101EF00018B1021058B10210B85702103057021032
:101F00003C57021084570210A857021000560210C6
:101F100012AB01930EABA021009326A810F0D6FEC1
:101F200026A80D9722F076FE0DAB0700020026A929
:101F30004EA8984616F0B8FC002800D0AFE60D9BDE
:101F40009F4200D0ABE6002323220D93C5494346B0
:101F50004EA816F0A9FC002800D0A0E60D9B232B6C
:101F600000D09CE65B46C04E002B00D1BF4E0BAFAD
:101F70000322002138000FF0F1FAA9464123250081
:101F80005C2B25D03B2B23D02C2B21D00A2B25D00A
:101F90003B7000237B70002338000D9322F03AFE43
:101FA00043460400020039004EA816F07DFC0028CC
:101FB00002D10D9B9C4203D02C0000264D466FE6BB
:101FC00073780136002BDBD12C00079E4D4667E667
:101FD0005C227B7000233A70BB70DCE7A44B1A884C
:101FE0003A809B78BB70D6E7FA21A24E3800890070
:101FF00003960EF0D3FB0191FA21380089000EF010
:10200000CDFB32009C4B0090A02126A810F05EFE74
:102010002F69002F00DAF8E6FA21380089000EF067
:10202000BDFB0191FA21380089000EF0B7FBA02119
:102030000090924B039A26A810F048FEE5E6002E89
:1020400000DA6CE18E490D90434602224EA8894683
:1020500016F02AFCEF68002800D0A8E60D9B022BA2
:1020600000D0A4E65B46002B00D06BE1FA21814B47
:102070003800890003930EF091FB0191FA2138009A
:1020800089000EF08BFBA02100907E4B039A26A8BE
:1020900010F01CFE0BAF0322002138000FF05EFA97
:1020A00008AB78331B78002B2FD0A24626AE5C2BD2
:1020B00000D18BE03B2B00D188E02C2B00D185E0B8
:1020C0000A2B00D18EE03B7000237B700023380088
:1020D0000D9322F09FFD43460400020039004EA8F4
:1020E00016F0E2FB002802D10D9B9C4208D02F691C
:1020F000002F00DA89E65B46002B00D172E68BE701
:1021000073780136002BD2D154462B69002B00DAAC
:1021100089E0002302220D93494643464EA816F05B
:10212000C3FB2F690028E6D10D9B022BE3D1FA21D6
:10213000380089000EF032FB0E00FA2138008900C9
:102140000EF02CFB5B46002B00D110E10090A0218B
:102150004A4B039A019626A810F0B8FD0BAF032254
:10216000002138000FF0FAF908AB78331B78002B08
:1021700059D0AA46A146454626AE1FE03B2B1FD0AC
:102180002C2B1DD00A2B27D03B7000237B70002303
:1021900038000D9322F03EFD2B00040002003900B0
:1021A0004EA816F081FB002800D02EE60D9B9C4225
:1021B00000D02AE673780136002B32D05C2BDDD1BB
:1021C0005C227B7000233A70BB70E0E75C227B707E
:1021D00000233A70BB7079E7254B1A883A809B78C8
:1021E000BB70D4E7224B1A883A809B78BB706DE7AE
:1021F000002304220D9324490DAB4EA8984616F0F7
:1022000053FB224A002800D0C7E50D9B042B00D0C9
:10221000C3E5039BA021009326A8049B10F056FD64
:1022200009E64C4655462B7D002B5CD00023082246
:102230000D93174943464EA816F036FB002800D0F0
:10224000E3E50D9B082B00D0DFE50BAF0322002157
:1022500038000FF083F92B7D002B44D0A1461435B4
:10226000444637E00C570210E0550210D0550210DA
:10227000B85702108457021098570210F0550210F8
:1022800054570210A8570210345702103C5702103E
:10229000585702103B2B1FD02C2B1DD00A2B47D098
:1022A0003B7000237B70002338000D9322F0B2FCBA
:1022B00023000600020039004EA816F0F5FA0028A7
:1022C00000D0A2E50D9B9E4200D09EE56B780135C3
:1022D000002B07D05C2BDDD15C227B7000233A7091
:1022E000BB70E0E74C4600231D220D932F49434667
:1022F0004EA816F0D9FA002800D086E50D9B1D2BBC
:1023000000D082E54EA816F03FFC05004EA816F05E
:1023100093FD2843C0B2002800D163E47BE52B691C
:10232000002B00DA7FE7224B9946224B0393F0E61D
:10233000214B1A883A809B78BB70B4E71D4B1F4C29
:10234000039350E5FA211B4B3800890003930EF0EC
:1023500025FA0191FA21380089000EF01FFAA02118
:102360000090174B039A26A810F0B0FC92E6FA21D1
:102370003800890001960EF011FAA0210090114B4F
:10238000039A26A810F0A2FCE8E6FA21094F3000D3
:10239000890003970EF002FA0191FA2130008900BA
:1023A0000EF0FCF93A00064B00902DE6645702103F
:1023B0005457021084570210B8570210F0550210FB
:1023C000985702100056021070B504000D0022F05C
:1023D00021FC030000200A2B02D123792D2B00D0F1
:1023E00070BDE3792D2BFBD13022524294462378E5
:1023F0009C446346DBB2092BF2D861788918CBB2D2
:10240000092BEDD8A278303AD3B2092BE8D8E3787B
:10241000303B1E00DBB2092BE2D86379303B092B3D
:10242000DED8A379303B092BDAD8237A303B092B4D
:1024300029D8637A303B092B25D8FA2360469B00C4
:102440004343642041439B195B189100521852008A
:102450009B182B806379303B9A009B18A2795B0014
:10246000303A9B18AB70237A303B9A009B18627A03
:102470005B00303A9B18EB7068882B880004184387
:10248000FFF794FAACE70020AAE7C046F0B5C646CD
:1024900004000D008E4A002100B50FF05FF88D4B4F
:1024A000AA882360062323716B68E2801A0C1B0E36
:1024B0006372894B2272EB5AAA8963812B886282EC
:1024C000A3812B89E3816B892382EB681A0C1B0E95
:1024D00063752B8A2275E3826B69002B01DA012375
:1024E0005B42A361AB69002B01DA01235B42C0268A
:1024F000E361202376012900A3512B001C317D3399
:10250000994206D02000612220300FF02DF881235F
:10251000A351C0232E005B01E358803698466E4BD2
:10252000EF18BE423FD043463288E254E318120A05
:102530005A70B2789A70F278DA707268110A1A7169
:102540005971110C120EDA71328999711A72120ACC
:102550005A72F268002A01DA01225242110A9A7272
:10256000D972110C120E5A7332691973002A01DAEA
:1025700001225242110A9A73D973110C120E197466
:102580005A74310033004046143175331230994289
:1025900000D196E0612220180EF0E6FF73239844E4
:1025A0007836B742BFD1434642465F1C4B4BEB5C8B
:1025B000A3544B4BEE184B4B9846A844B0450BD058
:1025C0003378781C711C212220182236E3550EF036
:1025D000CBFF2237B045F3D1424BC022EB5C7E1CCF
:1025E000E355414B52019846404BA844ED18A65084
:1025F000A8451FD02A88A319A255120A5A70AA7892
:10260000771D9A70EA78A91DDA70AA88B01D1A7130
:102610002B00120A2733E255994256D02122201866
:102620000EF0A2FF213727362835A845E2D1C02376
:102630005B01E650002E46D0631CDF190123250004
:1026400001202B495B422A78013553405A08034048
:102650005B420B405A405308024052420A405340EA
:102660005A0803405B420B405A4053080240524212
:102670000A4053405A0803405B420B405A405308FB
:10268000024052420A4053405A0803405B420B400A
:102690005A405308024052420A405340AF42D2D1FE
:1026A000DB43A219190AA3555170190C1B0ED370E4
:1026B000C02304365B012000E650917080BCB84610
:1026C000F0BD80466CE70023EBE70600ACE7C046B0
:1026D000041800004C505331080F00000A0F00008E
:1026E0000B0F00003B120000B41200003C1200006F
:1026F0002083B8EDF0B54E46DE4657464546E0B578
:102700000D4C0E4BA54481460392994220D00C4BB0
:1027100099421DD00B4BCB18012B19D90A4BCB1862
:10272000012B15D900242000084B9D44F0BCBB466A
:10273000B246A946A046F0BD34EDFFFF19120000D5
:10274000A31100008FF1FFFF10F2FFFFCC12000079
:102750004B465B18DA1E10781A1F127800021043DD
:102760009A1E1278013B1D784B4601271204024342
:102770004C4601202D0615431E1FD64A76187F426F
:10278000237801347B405F0803405B4213405F4085
:102790007B0807407F4217407B405F0803405B4255
:1027A00013405F407B0807407F4217407B405F0833
:1027B00003405B4213405F407B0807407F42174065
:1027C0007B405F0803405B4213405F407B089C46B0
:1027D00007407B42674613405F40B442D0D1FB4381
:1027E000AB429FD14B464A469B7852781B0412025B
:1027F00013434A46127813434A46D27812061343CB
:10280000B54A934200D08DE74B464A465B79127930
:102810001B0213430093012B00D19EE2022B00D137
:10282000A8E2032B00D09EE2AC4B994200D079E79E
:1028300004AB984600211800A94A0EF08FFE012330
:1028400042465370A74A4146249284228B5001216C
:10285000424649428B33D1500433D1500122A24C1D
:10286000A24842ABA24D04AE1C8058805A60D96089
:102870001961AD197833AB42F4D1922341465B0123
:10288000CA529C4B4046CA529B4BCA524B464A4680
:102890001B7AD2791B04120213434A4692791343DE
:1028A0004A46527A120613434B604B46904A9B7A33
:1028B0008B544A469149D27A42540099012900D159
:1028C000B9E24946097B012900D92BE7017000993B
:1028D000032900D89FE24946497B042900D921E712
:1028E000002541701E2100200024994268410131D9
:1028F00091426C410E2604404B4649469A19537842
:10290000895D1B020B4341460B81937804368B7221
:10291000D378CB724B464A469B195978925D09028F
:1029200011439A78DD7812040A432D061543424676
:10293000D5605A79197912020A43414630000A8259
:10294000DA79997912020A43197A0A300904114393
:102950005A7A12060A43511C04D0694F511EB942DB
:1029600000D974E241464A614A46D97A125C0902AA
:1029700011431A7B5B7B12040A4331001B0613438D
:102980000E315A1C04D05E485A1E824200D962E2BF
:102990004246494493610BA861220EF0E5FD6F2386
:1029A0009A46B244002C0FD0002D00D1F6E14246E9
:1029B0000D33D35C002B00D0F0E11389002B03D042
:1029C0009068FEF7F3FF0400424643464146127FFB
:1029D0005E201C337D31002A0CD000250026203AD1
:1029E000D2B29042754101332C408B4215D01A78F7
:1029F000002AF2D15A1C91420FD0531C8B420CD0AA
:102A000050780028F6D0931C8B4206D09278002A8A
:102A1000F0D01A00531C8B42F2D180234746434426
:102A20009B460025F5375B461D805D80009B022B91
:102A30000FD94B46564648465344DA7899785B7826
:102A4000805D1B0203435846038004238170C270DB
:102A50009A444B4653445A789978120209045046D6
:102A60000A434946095CD8790A43D9780002090625
:102A70000A4359464A605A79197912020A4359465B
:102A80000A8151461A7A0A31120410439A79104386
:102A90005A7A12060243501C04D0194E501EB042FE
:102AA00000D9B4E15846C260DA7A187B12020004F9
:102AB00002434846415C5B7B0A4351461B06134375
:102AC0000E315A1C1ED00E485A1E824200D987E190
:102AD00018E0C0462083B8ED4C505331710E000011
:102AE000B4120000EA070911EA070000091100000A
:102AF000080F00006812000090120000090F00008B
:102B00003E420F005E465A46143613613000612281
:102B100049440EF029FD6F235344019353466E330D
:102B20000293002C00D16BE15B465B68002B00D167
:102B300066E15B4674229B5C002B00D060E15B4643
:102B4000019A1B889246002B04D05B461868FEF75A
:102B50002DFF040033785E22002B00D020E10136E7
:102B6000BE420BD03378002B05D10136B74205D0D9
:102B70003378002BF3D00136B742F6D178239B444B
:102B8000BC4B04AA9B1878379B4500D04BE7009BB1
:102B9000042B00D8D8E04B464146019AB64E9A5CC9
:102BA000B64B4644CA540023182191425B411C4055
:102BB0004B469F1C029BFF18B14B43449A46B14BB6
:102BC0004344019300239B463B005F469B465B4684
:102BD0000021022000221B78350098424A4114400F
:102BE000524613705B46213D21222800591C0EF0ED
:102BF000BBFC002C04D0019B1C7863425C41E4B216
:102C00002B78002B00D0DAE00135AE420BD02B78C8
:102C1000002B05D10135AE4205D02B78002BF3D027
:102C20000135B542F6D14246944BD35CBB4204D940
:102C300053465B785A1E93411C4022239B449A447E
:102C4000019B0137223322360193182FBFD1009BFD
:102C5000052B79D00298414603008B4A4B449A5C7D
:102C60008A4B8B4DCA540023032191425B411C4087
:102C7000884B4D444344994600239B4626339A464D
:102C8000854F2D1847446B782A781B0213433B80ED
:102C9000AB782A79BB70EB78BE1DFB706B79300086
:102CA0001B021343BB802122A91D0EF05DFC002CEA
:102CB00004D05346FC5C63425C41E4B23378002BA1
:102CC00018D0AC464A46002100205E25203BDBB2EE
:102CD0009D42414101360C40B24200D194E033782C
:102CE000002BF0D1654691460136B1450BD03378C3
:102CF000002B05D101364E4505D03378002BF3D09B
:102D00000136B145F0D14246604BD35C5B4512D9E8
:102D1000002C10D03868FEF749FE041E0BD0B622F6
:102D2000BB880024013B9BB25200934203D8BC797C
:102D3000631E9C41E4B201239B44273399445B46C4
:102D400027352837032B9ED1002C00D1EAE44146D9
:102D5000524A03980EF008FCE5E4DF231B01994278
:102D600000D0DFE464E5042B09D14D4B994200D03B
:102D7000D8E45DE54B4B994200D0D3E458E5052BF0
:102D800007D0062B00D0CDE4474B994200D0C9E4D0
:102D90004EE5464B994200D0C4E449E5002413E6D1
:102DA0002900203BDBB29A42694101360C40BE4209
:102DB00000D1E3E63378002B00D1D6E6F0E700221D
:102DC00000215E20203BDBB298424A41013514408D
:102DD000AE4200D127E72B78002B00D11AE7EEE7AF
:102DE00001235E465A465B4214361361300061226D
:102DF00049440EF0B9FB6F2353440193013B029306
:102E0000019B00249A46A5E6654691467BE7012290
:102E10000024524246E61F21002500200024914252
:102E20006841013999426C41009B0D260440032BF7
:102E300000D161E56EE51F210025002000249142AC
:102E40006841013999426C410C26044062E5012237
:102E50000024524286E5012342465B429361494485
:102E600061220BA80EF080FB6F239A460024B24427
:102E7000AAE5C046080F00002D0F00000A0F000051
:102E80000B0F00002C0F0000320300003B1200006B
:102E900033030000631200003C120000B412000073
:102EA000720E0000F10D000019120000A3110000C5
:102EB000F0B5CE46474680B5624C634AA5448C00C7
:102EC000002105000EF04AFB604B0122E15802A8E8
:102ED00014F0E4FF031FDBB20400012B04D9002827
:102EE00009D003225A4BEA5428005A4B9D44C0BCD7
:102EF000B946B046F0BD069A574B17009A420ED01D
:102F0000564B9A420BD056495318012B07D9554AB4
:102F1000BB18012B03D90023019098460AE0002337
:102F20003A000193290001AB02A815F08DFB0123A3
:102F30000400984602A815F07FFF0443E4B2002C79
:102F4000CFD101220121484E484C4948D8AB6E44AC
:102F500052421C8058805960DA601A6178339E4270
:102F6000F7D14346002B02D0019BBB4203D0022283
:102F7000374BEA54B8E73F4B2A689A42F7D13B00F7
:102F8000103B1A009946AB689A42F0D1391F681875
:102F900042786B5C12021A4383781B041343C27895
:102FA00012061A439446002948D001232E0001201E
:102FB0002C1F3149E4195B42327801365A405308DC
:102FC000024052420A4053405A0803405B420B40C1
:102FD0005A405308024052420A4053405A080340A4
:102FE0005B420B405A405308024052420A40534051
:102FF0005A0803405B420B405A4053080240524279
:103000000A4053405A0803405B420B405340A642DB
:10301000D2D1DB439C45AAD1280049469AAA0C305C
:10302000FFF768FB0028A2D06A68144BEA504A46B2
:10303000134BEA500122064BEA5455E701235B4249
:10304000E7E7C046DCEAFFFF3812000098AE021046
:10305000341200002415000029120000B3110000F2
:103060007FF1FFFF00F2FFFF70110000EA07000090
:10307000091100004C5052312083B8ED2C12000091
:1030800030120000F0B5C64600B598462B4B2C4CCC
:10309000C35CA5440F000400002B3BD0294B9A428F
:1030A00032D900216846FFF703FF274B01216B440B
:1030B0001800FFF7FDFE6B46244A9B5C032B23D0D0
:1030C0006946214809188A5C032A1DD0012B23D0A8
:1030D000012A16D16A461C491D4B5218D3581A4A68
:1030E00001206A4411001B4AA0501B4A3800A3501B
:1030F0001A4BCA5843460C311A600EF035FA0120BB
:1031000003E00020134300D00320154B9D4480BCF6
:10311000B846F0BD0220F8E70D4B00209C466B46F8
:1031200061465B586946012ADDD16546064E8A191B
:1031300052599A42D7D91300D1E7C046D50C0000A6
:1031400090DBFFFF1812000038120000341200005C
:103150002C120000D80C0000DC0C00003012000023
:1031600070240000F0B54646D6464F46C0B5664BC3
:10317000664CC55CA544884604001600002D06D0A8
:10318000634BC35C002B02D1624B9A4208D00025EE
:103190002800614B9D44E0BCBA46B146A846F0BD4C
:1031A0005E4FC3590133F2D05D4815F0F1FFF723AC
:1031B0001842ECD15B4B0021E3589BA85A42534183
:1031C000594ADBB299460EF0C9F9584B9D229B93A0
:1031D000E359920001339C936B4641469E529EA850
:1031E00032000EF0C1F9524B01216B449C46012381
:1031F000504A9BA85B42067801305E4073080E403F
:103200007642164073405E080B405B4213405E40BE
:1032100073080E407642164073405E080B405B42D6
:1032200013405E4073080E407642164073405E08BD
:103230000B405B4213405E4073080E4076421640DE
:1032400073405E080B405B42134073406045D2D12F
:103250009B206946DB436E468000374A09188B5431
:10326000364A190A3618B1546E46354A190C3618C2
:10327000B154344A1B0EB3544A46334B9200D158D2
:1032800002A80A2214F00AFE002800D07FE7264E8A
:1032900001AB32009BA9019002A815F005FB0700C5
:1032A00002A815F071FC804602A815F0C5FD019B2F
:1032B0009A46B34224D13B00424613431843C0B25E
:1032C00000281DD1214B49466B441800FFF7F0FD43
:1032D0006A461E481E4B1218D35C012B10D1030006
:1032E0006B44524618009BA921F02CFA002807D104
:1032F0004A460C4BE250094AA3580133A35047E712
:103300000122034BE25442E7D50C000030D9FFFF05
:10331000D60C000019120000D0260000DC0C0000C2
:1033200048550210D80C0000291200004C505231B0
:10333000911400002083B8ED251200002612000031
:10334000271200002812000098AE02109814000006
:1033500034120000F0B5DE4657464E464546E0B50D
:10336000BDB005901078002800D1F5E07B2623AD94
:10337000A84604AD7619F825ED0001243F27AC4698
:10338000994609E0050050781A003555002813D0F9
:103390000134642C00D1DAE00500C23D531C012D3C
:1033A000F0D85578AA46BD43802D6AD00500504616
:1033B0001A0035550028EBD14B46444400222270B8
:1033C000059A10680268D4680A010492644A94421B
:1033D00000D0ABE042461478132900D9ADE0614D2E
:1033E00042185355002C00D1A7E08A005218D20091
:1033F0000432821800234046D454C1184C78002C63
:1034000002D00133282BF7D180465C220CA8564904
:1034100003900EF0A9F800239B46F823DB003F251C
:103420009A46474604ABDC1D5B465F44B84623AF73
:10343000FB18013B039E029331680B78002B67D089
:103440000122B446B94608E018004B783100A05478
:10345000002B11D00132182A25D01800C2384E1C7A
:103460000128F1D84F783800A843802812D01800DE
:1034700031003B1EA054EDD106AB66464F46D21834
:1034800016E08301554660463D4003401D43907859
:1034900002327AE79E013800534628401E403043EE
:1034A0008B780231D3E71F2366464F4604AA9A1849
:1034B000002306A8137021F0ADFB06A98146020087
:1034C000404621F01FFA00280FD15B46002B06D0A2
:1034D0002022029B1B789343413B192B05D94A4676
:1034E0005A44BB5C613B192B14D80436B742A3D1B4
:1034F00001239B445B46FB5C002B02D05B46272BE1
:1035000090D93DB0F0BCBB46B246A946A046F0BD3E
:1035100006AACDE7059B160018685B46D90003682C
:10352000049A1C694B46A047B346E3E70093002189
:103530004346049AA04743461C780CA85C220A49DB
:1035400003900EF011F8002C00D064E7D9E77B342B
:1035500004AA4B46A41831E723AA904614002DE78D
:103560001904001044060000BCB10210F0B5464634
:10357000D6464F46C0B58C4B8C4CC358A5448846A4
:103580000400002B00D0EDE0894BC35C002B12D06F
:103590000379012B00D1F5E0864B8749874A6018F3
:1035A00064210FF093FB0020854B9D44E0BCBA469C
:1035B000B146A846F0BD834B824D6B441800FEF720
:1035C00065FFC0226846216852010B684019865881
:1035D0009B6A7D4A8946934200D0D5E07B4BCB5C09
:1035E000002B00D1C7E07A4B0D00CB5C002B00D044
:1035F000C1E0784B9E4200D0BDE0774FCB590133FC
:1036000000D1B8E0754815F0C3FDF723184200D08B
:10361000B1E0734B0021EB589AA85A425341714ACA
:10362000DBB29A460DF09AFF6F4B9C229A93EB59AE
:10363000920001339B936B469E52624B32006B4467
:1036400019009DA80DF090FF01235B429C460121CB
:10365000664A9AA86546037801306B405D080B40C6
:103660005B4213406B405D080B405B4213405D4082
:103670006B080D406D4215405D406B080D406D427A
:1036800015405D406B080D406D4215405D406B0874
:103690000D406D4215405D406B080D406D42154078
:1036A0006B405D080B405B4213405D40504BAC46A5
:1036B0006B449842CED19A206946EB436D46800018
:1036C0004C4A09188B544C4A190A2D18A9546D46B6
:1036D0004A4A190C2D18A954494A1B0EAB5452469C
:1036E000484B9200D15802A80A2214F0D7FB0028B8
:1036F00041D13C4A01AB9AA9019002A815F0D4F837
:10370000060002A815F040FA050002A815F094FB87
:10371000019B344A1F00934229D133002B431843A5
:10372000C0B2002823D1384B51466B441800FFF734
:10373000BFFB6A463449354B5218D35C012B16D176
:10374000314B3A006B4418009AA920F0FBFF002887
:103750000DD149465246224BCA501F4A8B5801335D
:103760008B5018E00379012B0AD0294B15E7012271
:103770004946174BCA542379012B13D0254B0CE72C
:10378000254B0AE7254B08E70E49320048466944B5
:1037900098470028EFD04146214A201D0DF0E4FE55
:1037A000012001E71F4BF8E6C812000030C1FFFFFF
:1037B000CC120000205802106C130000B0820210DE
:1037C000D03E0000CC26000065310010D50C000072
:1037D000D60C000019120000DC0C00004855021045
:1037E000D80C0000291200004C5052312083B8ED53
:1037F0008D14000025120000261200002712000080
:103800002812000098AE0210941400003412000038
:10381000DC57021060580210BC570210F457021017
:10382000B412000040580210F0B546464F46D64646
:10383000FA24C0B583B286B0070C984600260190E2
:10384000FFB2E400A34220D9032514E0642118004C
:103850000CF0CCFF89B2002947D191314846FF31A5
:103860000CF0C4FF89B24B4259416E31FF31013433
:103870007618A04509D9A3B299462C42E6D06E210C
:103880000134FF317618A045F5D8012F24D94346DD
:103890009B072DD103AB9A46264B0124994606E09F
:1038A0006B460B331B5DF6180134BC4214D25346F1
:1038B0004A4623CA23C3631EDBB20B2BF4D8022C67
:1038C000EED1642140460CF091FF89B2002926D048
:1038D0001D360134BC42EAD301ABD878801906B05A
:1038E000E0BCBA46B146A846F0BDB7214900BEE7E4
:1038F0000B2403AA92460F4A6C4401239146A44626
:103900005246494631C931C25A1ED2B20B2A02D898
:103910006246D25CB61801339F42F1D8DCE7C82179
:10392000404649000CF062FF89B20029B8D11D362B
:10393000CFE7C046A0550210F0B5DE464E465746CA
:103940004546E0B5A14C031DA544040019001193A0
:103950009F4B12A818189F4A0DF006FE9E4BE65C7E
:10396000002E00D11AE1A2899C4F0592A17B100084
:103970000D91E37BBF180A934B1EDBB20E9303231A
:103980001A40922364215B019B460B920CF02EFFA0
:103990008BB20F930023BFB2A3440025DA460293F3
:1039A00004960897109417E0A8008D4B4019C000AA
:1039B000C01812ABC0188B4B27225146C0180DF00F
:1039C000D3FD2822029B9244049A01336C1C02937B
:1039D000934200D310E12500089B632BE4D8032316
:1039E00098460D9E09950E9B0B2B00D9EBE00A9B88
:1039F000002B00D1E7E07C4B12AA9B189B465A464D
:103A00007A4B039313CB13C2022E00D171E15B46B4
:103A10009B19013B1B780A9A934200D2D3E0FA2209
:103A2000059BD200934200D1DBE1FA240025B14688
:103A3000059FE40015E06421A0B20CF0D7FE89B226
:103A4000002900D04FE19131FF31A0B20CF0CEFE41
:103A500089B24B4259416E31FF3101346D18BC427D
:103A600008D243461C42E6D06E210134FF316D1866
:103A7000BC42F6D34E46012E23D00B9B002B00D127
:103A80004AE1022E00D1D5E2032E00D1D4E2042E69
:103A900000D1C3E2052E00D1C2E2062E00D1C1E260
:103AA000072E00D1C0E2082E00D1C7E2092E00D1B6
:103AB000C6E20A2E00D1C5E20C2E00D0C5E24F3579
:103AC000FF350A9AAB18069353461F889B7800254A
:103AD00099465346DB780793FA23DB009F4226D9A9
:103AE0001C004B46B146019315E06421A0B20CF0D6
:103AF0007DFE89B2002900D0F8E09131FF31A0B2FB
:103B00000CF074FE89B24B4259416E31FF310134E1
:103B10006D18BC4208D243461C42E6D06E210134E7
:103B2000FF316D18BC42F6D3019B4E4699464B4679
:103B3000012B1CD943463B4200D11DE12C4A12A95E
:103B40005218944649465A460123A946B3461000E6
:103B5000039CE0CCE0C0581EC0B20B2802D86046DF
:103B6000C05C814401339942F1D84D465E465346CC
:103B7000079A9B889B18069A5B19934223D82822A0
:103B8000029B9244049A013302939A4200D92AE795
:103B9000099D1600AA46109C564532D1154B9D44EE
:103BA000F0BCBB46B246A946A046F0BDC821059868
:103BB00049000CF01BFE89B2002900D01EE20A9BCE
:103BC0001D2B00D820E2099DEEE6C0462CAEFFFF7B
:103BD000D0260000B41200003F12000030F8FFFFB2
:103BE0008851000084E7FFFF84390000A0550210CF
:103BF00083390000D4510000A2461600109C56459F
:103C0000CCD05346022B4DD8774D12ABED1828225D
:103C1000002128000DF0A2FC534699005144734B3B
:103C2000C900CB1812AA9B18984671490127414434
:103C30000B002A00AF8043CA43C343CA43C343CAED
:103C400043C31188198092789A705346022B29D069
:103C50002822002128000DF081FC66492A004144F9
:103C60000B00AF8043CA43C343CA43C343CA43C3E1
:103C70001188198092789A705346002B12D1002136
:103C8000282228000DF06AFC5B4B12AAAF809B181B
:103C900007CD07C307CD07C307CD07C32A881A80FE
:103CA000AA789A70554912AA52185146544BD154C9
:103CB000544BE358002B0AD1534BE35C002B00D14B
:103CC000AEE02379012B00D17DE1504B04E0237954
:103CD000012B00D179E14E4B4E494F4A60186421C7
:103CE0000EF0F4FF5AE7B7214900B6E6B7214900C4
:103CF0000DE70B9B002B00D080E10F9B002B00D128
:103D000054E70A9B1D2B00D95DE7FA23059A00258D
:103D1000DB009A4200D088E61F35022E00D1D0E6A3
:103D20000F9A1D23002A08D1C821059849000CF0DC
:103D30005DFD8BB25A4253411C33ED18032E00D166
:103D4000BFE6042E00D175E1052E00D180E1062EDC
:103D500000D17FE1072E00D17EE1082E00D17DE168
:103D6000092E00D162E10A2E00D161E10C2E00D0B3
:103D700052E11435FF35A4E60C9701955F46012406
:103D8000B346039D0BE0254A12AB9B18019A1B5DBD
:103D900094469C446346019301344C451ED23B003B
:103DA0002A0043CA43C3631EDBB20B2BF4D8022C98
:103DB000E9D164210C980CF019FD89B2002907D1D2
:103DC000C8210C9849000CF011FD89B20029DAD104
:103DD000019B01341D3301934C45E0D35E46019DA8
:103DE000C5E6002547E6C04684390000885100003A
:103DF00084E7FFFFACE7FFFF5C390000D02600003E
:103E00003B120000C8120000CC1200002058021023
:103E1000DC5702106C130000B082021083390000DE
:103E20008F4B12AA9B1898468E4B40469918FEF766
:103E30002DFBC0224146256852018A582B689146C5
:103E40009B6A894A934200D0C9E0884BEB5C002B07
:103E500000D1BFE0864BEB5C002B00D0BAE0854B75
:103E6000994500D0B6E0844B9A46EB58013300D117
:103E7000B0E0824815F08CF9F723184200D0A9E091
:103E80007F4BADAEEF5800217E4A30000DF066FB4F
:103E90007B425F417C4B4A46AD935346EB584146CB
:103EA0000133AE934B46B0A833810DF05DFB774BE9
:103EB00012AA9B189C4601235B42300001219846C0
:103EC000A146734AFFB244460378013063405C0860
:103ED0000B405B42134063405C080B405B42134065
:103EE00063405C080B405B42134063405C080B403E
:103EF0005B42134063405C080B405B4213405C40F4
:103F000063080C40644214405C4063080C40644207
:103F1000144063405C080B405B4213405C40A04689
:103F20008445D0D12300DB435A4A190AB3545A4A74
:103F300014A8B154594A190CB154594A1B0EB35420
:103F4000584BBA00D1580A224C4613F0A7FF00285C
:103F500040D14C4B31009846139013AB424614A805
:103F600014F0A2FC824614A814F00EFE834614A896
:103F700014F062FF139B9946434528D15B46524695
:103F80001A4303001343DBB2002B20D1464B12AA85
:103F900098183900FEF78CFF4349444B12AA521877
:103FA000D35C012B13D1404B12A84A46310018189C
:103FB00020F0C8FB00280AD1314B2F4AEF50AB58F4
:103FC0000133AB5010E03A4B86E63A4B84E60122CF
:103FD000274BEA542379012B0ED0374B7CE64A4617
:103FE000280098470028F5D01E4B12A9334A119893
:103FF00059180DF0B9FAD1E5314B6DE65B460A9AD6
:104000005B789A4200D9DEE5FA23059A0025DB00A9
:104010009A4200D009E530E5F53552E55A3550E5CC
:1040200078354EE597354CE5B5354AE5B83548E580
:10403000D63546E51F3544E53B3542E5D43540E508
:10404000F3353EE51235FF353BE53135FF3538E5D3
:104050003D3536E55C3534E57A3532E5993530E580
:1040600084390000D026000065310010D50C000016
:10407000D60C000019120000DC0C0000485502109C
:10408000D80C0000291200004C505231911400004D
:104090002083B8ED25120000261200002712000030
:1040A0002812000098AE021098140000341200008C
:1040B000F4570210BC57021060580210B4120000EE
:1040C00040580210F0B5DE4657464E46454600229F
:1040D000E0B5514B93B0C1500433C2504F4B040074
:1040E0009C46844460460B320F000021E2460DF0EE
:1040F00035FA4B4B0422E618002130000DF02EFA61
:10410000484B2122E518002128000DF027FA464BE4
:10411000E35CBB425DD99223B900C919C900671895
:104120005B01F918282208A80DF01EFA92235B0102
:10413000FB5A98463D4BFB5C02933D4BFB5C9B4618
:104140003C4BFB5A994643463B4A9B18632B20D86D
:10415000029A531E0B2B1CD85B46002B19D0374BF1
:1041600005AF07CB07C7029A022A40D0029A05ABD7
:104170009B18013B1B780393039A5B465A4508D36F
:104180000193029B0B210093504643462C4A0EF0AC
:104190009DFD4B46042130002A4A0EF097FD1E215A
:1041A00002ABC918212228000DF0DEF90322264BAC
:1041B0000021E2500022254BE250254B6432E018EA
:1041C0000DF0CCF913B0F0BCBB46B246A946A046F0
:1041D000F0BD2422002109A80DF0C0F9A38998465A
:1041E000A37B0293E37B9B4601239946ABE74746BB
:1041F000BB07BBD1642138000CF0F8FA1D2389B24B
:1042000003930029B8D191313800FF310CF0EEFA58
:1042100089B20029B0D0A9E7DC130000E413000044
:10422000EF130000F31300003F12000042120000E1
:10423000431200004412000030F8FFFFA0550210A6
:1042400078550210C4700210B8120000BC120000B1
:104250006C130000F0B5DE464E4645465746E0B5C5
:10426000D84BD94CC55C06008B46A544002D00D127
:104270008BE0D64B0022C35CB4461C00D44BC7185D
:10428000390000200B7801321B1B5E427341223142
:10429000C018AA42F6D36646A4461824002814D0B3
:1042A000CC4B0024F15860463B0003E0013422333C
:1042B000AC4209D21A788242F8D1002905D00134E3
:1042C00001392233AC42F5D31824AC425DD223012C
:1042D0001B195B00F2189846BD4BD35C5B4500D1BF
:1042E000BAE1331D19000193BB4B02A8BB4A181851
:1042F0000DF03AF94346B84A02A95218B8499B183A
:10430000C918222203A8894600930DF02DF9009BBD
:10431000B44A611C9A1800248D4212D92B00B84669
:10432000B2460D0016001F004B4631191819222203
:1043300001350DF019F92234BD42F5D33D00564642
:1043400047466B465A46013D1A732801A24B02AA02
:1043500040199B184000C018A14B2222C01803A985
:104360000DF002F9A04BF458002C16D19F4BF35CD2
:10437000002B1ED03379012B00D172E19C499D4B5B
:1043800070189D4A64210EF0A1FC9C4B9D44F0BC2A
:10439000BB46B246A946A046F0BD3379012B00D1F9
:1043A00061E1974B9249944A701864210EF08EFC9B
:1043B000EBE7894B02AA9918924B9818FEF766F81A
:1043C000C02233688F48984602A91B685201091819
:1043D0008D589B6A8C4A934200D04CE142468B4BED
:1043E000D35C002B00D1E7E0894BD35C002B00D0DD
:1043F000E2E0884B9D4200D0DEE0874BD35801338A
:1044000000D1D9E0854814F0C3FEF723184200D04C
:10441000D2E04246824B0021D358A5A85A425341CC
:10442000DAB200927F4A0DF099F842467E4B02A91B
:10443000A593794BA8A8D358A5220133A69392003F
:1044400002AB9D526F4B2A0059180DF08DF8A4460F
:1044500001240121754D02AB754AA5A8ED186442EF
:104460000378013063405C080B405B4213406340BB
:104470005C080B405B4213405C4063080C406442A4
:1044800014405C4063080C40644214405C40630884
:104490000C40644214405C4063080C406442144089
:1044A0005C4063080C406442144063405C080B406D
:1044B0005B4213405C40A842D2D1A320E34380007A
:1044C0005C4A02A909188B5402AD5B4A190A2D18DF
:1044D000A9545A4A02AD190C2D18A954584A1B0E5A
:1044E000AB54009A574B9200D1580CA80A2264464C
:1044F00013F0D4FC00285FD102AB4A4AA5A9029070
:104500000CA814F0D1F982460CA814F03DFB8146AA
:104510000CA814F091FC029D424B9D4248D14B46A1
:1045200052461A4303001343DBB2002B40D1464BE3
:1045300002AA98180099FEF7BBFC4349434B02AA14
:104540005218D35C012B33D13F4B02A82A00A5A9F6
:10455000181820F0F7F800282AD14246304B00996D
:10456000D150434641462C4A9B5801338B501A4B3D
:1045700002A95918194A01980CF0F6FF5846134B36
:10458000F054104BF15C002900D17EE000223B7812
:1045900001321B1A5D426B412237E4189142F6D872
:1045A000013C0C4BF4503379012B60D0284BF9E6D9
:1045B00001224146164BCA543379012B55D0254B65
:1045C000F0E6C0460E0F00004CAEFFFFD613000011
:1045D0000F0F0000BC120000F0260000B412000013
:1045E0000B0F00002D0F0000C8120000CC120000BD
:1045F0006C13000020580210B0820210B451000069
:10460000DC570210A439000065310010D50C000001
:10461000D60C000019120000DC0C000048550210F6
:10462000D80C0000291200004C505231B114000087
:104630002083B8ED2512000026120000271200008A
:104640002812000098AE0210B814000034120000C6
:10465000D4580210605802103379012B09D00C4B4A
:10466000A0E60C4B9EE60C4B9CE60C4B9AE60C4BE2
:1046700098E60C4B96E60C4902A809182A00404619
:104680009847002800D072E796E70124644288E743
:10469000A0580210F4570210BC57021040580210E4
:1046A000C05802107C580210A4390000F0B55746DB
:1046B000DE464E464546E0B54E4C4F4BA544019173
:1046C000C75C8246002F00D18BE04C4B0022C65CB9
:1046D0004B4B00245344984619000B7801329B1B26
:1046E000584243412231E418BA42F6D3012C78D91A
:1046F00006AB9B466022002118000CF02FFF00251E
:10470000A4465C4642462800002303E001332232DF
:10471000BB4209D21178B142F8D1002805D001334B
:1047200001382232BB42F5D31823013508C4654550
:10473000E8D1344E04ABF618534604331900324A1C
:104740003000039364460CF00FFF52462F4BD358B2
:104750009846019B002B6BD00122631E4244914678
:104760000293434500D139E343465A469B00D25851
:10477000274804ABC01813019B185B00254AF318A7
:104780009D1829002222070001900CF0EDFE4B46F7
:104790005A469B00D35828001C01E41864001D4BA6
:1047A0003419E418222221000CF0DEFE2222390006
:1047B00020000CF0D9FE5246174BD358002B00D0E6
:1047C000ECE1164BD35C002B00D1FFE11379012BF8
:1047D00000D1CAE212486421124B134A50440EF031
:1047E00075FA124B9D44F0BCBB46B246A946A046A2
:1047F000F0BDC04604AEFFFF0E0F0000D613000050
:104800000F0F000030270000B4120000BC1200009F
:10481000E43900000B0F0000C8120000CC120000A9
:104820006C13000020580210B0820210FC510000EE
:104830004346002B00D093E2069ADE4804ABC01832
:1048400013019B185B00DC4AF3189D1829002222F3
:1048500001900CF089FE631E9946032C01D800F0EC
:10486000F7FC5B465A68280013019B18D24A5B008C
:104870009046F3189844222241460CF075FE5B46A0
:104880009A68404613019B185B00CB4AF3189D18A9
:10489000290022220CF068FE4B46042B01D800F0C0
:1048A000E5FC5B46DA68280013019B185B00C24AEE
:1048B000F3189F18390022220CF056FE5B461A6945
:1048C000380013019B18BC4A5B009046F3189844CB
:1048D000222241460CF048FE4B46062B01D800F040
:1048E000C1FC5B465A69404613019B185B00B24A03
:1048F000F3189D18290022220CF036FE5B469A69B7
:10490000280013019B18AC4A5B009046F3189844AA
:10491000222241460CF028FE4B46082B01D800F01D
:104920009DFC5B46DA69404613019B185B00A24A76
:10493000F3189D18290022220CF016FE5B461A6A15
:10494000280013019B189C4A5B009046F31898447A
:10495000222241460CF008FE4B460A2B01D800F0FB
:1049600079FC5B465A6A404613019B185B00924AE9
:10497000F3189D18290022220CF0F6FD5B469A6A76
:10498000280013019B188C4A5B009046F31898444A
:10499000222241460CF0E8FD4B460C2B01D800F0DA
:1049A00079FC5B46DA6A404613019B185B00824A39
:1049B000F3189F18390022220CF0D6FD5B461B6BC2
:1049C00022221D0198462B00434459007A4B71184E
:1049D000C91838000CF0C8FD4B460E2B01D800F06A
:1049E00055FC5B465A6B744B28009C464044E0469D
:1049F00013019B185B00F3184000984430182222E2
:104A0000414660440CF0B0FD5B469A6B4046130192
:104A10009B185B00684AF3189D18290022220CF0AD
:104A2000A3FD4B46102B01D800F02CFC5B46DA6B43
:104A3000280013019B18604A5B009046F3189844C5
:104A4000222241460CF090FD5B461A6C4046130151
:104A50009B185B00584AF3189D18290022220CF07D
:104A600083FD4B46122B01D800F008FC5B465A6CC4
:104A7000280013019B18504A5B009046F318984495
:104A8000222241460CF070FD5B469A6C40461301B1
:104A90009B185B00484AF3189D18290022220CF04D
:104AA00063FD4B46142B00D8E4E35B46DA6C280028
:104AB00013019B18404A5B009046F3189844222249
:104AC00041460CF051FD5B461A6D404613019B18A0
:104AD0005B00394AF3189D18290022220CF044FD8E
:104AE0004B46172B00D0ADE35B465A6D28001301EF
:104AF0009B18314A5B009046F318984441462222A5
:104B00000CF032FD5B469B6D22221901C918490049
:104B1000294B71184046C9180CF026FD16231722A0
:104B20009846930015005A46D258434659469B0072
:104B3000CB581801C018204B40009C46E04613019A
:104B40009B185B00F31898443018222241466044B9
:104B50000CF00AFD6B1C9C420CD95A469B00D358A2
:104B600040461901C9184900134B71182222C9186F
:104B70000CF0FAFC4B465A469B00D3580199180199
:104B8000C01840000C4B30182222C0180CF0ECFC6E
:104B900052460A4BD358002B00D112E61379012B51
:104BA00000D1E4E0064B07486421074A50440EF068
:104BB0008DF816E6E43900000B0F0000C812000063
:104BC000DC5702106C130000B0820210019D31000E
:104BD0002800FDF75BFC5346C0221C685201236885
:104BE00001959B6AAD58684A934200D018E3674B21
:104BF000E35C002B00D1BFE0654BE35C002B00D0F1
:104C0000BAE0644B9D4200D0B6E0634BE3580133F9
:104C100000D1B1E0614814F0BBFAF723184200D08C
:104C2000AAE05F4BB7AFE35800215A425341DAB2D2
:104C3000029238005B4A0CF091FC5B4B2A00B79360
:104C4000554B0199E358BAA80133B8933D810CF054
:104C50008BFC564B04AA9B18012538009C46012169
:104C6000534A6D42037801306B405D080B405B4254
:104C700013406B405D080B405B4213405D406B0886
:104C80000D406D4215405D406B080D406D42154072
:104C90006B405D080B405B4213405D406B080D406C
:104CA0006D4215406B405D080B405B4213405D4018
:104CB0006B0898460D406B42454613405D40844565
:104CC000D0D1EB433B4A190ABB543B4A1EA8B95406
:104CD0003A4A190CB9543A4A1B0EBB54029A394B42
:104CE0009200D1580A2213F0D9F8002844D105AB1C
:104CF00039002C4A05901EA813F0D6FD83461EA845
:104D000013F042FF05001EA814F096F8059B984684
:104D1000244B98452DD15A4603002A431343DBB256
:104D2000002B26D1284B04AA98180299FEF7C0F848
:104D30002549264B04AA5218D35C012B19D1224BCA
:104D400004A84246390018181FF0FCFC002810D1B6
:104D5000134B029AE250104AA3580133A35066E263
:104D600001235B4243449946FEE4194B1BE7194B70
:104D700019E70122064BE25453461B79012B00D15F
:104D800064E2154B0FE7C04665310010D50C0000FA
:104D9000D60C000019120000DC0C0000485502106F
:104DA000D80C0000291200004C505231F1140000C0
:104DB0002083B8ED25120000261200002712000003
:104DC0002812000098AE0210F814000034120000FF
:104DD000F4570210BC57021060580210F34804AB9D
:104DE000C018029B01909B0099465B464A469B581F
:104DF00022221901C9184900ED4B7118C9180CF08D
:104E0000B3FBA21E012A00D8D8E1EA49A3005B182F
:104E100004A95B18E84992005B5859461801C0186C
:104E2000E34B8A589C4613019B185B004000F31823
:104E3000634430181900222260441D000CF094FBDA
:104E4000E31E02939B0099465B464A469A58280007
:104E500013019B18D64A5B009046F318984422220F
:104E600041460CF081FB231F012B00D8A6E15A46D6
:104E70009B00D258404613019B185B00CC4AF318A4
:104E80009D18290022220CF06FFB631F02939B00E8
:104E900099465B464A469A58280013019B18C44A13
:104EA0005B009046F3189844222241460CF05CFBCC
:104EB000A31F012B00D881E15A469B00D2584046DF
:104EC00013019B185B00BA4AF3189D18290022228F
:104ED0000CF04AFBE31F02939B0099465B464A464F
:104EE0009A58280013019B18B14A5B009046F318AA
:104EF0009844222241460CF037FB2300083B012B4B
:104F000000D85BE15A469B00D258404613019B18DB
:104F10005B00A74AF3189D18290022220CF024FBFD
:104F200009235B429C46A444634602939B00994636
:104F30005B464A469A58280013019B189C4A5B001E
:104F40009046F3189844222241460CF00DFB2300B2
:104F50000A3B012B00D831E15A469B00D25840460B
:104F600013019B185B00924AF3189D182900222216
:104F70000CF0FAFA0B235B429C46A444634602936E
:104F80009B0099465B464A469A58280013019B1895
:104F9000874A5B009046F3189844222241460CF061
:104FA000E3FA23000C3B012B00D807E15A469B0093
:104FB000D258404613019B185B007D4AF3189F1896
:104FC000390022220CF0D0FA0D235B429C46A44407
:104FD000634602939B0099465B464A469B583800BD
:104FE0001D0198462B0043445900714B7118C91894
:104FF00022220CF0B9FA23000E3B012B00D8DDE091
:105000005A469B00D2582800694B40449C461301E5
:105010009B185B004000F3186344301819002222EB
:1050200060441D000CF0A0FA0F235B429C46A44490
:10503000634602939B0099465B464A469A5828006D
:1050400013019B185A4A5B009046F3189844222299
:1050500041460CF089FA2300103B012B00D8ADE04B
:105060005A469B00D258404613019B185B00504A99
:10507000F3189D18290022220CF076FA11235B42C6
:105080009C46A444634602939B0099465B464A466D
:105090009A58280013019B18454A5B009046F31864
:1050A0009844222241460CF05FFA2300123B012B68
:1050B00000D883E05A469B00D258404613019B1803
:1050C0005B003B4AF3189D18290022220CF04CFA91
:1050D00013235B429C46A444634602939B0099467B
:1050E0005B464A469A58280013019B18304A5B00D9
:1050F0009046F3189844222241460CF035FA2300DA
:10510000143B012B5AD95A469B00D25840461301F2
:105110009B185B00264AF3189D18290022220CF0E8
:1051200023FA15235B429C46A444634602939B00EA
:1051300099465B464A469A58280013019B181C4A18
:105140005B009046F3189844222241460CF00CFA7A
:10515000182C33D15B469B6822221C01E4186400A2
:10516000134B3419E418210040460CF0FDF95B465E
:105170005B6822221901C91849000D4B7118C91822
:1051800020000CF0F1F95B465B6822221801C01880
:10519000074B40009C46069B30181901C91849006E
:1051A0007118604461440CF0DFF92AE0E439000032
:1051B0000B0F0000E85100001CAEFFFF5A464946A5
:1051C000029D013DAB00D35852581C011001E41858
:1051D00080186400314A40003419A418301880182F
:1051E000210022220CF0C0F9002D0AD0069B2222B9
:1051F0001901C9184900294B71182000C9180CF071
:10520000B3F9069B22221801C0184000234B301826
:10521000C01801990CF0A8F900239946FFF7CBFAC2
:105220002A00200001999847002800D1A4E5310008
:105230001B4A03980CF098F952464946194BD15035
:10524000FFF7CFFA142398465A1C6AE4164BAAE4D7
:10525000012266E4082398465A1C62E40623984615
:105260005A1C5EE4042398465A1C5AE402239846CA
:105270005A1C56E4122398465A1C52E410239846AE
:105280005A1C4EE40E2398465A1C4AE40C239846B6
:105290005A1C46E40A2398465A1C42E40B0F0000AD
:1052A000B4120000BC12000040580210F0B5DE46F7
:1052B0004E4645465746E0B5914A0668914C3568DA
:1052C000825883462B6AA5440F2A14D08E4A41790E
:1052D000934215D18D4BF35898468D4BF3589C460D
:1052E0008C4BF3580593042901D904F0EDFB8A4B4C
:1052F00089005B589F46894A815C834A9342E9D082
:10530000300098475B461E683568AB68844A934214
:1053100000D07AE3C9239B00F518341DAC4207D0B6
:1053200020002822202128340CF018F9A542F7D1BA
:105330007C4B14220021F0180CF010F97A4B142247
:105340000021F0180CF00AF9C822784B0021F0185F
:1053500092000CF003F95A465E46754B0C36D35852
:10536000002B0DD05946734A885C1F21C01A1F308C
:105370000BF03CFA0B015B1ADB0084335B441E002C
:105380000B22002129A80CF0E9F83068FCF70EFB8D
:10539000002800D008E35B461B79012B00D10FE306
:1053A000654B7168654A009129A80B210DF08EFCB0
:1053B00029AB8021624A64A80DF088FC64AB1B789D
:1053C000002B00D175E3802484A88046FF3424A8F4
:1053D0002418F820C00001223F278446B24664A961
:1053E00009941800C2384D1C012875D92900A3540E
:1053F0000B78002B00D180E00132642AF1D1E42245
:105400005646FF3224ABD218002313705B4618684F
:105410000368DC684B4B0B939C4200D0E3E2012213
:10542000404BC25443461A78002A00D1C4E00023FE
:1054300041460430C254CA185278002A02D00133BF
:10544000282BF7D188464CA85C223F4907900CF0E6
:105450008BF800239A46434663A905935B463F2594
:105460008B460A96089335AE5746059B079C5344D6
:105470009846013B069320680378002B00D15DE23B
:1054800001218446A24609E024AA433253540378FA
:10549000002B1ED00131182958D084466246501C7A
:1054A0001A00C23A012AEFD8624652781400AC437F
:1054B000802CE9D1F8209B01C000034060462A40BF
:1054C000134324AADBB24332023053540378002B37
:1054D000E0D1544671183DE048780600BE43802E66
:1054E00084D165469B012B4038400343DBB2023137
:1054F000A3540B78002B00D07EE75646424483E746
:10550000B81200006CFBFFFF21030010E04C00000C
:10551000E44C0000E84C000008A90210CE12000084
:10552000B5050010440600006C060000940600005B
:10553000C81200000C0F00009471021018820210B3
:105540002082021019040010BCB102105B235446E3
:1055500024AA9918002330000B701FF05BFB310068
:105560008146020040461FF0CDF9002810D1002FDF
:1055700006D02022069B1B789343413B192B07D969
:105580004B46DA19059B9B5C613B192B00D9D9E18D
:105590000434A34500D06EE7BA4601239A4452462C
:1055A000059B9B5C002B02D0272A00D85CE7059B5B
:1055B0000A9E9846089B9B465B461B79012B00D1AF
:1055C000F0E1B74A5B4680219B6864A80DF07EFB42
:1055D00064AB1B78002B00D169E2F820C0000122E7
:1055E0003F278446B246099C64A91800C2384D1C66
:1055F000012873D92900A3540B78002B7ED00132E7
:10560000642AF2D1E4225646FF3224ABD21800239A
:1056100013705A4610680268D4680B9A944200D0FE
:10562000D0E1A04A8218537043461A78002A00D16C
:105630009BE0002341462C30C254CA185278002AFD
:1056400002D00133282BF7D188464CA85C2296491A
:1056500007900BF089FF00239A46434663A9059300
:105660005B463F258B460A96089335AE5746059B09
:10567000079C53449846013B069320680378002B0F
:1056800000D159E101218446A24609E024AA43320F
:1056900053540378002B1ED00131182931D0844691
:1056A0006246501C1A00C23A012AEFD8624652786C
:1056B0001400AC43802CE9D1F8209B01C0000340CA
:1056C00060462A40134324AADBB2433202305354CB
:1056D0000378002BE0D15446711816E04878060094
:1056E000BE43802E86D165469B012B403840034344
:1056F000DBB20231A3540B78002B80D156464244D2
:1057000085E75B23544624AA9918002330000B70C8
:105710001FF080FA31008146020040461FF0F2F887
:10572000002810D1002F06D02022069B1B7893431F
:10573000413B192B07D94B46DA19059B9B5C613B12
:10574000192B00D90BE10434A34596D1BA460123A5
:105750009A445246059B9B5C002B01D0272A85D991
:10576000059B0A9E9846089B9B465A464F4BD3582A
:10577000002B00D10CE11379012B00D194E14123DE
:105780004B49F820C00001223F2581461800C2384D
:105790004C1C012877D92100099883540B78002BE1
:1057A00003D00132642AF1D1013A8023DB00D21800
:1057B00024ABD2183F4BD218002313705A461068FE
:1057C0000268D4680B9A944200D05CE1354A821892
:1057D000937043461A78002A00D1A2E00023414684
:1057E0005430C254CA185278002A02D00133282BF0
:1057F000F7D188464CA85C222B4907900BF0B4FEE9
:1058000063AB99464346002108935B463F248A4692
:10581000CB4635AF0D960C93432624AAB618F82232
:10582000D2009046089B079D53440693013B0A9380
:1058300028680378002B00D182E0AC4601220500E5
:10584000059707E0B3540378002B18D00132182ACB
:1058500032D005001900C239681C0129F2D86978D4
:105860000F00A743802FEDD140469B01034021400C
:105870000B43DBB2A81CB3540378002BE6D1059F81
:105880006546BA181DE048780700AF43802F82D1E3
:105890004C469B012340284003430231DBB27BE7A7
:1058A000F458021044060000BCB10210C8120000F7
:1058B000DC81021080FDFFFF5B23654624AA059F63
:1058C0009A180023380013701FF0A4F9390081469C
:1058D000020006981FF016F8002810D15346002B3E
:1058E00006D020220A9B1B789343413B192B06D9F3
:1058F0004A46089B52449B5C613B192B3CD80435BB
:105900005D4595D101239A445246089B9B5C002B30
:1059100002D0272A00D87FE7089B0D9E98460C9B53
:105920009B465A46674BD358142B01D901F00FFA06
:10593000654A9B00D3589F463100E6E6310009E6F0
:105940003A00BEE7BA46089B170018685346D900CC
:10595000036800221C694B46A047BA461FE6BA46B8
:10596000089B170018685346D900036810221C6969
:105970004B46A047BA46ECE60C9B16001868534607
:10598000D900036820221D694B46A847B246BBE7F1
:105990004C4BD358142B01D901F0D9F94B4A9B0039
:1059A000D3589F464A4A0DE6F27833880192B2787E
:1059B000484F00920B213A0029A80DF087F9F7E42F
:1059C000454BEEE41022002100934346A047434696
:1059D0001C784CA85C22414907900BF0C5FD002CB7
:1059E00000D038E6C1E6012300220021009343469F
:1059F000A04743461C784CA85C22384907900BF01E
:105A0000B3FD002C00D024E5D6E530009847A2E491
:105A10003349344A344B140018008946334FF1514E
:105A200033497250334AB350C84511D00122324B2A
:105A3000F2546AE431492D4F8946314AF1512C49DB
:105A4000304B725014002B4A1800B350C845EDD1AA
:105A5000A445EBD1059B8342E8D156E42A492B4A61
:105A60002B4B140018008946D8E72A492A4A2B4BA9
:105A7000140018008946D1E729492A4A2A4B140004
:105A800018008946CAE72022002100934346A04718
:105A900043461C784CA85C22104907900BF064FD2B
:105AA000002C00D0ACE63CE74A23204969E6424698
:105AB000ADE584AB98461A00802324A9FF335B1818
:105AC0000993A1E4B81200001CA9021070A90210E9
:105AD000E458021078550210E0580210BCB10210D0
