:020000041000EA
:1000000000B5324B212058609868022188439860DF
:10001000D860186158612E4B002199600221596106
:100020000121F02299502B49196001219960352056
:1000300000F044F80222904214D00621196600F024
:1000400034F8196E01211966002018661A6600F04E
:100050002CF8196E196E196E052000F02FF8012189
:100060000842F9D1002199601B49196000215960AB
:100070001A491B48016001219960EB211966A021F2
:10008000196600F012F800219960164914480160C1
:100090000121996001BC002800D000471248134993
:1000A000086003C880F30888084703B5996A0420EC
:1000B0000142FBD001200142F8D103BD02B5186610
:1000C0001866FFF7F2FF186E186E02BD00000240BE
:1000D000000000180000070000035F00212200005C
:1000E000F4000018222000A00001001008ED00E03C
:1000F00000000000000000000000000074B24E7A12
:1001000000000420F7010010CB010010CD01001009
:10011000C9010010C9010010C9010010C901001077
:10012000C9010010C9010010C9010010CF01001061
:10013000C9010010C9010010D1010010D301001045
:10014000C1010010C1010010C1010010C101001067
:10015000C1010010C1010010C1010010C101001057
:10016000C1010010C1010010C1010010C101001047
:10017000C1010010C1010010C1010010C101001037
:10018000C1010010C1010010C1010010C101001027
:10019000C1010010C1010010C1010010C101001017
:1001A000C1010010C1010010C1010010C101001007
:1001B000C1010010C1010010C1010010C1010010F7
:1001C000EFF30580103800BE00BE00BE00BE00BECA
:1001D00000BE00BEF2EB8871583002107830021079
:1001E0003802001090A31AE71E481F49086006C88D
:1001F00081F3088810471D480068002801D019487D
:10020000F3E70DA40ECC002902D000F012F8F9E7B4
:100210001749184A002000E001C19142FCD116495B
:100220008847164988471649884700BEFDE701C937
:1002300001C29A42FBD3704778300210C000002000
:1002400020240020D85302100000042000000420C5
:10025000D85302100000032000000320000000001B
:10026000704700000000000008ED00E0000000D032
:10027000202400208C3C0020CDC1001065730010AC
:10028000C5C10010F8B5C0460448054B10B58342FF
:1002900003D0044B002B00D0984710BD2024002031
:1002A000202400200000000006480749091A8B108E
:1002B000C90FC91810B5491003D0044B002B00D04A
:1002C000984710BD202400202024002000000000BA
:1002D00010B5074C2378002B09D1FFF7D5FF054B4C
:1002E000002B02D0044800E000BF0123237010BDA2
:1002F000B037002000000000F8E60110054B10B5F3
:10030000002B03D00449054800E000BFFFF7CCFFF5
:1003100010BDC04600000000B4370020F8E6011010
:10032000CF23DB00C358F0B59C461D4B4746C3584E
:10033000CE461E00D023DB00C35880B51F00012924
:1003400026D0022918D0002912D11649164A174B77
:10035000904699460D00CF24E400015110494250C7
:10036000D022D2008350AC450DD00122104BC25494
:10037000C0BCB946B046F0BD0E490F4A0F4B90467F
:1003800099460D00E7E74645EFD14F45EDD1EFE740
:100390000B490C4A0C4B904699460D00DBE7C046D2
:1003A0007C060000D2DDF40015152A007887D700FE
:1003B0006C060000F5E9DC0032231500E3BD8E0079
:1003C000D5EEE4001C2918009FD9BA0030B59C4630
:1003D0006B461C7B0F230500D01703409B181B1195
:1003E000132B1FD8A320CA1D400082421AD80E48E2
:1003F000EA18145462461078002813D00722CC174C
:10040000224051189A00D318DB000433EA186346DF
:10041000C9105B1A01335054585C002802D00131D6
:100420002829F8D130BDC046440600007047C046B8
:100430007047C046C9239B0070B5C518041D06004F
:10044000A54207D020002822202128340AF082FA71
:10045000A542F7D1054BF0181433F618B04203D07B
:10046000142200210AF076FA70BDC046440600004E
:10047000F0B557464E464546DE46E0B5E34CE44B04
:10048000A5449946031D98460A93CB230026DB001A
:10049000C718814404004D46B346BA46DD4B0B9362
:1004A000DD4BE35C002B0DD1C8230A989B0028226A
:1004B000C1181DF027FB002804D12A782B7D9A4211
:1004C00000D1C9E0A0220021920012A80AF042FA4D
:1004D000D24B00271E685B460D9343460E9353464E
:1004E0000F934B460C95109311940A9BDA5D130001
:1004F0003733DBB2322B03D80B999B00CB589F4686
:100500001300203B5E2B00D977E2C54953008B4690
:10051000C4499B188A46C4499B008946C3491A00AE
:100520008846C3491D008C469C4461460591C149DB
:100530001C008C469C4461460791BF4918008C46BC
:100540009B449C449A4499449844723BFF3B0993D2
:10055000002361469C4675387D3A773D763CFF38EE
:10056000FF3AFF3DFF3C06900891B25C0EA9603156
:10057000CA555A460EA9B25C8831CA5552460EA9D0
:10058000B25CB031CA554A460EA9B25CD831CA55E0
:1005900042468620B25C4EA9CA55059A0EA9B25CA5
:1005A0002931FF31CA550EA9725D5131FF31CA554B
:1005B0000EA9325D7931FF31CA55069A0EA9B25C97
:1005C000A131FF31CA55079A0EA9B25CC931FF317A
:1005D000CA55089A0EA9B25CF131FF31CA55099A81
:1005E0000EA9B25C80000918CA556246002A00D1E3
:1005F000DFE128220021012B00D1DFE1022B00D016
:10060000E3E1102012ABDB1958540821995401374B
:10061000282F00D069E70D9B0C9D9B460E9B119CDB
:1006200098460F9B9A46109B9946844BE1582B782D
:10063000002B00D1F9E1D023DB00E2580B0002923D
:100640000193A022012312A903910093594600208F
:100650000F33520007F03AF810239B440A9B0135F0
:1006600028330A93AA4500D01AE7C923C82257465F
:100670009B004146E01892000AF072F93A004B469E
:1006800023CB23C203CB03C20022634BE254B32328
:100690009B009D44F0BCBB46B246A946A046F0BDB7
:1006A000674B80220993674B674C0893674B684DF3
:1006B0000793013B0693674BD2000593664B984620
:1006C000664B9946664B9A46664B9B4600239C4672
:1006D00003334AE75A4B802209935A4B5A4C0893EA
:1006E0005A4B5B4D0793013B06935A4BD20005933F
:1006F000594B9846594B9946594B9A46594B9B46EC
:1007000000239C46023330E7574BEE220993574BA8
:10071000574C0893574B584D0793013B0693574B43
:1007200092000593013B9846554B9946554B9A4686
:10073000554B9B4600239C46033316E7534BDC2264
:100740000993534B534C0893534B544D0793013B20
:100750000693534B92000593013B9846514B9946A3
:10076000514B9A46514B9B4600239C460333FCE673
:100770004F4BD02209934F4B4F4C08934F4B504D4A
:100780000793013B06934F4B92000593013B98461C
:100790004D4B99464D4B9A464D4B9B4600239C46EC
:1007A0000333E2E6424BD0220993424B424C08937A
:1007B000424B434D0793013B0693424B92000593F6
:1007C000013B9846404B9946404B9A46404B9B46CE
:1007D00000239C460133C8E6354BD0220993354BA4
:1007E000354C0893354B364D0793013B0693354BFB
:1007F00092000593013B9846334B9946334B9A46FA
:10080000334B9B4600239C460233AEE634FDFFFF8C
:1008100044060000F8E601106C060000EC1D002004
:1008200085FEFFFF86FEFFFF87FEFFFF88FEFFFFBE
:1008300089FEFFFF8DFEFFFF8EFEFFFF7C0600009E
:100840000B0400000A040000070400000904000073
:100850000604000005040000040400000304000076
:100860000204000001040000C3030000C2030000F2
:10087000BF030000C1030000BE030000BD03000071
:10088000BB030000BA030000B90300007B030000B3
:100890007A0300007703000079030000760300006C
:1008A0007503000073030000720300007103000071
:1008B0004B0300004A030000470300004903000007
:1008C000460300004503000043030000420300000C
:1008D00041030000574BC4220993574B574C0893D0
:1008E000574B584D0793013B0693574B9200059386
:1008F000013B9846554B9946554B9A46554B9B465E
:1009000000239C46033330E64A4BC42209934A4BEA
:100910004A4C08934A4B4B4D0793013B06934A4B75
:1009200092000593013B9846484B9946484B9A469E
:10093000484B9B4600239C46023316E6464BCA2290
:100940000993464B464C0893464B474D0793013B52
:100950000693464B92000593013B9846444B9946BB
:10096000444B9A46444B9B4600239C460433FCE58B
:10097000CC23FF330993013B0893CA23FF3307932A
:10098000013B0693C623FF330593013B9846C423DE
:10099000FF339946013B9A46C223C824E325E0224F
:1009A000FF339B46C13BFF3B9C46FF346D0052002A
:1009B000DBE5A0227821012B00D01FE6082012AB36
:1009C000DB1958541021995421E6032B06D110202D
:1009D00012ABDB1958542821995418E6042B00D087
:1009E00015E686210EAAF1320C33FF32D355890069
:1009F0000EAA10335218D35509E60F230993013B71
:100A00000893013B0793013B0693033B0593013B8E
:100A10009846013B9946013B9A46013B9B46002381
:100A20000B240A2504229C469FE5CF23DB000A0005
:100A3000E35804E61B0300001A030000170300003C
:100A40001903000016030000150300001303000043
:100A50001203000011030000330300003203000002
:100A60002F030000310300002E0300002D030000BF
:100A70002B0300002A0300002903000010B5040026
:100A8000024909F073FF200010BDC0468406000033
:100A9000F0B5C64600B502780E00303AD1B2030078
:100AA000092932D8451C407801003039CCB2092CD4
:100AB00018D890008218987852008A1801003039AE
:100AC000CCB29F1C092C0BD8D878844630204042E9
:100AD000604404000020092C3FD880BCB846F0BD1B
:100AE0002B003D00022104008C432C2C0FD0002849
:100AF0000BD100235001801A80008018C000C0185C
:100B00003060431E9841C0B2E7E70020E5E768780F
:100B10003038C1B20929F8D8D9788C46303909293A
:100B200028D8810009184900614430390C0030216F
:100B300049428C46187984446146C9B2092914D8BF
:100B40005B790020190030390929C6D9002BC4D19E
:100B5000A3001B195B006344CCE79000821852008D
:100B6000DD1C60463B008A18BCE70028CDD10A2373
:100B70006343BFE76346002BC7D164234343B9E710
:100B8000F0B5CE46474680B51378894684461100B5
:100B90009DB0002B60D00B2701223F2603AD6F4490
:100BA00008E018004B782100B854002B12D0013215
:100BB000642A2ED01800C2384C1C0128F1D848787D
:100BC0008046B04380281AD0180043462100B8540C
:100BD000002BECD10023AA18137062461268D46867
:100BE0001F4A94421FD04A46009300212B006046C2
:100BF0001201A0471DB0C0BCB946B046F0BD9C0173
:100C0000F8234046DB001C4030408B782043023103
:100C1000CAE70B326A440023137062461268D46834
:100C20000F4A9442DFD148461328E3D802000D4909
:100C30002C7862445354002CDCD0002283001B1813
:100C4000DB0004336344A9189C544C78002CD1D0A9
:100C50000132282AF7D1CDE703AD2A00DBE7C046F1
:100C6000CD03001044060000F0B5C64600B51C4B8D
:100C700084B286B0E31801900020632B18D86B462D
:100C80009A79531E17000B2B12D86B46DB799846C6
:100C9000002B0DD0134B03AD43CB43C5022A0BD021
:100CA00003AABB18013B1D780020424695424041F3
:100CB00006B080BCB846F0BDA307F1D16421200086
:100CC00008F090FF89B21D250029EDD19131200057
:100CD000FF3108F087FF89B20029E5D0E0E7C04680
:100CE00030F8FFFFC4E70110F0B5CE46474680B5A7
:100CF00005885C4B0400EB1885B0632B03D8807823
:100D0000431E0B2B05D9002005B0C0BCB946B04628
:100D1000F0BDE3789846002BF5D0534B99464946F1
:100D200001ABC4C9C4C3022858D001AB1B18013B96
:100D30001B784345E7D34D4B9D421DD043464A4661
:100D40000133DBB2E37001A99C469846C8CAC8C10A
:100D500002285ED001AA1218013A1278944509D9E6
:100D600001230130C0B2E3700D281BD101230135EE
:100D7000A37025800120C7E70C281ED041464A46B3
:100D80000131C9B2E17001AB8846E0CAE0C3022874
:100D90000BD001AB1B18013B1B788B42EAD201231D
:100DA0000130E370A0700120AEE743461C2BE1D96F
:100DB0000423FF3301206380A6E743461F2BA2D004
:100DC0004A460133DBB2E37001A9C1CAC1C16A4618
:100DD000D27B9A42CED20123E370C7E7AB072ED174
:100DE0006421280008F0FEFE89B2002931D1C82113
:100DF0002800490008F0F6FE89B2002929D06B4688
:100E00005B79984500D97EE743460133E370DBB256
:100E10009846AB07C9D16421280008F0E3FE89B2E7
:100E2000002907D191312800FF3108F0DBFE89B29B
:100E30000029BAD143461D2BBAD8012064E76B467E
:100E40005B79984500D95EE7084B9D4200D075E775
:100E500094E743461D2B00D955E70133E370DBB21D
:100E60009846D8E730F8FFFFC4E7011033080000C8
:100E7000F0B557464E464546DE46E0B5C54C9A4667
:100E8000A544EEAB1B780C009846C34B9146C35C5F
:100E9000002B00D12AE10D88C04BEB18632B00D941
:100EA00024E18A78531E93460B2B00D91EE1CB78A0
:100EB0000293002B00D119E1B94B4CAE83CB83C612
:100EC000022A00D177E35B464CAA9B18013B1E78AF
:100ED000029BB34200D909E1B24811F039FB082561
:100EE000A843C0B2002800D000E1AF4811F030FBA9
:100EF000A843C0B2002800D0F8E0E278238801922D
:100F0000A2780D2100920CA8A84A0BF0DBF8236808
:100F10000AA80A93FFF7E8FE051E059000D1E5E058
:100F20006B4606A8C27C1B8D0192827C0D2100922B
:100F300010A89E4A0BF0C6F8E17823880191A178A9
:100F40009B4A009114A840210BF0BCF80A2214A976
:100F50004CA810F083F9002800D0C7E05D2224904F
:100F6000944924AB4CA810F07FFE934A061E03D18F
:100F7000249B5D2B00D18EE110AB01930CABA02123
:100F8000009324A80BF09EF800268C4B00270293B8
:100F90008B4B31009B468B4B059A06930795049427
:100FA0000EE0002900D0C3E00022002102987B1C43
:100FB00004300290584604301F0083460B2B3DD06E
:100FC000049B1B89FB40DB07F0D5002AE9D00029F0
:100FD000EAD04346002B00D0A7E0029B1C6809AD75
:100FE00003220021280009F0B5FC22780BAB002A6F
:100FF00000D18BE003935C2A00D18AE03B2A00D128
:1010000087E02C2A00D184E00A2A00D187E000235F
:101010002A706B70002328000B931CF0DBFF290063
:1010200006000200039B4CA810F01EFE002802D10F
:101030000B9B9E4265D000210022B7E70E00079D62
:10104000049C002A00D182E0002900D07EE25E4AA2
:101050004B46A021009324A853460BF033F80023FD
:101060009946E3681A1E00DAB8E04346002B00D028
:1010700079E1564B9A46FA2110008900170008F0D2
:1010800089FD0191FA213800890008F083FD504E56
:10109000534600903200A02124A80BF013F84B46D1
:1010A000B346002B00D067E12469002C15DB4346D2
:1010B000002B00D063E2FA212000890008F06AFDCD
:1010C0000191FA212000890008F064FD5A46009041
:1010D000A021404B24A80AF0F5FF4CA810F034FFE3
:1010E0004CA811F089F814A811F0C4F800252800C4
:1010F000E5239B009D44F0BCBB46B246A946A046F2
:10110000F0BD62780134002A00D074E7002205990E
:101110004CE75C232B7000236A70AB707AE7069A69
:1011200013882B809378AB7074E75B461C6856E796
:101130000B9229490BAB02324CA810F095FD002808
:1011400000D031E70B9B022B00D02DE741E74B4647
:10115000A02100931C4A534624A80AF0B3FF002E96
:1011600000D17CE70BAF002324A80B931CF032FFC7
:101170003B000600020024A94CA810F075FD0028D1
:1011800000D06CE705990B9B89469E4200D066E72C
:1011900067E7C0466CFCFFFF6D06000030F8FFFFFC
:1011A000C4E7011034E801103CE801104CE80110DC
:1011B0005CE801108CE80110ECE80110F405021065
:1011C00020060210C0E9011068E90110F4E70110DF
:1011D00080E9011014E801105CE9011023691A1E6E
:1011E00000DA2AE14346002B00D1E2E1CD4FFA219B
:1011F00010008900160008F0CDFC0191FA213000A2
:10120000890008F0C7FC3B000090A021C64A24A832
:101210000AF058FF4B46002B00D15EE709AB9A4617
:101220000BAF03220021504609F094FB06AB783344
:101230001B78002B00D1B7E1A846A14624AD544647
:1012400021E03B2B21D02C2B1FD00A2B00D163E1B6
:10125000237000236370002320000B931CF0BAFE60
:101260003B000600020021004CA810F0FDFC002805
:1012700000D032E70B9B9E4200D02EE76B78013501
:10128000002B00D18EE15C2BDBD15C22637000234C
:101290002270A370DFE710AB01930CABA021009389
:1012A00024A80AF00FFF24A80B961CF093FE0BABAA
:1012B0000600020024A94CA81F0010F0D5FC00284D
:1012C00000D061E60B9B9E4200D05DE60B903B0098
:1012D000232296494CA810F0C7FC002800D053E602
:1012E0000B9B232B00D04FE6914B02934346002BE0
:1012F00001D1904B02930322002109A809F02AFB97
:101300004123AB46029D029409AC5C2B25D03B2BBC
:1013100023D02C2B21D00A2B28D0237000236370DC
:10132000002320000B931CF055FE3B00060002003A
:1013300021004CA810F098FC002802D10B9B9E4283
:1013400003D05D460026029C1FE66B780135002B1A
:10135000DBD15D46029C059E17E65C22637000238C
:101360002270A370DCE7744B9A4684E6734B1A88AC
:1013700022809B78A370D3E709AB180003220021D9
:101380009A4609F0E7FA06AB78331B780BAF002BCF
:101390002BD002955546A14624AC5C2B41D03B2B6B
:1013A0003FD02C2B3DD00A2B41D02B7000236B70EB
:1013B000002328000B931CF00DFE3B0006000200EA
:1013C00029004CA810F050FC002802D10B9B9E4233
:1013D00005D04C462469002C00DB68E67DE6637886
:1013E0000134002BD9D14C46029D23691A1E00DA24
:1013F000DAE0FA214346160010008900002B00D0E5
:10140000F5E008F0C7FB0191FA213000890008F0EF
:10141000C1FB5A460090A021494B24A80AF052FE75
:10142000FFE65C226B7000232A70AB70C0E7434B71
:101430001A882A809B78AB70BAE7237D002B4AD0AC
:101440004B46002B00D148E60BAF002308220B933C
:101450003C493B004CA810F007FC002800D03CE6BB
:101460000B9B082B00D038E60322002109A809F0C5
:1014700071FA237D002B33D01434A846250009AC23
:1014800021E03B2B21D02C2B1FD00A2B00D1A8E030
:10149000237000236370002320000B931CF09AFD3F
:1014A0003B000600020021004CA810F0DDFB0028E4
:1014B00000D012E60B9B9E4200D00EE66B78013501
:1014C000002B00D1A3E05C2BDBD15C2263700023F6
:1014D0002270A370DFE74B460BAF002B00D1FCE579
:1014E00000231D220B9318493B004CA810F0BCFBB5
:1014F000002800D0F1E50B9B1D2B00D0EDE54CA89A
:1015000010F022FD04004CA810F076FE2043C0B27B
:10151000002800D1EBE5E6E5084B1A8822809B788D
:10152000A37098E624E8011080E9011038E9011061
:10153000E4E70110D4E7011004E80110C0E901104C
:1015400014E8011094E90110A0E90110002304221D
:101550000B9330490BAB4CA81F0010F085FB2E4AB3
:10156000002800D074E50B9B042B00D070E54B469F
:10157000A021009324A853460AF0A4FDF3E5FA2124
:101580002000890008F006FB0191FA212000890063
:1015900008F000FB5A460090A021204B24A80AF036
:1015A00091FD9AE545464C46237D002B00D04CE743
:1015B00096E71B4F1BE6AB0700D084E464212800AC
:1015C00008F010FB89B21D26002900D080E491317B
:1015D0002800FF3108F006FB89B2002900D177E42A
:1015E00071E4104B1A8822809B78A37053E708F0AF
:1015F000D1FA0191FA213000890008F0CBFA5A465D
:101600000090A021054B24A80AF05CFD09E64546A0
:1016100066E7C04660E9011068E9011024E801109E
:1016200014E80110C0E9011070B504000D001CF0B1
:10163000D1FC030000200A2B02D123792D2B00D0EE
:1016400070BDE3792D2BFBD1302252429446237892
:101650009C446346DBB2092BF2D861788918CBB27F
:10166000092BEDD8A278303AD3B2092BE8D8E37829
:10167000303B1E00DBB2092BE2D86379303B092BEB
:10168000DED8A379303B092BDAD8237A303B092BFB
:1016900029D8637A303B092B25D8FA2360469B0072
:1016A0004343642041439B195B1891005218520038
:1016B0009B182B806379303B9A009B18A2795B00C2
:1016C000303A9B18AB70237A303B9A009B18627AB1
:1016D0005B00303A9B18EB7068882B880004184335
:1016E000FFF7C2FAACE70020AAE7C046F8B504004D
:1016F0000D006B4A002109F02DF96A4BAA8823607E
:10170000042323716B68E2801A0C1B0E6372664B14
:101710002272EB5AAA8963812B886282A3812B896A
:10172000E3816B892382EB681A0C1B0E63752B8A8D
:101730002275E3826B69002B01DA01235B42A3610E
:10174000AB69002B01DA01235B428026E361202391
:1017500076012900A3512B001C317D33994206D01C
:1017600020006122203009F0FBF88123A35180235F
:101770005B01E7582B004C4A8033AE18781E1D00E1
:101780009E4243D02A88E319E255120A5A70AA7879
:101790009A70EA78DA706A68110A1A715971110C34
:1017A000120EDA712A8999711A72120A5A72EA684B
:1017B000002A01DA01225242110A9A72D972110CDE
:1017C000120E5A732A691973002A01DA0122524251
:1017D0003800110A9A73D9731130110C120E197452
:1017E000290022542A003B001431753212339142F1
:1017F00051D06122E01809F0B3F838007337723025
:101800007835AE42BED180235B01E750002F44D033
:101810000123661C36182500012024495B422A78E2
:10182000013553405A0803405B420B405A4053086D
:10183000024052420A4053405A0803405B420B4068
:101840005A405308024052420A4053405A0803404B
:101850005B420B405A405308024052420A405340F8
:101860005A0803405B420B405A4053080240524220
:101870000A405340B542D2D1DB43E219190AE3557D
:101880005170190C1B0E9170D370802204375201D5
:101890002000A750F8BD1F00B2E70023EDE7C046C7
:1018A000041000004C505331080F00002083B8EDA5
:1018B000F0B54546DE4657464E46E0B57E4C7F4B7A
:1018C000A544CB1880460192012B0DD97C4BCB1837
:1018D000012B09D9002630007A4B9D44F0BCBB4651
:1018E000B246A946A046F0BD43465B18DA1E107802
:1018F0001A1F1278000210439A1E127844460127DC
:10190000120402430120013B1D78261F2D061543BA
:101910006D4A76187F42237801347B405F0803408C
:101920005B4213405F407B0807407F4217407B408B
:101930005F0803405B4213405F407B0807407F42E3
:1019400017407B405F0803405B4213405F407B08C9
:1019500007407F4217407B405F0803405B421340D3
:101960005F407B089C4607407B42674613405F40D0
:10197000A642D0D1FB43AB42ACD1434642469B7812
:1019800052781B0412021343424612781343424614
:10199000D278120613434D4A93429BD143464246A6
:1019A0005B7912791B0213430093012B71D0022B38
:1019B0007DD0032B73D1464B994200D08AE702AB0E
:1019C0009A4600211800434A08F0C4FF01235246FA
:1019D0005370414A5146229284228B50853A8B3370
:1019E000CA500433CA5001213C4C3D4840AB3D4DE8
:1019F00002AE1C8058805960DA601A61AD197833E4
:101A0000AB42F4D1434642461B7AD2791B04120200
:101A1000134342469279514613434246527A504606
:101A2000120613435246536043462E4A9B7A8B5408
:101A300042462D49D27A4254009901295AD0414652
:101A4000097B012900D945E701700099042900D0DC
:101A5000A9E14146497B022900D93BE700244170B6
:101A60001F210020002691426041013999426641C0
:101A70000E27064043464146DA195378C95D1B02DA
:101A80000B4351460B81937804378B72D378CB721A
:101A90003BE0DF231B01994200D01BE78FE7042BBB
:101AA00000D017E7114B994200D013E787E7104B9E
:101AB000994200D00EE782E7E4F0FFFF8FF1FFFFCD
:101AC00010F2FFFF1C0F00002083B8ED4C50533183
:101AD000710E00000C0F0000EA070911EA07000070
:101AE00009110000080F0000090F0000720E00002D
:101AF000F10D00000024002000261D3199426041B4
:101B00000131914266410C27064043464246DB19AB
:101B10005978D25D090211439A78DD7812040A439C
:101B20002D06154352465C79D5601A792402144378
:101B3000524638001482DA79997912020A43197AE6
:101B40000A30090411435A7A12060A43511C05D07F
:101B5000A5498C46511E614500D920E151464A6194
:101B60004246D97A125C090211431A7B5B7B12044C
:101B70000A4339001B0613430E315A1C04D09A48FD
:101B80005A1E824200D91EE152464144936109A87F
:101B9000612208F0E5FE6F239946B944002E14D067
:101BA000002D00D11DE180231B019C4200D318E1D0
:101BB0007C235246D35C002B00D012E11389002B0A
:101BC00003D09068FFF750F806005246534651463E
:101BD000127F5E201C337D31002A0CD000240025AA
:101BE000203AD2B290426C41013326408B4215D04C
:101BF0001A78002AF2D15A1C91420FD0531C8B4202
:101C00000CD050780028F6D0931C994206D09278D8
:101C1000002AF0D01A00531C8B42F2D18023554683
:101C200053449B460027F5355B461F805F80009B31
:101C3000022B0FD943464C4640464B44DA789978FC
:101C40005B78005D1B0203435846038004238170C8
:101C5000C270994443464B445A7899781202090459
:101C600048460A434146095CD8790A43D9780002BC
:101C700009060A4359464A605A79197912020A43F9
:101C800059460A8149461A7A0A31120410439A7950
:101C900010435A7A12060243501C03D0524C501E75
:101CA000A04278D85846C260DA7A187B1202000443
:101CB00002434046415C5B7B0A4349461B06134393
:101CC0000E315A1C03D048485A1E824254D85C46F2
:101CD0005A461434136120006122414408F040FE4A
:101CE0006F239944002E54D05B465B68002B50D084
:101CF0005B4680221B89120193424AD274235A46C2
:101D0000D35C002B45D11388002B03D01068FEF75D
:101D1000ABFF060023785E22002B20D10134AC42B9
:101D20000BD02378002B05D10134A54205D02378B0
:101D3000002BF3D00134A542F6D178239B442B4BE2
:101D400002AA9B1878359B4500D06DE7002E00D184
:101D5000C0E55146264A019808F002FEBBE539006D
:101D6000203BDBB29A42794101340E40A542E4D0D7
:101D70002378002BD8D0F2E701235C465A465B4219
:101D80001434136120006122414408F0E9FD6F23FF
:101D900099440026BEE701220026524282E7012232
:101DA00000265242DAE61F2100240020002691423C
:101DB0006041013999426641009B0D270640032B83
:101DC00000D157E6A1E6012352465B4293614144AC
:101DD000612209A808F0C4FD6F2399460026B94482
:101DE000F3E60026F1E6C0463E420F00080F000071
:101DF0000A0F0000F0B5CE464746E92280B55F4C99
:101E00001201A5448C000021050008F0A3FD5C4BE5
:101E10000122E15802A80FF021FA031FDBB20400EF
:101E2000012B04D9002809D00322564BEA5428007C
:101E3000554B9D44C0BCB946B046F0BD069A534BC5
:101E400017009B18012B07D9514ABB18012B03D946
:101E50000023019098460AE000233A0001932900EC
:101E600001AB02A80FF0D0FD01230400984602A8A0
:101E700010F0C2F90443E4B2002CD5D101220121B3
:101E8000444E454C4548D8AB6E4452421C80588065
:101E90005960DA601A6178339E42F7D14346002BCD
:101EA00002D0019BBB4203D00222364BEA54BEE76C
:101EB0003B4B2A689A42F7D13B00103B1A009946E7
:101EC000AB689A42F0D1391F681842786B5C1202F5
:101ED0001A4383781B041343C27812061A439446AC
:101EE000002948D001232E0001202C1F2D49E41980
:101EF0005B42327801365A405308024052420A404F
:101F000053405A0803405B420B405A40530802407A
:101F100052420A4053405A0803405B420B405A4029
:101F20005308024052420A4053405A0803405B4261
:101F30000B405A405308024052420A4053405A084C
:101F400003405B420B405340A642D2D1DB439C4549
:101F5000AAD1280049469AAA0C30FFF7A9FC00280C
:101F6000A2D06A68104BEA504A46104BEA50012250
:101F7000044BEA545BE701235B42E7E784EEFFFF93
:101F8000A40502108C0E00007C1100007FF1FFFF01
:101F900000F2FFFF70110000EA07000009110000C5
:101FA0004C5052312083B8ED840E0000880E0000A2
:101FB000F0B51F002D4B2E4CC35CA5440E00040051
:101FC000002B38D02B4B9A4235D900216846FFF7B9
:101FD00011FFE9231B016B4418000121FFF70AFFE1
:101FE0006B46254A9B5C032B25D0E92069460001FE
:101FF0000918885C03281ED0012B26D001281ED189
:10200000E9216A461D4B09015218D3580122944612
:10201000E92212016A441100CE226046D200A0508B
:10202000174A3000A350174BCA580C313A6008F0D9
:1020300097FC012000E00220134B9D44F0BD002BD3
:10204000F9D1431E98414000F6E700216B460B4A48
:102050008C469B5869460128DED1E9252D01481997
:1020600082589A42D8D91300D0E7C0466D060000C6
:10207000DCE2FFFF710E00008C0E0000840E0000F9
:1020800074060000880E0000241D0000F0B54646CE
:10209000D6464F46C0B5654B654CC55CA5448846E1
:1020A00004001600002D06D0624BC35C002B02D149
:1020B000614B9A4209D000252800FC235B019D4416
:1020C000E0BCBA46B146A846F0BD5C4FC3590133E7
:1020D000F1D05B4810F03CFAF7231842EBD1CE2345
:1020E000DB00E35800215A4253419BA8DBB2554A1A
:1020F000994608F02FFC544B9D229B93E359920084
:1021000001339C936B4641469E529EA8320008F0D4
:1021100027FC4E4B01216B449C4601234C4A9BA853
:102120005B42067801305E4073080E4076421640EE
:1021300073405E080B405B4213405E4073080E40E4
:102140007642164073405E080B405B4213405E408F
:1021500073080E407642164073405E080B405B42A7
:1021600013405E4073080E407642164073405E088E
:102170000B405B42134073406045D2D19B206946BF
:10218000DB436E468000334A09188B523618190C0F
:102190000232B154304A1B0EB3544A462F4B9200C0
:1021A000D15802A80A220FF059F8002800D082E77F
:1021B000244E01AB32009BA9019002A80FF054FD00
:1021C000070002A80FF0C0FE804602A810F014F825
:1021D000019B9A46B34225D13B0042461343184324
:1021E000C0B200281ED11E4B49466B441800FFF7B1
:1021F00001FE6A461A481B4B1218D35C012B11D101
:1022000003006B44524618009BA91BF07BFC00287E
:1022100008D1CE234A46DB00E250084AA3580133D6
:10222000A35049E70122034BE25444E76D06000046
:1022300080E0FFFF6E060000720E000074060000D2
:1022400034E80110820E00004C505231EA100000B8
:102250002083B8ED7E0E0000810E0000A405021060
:10226000F01000008C0E0000F0B55746DE464E46DA
:102270004546F1220100E0B5DF4C0768A544120194
:1022800004908A5838684369092A00D105E2DB4A7C
:102290004979934200D006E2CF23DB00FB589A46EF
:1022A000D74BFB589946D023DB00FB5898460129B1
:1022B00000D11AE2022900D1E8E1002912D1D14B64
:1022C000D149D24A0E0015009C46CF24E4003B5170
:1022D000CB4BF9500433FA50E24500D1FEE1012224
:1022E000CB4BFA548368CB4A934200D0E5E1C92333
:1022F0009B00FE183D1DB54207D028002822202152
:10230000283508F027FBAE42F7D1C34B1422002139
:10231000F81808F01FFB0499F2230A001B01CB58A0
:102320000C320C000592002B0CD0BC4A885C1F219B
:10233000C01A1F3007F056FC0B015B1ADB00843318
:10234000E31805930B22002114A808F003FB059B5A
:102350001868FEF789FC002800D0B1E1049B1B79C6
:10236000012B00D1B8E1AE4B0599AE4A496814A8DB
:1023700000910B2109F0A6FE22AB9B46802114ABF5
:102380005846A94A09F09EFE049B18685B461B78D4
:10239000002B01D101F07AFFCF2542AC09940EAC9D
:1023A0002D193F24A046F824E40001225946A146F5
:1023B00084461C00C23C4E1C012C00D8BAE03100FF
:1023C000AB540B78002B00D1C8E00132642AF0D165
:1023D00034226046FF320EABD2180023137003681C
:1023E000DE68924B9A469E4200D0C3E001228A4B9F
:1023F0000999C2540A7800230430002A07D0C25435
:10240000CA185278002A02D00133282BF7D1049B36
:102410001B79012B00D1B8E0854A049C8021A36878
:10242000584609F04FFE5B461B782068002B01D10F
:1024300001F029FF3F24A046F824E4000122594678
:10244000A14684461C00C23C4E1C012C00D89EE0D4
:102450003100AB540B78002B00D1ACE00132642A80
:10246000F0D134226046FF320EABD2180023137035
:102470000268D668564500D0A7E0674A09998218D5
:1024800053700A782C30002A07D0C254CA185278E8
:10249000002A02D00133282BF7D1F223049A1B0122
:1024A000D358002B00D19CE01379012B01D101F00E
:1024B000F3FD412310685F493F24A046F824E4005F
:1024C0000122A14684461C00C23C4E1C012C00D8AF
:1024D000B8E03100AB540B78002B00D1C6E00132DC
:1024E000642AF0D134220EABFF32D21800236046AA
:1024F00013700268D668564500D0C1E0464A099973
:10250000821893700A785430002A07D0C254CA182F
:102510005278002A02D00133282BF7D1F123049AF4
:102520001B01D358092B01D901F088FA424A9B00BC
:10253000D3589F464C78404627008743802F00D0D1
:102540003DE748469B010340404604402343DBB23D
:102550000231AB540B78002B00D036E7099B604664
:102560009A18002313700368DE68304B9A469E4227
:1025700000D13BE70123002200930021099BB047D3
:10258000049B1B79012B00D046E72C4A45E74C7889
:10259000404627008743802F00D059E748469B01DB
:1025A0000340404604402343DBB20231AB540B7876
:1025B000002B00D052E7099B60469A180023137045
:1025C0000268D668564500D157E7102200930021D3
:1025D000099BB047F223049A1B01D358002B00D06B
:1025E00062E7F1231B01D358092B01D901F026FA28
:1025F000134A9B00D3589F4674FCFFFF2103001031
:102600007C060000D2DDF40015152A007887D7007B
:102610006C06000035040010440600000C0F00009A
:10262000E8E9011020F3011028F30110CD03001098
:10263000FCE901100CEA011018040210ECE9011089
:10264000400402104C78404627008743802F00D07A
:102650003FE748469B010340404604402343DBB22A
:102660000231AB540B78002B00D038E7099B604651
:102670009A18002313700268D668564500D13DE7CA
:10268000009320220021099BB04747E7D24BD34952
:10269000D34A0E0015009C4617E6D24A895CD24AFE
:1026A000934200D1F8E538009847049BCF4A1F6851
:1026B00038688368934200D119E6380098472AE6C3
:1026C0000598CB4AC17803880191817814A80091BC
:1026D0000B2109F0F7FC4FE6C64B45E6B14500D0AB
:1026E000FDE5A84500D0FAE5FCE5C34BC349C44A63
:1026F0000E0015009C46E8E5049B1B79012B01D1D7
:1027000002F036FDBF4EF822049BD2001868432128
:1027100001233F27944681460A00C23A741C012ACD
:1027200000D84AE12600E9543178002901D102F0AD
:102730001AFD0133642BEFD134234846FF330EAA30
:102740009B1800221A700368DE68564501D002F01B
:102750005EFEAD4BC318DA70099B7C301A780023FB
:10276000002A08D0C254099AD2185278002A02D0FE
:102770000133282BF6D1049B1B79012B01D102F0E8
:10278000A2FDA2493F24A446F824A14B049AE400E8
:10279000D658106873425E4101223123A146F6B239
:1027A00005901C00C23C4F1C012C01D802F0F3F92B
:1027B0003900AB540B78002B01D102F08AFD0132B5
:1027C000642AEED134220EABFF320598D2180023D2
:1027D00013700368DF68574501D002F01FFE8A4B73
:1027E000C3189E71099BF4301A780023002A08D080
:1027F000C254099AD2185278002A02D00133282BE9
:10280000F6D1049B1B79012B01D102F059FD814EB9
:102810003F247F4B0499A446CA58F824013A5342F6
:102820005A41E400D2B2086832230121A1469346FE
:1028300005901C00C23C771C012C01D802F0BEF9A7
:102840003E006B543378002B01D102F033FD01318F
:102850006429EED134215A46FF310EAB0598C918D0
:1028600000230B700368DE68564501D002F0C8FDF6
:10287000654BC3185A72099B6D301A78FF300023DC
:10288000002A08D0C254099AD2185278002A02D0DD
:102890000133282BF6D1049B1B79012B01D102F0C7
:1028A00021FC5D4E3F245A4B0499A446CA58F82493
:1028B000023A53425A41E400D2B20868332301215C
:1028C000A146934605901C00C23C771C012C01D800
:1028D00002F0AEF93E006B543378002B01D102F0C8
:1028E00004FC01316429EED134215A46FF310EAB8C
:1028F0000598C91800230B700368DE68564501D09F
:1029000002F089FE404BC3181A73099BE5301A7810
:10291000FF300023002A08D0C254099AD2185278F6
:10292000002A02D00133282BF6D1049B1B79012BFE
:1029300001D102F0D4FB394EF822049BD200186872
:10294000452101233F27944681460A00C23A741C60
:10295000012A01D802F07DF92600E95431780029D6
:1029600001D102F0D4FB0133642BEED1342348466D
:10297000FF330EAA9B1800221A700368DE685645C2
:1029800001D002F0B3F997211F4B8900C318DA7305
:10299000099B40181A780023002A01D101F0B3FBEB
:1029A000C254099AD2185278002A01D101F0ABFB27
:1029B0000133282BF4D101F0A6FB72781000B84344
:1029C000802800D0AEE66046890101403A401143BC
:1029D0000236C9B2A7E6C046F5E9DC00322315008D
:1029E000E3BD8E00260F0000210300103504001007
:1029F000C4E90110E4E90110D5EEE4001C29180037
:102A00009FD9BA00CCF0011044060000E4F0011098
:102A1000140F000004F1011024F1011054F1011011
:102A2000049B1B79012B01D102F050FCE14EF822EE
:102A3000049BD20018684C2101233F27944681460D
:102A40000A00C23A741C012A00D83DE12600E9546C
:102A50003178002901D102F081FB0133642BEFD1E1
:102A600034234846FF330EAA9B1800221A700368CD
:102A7000DE68564501D002F090FCCF4BC318DA70E7
:102A8000099B7C301A780023002A08D0C254099A86
:102A9000D2185278002A02D00133282BF6D13F24D5
:102AA000A446F824C54B049AE400D6581068734233
:102AB0005E4131220123A146C149F6B205901400BE
:102AC000C23C4F1C012C01D802F021F83900EA5415
:102AD0000A78002A01D102F009FC0133642BEED1FF
:102AE0000598013BD42292009B180EAA9B18B54A68
:102AF0009B1800221A700368DF68574501D002F066
:102B000053FCAD4BC3189E71099BF4301A78002317
:102B1000002A08D0C254099AD2185278002A02D04A
:102B20000133282BF6D13F24A44B049AA446D15854
:102B3000F82401394B425941E400C9B2106801231D
:102B40003222A1468B46A04E05901400C23C771C51
:102B5000012C01D801F0EEFF3E00EA543278002A41
:102B600001D102F0C6FB0133642BEED15946059822
:102B7000013BD42292009B180EAA9B18914A9B18E5
:102B800000221A700368DE68564501D002F0DFFBB0
:102B9000894BC3185972099B6D301A78FF30002396
:102BA000002A08D0C254099AD2185278002A02D0BA
:102BB0000133282BF6D1049B1B79012B01D102F0A4
:102BC00092FB824EF822049BD20018684521012313
:102BD0003F27944681460A00C23A741C012A01D854
:102BE00001F0B9FF2600E9543178002901D102F043
:102BF00075FB0133642BEED134234846FF330EAA14
:102C00009B1800221A700368DE68564501D002F056
:102C10000CFC8321684B8900C3185A73099B401828
:102C20001A780023002A08D0C254099AD218527880
:102C3000002A02D00133282BF6D1049A1379012BF4
:102C400001D102F07CFA54211068614EF822D200C2
:102C500001233F27944681460A00C23A741C012A88
:102C600001D801F088FF2600E9543178002901D10C
:102C700002F06AFA0133642BEED134234846FF3365
:102C80000EAA9B1800221A700368DE68564501D010
:102C900002F02CF89721484B8900C318DA73099B7E
:102CA00040181A780023002A01D101F02CFAC254EE
:102CB000099AD2185278002A01D101F024FA01337E
:102CC000282BF4D101F01FFA72781000B843802845
:102CD00000D0BBE66046890101403A40114302360C
:102CE000C9B2B4E6F824049BE40018684322012327
:102CF0003F27A046814637491400C23C4E1C012C98
:102D000000D88DE03100EA540A78002A01D102F09F
:102D100003FA0133642BEFD14846013BD4229200E1
:102D20009B180EAA9B18274A9B1800221A7003684A
:102D3000DE68564501D002F07CFC1F4BC318DA70E8
:102D4000099B7C301A780023002A08D0C254099AC3
:102D5000D2185278002A02D00133282BF6D1049BD6
:102D60001B79012B01D102F000F81B4B1B4A04997F
:102D70008A5C002A01D001F0EDFF1949194A00913F
:102D80005846802109F09EF90C4B049AD6581068D9
:102D900073425E415B461B78F6B2002B01D102F014
:102DA00058FC3F24A446F824E40001225946A146D9
:102DB000069025E014F0011044060000140F0000F6
:102DC00020F0011080FDFFFF2CF0011060F00110D9
:102DD000A4F0011020EF01103CEF0110250F0000BE
:102DE00048EF01107CF301100100AB540B78002B6D
:102DF00001D102F070F90132642A01D101F0B8FF6B
:102E00001F00481CC23F0590012FEDD84F78644643
:102E10003800A043802801D101F072FF0599E4E752
:102E20004C782000B843802800D06BE740469201E0
:102E300002403C4022430231D2B264E7049A137943
:102E4000012B01D102F070F943231068AE49F82438
:102E5000E40001223F27A04681461C00C23C4E1CD4
:102E6000012C00D872E23100AB540B78002B01D159
:102E700002F055F90132642AEFD134224846FF327C
:102E80000EABD218002313700268D668564501D0E5
:102E900002F0D5FA9D4A8218D370099B7C301A78CB
:102EA0000023002A08D0C254099AD2185278002A66
:102EB00002D00133282BF6D1049B1B79012B01D1C1
:102EC00002F0F2F9924A049B998A002901D102F09A
:102ED000B3FA4B0801D102F0D0FA012006000340FA
:102EE0000E409B198E0834D006409B19CE0830D076
:102EF00006409B190E092CD006409B194E0928D07C
:102F000006409B198E0924D006409B19CE0920D07B
:102F100006409B190E0A1CD030401B184E0A18D0D0
:102F2000012006409B198E0A13D006409B19CE0A39
:102F30000FD006409B190E0B0BD006409B194E0B71
:102F400007D006409B198E0B03D03040C318C90B25
:102F50005B188021584609F0B5F8049B18685B4659
:102F60001B78002B01D102F085FAF824E40001223D
:102F700059463F27A04681461C00C23C4E1C012CEE
:102F800001D801F0F2FC3100AB540B78002B01D1D9
:102F900002F085F90132642AEED134224846FF322C
:102FA0000EABD218002313700268D668564501D0C4
:102FB00002F059FA554A82189371099BF4301A7835
:102FC0000023002A08D0C254099AD2185278002A45
:102FD00002D00133282BF6D1049B1B79012B01D1A0
:102FE00002F055F94B4A049B998A002901D102F05D
:102FF00030FA4E0801D102F02CFA8B083ED00120A5
:10300000070006400F40F61903409B19CE0830D048
:1030100006409B190E092CD006409B194E0928D05A
:1030200006409B198E0924D006409B19CE0920D05A
:1030300006409B190E0A1CD030401B184E0A18D0AF
:10304000012006409B198E0A13D006409B19CE0A18
:103050000FD006409B190E0B0BD006409B194E0B50
:1030600007D006409B198E0B03D03040C318C90B04
:103070005B180221994289410A230B40802158465E
:1030800009F020F8049B18685B461B78002B01D1DF
:1030900002F0ABF9F824E400012259463F27A0468C
:1030A00081461C00C23C4E1C012C01D801F06DFC75
:1030B0003100AB540B78002B01D102F0EBF8013258
:1030C000642AEED134224846FF320EABD2180023D8
:1030D00013700268D668564501D002F0BDF90B4A5C
:1030E00082181372099B45301A78FF300023002A9A
:1030F00012D0C254099AD2185278002A0CD0013347
:10310000282BF6D108E0C0467CF1011044060000EF
:103110009CF10110C4F10110049B9B8A002B47D045
:10312000580801D102F069F901210A0008401A404B
:1031300080189A0801D102F05BF90A401218D808E9
:1031400030D00840121818092CD00840121858091D
:1031500028D008401218980924D008401218D8091D
:1031600020D008401218180A1CD001405218580AE2
:1031700018D0012108401218980A13D008401218DC
:10318000D80A0FD008401218180B0BD0084012189C
:10319000580B07D008401218980B03D001408A182A
:1031A000DB0BD21893009B185B00022A00D90A336C
:1031B000802158466C4A08F085FF049B18685B46DE
:1031C0001978002901D102F00DF9F822D20001236B
:1031D0005E463F27944681460A00C23A741C012A83
:1031E00001D801F0E2FB2600E9543178002901D131
:1031F00001F0CEFF0133642BEED134234846FF3378
:103200000EAA9B1800221A700368DE68564501D08A
:1032100002F086F9554BC3189A72099B95301A78BB
:10322000FF300023002A08D0C254099AD2185278DD
:10323000002A02D00133282BF6D1049B1B79012BE5
:1032400001D101F0AFFF4A4EF822049BD20018686A
:10325000452101233F27944681460A00C23A741C47
:10326000012A01D801F0B1FB2600E9543178002988
:1032700001D101F09FFF0133642BEED13423484686
:10328000FF330EAA9B1800221A700368DE685645A9
:1032900001D002F0F5F88321344B8900C3185A732A
:1032A000099B40181A780023002A08D0C254099AB2
:1032B000D2185278002A02D00133282BF6D1049A72
:1032C0001379012B01D101F068FF41211068294ECB
:1032D000F822D20001233F27944681460A00C23AD1
:1032E000741C012A01D801F080FB2600E9543178D2
:1032F000002901D101F059FF0133642BEED13423B1
:103300004846FF330EAA9B1800221A700368DE6835
:10331000564501D001F0EAFC9721144B8900C318EF
:10332000DA73099B40181A780023002A01D100F0B3
:10333000EAFEC254099AD2185278002A01D100F04C
:10334000E2FE0133282BF4D100F0DDFE4C782000A2
:10335000B843802800D086E540469B0103403C40AE
:1033600023430231DBB27FE590F3011044060000F5
:1033700000F201103CF20110049B1B79012B01D1DA
:1033800001F0DAFE994A049C03212068FDF7F8FB5E
:103390002379012B01D101F0CCFE954A049C95497B
:1033A000584663188021984608F08CFE924B20689E
:1033B000E65873425E415B461B78F6B2002B01D1A2
:1033C00002F0CEF83F2401225946A4468146481C0B
:1033D00005901800C238012800D8F7E00599AB54D1
:1033E0000B78002B01D101F047FF0132642AEED1A6
:1033F00034224846FF320EABD21800231370036804
:10340000DF68574501D002F0F8F87C4BC3189E7175
:10341000099BF4301A780023002A08D0C254099A74
:10342000D2185278002A02D00133282BF6D1049BFF
:103430001B79012B01D101F016FF714A049C714BDD
:103440005846E1180B008946802108F03BFE6A4B84
:103450002068E358013B5A425341DFB25B461B7878
:10346000002B01D102F0B8F83F2401225946A446AE
:1034700005901C00C23C4E1C012C01D801F0C5FA7D
:103480003100AB540B78002B01D101F0E7FE013283
:10349000642AEED134220EABFF320598D2180023F5
:1034A00013700368DE68564501D002F09FF8534B55
:1034B000C3185F72099B6D301A78FF300023002A11
:1034C00008D0C254099AD2185278002A02D0013387
:1034D000282BF6D10023049A17931393454BD35C02
:1034E000002B01D101F07AFE404613A9FDF7D0FA76
:1034F000002801D001F074FE049B1B79012B01D13F
:1035000001F069FE404B80215846404A08F0DAFD40
:10351000049C5A460C212068FDF732FB2379012BCD
:1035200001D101F055FE3A4A049C0E212068FDF7B6
:1035300027FBF2221201A2582379002A01D101F0BF
:103540003EFE012B01D102F07BF8049B314E18683E
:1035500045233F229446F822D200012790461A00C4
:10356000C23A711C012A01D801F063FA0E00EB5532
:103570003378002B01D101F0DAFB0137642FEED153
:1035800034270EABFF37FF1800223A700368DE685D
:10359000564501D001F0AAFB9721184B8900C318AA
:1035A000DA73099B40181A780023002A01D100F031
:1035B000AAFDC254099AD2185278002A01D100F00B
:1035C000A2FD0133282BF4D100F09DFD4F78644615
:1035D0003800A043802800D000E7F8209B01C000FD
:1035E000034027403B430231DBB2F8E604EE011012
:1035F00028EE0110930F00001C0F0000440600008D
:1036000048EE01109B0F000098EE011078F30110B6
:10361000C0EE0110B8ED0110049B1B79012B01D104
:1036200001F032FEBB4A049C03212068FDF7A8FA92
:10363000B94BB94FE35C3F19002B6AD0C8230793FD
:10364000C33B05933A3399463C000897099F17AE50
:1036500029220021300007F07DF920001AF0BAFC81
:103660000690282801D92823069321003000069AC5
:1036700007F076F9049B18683378002B01D101F02C
:1036800000FEF821C90088460122B44631000A94A0
:103690000B900C971C00C23C481C012C63D9010004
:1036A000AB540B78002B6FD00132642AF2D1342254
:1036B0006646FF320EAB0A9C0B980C9FD218002373
:1036C00013700268D2689046059AD04569D1811876
:1036D000924A8B5407993A7804314118002A07D04E
:1036E000CA54FA185278002A02D00133282BF7D195
:1036F000069BE4182378002B0AD0059B0133059321
:10370000079B28331A000793A0235B009A429FD19E
:10371000089F049B1B79012B01D101F0A7FD804E6E
:1037200038001AF057FC320003008021584608F098
:10373000C9FC049C5A460A212068FDF721FAF222AE
:103740001201A2582379002A01D101F01BFD012B9F
:1037500001D101F07BFE734A049B0E211868FDF72E
:103760000FFA00F0D0FC4C784F462600BE43802E66
:1037700095D140469B0103403C402343DBB20231DC
:10378000AB540B78002B8FD100230C9F0B98BA18E9
:10379000137002686646D2680A9C9046059AD04526
:1037A00095D0009300213B001201C047A0E7049B85
:1037B0001B79012B01D101F05CFD5B4A049C5B4E3F
:1037C0008021A3595846013308F07CFC5A46032156
:1037D0002068FDF7D5F9A7597A1C91008B189846F7
:1037E0000B2B01D90B239846BA00D719B84501D83D
:1037F00000F076FC4E4B07934E4B08934E4B0A93CA
:103800003F239946049B1B79012B69D0089ABB0082
:10381000D1580B78002B01D101F08DFAF820C000AF
:103820000122844606971800C2384C1C01285BD937
:103830002100AB540B78002B67D00132202AF2D143
:10384000CF320EAB069FD21800231370059B7E1C4F
:103850001A890123FA4013405722013B93437833DE
:103860000193099B8021079A00935846330008F082
:1038700029FC049A10680368DC682C4BD3582F4A43
:103880009900C918791A049F4B00BA580533511A88
:103890004A425141C9B2544501D000F002FC132BF9
:1038A00015D81E4FC218D1555A46117800290ED08E
:1038B0009A00D2180023D20004328218D1545946FB
:1038C000C9184978002902D00133282BF6D1464582
:1038D00001D100F005FC049B37001B79012B95D129
:1038E0000A9ABB00D15894E748784F460600BE4379
:1038F000802E9DD164469B01234038400343DBB2B8
:103900000231AB540B78002B97D1099B069F9A1874
:103910009AE7C04688ED0110320F0000440600000F
:10392000A4ED0110B8ED0110C0EC0110180F00005B
:1039300068F30110F405021020060210140F0000B5
:10394000049C03212068374AFDF71AF9364B20689A
:10395000E35C002B01D101F079FE334A0126A71860
:103960003F229446F822D20090461A00C23A791CAF
:10397000012A46D90F00AB553B78002B01D101F04D
:10398000C1FC0136642EF0D134260EABFF36F6189A
:10399000002232700368DE68564501D001F00BFD4D
:1039A000224B0132C3189A71099BF4301A78002314
:1039B000002A08D0C254099AD2185278002A02D09C
:1039C0000133282BF6D1049B1B79012B01D101F087
:1039D000ABF9174A049C09212068FDF7D1F8237937
:1039E000012B01D101F09DF9124A049C0C212068A1
:1039F000FDF7C6F82379012B01D101F08FF90E4AAA
:103A0000AAE67A781400914662469443802CB1D19C
:103A100042469B0113404946624611400B43023720
:103A2000DBB2A8E760F30110270F00004406000096
:103A3000E0EB01102CEC011070EC0110049A1379EA
:103A4000012B01D101F067FC44231068C049F82420
:103A5000E40001223F27A04681461C00C23C4E1CC8
:103A6000012C00D865E13100AB540B78002B01D15B
:103A700001F04CFC0132642AEFD134224846FF3277
:103A80000EABD218002313700268D668564501D0D9
:103A900001F06EFCAF4A8218D370099B7C301A7813
:103AA0000023002A08D0C254099AD2185278002A5A
:103AB00002D00133282BF6D1049CA74B8021E35878
:103AC0005846A64A08F0FEFA5B4619782068002995
:103AD00001D101F04AFCF822D20001235E463F27C3
:103AE000944681460A00C23A741C012A01D800F0AB
:103AF000B4FF2600E9543178002901D101F0FDFB23
:103B00000133642BEED134234846FF330EAA9B18B1
:103B100000221A700368DE68564501D001F01EFCD1
:103B20008C4BC3185A71099BCC301A780023002A99
:103B300008D0C254099AD2185278002A02D0013310
:103B4000282BF6D1864B0693864B1F000023059346
:103B500008331E00373398460499834B059ACB5C93
:103B6000D340012214001C401A4200D192E0731C81
:103B70009B460B79012B01D101F0BFF87B49049BD7
:103B800022001868A1464E2384460796089718001D
:103B9000C2384E1C012801D800F06FFF3100AB5431
:103BA0000B78002B01D100F07EFF0132642AEED1A8
:103BB000342260464C46FF320EAB079E089FD21857
:103BC000002313700268D2689146524501D001F07B
:103BD000ADFB132E15DC5F4982195354099B1978EC
:103BE00000290ED00023B2009219D20004328218AC
:103BF000D1540999C9184978002902D00133282BDA
:103C0000F6D1049B02361B79012B01D101F082F819
:103C10003A68049B18681378002B01D101F0AFFBC0
:103C20000790511C89461900C239012901D800F0BA
:103C300042FF4A462B551378002B01D100F052FF6A
:103C40000134642CEDD134240EABFF340798E41812
:103C5000002323700268D4685A46544501D001F00D
:103C60006FFB132A16DC3B4982185354099B1978C1
:103C700000290FD05B469A0000235A44D200043238
:103C80008218D1540999C9184978002902D0013302
:103C9000282BF6D1059B069A01330832059306922C
:103CA0000437062B00D057E7049B1B79012B01D169
:103CB00001F02AFA2E4EF822049BD2001868452102
:103CC00001233F27944681460A00C23A741C012A08
:103CD00001D800F00CFF2600E9543178002901D109
:103CE00001F037FA0133642BEED134234846FF3319
:103CF0000EAA9B1800221A700368DE68564501D090
:103D000000F0F4FF9721134B8900C318DA73099B65
:103D100040181A780023002A00D1F4E1C254099A0D
:103D2000D2185278002A00D1EDE10133282BF5D1C9
:103D3000E9E14C782000B843802800D093E6404663
:103D40009B0103403C4023430231DBB28CE6C0467A
:103D500070F20110440600000810000098F30110F2
:103D6000C4050210AC0502100C10000090F2011006
:103D7000C4F20110049B1B79012B01D101F0EAFB75
:103D8000049BCB4A18685423F824E40001213F2700
:103D9000A04681461C00C23C561C012C01D800F0F4
:103DA00083FD32006B541378002B01D100F0D8FF53
:103DB00001316429EED134214846FF310EABC918D8
:103DC00000230B700268D668564501D001F02AFC2A
:103DD000B84A8218D370099B7C301A780023002AD5
:103DE00008D0C254099AD2185278002A02D001335E
:103DF000282BF6D1049B1B790693012B01D101F0EE
:103E00007AF9059B1989002901D101F097FBAA4B8A
:103E100099464B0801D101F08DFB01263200334059
:103E20000A409B18880801D101F0C1FB0200324012
:103E3000D218CF0801D101F0B7FB33003B4008098D
:103E40009B18041E8446059301D101F0AAFB34405F
:103E50001B194C09079401D101F09FFB34401B1939
:103E60008C0901D101F0BAFA34401B19CC0901D1F7
:103E700001F0B4FA34401B190C0A01D101F0AEFA7A
:103E800034401B194C0A01D101F0A8FA26409B19B5
:103E90008C0A0126002C01D101F09CFA34401B1938
:103EA000CC0A01D101F096FA34401B190C0B01D158
:103EB00001F090FA34401B194C0B01D101F08AFA41
:103EC00034401B198C0B01D101F084FA34401B19CA
:103ED000CC0B01D101F07EFA3E400133B21801272C
:103EE000384082186846808B002828D03840121845
:103EF000880924D038401218C80920D03840121838
:103F0000080A1CD038401218480A18D03840121835
:103F1000880A14D038401218C80A10D03840121835
:103F2000080B0CD038401218480B08D00740D219A3
:103F30008E0B04D0012030408218C90B521891001A
:103F400089184900022A00D90A31F2220498120184
:103F50008258002A01D101F0E3F9069A012A01D121
:103F600001F035FA554A019200914A46802158469F
:103F700008F0A8F8049C5A4604212068FCF700FECB
:103F80004F4B17AE17934F4B73612379012B01D120
:103F900000F0DAFE4C484D494D4A4E4B3361F22356
:103FA000F260049A1B01D2587060B160002A01D0FF
:103FB00000F0C4FE062130230691B04692009044E2
:103FC000F0220592002214003F329146099A0626FB
:103FD000474693460498404A82580068121B514253
:103FE0004A41D2B29446002B01D101F060F9F82188
:103FF0003A68C900884661460B92B446012207918F
:1040000008940B990A900B971C00C23C481C012C89
:1040100001D800F059FC0100AB540B78002B01D102
:1040200000F067FC0132642AEED13422079B664619
:10403000FF329C46089C0EAB0A980B9FD2180023B7
:1040400013700368DB689846534501D000F061FCAB
:104050006146184B8219D1545B4605991A78043190
:1040600000234118002A09D05846CA54C218527871
:10407000002A02D00133282BF7D18346069B013456
:10408000A34201D100F051FC059B04375033059346
:104090003B6802361B789DE74A2310680F49FEF7FC
:1040A0000BFA1A0100915B460021A047FFF70FFCB5
:1040B00070EA01104406000098EA0110B8EA011005
:1040C0004CF3011054F3011028EB011038EB0110F0
:1040D00044EB011058EB0110140F000028EA011006
:1040E000F222049912018A580B79002A01D101F0B9
:1040F00042F8012B01D101F0AFFA0B00964A1021D2
:104100001868FCF73DFD0499944B0868CB5C002BC4
:1041100001D100F022FE3F24A446F8248F4AE40097
:104120008918A046012281461C00C23C4E1C012C6D
:1041300000D8B3E03100AB540B78002B00D1C1E0C4
:104140000132642AF0D134224846FF320EABD21835
:10415000002313700268D668564500D0BCE0AB243B
:104160007F4A0999821853740A78A4000019002A1A
:1041700007D0C254CA185278002A02D00133282B23
:10418000F7D1049A1379012B00D1B0E055231068C0
:1041900074493F24A446F824E4000122A046814645
:1041A0001C00C23C4E1C012C00D8A4E03100AB54D2
:1041B0000B78002B00D1B2E00132642AF0D1342216
:1041C0000EABFF32D2180023484613700368DD6837
:1041D000554500D0ADE00122BF24614B0999C318B9
:1041E000DA740A78A40000230019002A07D0C25408
:1041F000CA185278002A02D00133282BF7D1049B29
:10420000594A1E6833681B69934200D0A0E0544BA2
:1042100000259946331D98460A93CB23DB00F718F7
:10422000524BB1444C460C9343460D960B9510945B
:104230000F9711934E4B0D9AD35C002B0DD1C823D1
:104240000A989B002822C11819F05CFC002804D1B0
:104250002278237D9A4200D15BE1A02200210998B7
:10426000920006F077FB0020424B0E941F680A9BD9
:104270001A5C13003733DBB2322B00D97EE00C9985
:104280009B00CB589F46099AFEF7F0F8CF2542AB2A
:104290001A0009930EABED18FEF79FF84C786046B4
:1042A00027008743802F00D044E740469B0103400E
:1042B000604604402343DBB20231AB540B78002B41
:1042C00000D03DE7099B48469A1800231370026806
:1042D000D668564500D142E7882200935200099BD8
:1042E0000021B047049A1379012B00D04EE74823F0
:1042F000106821494DE74C78604627008743802F9E
:1043000000D053E740469B010340604604402343EE
:10431000DBB20231AB540B78002B00D04CE7099B89
:1043200048469A18002313700368DD68554500D18C
:1043300051E70123982200935200099B0021A847CE
:10434000049B094A1E6833681B69934200D15EE7EB
:1043500030009847FEE0C046E8EC0110A30F0000D3
:104360004406000004F301107104001068040210F8
:104370006C060000EC1D0020E0F201101300203B51
:104380005E2B01D900F093FC53009B18E24A9B007E
:104390009446E24A19009046E14A1C009146E14ADF
:1043A0001D009246E04A1E0093469B445A460692E0
:1043B000DE4A9C4493469B445A460792DC4A984402
:1043C00093469B445A460892DA4A994493469A4443
:1043D0009B4400237239FF39733C743D753E05914F
:1043E000FF3CFF3DFF3E04935A46BA5C9346594654
:1043F0000EAA2132FF321154089ABA5C93465946EC
:104400000EAA4932FF321154079ABA5C93465946B4
:104410000EAA7132FF321154069ABA5C934659467D
:104420000EAA9932FF3211545246BA5C9246514656
:104430000EAAC132FF3211544A46BA5C914649462F
:104440000EAAE932FF3211544246BA5C84219046EA
:1044500089000EAA5218414611546246BA5C8E2158
:10446000944689000EAA5218614611549821BE5DE7
:1044700089000EAA521816547D5D28310EAA5218D2
:1044800015543C5D28310EAA52181454B624059ACE
:10449000A400B95C0EAA12191154049A002A00D182
:1044A000E7E328220021012B00D1E7E3022B01D111
:1044B00000F0ECFB032B01D100F0F0FB042B0AD140
:1044C000AC210EAA890052180C33135428310EAABD
:1044D0001033521813540130282800D0C7E6964BE9
:1044E0000E9C0D9AD1582378002B01D100F0F8FBD7
:1044F000D023DB00D2580B0002920193A0220123AB
:1045000009990093039100200B990F33520003F097
:10451000DDF80B9B013410330B930A9B28330A936D
:104520000F9BA34200D085E61F00109BC82299462E
:10453000119B0D9E1900C9239B00F018920006F0F4
:104540000FFA3A004B4613CB13C203CB03C200222F
:104550007A4BF254E3239B009D44F0BCBB46B24629
:10456000A946A046F0BD8023DB009B46744B812604
:104570000893744B744D0793744B754C0693754BAD
:10458000F6009A46744B9946744B9846744B9C4679
:10459000744B059300230493033325E78023DB004A
:1045A0009B46674B81260893664B674D0793674B85
:1045B000674C0693674BF6009A46674B9946674BE4
:1045C0009846674B9C46674B059300230493023340
:1045D0000AE7EE239B009B46634BF0260893634B50
:1045E000634D0793634B644C069301339A46634BC8
:1045F000B6009946624B9846624B9C46624B0593C7
:10460000002304930333EFE6DC239B009B465F4BC0
:10461000DE2608935E4B5F4D07935F4B5F4C06931E
:1046200001339A465E4BB60099465E4B98465E4B08
:104630009C465E4B0593002304930333D4E6D023BA
:104640009B009B465A4BD22608935A4B5A4D0793D0
:104650005A4B5B4C069301339A465A4BB600994627
:10466000594B9846594B9C46594B0593002304934C
:104670000333B9E6D0239B009B464D4BD2260893CB
:104680004C4B4D4D07934D4B4D4C069301339A4681
:104690004C4BB60099464C4B98464C4B9C464C4B69
:1046A00005930023049301339EE6D0239B009B4691
:1046B0003F4BD22608933F4B3F4D07933F4B404C17
:1046C000069301339A463F4BB60099463E4B9846B7
:1046D0003E4B9C463E4B059300230493023383E6F6
:1046E000C4239B009B463B4BC62608933A4B3B4D4D
:1046F00007933B4B3B4C069301339A463A4BB6002B
:1047000099463A4B98463A4B9C463A4B05930023C0
:104710000493033368E6C0468BFEFFFF8AFEFFFF6B
:1047200089FEFFFF88FEFFFF87FEFFFF86FEFFFF7B
:1047300085FEFFFF84FEFFFF7C0600006C06000084
:10474000010400000204000009040000030400004A
:104750000A04000004040000050400000604000030
:10476000070400000B040000B9030000BA030000B6
:10477000C1030000BB030000C2030000BD03000032
:10478000BE030000BF030000C3030000710300006C
:104790007203000079030000730300007A03000035
:1047A0007503000076030000770300007B03000020
:1047B00041030000420300004903000043030000DE
:1047C0004A030000450300004603000047030000C1
:1047D0004B03000011030000120300001903000046
:1047E000130300001A030000150300001603000065
:1047F000170300001B030000C4239B009B46F84BDB
:10480000C6260893F74BF84D0793F84BF84C0693E0
:1048100001339A46F74BB6009946F74B9846F74B4B
:104820009C46F74B0593002304930233DCE5CA232F
:104830009B009B46F34BCC260893F34BF34D079319
:10484000F34BF44C069301339A46F34BB60099466A
:10485000F24B9846F24B9C46F24B0593002304938F
:104860000433C1E5E0235B009B46C223FF3308937A
:1048700001330793C423FF33069301339A46C623BB
:10488000FF33994601339846C823FF339C46CC2317
:10489000E426CA25E524FF330593CB3BFF3B760096
:1048A000FF35640004939FE554782000B8438028C6
:1048B00001D0FFF776FA40469B0103403C4023437A
:1048C0000232DBB2FFF76EFA4C784F462600BE4349
:1048D000802E01D0FFF79FFB40469B0103403C40E8
:1048E0002343DBB20231AB540B78002B01D0FFF72E
:1048F00099FB079B66469C4600230A985A4413700E
:104900000368089CDB680B9F9846534501D1FFF76D
:104910009FFB63460021009332015B46C047069B24
:104920000134A34201D0FFF7AFFB049B1B79012B9D
:1049300001D100F002FDBC4A049B12211868FCF76B
:104940001FF9FFF7E0FBF222049912018A580B7954
:10495000002A01D1FFF710FA012B01D100F02DFE42
:1049600043230868B14AFFF70FFA4C782000B84398
:10497000802801D0FEF707FB40469B0103403C40E6
:1049800023430231DBB2FEF7FFFA4C782000B84334
:10499000802801D0FEF78CFB40469B0103403C4041
:1049A00023430231DBB2FEF784FB72781000B84378
:1049B000802801D0FEF717FC6046890101403A408B
:1049C00011430236C9B2FEF70FFC72781000B843EB
:1049D000802801D0FEF748FC6046890101403A403A
:1049E00011430236C9B2FEF740FC72781000B8439A
:1049F000802801D0FEF779FC6046890101403A40E9
:104A000011430236C9B2FEF771FC6446487806903D
:104A1000A043802801D0FEF733FDF8209B01C000A1
:104A200003406046069C023104402343DBB2FEF79C
:104A300028FD72781400914662469443802C01D080
:104A4000FEF794FD42469B011340494662461140E1
:104A50000B430236DBB2FEF78AFD72781000B843D2
:104A6000802801D0FFF745F86046890101403A40AF
:104A700011430236C9B2FFF73DF8487847460400B3
:104A8000BC43802C01D0FFF789F8F8249B01E40097
:104A9000234038400343DBB20231AB540B78002B88
:104AA00001D0FFF782F8099B60464C46079E089F9D
:104AB0009A18FFF785F8404651788C468143802943
:104AC00001D0FFF7B6F89901F823DB0019406346DF
:104AD00003400B43DBB202322B551378002B01D07D
:104AE000FFF7AEF8099B07981C19FFF7B1F8727829
:104AF0001000B843802801D0FFF7EDF86046890127
:104B000001403A4011430236C9B2FFF7E5F8644666
:104B100048788346A043802801D0FDF7D7FF484658
:104B2000920102405C466046044022430231D2B208
:104B3000FDF7CDFF7478604621008143802901D0C4
:104B4000FEF70AF8494692010A4004402243023621
:104B5000D2B2FEF702F872781000B843802801D074
:104B6000FEF740F86046890101403A4011430236A1
:104B7000C9B2FEF738F872781000B843802801D027
:104B8000FEF771F86046890101403A401143023650
:104B9000C9B2FEF769F8644648788346A043802886
:104BA00001D0FDF705FE48469B0103405C46604688
:104BB000044023430231DBB2FDF7FBFD747860460D
:104BC00022008243802A01D0FDF73AFE4A469B012B
:104BD0001340044023430236DBB2FDF732FEC046E9
:104BE000110300001203000019030000130300006A
:104BF0001A0300001503000016030000170300004D
:104C00001B030000290300002A03000031030000F9
:104C10002B030000320300002D0300002E030000D0
:104C20002F0300003303000094EB011048EA011049
:104C30007478604622008243802A01D0FDF74AFE44
:104C40004A469B011340044023430236DBB2FDF782
:104C500042FE72781000B843802801D0FDF77CFE38
:104C60006046890101403A4011430236C9B2FDF75E
:104C700074FEA0227821012B00D017E4099C102398
:104C80006118A21808240C54135424E4099B5918E1
:104C90009A1810230B54083B13541CE4099B591811
:104CA0009A1810230B5418331354FFF714FC0423E1
:104CB0009B46013308930133079301330693013375
:104CC0009A46013399460133984601339C46043392
:104CD000059300230C260D250E240493FFF784FB77
:104CE000CF23DB00D3580A00FFF706FC0092002117
:104CF000F022099BB047FFF706FADC49FEF73FFFB9
:104D00009C014B461C4063463B4023430231DBB2CF
:104D1000FEF76BF8069B1A68FEF77BFFD44AFEF796
:104D20001BFDD44AFEF761FED34AFEF753FE099BF2
:104D3000DF19FEF729FC099AFEF786FD03213123CE
:104D400001220691FFF739F9CC48CD49CD4ACE4B27
:104D5000FFF724F9CD49FEF711F8099AFFF7F8F9A2
:104D6000099B48465918FFF72BF8C94BFDF7FEFF82
:104D700034220EABFF320698D2180023137003685A
:104D8000DF68574501D000F03FFCC24BC3189E714D
:104D9000099BF4301A780023002A08D0C254099ADB
:104DA000D2185278002A02D00133282BF6D1049B66
:104DB0001B79012B00D18CE1B74B049C58466179DB
:104DC000B64A01310091802107F07CF9B44B20688C
:104DD000E15801394B4259415B461B78C9B2002B5F
:104DE00000D1CCE33F24A446F824E4005E4601222F
:104DF000A1468B4605901C00C23C771C012C00D8B4
:104E0000EEE03E00AB543378002B00D15CE1013280
:104E1000642AF0D134225946FF320EAB0598D218DD
:104E2000002313700368DE68564500D0A1E3994B58
:104E3000C3185972099B6D301A78FF300023002A7D
:104E400008D0C254099AD2185278002A02D00133ED
:104E5000282BF6D1049B1B79012B00D1FBE0914E4E
:104E60003F248F4B0499A446CA58F824023A53426F
:104E70005A41E400D2B2086833230121A146934687
:104E800005901C00C23C771C012C00D8B7E03E0006
:104E90006B543378002B00D1DFE001316429F0D16D
:104EA00034215A46FF310EAB0598C91800230B7008
:104EB0000368DE68564500D063E3764BC3181A7367
:104EC000099BE5301A78FF300023002A08D0C2542D
:104ED000099AD2185278002A02D00133282BF6D131
:104EE000049B1B79012B00D1B3E06F4EF822049B89
:104EF000D20018684C2101233F27944681460A00BE
:104F0000C23A741C012A00D888E02600E95431789E
:104F1000002900D1A6E00133642BF0D134234846A8
:104F2000FF330EAA9B1800221A700368DE685645EC
:104F300000D02CE38D21574B8900C3189A73099B2D
:104F400040181A780023002A08D0C254099AD218AF
:104F50005278002A02D00133282BF6D1049A137913
:104F6000012B00D1A8E045211068504EF822D20054
:104F700001233F27944681460A00C23A741C012A45
:104F80005AD92600E9543178002900D198E001333C
:104F9000642BF1D134234846FF330EAA9B1800221C
:104FA0001A700368DE68564500D09FE69721394B9A
:104FB0008900C318DA73099B40181A780023002A65
:104FC00001D1FFF7A0F8C254099AD2185278002AEA
:104FD00001D1FFF798F80133282BF4D1FFF793F8AC
:104FE0007478604621008143802900D009E7494652
:104FF0009B010B40044023430236DBB202E7747886
:10500000604622008243802A00D040E74A469B0146
:105010001340044023430236DBB239E772781000B4
:10502000B843802800D070E76046890101403A40CB
:1050300011430236C9B269E772781000B84380287C
:105040009FD16046890101403A4011430236C9B2FE
:1050500098E7174E4AE7174E02E7099B5A4605980C
:10506000591823E7099A4846D3185CE77CF20110E7
:1050700048EC011004EC0110B8EB0110E0EA01105B
:10508000F0EA011000EB011014EB011050EF0110D9
:1050900030EF01104406000068EF011084F30110A6
:1050A000140F000084EF0110B0EF0110F4EF0110B5
:1050B0008CEF011074EF0110C3211068F44E55E716
:1050C000099A4846D3186AE7099B594605989A18E1
:1050D000A6E6F04B71E6099B06989A184DE6EE4E4F
:1050E000FDF72AFCED4EFDF7DDFB099B5A460598BE
:1050F0005918FDF7FFFB059B1989002900D141E1F3
:10510000E74B9946FEF785FEE64EFEF7D4FD099A79
:105110004846D318FDF72FFC4846FDF7FFFD099BD5
:1051200048469A18FDF7AEFE54231068DE49FDF795
:105130008EFEDE4AFEF732F9DD4AFEF724F95021F1
:105140001068DC4EFDF782FD099A4846D318FDF73A
:1051500099FD099A4846D318FEF7CCFD099A4846AE
:10516000D318FDF782FC099A4846D318FDF7E9FAEF
:10517000D14EFDF7C8FA012B00D123E20B00CF4A34
:10518000FEF7BDFF012B00D1D1E1CD4AFEF7E4FAD5
:10519000099A4846D318FEF735F855211068C94ECC
:1051A000FEF796F8C84EFEF74FF8099A4846D3180E
:1051B000FEF7AAF8099A4846D318FEF764F8012BBF
:1051C00000D103E2049BC14E18685523FEF7C1F9D4
:1051D000BF4AFEF7A9F9BF4BFEF795F9013B1393C0
:1051E000BD4B049AD35C002B00D1FAE1484617A9C5
:1051F000FBF74EFC002801D1FEF77EF9049B1399C2
:105200001B79002901DAFEF779F9179A002A01DAE9
:10521000FEF774F9521AD11756184E40012B00D1DF
:10522000DDE1AE4FD243D3171A000123FA219A438E
:105230002C33984630008900904404F0ABFC019177
:10524000FA213000890004F0A5FC434600903A00A2
:105250008021584606F036FFFEF75AF9099B05985B
:105260009A18FEF71CF99E4AFEF7E8F89D4EFEF7E5
:1052700057FA9D4AFEF7A2FA099B48469A18FEF78C
:10528000BCF83A00FEF71BFA984AFEF7CCF9984AA8
:10529000FDF7A9FE099B48469A18FDF718FF099BE0
:1052A00048469A18FDF77EFE924AFDF70CFE5A46D4
:1052B000FEF7C5FE099B5A4605985918FDF7D0FA26
:1052C0008D4EFDF7A5FA8D49FDF75CFA8C4EFDF782
:1052D000AEFB099B05989A18FDF779FA099A48469A
:1052E000D318FDF78EFC874EFDF76CFC0598FDF793
:1052F000F9FB59460598FDF73CFC099A4846D31836
:10530000FEF706FC099B9E19FEF742FB099B4846E7
:105310009A18FEF7B7FB4A2310687B49FEF797FB04
:10532000069A012A36D0794AFEF71DFE0093002125
:10533000099B3201C847FEF764FC754AFFF7FCFA87
:1053400000930021099B1201A047FEF7A3FC0091E6
:1053500090220021099BB047FDF72DFC009200210F
:105360005022099BB047FEF7EDFB099BFEF7D0FBEF
:10537000009330220021099BB047FEF79DFB099C5A
:10538000FEF766FCF223049A1B01D358002B1AD1B6
:10539000434A91465F4AFEF7E6FD00920021302223
:1053A000099BB047FDF77BFB60220021099B00961B
:1053B000B847FDF7B8FB0123602200930021099B49
:1053C000B047FEF700FB364A002100239146524ABF
:1053D000FEF7C9FD3E40B218FEF781FD6046059A12
:1053E000FEF77DFD099BFDF70DFF099AFDF76FFEA6
:1053F00083001B185B00FDF7DBFE0A23FDF7D8FED8
:10540000009200219022099BB047FDF744FA0092D8
:1054100000213022099BB047FDF7ADF96022002141
:10542000099B0096B847FDF7ECF900920021D022C5
:10543000099BB047FDF701FC0023FDF78AFD0093AF
:1054400030220021099BB047FDF736FD334AFEF7B5
:1054500083F90023FDF712FE009380220021099BAF
:10546000B047FDF759FE009360220021099BB04729
:10547000FDF7B2FD099AFDF795FD0123FDF769FDE2
:1054800000920021D022099BB047FDF718FFC046CB
:10549000D0EF01105CEF011034F1011014F1011094
:1054A00078EA0110A0F2011068F1011018EE011065
:1054B000F0ED01107CF00110C0F0011004ED0110BE
:1054C0002CEC011018F20110DCF1011000EF0110BA
:1054D000A8EE01108CEE01109B0F000070EE011081
:1054E00038EE011090ED011098EC01107CED0110E8
:1054F000ACF101108CF10110F4F00110D4F00110A6
:105500000CF001103CF001105CF20110C0EA011037
:105510006CEB0110C8EA0110D4EA0110D0ED0110C3
:1055200000920021A022099BB047FDF786FE4C4A5D
:10553000FEF712F901230A21FEF707FDF223049A70
:105540001B01D358002B0ED0464A00239146464AF1
:10555000FEF709FD049B454A18684123FEF714FC39
:10556000099AFDF74AFF3F4A00219146404AFEF75B
:10557000FAFC009190220021099BB0476AE4099A45
:105580004EE400920021C022099BB047A8E400929B
:105590000021E022099BB047E0E40120059AFEF7D4
:1055A0009EFC0132FEF7CBFC1300FEF7C8FC013273
:1055B000910089184900FEF7C8FC4A2308682D4A63
:1055C000FEF7E2FB0B002C4AFEF799FD049B2B4EE5
:1055D00018684823FDF7BDFF099AFDF760FF284FC3
:1055E00020E6013B17931379FDF788FF90220021F5
:1055F000099B0097B047FDF76DFF60220021099BD2
:105600000096B847FDF713FF60220021099B009622
:10561000B847FFF7CCFB00920021C022099BB0479E
:10562000FDF783F9009330220021099BB047FEF774
:10563000E1FB009200213022099BB047FDF78FFB70
:10564000049B104E18684523FDF783FF099EFEF763
:105650009FF9099AFFF791FB0B000B4AFEF74FFDEC
:1056600004EC011098EA0110B8EA011064EA011094
:10567000C0EA011054EA01102CED0110D8EE01101F
:1056800058EE0110D0ED011058ED0110F0B5424C6C
:10569000424BA54404006B4418000021404A05F029
:1056A00059F925682B689E693E4B9E4253D13E4B6B
:1056B000EB5C002B3CD0002101A8FCF79BFB3B4B93
:1056C00001216B441800FCF795FB394A01AB9B5C48
:1056D000032B2DD0684635494018825C032A27D019
:1056E000012B48D0012A43D1324BC3582F4A012005
:1056F0006A441100CE22D200A8502F4AAB502F4B43
:10570000CA582F4B0C316B441A60244B6B44180061
:1057100005F026F98023694620485B010918C9581D
:1057200003006B441800221DFCF7C2F800280CD1BE
:105730000122244BE2542379012B2BD0224B234806
:105740006421234A201806F0BDFC2000FCF78CFDE4
:10575000204B9D44F0BD8022194B104928006B441A
:1057600052016944B0470228E2D00128EDD1D1E7C7
:105770001343EAD0DCE70F4E01AB00209B5901A98F
:10578000012AB7D16A46094FD21992599A42B1D922
:105790001300ABE7104BD2E7D4D2FFFF241D00006B
:1057A00004100000B11F00106D060000940E0000F0
:1057B0008C0E0000840E000074060000880E0000AD
:1057C000242D0000240F0000C8F30110A30F0000D7
:1057D00078F301102C2D0000A0F30110F0B54E4617
:1057E0004546DE465746F123E0B5DC4C1B01A54497
:1057F000DB4C0600E5581B280BD0DA4B6422002155
:10580000E01805F0A7F8092D10D8D74BAD005B596B
:105810009F46083D012D25D90022E250D34BE2508E
:10582000D04B0021E018643205F094F82000FCF71A
:105830001BFDCF4B9D44F0BCBB46B246A946A046DB
:10584000F0BDCC4BF318012B00D8D6E23300313B2E
:10585000012B03D90D2EE9D1C44BE358C64AA354FA
:10586000F1231B010722E2500022C04BD7E7FA23A5
:105870009B009E4200D126E3C04B9E4200D1AEE386
:105880003300313B022B00D847E3B84BE558BC4B03
:10589000E5540D2ECAD1BB4E04ABF6183000BA4AFF
:1058A000211D05F05DF8F2231B01E358002B00D009
:1058B00049E1B64BE35C002B00D028E3B44B04AACB
:1058C00075709D1831002800FBF710FF80222768B3
:1058D000B0493B685201DB69B946AA5803958B422F
:1058E00001D001F042FCAC4BFB5C002B01D101F07C
:1058F000EEF8AA4BFB5C002B01D001F0E8F8A84BB6
:105900009A4201D001F0E3F8A64D7B59013301D151
:1059100001F0DDF8A4480CF01BFEF72302001A404A
:105920001100184201D001F0D2F8CE23DB00FB5861
:10593000A1A85A4253418246DAB293469B4A05F0E7
:1059400009F850469A4B964AA1937B590399013323
:10595000A293984D0281A4A805F002F804ABED18BB
:105960000123A44601215446934A5B422078013426
:1059700058404308084040421040434058080B40FC
:105980005B421340584043080840404210404340A7
:1059900058080B405B4213405840430808404042BF
:1059A0001040434058080B405B42134058404308A6
:1059B000084040421040434058080B405B421340AF
:1059C0004340AC42D2D1DB4357467C4A190CBB5210
:1059D0000232B9547A4A1B0EBB545A46794B910095
:1059E000C9580A2208A864460BF038FC002801D0E8
:1059F00001F06DF86D4D390007AB2A00079008A83B
:105A00000CF032F9804608A80CF09EFA070008A8AE
:105A10000CF0F2FB079B0393AB4201D001F053F86B
:105A2000424603003A431343DBB2002B01D001F09E
:105A30004AF8654D04ABED1859462800FCF7DAF931
:105A4000624BEB5C012B01D001F03DF85146280080
:105A5000039A18F057F8002801D001F034F8CE234B
:105A600049465A46DB00CA504E4A8B5801338B5088
:105A70003100574A201D04F073FFF1220023120168
:105A8000A3503A4A0021A350364B6422E01804F098
:105A900061FF2379012B01D101F04AFB4D4B57E007
:105AA0004D4B9E4200D1C5E14C4B9E4200D0A7E237
:105AB000F22200231201A3502C4AA350484AA350BB
:105AC000B4E60D2E00D108E23300303B092B00D89C
:105AD0002BE22D2E00D128E2082E02D07F2E00D0FE
