:020000041000EA
:1000000000B5324B212058609868022188439860DF
:10001000D860186158612E4B002199600221596106
:100020000121F02299502B49196001219960352056
:1000300000F044F80222904214D00621196600F024
:1000400034F8196E01211966002018661A6600F04E
:100050002CF8196E196E196E052000F02FF8012189
:100060000842F9D1002199601B49196000215960AB
:100070001A491B48016001219960EB211966A021F2
:10008000196600F012F800219960164914480160C1
:100090000121996001BC002800D000471248134993
:1000A000086003C880F30888084703B5996A0420EC
:1000B0000142FBD001200142F8D103BD02B5186610
:1000C0001866FFF7F2FF186E186E02BD00000240BE
:1000D000000000180000070000035F00212200005C
:1000E000F4000018222000A00001001008ED00E03C
:1000F00000000000000000000000000074B24E7A12
:1001000000000420F7010010CB010010CD01001009
:10011000C9010010C9010010C9010010C901001077
:10012000C9010010C9010010C9010010CF01001061
:10013000C9010010C9010010D1010010D301001045
:10014000C1010010C1010010C1010010C101001067
:10015000C1010010C1010010C1010010C101001057
:10016000C1010010C1010010C1010010C101001047
:10017000C1010010C1010010C1010010C101001037
:10018000C1010010C1010010C1010010C101001027
:10019000C1010010C1010010C1010010C101001017
:1001A000C1010010C1010010C1010010C101001007
:1001B000C1010010C1010010C1010010C1010010F7
:1001C000EFF30580103800BE00BE00BE00BE00BECA
:1001D00000BE00BEF2EB8871502B0210702B021093
:1001E0003802001090A31AE71E481F49086006C88D
:1001F00081F3088810471D480068002801D019487D
:10020000F3E70DA40ECC002902D000F012F8F9E7B4
:100210001749184A002000E001C19142FCD116495B
:100220008847164988471649884700BEFDE701C937
:1002300001C29A42FBD37047702B0210C00000200D
:1002400010240020C04E02100000042000000420F2
:10025000C04E021000000320000003200000000038
:10026000704700000000000008ED00E0000000D032
:10027000102400207C3C0020BDBD00105D6F0010EC
:10028000B5BD0010F8B5C0460448054B10B5834213
:1002900003D0044B002B00D0984710BD1024002041
:1002A000102400200000000006480749091A8B109E
:1002B000C90FC91810B5491003D0044B002B00D04A
:1002C000984710BD102400201024002000000000DA
:1002D00010B5074C2378002B09D1FFF7D5FF054B4C
:1002E000002B02D0044800E000BF0123237010BDA2
:1002F000A037002000000000E8E20110054B10B517
:10030000002B03D00449054800E000BFFFF7CCFFF5
:1003100010BDC04600000000A4370020E8E2011034
:1003200030B59C466B461C7B0F230500D01703405D
:100330009B181B11132B1FD8A320CA1D40008242FB
:100340001AD80E48EA18145462461078002813D0C0
:100350000722CC17224051189A00D318DB0004332F
:10036000EA186346C9105B1A01335054585C0028E0
:1003700002D001312829F8D130BDC0464406000022
:100380007047C0467047C046C9239B0070B5C5186A
:10039000041D0600A54207D0200028222021283471
:1003A0000AF0D0F8A542F7D1054BF0181433F6182F
:1003B000B04203D0142200210AF0C4F870BDC04638
:1003C00044060000F0B557464E46DE464546E0B5C9
:1003D000E14CE24BA5449946031D98460A93CB2372
:1003E000DB00C71881444C460026BA468346DC4BE6
:1003F0000B935A46DB4BD35C002B0DD1C8230A98D4
:100400009B002822C1181DF075F9002804D122781C
:10041000237D9A4200D1C5E0A0220021920012A8BB
:100420000AF090F8D04B00251F6843460E935346C0
:100430000F934B4610935B460C940D9611930A9BB9
:100440005A5D13003733DBB2322B03D80B999B0074
:10045000CB589F461300203B5E2B00D975E2C34961
:1004600053008B46C2499B188A46C2499B00894665
:10047000C1491A008846C1491E008C469C44614609
:100480000591BF491C008C469C4461460791BD49BB
:1004900018008C469B449C449A4499449844723B6F
:1004A000FF3B0993002361469C4675387D3A773EB1
:1004B000763CFF38FF3AFF3EFF3C06900891BA5C5D
:1004C0000EA960314A555A460EA9BA5C88314A5580
:1004D00052460EA9BA5CB0314A554A460EA9BA5CDA
:1004E000D8314A5542468620BA5C4EA94A55059AEB
:1004F0000EA9BA5C2931FF314A550EA9BA5D5131B6
:10050000FF314A550EA93A5D7931FF314A55069AB5
:100510000EA9BA5CA131FF314A55079A0EA9BA5CFF
:10052000C931FF314A55089A0EA9BA5CF131FF3141
:100530004A55099A0EA9BA5C800009184A556246C4
:10054000002A00D1DDE128220021012B00D1DDE1CC
:10055000022B00D0E1E1102012AB5B1958540821A6
:1005600099540135282D00D069E70E9B0C9C9846C4
:100570000F9B0D9E9A46109B9946119B9B46237894
:10058000002B00D1F9E1804B804A02920193A02216
:10059000012312A903910093310000200F33520070
:1005A00006F08CFE0A9B0134283310360A93A245CC
:1005B00000D01EE7C9235D46C82257469B0041462E
:1005C000E818920009F0C4FF3A004B4613CB13C25F
:1005D00003CB03C20022634BEA54B3239B009D4428
:1005E000F0BCBB46B246A946A046F0BD684B80228F
:1005F0000993684B684C0893684B694E0793013B1D
:100600000693684BD2000593674B9846674B994613
:10061000674B9A46674B9B4600239C4603334EE745
:100620005B4B802209935B4B5B4C08935B4B5C4EAE
:100630000793013B06935B4BD20005935A4B9846B8
:100640005A4B99465A4B9A465A4B9B4600239C4616
:10065000023334E7584BEE220993584B584C089319
:10066000584B594E0793013B0693584B9200059304
:10067000013B9846564B9946564B9A46564B9B46DD
:1006800000239C4603331AE7544BDC220993544B56
:10069000544C0893544B554E0793013B0693544BCF
:1006A00092000593013B9846524B9946524B9A460D
:1006B000524B9B4600239C46033300E7504BD0220D
:1006C0000993504B504C0893504B514E0793013BAC
:1006D0000693504B92000593013B98464E4B99462A
:1006E0004E4B9A464E4B9B4600239C460333E6E610
:1006F000434BD0220993434B434C0893434B444E06
:100700000793013B0693434B92000593013B9846A8
:10071000414B9946414B9A46414B9B4600239C4690
:100720000133CCE6364BD0220993364B364C089336
:10073000364B374E0793013B0693364B9200059399
:10074000013B9846344B9946344B9A46344B9B4672
:1007500000239C460233B2E634FDFFFF440600004E
:10076000E8E201106C060000E41D002085FEFFFF9A
:1007700086FEFFFF87FEFFFF88FEFFFF89FEFFFF6B
:100780008DFEFFFF8EFEFFFF1C2918009FD9BA00C7
:100790000B0400000A040000070400000904000024
:1007A0000604000005040000040400000304000027
:1007B0000204000001040000C3030000C2030000A3
:1007C000BF030000C1030000BE030000BD03000022
:1007D000BB030000BA030000B90300007B03000064
:1007E0007A0300007703000079030000760300001D
:1007F0007503000073030000720300007103000022
:100800004B0300004A0300004703000049030000B7
:1008100046030000450300004303000042030000BC
:1008200041030000564BC4220993564B564C089383
:10083000564B574E0793013B0693564B9200059338
:10084000013B9846544B9946544B9A46544B9B4611
:1008500000239C46033332E6494BC4220993494B9B
:10086000494C0893494B4A4E0793013B0693494B29
:1008700092000593013B9846474B9946474B9A4651
:10088000474B9B4600239C46023318E6454BCA2241
:100890000993454B454C0893454B464E0793013B06
:1008A0000693454B92000593013B9846434B99466E
:1008B000434B9A46434B9B4600239C460433FEE53C
:1008C000CC23FF330993013B0893CA23FF330793DB
:1008D000013B0693C623FF330593013B9846C4238F
:1008E000FF339946013B9A46C223C824E326E022FF
:1008F000FF339B46C13BFF3B9C46FF3476005200D2
:10090000DDE5A0227821012B00D021E6082012ABE2
:100910005B1958541021995423E6032B06D110205B
:1009200012AB5B195854282199541AE6042B00D0B5
:1009300017E686210EAAF1320C33FF325355890097
:100940000EAA1033521853550BE60F230993013B9F
:100950000893013B0793013B0693033B0593013B3F
:100960009846013B9946013B9A46013B9B46002332
:100970000B240A2604229C46A1E5134B134A04E6E5
:100980001B0300001A0300001703000019030000F6
:1009900016030000150300001303000012030000FB
:1009A0001103000033030000320300002F03000096
:1009B000310300002E0300002D0300002B03000074
:1009C0002A03000029030000D5EEE4001C291800CA
:1009D000CF2110B50400C90009F0C0FD200010BDF2
:1009E000F0B5C64600B502780E00303AD1B2030029
:1009F000092932D8451C407801003039CCB2092C85
:100A000018D890008218987852008A18010030395E
:100A1000CCB29F1C092C0BD8D87884463020404299
:100A2000604404000020092C3FD880BCB846F0BDCB
:100A30002B003D00022104008C432C2C0FD00028F9
:100A40000BD100235001801A80008018C000C0180C
:100A50003060431E9841C0B2E7E70020E5E76878C0
:100A60003038C1B20929F8D8D9788C4630390929EB
:100A700028D8810009184900614430390C00302120
:100A800049428C46187984446146C9B2092914D870
:100A90005B790020190030390929C6D9002BC4D14F
:100AA000A3001B195B006344CCE79000821852003E
:100AB000DD1C60463B008A18BCE70028CDD10A2324
:100AC0006343BFE76346002BC7D164234343B9E7C1
:100AD000F0B5CE46474680B5137889468446110066
:100AE0009DB0002B60D00B2701223F2603AD6F4441
:100AF00008E018004B782100B854002B12D00132C6
:100B0000642A2ED01800C2384C1C0128F1D848782D
:100B10008046B04380281AD0180043462100B854BC
:100B2000002BECD10023AA18137062461268D46817
:100B30001F4A94421FD04A46009300212B00604672
:100B40001201A0471DB0C0BCB946B046F0BD9C0123
:100B5000F8234046DB001C4030408B7820430231B4
:100B6000CAE70B326A440023137062461268D468E5
:100B70000F4A9442DFD148461328E3D802000D49BA
:100B80002C7862445354002CDCD0002283001B18C4
:100B9000DB0004336344A9189C544C78002CD1D05A
:100BA0000132282AF7D1CDE703AD2A00DBE7C046A2
:100BB0002103001044060000F0B5C64600B51C4BEA
:100BC00084B286B0E31801900020632B18D86B46DE
:100BD0009A79531E17000B2B12D86B46DB79984677
:100BE000002B0DD0134B03AD43CB43C5022A0BD0D2
:100BF00003AABB18013B1D780020424695424041A4
:100C000006B080BCB846F0BDA307F1D16421200036
:100C100008F0E0FD89B21D250029EDD191312000B9
:100C2000FF3108F0D7FD89B20029E5D0E0E7C046E2
:100C300030F8FFFFB4E30110F0B5CE46474680B56B
:100C400005885C4B0400EB1885B0632B03D88078D3
:100C5000431E0B2B05D9002005B0C0BCB946B046D9
:100C6000F0BDE3789846002BF5D0534B99464946A2
:100C700001ABC4C9C4C3022858D001AB1B18013B47
:100C80001B784345E7D34D4B9D421DD043464A4612
:100C90000133DBB2E37001A99C469846C8CAC8C1BB
:100CA00002285ED001AA1218013A1278944509D997
:100CB00001230130C0B2E3700D281BD1012301359F
:100CC000A37025800120C7E70C281ED041464A4664
:100CD0000131C9B2E17001AB8846E0CAE0C3022825
:100CE0000BD001AB1B18013B1B788B42EAD20123CE
:100CF0000130E370A0700120AEE743461C2BE1D920
:100D00000423FF3301206380A6E743461F2BA2D0B4
:100D10004A460133DBB2E37001A9C1CAC1C16A46C8
:100D2000D27B9A42CED20123E370C7E7AB072ED124
:100D30006421280008F04EFD89B2002931D1C82174
:100D40002800490008F046FD89B2002929D06B46E9
:100D50005B79984500D97EE743460133E370DBB207
:100D60009846AB07C9D16421280008F033FD89B249
:100D7000002907D191312800FF3108F02BFD89B2FD
:100D80000029BAD143461D2BBAD8012064E76B462F
:100D90005B79984500D95EE7084B9D4200D075E726
:100DA00094E743461D2B00D955E70133E370DBB2CE
:100DB0009846D8E730F8FFFFB4E30110330800008D
:100DC000F0B557464E464546DE46E0B5C54C9A4618
:100DD000A544EEAB1B780C009846C34B9146C35C10
:100DE000002B00D12AE10D88C04BEB18632B00D9F2
:100DF00024E18A78531E93460B2B00D91EE1CB7851
:100E00000293002B00D119E1B94B4CAE83CB83C6C2
:100E1000022A00D177E35B464CAA9B18013B1E785F
:100E2000029BB34200D909E1B24811F089F90825C3
:100E3000A843C0B2002800D000E1AF4811F080F90B
:100E4000A843C0B2002800D0F8E0E27823880192DD
:100E5000A2780D2100920CA8A84A0AF02BFF236863
:100E60000AA80A93FFF7E8FE051E059000D1E5E009
:100E70006B4606A8C27C1B8D0192827C0D210092DC
:100E800010A89E4A0AF016FFE17823880191A17804
:100E90009B4A009114A840210AF00CFF0A2214A9D1
:100EA0004CA80FF0D3FF002800D0C7E05D222490AB
:100EB000944924AB4CA810F0CFFC934A061E03D1F2
:100EC000249B5D2B00D18EE110AB01930CABA021D4
:100ED000009324A80AF0EEFE00268C4B0027029314
:100EE0008B4B31009B468B4B059A069307950494D8
:100EF0000EE0002900D0C3E00022002102987B1CF4
:100F000004300290584604301F0083460B2B3DD01E
:100F1000049B1B89FB40DB07F0D5002AE9D00029A0
:100F2000EAD04346002B00D0A7E0029B1C6809AD25
:100F300003220021280009F005FB22780BAB002AD0
:100F400000D18BE003935C2A00D18AE03B2A00D1D8
:100F500087E02C2A00D184E00A2A00D187E0002310
:100F60002A706B70002328000B931CF02BFE2900C5
:100F700006000200039B4CA810F06EFC002802D172
:100F80000B9B9E4265D000210022B7E70E00079D13
:100F9000049C002A00D182E0002900D07EE25E4A53
:100FA0004B46A021009324A853460AF083FE002359
:100FB0009946E3681A1E00DAB8E04346002B00D0D9
:100FC00079E1564B9A46FA2110008900170008F083
:100FD000D9FB0191FA213800890008F0D3FB504E6B
:100FE000534600903200A02124A80AF063FE4B462D
:100FF000B346002B00D067E12469002C15DB434683
:10100000002B00D063E2FA212000890008F0BAFB2F
:101010000191FA212000890008F0B4FB5A460090A3
:10102000A021404B24A80AF045FE4CA810F084FDF6
:101030004CA810F0D9FE14A810F014FF00252800C9
:10104000E5239B009D44F0BCBB46B246A946A046A2
:10105000F0BD62780134002A00D074E700220599BF
:101060004CE75C232B7000236A70AB707AE7069A1A
:1010700013882B809378AB7074E75B461C6856E747
:101080000B9229490BAB02324CA810F0E5FB00286B
:1010900000D031E70B9B022B00D02DE741E74B46F8
:1010A000A02100931C4A534624A80AF003FE002EF8
:1010B00000D17CE70BAF002324A80B931CF082FD2A
:1010C0003B000600020024A94CA810F0C5FB002834
:1010D00000D06CE705990B9B89469E4200D066E7DD
:1010E00067E7C0466CFCFFFF6D06000030F8FFFFAD
:1010F000B4E3011024E401102CE401103CE40110DD
:101100004CE401107CE40110DCE40110E800021062
:1011100014010210B0E5011058E50110E4E30110DC
:1011200070E5011004E401104CE5011023691A1E5A
:1011300000DA2AE14346002B00D1E2E1CD4FFA214B
:1011400010008900160008F01DFB0191FA21300003
:10115000890008F017FB3B000090A021C64A24A894
:101160000AF0A8FD4B46002B00D15EE709AB9A467A
:101170000BAF03220021504609F0E4F906AB7833A7
:101180001B78002B00D1B7E1A846A14624AD5446F8
:1011900021E03B2B21D02C2B1FD00A2B00D163E167
:1011A000237000236370002320000B931CF00AFDC2
:1011B0003B000600020021004CA810F04DFB002867
:1011C00000D032E70B9B9E4200D02EE76B780135B2
:1011D000002B00D18EE15C2BDBD15C2263700023FD
:1011E0002270A370DFE710AB01930CABA02100933A
:1011F00024A80AF05FFD24A80B961CF0E3FC0BABBF
:101200000600020024A94CA81F0010F025FB0028AE
:1012100000D061E60B9B9E4200D05DE60B903B0048
:10122000232296494CA810F017FB002800D053E663
:101230000B9B232B00D04FE6914B02934346002B90
:1012400001D1904B02930322002109A809F07AF9F9
:101250004123AB46029D029409AC5C2B25D03B2B6D
:1012600023D02C2B21D00A2B28D02370002363708D
:10127000002320000B931CF0A5FC3B00060002009D
:1012800021004CA810F0E8FA002802D10B9B9E42E6
:1012900003D05D460026029C1FE66B780135002BCB
:1012A000DBD15D46029C059E17E65C22637000233D
:1012B0002270A370DCE7744B9A4684E6734B1A885D
:1012C00022809B78A370D3E709AB1800032200218A
:1012D0009A4609F037F906AB78331B780BAF002B31
:1012E0002BD002955546A14624AC5C2B41D03B2B1C
:1012F0003FD02C2B3DD00A2B41D02B7000236B709C
:10130000002328000B931CF05DFC3B00060002004C
:1013100029004CA810F0A0FA002802D10B9B9E4295
:1013200005D04C462469002C00DB68E67DE6637836
:101330000134002BD9D14C46029D23691A1E00DAD4
:10134000DAE0FA214346160010008900002B00D095
:10135000F5E008F017FA0191FA213000890008F051
:1013600011FA5A460090A021494B24A80AF0A2FC89
:10137000FFE65C226B7000232A70AB70C0E7434B22
:101380001A882A809B78AB70BAE7237D002B4AD05D
:101390004B46002B00D148E60BAF002308220B93ED
:1013A0003C493B004CA810F057FA002800D03CE61E
:1013B0000B9B082B00D038E60322002109A809F076
:1013C000C1F8237D002B33D01434A846250009AC86
:1013D00021E03B2B21D02C2B1FD00A2B00D1A8E0E1
:1013E000237000236370002320000B931CF0EAFBA2
:1013F0003B000600020021004CA810F02DFA002846
:1014000000D012E60B9B9E4200D00EE66B780135B1
:10141000002B00D1A3E05C2BDBD15C2263700023A6
:101420002270A370DFE74B460BAF002B00D1FCE529
:1014300000231D220B9318493B004CA810F00CFA16
:10144000002800D0F1E50B9B1D2B00D0EDE54CA84A
:1014500010F072FB04004CA810F0C6FC2043C0B290
:10146000002800D1EBE5E6E5084B1A8822809B783E
:10147000A37098E614E4011070E5011028E501104E
:10148000D4E30110C4E30110F4E30110B0E501104E
:1014900004E4011084E5011090E50110002304220A
:1014A0000B9330490BAB4CA81F0010F0D5F92E4A16
:1014B000002800D074E50B9B042B00D070E54B4650
:1014C000A021009324A853460AF0F4FBF3E5FA2187
:1014D0002000890008F056F90191FA2120008900C6
:1014E00008F050F95A460090A021204B24A80AF099
:1014F000E1FB9AE545464C46237D002B00D04CE7A6
:1015000096E71B4F1BE6AB0700D084E4642128005C
:1015100008F060F989B21D26002900D080E49131DD
:101520002800FF3108F056F989B2002900D177E48C
:1015300071E4104B1A8822809B78A37053E708F05F
:1015400021F90191FA213000890008F01BF95A466F
:101550000090A021054B24A80AF0ACFB09E6454603
:1015600066E7C04650E5011058E5011014E401108B
:1015700004E40110B0E5011070B504000D001CF08A
:1015800021FB030000200A2B02D123792D2B00D050
:1015900070BDE3792D2BFBD1302252429446237843
:1015A0009C446346DBB2092BF2D861788918CBB230
:1015B000092BEDD8A278303AD3B2092BE8D8E378DA
:1015C000303B1E00DBB2092BE2D86379303B092B9C
:1015D000DED8A379303B092BDAD8237A303B092BAC
:1015E00029D8637A303B092B25D8FA2360469B0023
:1015F0004343642041439B195B18910052185200E9
:101600009B182B806379303B9A009B18A2795B0072
:10161000303A9B18AB70237A303B9A009B18627A61
:101620005B00303A9B18EB7068882B8800041843E5
:10163000FFF7C2FAACE70020AAE7C046F8B50400FD
:101640000D00744A002108F07DFF734BAA882360C7
:10165000032323716B68E2801A0C1B0E63726F4BBD
:101660002272EB5A63812B7823732B8963731B0AD5
:10167000A373AB7AE373EB7A2374EB681A0A63748F
:10168000A2741A0C1B0EE27423752B8A63751B0A55
:10169000A3756B69002B01DA01235B421A0AE3751B
:1016A00022761A0C1B0EA376AB696276002B01DA48
:1016B00001235B421A0A8026E37622771A0C1B0E5E
:1016C000A3771F2376012900A3512B001C317D3302
:1016D0006277994206D0200061221F3008F038FF5F
:1016E0008023A35180235B01E7582B004B4A8033B2
:1016F000AE18781E1D009E4243D02A88E319E25599
:10170000120A5A70AA789A70EA78DA706A68110A2E
:101710001A715971110C120EDA712A8999711A72A3
:10172000120A5A72EA68002A01DA01225242110AA8
:101730009A72D972110C120E5A732A691973002AFF
:1017400001DA012252423800110A9A73D97311301A
:10175000110C120E1974290022542A003B00143176
:1017600075321233914251D06122E01808F0F0FE38
:101770003800733772307835AE42BED180235B01BA
:10178000E750002F44D00123661C361825000120A5
:1017900023495B422A78013553405A0803405B4293
:1017A0000B405A405308024052420A4053405A08E4
:1017B00003405B420B405A405308024052420A40E9
:1017C00053405A0803405B420B405A4053080240C2
:1017D00052420A4053405A0803405B420B405A4071
:1017E0005308024052420A405340B542D2D1DB4333
:1017F000E219190AE3555170190C1B0E9170D37040
:101800008022043752012000A750F8BD1F00B2E724
:101810000023EDE7041000004C505331080F000086
:101820002083B8EDF0B54546DE4657464E46E0B556
:10183000754C764BA5448046019299420DD0744B6D
:10184000CB18012B09D900263000724B9D44F0BC07
:10185000BB46B246A946A046F0BD43465B18DA1E19
:1018600010781A1F1278000210439A1E127844460C
:101870000127120402430120013B1E78251F360672
:101880001643654A6D187F42237801347B405F0818
:1018900003405B4213405F407B0807407F42174094
:1018A0007B405F0803405B4213405F407B0807407A
:1018B0007F4217407B405F0803405B4213405F401C
:1018C0007B0807407F4217407B405F0803405B4234
:1018D00013405F407B0807407F4217405F40A542AE
:1018E000D2D1FB43B342AED1434642469B785278B5
:1018F0001B04120213434246127813434246D27825
:1019000012061343454A93429DD1434642465B79B2
:1019100012791B0213430093012B6ED0022B67D068
:10192000032B90D1394B994200D08CE702AB9946FA
:10193000002118003A4A08F005FE3A4B49460122B8
:1019400022938423CA50023A0833CA500433CA503F
:101950000121354C354840AB354D02AE1C805880D6
:101960005960DA601A61AD197833AB42F4D143465D
:1019700042461B7AD2791B041202134342469279E3
:10198000494613434246527A4846120613434A4692
:1019900053604346264A9B7A8B5442462549D27A65
:1019A00042540099012949D04146097B012900D9B7
:1019B00049E7002401701F21002000269142604168
:1019C000013999426641009B0640032B00D08EE10D
:1019D000434642469B7B527B1B0213434A4613817C
:1019E0004346DB7B1127937243461B7CD37230E066
:1019F000114B994200D026E798E7DF231B0199425B
:101A000000D020E792E7C046E4F0FFFF710E00002F
:101A100010F2FFFF1C0F00002083B8ED4C50533133
:101A20000C0F0000EA070911EA0700000911000085
:101A3000080F0000090F0000F10D00000024002035
:101A400000261E31914260410139994266410C27BE
:101A5000064043464246DB195978D25D09021143DC
:101A60009A78DD7812040A432D0615434A465C79BC
:101A7000D5601A79240214434A4638001482DA7970
:101A8000997912020A43197A0A30090411435A7AE1
:101A900012060A43511C05D09E498C46511E6145D1
:101AA00000D920E149464A614246D97A125C0902CE
:101AB00011431A7B5B7B12040A4339001B06134354
:101AC0000E315A1C04D093485A1E824200D910E1AC
:101AD0004A464144936109A8612208F039FD6F2309
:101AE0009A46BA44002E14D0002D00D10FE1802375
:101AF0001B019C4200D30AE17C234A46D35C002BA5
:101B000000D004E11389002B03D09068FFF754F84C
:101B100006004A464B464946127F5E201C337D3103
:101B2000002A0CD000240025203AD2B290426C4109
:101B3000013326408B4215D01A78002AF2D15A1C64
:101B400091420FD0531C8B420CD050780028F6D015
:101B5000931C994206D09278002AF0D01A00531CA8
:101B60008B42F2D180234D464B449B460027F535EE
:101B70005B461F805F80009B032B0FD1434654467A
:101B800040465344DA7899785B78005D1B02034342
:101B90005846038004238170C2709A4443465344DC
:101BA0005A7899781202090450460A434146095C62
:101BB000D8790A43D978000209060A4359464A608F
:101BC0005A79197912020A4359460A8151461A7AFA
:101BD0000A31120410439A7910435A7A12060243CA
:101BE000501C03D04B4C501EA04278D85846C260BF
:101BF000DA7A187B1202000402434046415C5B7BA8
:101C00000A4351461B0613430E315A1C03D0414868
:101C10005A1E824254D85C465A461434136120003E
:101C20006122414408F094FC6F239A44002E54D062
:101C30005B465B68002B50D05B4680221B891201FB
:101C400093424AD274235A46D35C002B45D1138861
:101C5000002B03D01068FEF7AFFF060023785E224A
:101C6000002B20D10134AC420BD02378002B05D1BE
:101C70000134A54205D02378002BF3D00134A542CE
:101C8000F6D178239B44244B02AA9B1878359B45B8
:101C900000D06DE7002E00D1D5E549461F4A0198D6
:101CA00008F056FCD0E53900203BDBB29A4279417E
:101CB00001340E40A542E4D02378002BD8D0F2E7BF
:101CC00001235C465A465B421434136120006122B2
:101CD000414408F03DFC6F239A440026BEE70122F0
:101CE0000026524282E7012200265242DAE60D2700
:101CF000AFE601234A465B4293614144612209A851
:101D000008F026FC6F239A460026BA4401E7002615
:101D1000FFE6C0463E420F00080F00000A0F000019
:101D2000F0B5CE464746E92280B55F4C1201A54486
:101D30008C000021050008F005FC5C4B0122E158F5
:101D400002A80FF083F8031FDBB20400012B04D9B3
:101D5000002809D00322564BEA542800554B9D44D5
:101D6000C0BCB946B046F0BD069A534B17009A4224
:101D700007D0524ABB18012B03D900230190984683
:101D80000AE000233A000193290001AB02A80FF0FA
:101D900033FC01230400984602A810F025F8044300
:101DA000E4B2002CD6D101220121454E454C4648D3
:101DB000D8AB6E4452421C8058805960DA601A6178
:101DC00078339E42F7D14346002B02D0019BBB42A1
:101DD00003D00222364BEA54BFE73C4B2A689A42B2
:101DE000F7D13B00103B1A009946AB689A42F0D1FC
:101DF000391F681842786B5C12021A4383781B04FF
:101E00001343C27812061A439446002948D001238E
:101E10002E0001202C1F2E49E4195B423278013636
:101E20005A405308024052420A4053405A08034065
:101E30005B420B405A405308024052420A40534012
:101E40005A0803405B420B405A405308024052423A
:101E50000A4053405A0803405B420B405A40530823
:101E6000024052420A4053405A0803405B420B4032
:101E70005340A642D2D1DB439C45AAD12800494613
:101E80009AAA0C30FFF7CEFC0028A2D06A68114B4A
:101E9000EA504A46104BEA500122054BEA545CE7EF
:101EA00001235B42E7E7C04684EEFFFF9800021083
:101EB0008C0E00007C110000810E000000F2FFFF7C
:101EC00070110000EA070000091100004C50523167
:101ED0002083B8ED840E0000880E0000F0B51F00CE
:101EE0002D4B2E4CC35CA5440E000400002B39D0B2
:101EF000E7231B019A4235D900216846FFF710FFFE
:101F0000E9231B016B4418000121FFF709FF6B4611
:101F1000234A9B5C032B25D0E92069460001091860
:101F2000885C03281ED0012B26D001281ED1E92170
:101F30006A461C4B09015218D35801229446E922E3
:101F400012016A441100CE226046D200A050164A07
:101F50003000A350154BCA580C313A6008F0F8FA1B
:101F6000012000E00220124B9D44F0BD002BF9D16E
:101F7000431E98414000F6E700216B46094A8C4613
:101F80009B5869460128DED1E9252D014819825860
:101F90009A42D8D91300D0E76D060000DCE2FFFFBB
:101FA0008C0E0000840E000074060000880E0000F5
:101FB000241D0000F0B54646D6464F46C0B5684BD6
:101FC000684CC55CA544884604001600002D06D068
:101FD000654BC35C002B02D1644B9A4209D00025AB
:101FE0002800FC235B019D44E0BCBA46B146A846EC
:101FF000F0BD5F4FC3590133F1D05E4810F0A0F837
:10200000F7231842EBD1CE23DB00E35800215A42DC
:1020100053419BA8DBB2584A994608F093FA574BB4
:102020009D229B93E359920001339C936B4641465A
:102030009E529EA8320008F08BFA514B01216B444E
:102040009C4601234F4A9BA85B42067801305E40C4
:1020500073080E407642164073405E080B405B42A8
:1020600013405E4073080E407642164073405E088F
:102070000B405B4213405E4073080E4076421640B0
:1020800073405E080B405B4213405E4073080E4095
:102090007642164073405E080B405B42134073402B
:1020A0006045D2D19B206946DB436E468000364AAC
:1020B00009188B54354A190A3618B1546E46344AF9
:1020C000190C3618B1541B0E0132B3544A46314B29
:1020D0009200D15802A80A220EF0B8FE002800D0C3
:1020E0007DE7254E01AB32009BA9019002A80FF0BD
:1020F000B3FB070002A80FF01FFD804602A80FF0F7
:1021000073FE019B9A46B34225D13B0042461343DE
:102110001843C0B200281ED11F4B49466B4418001B
:10212000FFF7FEFD6A461C481C4B1218D35C012BBE
:1021300011D103006B44524618009BA91BF0DAFA38
:10214000002808D1CE234A46DB00E250084AA358B3
:102150000133A35044E70122034BE2543FE7C0465A
:102160006D06000080E0FFFF6E060000710E0000AB
:102170007406000024E40110810E00004C5052311E
:10218000E91000002083B8ED7D0E00007E0E0000F7
:102190007F0E000098000210F01000008C0E00006E
:1021A000F0B55746DE464E464546E0B50768E04C7A
:1021B0003B68E04A9B68A5440490934201D002F03A
:1021C0004BFBC9239B00FE183D1DB54207D02800DC
:1021D00028222021283508F0B5F9AE42F7D1D64B98
:1021E00014220021F81808F0ADF90499F2230A002E
:1021F0001B01CB580C320C000592002B0CD0CF4A9F
:10220000885C1F21C01A1F3007F0E4FA0B015B1A2B
:10221000DB008433E31805930B22002114A808F097
:1022200091F9059B1868FEF7C7FC002800D073E100
:10223000049B1B79012B00D16CE1C14B0599C14A6C
:10224000496814A800910B2109F034FD22AB98468F
:10225000802114AB4046BC4A09F02CFD049B186851
:1022600043461B78002B01D102F0B2FBCF2542ACD4
:1022700009940EAC2D193F24A146F824E400012254
:102280004146A24684461C00C23C4E1C012C00D88C
:10229000BAE03100AB540B78002B00D1C8E001321A
:1022A000642AF0D134226046FF320EABD2180023EC
:1022B00013700368DE68A54B9B469E4200D0C3E0C6
:1022C00001229D4B0999C2540A7800230430002A48
:1022D00007D0C254CA185278002A02D00133282BE2
:1022E000F7D1049B1B79012B00D1B8E0984A049CDC
:1022F0008021A368404609F0DDFC43461B78206836
:10230000002B01D102F061FB3F24A146F824E40038
:1023100001224146A24684461C00C23C4E1C012CB0
:1023200000D89EE03100AB540B78002B00D1ACE01C
:102330000132642AF0D134226046FF320EABD2184B
:10234000002313700268D6685E4500D0A7E07A4A81
:102350000999821853700A782C30002A07D0C25489
:10236000CA185278002A02D00133282BF7D1F22361
:10237000049A1B01D358002B00D19CE01379012B48
:1023800001D102F06DFA4123106872493F24A14641
:10239000F824E4000122A24684461C00C23C4E1CE4
:1023A000012C00D892E03100AB540B78002B00D107
:1023B000A0E00132642AF0D134220EABFF32D218F1
:1023C0000023604613700268D6685E4500D09BE02B
:1023D000594A0999821893700A785430002A07D014
:1023E000C254CA185278002A02D00133282BF7D1E0
:1023F000F123049A1B01D358082B01D901F056FA96
:10240000554A9B00D3589F464C784846270087433F
:10241000802F00D03DE750469B01034048460440D2
:102420002343DBB20231AB540B78002B00D036E7EC
:10243000099B60469A18002313700368DE68434BBB
:102440009B469E4200D13BE70123002200930021DE
:10245000099BB047049B1B79012B00D046E73F4AFC
:1024600045E74C78484627008743802F00D059E73E
:1024700050469B010340484604402343DBB20231EF
:10248000AB540B78002B00D052E7099B60469A189A
:10249000002313700268D6685E4500D157E710220A
:1024A00000930021099BB047F223049A1B01D358E3
:1024B000002B00D062E7F1231B01D358082B01D970
:1024C00001F0F4F9264A9B00D3589F464C784846C1
:1024D00027008743802F00D065E750469B010340CB
:1024E000484604402343DBB20231AB540B78002B47
:1024F00000D05EE7099B60469A18002313700268BB
:10250000D6685E4500D163E7009320220021099B35
:10251000B0476DE7134B91E60598134AC1780388DD
:102520000191817814A800910B2109F0C3FB8DE67D
:1025300074FCFFFF89030010440600000C0F00002C
:10254000D8E5011054EE01105CEE011021030010DB
:10255000ECE50110FCE501101CFF0110DCE50110A9
:1025600040FF0110D4E50110B4E50110049B1B7974
:10257000012B01D102F0ECFDAD4EF822049BD200FC
:1025800018684C2101233F27944681460A00C23A2D
:10259000741C012A00D83DE12600E9543178002955
:1025A00001D102F04EFC0133642BEFD134234846B5
:1025B000FF330EAA9B1800221A700368DE685E457E
:1025C00001D002F083FE9B4BC318DA70099B7C306C
:1025D0001A780023002A08D0C254099AD2185278D7
:1025E000002A02D00133282BF6D13F24A446F82438
:1025F000914B049AE400D658106873425E41312230
:102600000123A1468D49F6B205901400C23C4F1C2F
:10261000012C01D801F068FE3900EA540A78002A3A
:1026200001D102F0FEF90133642BEED10598013B94
:10263000D42292009B180EAA9B18814A9B18002254
:102640001A700368DF685F4501D002F00DFE794B18
:10265000C3189E71099BF4301A780023002A08D011
:10266000C254099AD2185278002A02D00133282B7A
:10267000F6D13F24704B049AA446D158F82401396E
:102680004B425941E400C9B2106801233222A146ED
:102690008A466C4E05901400C23C771C012C01D870
:1026A00001F0ECFF3E00EA543278002A01D102F03A
:1026B00088F90133642BEED151460598013BD422B1
:1026C00092009B180EAA9B185D4A9B1800221A7054
:1026D0000368DE685E4501D002F0BFFD554BC318AC
:1026E0005972099B6D301A78FF300023002A08D0F8
:1026F000C254099AD2185278002A02D00133282BEA
:10270000F6D1049B1B79012B01D102F075FD4E4ED1
:10271000F822049BD2001868452101233F279446E4
:1027200081460A00C23A741C012A01D801F0B7FFA1
:102730002600E9543178002901D102F033F9013340
:10274000642BEED134234846FF330EAA9B18002297
:102750001A700368DE685E4501D002F08CFD8321AB
:10276000344B8900C3185A73099B40181A78002308
:10277000002A08D0C254099AD2185278002A02D0EE
:102780000133282BF6D1049A1379012B01D102F0E1
:102790002EFD542110682D4EF822D20001233F2730
:1027A000944681460A00C23A741C012A01D801F0FD
:1027B00086FF2600E9543178002901D102F0F7F8AC
:1027C0000133642BEED134234846FF330EAA9B1805
:1027D00000221A700368DE685E4501D002F07FF8BF
:1027E0009721144B8900C318DA73099B40181A7893
:1027F0000023002A01D100F06FFFC254099AD218B9
:102800005278002A01D100F067FF0133282BF4D160
:1028100000F062FF72781000B843802800D0BBE659
:102820006046890101403A4011430236C9B2B4E61C
:10283000F0EB011044060000140F0000FCEB011047
:1028400080FDFFFF08EC01103CEC011080EC011052
:10285000F824049BE4001868432201233F27A14683
:102860008246B7491400C23C4E1C012C00D859E1E5
:102870003100EA540A78002A01D102F037FB013313
:10288000642BEFD15046013BD42292009B180EAA34
:102890009B18AC4A9B1800221A700368DE685E45DC
:1028A00001D002F0B5FDA84BC318DA70099B7C304B
:1028B0001A780023002A08D0C254099AD2185278F4
:1028C000002A02D00133282BF6D1049B1B79012B5F
:1028D00001D102F0FBFB9D4B9D4A04998A5C002AC2
:1028E00001D002F08FF89B499B4A0091404680211D
:1028F00009F0E0F9994B049AD658106873425E418A
:1029000043461B78F6B2002B01D102F097FD3F241D
:10291000A446F824E40001224146A14605901C008B
:10292000C23C4F1C012C01D801F0ACF93900AB546A
:102930000B78002B01D102F068F80132642AEED145
:1029400034220EABFF320598D218002313700368AF
:10295000DF685F4501D002F0F6FC7B4BC3189E7127
:10296000099BF4301A780023002A08D0C254099A2F
:10297000D2185278002A02D00133282BF6D1049BBA
:102980001B79012B01D102F0B3FB754E3F24734B31
:102990000499A446CA58F824013A53425A41E40023
:1029A000D2B2086832230121A146924605901C004C
:1029B000C23C771C012C01D801F077F93E006B5422
:1029C0003378002B01D102F0CCF901316429EED12A
:1029D00034215246FF310EAB0598C91800230B7005
:1029E0000368DE685E4501D002F021FD564BC31836
:1029F0005A72099B6D301A78FF300023002A08D0E4
:102A0000C254099AD2185278002A02D00133282BD6
:102A1000F6D1049B1B79012B01D102F066FB514ECC
:102A2000F822049BD2001868432101233F279446D3
:102A300081460A00C23A741C012A01D801F046F905
:102A40002600E9543178002901D102F080F90133E0
:102A5000642BEED134234846FF330EAA9B18002284
:102A60001A700368DE685E4501D002F00BFC83211A
:102A7000354B8900C3185A73099B40181A780023F4
:102A8000002A08D0C254099AD2185278002A02D0DB
:102A90000133282BF6D1049A1379012B01D102F0CE
:102AA000AEFB45211068304EF822D20001233F27AB
:102AB000944681460A00C23A741C012A01D801F0EA
:102AC0007DFE2600E9543178002901D102F044F955
:102AD0000133642BEED134234846FF330EAA9B18F2
:102AE00000221A700368DE685E4501D001F0F7FE2F
:102AF0009721154B8900C318DA73099B40181A787F
:102B00000023002A01D100F0E7FDC254099AD2182F
:102B10005278002A01D100F0DFFD0133282BF4D1D7
:102B200000F0DAFD4C782000B843802800D09FE602
:102B30004846920102403C4022430231D2B298E61C
:102B400010EB011080FDFFFF440600002CEB01108C
:102B5000250F000038EB0110B0EE0110140F00003B
:102B60005CEB01108CEB0110D0EB0110049A13798F
:102B7000012B01D102F0E7FA43231068AE49F82493
:102B8000E40001223F27A14682461C00C23C4E1CA5
:102B9000012C00D86FE23100AB540B78002B01D12F
:102BA00002F0D0F80132642AEFD134225046FF32CD
:102BB0000EABD218002313700268D6685E4501D0B0
:102BC00002F04CFC9D4A8218D370099B7C301A7825
:102BD0000023002A08D0C254099AD2185278002A39
:102BE00002D00133282BF6D1049B1B79012B01D194
:102BF00002F042FA924A049B998A002901D102F01C
:102C000087FB4B0801D102F080FB01200600034046
:102C10000E409B198E0834D006409B19CE0830D048
:102C200006409B190E092CD006409B194E0928D04E
:102C300006409B198E0924D006409B19CE0920D04E
:102C400006409B190E0A1CD030401B184E0A18D0A3
:102C5000012006409B198E0A13D006409B19CE0A0C
:102C60000FD006409B190E0B0BD006409B194E0B44
:102C700007D006409B198E0B03D03040C318C90BF8
:102C80005B188021404609F015F8049B18684346FC
:102C90001B78002B01D102F00AFBF824E40001228A
:102CA00041463F27A14682461C00C23C4E1C012CD7
:102CB00001D801F004FE3100AB540B78002B01D198
:102CC00002F0C4F80132642AEED134225046FF32B9
:102CD0000EABD218002313700268D6685E4501D08F
:102CE00002F0DEFA554A82189371099BF4301A7883
:102CF0000023002A08D0C254099AD2185278002A18
:102D000002D00133282BF6D1049B1B79012B01D172
:102D100002F021FA4B4A049B998A002901D102F062
:102D2000C9FA4E0801D102F0C5FA8B083ED0012045
:102D3000070006400F40F61903409B19CE0830D01B
:102D400006409B190E092CD006409B194E0928D02D
:102D500006409B198E0924D006409B19CE0920D02D
:102D600006409B190E0A1CD030401B184E0A18D082
:102D7000012006409B198E0A13D006409B19CE0AEB
:102D80000FD006409B190E0B0BD006409B194E0B23
:102D900007D006409B198E0B03D03040C318C90BD7
:102DA0005B180221994289410A230B408021404649
:102DB00008F080FF049B186843461B78002B01D164
:102DC00002F067FAF824E400012241463F27A146B9
:102DD00082461C00C23C4E1C012C01D801F086FD2D
:102DE0003100AB540B78002B01D101F0CEFD013244
:102DF000642AEED134225046FF320EABD2180023A3
:102E000013700268D6685E4501D002F0DFFA0B4A03
:102E100082181372099B45301A78FF300023002A6C
:102E200012D0C254099AD2185278002A0CD0013319
:102E3000282BF6D108E0C046B0EC01104406000093
:102E4000D0EC0110F8EC0110049B9B8A002B47D0BA
:102E5000580801D102F0B7FA01210A0008401A40CF
:102E600080189A0801D102F0A9FA0A401218D8086D
:102E700030D00840121818092CD0084012185809F0
:102E800028D008401218980924D008401218D809F0
:102E900020D008401218180A1CD001405218580AB5
:102EA00018D0012108401218980A13D008401218AF
:102EB000D80A0FD008401218180B0BD0084012186F
:102EC000580B07D008401218980B03D001408A18FD
:102ED000DB0BD21893009B185B00022A00D90A333F
:102EE00080214046AE4A08F0E5FE049B1868434640
:102EF0001978002901D102F049FAF822D200012301
:102F000046463F27944681460A00C23A741C012A6D
:102F100001D801F0FBFC2600E9543178002901D1E9
:102F200001F024FD0133642BEED134234846FF33F6
:102F30000EAA9B1800221A700368DE685E4501D055
:102F400002F01DFA974BC3189A72099B95301A78B4
:102F5000FF300023002A08D0C254099AD2185278B0
:102F6000002A02D00133282BF6D1049B1B79012BB8
:102F700001D102F0A8F88C4EF822049BD200186808
:102F8000452101233F27944681460A00C23A741C1A
:102F9000012A01D801F0CAFC2600E9543178002941
:102FA00001D101F0E8FC0133642BEED13423484613
:102FB000FF330EAA9B1800221A700368DE685E4574
:102FC00001D002F0D5F98321764B8900C3185A73DA
:102FD000099B40181A780023002A08D0C254099A85
:102FE000D2185278002A02D00133282BF6D1049A45
:102FF0001379012B01D102F061F8412110686B4E69
:10300000F822D20001233F27944681460A00C23AA3
:10301000741C012A01D801F099FC2600E95431788A
:10302000002901D101F0ACFC0133642BEED1342333
:103030004846FF330EAA9B1800221A700368DE6808
:103040005E4501D001F04BFC9721564B8900C31817
:10305000DA73099B40181A780023002A00D13BE359
:10306000C254099AD2185278002A00D134E30133AD
:10307000282BF5D130E34C782000B843802800D0CD
:1030800089E548469B0103403C4023430231DBB2C3
:1030900082E5049A1379012B01D102F04FF85723EE
:1030A00010684349F824E40001223F27A1468246E4
:1030B0001C00C23C4E1C012C65D93100AB540B786E
:1030C000002B01D101F078FC0132642AF0D13422C6
:1030D0005046FF320EABD218002313700268D66838
:1030E0005E4501D002F080F92E4A8218D370099B08
:1030F0007C301A780023002A08D0C254099AD218CA
:103100005278002A02D00133282BF6D1049B1B7978
:10311000012B01D102F022F8264A049C26494046A0
:1031200063188021994608F0C5FD244B2068E658B5
:1031300073425E4143461B78F6B2002B01D102F088
:10314000BCF83F2401224146A44606900BE0010052
:10315000AB540B78002B01D101F00DFE0132642A33
:1031600001D101F06DFC1F00481CC23F0590012FEA
:10317000EDD84F7864463800A043802801D101F093
:103180007BFB0599E4E74C782000B843802894D174
:1031900048469B0103403C4023430231DBB28DE7AC
:1031A000B8EE01104406000034ED011070ED01107E
:1031B000F4E9011018EA0110920F00001C0F000042
:1031C000049A1379012B01D101F0B3FF4E2310684B
:1031D0008D49F824E40001223F27A14682461C00C5
:1031E000C23C4E1C012C00D800E13100AB540B78DE
:1031F000002B01D101F0D1FB0132642AEFD134223E
:103200005046FF320EABD218002313700268D66806
:103210005E4501D002F07FF87C4A8218D370099B8A
:103220007C301A780023002A08D0C254099AD21898
:103230005278002A02D00133282BF6D1049A744B1D
:10324000D718D35C002B70D0C8230793C33B0593DA
:103250003A339A463C000897099F17AE292200216D
:10326000300007F06FF920001AF0ACFC0690282817
:1032700001D92823069321003000069A07F068F947
:10328000049B18683378002B01D101F0A9FBF821C9
:10329000C90089460122B44631000A940B900C976C
:1032A0001C00C23C481C012C01D800F09CFC010011
:1032B000AB540B78002B01D100F0AAFC0132642A38
:1032C000EED134226646FF320EAB0A9C0B980C9F5F
:1032D000D218002313700268D2689146059AD94526
:1032E00001D000F0A4FC8118484A8B5407993A7821
:1032F00004314118002A07D0CA54FA185278002A1B
:1033000002D00133282BF7D1069BE4182378002B39
:103310000AD0059B01330593079B28331A000793B6
:10332000A0235B009A4299D1089F049B1B79012B33
:1033300001D101F0CEFE374E38001AF043FC802157
:1033400003003200404608F0B5FC049B1868434671
:103350001978002901D102F074F8F822D200012373
:1033600046463F27944681460A00C23A741C012A09
:1033700001D800F077FC2600E9543178002901D10A
:1033800001F031FB0133642BEED134234846FF3387
:103390000EAA9B1800221A700368DE685E4501D0F1
:1033A00002F055F8194BC3189A72099B95301A7898
:1033B000FF300023002A08D0C254099AD21852784C
:1033C000002A02D00133282BF6D1F22204991201EF
:1033D0008A580B79002A01D101F08BFD012B01D114
:1033E00002F032F80B000C4E01F088FD4C78200002
:1033F000B843802800D0F8E648469B0103403C4093
:1034000023430231DBB2F1E678E901104406000003
:10341000310F000094E90110A8E90110049B1B7909
:10342000012B01D101F082FE714A049C714B802175
:10343000E3584046013308F03DFC43461B782068C2
:10344000002B01D101F07CFFF824E4000122414669
:103450003F27A14682461C00C23C4E1C012C00D8CE
:10346000B7E03100AB540B78002B01D101F0E4FC44
:103470000132642AEFD134225046FF320EABD2180B
:10348000002313700268D6685E4501D001F025FF65
:10349000594A8218D370099B7C301A780023002A7D
:1034A00008D0C254099AD2185278002A02D00133A7
:1034B000282BF6D14F4B049AD7587A1C91008B18C1
:1034C0009A460B2B01D90B239A46BA00D719BA4555
:1034D00001D801F0E4F9494B0793494B0893494B54
:1034E0000A933F239946049B1B79012B6DD0089AC0
:1034F000BB00D1580B78002B01D101F075FEF820EC
:10350000C0000122844606971800C2384C1C0128CE
:1035100001D800F0CFFE2100AB540B78002B01D175
:1035200000F0DDFE0132202AEED1CF320EAB069F35
:10353000D21800231370059B7E1C1A890123FA40C0
:1035400013405722013B934378330193099B802119
:10355000079A00934046330008F0ACFB049A1068C9
:103560000368DC68234BD358274A9900C918791A95
:10357000049F4B00BA580533511A4A425141C9B20F
:103580005C4501D001F071F9132B15D81A4FC21800
:10359000D1554246117800290ED09A00D218002346
:1035A000D20004328218D1544146C9184978002902
:1035B00002D00133282BF6D1564501D101F06FF925
:1035C000049B37001B79012B91D10A9ABB00D1587B
:1035D00090E74C782000B843802800D041E7484667
:1035E0009B0103403C4023430231DBB23AE7C04633
:1035F000B0E80110180F0000440600009CEE011016
:10360000E800021014010210140F0000049C0321B2
:1036100020689A4AFDF75CFA994B2068E35C002B1E
:1036200001D101F08AFE964A0126A7183F2294464E
:10363000F822D20090461A00C23A791C012A00D81A
:103640000AE10F00AB553B78002B01D101F08FFB55
:103650000136642EEFD134260EABFF36F618002269
:1036600032700368DE685E4501D001F0D8FE854BFC
:103670000132C3189A71099BF4301A780023002A8A
:1036800008D0C254099AD2185278002A02D00133C5
:10369000282BF6D1049B1B79012B01D101F022FDCF
:1036A000794A049C09212068FDF712FA2379012B3D
:1036B00001D101F014FD754A049C0C212068FDF72E
:1036C00007FA2379012B01D101F006FD704A049B12
:1036D0000E211868FDF7FCF904996E4B0868CB5C65
:1036E000002B01D101F056F93F24A446F824694A81
:1036F000E4008918A046012281461C00C23C4E1CF1
:10370000012C00D8F2E23100AB540B78002B00D131
:1037100000E30132642AF0D134224846FF320EAB76
:10372000D218002313700268D6685E4500D0FBE211
:10373000AB24544A0999821853740A78A4000019DA
:10374000002A07D0C254CA185278002A02D0013386
:10375000282BF7D1049A1379012B00D1EFE25523DE
:1037600010684D493F24A446F824E4000122A046F5
:1037700081461C00C23C4E1C012C00D8E3E2310003
:10378000AB540B78002B00D1F1E20132642AF0D166
:1037900034220EABFF32D218002348461370036860
:1037A000DD685D4500D0ECE20122BF24354B09996C
:1037B000C318DA740A78A40000230019002A07D07D
:1037C000C254CA185278002A02D00133282BF7D1EC
:1037D000049B324A1E6833681B69934200D0DFE2C3
:1037E000284B00259946331D98460A93CB23DB00CE
:1037F000F7182B4BB1444C460C9343460E960B9551
:1038000010940F971193274B0E9AD35C002B0DD178
:10381000C8230A989B002822C11819F06BFF0028C2
:1038200004D12278237D9A4200D184E3A022002192
:103830000998920006F086FE00201B4B0D941E682E
:103840000A9B1A5C13003733DBB2322B00D9AAE291
:103850000C999B00CB589F467A781400914662469B
:103860009443802C00D0ECE642469B01134049462D
:10387000624611400B430237DBB2E3E694EE0110DF
:10388000260F000044060000D0E701101CE80110DC
:1038900060E80110A20F000038EE0110C50300100F
:1038A00064FF01106C060000E41D0020049A1379E7
:1038B000012B01D101F035FC44231068DF49F824C5
:1038C000E40001223F27A14682461C00C23C4E1C58
:1038D000012C00D869E13100AB540B78002B01D1E9
:1038E00001F0B9FA0132642AEFD134225046FF3296
:1038F0000EABD218002313700268D6685E4501D063
:1039000001F0F2FCCE4A8218D370099B7C301A7801
:103910000023002A08D0C254099AD2185278002AEB
:1039200002D00133282BF6D1049CC64B8021E358EA
:103930004046C54A08F0BEF9434619782068002978
:1039400001D101F0DFFCF822D200012346463F27D7
:10395000944681460A00C23A741C012A01D800F03C
:10396000D5FE2600E9543178002901D101F040F854
:103970000133642BEED134234846FF330EAA9B1843
:1039800000221A700368DE685E4501D001F0B3FCC6
:10399000AB4BC3185A71099BCC301A780023002A0C
:1039A00008D0C254099AD2185278002A02D00133A2
:1039B000282BF6D1A54B0793A54B0693002305931F
:1039C00008331E0037339A46099B99460499A14B48
:1039D000059ACB5CD340012214001C401A4200D14E
:1039E00092E00B79771C012B01D100F054FF0B0002
:1039F000994A186821004E238446A0460A970896E3
:103A00001800C238561C012801D800F08FFE320081
:103A10006B541378002B01D100F09EFE0131642914
:103A2000EED1342160464446FF310EAB089E0A9F1A
:103A3000C91800230B700268D26890465A4501D01D
:103A400000F0E8FF132E16DC7D49821953544B46D3
:103A5000197800290FD0B2009219D20004328218CE
:103A600000234846D154C1184978002902D00133B7
:103A7000282BF7D18146049B02361B79012B01D1FB
:103A800000F005FF069B1A68049B18681378002B4A
:103A900001D101F0D1FB0890511C88461900C239B0
:103AA000012901D800F05FFE42462B551378002B08
:103AB00001D100F06FFE0134642CEDD134240EAB43
:103AC000FF340898E418002323700268D4685C452A
:103AD00001D001F0C5F9132F16DC5949C21953540E
:103AE0004B46197800290FD0BA00D219D2000432FF
:103AF000821800234846D154C1184978002902D0C1
:103B00000133282BF7D18146079A059B083207928B
:103B1000069A0133043205930692062B00D055E72E
:103B2000049B1B79012B01D101F06EFB4B4EF82257
:103B3000049BD2001868452101233F279446814603
:103B40000A00C23A741C012A01D800F027FE2600A0
:103B5000E9543178002901D100F04FFF0133642B83
:103B6000EED134234846FF330EAA9B1800221A7068
:103B70000368DE685E4501D000F0B1FE9721304B4E
:103B80008900C318DA73099B40181A780023002AA9
:103B900000D1A1E5C254099AD2185278002A00D166
:103BA0009AE50133282BF5D196E54C782000B843EF
:103BB000802800D08FE648469B0103403C402343C9
:103BC0000231DBB288E6F222049912018A580B799D
:103BD000002A00D1C2E3012B01D101F014FC4323E0
:103BE00008681F4AC2E34C7857462600BE43802E21
:103BF00001D0FFF75CFB48469B0103403C40234358
:103C0000DBB20231AB540B78002B01D0FFF756FB2F
:103C100000230C9F0B98BA18137002686646D2688E
:103C20000A9C9146059AD94501D1FFF75CFB0093A8
:103C300000213B001201C847FFF766FBA4ED01100D
:103C40004406000008100000C0EE0110B800021089
:103C5000A00002100C100000C4ED0110F8ED0110DE
:103C600038E6011072781000B843802801D0FFF7C1
:103C700082FB6046890101403A4011430236C9B2D5
:103C8000FFF77AFB644648788246A043802801D03B
:103C9000FEF74CFE48469B010340544660460440F4
:103CA00023430231DBB2FEF742FE74786046220005
:103CB0008243802A01D0FEF781FE4A469B011340D1
:103CC000044023430236DBB2FEF779FE727810001F
:103CD000B843802801D0FEF7B3FE60468901014059
:103CE0003A4011430236C9B2FEF7ABFE4C7860464B
:103CF00027008743802F00D005E540469B01034005
:103D0000604604402343DBB20231AB540B78002BF6
:103D100000D0FEE4099B48469A18002313700268FD
:103D2000D6685E4500D103E5882200935200099BC6
:103D30000021B047049A1379012B00D00FE54823E6
:103D40001068E3490EE54C78604627008743802FD2
:103D500000D014E540469B010340604604402343E5
:103D6000DBB20231AB540B78002B00D00DE5099B80
:103D700048469A18002313700368DD685D4500D13A
:103D800012E50123982200935200099B0021A847C5
:103D9000049BD04A1E6833681B69934200D11FE51B
:103DA00030009847E8E01300203B5E2B01D900F07B
:103DB00036FD53009B18C84A9B009446C74A190019
:103DC0009046C74A1C009146C64A1D009246C64A04
:103DD0001F0093469B445A460692C44A9C4493460D
:103DE0009B445A460792C24A984493469B445A467B
:103DF0000892C04A994493469A449B4400237239DE
:103E0000FF39733C743D753F0591FF3CFF3DFF3F1B
:103E100004935A46B25C934659460EAA2132FF32A9
:103E20001154089AB25C934659460EAA4932FF32A1
:103E30001154079AB25C934659460EAA7132FF326A
:103E40001154069AB25C934659460EAA9932FF3233
:103E500011545246B25C924651460EAAC132FF320C
:103E600011544A46B25C914649460EAAE932FF32E5
:103E700011544246B25C8421904689000EAA521821
:103E8000414611546246B25C8E21944689000EAAC6
:103E90005218614611549821F75D89000EAA5218F4
:103EA0001754755D28310EAA52181554345D283107
:103EB0000EAA52181454B624059AA400B15C0EAA96
:103EC00012191154049A002A01D100F087FC28220B
:103ED0000021012B01D100F087FC022B01D100F061
:103EE00095FC032B01D100F088FC042B0AD1AC21F6
:103EF0000EAA890052180C33135428310EAA10331D
:103F0000521813540130282800D099E40D9C2378CE
:103F1000002B01D000F09CFC774B784A0292019371
:103F2000A022012309990093039100200B990F33DC
:103F3000520003F0C3F90B9B013410330B930A9B1F
:103F400028330A930F9BA34200D05CE41F00109B10
:103F5000C8229946119B0E9E1900C9239B00F01898
:103F6000920006F0F5FA3A004B4613CB13C203CB8E
:103F700003C20022624BF254E3239B009D44F0BC39
:103F8000BB46B246A946A046F0BDDC239B009B463B
:103F90005C4BDE2708935C4B5C4D07935C4B5D4CA0
:103FA000069301339A465C4BBF0099465B4B98469B
:103FB0005B4B9C465B4B059300230493033328E73C
:103FC0008023DB009B46584B81270893574B584D65
:103FD0000793584B584C0693584BFF009A46584B42
:103FE0009946584B9846584B9C46584B059300238E
:103FF000049303330DE78023DB009B464A4B812764
:1040000008934A4B4A4D07934A4B4B4C06934B4BF4
:10401000FF009A464A4B99464A4B98464A4B9C4663
:104020004A4B0593002304930233F2E6EE239B00F0
:104030009B46474BF0270893464B474D0793474B0A
:10404000474C069301339A46464BBF009946464B70
:104050009846464B9C46464B0593002304930333F6
:10406000D7E6C4239B009B46424BC6270893424B8E
:10407000424D0793424B434C069301339A46424BC1
:10408000BF009946414B9846414B9C46414B059396
:10409000002304930333BCE6C4239B009B46354BAB
:1040A000C6270893344B354D0793354B354C069353
:1040B00001339A46344BBF009946344B9846344BF3
:1040C0009C46344B0593002304930233A1E6C0467B
:1040D00014EE0110C50300108BFEFFFF8AFEFFFFE8
:1040E00089FEFFFF88FEFFFF87FEFFFF86FEFFFFC2
:1040F00085FEFFFF84FEFFFFD5EEE4001C291800BB
:104100006C060000710300007203000079030000D8
:10411000730300007A0300007503000076030000BB
:10412000770300007B03000001040000020400008C
:1041300009040000030400000A0400000404000055
:104140000504000006040000070400000B04000042
:10415000B9030000BA030000C1030000BB03000064
:10416000C2030000BD030000BE030000BF03000047
:10417000C303000011030000120300001903000034
:10418000130300001A0300001503000016030000CB
:10419000170300001B030000D0239B009B465C4BD1
:1041A000D22708935B4B5C4D07935C4B5C4C0693AA
:1041B00001339A465B4BBF0099465B4B98465B4B7D
:1041C0009C465B4B059300230493013321E6D023E7
:1041D0009B009B464E4BD22708934E4B4E4D079368
:1041E0004E4B4F4C069301339A464E4BBF009946B7
:1041F0004D4B98464D4B9C464D4B059300230493E5
:10420000023306E6D0239B009B46414BD2270893FE
:10421000404B414D0793414B414C069301339A4625
:10422000404BBF009946404B9846404B9C46404B04
:104230000593002304930333EBE5CA239B009B46BD
:104240003C4BCC2708933C4B3C4D07933C4B3D4C9F
:10425000069301339A463C4BBF0099463B4B984628
:104260003B4B9C463B4B0593002304930433D0E522
:10427000E0235B009B46C223FF330893013307937F
:10428000C423FF33069301339A46C623FF3399466E
:1042900001339846C823FF339C46CC23E427CA2524
:1042A000E524FF330593CB3BFF3B7F00FF356400E4
:1042B0000493AEE548784F460600BE43802E01D0F9
:1042C000FFF729F964469B01234038400343DBB2E2
:1042D0000231AB540B78002B01D0FFF723F9099B77
:1042E000069F9A18FFF725F9644648788246A0434E
:1042F000802801D0FEF790F94846920102405446CA
:104300006046044022430231D2B2FEF786F9C0462D
:104310004103000042030000490300004303000082
:104320004A03000045030000460300004703000065
:104330004B030000290300002A03000031030000A2
:104340002B030000320300002D0300002E030000A9
:104350002F03000033030000049B1B79012B01D1C4
:1043600000F0AEFF049BDE4A18685423F824E400F2
:1043700001213F27A14682461C00C23C561C012C4D
:1043800001D800F02CFE32006B541378002B01D1C1
:1043900000F084FE01316429EED134215046FF3112
:1043A0000EABC91800230B700268D6685E4501D0B9
:1043B00001F013F8CB4A8218D370099B7C301A782D
:1043C0000023002A08D0C254099AD2185278002A31
:1043D00002D00133282BF6D1049B1B790693012BC5
:1043E00001D100F052FE059B1989002901D101F08D
:1043F00054F8BD4B9A464B0801D101F04AF801260A
:10440000320033400A409B18880801D101F03BF884
:1044100002003240D218CF0801D101F031F8330048
:104420003B4008099B18041E8446059301D101F006
:1044300024F834401B194C09079401D101F019F8F4
:1044400034401B198C0901D101F00FF834401B19BD
:10445000CC0901D101F009F834401B190C0A01D133
:1044600001F003F834401B194C0A01D100F0FDFFA4
:1044700026409B198C0A0126002C01D100F001FE78
:1044800034401B19CC0A01D100F0FBFD34401B194C
:104490000C0B01D100F0F5FD34401B194C0B01D180
:1044A00000F0EFFD34401B198C0B01D100F0E9FD49
:1044B00034401B19CC0B01D100F0E3FD3E40013329
:1044C000B2180127384082186846808B002828D00F
:1044D00038401218880924D038401218C80920D052
:1044E00038401218080A1CD038401218480A18D050
:1044F00038401218880A14D038401218C80A10D050
:1045000038401218080B0CD038401218480B08D04D
:104510000740D2198E0B04D0012030408218C90BFD
:104520005218910089184900022A00D90A31F22252
:10453000049812018258002A01D100F0E8FD069A81
:10454000012A01D100F00AFF684A01920091524607
:104550008021404607F0AEFB049C424604212068BF
:10456000FCF7B6FA624B17AE1793624B736123796F
:10457000012B01D100F0C5FD5F486049604A614BE5
:104580003361F223F260049A1B01D2587060B1606B
:10459000002A01D000F0AFFD062130230691B0467D
:1045A00092009044F0220592EA3A14003932914682
:1045B000099A0026474692460498534A8258006852
:1045C000921B51424A41D2B29446002B01D100F0D5
:1045D000A5FDF8213A68C900884661460B92A446B9
:1045E0000122079108960B990A900B971C00C23C78
:1045F000481C012C01D800F002FD0100AB540B78DF
:10460000002B01D100F010FD0132642AEED13422DA
:10461000079B6446FF329C46089E0EAB0A980B9F90
:10462000D218002313700368DB6898465B4501D0FD
:1046300000F00AFD61462B4B0219D15453460599EF
:104640001A78043100234118002A09D05046CA5470
:10465000C2185278002A02D00133282BF7D18246A3
:10466000069B0136B34201D100F0FAFC059B0437EA
:10467000503305933B6802341B789DE7747860469D
:1046800021008143802901D0FEF70CF849469201B0
:104690000A40044022430236D2B2FEF704F8727890
:1046A0001000B843802801D0FEF742F86046890127
:1046B00001403A4011430236C9B2FEF73AF8727827
:1046C0001000B843802801D0FEF773F860468901D6
:1046D00001403A4011430236C9B2FEF76BF8C046BA
:1046E00060E601104406000088E60110A8E601100B
:1046F00080EE011088EE011018E7011028E7011084
:1047000034E7011048E70110140F00007278100020
:10471000B843802801D0FFF724F9604689010140A1
:104720003A4011430236C9B2FFF71CF95078574698
:104730000400BC43802C01D0FFF769F9F8249B01E9
:10474000E400234038400343DBB202326B54137859
:10475000002B01D0FFF762F960464446089E0A9F8D
:104760004944FFF766F9504651788C4681438029C9
:1047700001D0FFF799F99901F823DB00194063464E
:1047800003400B43DBB202322B551378002B01D0D0
:10479000FFF791F908984C44FFF795F972781000EB
:1047A000B843802801D0FFF7D2F960468901014063
:1047B0003A4011430236C9B2FFF7CAF972781000C5
:1047C000B843802801D0FEF77CF96046890101409A
:1047D0003A4011430236C9B2FEF774F9A02278219B
:1047E000012B01D0FFF779FB099C10236118A21857
:1047F00008240C541354FFF785FB099B59189A1889
:1048000010230B5418331354FFF77CFB099B5918E2
:104810009A1810230B54083B1354FFF773FB04231F
:104820009B46013308930133079301330693013309
:104830009A46013399460133984601339C46043326
:10484000059300230C270D250E240493FFF7E1FAAE
:10485000754B764AFFF762FB38009847FDF7C5FCB9
:104860004A2310687249FDF791FD1A0100914346F1
:104870000021A047FEF7A0FE9C01F823DB001C40AE
:1048800063463B4023430231DBB2FEF761FC079BEA
:104890001A68FFF7F9F80B00664AFFF7AAF8F22248
:1048A000049912018A580B79002A00D1DFE2012B0A
:1048B00001D100F0F1FC3C2308685F4EDDE24C784A
:1048C0002000B843802801D0FEF7F5F948469B0147
:1048D00003403C4023430231DBB2FEF7EDF9009286
:1048E0000021F022099BB047FEF7F6FE4C7820002D
:1048F000B843802801D0FEF773FA48469B01034075
:104900003C4023430231DBB2FEF76BFA72781000B1
:10491000B843802801D0FEF7FEFA604689010140C5
:104920003A4011430236C9B2FEF7F6FA7278100027
:10493000B843802801D0FEF72FFB60468901014073
:104940003A4011430236C9B2FEF727FB72781000D5
:10495000B843802801D0FEF760FB60468901014022
:104960003A4011430236C9B2FEF758FB099A48464D
:10497000D318FEF7DFFA099A4846D318FEF71BFB57
:10498000099A4846D318FEF757FB099B50469A18D8
:10499000FEF735FA099AFEF7C4FE099B50469A18AD
:1049A000FEF732FC099A4846D318FDF7D0FE099A63
:1049B0004846D318FDF70CFF099B50469A18FEF79E
:1049C0008BFB51460598FDF77AFE099AFDF7B8FC76
:1049D000CF2542AB1A0009930EABED18FDF767FC2B
:1049E0003A00FEF776FC099A4846D318FEF7D2FC47
:1049F000099A4846D318FEF7C3FF099A4846D318C8
:104A0000FFF7B4F80D49FDF76FFF099B05989A1859
:104A1000FDF79BFF009300214B463201C047FFF793
:104A20002AF80598FDF704FE1C2918009FD9BA0042
:104A300018E60110B0ED0110D8E8011040EB0110AC
:104A400034220EABFF320698D2180023137003688D
:104A5000DF685F4501D000F084FCCD4BC3189E7128
:104A6000099BF4301A780023002A08D0C254099A0E
:104A7000D2185278002A02D00133282BF6D1049B99
:104A80001B79012B00D117E3C24A049CC24B40465C
:104A9000E1180B008A46802107F00CF9BF4B206813
:104AA000E358013B5A425341DFB243461B78002B87
:104AB00001D100F07EFC3F2401224146A44605902E
:104AC0001C00C23C4E1C012C00D8CDE03100AB5480
:104AD0000B78002B00D152E10132642AF0D134224C
:104AE0000EABFF320598D218002313700368DE68FE
:104AF0005E4501D000F04DFCA54BC3185F72099BC9
:104B00006D301A78FF300023002A08D0C254099A69
:104B1000D2185278002A02D00133282BF6D1002374
:104B2000049A179313939E4BD35C002B00D1ADE0F6
:104B3000484613A9FBF754FF002800D0A8E0049BC7
:104B40001B79012B00D1B5E2964B80214046964A55
:104B500007F0B0F8049B186843461978002901D182
:104B600000F024FCF822D200012346463F27944659
:104B700081460A00C23A741C012A00D8C2E026000D
:104B8000E9543178002900D1D8E00133642BF0D109
:104B900034234846FF330EAA9B1800221A7003687C
:104BA000DE685E4501D000F0FBFB794BC3181A7339
:104BB000099BE5301A78FF300023002A08D0C25440
:104BC000099AD2185278002A02D00133282BF6D144
:104BD000049A1379012B00D168E242211068734EC8
:104BE000F822D20001233F27944681460A00C23AA8
:104BF000741C012A00D893E02600E954317800297A
:104C000000D1C0E00133642BF0D134234846FF3398
:104C10000EAA9B1800221A700368DE685E4500D059
:104C200015E38D215A4B8900C3189A73099B4018CC
:104C30001A780023002A08D0C254099AD218527850
:104C4000002A02D00133282BF6D1F2220499120156
:104C50008A580B79002A00D1AEE0012B00D1F2E294
:104C600045230868524EADE0644648780690A0435C
:104C7000802800D02AE7F8209B01C000034060464E
:104C8000069C023104402343DBB220E7013B13932F
:104C9000414B049AD35C002B00D19CE1504617A9EC
:104CA000FBF79EFE002800D149E7049B13991B796E
:104CB000002900DA45E7179A002A00DA41E7521A7C
:104CC000D11756184E40012B00D175E3394FD2430E
:104CD000D3171A000123FA219A432C339946300046
:104CE0008900914404F04EFD0191FA2130008900C1
:104CF00004F048FD4B4600903A008021404606F003
:104D0000D9FF27E772781000B843802800D036E733
:104D10006046890101403A4011430236C9B22FE78B
:104D200072781000B843802800D065E7604689019A
:104D300001403A4011430236C9B25EE7099A48463B
:104D4000D3182AE7099B50469A18FDF733FF099AB2
:104D50004846D318FDF783FE099A4846D318FDF755
:104D6000BFFE099B524605985918FDF737FE099B6F
:104D70009E19FEF774FC099B06989A1865E6099B34
:104D800005989A18B0E6099A4846D31842E7C046F3
:104D90004406000038EA01109A0F00001C0F0000C2
:104DA000920F000088EA0110ACEE0110B0EA011089
:104DB000A8E9011060EA0110012B00D13FE2552360
:104DC0000868E84E3F229446F822D2000127904618
:104DD0001A00C23A711C012A00D8EAE00E00EB5515
:104DE0003378002B00D112E20137642FF0D1342741
:104DF0000EABFF37FF1800223A700368DE685E458D
:104E000000D06CE59721D84B8900C318DA73099B51
:104E100040181A780023002A01D1FEF75DFCC25425
:104E2000099AD2185278002A01D1FEF755FC0133B5
:104E3000282BF4D1FEF750FC099B50469A18FEF738
:104E40001FFB099A4846D318FDF7B5FB099B50464E
:104E50009A18FDF73FFF099B50469A18FEF74AFD46
:104E6000009300214B463A01A047FEF74DFE012B6F
:104E700000D1DDE145230868BC4E3F229446F8226C
:104E8000D200012790461A00C23A711C012A7ED92D
:104E90000E00EB553378002B00D104E10137642F6D
:104EA000F1D134270EABFF37FF1800223A700368A8
:104EB000DE685E4500D09EE2A121AB4B8900C3189D
:104EC0001A74099B40181A780023002A01D1FEF7B2
:104ED00003FCC254099AD2185278002A01D1FEF775
:104EE000FBFB0133282BF4D1FEF7F6FB5046FDF710
:104EF000CBFC012B00D198E10B009D4EF8221868E5
:104F0000D200012345213F27944681460A00C23A38
:104F1000741C012A2ED92600E9543178002900D1C9
:104F200078E10133642BF1D134234846FF330EAAD4
:104F30009B1800221A700368DE685E4500D06DE1A0
:104F40008D21894B8900C3189A73099B40181A78E0
:104F50000023002A01D1FEF7BFFBC254099AD218E0
:104F60005278002A01D1FEF7B7FB0133282BF4D188
:104F7000FEF7B2FB72781000B8438028CBD16046B0
:104F8000890101403A4011430236C9B2C4E7727840
:104F90001400914662469443802C00D078E7424644
:104FA0009B0113404946624611400B430236DBB277
:104FB0006FE772781400914662469443802C00D0CB
:104FC0000CE742469B0113404946624611400B43A1
:104FD0000236DBB203E7013B17931379B1E554784E
:104FE0002000B843802801D0FFF7CDF948469B0147
:104FF00003403C4023430232DBB2FFF7C5F94E7851
:105000004F463400BC43802C01D0FFF7F6FA4046EF
:105010009B0103403E403343DBB20231AB540B787B
:10502000002B01D0FFF7F0FA079B64469C46002353
:105030000A98524413700368089EDB680B9F9846D9
:105040005B4501D1FFF7F6FA634600210093220188
:105050005346C047069B0136B34201D0FFF706FB1B
:10506000049B1B79012B0AD0424A049B1221186829
:10507000FBF72EFDFEF730FB3F4AFDF7BCFD3F4A34
:10508000F3E73E40B218FFF71CFA059B1989002987
:1050900000D147E13A4B9A46FFF7ADF9099B5046DC
:1050A0005918FFF77FF9099BDF19FEE656211068B2
:1050B000344E95E5344B48E5344AE6E45521106812
:1050C000334EFDF79DFF334EFDF756FF324BFDF794
:1050D00003FC324EFEF730F9314AFEF7F8FA314A56
:1050E000FEF7EAFA304AFEF7DCFA304EFDF798FC9C
:1050F0002F4EFDF74BFC0321312301220691FFF7D0
:105100004EFA2C482C492D4A2D4BFFF739FA069AB6
:10511000012A00D10EE12B4AFFF717FA5246FFF79A
:1051200080FA4A2310682849FEF7C9FB274AFEF790
:105130007CF9422310682649FEF74BF85323106888
:105140002449FDF7AFFF542310682349FDF717FDED
:10515000224EFDF712FA224AFDF7DDFD214AFDF746
:10516000DCFFC046F0EA01104406000044E90110EB
:105170001CE8011084E70110C0EC01105CE701108D
:1051800068E6011098EA01107CEA011028EA011093
:105190004CED011010ED011020EB011080E9011021
:1051A00038E80110F4E70110A8E7011064EB0110E2
:1051B0004CEB0110D0E60110E0E60110F0E6011022
:1051C00004E70110B0E6011090ED011088E801102D
:1051D0006CE90110E0E901109CEC0110E8EB011012
:1051E000E0EC011008EA0110099AFEF7A2F950213B
:1051F0001068B34EFDF7D0FAB24EFDF789FAC3211D
:105200001068B14EFDF750FCB04EFEF790FC099BC4
:10521000DF19F0E5099A4846D3188AE60092002182
:10522000E022099BB047FEF757FA0B00A84E65E64F
:1052300045230868A74E20E64C46FEF744FC482369
:105240000868A54EBEE545230868A44EBAE500925D
:105250000021E022099BB047F7E400919022002151
:10526000099BB047FDF74DFA60220021099B00968B
:10527000B847FDF7FEF900920021D022099BB04704
:10528000FDF781FA00920021D022099BB047FDF77B
:1052900002FC099AFDF7B3FD3C230868904EECE54B
:1052A000009360220021099BB047FDF72DFD099A6C
:1052B000FDF710FD0023FDF779FD099AFFF7C5FB07
:1052C000049B884A18684123FFF750F80092002198
:1052D0003022099BB047FDF788F900933022002166
:1052E000099BB047FEF7E6F8009330220021099BA6
:1052F000B047FEF719FB009200215022099BB047EE
:10530000FEF758FB099BFEF73BFB0123FDF7B9FCB9
:105310000023FDF7B6FC009330220021099BB04723
:10532000FDF78CFFF223049A1B01D358002B11D1F7
:105330006D4A92466D4AFFF708F9099EFEF78FF90C
:10534000099AFEF79DF860220021099B0096B84754
:10535000FDF715FB644A002100239246644AFFF7DB
:10536000F4F860220021099B0096B847FFF787FBFD
:1053700000920021D022099BB047FDF738FE009231
:105380000021A022099BB047FDF7EFFD099BFDF727
:10539000D1FD90220021099B0097B047FFF7BFFB8A
:1053A00000920021C022099BB04711E4099BFFF73E
:1053B000F4FB099AFFF798FB4E4F88E483001B1813
:1053C0005B00FDF78DFD0A23FDF78AFD0093802227
:1053D0000021099BB047FDF737FD009330220021E3
:1053E000099BB047FEF7F8FF009330220021099B8C
:1053F000B047FDF78BFE009280220021099B5200EE
:10540000B047FEF769F94A2308683B4AFEF7AEFF4A
:10541000009200213022099BB047FDF756FA012384
:10542000602200930021099BB047FEF733F90092F8
:1054300000219022099BB047FDF7EBFA099AFDF78E
:1054400084FA099BFDF7A6FF0B00244E56E5009257
:105450000021A022099BB047FDF7B7FF009330223F
:105460000021099BB047FDF7BFFB6046059AFFF797
:1054700028F80120059AFFF724F80132FFF751F8C8
:105480001300FFF74EF80132910089184900FFF729
:105490004EF801230A21FFF74AF8F223049A1B0170
:1054A000D358002B05D0154A00239246144AFFF723
:1054B0004CF8124A00219246124AFFF746F8C046BD
:1054C00058EC011018EC0110ACEB0110D4ED0110F8
:1054D000F4E7011018E90110C8EA0110C0E9011051
:1054E000F4E8011054E6011068E60110B8E6011076
:1054F000C4E6011048EA011044E6011088E60110F4
:10550000A8E60110B0E60110F0B5424C424BA544AC
:1055100004006B4418000021404A05F013F8256888
:105520002B685E693E4B9E4253D13E4BEB5C002B99
:105530003CD0002101A8FCF7F3FB3B4B01216B445D
:105540001800FCF7EDFB394A01AB9B5C032B2DD017
:10555000684635494018825C032A27D0012B48D081
:10556000012A43D1324BC3582F4A01206A4411000B
:10557000CE22D200A8502F4AAB502F4BCA582F4BE7
:105580000C316B441A60244B6B44180004F0E0FFAC
:105590008023694620485B010918C95803006B4401
:1055A0001800221DFCF73EF900280CD10122244BE3
:1055B000E2542379012B2BD0224B23486421234A28
:1055C000201806F077FB2000FCF7EAFD204B9D44F5
:1055D000F0BD8022194B104928006B4452016944E8
:1055E000B0470228E2D00128EDD1D1E71343EAD039
:1055F000DCE70F4E01AB00209B5901A9012AB7D16E
:105600006A46094FD21992599A42B1D91300ABE7B1
:10561000104BD2E7D4D2FFFF241D0000041000007D
:10562000DD1E00106D060000940E00008C0E0000C0
:10563000840E000074060000880E0000242D000077
:10564000240F0000F0EE0110A20F0000ACEE0110DC
:105650002C2D0000C8EE0110F0B54E464546DE4642
:105660005746F123E0B5BB4C1B01A544BA4C0600DC
:10567000E5581B280BD0B94B64220021E01804F038
:1056800061FF082D0FD8B64BAD005B599F46082D22
:1056900025D00022E250B34BE250B04B0021E0187D
:1056A000643204F04FFF2000FCF77AFDAE4B9D44BE
:1056B000F0BCBB46B246A946A046F0BDAB4BF318C2
:1056C000012B00D87DE13300313B012B03D90D2E96
:1056D000E9D1A44BE358A64AA354F1231B010722A6
:1056E000E25000229F4BD7E7A04BF318012B00D8C4
:1056F00067E13300313B012B00D8D7E10D2ED2D129
:10570000984BE3589A4AA55CA946002B00D0F1E1DA
:10571000F12308221B01E250904B0021E0185C327B
:1057200004F010FF8F4BE550BDE7F2231B01E55855
:10573000002D00D038E10D2E00D155E28D4BE01840
:1057400018F040FA082E00D114E27F2E00D111E2A9
:105750003300203B5E2BA6D85F28A4D8854B2018A9
:10576000C654854BC5549EE7F2231B01E358994666
:10577000002B00D018E10D2E01D100F005FD00DC5A
:105780005FE37F2E01D101F08EFA01DD00F05DFFB5
:1057900032002C3A0D2A00D985E7784BD340DB073D
:1057A00000D480E7764BE558764BED00E8182018DA
:1057B00018F008FA062800D975E7724B65192D18FC
:1057C000EE54714BED184B462B706CE70D2E00D04C
:1057D00069E7A08A002801D100F0F1FD410801D15C
:1057E00001F090FA0122130011400340C918830808
:1057F00001D101F097FA13405B18C10830D0114075
:105800005B1801092CD011405B18410928D01140C8
:105810005B18810924D011405B18C10920D00A40CF
:105820009B18010A1CD0012211405B18410A17D0B5
:1058300011405B18810A13D011405B18C10A0FD0C8
:1058400011405B18010B0BD011405B18410B07D0C6
:1058500011405B18810B03D00A40D218C30BD31838
:105860009A00D21852009146022B01D90A32914671
:1058700023692679013307D04B46DB43A268904663
:105880009A4201D800F0A5FD012E01D100F0EBFEF7
:105890003E4B90E00D2E00D005E7F12200231201CF
:1058A000A350304A0021A3502C4B6422E01804F08E
:1058B00049FEF8E60D2E00D13AE13300303B092BCA
:1058C00000D8E2E02D2E00D1DFE0082E02D07F2E9E
:1058D00000D0E8E62E4D280018F074F9002800D119
:1058E000E1E600232D18013D2B70DCE6294B052154
:1058F000E05883001B18DA1F042A01D80631C91AA0
:10590000254AB218012A66D9FA229200964200D19D
:1059100028E1224A964200D1A1E2F2221201A258C5
:10592000002A00D1DAE20D2E41D0313E082E00D9F6
:10593000B9E63CE01A4B9E425CD01A4B9E4200D026
:10594000B7E0F22200231201A350064AA350114AE5
:10595000A350A8E654C1FFFF10240020A20F0000AE
:1059600030000210140F0000AC3E000018FCFFFFD6
:10597000250F0000310F0000320F0000F53F00003E
:105980001C0F0000920F0000930F000004F10110A3
:1059900036330020180F000016FCFFFFE90300005B
:1059A000EA030000EB0300000D2E00D175E7237918
:1059B000012B0ED0744B6421744A754806F07AF9B5
:1059C00071E60123734AA1585B1AA3506BE6012FBD
:1059D000F0D1714BEFE7714B0321F618731E9E4116
:1059E0000136801903F0F6FE00226D4BE150694B41
:1059F000E25058E6F2226B491201A358615C8B42D7
:105A00006CD32379002901D100F027FE012B01D1AD
:105A100001F08EF9644B5E4D642128005B4A06F06C
:105A200049F9624BED18F2231B01EB589846002B05
:105A300001D001F024FA352E00DD34E6303EB046C8
:105A40005B4E04ABF61832005A4B23CB23C223CB58
:105A500023C243469B00F55800239846072D01D1E9
:105A600000F0A6FCF1231B01E5500023494E6422FF
:105A7000A351514B0021E01804F064FD082D00D023
:105A80003AE34E4BE35CA3510DE64D4D280018F070
:105A900099F8092800D906E64A4BED184A4B2D180B
:105AA000EE544A4BED1800232B70FCE5394AA35005
:105AB00028E6F2231B01E3589846002B00D18BE126
:105AC000FA239B009E4201D001F0D6F9314D03210B
:105AD0006059023003F07EFE6151E4E50133A350CA
