:020000041000EA
:1000000000B5324B212058609868022188439860DF
:10001000D860186158612E4B002199600221596106
:100020000121F02299502B49196001219960352056
:1000300000F044F80222904214D00621196600F024
:1000400034F8196E01211966002018661A6600F04E
:100050002CF8196E196E196E052000F02FF8012189
:100060000842F9D1002199601B49196000215960AB
:100070001A491B48016001219960EB211966A021F2
:10008000196600F012F800219960164914480160C1
:100090000121996001BC002800D000471248134993
:1000A000086003C880F30888084703B5996A0420EC
:1000B0000142FBD001200142F8D103BD02B5186610
:1000C0001866FFF7F2FF186E186E02BD00000240BE
:1000D000000000180000070000035F00212200005C
:1000E000F4000018222000A00001001008ED00E03C
:1000F00000000000000000000000000074B24E7A12
:1001000000000420F7010010CB010010CD01001009
:10011000C9010010C9010010C9010010C901001077
:10012000C9010010C9010010C9010010CF01001061
:10013000C9010010C9010010D1010010D301001045
:10014000C1010010C1010010C1010010C101001067
:10015000C1010010C1010010C1010010C101001057
:10016000C1010010C1010010C1010010C101001047
:10017000C1010010C1010010C1010010C101001037
:10018000C1010010C1010010C1010010C101001027
:10019000C1010010C1010010C1010010C101001017
:1001A000C1010010C1010010C1010010C101001007
:1001B000C1010010C1010010C1010010C1010010F7
:1001C000EFF30580103800BE00BE00BE00BE00BECA
:1001D00000BE00BEF2EB8871C89A0210E89A0210C5
:1001E0003802001090A31AE71E481F49086006C88D
:1001F00081F3088810471D480068002801D019487D
:10020000F3E70DA40ECC002902D000F012F8F9E7B4
:100210001749184A002000E001C19142FCD116495B
:100220008847164988471649884700BEFDE701C937
:1002300001C29A42FBD37047E89A0210C000002026
:100240004064002068FE021000000420000004202A
:1002500068FE0210000003200000032000000000E0
:10026000704700000000000008ED00E0000000D032
:10027000406400201480002035F1001011A200100D
:100280002DF10010F8B5C0460448054B10B5834267
:1002900003D0044B002B00D0984710BD40640020D1
:1002A000406400200000000006480749091A8B102E
:1002B000C90FC91810B5491003D0044B002B00D04A
:1002C000984710BD406400204064002000000000FA
:1002D00010B5074C2378002B09D1FFF7D5FF054B4C
:1002E000002B02D0044800E000BF0123237010BDA2
:1002F000387B00200000000098160210054B10B556
:10030000002B03D00449054800E000BFFFF7CCFFF5
:1003100010BDC046000000003C7B00209816021073
:10032000F0B54746CE461F4B80B5C3589C461E4B82
:10033000C3581E001D4BC3581F0001292BD0022992
:1003400016D0002910D11A491A4A1B4B90469946DB
:100350000D00144C015114494250144A8350AC45CD
:1003600014D00122154BC254C0BCB946B046F0BDF2
:1003700013490C4C134A01510D000B49124B4250CA
:1003800090460A4A99468350AC45EAD14645E8D1A1
:100390004F45E6D1E8E70D490D4A0E4B9046994688
:1003A0000D00D6E7A0460000A4460000A8460000C5
:1003B000D2DDF40015152A007887D70094060000D6
:1003C000F5E9DC0032231500E3BD8E00D5EEE40034
:1003D0001C2918009FD9BA0030B59C466B461C7B7F
:1003E0000F230500D01703409B181B11132B1FD898
:1003F000A320CA1D400082421AD80E48EA1814549D
:1004000062461078002813D00722CC1722405118DA
:100410009A00D318DB000433EA186346C9105B1A4C
:1004200001335054585C002802D001312829F8D1FA
:1004300030BDC046440600009C460F2370B5040042
:10044000D01703409B181B11132B1FD8A320CA1DC4
:10045000400082421AD801250D48E2181554624620
:100460001078002812D00722CE17324051189A0077
:10047000D318DB000433C910E2186B1A63445054DC
:10048000585C002802D001312829F8D170BDC0463F
:100490006C060000C0231A4A9B01116870B54B40DE
:1004A000E021C9010B40174984460B6080211020D0
:1004B00000250426144C4900266013680B42FCD02A
:1004C000536801381B041B0CED180028F4D10F4BA6
:1004D0002D096B430E4A934205D8012261460D4B0C
:1004E0000130CA5470BD0C4A934204D96246094B8C
:1004F000D0540020F6E76246064BD05CF2E7C046D7
:1005000000C0044000D0044000E00440AC260000DD
:100510006772D9009706000020E2DD007047C046F0
:100520007047C046C9239B0070B5C518041D06005E
:10053000A54207D020002822202128340DF0BEF942
:10054000A542F7D10A4BF0181433F318984203D0A0
:10055000142200210DF0B2F9064BF0181433F618EE
:10056000B04203D0142200210DF0A8F970BDC0469E
:10057000440600006C060000F0B5DE464E464546D7
:10058000574683462B23E0B5D64C5B44A5441493D1
:10059000D023DB005B4415930023D34DD34E13933C
:1005A000D34B5D44041D5E4412950D941093119637
:1005B0001694179518965A46CE4BD35C002B13D140
:1005C000C8230D989B002822C11820F06BFA002840
:1005D0000AD1129B1A781B7D9A4205D1119B1A7879
:1005E0001B7D9A4200D1F5E1A022002192001AA8B9
:1005F0000DF064F9C04B38AF1B68B8460F93119BE0
:1006000000221B787EAD0E932EAB9C464CAB07931D
:1006100056AB099360AB08936AAB069374AB9A46EA
:10062000634605935B46199342AB57469C4688AC9C
:1006300092A89CA90A940B950D9B9B5C994640330C
:10064000DBB23B2B03D8109C9B00E3589F464B46E4
:10065000203B5E2B00D90AE24B4600245B004B4452
:10066000A1469B007D3BFF3B0C940E9C002C75D15A
:100670000F9C059EE55CE31835705C7825004446C8
:1006800025709C78250064462570DC782500079C41
:1006900025701C792500099C25705C792500089C33
:1006A00025709C792500069C2570DC790B9D3C709B
:1006B0001C7A2C705C7A0A9D2C709C7A0470DB7A10
:1006C0000B700C9B002B00D1BFE00024A2464C46CF
:1006D0002823012C00D1BFE0022C00D0B1E11AACDC
:1006E000A244102425005446A5541AAC1B19082412
:1006F0009C54059B013201330593012398449C448B
:10070000079B013701330793099B0130013309939C
:10071000089B013101330893069B013306930B9B21
:1007200001330B930A9B01330A93272A84D1199B27
:100730009B46149B1A7813004033DBB23B2B00D945
:10074000DEE06E499B00CB589F46002480230C942A
:100750000334A1460E9CDB00002C89D00F9C059E23
:10076000E55CE318AA46357075782E00554635438A
:10077000059E75705C78A24644465546257064789F
:10078000250054462C432500444665709C78A246BB
:100790006446554625706478250054462C43250050
:1007A00064466570DC78A2465546079C25706578DE
:1007B0002E005546354365701C79A2465546099C66
:1007C000257065782E005546354365705C79A246E4
:1007D0005546089C257065782E0055463543657052
:1007E0009C79A2465546069C257065782E00554694
:1007F00035436570DC790B9EA2463C707C78250001
:1008000054462C437C701C7AA246347074782500C0
:1008100054462C4374705C7A0A9EA24634707478F5
:10082000250054462C4374709C7AA2460470447888
:10083000250054462C434470DB7A4C780B702343DC
:100840004B700C9B002B00D03FE77824A2464C460F
:10085000A023012C00D03FE71AACA24408242500B5
:100860005446A5541AAC1B1910249C5441E700248B
:10087000D0230C940134A1469B00F6E6D02300243B
:100880000C940234A1469B00EFE60024CA230C948A
:100890000434A1469B00E8E6C42300240C940334EE
:1008A000A1469B00E1E6C423E9E7C82301240C9498
:1008B0000134A1465B00D8E6002480230C94023466
:1008C000A146DB00D1E6EE23E7E7DC23E5E7D02312
:1008D000E3E70124E023A1465B000C94C5E6E02396
:1008E000E4E7C04614FDFFFF440600006C0600006C
:1008F0009816021094060000145E0020881702105B
:100900001300203B5E2B00D900E153009B1800210F
:1009100000229B007D3BFF3B77200F9E16AFF45CCF
:1009200010373C54F3185C7828303C549C782830BD
:100930003C54DC7828303C5418201C79FF303C545F
:1009400040205C79FF303C5468209C79FF303C5457
:100950009020DC79FF303C54B8201C7AFF303C54A6
:10096000E0205C7AFF303C549C7A83483C54DB7A2C
:10097000824816AC10342354002900D182E0282389
:100980000021012A00D182E0022A00D08AE01AAABE
:1009900094461022614427310A70082263442733A9
:1009A0001A70129B0E9A1B78002A65D0002B00D17A
:1009B0009BE0734B5946734A8A5802920193A022D6
:1009C00001231AA903910093002013990F335200B9
:1009D00009F01EFE129B159A01331293139B1033DC
:1009E0001393149B283314930D9B28330D93119B61
:1009F00001331193934200D0DDE5C920C822800065
:100A00001699920058449A46179D189E0CF05CFF68
:100A1000CB23DB005B4407CD07C306CD06C353469B
:100A200007CE07C306CE06C300225946564BCA540A
:100A3000BB239B009D44F0BCBB46B246A946A046E2
:100A4000F0BD032C0AD11AACA24410242500544650
:100A5000A5541AAC1B1928249C544AE64B46042C76
:100A600000D046E60C33037010330B7041E60024CF
:100A70000423A1460C94F8E5002B2FD05A46434B93
:100A8000D35897E7A0237821012A00D07CE71AAA3F
:100A900094460822614427310A70102263442733A8
:100AA0001A707EE7032A0AD11AAA944610226144DA
:100AB00027310A702822634427331A7071E7042A09
:100AC00000D06EE710212C4B16A840180C32C254EF
:100AD0002A4B16A810324118CA5462E75A462C4BCA
:100AE000D3585946294A8A5867E7254BF9E7C8235E
:100AF000012102225B000FE7C423002103229B0097
:100B00000AE7C423002102229B0005E704230021F9
:100B1000002201E7802300210322DB00FCE6802382
:100B200000210222DB00F7E6EE23002103229B00D6
:100B3000F2E6DC23002103229B00EDE6D023002116
:100B400003229B00E8E6D023002101229B00E3E67C
:100B5000D023002102229B00DEE6CA2300210422CA
:100B60009B00D9E6E023012101225B00D4E6E023CB
:100B7000012102225B00CFE6070200002F020000E5
:100B80005252F000A846000094060000A44600005F
:100B9000A046000010B5040002490CF09BFE2000A6
:100BA00010BDC046AC460000F0B5C64600B50278A0
:100BB0000E00303AD1B20300092932D8451C4078E2
:100BC00001003039CCB2092C18D8900082189878DE
:100BD00052008A1801003039CCB29F1C092C0BD866
:100BE000D878844630204042604404000020092C1C
:100BF0003FD880BCB846F0BD2B003D000221040068
:100C00008C432C2C0FD000280BD100235001801ACC
:100C100080008018C000C0183060431E9841C0B2E8
:100C2000E7E70020E5E768783038C1B20929F8D84D
:100C3000D9788C463039092928D88100091849000B
:100C4000614430390C00302149428C461879844483
:100C50006146C9B2092914D85B79002019003039DE
:100C60000929C6D9002BC4D1A3001B195B0063441A
:100C7000CCE7900082185200DD1C60463B008A18C9
:100C8000BCE70028CDD10A236343BFE76346002BAE
:100C9000C7D164234343B9E770B50400002906D1E6
:100CA000002B0AD1036042608360200070BD062BD8
:100CB00032D86E499A008A589746012B10D0022BE1
:100CC0004FD00C2B52D80A21023B01604260836056
:100CD000EBE7032202600022023B42608360E4E70C
:100CE0000433036042608160DFE704230360002374
:100CF00043608360D9E70023036043608360D4E7E7
:100D000001230360002343608360CEE70223036076
:100D1000002343608360C8E7073B1A0001294AD0DB
:100D200002292ED01D00542B5BD8112118000BF086
:100D30000DFF1121060028000BF008FF00294AD002
:100D40004B1E012978D0012B00D183E00321022B17
:100D50002BD0591A002968D1092366602360A1604D
:100D6000A3E707330360426081609EE70D2B17D035
:100D70000E2B49D00F2B4ED00E23426003608160B2
:100D800093E719004F2B44D81E090F231A400B423A
:100D900021D0531E012A4FD0012B5BD00221D8E76E
:100DA000093B0360426081607FE7063323600023D4
:100DB0006660A36079E71D00452B23D80D3118002C
:100DC0000BF0C4FE0E21060028000BF0BFFE002928
:100DD00001D00139BEE70523236000236660A360CC
:100DE00063E755231100D21A994204D12200204B07
:100DF00023CB23C259E7012A12D022001D4B23CB5B
:100E000023C252E74623EDE7033B03604260816063
:100E10004BE75023E6E7023B03604260816044E712
:100E20002200154B23CB23C23FE70A290AD80A2305
:100E300066602360A16038E70623236000236660B4
:100E4000A36032E70B290BD00B23236000236660DD
:100E5000A3602AE70723236000236660A36024E7DA
:100E60000423236000236660A3601EE77818021045
:100E7000787002109070021084700210F0B5D6469F
:100E800046464F46C0B58846117884469A461000BB
:100E90009CB0002964D00B2401223F2703AD6C4491
:100EA00008E00B0041783000A354002912D0013231
:100EB000642A30D00B00C23B461C012BF1D843788A
:100EC0009946BB43802B1CD00B0049463000A354ED
:100ED0000029ECD10023AA18137063461B68DC6854
:100EE000214B9C4221D043461A01534600210093D6
:100EF00060462B00A0471CB0E0BCBA46B146A846ED
:100F0000F0BDF8238E01DB001E404B463B4081784C
:100F100033430230C8E70B326A4400231370634640
:100F20001B68DC68104B9C42DDD14346132BE2D892
:100F3000634651460D4A434499542B78002BDAD02E
:100F40004246910000224144C900043161448B545F
:100F5000AB185B78002BCED00132282AF7D1CAE734
:100F600003AD2A00D9E7C046D903001044060000AB
:100F7000F0B5CE46474680B51378894684461100C1
:100F80009DB0002B60D00B2701223F2603AD6F449C
:100F900008E018004B782100B854002B12D0013221
:100FA000642A2ED01800C2384C1C0128F1D8487889
:100FB0008046B04380281AD0180043462100B85418
:100FC000002BECD10023AA18137062461268D46873
:100FD0001F4A94421FD04A46009300212B006046CE
:100FE0001201A0471DB0C0BCB946B046F0BD9C017F
:100FF000F8234046DB001C4030408B782043023110
:10100000CAE70B326A440023137062461268D46840
:101010000F4A9442DFD148461328E3D802000D4915
:101020002C7862445354002CDCD0002283001B181F
:10103000DB0004336344A9189C544C78002CD1D0B5
:101040000132282AF7D1CDE703AD2A00DBE7C046FD
:10105000D903001044060000F0B54646D6464F4678
:10106000C0B5A54CA54BA544C45C80460D00002C22
:1010700000D101E10B889C46A14B6344632B00D94E
:10108000FAE08A78531E91460B2B00D9F4E0CB7816
:101090009A46002B00D1EFE09A4BCAAE83CB83C6B1
:1010A000022A00D110E14B46CAAA9B18013B1F78C7
:1010B000574500D2E0E0944814F01AFA0823984308
:1010C000C0B2002800D0D7E0904814F011FA0823ED
:1010D0009843C0B2002800D0CEE01022002108A81A
:1010E0000CF0ECFB102200210CA80CF0E7FB2821EF
:1010F0002B88874A18A80DF099FFE9782B88019171
:10110000A978844A009104A810210DF08FFF0122D4
:1011100018A932A813F072F8002842D18023369A19
:10112000CA9091461600DB019A4200D3A4E0D42075
:101130004146C0000918CAAB32A813F035FC00289C
:1011400000D099E0CA9B4B4500D095E032A814F03E
:1011500023F8002800D08FE00A2E28D9424667499C
:101160006D487318D3189A466C4B10189B1A984602
:1011700006E00378471C0A2B06D03800574516D0E6
:1011800043461B18002BF4D10600471C0A2204A971
:1011900001301FF087FC0028EFD1F37A2C2BECD123
:1011A0006BE00438C0B2012866D800239946EC6889
:1011B000002C11DBFA21200089000BF09FFCFA21A2
:1011C0000600890020000BF099FC33000091544A7E
:1011D000102108A80DF02AFF2C69002C11DBFA2140
:1011E000200089000BF08AFCFA210600890020000B
:1011F0000BF084FC33000091494A10210CA80DF03B
:1012000015FF0CAB019308AB4021464A009322A87E
:1012100004AB0DF00BFF444B10AA62CB62C262CB51
:1012200062C2196801381160998891809B79937125
:101230003E2821D8322218A9CAA812F0DFFF0028C0
:101240001AD14B4603AD002B20D110A803931FF0F9
:1012500091FE03AD060002002B0010A9CAA813F0EE
:10126000D3FC002802D1039B9E420FD0CAA813F0E2
:101270003BFECAA813F090FF00242000B123DB003E
:101280009D44E0BCBA46B146A846F0BD002322A862
:1012900003931FF06FFE2B000400020022A9CAA8CE
:1012A00013F0B2FC0028E1D1039B9C42DED1CAA816
:1012B00013F01AFE0400CAA813F06EFF0443E4B250
:1012C00063425C41E4B2D8E76646B30700D0EAE681
:1012D000642130000BF03AFC89B21D27002900D0B0
:1012E000E6E691313000FF310BF030FC89B2002985
:1012F00000D1DDE6D7E6C04678FAFFFF950600008C
:1013000030F8FFFFEC180210941802109C1802101D
:10131000AC180210C41802109F06000061F9FFFF0C
:10132000D4180210E0180210FC180210F0B5C646DE
:1013300000B51C4B84B286B0E31801900020632BEB
:1013400018D86B469A79531E17000B2B12D86B4690
:10135000DB799846002B0DD0134B03AD43CB43C52F
:10136000022A0BD003AABB18013B1D78002042467D
:101370009542404106B080BCB846F0BDA307F1D10C
:10138000642120000BF0E2FB89B21D250029EDD17C
:1013900091312000FF310BF0D9FB89B20029E5D053
:1013A000E0E7C04630F8FFFFEC180210F0B5CE467B
:1013B000474680B505885C4B0400EB1885B0632B6D
:1013C00003D88078431E0B2B05D9002005B0C0BC84
:1013D000B946B046F0BDE3789846002BF5D0534BA4
:1013E0009946494601ABC4C9C4C3022858D001ABD1
:1013F0001B18013B1B784345E7D34D4B9D421DD045
:1014000043464A460133DBB2E37001A99C46984645
:10141000C8CAC8C102285ED001AA1218013A1278BF
:10142000944509D901230130C0B2E3700D281BD1C6
:1014300001230135A37025800120C7E70C281ED0A9
:1014400041464A460131C9B2E17001AB8846E0CA63
:10145000E0C302280BD001AB1B18013B1B788B4269
:10146000EAD201230130E370A0700120AEE74346C9
:101470001C2BE1D90423FF3301206380A6E74346F8
:101480001F2BA2D04A460133DBB2E37001A9C1CAC7
:10149000C1C16A46D27B9A42CED20123E370C7E72C
:1014A000AB072ED1642128000BF050FB89B2002934
:1014B00031D1C821280049000BF048FB89B200292E
:1014C00029D06B465B79984500D97EE743460133C6
:1014D000E370DBB29846AB07C9D1642128000BF05A
:1014E00035FB89B2002907D191312800FF310BF07B
:1014F0002DFB89B20029BAD143461D2BBAD8012051
:1015000064E76B465B79984500D95EE7084B9D42DE
:1015100000D075E794E743461D2B00D955E701330A
:10152000E370DBB29846D8E730F8FFFFEC18021002
:1015300033080000F0B5DE46454657464E46E0B556
:10154000C34C0D00A5440493F0AB1B7803929B465B
:10155000C04BC35C002B04D00868FFF7E7FE0028EF
:101560000AD100242000E7239B009D44F0BCBB4629
:10157000B246A946A046F0BDB74813F0B9FF08240B
:10158000A043C0B20028ECD1B44813F0B1FFA0438F
:10159000C0B20028E5D1EA782B880192AA780D2103
:1015A00000920EA8AE4A0DF041FD0CAF2B6838003A
:1015B0000C93FFF7FBFE041E0790D2D0FA783B880D
:1015C0000192BA780D21009212A8A54A0DF02EFDC5
:1015D000E9782B880191A978A24A009116A84021A8
:1015E0000DF024FD0A2216A94EA812F007FE0028CD
:1015F000B7D15D2226909C4926AB4EA813F004FB80
:101600009A4A071E03D1269B5D2B00D140E112AB05
:1016100001930EABA021009326A80DF007FD002634
:101620000027934BB8469A46924B079A9946924B9D
:101630000994089306950EE0002E59D10022002649
:101640005146043143468A4649460133043198469F
:101650008946102B59D04146069B1B89CB40DB079E
:10166000EED5002AE8D0002EE8D05B46002B3CD116
:1016700053461E680BAC0322002120000CF01EF91B
:10168000327800250DAB002A21D005935C2A21D0A9
:101690003B2A1FD02C2A1DD00A2A20D02270657028
:1016A00020000D951FF066FC210007000200059B3D
:1016B0004EA813F0A9FA002802D10D9B9F4202D038
:1016C00000260022BCE772780136002ADED1002213
:1016D000079EB5E75C2362702370A570E0E7089A67
:1016E000138823809378A370DAE74B461E68C1E71E
:1016F0000D9262490DAB02324EA813F085FA002814
:101700009CD10D9B022B99D1AFE7099C069D002A25
:1017100045D0002E00D02BE2594A039BA021009314
:1017200026A8049B0DF082FCEF68002F75DB5B465A
:10173000002B00D018E1FA21524E380089000396A0
:101740000BF0DCF90191FA21380089000BF0D6F991
:1017500032000090A0214C4B26A80DF067FC2F69A9
:10176000002F12DB494CFA21380089000BF0C6F932
:101770000191FA21380089000BF0C0F92300009094
:10178000A021039A26A80DF051FC4EA813F0ACFB43
:101790004EA813F001FD16A813F03CFDE1E6039BF3
:1017A000A0210093364A049B26A80DF03FFC002E92
:1017B000BAD00DAB9846002326A80D931FF0DAFB94
:1017C00043460200070026A94EA813F01DFAEE6852
:1017D000002803D10D9B9F4200D1F0E0002E1CDBBE
:1017E0005B46002B00D090E2FA21264F30008900A2
:1017F00003970BF083F90191FA21300089000BF077
:101800007DF93A000090A0211F4B26A80DF00EFC98
:101810002F691E4C002FA6DAB7E72F69002FB4DB23
:101820005B46002B00D049E2FA21380089000BF01A
:1018300065F90191FA21380089000BF05FF9A021C8
:101840000090124B0F4A26A80DF0F0FB9DE7C04612
:1018500064FCFFFF95060000941802105C1902104A
:101860006C1902107C190210AC1902100C1A02102B
:10187000F86F021038700210041B02107C1A02105C
:10188000881A0210D01A0210F41A02104C19021011
:1018900012AB01930EABA021009326A80DF0C6FB5E
:1018A00026A80D971FF066FB0DAB0700020026A9C6
:1018B0004EA8984613F0A8F9002800D0AFE60D9B7B
:1018C0009F4200D0ABE6002323220D93C549434637
:1018D0004EA813F099F9002800D0A0E60D9B232B09
:1018E00000D09CE65B46C04E002B00D1BF4E0BAF34
:1018F0000322002138000BF0E1FFA9464123250017
:101900005C2B25D03B2B23D02C2B21D00A2B25D090
:101910003B7000237B70002338000D931FF02AFBDF
:1019200043460400020039004EA813F06DF9002868
:1019300002D10D9B9C4203D02C0000264D466FE641
:1019400073780136002BDBD12C00079E4D4667E6ED
:101950005C227B7000233A70BB70DCE7A44B1A88D2
:101960003A809B78BB70D6E7FA21A24E38008900F6
:1019700003960BF0C3F80191FA21380089000BF0AF
:10198000BDF832009C4B0090A02126A80DF04EFB24
:101990002F69002F00DAF8E6FA21380089000BF0F1
:1019A000ADF80191FA21380089000BF0A7F8A021C9
:1019B0000090924B039A26A80DF038FBE5E6002E26
:1019C00000DA6CE18E490D90434602224EA889460A
:1019D00013F01AF9EF68002800D0A8E60D9B022B3F
:1019E00000D0A4E65B46002B00D06BE1FA21814BCE
:1019F0003800890003930BF081F80191FA21380037
:101A000089000BF07BF8A02100907E4B039A26A85A
:101A10000DF00CFB0BAF0322002138000BF04EFF42
:101A200008AB78331B78002B2FD0A24626AE5C2B58
:101A300000D18BE03B2B00D188E02C2B00D185E03E
:101A40000A2B00D18EE03B7000237B70002338000E
:101A50000D931FF08FFA43460400020039004EA890
:101A600013F0D2F8002802D10D9B9C4208D02F69B8
:101A7000002F00DA89E65B46002B00D172E68BE787
:101A800073780136002BD2D154462B69002B00DA33
:101A900089E0002302220D93494643464EA813F0E5
:101AA000B3F82F690028E6D10D9B022BE3D1FA2170
:101AB000380089000BF022F80E00FA213800890066
:101AC0000BF01CF85B46002B00D110E10090A02128
:101AD0004A4B039A019626A80DF0A8FA0BAF0322F1
:101AE000002138000BF0EAFE08AB78331B78002B9E
:101AF00059D0AA46A146454626AE1FE03B2B1FD033
:101B00002C2B1DD00A2B27D03B7000237B70002389
:101B100038000D931FF02EFA2B000400020039004C
:101B20004EA813F071F8002800D02EE60D9B9C42C1
:101B300000D02AE673780136002B32D05C2BDDD141
:101B40005C227B7000233A70BB70E0E75C227B7004
:101B500000233A70BB7079E7254B1A883A809B784E
:101B6000BB70D4E7224B1A883A809B78BB706DE734
:101B7000002304220D9324490DAB4EA8984613F080
:101B800043F8224A002800D0C7E50D9B042B00D063
:101B9000C3E5039BA021009326A8049B0DF046FA01
:101BA00009E64C4655462B7D002B5CD000230822CD
:101BB0000D93174943464EA813F026F8002800D08D
:101BC000E3E50D9B082B00D0DFE50BAF03220021DE
:101BD00038000BF073FE2B7D002B44D0A14614354A
:101BE000444637E0581A02102C1902101C19021032
:101BF000041B0210D01A0210E41A02103C19021041
:101C0000A01A0210F41A0210801A0210881A021088
:101C1000A41A02103B2B1FD02C2B1DD00A2B47D00F
:101C20003B7000237B70002338000D931FF0A2F956
:101C300023000600020039004EA812F0E5FF00283C
:101C400000D0A2E50D9B9E4200D09EE56B78013549
:101C5000002B07D05C2BDDD15C227B7000233A7017
:101C6000BB70E0E74C4600231D220D932F494346ED
:101C70004EA812F0C9FF002800D086E50D9B1D2B51
:101C800000D082E54EA813F02FF905004EA813F0FE
:101C900083FA2843C0B2002800D163E47BE52B69B6
:101CA000002B00DA7FE7224B9946224B0393F0E6A4
:101CB000214B1A883A809B78BB70B4E71D4B1F4CB0
:101CC000039350E5FA211B4B3800890003930AF077
:101CD00015FF0191FA21380089000AF00FFFA021B9
:101CE0000090174B039A26A80DF0A0F992E6FA216E
:101CF0003800890001960AF001FFA0210090114BE5
:101D0000039A26A80DF092F9E8E6FA21094F30006F
:101D1000890003970AF0F2FE0191FA213000890050
:101D20000AF0ECFE3A00064B00902DE6B01A0210C5
:101D3000A01A0210D01A0210041B02103C19021043
:101D4000E41A02104C19021070B504000D001FF0C7
:101D500011F9030000200A2B02D123792D2B00D08A
:101D600070BDE3792D2BFBD130225242944623786B
:101D70009C446346DBB2092BF2D861788918CBB258
:101D8000092BEDD8A278303AD3B2092BE8D8E37802
:101D9000303B1E00DBB2092BE2D86379303B092BC4
:101DA000DED8A379303B092BDAD8237A303B092BD4
:101DB00029D8637A303B092B25D8FA2360469B004B
:101DC0004343642041439B195B1891005218520011
:101DD0009B182B806379303B9A009B18A2795B009B
:101DE000303A9B18AB70237A303B9A009B18627A8A
:101DF0005B00303A9B18EB7068882B88000418430E
:101E0000FFF794FAACE70020AAE7C046F0B5C64653
:101E1000040000B50D007C4A002182B00BF04EFD9D
:101E20007A4BAA882360052323716B68E2801A0C21
:101E30001B0E6372764B2272EB5AAA8963812B8840
:101E40006282A3812B89E3816B892382EB681A0C60
:101E50001B0E63752B8A2275E3826B69002B01DAF6
:101E600001235B42A361AB69002B01DA01235B42D2
:101E7000C026E361202376012900A3512B001C31E9
:101E80007D33994206D02000612220300BF01CFDEA
:101E90008123A351C0235B01E7585D4B2E009C4674
:101EA0008036AC44E04666453DD03288E319E255C1
:101EB000120A5A70B2789A70F278DA707268110A5F
:101EC0001A715971110C120EDA71328999711A72E4
:101ED000120A5A72F268002A01DA01225242110AE9
:101EE0009A72D972110C120E5A7332691973002A40
:101EF00001DA01225242110A9A73D973110C120E9F
:101F000019745A74310033003800143175331230AB
:101F1000994200D174E0612220180BF0D5FC733790
:101F20007836B045C1D13B4BC022EB5C5201E35542
:101F3000394B7E1C9C46AC446346A650374A0193FD
:101F4000AD18654514D0019A701C1378511CA35527
:101F5000130020182233212201930BF0B5FC019BC2
:101F6000370022369D42EED1C0235B012137E65077
:101F7000002E47D0631CDF190123250001202849CA
:101F80005B422A78013553405A0803405B420B40BC
:101F90005A405308024052420A4053405A080340F4
:101FA0005B420B405A405308024052420A405340A1
:101FB0005A0803405B420B405A40530802405242C9
:101FC0000A4053405A0803405B420B405A405308B2
:101FD000024052420A405340BD42D2D1DB43A219D3
:101FE000190AA3555170190C1B0ED370C023200081
:101FF00004365B019170E65002B080BCB846F0BD7B
:1020000007008DE70023EAE7041800004C50533125
:10201000080F00000A0F00000B0F00003B12000029
:102020002083B8EDF0B5DE4657464E464546E0B54E
:10203000C14CC24BA54403920400994212D0C04B3C
:10204000CB18012B0ED9BF4BCB18012B0AD900237B
:1020500098464046BC4B9D44F0BCBB46B246A946A0
:10206000A046F0BD6318DA1E10781A1F127800021D
:1020700010439A1E1278013B1E781204012302437A
:10208000250001208C4636061643271FAF4A7F18CD
:102090005B422978013559404B08014049421140C3
:1020A0004B40590803405B42134059404B080140E4
:1020B000494211404B40590803405B42134059408C
:1020C0004B080140494211404B40590803405B42D4
:1020D000134059404B080140494211404B405908B8
:1020E00003405B4213404B40AF42D2D1DB436146D9
:1020F000B342ACD1A37862781B0412021343227856
:102100001343E27812061343914A93429FD16379B5
:1021100022791B0213430093012B00D1EEE0022B26
:1021200000D1F8E0032B00D0EEE08A4B994200D0BA
:102130008DE704AB994600211800874A0BF0BEFBDF
:1021400001234A465370854A4946249284228B5083
:10215000853A8B33CA500433CA500121804D8148DF
:1021600042AB814E04AF1D8058805960DA601A611D
:10217000F61978339E42F4D1237AE2791B041202D5
:102180001343A27949461343627A48461206134321
:102190004A465360744BA27ACA547449E37A435452
:1021A0000099012900D128E2217B012900D94EE7BD
:1021B00001700099032900D832E2617B022900D91D
:1021C00045E7002541701F210020994268411E23E8
:1021D000010000209342684103000B4098460E2600
:1021E000A2195378A15D1B020B4349460B819378DA
:1021F00004368B72D378CB72A3195978A25D090289
:1022000011439A78DD7812040A432D0615434A4695
:10221000D5605A79197912020A43494630000A8278
:10222000DA79997912020A43197A0A3009041143BA
:102230005A7A12060A43511C04D04D4F511EB9421E
:1022400000D9E9E149464A61D97A225C0902114381
:102250001A7B5B7B12040A4331001B0613430E31C9
:102260005A1C04D042485A1E824200D9EBE14A4629
:10227000611893610BA861220BF026FB6F239A462D
:102280004346B244002B0DD0002D51D07C234A464A
:10229000D35C002B4CD11389002B03D09068FFF73F
:1022A00045F880464A464B464946127F1C337D31ED
:1022B000002A0FD05E20454600260027203AD2B2E1
:1022C00090427E41013335408B4257D01A78002A24
:1022D000F2D1A8465A1C8A4251D0531C8B424ED090
:1022E00050780028F6D0931C8B4248D09278002A70
:1022F000F0D01A00531C8B42F2D140E0DF231B01C7
:10230000994200D0A3E614E7042B09D1194B994256
:1023100000D09CE60DE7184B994200D097E608E7FD
:10232000052B00D093E6054B994200D08FE600E7DD
:1023300000239846B6E7C046ACEDFFFFA3110000AE
:102340008FF1FFFF10F2FFFF541200002083B8ED61
:102350004C505331710E00003C120000EA07091185
:10236000EA07000009110000080F0000090F000033
:102370003E420F00720E0000F10D0000A8468023BF
:102380004B449B4623004E46444600279846F5366C
:102390005B461F805F80009B022B0FD9434655464A
:1023A00040465344DA7899785B78405D1B020343DA
:1023B0005846038004238170C2709A4443465344B4
:1023C0005A7899781202090450460A434146095C3A
:1023D000D8790A43D978000209060A4359464A6067
:1023E0005A79197912020A4359460A8151461A7AD2
:1023F0000A31120410439A7910435A7A12060243A2
:10240000501C04D0974D501EA84200D9F1E0584608
:10241000C260DA7A187B1202000402434046415C33
:102420005B7B0A4351461B0613430E315A1C04D0F2
:102430008C485A1E824200D9C7E05D465A46143580
:1024400013612800612241440BF03EFA6F2353448C
:10245000019353466E330293002C00D1C5E05B46D6
:102460005B68002B00D1C0E05B4674229B5C002BB4
:1024700000D0BAE05B46019A1B889246002B04D03C
:102480005B461868FEF752FF04002B785E22002B93
:102490007ED10135AE420BD02B78002B05D1013512
:1024A000AE4205D02B78002BF3D00135AE42F6D1E9
:1024B00078239B446C4B04AA9B1878365B4500D06C
:1024C00066E74346A0461C00009B052B56D14946B3
:1024D000019B0027E25C654B0234CA54002318219B
:1024E00091425B4142461A40029B614EE418614BA7
:1024F000A0464B449B46604B14004B449A464E44C6
:1025000043460021022000221B78350098424A41B0
:1025100014405A4613704346213D21222800591C7D
:102520000BF0D2F9002C04D053461C7863425C4176
:10253000E4B22B78002B39D10135B5420BD02B7882
:10254000002B05D10135AE4205D02B78002BF3D0FE
:102550000135AE42F6D14A46444BD35CBB4204D966
:102560005B465B785A1E93411C40222301379844F6
:102570009B4422369A44182FC2D1A0464346002BD2
:1025800000D164E549463D4A03980BF09DF960E5AA
:102590003900203BDBB29A42794101350C40AE4212
:1025A00086D02B78002B00D179E7F1E700220021BB
:1025B0005E20203BDBB298424A4101351440AE42D6
:1025C000C9D02B78002BBDD0F0E701235D465A46D9
:1025D0005B42143513612800612241440BF074F909
:1025E0006F2353440193013B0293019B00249A46BD
:1025F0004BE701220024524209E7002500201E314A
:10260000994268411E230100002093426841030063
:102610000B4098460C26EFE500229046013A11E661
:102620001E21002500209142684102000020013156
:1026300099426841030013409846009B0D26032BE6
:1026400000D1CDE5D8E501234A465B42936161188C
:1026500061220BA80BF038F96F239A460023B2448D
:1026600098461FE63E420F00080F00000A0F0000C8
:102670002D0F00000B0F00002C0F00003B1200007C
:10268000F0B5CE4647468E2280B5614C5201A54436
:102690008C00002105000BF011F95E4B0122E1587E
:1026A00002A811F0ABFD031FDBB20400012B04D91B
:1026B000002809D00322584BEA542800574B9D4468
:1026C000C0BCB946B046F0BD069A554B17009A42B9
:1026D0000BD054495318012B07D9534ABB18012B6F
:1026E00003D90023019098460AE000233A000193A1
:1026F000290001AB02A812F057F901230400984603
:1027000002A812F049FD0443E4B2002CD2D1012208
:102710000121464E464C4748D8AB6E4452421C807D
:1027200058805960DA601A6178339E42F7D1434687
:10273000002B02D0019BBB4203D00222364BEA544D
:10274000BBE73D4B2A689A42F7D13B00103B1A0089
:102750009946AB689A42F0D1391F681842786B5C91
:1027600012021A4383781B041343C27812061A43D9
:102770009446002948D001232E0001202C1F2F4908
:10278000E4195B42327801365A4053080240524203
:102790000A4053405A0803405B420B405A405308DA
:1027A000024052420A4053405A0803405B420B40E9
:1027B0005A405308024052420A4053405A080340CC
:1027C0005B420B405A405308024052420A40534079
:1027D0005A0803405B420B405340A642D2D1DB4330
:1027E0009C45AAD1280049469AAA0C30FFF71AFC4A
:1027F0000028A2D06A68124BEA504A46114BEA50B0
:102800000122054BEA5458E701235B42E7E7C04643
:1028100054EBFFFF786D0210BC110000AC140000F7
:10282000B31100007FF1FFFF00F2FFFF7011000005
:10283000EA070000091100004C5052312083B8ED26
:10284000B4110000B8110000F0B5C64600B59846B6
:102850002E4B2F4CC35CA5440F000400002B41D02D
:102860002C4B9A4237D900216846FFF709FF8E2387
:102870005B016B4418000121FFF702FF6B46264AFB
:102880009B5C032B27D08E206946400109188A5C87
:10289000032A20D0012B27D0012A19D18E216A4684
:1028A0001E4B49015218D3588E2252016A4401200E
:1028B0001100D322D200A050194A3800A350194B5E
:1028C000CA5843460C311A600AF0FEFF012003E0AB
:1028D0000020134300D003208E239B019D4480BC25
:1028E000B846F0BD0220F7E70C4B00209C466B4633
:1028F00061465B586946012ADBD18E266546760122
:102900008A1952599A42D4D91300CDE7950600008E
:1029100080DCFFFFA2110000BC110000B411000018
:102920009C060000B8110000F0B54646D6464F465A
:10293000C0B5684B684CC55CA544884604001600C9
:10294000002D06D0654BC35C002B02D1644B9A422C
:1029500008D000252800634B9D44E0BCBA46B14630
:10296000A846F0BD604FC3590133F2D05F4812F062
:10297000BFFDF7231842ECD1D323DB00E35800213D
:102980005A4253419BA8DBB2594A99460AF096FF36
:10299000584B9D229B93E359920001339C936B46C5
:1029A00041469E529EA832000AF08EFF524B0121F2
:1029B0006B449C460123514A9BA85B420678013038
:1029C0005E4073080E407642164073405E080B402E
:1029D0005B4213405E4073080E40764216407340DF
:1029E0005E080B405B4213405E4073080E40764227
:1029F000164073405E080B405B4213405E40730814
:102A00000E407642164073405E080B405B42134016
:102A100073406045D2D19B206946DB436E468000FF
:102A2000374A09188B54374A190A3618B1546E467A
:102A3000354A190C3618B154344A1B0EB3544A4661
:102A4000334B9200D15802A80A2211F0D7FB00287C
:102A500000D07EE7264E01AB32009BA9019002A870
:102A600012F0D2F8070002A812F03EFA804602A83F
:102A700012F092FB019B9A46B34227D13B0042469B
:102A800013431843C0B2002820D1A1235B016B443B
:102A900018004946FFF7F4FDA1206A461D4B40018E
:102AA0001218D35C012B11D103006B44524618005D
:102AB0009BA91DF0F7FF002808D1D3234A46DB006D
:102AC000E250094AA3580133A35043E70122034BC4
:102AD000E2543EE79506000020DAFFFF960600006C
:102AE000A3110000E02500009C06000094180210CD
:102AF000B31100004C5052311B1400002083B8ED7C
:102B0000AF110000B0110000B1110000B2110000BF
:102B1000786D0210BC110000F0B54646D6464F460F
:102B2000C0B58D4B8D4CC358A54488460400002B7E
:102B300000D0EFE08A4BC35C002B12D00379012B4D
:102B400000D1F7E0874B8849884A601864210CF06F
:102B50006DFA0020864B9D44E0BCBA46B146A846BB
:102B6000F0BD844B834D6B441800FFF74FF9C02232
:102B70006846216852010B68401986585B6A7E4A94
:102B80008946934200D0D7E07C4BCB5C002B00D130
:102B9000C9E07B4B0D00CB5C002B00D0C3E0794B30
:102BA0009E4200D0BFE0784FCB59013300D1BAE04C
:102BB000764812F09DFCF723184200D0B3E0D323EF
:102BC000DB00EB5800215A4253419AA8DBB2704A0D
:102BD0009A460AF073FE6F4B9C229A93EB5992002F
:102BE00001339B936B469E52624B32006B4419003B
:102BF0009DA80AF069FE01235B429C460121664ABA
:102C00009AA86546037801306B405D080B405B4233
:102C100013406B405D080B405B4213405D406B0806
:102C20000D406D4215405D406B080D406D421540F2
:102C30005D406B080D406D4215405D406B080D40D6
:102C40006D4215405D406B080D406D4215406B4074
:102C50005D080B405B4213405D40504BAC466B44FB
:102C60009842CED19A206946EB436D4680004C4A8B
:102C700009188B544B4A190A2D18A9546D464A4A13
:102C8000190C2D18A954494A1B0EAB545246484BF7
:102C90009200D15802A80A2211F0B0FA002842D1BD
:102CA0003B4A01AB9AA9019002A811F0ADFF0600C2
:102CB00002A812F019F9050002A812F06DFA019BA2
:102CC000334A1F0093422AD133002B431843C0B22A
:102CD000002824D1374B51466B441800FFF7D0FC35
:102CE0006A463449344B5218D35C012B17D1314B0F
:102CF0003A006B4418009AA91DF0D4FE00280ED1AA
:102D0000D32349465246DB00CA501F4A8B58013331
:102D10008B5018E00379012B0AD0284B13E70122CE
:102D20004946174BCA542379012B13D0244B0AE789
:102D3000244B08E7244B06E70E4932004846694415
:102D400098470028EFD04146204A201D0AF0BCFDDC
:102D50000120FFE61E4BF6E65012000020C2FFFFE6
:102D6000541200006C1B0210F4120000BC4202104E
:102D7000E03D0000DC250000292900109506000038
:102D800096060000A31100009C0600009418021093
:102D9000B31100004C5052312083B8ED17140000DD
:102DA000AF110000B0110000B1110000B21100001D
:102DB000786D02101C140000BC110000281B0210CA
:102DC000AC1B0210081B0210401B02103B1200003B
:102DD0008C1B0210F0B5DE464E4645465746E0B520
:102DE000D94BDA4CC55C06008B46A544002D00D1BA
:102DF0008EE0D74B0022C35CB4461C00D54BC718ED
:102E0000390000200B7801321B1B5E4273412231D6
:102E1000C018AA42F6D36646A4461824002814D047
:102E2000CD4B0024F15860463B0003E001342233CF
:102E3000AC4209D21A788242F8D1002905D0013477
:102E400001392233AC42F5D31824AC4260D22301BD
:102E50001B195B00F2189846BE4BD35C5B4500D152
:102E6000BFE1331D19000193982302A89B01BB4ABF
:102E700018180AF029FD9822434602A99201521817
:102E8000B7499B18C918222203A8894600930AF063
:102E90001BFD009BB34A611C9A1800248D4212D975
:102EA0002B00B846B2460D0016001F004B463119E4
:102EB0001819222201350AF007FD2234BD42F5D34C
:102EC0003D00564647466B465A461A739823013DC5
:102ED000280102AA40199B019B184000C018A04B72
:102EE0002222C01803A90AF0EFFC9F4BF458002CD3
:102EF00016D19E4BF35C002B1ED03379012B00D1F1
:102F000074E19B499B4B70189B4A64210CF08EF82E
:102F10009A4B9D44F0BCBB46B246A946A046F0BDC4
:102F20003379012B00D163E1954B9149924A701896
:102F300064210CF07BF8EBE7982302AA9B01991817
:102F4000904B9818FEF762FFC02233688D48984670
:102F500002A91B68520109188D585B6A8A4A93427C
:102F600000D04DE14246894BD35C002B00D133E1C8
:102F7000874BD35C002B00D02EE1864B9D4200D0C6
:102F80002AE1854BD358013300D125E1834812F063
:102F9000AFFAF723184200D01EE1D3234246DB00EC
:102FA000D35800215A425341DAB20092A5A87C4A74
:102FB0000AF084FC42467B4B02A9A593764BA8A855
:102FC000D358A5220133A693920002AB9D526D4BBC
:102FD0002A0059180AF078FCA44601240121724DF8
:102FE00002AB724AA5A8ED18644203780130634031
:102FF0005C080B405B42134063405C080B405B4243
:1030000013405C4063080C40644214405C40630819
:103010000C40644214405C4063080C40644214401D
:103020005C4063080C40644214405C4063080C4000
:103030006442144063405C080B405B4213405C40B8
:10304000A842D2D1A320E3438000594A02A909181B
:103050008B5402AD574A190A2D18A954564A02AD8D
:10306000190C2D18A954554A1B0EAB54009A544BF9
:103070009200D1580CA80A22644611F0BFF800282B
:1030800000D0A9E002AB464AA5A902900CA811F015
:10309000BBFD82460CA811F027FF81460CA812F058
:1030A0007BF8029D3E4B9D4200D091E04B4652463C
:1030B0001A4303001343DBB2002B00D088E0A223A5
:1030C00002AA5B0198180099FFF7DAFAA2213D4B9A
:1030D00002AA49015218D35C012B79D1A22302A87C
:1030E0005B012A00A5A918181DF0DCFC00286FD18F
:1030F000D32342460099DB00D15043464146264A3D
:103100009B5801338B50982302A99B0159182E4AD2
:1031100001980AF0D9FB58460D4BF0540A4BF15C6C
:10312000002977D000223B7801321B1A5D426B41A7
:103130002237E4189142F6D8013C074BF45033791A
:10314000012B59D0214BF0E60E0F0000B4AFFFFF6A
:103150005E1300000F0F0000441200003C1200003C
:103160000B0F00002D0F0000501200005412000041
:10317000F41200006C1B0210BC4202104C50000004
:10318000281B02103C380000292900109506000079
:1031900096060000A31100009C060000941802107F
:1031A000B31100004C5052313B1400002083B8EDA5
:1031B000AF110000B0110000B1110000B211000009
:1031C000786D0210BC1100003B120000201C0210A0
:1031D00001224146114BCA543379012B0AD0104BBE
:1031E000A3E63379012B09D00E4B9EE60E4B9CE6ED
:1031F0000E4B9AE60E4B98E60E4B96E60E4B94E677
:103200000E4902A809182A0040469847002800D015
:1032100079E7E1E7012464428FE7C04696060000A3
:10322000AC1B0210EC1B0210401B0210081B02100A
:103230008C1B02100C1C0210C81B02103C38000032
:10324000F0B55746DE464E464546E0B54E4C4F4B30
:10325000A5440191C75C8246002F00D18CE04C4B05
:103260000022C65C4B4B00245344984619000B784F
:1032700001329B1B584243412231E418BA42F6D333
:10328000012C79D906AB9B466022002118000AF078
:1032900015FB0025A4465C4642462800002303E0B7
:1032A00001332232BB4209D21178B142F8D1002851
:1032B00005D0013301382232BB42F5D31823013542
:1032C00008C46545E8D1992604ABB601F618534603
:1032D00004331900304A3000039364460AF0F4FACC
:1032E00052462E4BD3589846019B002B68D00122A2
:1032F000631E424491460293434500D136E3434660
:103300005A469B00D258264804ABC01813019B189C
:103310005B00244AF3189D1829002222070001901F
:103320000AF0D2FA4B465A469B00D35828001C019B
:10333000E41864001B4B3419E418222221000AF01F
:10334000C3FA2222390020000AF0BEFA5246164B78
:10335000D358002B00D0E9E1144BD35C002B00D1F3
:10336000FCE11379012B00D1CCE211486421114B0F
:10337000114A50440BF05AFE104B9D44F0BCBB4622
:10338000B246A946A046F0BD6CAFFFFF0E0F00008D
:103390005E1300000F0F00003C12000044120000FA
:1033A0007C3800000B0F0000501200005412000087
:1033B000F41200006C1B0210BC420210945000007A
:1033C0004346002B00D098E2069ADE4804ABC018B2
:1033D00013019B185B00DC4AF3189D182900222278
:1033E00001900AF071FA631E9946032C01D800F08F
:1033F000F7FC5B465A68280013019B18D24A5B0011
:103400009046F3189844222241460AF05DFA5B4642
:103410009A68404613019B185B00CB4AF3189D182D
:10342000290022220AF050FA4B46042B01D800F062
:10343000E5FC5B46DA68280013019B185B00C24A72
:10344000F3189F18390022220AF03EFA5B461A69E7
:10345000380013019B18BC4A5B009046F31898444F
:10346000222241460AF030FA4B46062B01D800F0E2
:10347000C1FC5B465A69404613019B185B00B24A87
:10348000F3189D18290022220AF01EFA5B469A6959
:10349000280013019B18AC4A5B009046F31898442F
:1034A000222241460AF010FA4B46082B01D800F0C0
:1034B0009DFC5B46DA69404613019B185B00A24AFB
:1034C000F3189D18290022220AF0FEF95B461A6AB9
:1034D000280013019B189C4A5B009046F3189844FF
:1034E000222241460AF0F0F94B460A2B01D800F09F
:1034F00079FC5B465A6A404613019B185B00924A6E
:10350000F3189D18290022220AF0DEF95B469A6A18
:10351000280013019B188C4A5B009046F3189844CE
:10352000222241460AF0D0F94B460C2B01D800F07C
:1035300079FC5B46DA6A404613019B185B00824ABD
:10354000F3189F18390022220AF0BEF95B461B6B64
:1035500022221D0198462B00434459007A4B7118D2
:10356000C91838000AF0B0F94B460E2B01D800F00C
:1035700055FC5B465A6B744B28009C464044E04621
:1035800013019B185B00F318400098443018222266
:10359000414660440AF098F95B469A6B4046130135
:1035A0009B185B00684AF3189D18290022220AF034
:1035B0008BF94B46102B01D800F02CFC5B46DA6BE4
:1035C000280013019B18604A5B009046F31898444A
:1035D000222241460AF078F95B461A6C40461301F4
:1035E0009B185B00584AF3189D18290022220AF004
:1035F0006BF94B46122B01D800F008FC5B465A6C65
:10360000280013019B18504A5B009046F318984419
:10361000222241460AF058F95B469A6C4046130153
:103620009B185B00484AF3189D18290022220AF0D3
:103630004BF94B46142B00D8E4E35B46DA6C2800C8
:1036400013019B18404A5B009046F31898442222CD
:1036500041460AF039F95B461A6D404613019B1842
:103660005B00394AF3189D18290022220AF02CF930
:103670004B46172B00D0ADE35B465A6D2800130173
:103680009B18314A5B009046F31898444146222229
:103690000AF01AF95B469B6D22221901C9184900EC
:1036A000294B71184046C9180AF00EF91623172243
:1036B0009846930015005A46D258434659469B00F7
:1036C000CB581801C018204B40009C46E04613011F
:1036D0009B185B00F318984430182222414660443E
:1036E0000AF0F2F86B1C9C420CD95A469B00D35846
:1036F00040461901C9184900134B71182222C918F4
:103700000AF0E2F84B465A469B00D358019918013B
:10371000C01840000C4B30182222C0180AF0D4F810
:1037200052460A4BD358002B00D115E61379012BD2
:1037300000D1E9E0064B07486421074A50440BF0EA
:1037400075FC19E67C3800000B0F000050120000D9
:10375000281B0210F4120000BC420210019D31002F
:103760002800FEF753FB5346C0221C685201236811
:1037700001955B6AAD586A4A934200D018E3694BE1
:10378000E35C002B00D1C4E0674BE35C002B00D06E
:10379000BFE0664B9D4200D0BBE0654BE358013370
:1037A00000D1B6E0634811F0A3FEF723184200D021
:1037B000AFE0D323DB00E358B7AF5A425341DAB24C
:1037C0000021029238005C4A0AF078F85B4B2A002C
:1037D000B793574B0199E358BAA80133B8933D8189
:1037E0000AF072F8564B04AA9B18012538009C4633
:1037F0000121544A6D42037801306B405D080B4053
:103800005B4213406B405D080B405B4213405D40E0
:103810006B080D406D4215405D406B080D406D42D8
:1038200015406B405D080B405B4213405D406B08E8
:103830000D406D4215406B405D080B405B421340EC
:103840005D406B0898460D406B42454613405D4015
:103850008445D0D1EB433C4A190ABB543B4A1EA8CD
:10386000B9543B4A190CB9543A4A1B0EBB54029A3C
:10387000394B9200D1580A2210F0C0FC002848D1E0
:1038800005AB39002C4A05901EA811F0BDF98346FE
:103890001EA811F029FB05001EA811F07DFC059B58
:1038A0009846254B984531D15A4603002A43134385
:1038B000DBB2002B2AD1A42304AA5B019818029939
:1038C000FEF7DEFEA421254B04AA49015218D35C61
:1038D000012B1BD1A42304A85B0142463900181810
:1038E0001DF0E0F8002811D1D323029ADB00E2504A
:1038F0000F4AA3580133A35061E201235B424344C2
:103900009946FCE4164B16E7164B14E70122064BCA
:10391000E25453461B79012B00D15FE2124B0AE7B8
:10392000292900109506000096060000A31100004A
:103930009C06000094180210B31100004C50523144
:103940007B1400002083B8EDAF110000B01100001F
:10395000B1110000B2110000786D0210BC1100001E
:10396000401B0210081B0210AC1B0210F44804ABF1
:10397000C018029B01909B0099465B464A469B58A3
:1039800022221901C9184900EE4B7118C91809F013
:103990009BFFA21E012A00D8D8E1A121A300C901E2
:1039A0005B1804A95B18E84992005B585946180156
:1039B000C018E44B8A589C4613019B185B004000DA
:1039C000F318634430181900222260441D0009F0E6
:1039D0007BFFE31E02939B0099465B464A469A583A
:1039E000280013019B18D74A5B009046F3189844AF
:1039F0002222414609F068FF231F012B00D8A5E1D0
:103A00005A469B00D258404613019B185B00CD4A92
:103A1000F3189D182900222209F056FF631F029314
:103A20009B0099465B464A469A58280013019B180A
:103A3000C44A5B009046F31898442222414609F09C
:103A400043FFA31F012B00D880E15A469B00D258A8
:103A5000404613019B185B00BA4AF3189D182900D1
:103A6000222209F031FFE31F02939B0099465B4637
:103A70004A469A58280013019B18B24A5B009046A8
:103A8000F31898442222414609F01EFF2300083B08
:103A9000012B00D85AE15A469B00D25840461301E8
:103AA0009B185B00A74AF3189D182900222209F0F1
:103AB0000BFF09235B429C46A444634602939B0090
:103AC00099465B464A469A58280013019B189D4A1E
:103AD0005B009046F31898442222414609F0F4FE18
:103AE00023000A3B012B00D830E15A469B00D258F4
:103AF000404613019B185B00924AF3189D18290059
:103B0000222209F0E1FE0B235B429C46A44463465B
:103B100002939B0099465B464A469A582800130137
:103B20009B18884A5B009046F3189844222241462D
:103B300009F0CAFE23000C3B012B00D806E15A46CF
:103B40009B00D258404613019B185B007D4AF31836
:103B50009F183900222209F0B7FE0D235B429C46D4
:103B6000A444634602939B0099465B464A469B5891
:103B700038001D0198462B0043445900714B7118C1
:103B8000C918222209F0A0FE23000E3B012B00D809
:103B9000DCE05A469B00D25828006A4B40449C46C1
:103BA00013019B185B004000F318634430181900A0
:103BB000222260441D0009F087FE0F235B429C46D1
:103BC000A444634602939B0099465B464A469A5832
:103BD000280013019B185B4A5B009046F318984439
:103BE0002222414609F070FE2300103B012B00D831
:103BF000ACE05A469B00D258404613019B185B002C
:103C0000504AF3189D182900222209F05DFE112365
:103C10005B429C46A444634602939B0099465B46E4
:103C20004A469A58280013019B18464A5B00904662
:103C3000F31898442222414609F046FE2300123B25
:103C4000012B00D882E05A469B00D258404613010F
:103C50009B185B003B4AF3189D182900222209F0AB
:103C600033FE13235B429C46A444634602939B00AD
:103C700099465B464A469A58280013019B18314AD8
:103C80005B009046F31898442222414609F01CFE3E
:103C90002300143B012B59D95A469B00D258404669
:103CA00013019B185B00274AF3189D182900222254
:103CB00009F00AFE15235B429C46A4446346029326
:103CC0009B0099465B464A469A58280013019B1868
:103CD0001C4A5B009046F31898442222414609F0A2
:103CE000F3FD182C32D15B469B6822221C01E4189C
:103CF0006400144B3419E4182100404609F0E4FD37
:103D00005B465B6822221901C91849000D4B7118E6
:103D1000C918200009F0D8FD5B465B682222180113
:103D2000C018084B40009C46069B30181901C91862
:103D3000490071186044614409F0C6FD29E0C0469D
:103D40007C3800000B0F000084AFFFFF5A46494645
:103D5000029D013DAB00D35852581C011001E418DC
:103D600080186400314A40003419A41830188018B3
:103D70002100222209F0A8FD002D0AD0069B222254
:103D80001901C9184900294B71182000C91809F0F8
:103D90009BFD069B22221801C0184000234B3018BF
:103DA000C018019909F090FD00239946FFF7CEFA5B
:103DB0002A00200001999847002800D1A9E5310088
:103DC0001B4A039809F080FD52464946194BD150D1
:103DD000FFF7D2FA142398465A1C6AE4164BAAE459
:103DE000012266E4082398465A1C62E4062398469A
:103DF0005A1C5EE4042398465A1C5AE4022398464F
:103E00005A1C56E4122398465A1C52E41023984632
:103E10005A1C4EE40E2398465A1C4AE40C2398463A
:103E20005A1C46E40A2398465A1C42E40B0F000031
:103E30003B120000441200008C1B0210F0B55746E4
:103E4000DE464E46454692220100E0B5DE4C07684C
:103E5000A544520105908A583868C3690B2A00D1DD
:103E600022E2DA4A4979934200D023E2D84BFB5848
:103E70009A46D84BFB589946D74BFB589846012990
:103E800001D101F056FC022900D1E9E1002900D15D
:103E90001DE28368D14A934200D0F7E1C9239B0019
:103EA000FE183D1DB54207D02800282220212835C4
:103EB00009F004FDAE42F7D1C94B14220021F818D5
:103EC00009F0FCFCC74B14220021F81809F0F6FC9D
:103ED0000599C54B0F00CB580C000C37002B0BD0AD
:103EE000C24A885C1F21C01A1F3008F02FFE0B0148
:103EF0005B1ADB008433E7180B2200211AA809F0B3
:103F0000DDFC3868FDF712FA002800D0C1E1059BFE
:103F10001B79012B00D1D8E1B54B7968B54A0091E6
:103F20001AA80B210BF082F838AB9A4680211AAB05
:103F30005046B14A0BF07AF8059B186853461B7837
:103F4000002B01D101F005FD58AC0494082416ADF6
:103F5000FF34641926003F24A446F824E40001221B
:103F60005146A046069707901C00C23C4D1C012CF0
:103F700000D8C5E02900B3540B78002B00D1D2E063
:103F80000132642AF0D16C22B346FF3216AB069F91
:103F90000798D218002313700368DD68974B0693C7
:103FA0009D4200D0CDE001228D4B0499C2540A7885
:103FB00000230430002A07D0C254CA185278002ABD
:103FC00002D00133282BF7D1059B1B79012B00D19F
:103FD000C2E08B4A059C8021A36850460BF026F86E
:103FE00053461B782068002B01D101F0AFFC3F2421
:103FF000A446F824E40001225146A0465E460797F5
:1040000008901C00C23C4D1C012C00D8A6E02900E1
:10401000B3540B78002B00D1B3E00132642AF0D105
:104020006C22B346FF3216AB079F0898D2180023C4
:1040300013700268D568069A954200D0AEE0684ACF
:104040000499821853700A782C30002A07D0C25481
:10405000CA185278002A02D00133282BF7D1624BBC
:10406000059AD358002B00D1A3E01379012B01D17D
:1040700001F067FB4123106862493F24A446F824FD
:10408000E4000122A0465E46079708901C00C23C4F
:104090004D1C012C00D8BDE02900B3540B78002B37
:1040A00000D1CAE00132642AF0D16C2216ABFF3293
:1040B000D2180023089813700268B346D568069A90
:1040C000079F954200D0C5E0454A04998218937035
:1040D0000A785430002A07D0C254CA185278002AED
:1040E00002D00133282BF7D19223059A5B01D358D4
:1040F000102B01D901F054FB434A9B00D3589F4633
:104100004C7867462000B843802800D032E740460C
:104110009B0103403C402343DBB20231B3540B7894
:10412000002B00D02CE7049B07989A1800231370EB
:104130000368069FDD68314BB34606939D4200D16C
:1041400031E70123002200930021049BA847059B2F
:104150001B79012B00D03CE72C4A3BE74C786746A3
:104160002000B843802800D051E740469B0103401F
:104170003C402343DBB20231B3540B78002B00D018
:104180004BE7049B08989A18002313700268B34603
:10419000D568069A079F954200D150E710220093F8
:1041A0000021049BA847104B059AD358002B00D040
:1041B0005BE792235B01D358102B01D901F0F0FA91
:1041C000134A9B00D3589F461CFCFFFF210300109D
:1041D000A0460000A4460000A846000025050010E7
:1041E000440600006C060000501200000C0F000096
:1041F000A8310210F0410210F8410210D90300105A
:10420000401C0210501C021070680210301C02107A
:10421000B46802104C7867462000B843802800D06C
:104220003AE740469B0103403C402343DBB2023166
:10423000B3540B78002B00D034E7049B08989A18ED
:10424000002313700268B346D568069A079F95420B
:1042500000D139E7009320220021049BA84743E7BF
:10426000BF4BC049C04A0E0015009C46BF4C3B5195
:10427000BF4BF950BF4BFA50E24521D00122BE4B53
:10428000FA548368BD4A934200D107E63800984744
:104290001EE6F9783B880191B978B94A00911AA8CD
:1042A0000B210AF0C3FE3FE6B64A895CB64A934248
:1042B00000D1DBE538009847059B1F683868E8E5C2
:1042C000B145DBD1A845D9D1E3E5B04B25E6B04BEC
:1042D000B049B14A0E0015009C46C7E7059B1B7903
:1042E000012B01D102F081FFAC4A059C012303217F
:1042F0002068FCF7C3FD2379012B01D103F05AF8A4
:10430000A74A059C06212068FCF732FE2379012B81
:1043100001D103F04CF8A34A059C09212068FCF761
:1043200027FE2379012B01D103F03EF89E4A059B1D
:104330000D211868FCF71CFEB8E1059A9B4B1DA8DF
:10434000D5589B4BD75C9B4B3900D2582B00FCF7C0
:10435000A3FC1D9B1E9E9846691C0E2B01D902F0E2
:1043600041FB954A9B00D3589F46059A934BD35CDB
:104370001279012A01D102F0C5FF914A9B009B5896
:10438000904A802150460AF051FE059B524618681B
:104390000321FCF7EDFD06231D008B4B5F460793C1
:1043A0008A4B00260B938A4B0C93049B9B46059BE0
:1043B000824A34009A5C1B790136012B01D102F04C
:1043C0005EF893009B181B190B9A9B009B58079A49
:1043D00000938021330050460AF028FE059A7D4B59
:1043E0001068D3581C1B63425C4153461B78E4B2EF
:1043F000002B01D103F022F83F218946F821C900A2
:104400008C46012280465146089609940A95180068
:10441000C2384C1C012801D801F07FFF2100BB5499
:104420000B78002B01D101F08DFF0132642AEED10F
:104430006C224046FF3216AB089E099C0A9DD2189A
:10444000002313700368DB689846069B984501D0EB
:1044500002F046F8604A43199C545B461A78002AD9
:104460000FD0A9004919C90004314118002358464A
:10447000CA54C2185278002A02D00133282BF7D12F
:1044800083460135052E92D1059BBB461B79012B36
:1044900001D102F056FF514A01F037F9059B1B7913
:1044A000012B01D102F0CBFC4D4A059C0321206871
:1044B000FCF75EFD21794B4B0791A289A57B9046C5
:1044C00043449BB2012901D102F096FC632B01D930
:1044D00002F02FF9002D01D102F02BF90C2D01D99A
:1044E00002F027F9059BDF7B002F01D102F021F9B3
:1044F0003D4E3E4B049A13CB13C2022D01D102F064
:10450000ADFC049B5B19013B1B789F4201D902F073
:10451000BBFCC146022D03D801235B4243449946AC
:10452000334B013DAD00ED58C8214B467D199B082A
:10453000490048464D44ED1808F008FB64212D1849
:10454000484608F003FB0721281A08F0FFFA06295D
:1045500001D902F0EAFE274B89005B589F46C0460E
:10456000F5E9DC0032231500E3BD8E00A046000013
:10457000A4460000A846000094060000250500108F
:10458000C418021056120000210300102C1C021047
:10459000D2DDF40015152A007887D700A82F021065
:1045A000E42F021030300210783002106C1300003B
:1045B0006413000068130000F8680210651300001F
:1045C000706F021054280210B8420210106F0210CF
:1045D000C06E02104412000044060000942802102D
:1045E0005827021030F8FFFF84270210EC18021041
:1045F000806F021034690210059B1B79012B01D1D9
:1046000002F034FDA84A059C03212068FCF7B0FCA9
:104610002379012B01D102F0F7FDA44A059CA44B9C
:104620002068E35859424B410621DBB2FCF726FCD7
:104630002379012B01D102F0E4FD9E4A059C9C4B9D
:104640002068E358013B59424B410821DBB2FCF79B
:1046500015FC2379012B01D102F0D0FD964A059C6F
:10466000934B2068E358023B59424B410A21DBB28D
:10467000FCF704FC2379012B01D102F0BCFD8F4A29
:10468000059C8B4B2068E358033B59424B410C215E
:10469000DBB2FCF7F3FB2379012B01D102F0A8FD7B
:1046A000874A059B0F211868FCF762FC854B059C27
:1046B000E35C002B00D16CE12068834A03681D692C
:1046C000954201D001F0C3FE0121804A8218517445
:1046D0007F4AA25C002A0FD0AB210023890040183A
:1046E0007C496118C254CA5C002A02D00133282BCD
:1046F000F8D1059B186803685B699847059B020021
:1047000018681B79002A1FD002681569012B01D196
:1047100001F096FE6C4B9D4201D001F0A9FE6E495E
:1047200001226A4BB524C3189A740023A4005A329C
:1047300000190131C254CA5C002A02D00133282B6F
:10474000F8D1059A13791068012B01D101F057FEB9
:1047500055236249F824E40001223F27A4468146FC
:104760005E461C00C23C4D1C012C01D801F01FF913
:104770002900B3540B78002B01D101F02CF9013240
:10478000642AEED16C2216ABFF32D21800234846C1
:1047900013700368DD68069B9D4201D001F027F984
:1047A0000122BF244E4B0499C318DA740A78A4007E
:1047B00000230019002A07D0C254CA185278002AD0
:1047C00002D00133282BF7D1059B464A1B681900FC
:1047D00015931B689B69934201D001F02EFE404A5D
:1047E00000238D180A002B321292D022374ED200AD
:1047F00013933D4B0C1D76185218119416920E937C
:104800000F951096179518961994384B159AD35CF6
:10481000002B14D1C82311989B002822C1181CF02A
:1048200041F900280BD10F9B1A781B7D9A4206D1C3
:10483000109B1A781B7D9A4201D101F0A8FAA022A0
:1048400000219200049809F039F8294BBCAC1D688E
:10485000109BA9461B78C6A814936CAB069376AB45
:104860009C4680AB07938AAB089394AB0993B2AB99
:104870000B930023059363460A930B9B9EAF9A46C6
:10488000A8AED0A9DAAA0B900C94119B05981B5CDA
:104890001D004035EDB29C463B2D01D901F0B0F82A
:1048A0000E9BAD005D59AF46B8250210F0250210F1
:1048B000441200003826021084260210CC26021072
:1048C0001C2702105D130000390400106C06000064
:1048D000F4120000F51200002832021060320210BB
:1048E000440600007905001050690210940600008B
:1048F000145E0020059B1B79012B01D102F0F6F913
:10490000EB4A059C03212068FCF732FB2379012B3D
:1049100001D102F0EEFCE74A059CE74B2068E35822
:1049200059424B410621DBB2FCF7A8FA2379012B4F
:1049300001D102F0DBFCE14A059CDF4B2068E35823
:10494000013B59424B410721DBB2FCF797FA23792F
:10495000012B01D102F0C7FCD94A059CD64B206837
:10496000E358023B59424B410821DBB2FCF786FA7F
:104970002379012B01D102F0B3FCD24A059B0B2114
:104980001868FCF7F5FAD04B059CE35C002B00D0CF
:1049900092E6CE4B2068E35C002B01D102F0EEFCE6
:1049A000F821CA4AC9008446A5183F260122894633
:1049B00058461900C2396F1C012901D801F023FDA6
:1049C0003D0083542B78002B01D101F030FD0132E2
:1049D000642AEED16C2283466046FF3216ABD218B1
:1049E000002313700268D568069A954201D001F041
:1049F0005CFDAB24B64A0499821853740A78A4006B
:104A00000019002A00D174E6C254CA185278002A4C
:104A100000D16EE60133282BF6D16AE6059B1B799F
:104A2000012B01D102F08AFCAA4A059CA24D032168
:104A30002068FCF79DFA635906215A4253412068C9
:104A4000A54ADBB2FCF71AFA63590721013B5A4227
:104A500053412068DBB2A14AFCF710FA2379012BFD
:104A600001D102F0E8FC9E4A059C0A212068FCF76F
:104A70007FFA2379012B01D102F0DAFC994A7DE714
:104A8000059C0321984A2068FCF772FA2379012BD0
:104A900001D102F04DFC954B954A05998A5C002A9C
:104AA00001D001F02AFF9349934A0091504680219A
:104AB0000AF0BCFA804B059AD55810686B425D41EC
:104AC00053461B78EDB2002B01D102F0DFFAF82437
:104AD000E400012251463F27A04681461C00C23C0B
:104AE0004E1C012C01D801F0E0FB310058468354E4
:104AF0000B78002B01D101F03AFD0132642AEDD18F
:104B00006C224846FF3216ABD2180023137003689C
:104B1000DE68069B9E4201D002F0D1F96C4BC318AF
:104B20009D71049BF4301A780023002A08D0C254E7
:104B3000049AD2185278002A02D00133282BF6D1D9
:104B4000059B1B79012B01D102F0B6F96B4B059C3B
:104B5000504661796A4A0131009180210AF066FA73
:104B6000554B2068E15801394B42594153461B7857
:104B7000C9B2002B01D102F09CF9F824E400012213
:104B800055463F27A04689461C00C23C6E1C012C9E
:104B900001D801F09AFB350059468B542B78002B35
:104BA00001D101F063FE0132642AEDD16C22494645
:104BB000FF3216ABD218002313700368DD68069B22
:104BC0009D4201D002F02CF9414BC318D971049BCE
:104BD0001D301A78FF300023002A08D0C254049AEE
:104BE000D2185278002A02D00133282BF6D1059B27
:104BF0001B79012B01D102F01FF9424D2E4B059973
:104C0000F824CA58E400023A53425A41D2B2086822
:104C1000332301213F27A04691461C00C23C6E1C55
:104C2000012C01D801F061FB35005A4653542B7812
:104C3000002B01D101F01FFE01316429EDD16C215F
:104C40004A46FF3116ABC91800230B700368DD68B4
:104C5000069B9D4201D001F08CFE1D4BC3181A72B9
:104C6000049B45301A78FF300023002A08D0C25434
:104C7000049AD2185278002A02D00133282BF6D198
:104C8000059B1B79012B01D102F039FB1E4A059CC3
:104C90000B212068FCF76CF92379012B01D102F07C
:104CA0002BFB1A4A059B0C211868FCF761F9FDE4FF
:104CB00000250210182502104412000038250210A9
:104CC00058250210882502105D130000F412000020
:104CD00044060000642402109C420210A842021004
:104CE00094240210D8240210784202108C2302105F
:104CF000551200009823021088420210B8230210B7
:104D000090420210D4230210002402104424021006
:104D1000059B1B79012B01D102F0FEFA8F4A059CFD
:104D200003212068FCF724F92379012B01D102F03B
:104D300092F88B4A059B988A002801D102F088F8E6
:104D4000450801D102F081F801210B000D4003401C
:104D50005B19850834D00D405B19C50830D00D4073
:104D60005B1905092CD00D405B19450928D00D4071
:104D70005B19850924D00D405B19C50920D00D4071
:104D80005B19050A1CD029405B18450A18D001217F
:104D90000D405B19850A13D00D405B19C50A0FD071
:104DA0000D405B19050B0BD00D405B19450B07D06F
:104DB0000D405B19850B03D02940C918C30BCB18D4
:104DC000802150460AF032F9059C5246062120689F
:104DD000FCF7CEF82379012B01D102F033F8614AB8
:104DE000059B988A002801D102F012FB450801D1E9
:104DF00002F00EFB83083ED001210E000D4006405C
:104E000075190B405B19C50830D00D405B190509B9
:104E10002CD00D405B19450928D00D405B19850940
:104E200024D00D405B19C50920D00D405B19050A3F
:104E30001CD029405B18450A18D001210D405B1990
:104E4000850A13D00D405B19C50A0FD00D405B19C0
:104E5000050B0BD00D405B19450B07D00D405B19BE
:104E6000850B03D02940C918C30BCB1802219942E6
:104E700089410A230B40802150460AF0D7F8059C4F
:104E8000524608212068FCF773F8A38A002B47D00C
:104E90005A0801D102F063FA012108000A401840C3
:104EA00080189A0801D102F055FA0A401218D80861
:104EB00030D00840121818092CD008401218580990
:104EC00028D008401218980924D008401218D80990
:104ED00020D008401218180A1CD001405218580A55
:104EE00018D0012108401218980A13D0084012184F
:104EF000D80A0FD008401218180B0BD0084012180F
:104F0000580B07D008401218980B03D001408A189C
:104F1000DB0BD21893009B185B00022A00D90A33DE
:104F20008021114A50460AF081F8059C52460A2118
:104F30002068FCF71DF82379012B01D101F0B6FFA1
:104F40000A4A059C0D212068FCF712F82379012BF1
:104F500001D101F0A8FF064AFFF7A3FBAC30021015
:104F6000CC300210F4300210CC420210303102106A
:104F70006C3102109B22059952018A580B79172A2D
:104F800001D801F0C2F9012B01D102F0EBF90C00BC
:104F9000EC4A20680321FBF7EBFFEB4BEA4DE35CA7
:104FA00020682D19002B01D102F0EBF9F824E40060
:104FB000290001223F27A04681461C00C23C4E1C0E
:104FC000012C01D801F0FBF83100584683540B78CE
:104FD000002B01D101F091FA0132642AEDD16C224B
:104FE0004846FF3216ABD218002313700368DE6800
:104FF000069B9E4201D002F0B9F90122D34BC3189F
:105000009A71049BF4301A780023002A08D0C25405
:10501000049AD2185278002A02D00133282BF6D1F4
:10502000059B1B79012B01D102F0B7F9C84E28006E
:105030001BF0A0FF320003008021504609F0F6FF6C
:10504000059C524609212068FBF792FF2379012B2A
:1050500001D102F09FF9BF4A059C0D212068FBF7A2
:1050600087FF2379012B01D102F091F9BA4AFFF7AA
:1050700018FBBA4B0598C25CB94BC65C002E01D137
:1050800001F084FC00250021B64BC01803780131E3
:105090009B1A5C4263412230ED188E42F6D8002DF7
:1050A00006D0B14B0598C158A94201D3691EC15021
:1050B000059B20A91B790C009846AC4B9200180068
:1050C0009C462430C8C8C8C4634604983033D0CB4B
:1050D000D0C04346012B01D102F062F95358802120
:1050E000A34A5046009509F0A1FF059C52460321B2
:1050F0002068FBF73DFF002D01D001F03DFA237938
:10510000012B01D101F0F9FE9A4A059B062118688E
:10511000FBF72EFF059B1B79012B01D101F0F3FE5C
:10512000954A059C0E212068FBF722FF2379012B6D
:1051300001D101F0E5FE914A059C0F212068FBF7A3
:1051400017FF2379012B01D101F023FC8C4A059B29
:1051500010211868FBF70CFFFFF7A8FA059B1B79D5
:10516000012B01D102F057F9864A059C03212068E2
:10517000FBF7FEFE2379012B01D101F0F7FB824AF8
:10518000059C8249504663188021984609F04EFFDD
:105190007F4B2068E5586B425D4153461B78EDB26A
:1051A000002B01D101F0DFFBF824E400012251467D
:1051B0003F27A14607901E00C23E4C1C012E01D87D
:1051C00001F047F82100584683540B78002B01D199
:1051D00001F0BDFB0132642AEDD16C2216ABFF3227
:1051E0000798D218002313700368DE68069B9E425E
:1051F00001D001F0B1FB554BC3189D71049BF430F5
:105200001A780023002A08D0C254049AD21852787F
:10521000002A02D00133282BF6D1059B1B79012BE4
:1052200001D101F05AFE5B4A059C5B4B8021E718D7
:105230003B00504609F0FAFE554B2068E358013B0D
:105240005A425341DEB253461B78002B01D101F084
:1052500041FE3F24A446F824E40001225146A14621
:1052600007901C00C23C4D1C012C01D801F002F833
:105270002900584683540B78002B01D101F053FBD1
:105280000132642AEDD16C2216ABFF320798D21896
:10529000002313700368DD68069B9D4201D001F076
:1052A0001FFE2A4BC3185E72049B6D301A78FF30C4
:1052B0000023002A08D0C254049AD2185278002A37
:1052C00002D00133282BF6D10023059A209358935E
:1052D0002E4BD35C002B01D101F0D2FA404620A91D
:1052E000FBF762FC002801D001F0CCFA059B1B798A
:1052F000012B01D101F047FB284B80215046284A61
:1053000009F094FE059C52460C212068FBF730FE04
:105310002379012B01D101F033FB224A059C0E2198
:105320002068FBF725FE204A2379A258002A01D1E4
:1053300001F00EF9012B01D101F054FF1B4AFFF7D8
:10534000B0F9C046B0220210C312000044060000AB
:10535000F422021028230210602302105E130000C2
:105360000E0F00000F0F00004412000078700210B2
:1053700054420210B02102100022021040220210FA
:10538000842202107420021098200210E4120000FF
:105390004C120000B8200210EC120000082102108C
:1053A000BC420210302102105012000028200210CE
:1053B000059B1B79012B01D101F0E6FFE34A059C17
:1053C00003212068FBF7D4FDE14BE14EE35C361985
:1053D000002B6FD0B146052320AFB8463F251E00F5
:1053E0004F465C4629220021404608F067FA380003
:1053F0001BF0C0FD0790282801D928230793390006
:105400004046079A08F060FA059B186843461B78E7
:10541000002B01D101F06BF8F821C9008B464946F9
:105420000122089184464146B14609971800C238C6
:105430004F1C012801D800F0EFFE3900A3540B786F
:10544000002B01D100F0FCFE0132642AEED16C2267
:105450006046089B4E46FF329946099F16ABD2180C
:10546000002313700268D2689346069A934501D0D0
:1054700001F00DF8B74982195354049B1A78002A99
:105480000ED00023B1008919C900043141180498D5
:10549000CA54C2185278002A02D00133282BF7D1FF
:1054A000079BFF183B78002B02D00136082E99D1BC
:1054B0004E46A346059B1B79012B01D101F008FE46
:1054C000A54D30001BF056FD2A00030080215046F8
:1054D00009F0ACFD059C52460A212068FBF748FD07
:1054E0009E4A2379A258002A01D101F028F8012B05
:1054F00001D101F093FF9A4A07E1059B1B79012B2B
:1055000001D101F05AFF974A0221059C964D504661
:105510006359009101337E3109F088FD5246032121
:105520002068FBF725FD6259511C8B005B185B005E
:105530009946102B01D91023994693009B185E00C1
:10554000B14501D800F0EDFF884B5C460893884BCD
:105550000993884B0A93059B1B79012B70D0099AFC
:10556000B300D1580B78002B01D100F0C3FFF82015
:10557000C00001228446BB4607961800C2384D1C65
:10558000012801D800F0FFFD2900A3540B78002B5F
:1055900001D100F00EFE0132202AEED128225F4612
:1055A000FF3216AB079ED218002313703A890133DD
:1055B000F24013405722013B934378330193049BFD
:1055C000751C8021089A009350462B0009F02EFD8F
:1055D000059908680368DB689B46634BCA589300CB
:1055E0009B18654A5B008A58F31A5E1DD31A5A420B
:1055F0005341069ADBB2934501D000F04FFF132EC2
:1056000015D85449821953545346197800290ED09D
:105610000023B2009219D20004328218D1545146AC
:10562000C9184978002902D00133282BF6D14D45FD
:1056300001D100F075FF059B2E001B79012B8ED147
:105640000A9AB300D1588DE7059C032120684B4A84
:10565000FBF78EFC4A4B2068E35C002B01D101F084
:1056600049FC474A0125A618F822D2003F27944654
:105670001A00C23A711C012A4ED90E005A465355DF
:105680003378002B01D101F058F90135642DEFD1A9
:105690006C2516ABFF35ED1800222A700368DD6813
:1056A000069B9D4201D001F0CFFC2A4B0132C3186A
:1056B0009A71049BF4301A780023002A08D0C2544F
:1056C000049AD2185278002A02D00133282BF6D13E
:1056D000059B1B79012B01D101F078FE294A059C1D
:1056E00009212068FBF744FC2379012B01D101F04B
:1056F0006AFE254A059C0C212068FBF739FC2379BA
:10570000012B01D101F05CFE204A059B0E21186897
:10571000FBF72EFCFEF7CAFF72781400BC43802C06
:10572000ABD161469B010B403A4013430236DBB2DA
:10573000A4E7174B1749184A0E0015009C46FEF7C0
:1057400095FD4A2310681549FEF797FCF81F0210D3
:1057500062120000440600001420021050120000E3
:1057600028200210301F021048120000444202108C
:10577000F86F021038700210441200003C42021010
:1057800057120000501E02109C1E0210E01E021054
:10579000D5EEE4001C2918009FD9BA006C1C021039
:1057A000059B1B79012B01D101F0D1FDD64A059C47
:1057B00003212068FBF7DCFBD44B8021E3585046E3
:1057C000D34A09F033FC524605212068FBF7D0FB91
:1057D000D04B5F469A46D04B984600230793083338
:1057E0001D00049B9B460599CC4B079ACB5CD3408C
:1057F000012214001C401A4200D193E00B796E1C68
:10580000012B01D100F068FE0B00C54A1868210089
:105810004E238446A14608951C00C23C501C012C16
:1058200000D8A0E002007B541378002B01D100F0D7
:1058300044FE01316429EFD16C2160464C46FF31B2
:1058400016AB089DC91800230B700268D2689146F8
:10585000069A914501D000F055FE132D16DCB14992
:10586000421953545B461A78002A0FD0AB005B19DB
:10587000DB000433C318002158465A5442185278AA
:10588000002A02D001312829F7D18346059B023531
:105890001B79012B01D100F01BFE43461A68059BC2
:1058A00018681378002B01D101F04EFDF821C900D2
:1058B0008946844608951800C238511C012865D9CC
:1058C0000A003B551378002B01D100F0FCFD013498
:1058D000642CF0D16C246046FF3416AB089DE418AC
:1058E000002323700268D468069A944201D000F025
:1058F00010FE132E16DC8B49821953545B461A781E
:10590000002A0FD0B3009B19DB000433C318002119
:1059100058465A5442185278002A02D00131282998
:10592000F7D183460822079B92440133043A079338
:105930009044062B00D056E7059BBB461B79012BF4
:1059400001D101F09DFB784AFEF7ABFE049AFEF709
:105950006EFB58AB1A000493082316A9FF335B189B
:105960009B46FEF717FB5478250009943F24A54376
:10597000802D00D056E7F8209B01C00018403F233F
:10598000099C023223400343DBB24CE75078050008
:1059900009903F208543802D92D149469B011940B3
:1059A0003F230998023203400B43DBB289E74C786E
:1059B0002000B843802801D0FEF7DAFE60469B0144
:1059C00003403C402343DBB20231B3540B78002B3D
:1059D00001D0FEF7D4FE049B48469A1800231370AA
:1059E0000368DD68069B9D4201D1FEF7D9FE0123C5
:1059F000982200930021049B5200A847FEF7E4FE82
:105A00006546203D5E2D01D900F0BDFC63465D007A
:105A100000239B466544AD007D3DFF3D0D93149BE7
:105A2000002B00D08EE04B465B5D4D441800069B7A
:105A300018706B780A980370AB781800079B187081
:105A4000EB781800089B18702B791800099B1870C8
:105A50006B793B70AB793370EB7918005346187053
:105A60002B7A0C9803706B7A0B980370AB7A0B70DF
:105A7000ED7A0D9B1570002B00D1D1E028239C46B8
:105A8000002398465B46012B00D1D1E0022B01D1C7
:105A900000F06CFC032B01D100F05BFC042B03D164
:105AA00010250D70103515700698059B0130069075
:105AB0000A98013301300A90079805930130079046
:105AC0000898013701300890099801360130099093
:105AD000012082440C98013101300C900B98013266
