:020000041000EA
:1000000000B5324B212058609868022188439860DF
:10001000D860186158612E4B002199600221596106
:100020000121F02299502B49196001219960352056
:1000300000F044F80222904214D00621196600F024
:1000400034F8196E01211966002018661A6600F04E
:100050002CF8196E196E196E052000F02FF8012189
:100060000842F9D1002199601B49196000215960AB
:100070001A491B48016001219960EB211966A021F2
:10008000196600F012F800219960164914480160C1
:100090000121996001BC002800D000471248134993
:1000A000086003C880F30888084703B5996A0420EC
:1000B0000142FBD001200142F8D103BD02B5186610
:1000C0001866FFF7F2FF186E186E02BD00000240BE
:1000D000000000180000070000035F00212200005C
:1000E000F4000018222000A00001001008ED00E03C
:1000F00000000000000000000000000074B24E7A12
:1001000000000420F7010010CB010010CD01001009
:10011000C9010010C9010010C9010010C901001077
:10012000C9010010C9010010C9010010CF01001061
:10013000C9010010C9010010D1010010D301001045
:10014000C1010010C1010010C1010010C101001067
:10015000C1010010C1010010C1010010C101001057
:10016000C1010010C1010010C1010010C101001047
:10017000C1010010C1010010C1010010C101001037
:10018000C1010010C1010010C1010010C101001027
:10019000C1010010C1010010C1010010C101001017
:1001A000C1010010C1010010C1010010C101001007
:1001B000C1010010C1010010C1010010C1010010F7
:1001C000EFF30580103800BE00BE00BE00BE00BECA
:1001D00000BE00BEF2EB8871A0DE0110BCDE011093
:1001E0003802001090A31AE71E481F49086006C88D
:1001F00081F3088810471D480068002801D019487D
:10020000F3E70DA40ECC002902D000F012F8F9E7B4
:100210001749184A002000E001C19142FCD116495B
:100220008847164988471649884700BEFDE701C937
:1002300001C29A42FBD37047BCDE0110C00000200F
:10024000102400200C0202100000042000000420F2
:100250000C02021000000320000003200000000038
:10026000704700000000000008ED00E0000000D032
:1002700010240020B43B002095820010753400103B
:100280008D820010F8B5C0460448054B10B5834276
:1002900003D0044B002B00D0984710BD1024002041
:1002A000102400200000000006480749091A8B109E
:1002B000C90FC91810B5491003D0044B002B00D04A
:1002C000984710BD102400201024002000000000DA
:1002D00010B5074C2378002B09D1FFF7D5FF054B4C
:1002E000002B02D0044800E000BF0123237010BDA2
:1002F000D83600200000000028A30110054B10B5DF
:10030000002B03D00449054800E000BFFFF7CCFFF5
:1003100010BDC04600000000DC36002028A30110FC
:1003200030B59C466B461C7B0F230500D01703405D
:100330009B181B11132B1FD8A320CA1D40008242FB
:100340001AD80E48EA18145462461078002813D0C0
:100350000722CC17224051189A00D318DB0004332F
:10036000EA186346C9105B1A01335054585C0028E0
:1003700002D001312829F8D130BDC0464406000022
:100380007047C0467047C046C9239B0070B5C5186A
:10039000041D0600A54207D0200028222021283471
:1003A00006F03CFBA542F7D1054BF0181433F618C4
:1003B000B04203D01422002106F030FB70BDC046CD
:1003C00044060000F0B557464E464546DE46E0B5C9
:1003D000804C814BA5449A46031D98460893CB2335
:1003E000DB00C7187D4B8244050054460026994621
:1003F0007B4BEB5C002B0DD1C82308989B00282277
:10040000C11819F099F9002804D12278237D9A4265
:1004100000D1B9E0A0220021920010A806F0FEFA57
:1004200042460B9252464B460C924A461868099433
:1004300000230A960D970E920F956EE04A0052180F
:10044000684992008B46684917008A46674916003A
:100450008946674915008846664914008C469444CD
:100460006146079111007439FF390691624993443E
:100470008C4694446146924491449044723A783F49
:10048000773E763D753CFF3AFF3FFF3EFF3DFF3C28
:10049000059104925A460CA9825C6031CA545246B6
:1004A0000CA9825C8831CA544A460CA9825CB031DE
:1004B000CA5442460CA9825CD831CA54079A4CA946
:1004C000825CCA54C25D94270CA97F00C919CA5422
:1004D0000CA9825D5131FF31CA540CA9425D7931BA
:1004E000FF31CA54025D86240CA9A131FF31CA54E0
:1004F000069A0CA9825CC931FF31CA54059A0CA92D
:10050000825CF131FF31CA54049A0CA9825CA400C8
:100510000919CA540133282B1AD0089AD15C0A0051
:10052000203A5E2A8AD90F220492013A0592013AB2
:100530000692053A0792013A9046013A9146013AED
:100540009246013A0C240B250A2609279346A1E777
:100550000B9B099C98460C9B0A9E9A460E9B0D9FEE
:10056000994623780F9D002B30D0244B244A0292C9
:100570000193A022012310A90391009331000020D0
:100580000F33520003F006F9089B0134283310366C
:100590000893A74200D02BE7C923C8229B004146FD
:1005A000E818920006F040FA3A00534613CB13C203
:1005B00003CB03C200220A4BEA54B1239B009D44A3
:1005C000F0BCBB46B246A946A046F0BD0D4B0B4A57
:1005D000CDE7C0463CFDFFFF44060000E41D0020BF
:1005E0006C06000084FEFFFF85FEFFFF86FEFFFF16
:1005F00087FEFFFF88FEFFFF8EFEFFFF1C2918000D
:100600009FD9BA00D5EEE400CF2110B50400C9008F
:1006100006F010FA200010BDF0B5C64600B502780D
:100620000E00303AD1B20300092932D8451C407877
:1006300001003039CCB2092C18D890008218987873
:1006400052008A1801003039CCB29F1C092C0BD8FB
:10065000D878844630204042604404000020092CB1
:100660003FD880BCB846F0BD2B003D0002210400FD
:100670008C432C2C0FD000280BD100235001801A62
:1006800080008018C000C0183060431E9841C0B27E
:10069000E7E70020E5E768783038C1B20929F8D8E3
:1006A000D9788C463039092928D8810009184900A1
:1006B000614430390C00302149428C461879844419
:1006C0006146C9B2092914D85B7900201900303974
:1006D0000929C6D9002BC4D1A3001B195B006344B0
:1006E000CCE7900082185200DD1C60463B008A185F
:1006F000BCE70028CDD10A236343BFE76346002B44
:10070000C7D164234343B9E7F8B504000F00654A35
:10071000002106F083F9644B3A882360012323719A
:100720003B68E2801A0C1B0E6372604B2272FB5A0C
:1007300063817B68E3603B892382FB68002B01DADD
:1007400001235B421A0C63821B0E63753B692275A1
:10075000002B01DA01235B421A0C8025E3821B0E79
:1007600063761A236D01390063513B0014317533F0
:100770002276994206D0200061221A3006F054F900
:100780007B23635180235B01E5583B00474A783364
:10079000BF181E00681E9F423BD032686319110AC1
:1007A00062555970110C120EDA70B28899701A7174
:1007B000120A5A71B268002A01DA01225242110A61
:1007C0009A71D971110C120E5A72F2681972002ABC
:1007D00001DA012252422800110A9A72D9720D30B0
:1007E000110C120E19733100225432002B001031FB
:1007F00071320E33914251D06122E01806F014F9A3
:1008000028006F356E307436B742C6D180235B0145
:10081000E550002D44D00123671C3F18260001201D
:1008200023495B423278013653405A0803405B4209
:100830000B405A405308024052420A4053405A0863
:1008400003405B420B405A405308024052420A4068
:1008500053405A0803405B420B405A405308024041
:1008600052420A4053405A0803405B420B405A40F0
:100870005308024052420A405340B742D2D1DB43B0
:100880006219190A63555170190C1B0ED37080231D
:1008900004355B012000E5509170F8BD1D00B2E702
:1008A0000023EDE7041000004C505331840E00008B
:1008B0002083B8EDF0B5DE464E4657464546DF2369
:1008C000E0B5744C06009346A5441B01994245D1FE
:1008D00001270121704B714AC35C825C1B04120228
:1008E00013436F4A7F42825C13436E4A845C6E4AB4
:1008F00024061C436A4BC518037801307B405F080F
:100900000B405B4213405F407B080F407F42174023
:100910007B405F080B405B4213405F407B080F4009
:100920007F4217407B405F080B405B4213405F40B3
:100930007B080F407F4217407B405F080B405B42C3
:1009400013405F407B089C460F407B426746134044
:100950005F408542D0D1FB43A34209D00025280047
:10096000524B9D44F0BCBB46B246A946A046F0BDE2
:10097000B37872781B041202134332781343F2786F
:10098000120613434A4A9342E8D174793379240218
:100990001C43012CE2D10021464A684606F03EF88D
:1009A00001225242D3176F460121434820922193DE
:1009B0001E943BAB684419609A60DA6074338342DA
:1009C000F9D1337AF2791B0412021343B2793B490D
:1009D0001343727A0025120613430093364AB37A02
:1009E0000020BB54F27A00247A541F2191426841BE
:1009F000013999426C41727BB37B12021B04134391
:100A0000327B757C1343F27B2D0212061A43337C32
:100A100090461D437A60F37C327D1B0212041A4318
:100A2000B37C04401A43737D3D811B0613435A1C5B
:100A300003D023495A1E8A4227D8327EFB60F37DB9
:100A400012041B021A43B37D1A43737E1B06134321
:100A50005A1C03D01A495A1E8A4233D831006122E7
:100A60001A3105A83B6105F0DFFF002C33D0434667
:100A7000002B30D080239B009D422CD28D3BFF3B2E
:100A8000FD5C6B425D41EDB226E0012300245B4238
:100A9000D3E7C04674F1FFFFEE0D0000ED0D00003E
:100AA000EC0D0000EF0D00002083B8ED8C0E00006F
:100AB0004C505331880E0000840E0000850E00005B
:100AC0003E420F00012331005B4261221A3105A82A
:100AD0003B6105F0A9FF00253B0039003A7D143346
:100AE0007531002A0FD05E208C4600240021203A68
:100AF000D2B290424C41013325409C4516D01A7821
:100B0000002AF2D161465A1C91420FD0531C8B42ED
:100B10000CD050780028F6D0931C994206D09278D9
:100B2000002AF0D01A00531C8B42F2D17823984649
:100B3000103399464F4B3C009C46BC44E246B844B7
:100B40007B36E934B9447378B2781B02120413433C
:100B500032781343F27812061343424613607379D6
:100B600032791B02134342469380F279337A1202A0
:100B70001B041A43B3791A43737A1B0613435A1C96
:100B800003D03D495A1E8A4270D842469360F27A99
:100B9000337B12021B041A43B37A1A43737B1B067E
:100BA00013435A1C03D034495A1E8A424ED8424637
:100BB0003100D3604B4671324846D21A0E3105F0EF
:100BC00033FF002D4ED043461B68002B4AD04346CE
:100BD00080229B889200934244D270234246D55C87
:100BE0006B425D41EDB24B461A78002A15D05E216A
:100BF000B44600200026203AD2B29142704101331F
:100C000005409C4230D01A78002AF2D16646013362
:100C10009C420BD01A78002A05D10133A34205D09B
:100C20001A78002AF3D001339C42F0D17423743433
:100C300098446F369944544585D1002D00D18DE6F6
:100C4000390058460D4A05F0EFFE88E6012342467A
:100C50005B42D36031004B4671324846D21A0E31A6
:100C600005F0E2FE0025BEE76646DFE7012300252A
:100C70005B428AE7F50E00003E420F00860E000040
:100C8000F0B5504C504AA5448C000021050005F0F9
:100C9000C5FE4E4B0122E15802A80CF067FA031F73
:100CA000DBB20400012B23D9002825D1E023069ACA
:100CB000079F160001901B019A4221D002A80DF057
:100CC00023FA0443E4B2002C16D10122012140484A
:100CD000D5AB6844524219609A60DA607433984226
:100CE000F9D1E0231B019E4213D00222394BEA5472
:100CF0002800394B9D44F0BD0322364BEA54F7E7F8
:100D0000002FDBD1290001AB02A80CF005FE040086
:100D1000D4E7002FE9D1019BB342E6D12F4B2A68DB
:100D20009A42E2D1DF23AA681B019A42DDD12C4B03
:100D30002800EE582A4B01249C4601232949AC4443
:100D40005B42027801305A405308224052420A4026
:100D500053405A0823405B420B405A4053082240FC
:100D600052420A4053405A0823405B420B405A40CB
:100D70005308224052420A4053405A0823405B42E3
:100D80000B405A405308224052420A4053405A08EE
:100D900023405B420B4053406045D2D1DB439E422F
:100DA000A3D1DF2128009AAA09010C30FFF782FDA8
:100DB00000289AD0E0236A681B01EA50054BEC54E6
:100DC00096E7C0460CEFFFFF080E000048B4011084
:100DD000EC100000040E0000F41000004C505231E2
:100DE000FC0D00002083B8EDF0B51F002C4B2D4CFE
:100DF000C35CA5440E000400002B36D0DF231B018A
:100E00009A4232D300216846FFF73AFF264B012170
:100E10006B441800FFF734FF6B46244A9B5C032B9E
:100E200023D0694620480918885C03281DD0012B6F
:100E300025D001281DD1E0236A461B491B01521809
:100E4000D35801229446184A6A441100CE226046C3
:100E5000D200A050164A3000A350DF2212013A609F
:100E60000C3105F0E1FD012000E00220114B9D4412
:100E7000F0BD002BF9D1431E98414000F6E7E02277
:100E800000216B4612018C469B5869460128DDD132
:100E9000054D481982589A42D8D91300D1E7C04667
:100EA0006D060000ECE3FFFF080E0000040E0000DA
:100EB00074060000141C0000F0B54646D6464F46A6
:100EC000C0B5614B614CC55CA54488460400160062
:100ED000002D07D05E4BC35C002B03D1DF231B0129
:100EE0009A4208D0002528005A4B9D44E0BCBA46DF
:100EF000B146A846F0BD584FC3590133F2D0574808
:100F00000DF040F9F7231842ECD1CE23DB00E35873
:100F100000215A425341E022DBB212019AA89946BD
:100F200005F07CFD4E4B9C229A93E35992000133CD
:100F30009B936B4641469E529DA8320005F074FD7E
:100F4000484B01216B449C460123474A9AA85B42C7
:100F5000067801305E4073080E40764216407340BA
:100F60005E080B405B4213405E4073080E407642C1
:100F7000164073405E080B405B4213405E407308AE
:100F80000E407642164073405E080B405B421340B1
:100F90005E4073080E407642164073405E080B4078
:100FA0005B42134073406045D2D1DB432D4A02A817
:100FB0006A4413604A462D4B9200D1580A220CF025
:100FC000D5F8002800D08DE7E026360101AB3200CD
:100FD0009AA9019002A80CF0CFFD070002A80CF01E
:100FE0003BFF804602A80DF08FF8019B9A46B34262
:100FF00025D13B00424613431843C0B200281ED1FE
:101000001B4B49466B441800FFF73AFE6A461848E6
:10101000184B1218D35C012B11D103006B445246BC
:1010200018009AA918F088FB002808D1CE234A4658
:10103000DB00E250084AA3580133A35053E70122D2
:10104000034BE2544EE7C0466D06000090E1FFFFFF
:101050006E060000701E00007406000038A3011028
:101060004C505231641000002083B8ED48B4011098
:1010700068100000040E0000F0B557464546DE46F5
:101080004E46E0B50768BA4C3B68BA4A9B68050013
:10109000A544934201D000F078FFC9239B00FE18BD
:1010A0003C1DB44207D0200028222021283405F01E
:1010B000B5FCA642F7D1B04B14220021F81805F078
:1010C000ADFC12ACAB6850212000AC4A07F05EF8D2
:1010D0002868AB4E0368DF68B74201D000F059FFC3
:1010E0000122A54BC254227800230430002A07D0E5
:1010F000C254E2185278002A02D00133282BF7D1CB
:101100006B68502120009F4A07F040F82868036868
:10111000DF68B74201D000F030FF974B2278C1184A
:1011200000234B70002A01D101F006F92C30C25483
:10113000E2185278002A02D00133282BF7D1924BC3
:10114000EB58052B01D900F063FF904A9B00D35860
:101150009F4628680368DF68B74201D001F0E4F8D1
:101160000022854B8A49C318DA70002350327C3044
:10117000C254CA5C002A02D00133282BF8D1854F13
:101180005021EB5920000133834A06F0FFFF286805
:101190000368DB689846B34201D001F03CF8764B17
:1011A0009C4684446246002353712278002A01D170
:1011B00001F036F9CC30C254E2185278002A02D03D
:1011C0000133282BF7D1734B2868EA58734F016815
:1011D000D200BB58C96899468846B14201D001F097
:1011E00013F865498C4684440021634619724B46C6
:1011F0001978002901D100F0DCFF00224530FF30D2
:1012000001338154995C002902D00132282AF8D197
:10121000604B6968EB58DB00FB185B68994201D2B0
:1012200000F0CEFF28680368DC68B44201D001F00A
:10123000EFF8514B9C46844462460023D3724F2200
:10124000BD305749FF30C254CA5C002A02D0013376
:10125000282BF8D128680368DC68B44201D000F07C
:10126000A0FF454BC31800229721DA7300238900A1
:1012700040184C493C32C254CA5C002A02D00133A7
:10128000282BF8D1286803680400DF68B74201D032
:1012900000F091FE0022384BC3185A74424AAA5CEF
:1012A000002A15D0AB210023890040183F49691856
:1012B000C254CA5C002A02D00133282BF8D12C6812
:1012C0002368DF68B74201D000F06BFE2A4BE318B9
:1012D0000122BF21DA74002389006418344947329F
:1012E000E254CA5C002A02D00133282BF8D12B68C3
:1012F000304A98461B681B69934201D000F03AFEC1
:101300001D4B002643441D00042343449A46079383
:10131000CB23DB004344994643460B934B460C9347
:101320005346254F08960E950F930D97234B0B9A16
:10133000D35C002B0ED1C82307989B002822C1182C
:1013400018F0FAF9002805D12A782B7D9A4201D1AC
:1013500000F0D0FDA02226AC00212000920005F074
:101360005DFB0D9B099518680A94002399E0C0461F
:10137000E4FCFFFF890300104406000040A30110B5
:101380002103001064A301108C0E0000BCB30110F7
:10139000DDA40110980E0000E8A4011050B4011063
:1013A000F9A4011011A50110120F0000130F000085
:1013B0000DA60110C5030010E41D00206C060000FE
:1013C0004A005218444992008C4694446146069162
:1013D00001390591414914008C4641491500884660
:1013E000404916008946404917008A463F49743CE7
:1013F0008B46753D763E773F9444904491449244A9
:1014000093447D3AFF3CFF3DFF3EFF3FFF3A825C45
:101410000CA90492049AB831CA545A460CA9825CA9
:10142000E031CA5452460CA9825C0931FF31CA54DA
:101430004A460CA9825C3131FF31CA5442460CA99C
:10144000825C5931FF31CA5462460CA9825C8131F9
:10145000FF31CA54C25DD4270CA97F00C919CA54F0
:101460000CA9825DD131FF31CA540CA9425DF9311A
:10147000FF31CA54025D88240CA9A4000919CA547A
:10148000059A2834825C0CA90919CA54069A0CA939
:10149000825C28340919CA540133282B01D100F089
:1014A00016FD079AD15C0A00203A5E2A88D90521E8
:1014B0008B4601318A460131894601318846013126
:1014C0008C4605310591013104220A270B260C2593
:1014D0000D2406919BE7C0468FFEFFFF89FEFFFFAC
:1014E00088FEFFFF87FEFFFF86FEFFFF85FEFFFFF2
:1014F00028680368DF68B74201D000F00DFF0022C2
:10150000B24BB349C318DA70002354327C30C25452
:10151000CA5C002A02D00133282BF8D1AA89002AFC
:1015200001D100F038FF500801D100F031FF012156
:101530000B00084013401B18900834D008401B18BB
:10154000D00830D008401B1810092CD008401B18B8
:10155000500928D008401B18900924D008401B18B7
:10156000D00920D008401B18100A1CD001405B187D
:10157000500A18D0012108401B18900A13D00840C7
:101580001B18D00A0FD008401B18100B0BD00840B6
:101590001B18500B07D008401B18900B03D00140BC
:1015A000C918D30BCB18502120008A4A06F0EEFD53
:1015B00028680368DF68B74201D000F053FE0022BC
:1015C000824BC3189A712378F430002B07D08354D0
:1015D000A3185B78002B02D00132282AF7D1AA8900
:1015E000002A01D100F03BFE500801D100F037FE87
:1015F00093083ED001210F000840174038180B40D7
:101600001B18D00830D008401B1810092CD00840F7
:101610001B18500928D008401B18900924D00840F6
:101620001B18D00920D008401B18100A1CD00140FC
:101630005B18500A18D0012108401B18900A13D0DB
:1016400008401B18D00A0FD008401B18100B0BD0F5
:1016500008401B18500B07D008401B18900B03D0F4
:101660000140C918D30BCB1802229A4292410A2397
:10167000134050212000584A06F088FD286803686E
:10168000DF68B74201D000F0F5FD00224F4BC318D0
:101690001A7223784530FF30002B07D08354A318EB
:1016A0005B78002B02D00132282AF7D1AB89002BBE
:1016B00047D05A0801D100F0A8FE012108000A40D5
:1016C000184080189A0801D100F09AFE0A401218BA
:1016D000D80830D00840121818092CD00840121829
:1016E000580928D008401218980924D00840121828
:1016F000D80920D008401218180A1CD001405218EE
:10170000580A18D0012108401218980A13D008402E
:101710001218D80A0FD008401218180B0BD0084026
:101720001218580B07D008401218980B03D001402C
:101730008A18DB0BD21893009B185B00022A00D991
:101740000A3350212000254A06F020FD286803684E
:10175000DF68B74201D000F002FE00221B4BC31825
:101760009A722278002A13D000239530FF30C25499
:10177000E2185278002A02D00133282BF7D12868CA
:101780000368DC68B44201D000F0E1FD0F4BC318E0
:10179000002283215A7300238900401810494532E2
:1017A000C254CA5C002A02D00133282BF8D1286821
:1017B0000368DC68B44201D000F0C7FD0022972125
:1017C000024B8900C318DA730CE0C04644060000DF
:1017D00039A501104CA501105CA5011074A50110DC
:1017E00085A501100023401895495532C254CA5CA2
:1017F000002A00D146E50133282BF7D142E52868BD
:101800000368DF68B74201D000F07EFD8D4BC11840
:1018100000234122CB708C497C30C254CA5C002A20
:1018200002D00133282BF8D1AA89002A01D100F077
:1018300013FE530801D100F00BFE012739003B4095
:1018400011405B18900801D100F0FCFD3840D10830
:1018500088461B18002901D100F0F1FD39408B4664
:1018600010099B44002801D100F08EFD3900014091
:10187000894651098C46D944002901D100F07FFDE9
:1018800039408A469109CA44002901D100F073FD0C
:1018900039408946D109D144002901D100F067FDC2
:1018A00039408944110A01D100F061FD0F404F44D5
:1018B0000121500A01D100F0BEFC0840C719900A6E
:1018C00001D100F0B8FC0840C719D00A01D100F0DE
:1018D000B2FC0840C719100B01D100F0ACFC084065
:1018E000C719500B01D100F0A6FC0840C719900B96
:1018F00001D100F0A0FC0840C719D00B01D100F0C5
:101900009AFC40460140C91810097B1C0127384049
:101910004018614689B288466146002929D041466F
:1019200039404018910924D039404018D10920D0BD
:1019300039404018110A1CD039404018510A18D0BB
:1019400039404018910A14D039404018D10A10D0BB
:1019500039404018110B0CD039404018510B08D0B9
:1019600039404018970B04D0012139400818D20B98
:101970008018810009184900022800D90A31009115
:1019800020005021314A06F001FC28680368DB681A
:101990009C46B34201D000F046FC0022294BC318FC
:1019A0001A712278002A0DD00023A430C254E21804
:1019B0005278002A02D00133282BF7D12868036817
:1019C000DB689C4626AB98464246214B92CB92C29E
:1019D00012CB12C2F0239946002344469846E923CD
:1019E0001B019A46330067462600444698465246F5
:1019F000A9583368091B4A425141C9B2474500D032
:101A0000B6E3144F62008218D155197800290CD022
:101A10005F1C4B4600220433C3189954B95C00295B
:101A200002D00132282AF8D128680134052C00D1CF
:101A3000A4E35023994403680436DF68D7E7C0461F
:101A4000A5A501104406000075A3011080A3011094
:101A5000A4B401104A06000028680368DF68B74292
:101A600001D000F049FC0022954B9649C318DA706A
:101A700000234E327C30C254CA5C002A02D00133AB
:101A8000282BF8D1904B9B46EB5CAB44002B45D008
:101A9000C8230593C33BB0469A465E46A94626AF87
:101AA000049729220021049804F0B8FF300018F0B0
:101AB000ABF80500282800D928252A003100049811
:101AC00004F0B2FF4B4618680368DB681F0043450B
:101AD00000D047E2534600227949C318049F5A5464
:101AE00005993A78043100234118002A08D0CA54D5
:101AF000FA185278002A02D00133282BF7D1049724
:101B000076193378002B07D001239A44059B28339C
:101B100005935346082BC4D146464D46584618F007
:101B200073F850210300694A200006F02FFB286853
:101B30000368DF68B74200D02CE30022604BC31873
:101B40009A722278002A12D000239530FF30C254B6
:101B5000E2185278002A02D00133282BF7D12868E6
:101B60000368DC68B44200D00BE3554BC318002275
:101B70008D219A7300238900401855494532C2547B
:101B8000CA5C002A01D1FFF77DFB0133282BF6D177
:101B9000FFF778FB4F4B5021EB58200001334E4AA2
:101BA00006F0F4FA28680368DF68B74200D09CE3C7
:101BB0000022434BC318DA7023787C30002B07D007
:101BC0008354A3185B78002B02D00132282AF7D166
:101BD000404BEF58002F00D1C7E2BB00DF19082FA0
:101BE00052D809239A46BA0091463C4BB0469944D4
:101BF0003B4B4E469B46B9464946AB893268CB4083
:101C000001210B40013B56318B437833013701935F
:101C100000923B005A460739200006F0B7FA2D4BD8
:101C20002868EA5893009B184A46D11A4A00531D67
:101C30000493E9231B01EB585B1A59424B4101689D
:101C4000DAB2C96894468946049B414500D082E1D6
:101C5000132B15D8C1181A4BCA54217800290FD05C
:101C6000049B049A9B009B18DB000433C0180023DC
:101C7000C154E2185178002902D00133282BF7D142
:101C800004365745B7D3464628680368DC68B44233
:101C900000D0DAE20022A121094B8900C3181A748E
:101CA000002340180F493132C254CA5C002A01D1C6
:101CB000FFF7E8FA0133282BF6D1FFF7E3FAC04625
:101CC0004406000001A40110A10E000010A40110A0
:101CD00025A40110940E0000A4A3011080B40110EB
:101CE000CCA30110DDA3011028680368DF68B742A8
:101CF00000D0F3E20022B54BB549C318DA700023D7
:101D000050327C30C254CA5C002A02D00133282BE6
:101D1000F8D1B04BB04A9846A84443465021200021
:101D200006F034FAAD4B2868EB585A42534102682A
:101D3000DBB2D768B74200D0CAE2A44A82189371D6
:101D400023780022F430002B07D08354A3185B784B
:101D5000002B02D00132282AF7D1A14BA14AEF185B
:101D60003B005021200006F011FA9C4B2868EB58EC
:101D7000013B5A4253410268DBB2D2689146B242FB
:101D800000D09FE2914A8218537223786D3000226E
:101D9000FF30002B07D08354A3185B78002B02D0B0
:101DA0000132282AF7D1002326931193894BEB5C4B
:101DB000002B57D0404611A9FEF72EFC002853D126
:101DC0002200894B03CB03C2198811809B78937042
:101DD00028680368DF68B74200D06CE200227B4BC2
:101DE000C3181A732278002A12D00023E530FF307E
:101DF000C254E2185278002A02D00133282BF7D1BE
:101E000028680368DC68B44200D04DE26F4BC31809
:101E100000228D219A73002389004018734956329D
:101E2000C254CA5C002A02D00133282BF8D128689A
:101E30000368DC68B44200D034E200229721634B8F
:101E40008900C318DA730023401869494832C25424
:101E5000CA5C002A01D1FFF715FA0133282BF6D10D
:101E6000FFF710FA013B11935D4BEB5C002B00D1A7
:101E7000E8E1380026A9FEF7CFFB0028A0D0119A90
:101E8000002A9DDB269B002B9ADB9B1ADA179918F8
:101E9000DB43DB1751401A0001239A4313002D2224
:101EA0008946FA21904648468900984403F0D6FEB8
:101EB0000191FA214846890003F0D0FE4D4F009071
:101EC00043463A005021200006F060F980E7099D62
:101ED0000A9C2B78002B3BD1474B484A0292019336
:101EE000A022012300200093089903940F3352008D
:101EF00001F050FC089B013510330893079B2833F1
:101F000007930C9BAB4201D0FFF710FA0B9BC92043
:101F100098460E9BC8229B460C9B800099460F9BBF
:101F200092001900404404F07FFD4A465B4613CB03
:101F300013C203CB03C200224146314BCA54C7230C
:101F40009B009D44F0BCBB46B246A946A046F0BDEE
:101F50002A4B2C4AC2E71A01634600210093230052
:101F6000C8478DE653461A01002300210093049BC5
:101F7000B847C5E540469847E1E7002310220093A3
:101F800000212300B847FFF7DAF838009847FFF739
:101F900098F801230022009300212300B847FFF79F
:101FA000AFF801220092303200212000164BFF32A0
:101FB000B847FFF79CF9002388220093134B0021B8
:101FC000EB185200B847FFF77AF9C0464406000004
:101FD00049A40110020F00005CA401109C0E000037
:101FE0000A0F00006CA401107CA40110A1A4011030
:101FF000B9A4011088A40110D5EEE4001C29180032
:102000006C0600009FD9BA000CA60110120F000048
:1020100028680368DF68B74200D03CE10022DF4B4C
:10202000DF49C318DA7000234A327C30C254CA5CDC
:10203000002A02D00133282BF8D1DA4B5021EB587B
:102040002000D94A06F0A2F828680368DF68B74282
:1020500000D019E100220100D04BCC31C3185A71D5
:102060002378002B08D08B54A3185B78002B02D068
:102070000132282AF7D12868CC4B00279946CC4B4F
:1020800008249846F4231B01EB5C0122FB401A4212
:1020900040D00368DB689B46A31C9A46B3455ED1DB
:1020A000132C36DC0021BD4B0219D154A2001219A9
:1020B000D20004328218002340464E31D154C15C14
:1020C000002902D00133282BF8D18046631C9C469E
:1020D0004B4628681B680268D4686246B44238D10F
:1020E000132A16DC00248118AC4A8C541C78002C6E
:1020F0000FD06246910000226144C90004314118AA
:1021000001338C549C5C002C02D00132282AF8D177
:1021100028685446082301379944062FB2D1036832
:10212000DC68B44200D0ADE0002297219B4B8900CF
:10213000C318DA73002340189E494532C254CA5C62
:10214000002A01D1FFF79EF80133282BF6D1FFF7C3
:1021500099F8002112010091A0472868D9E70021D1
:10216000954B22010091D847B0E705239A463AE5FE
:102170006201009160320021B84755E44646FFF7FE
:1021800082F80022002100928C4BE032A0472868A0
:10219000FFF779F80023A022009300212300B8471D
:1021A000DDE4874B002200210092F032A047FFF7C8
:1021B00069F8BA18696853688B4201D8FFF73CF890
:1021C0005B1A200050217F4A05F0E0FF2868036871
:1021D000DF68B74200D02AE10022704BC318DA72E0
:1021E0002278002A01D1FFF73EF80023BD30FF30EE
:1021F000C254E2185278002A01D1FFF72BF80133BC
:10220000282BF5D1FFF726F800220021009280321A
:10221000C047FEF7FDFF002350220093002123005A
:10222000C047FEF7D0FF0023402200930021230087
:10223000E047FFF7C3FB40460140C91810093B00C7
:10224000FFF764FB013B2693BAE5002200920132BE
:1022500000215D4BFF32A0472868FFF714F80023E8
:10226000FFF707FA00236022009300212300B847FC
:10227000FFF7B5F900238022009300212300B8471F
:10228000FFF714FA514B8DE70023502200930021F1
:102290002300B847EFE60022002100924C4B303279
:1022A000B847CAE64B4B7DE70022002100924A4B1B
:1022B000E032A047BBE50023C022009300212300A9
:1022C000B8479DE50093902223000021C8476AE5A6
:1022D0000093602223000021B8473EE50022002140
:1022E00000923E4B3032B84713E500233022009372
:1022F00000212300B8476BE4002200210092384BF4
:102300003032B847FFF7BEFB002200210092354B68
:102310003032B847FFF788FA002200210092324B92
:102320003032B847FFF7FAF80022002100922F4B15
:102330003032B847FEF723FF2D4BEB58052B00D961
:1023400069E62C4A9B00D3589F462B4B2AE7002274
:1023500000210092294BD032A047FFF728FA002332
:10236000A022009300212300B847FFF708FA59463E
:102370004B46FFF7CBFA59465346FFF7C7FA594683
:102380004B460120FFF7C2FA581C5B46FFF7F1FAF3
:102390000123FFF708F90023FFF705F944060000C1
:1023A000C5A501103C0F00007CA5011050B4011020
:1023B000D5A50110E9A50110D4A5011024A4011090
:1023C00010A5011000A50110DCA30110E8A5011063
:1023D000C4A50110B8A40110A0A4011048A40110C4
:1023E00000A4011074A3011038A50110DCA4011091
:1023F0008C0E0000D4B30110A4A5011084A5011017
:1024000083001B185B00FFF79CF90A23FFF799F97B
:10241000002200210092124BB032A047FEF71AFFB3
:10242000EA59104FD200BB589946FEF7DDFE002353
:10243000B022009300212300B847FEF70BFF1800DD
:10244000FFF797FA4A1C910089184900FFF797FA9D
:1024500001230A21FFF793FA00230021FFF78FFAE7
:10246000F8A4011050B40110F0B5424C424BA54401
:1024700004006B4418000021404A04F0CFFA25689C
:102480002B685E693E4B9E424DD13E4BEB5C002B70
:1024900039D0002101A8FEF7F3FB3B4B01216B442F
:1024A0001800FEF7EDFB394A01AB9B5C032B2AD0E9
:1024B000684635494018825C032A24D0012B48D055
:1024C000012A43D1E0231B01C3582F4A01206A444B
:1024D0001100CE22D200A8502D4A0C31AB50DF257E
:1024E0002C4B2D016B441D60234B2A006B441800BC
:1024F00004F09AFA2900204B221D6B441800FEF7C5
:10250000D9F9002809D1EA2301221B01E254224B08
:1025100022492432E01804F087FA2000FEF7ACFDCF
:102520001F4B9D44F0BD80221A4B134928006B4479
:1025300052016944B0470228E5D00128EDD16B462D
:1025400080220D4952015B189958D4E71343E4D017
:10255000D9E7E02601AB360100209B5901A9012AE9
:10256000B7D16A46084FD21992599A42B1D913008D
:10257000ABE7C046E4D3FFFF141C000004100000CA
:10258000E90D00106D0600000C0E0000040E0000A6
:1025900074060000142C0000120F000030A6011079
:1025A0001C2C0000F0B54546DE4657464E46E0B5C9
:1025B000544C0D00A54404001B291ED0524B292267
:1025C0009C46844400216046E14604F027FA4F4BC4
:1025D000E358062B06D84E4A9B00D3589F460D2D34
:1025E00000D1A4E32000FEF747FD4A4B9D44F0BC18
:1025F000BB46B246A946A046F0BD0023434A00218F
:10260000835004328350404B2922C01804F006FA4C
:102610002000FEF731FDE8E70D2DE3D1A089002869
:1026200001D100F0F5FC410801D100F09EFE01222D
:10263000130011400340C918830801D100F099FE2E
:1026400013405B18C10830D011405B1801092CD031
:1026500011405B18410928D011405B18810924D032
:1026600011405B18C10920D00A409B18010A1CD0F8
:10267000012211405B18410A17D011405B18810AF2
:1026800013D011405B18C10A0FD011405B18010B29
:102690000BD011405B18410B07D011405B18810B28
:1026A00003D00A40D218C30BD3189A00D218520094
:1026B0009346022B01D90A329346A3689846013308
:1026C00007D05B46DB43626803929A4201D800F070
:1026D000A9FC1C224846104904F0A6F982E7FA2317
:1026E0009B009D4200D13EE30C4B9D4200D0C5E1D2
:1026F000E9252D0160590521013003F0D7FA615118
:1027000070E7C046E4C2FFFF120F00008C0E00000D
:10271000ECB301101C3D0000C4A60110E903000049
:10272000BD4ABE48A35828185942594104310128CE
:1027300000D810E3FA229200954200D102E3B84A91
:10274000954201D100F0B9FD0D2D01D100F0D6FD6B
:10275000313DAB46082D00D944E7B24D04ABED182E
:10276000231D19002800B04A9A4604F05DF9EA23B7
:102770001B01E35C002B00D0FEE25A46012393408C
:10278000A2892900534003932B81A84B04AA9F18C8
:102790003800FDF7B9FF802226685201336802979E
:1027A0009B69BF58A24A0496934201D000F0E7FD0E
:1027B000A04BF35C002B00D1DCE39F4BF35C002BC0
:1027C00000D0D7E3DF231B019F4200D0D2E39B4A16
:1027D000B358013300D1CDE399480BF0D3FCF72374
:1027E000184200D0C6E3CE23DB00F35800215A4242
:1027F0005341D8B20590E022A1A88046120104F00E
:102800000DF940468F4B8D4AA193B358029901337D
:10281000A2933A000781A4A804F006F98A4B04AAFF
:102820009B182600012440469C460121874A6442A9
:102830000378013063405C080B405B421340634007
:102840005C080B405B42134063405C080B405B42FA
:10285000134063405C080B405B42134063405C08DC
:102860000B405B42134063405C080B405B421340EB
:102870005C4063080C406442144063405C080B40B9
:102880005B4213405C406045D2D1E3436E4A04A9E9
:102890005350059A6E4B9100C9580A2208A834007B
:1028A0000AF064FC002800D064E3E022414607AB54
:1028B0001201079008A80BF05FF9070008A80BF0B9
:1028C000CBFA060008A80BF01FFCE021079B0901CA
:1028D00002938B4201D000F0C0FD3A000300324366
:1028E0001343DBB2002B01D000F0B7FD594B04AA13
:1028F0009E1830000599FEF7C3F9574B3000F35C82
:10290000012B01D000F0A9FD4146029A16F014FFF8
:10291000002801D000F0A1FDCE230499059ADB0028
:10292000CA50464A8B5801338B50039B4B4A2B812C
:102930002900504604F078F80521584603F0B6F90E
:10294000354B0521E050584603F0B0F9E9231B014F
:10295000E15047E60D2D00D100E1414BE01817F0A2
:1029600053F9082D00D1EFE07F2D00D1ECE02B00D2
:10297000203B5E2B00D935E65F2800D932E6384B84
:102980002018C554374BC018002303702AE60D2DBC
:1029900000D127E200DCCBE07F2D01D100F096FCD6
:1029A00000DDF7E22A002C3A0D2A00D91AE62E4B58
:1029B000D340DB0700D415E62C4B2D48E358DB0051
:1029C000C01820181E0017F01FF9062800D909E6C4
:1029D000274AA3191B189D54264A9B1800221A70D7
:1029E00000E602239D430E4B9D420CD0FA239B0030
:1029F0009D4200D0F6E5204D06216059053003F0D8
:102A000055F96151EEE51C4D06216059013003F086
:102A10004DF96151E6E5C046940E000016FCFFFF3B
:102A2000E90300007C1E0000880E0000042D000059
:102A3000B90E00106D0600006E060000740600005E
:102A400038A301104C505231701000002083B8EDB3
:102A500048B4011074100000040E0000860E00003F
:102A6000A10E0000A20E0000F53F00009C0E000029
:102A7000020F0000030F0000980E000028003138FC
:102A8000042800D98DE2BF4A04ABD2181100BE4B16
:102A90008000E0CBE0C160CB60C185580022BB4B19
:102AA0000021E5500433E2504846293203F0B6FFD6
:102AB000022D00D165E2032D00D093E50022B44B36
:102AC0002569E250B34B00219C46A444604608327D
:102AD000674603F0A3FF002D01DB00F00BFCAE4BBB
:102AE0009C46A4446746082200213800656903F02B
:102AF00095FF01239846002D00DA73E5FA2128009E
:102B0000890003F0ABF8FA2106008900280003F0E1
:102B1000A5F83300009138000821A04A05F036FBE3
:102B20004346012B00D15DE53B0008331F00DAE787
:102B3000082D00D1CAE3092D00D053E50123944AA2
:102B4000A1585B1AA3504DE5002800D14AE5EA23BD
:102B500020181B01C0180023037043E5904D04ABFF
:102B6000ED18231D19008F4A28009A4603F05CFFD8
:102B70008D4B8E48E11804ABC018612203F054FF5E
:102B8000EA231B01E35C002B00D0F5E07D4B04AA97
:102B90009F1838002900FDF7B7FD802226685201F2
:102BA000336802979B69BF58814AB346934200D06D
:102BB000CDE3804BF35C002B00D1DBE17E4BF35C7B
:102BC000002B00D0D6E1DF231B019F4200D0D1E1D2
:102BD0007A4AB358013300D1CCE179480BF0D2FAEC
:102BE000F723184200D0C5E1CE23DB00F3580021C3
:102BF0005A425341D8B20390E022A1A88046120164
:102C000003F00CFF40466F4B6C4AA193B3580299F6
:102C10000133A2933A000781A4A803F005FF6A4B91
:102C200004AA9B189C460123260001214446674ABA
:102C30005B4220780134584043080840404210402D
:102C4000434058080B405B4213405840430808403B
:102C500040421040434058080B405B4213405840EC
:102C60004308084040421040434058080B405B4234
:102C70001340584043080840404210404340580821
:102C80000B405B42134043406445D2D1DB434E4A84
:102C900004A95350039A4E4B9200D15808A80A2217
:102CA00034000AF063FA002800D063E1E0224146D4
:102CB00007AB1201079008A80AF05EFF070008A8FA
:102CC0000BF0CAF8060008A80BF01EFAE021079BDB
:102CD000090102938B4200D0AFE33A000300324374
:102CE0001343DBB2002B00D0A7E33A4B04AA9E1893
:102CF00030000399FDF7C4FF374B3000F35C012B24
:102D000000D09AE34146029A16F016FD002800D042
:102D100093E3CE235946039ADB00CA50274A8B58C7
:102D200001338B50290050462C4A03F07DFE0023CE
:102D3000164A0021A3500432A3504846292203F02A
:102D40006DFE4FE4E9252D0160590138401802F06D
:102D5000ADFF615146E40121CB1AA350E9230022C3
:102D60001B01E2503EE4E9252D01605905210430A4
:102D700002F09CFF615135E428224846184903F0CF
:102D800053FE2FE4042D0000B8B401108C0E000097
:102D90009C0E0000020F00000A0F00002CA301107F
:102DA0007C1E0000880E0000A10E0000901E000096
:102DB000B90E00106D0600006E06000074060000DB
:102DC00038A301104C505231701000002083B8ED30
:102DD00048B4011074100000040E0000860E0000BC
:102DE00058A60110764D04ABED18231D19002800DC
:102DF000744A9A4603F018FE734BE35C002B00D133
:102E000085E2724904ABC9186F4BE018FDF704FC6A
:102E1000002800D1CDE06D4B04AA9E586C4BE35CBA
:102E2000002B00D19BE26B4904ABC918684BE0183A
:102E3000FDF7F2FB002800D1BBE0664B04AA9A58CC
:102E4000EA231B01E35C002B96D104A98C465F4B5F
:102E5000290063441E605F4B63441A605E4B634409
:102E600018001F00FDF750FC8022266852013368CD
:102E700002979B69BF58594AB346934200D066E215
:102E8000574BF35C002B75D0564BF35C002B71D184
:102E9000DF231B019F426DD1534AB358013369D0E0
:102EA00052480BF06FF9F72302001A401100184244
:102EB00060D1CE23DB00F3585A425341D8B203907D
:102EC000E022A1A88046120103F0A8FD4046484B2D
:102ED000454AA193B35802990133A2933A0007815E
:102EE000A4A803F0A1FD434B04AA9B189C46012310
:102EF000260001214446404A5B4220780134584074
:102F00004308084040421040434058080B405B4291
:102F1000134058404308084040421040434058087E
:102F20000B405B4213405840430808404042104069
:102F3000434058080B405B42134058404308084048
:102F400040421040434058080B405B42134043400E
:102F5000A445D2D1DB43274A04A95350039A274BF7
:102F60009100C9580A2208A834000AF0FFF8002886
:102F700000D19BE61E224846214903F055FDFFF78C
:102F800031FB21001F4B61221831E01803F04CFD8A
:102F9000FFF728FB1C4BED18012D00D8CEE5FFF7FD
:102FA00021FB0D2D01D0FFF71DFBE9231B01E0588C
:102FB00069E523224846154903F036FDFFF712FB69
:102FC0007C1E0000880E0000020F0000881E00001A
:102FD0000A0F00008C1E0000042D0000B90E001026
:102FE0006D0600006E0600007406000038A3011094
:102FF0004C505231701000002083B8ED48B40110DD
:1030000080A60110A10E000018FCFFFFA0A6011071
:10301000A3689846013301D1FFF75BFB6368039314
:1030200000239B46E74D04ABED18231D1900E64A2B
:1030300028009A4603F0F8FC7420E44E04A9AB5D26
:1030400071225843E24BC01804ABC018E14BC018C2
:10305000F4235B01591803F0E7FCA85D1F21013040
:1030600002F024FEDC4AA955AB5C1E2B01D80133CB
:10307000AB545E46039BD34AD84FD948F61804ABED
:10308000FF18D65000217022C018029703F0C6FC2A
:1030900004A98C460123F420D24A3B606244023BDF
:1030A0001360D14A400162441360390071226044C8
:1030B00003F0BAFC4246531C6B60039B1D2B00D9E6
:1030C00028E11D2E00D84DE101230493452E0CD993
:1030D0000223049A1A430492772E06D9B32E00D9FC
:1030E0005EE10423049A1A430492EA231B01E35C81
:1030F000002B00D040E6029F29003800FDF704FBBA
:10310000802226685201336802979B69BF58B74AEC
:103110000396934200D03BE1B54BF35C002B00D10A
:1031200028E7B44BF35C002B00D023E7DF231B011F
:103130009F4200D01EE7B04BF358013300D119E78E
:10314000AE480BF01FF8F723184200D012E7CE2349
:10315000DB00F358A1A85A425341DAB20592E022AB
:1031600080460021120103F059FC4246A44B02990B
:10317000A193A14BA4A8F35826000133A293178171
:103180003A0003F051FC9F4B04AA9B189C46012374
:10319000012144469C4A5B42207801345840430850
:1031A000084040421040434058080B405B421340E7
:1031B00058404308084040421040434058080B40E4
:1031C0005B4213405840430808404042104043408F
:1031D00058080B405B4213405840430808404042A7
:1031E0001040434058080B405B4213404340A44505
:1031F000D2D1DB43834A04A95350059A834B9100F3
:10320000C9580A2208A8340009F0B0FF002800D0ED
:10321000B0E6E022414607AB1201079008A80AF089
:10322000ABFC070008A80AF017FE060008A80AF081
:103230006BFFE021079B090102938B4200D011E153
:103240003A00030032431343DBB2002B00D009E104
:103250006F4B04AA9E1830000599FDF711FD6D4BC8
:103260003000F35C012B00D0FCE04146029A16F0DE
:1032700063FA002800D0F5E0CE230399059ADB001D
:10328000CA505D4A8B5801338B5029005046624A20
:1032900003F0CAFB5A46614B0021E250049A043302
:1032A000E25406225E4B4846E25000220433E250CC
:1032B000293203F0B3FBFFF795F9E9252D01605999
:1032C000013002F0F3FC6151FFF78CF9554BE558E2
:1032D000554BED00E818201816F096FC002801D197
:1032E000FFF780F9514A63191B189B1800221A70C6
:1032F000FFF778F900239846FFF700FC9A00D318EF
:10330000E9221201A2589B189B46FFF726FA0126D4
:10331000764283E5452B00D89CE0772B00D896E0D9
:10332000B32B00D884E0F92B41D90022A5230492C5
:10333000039A5B009A4200D3D7E6A5235B009E4226
:1033400000D2D2E62023049A1A430492CDE63A0032
:10335000584602999847002800D0E3E40AE6012283
:1033600052426DE500230493BFE60A239B46FFF714
:10337000A4F98B005B185B009B46FFF79EF93000B9
:103380003A0002999847002801D0FFF7CEFAF1E5FC
:1033900030003A0002999847002800D075E7E9E527
:1033A000F92E4FD91C23049A1A4304929DE6002358
:1033B0000493F92E00D898E61023049A1A43049235
:1033C000BBE7C0467C1E0000880E0000840E000093
:1033D000083D0000ECE1FFFF850E0000042D000019
:1033E000082D00000C2D0000102D0000B90E00105B
:1033F0006D0600006E0600007406000038A3011080
:103400004C505231701000002083B8ED48B40110C8
:1034100074100000040E0000860E00003C0F000037
:103420008C0E00009C0E0000020F0000010F000037
:10343000B32E97D908230493BBE7012259460C4BBE
:10344000CA5497E50C23049A1A4304924DE60023CC
:10345000049341E60023049338E60122044B0499C7
:10346000CA5487E50122024B0399CA5482E5C0463B
:103470006E06000070B5604884B00CF047F9002873
:103480000BD15E4803AB02AA01A902F0CFF80028D5
:103490000AD15B48594900F0F1FF5A4814F012FE76
:1034A00055480CF04FF9ECE7039A0299019801F0A6
:1034B000E3FF00F0D9FE00F0ADFE142000F0C0FFE5
:1034C000D02380221B0652035A625A610BF050FF30
:1034D000002828D14C4D4D480CF018F94C4C0028D0
:1034E00046D12000FEF7C0FF4A4D00F0DFFE01008C
:1034F000B7280BDCB02824DDB139062906D88900AD
:103500006B589F4644492000FFF74CF8052001F016
:103510004DFDEAE74149F6E7FA218900F3E7404922
:10352000F1E71B21EFE7002000F094F801223D496C
:10353000383009F01BFD43425841334D3A4BE854B3
:10354000C9E70D28DFD005DC0828DCD00A2807D120
:103550000D21D8E71B28D6D07F2804D10821D2E737
:103560000928D0D0D2E70300203B5E2BCBD9CDE792
:10357000200000212D4A20C003F050FA01225242BF
:10358000D317226163618423E25004330121E250A6
:1035900023002648A160E167F033201819609A6083
:1035A000DA6074338342F9D10025214B2900E550BC
:1035B0000433E5501F4B6122E5501F4BE5501F4B74
:1035C000E5500433E5541E4BE01803F027FA1D4B79
:1035D0002900E018102203F021FA1B4B2922E018E1
:1035E000290003F01BFA194B0848E5500433E55451
:1035F0000CF0A8F875E7C0460038002088070200E4
:10360000E0A60110850300106C140020FC37002098
:103610001024002008B40110E9030000EA030000B0
:10362000EB03000014A701106D060000880E0000D7
:103630008C0E0000940E0000980E00009C0E0000FE
:10364000A10E0000020F0000120F00003C0F00004E
:1036500001207047002801D1014870470020FCE795
:10366000E81A002001207047002801D10148704766
:103670000020FCE7A01D00200EB4F0B582B008AB1E
:1036800001936B46D02480278025DE1C3623240638
:10369000AD01FF0133703100A7610122A5610A4825
:1036A00016F0D6FD019B65611B6801223370310065
:1036B00067610548A56116F0CBFD656102B0F0BCFD
:1036C00008BC03B01847C04600000440F0B5CE4621
:1036D00047461E00D024802380B5240683B09B017A
:1036E0008025A3610F002A23694681469046ED019B
:1036F0000122A561013126480B7016F0A9FD404654
:103700004B4601121A12DBB21B02D2B2C9B2090433
:103710001A430A4303061A43656101A901921C4832
:10372000042216F095FD2B236A46A56193706B4623
:103730000122991C164816F08BFD3B123212FFB283
:103740003F02DBB2D2B212043B431343360633438B
:10375000656104220E4801A9019316F079FD0A9BC8
:10376000A561002B12D02C236A46D3706B46012230
:10377000D91C074816F06CFDD02380221B06D2010D
:103780005A6103B0C0BCB946B046F0BD2E23EBE78A
:1037900000000440F0B54E4657464546DE46E0B5CB
:1037A00093B00E001C9907008946BD490A908846CF
:1037B0000024095F07920D93814200DCC1E0B94803
:1037C00009900024005FB04200DCBAE04C4662433E
:1037D000D21900D5B5E06343F34200D5B1E0F4431C
:1037E000E41734402500FC43013AE4173C40914281
:1037F00000DC4A1E5B19013B984200DCA8E01D99E1
:103800000EA8091401721D99091241721D99817245
:1038100011A98A4650461E99091401701E99091271
:1038200041701E9981700121200000912900FFF74D
:103830004DFF0D9A002A7FDD0798030053430B9339
:103840001E9B013300D185E04B46002B74DD002325
:10385000C3461D000200C846340046440E95069635
:1038600025004646079B0592D71A0C972B00013579
:10387000002B54DB099B00229B5EAB425CDB079B69
:10388000002B4CDD0C9B0B9A1900013A0A9B049209
:10389000089500229146002B00DAD7E00720012787
:1038A000049A1C00521A024097404A46D51ACA1080
:1038B00090464A460393C1460292B8462F005D46A1
:1038C0008B4607E003225146774816F0C1FC3B19AE
:1038D0009E4212DD0022AB5E0134A342F7DB4A4672
:1038E0001F9B9B5C42461A42ECD003226E4810A9F3
:1038F00016F0AEFC3B199E42ECDC029B5946994601
:10390000AB460022039B4E4502DD4846721E121A4A
:103910000133D318059A01319142BAD1089D069B13
:103920009D42A3D1079B059A0E9DD2180D9B013590
:10393000B046069EAB428FD1D02380221B06920157
:103940005A6113B0F0BCBB46B246A946A046F0BDD2
:10395000431E54E74B46002BEEDD002300271D00DD
:103960000590059B079A0F959B1A9B464B46F418AA
:103970005B464D46C34608940E9333000136002B38
:103980004BDB099B00229B5EB342D5DB0B9A0E9961
:10399000013A0692079A0A9B002A3EDD0C96002BFC
:1039A0006ADB00220292069A1C00501A072202408B
:1039B00001209040029A0391D61ACA10B14690464F
:1039C0005E46834604930022B35E0134A34212DBB9
:1039D00042461F9B9B5C5A461A422DD150467A782C
:1039E000B9783B78017042708370514603222E48AB
:1039F00016F02EFC03374B461B199D42E3DC029A5E
:103A0000B3460399049B95421CDC00220133D31872
:103A1000059A01319142C2D10C9E089BB342ACD1B0
:103A2000059B079AA9469B180F9D05930D9B013591
:103A3000D846AB4295D17FE7032210A91A4816F069
:103A400007FCD7E710006A1E121ADFE7F218501EB3
:103A50001043C017002402409A4201DDD41A013CF1
:103A6000581C2418D01A9A4200DC012081462300F9
:103A7000864200DD12E74DE7EA18501E1043C017DA
:103A80000240D01A0400934200DB01240294013862
:103A9000934200DB00200133C318A54283DCB7E763
:103AA000A83B0020AA3B00200000044070B5D024B1
:103AB0008025002200210F2000F08EFC2D0224061C
:103AC000002201210F2000F087FC656100211148D0
:103AD00001F0F6F9002200210F2000F07DFC012208
:103AE00000210F2000F078FCA5610021094801F0B9
:103AF000E7F9002200210F2000F06EFC00220121D6
:103B00000F2000F069FC65610021034801F0D8F93D
:103B100070BDC04610270000400D0300F0B583B013
:103B2000FFF7C4FFA022FE4B52001A80FD4BD024A9
:103B30001A806A46E02380268025D3716B462406CE
:103B4000AD01F601A661D91D0122A561F64816F066
:103B50007FFB00276B466561D91DDF71012266611D
:103B6000F148A56116F074FB6A4603216561D171C5
:103B7000694666610122A5610731EB4816F068FBD2
:103B80006946092065610122C87166610731A56136
:103B9000E54816F05DFB082368466561C11DC371E9
:103BA00001226661E048A56116F052FB68461622C4
:103BB0006561C11DC27166610122A561DA4816F016
:103BC00047FB6A460A216561D17169466661012237
:103BD000A5610731D44816F03BFB3F236A4669468E
:103BE00065610731D371D04866610122A56116F085
:103BF0002FFB78236A46694665610731D371CA484D
:103C000066610122A56116F023FB4C236A466946D2
:103C100065610731D371C44866610122A56116F060
:103C200017FB69460922656107310A70BE48666163
:103C3000083AA56116F00CFB6A460A206561D0714E
:103C400068466661C11D0122A561B74816F000FBF8
:103C50006A4608216561D171694666610122A561E4
:103C60000731B14816F0F4FA6A4616216561D17140
:103C7000694666610122A5610731AB4816F0E8FA92
:103C80001A236A46694665610731D371A6486661A1
:103C90000122A56116F0DCFA69460F206561012258
:103CA000C87166610731A5619F4816F0D1FAE1231A
:103CB000694665610122CB719B48A6610731A56108
:103CC00016F0C6FA694665610122CF7196486661B1
:103CD0000731A56116F0BCFA69461620656101221C
:103CE000C87166610731A5618F4816F0B1FA1923D2
:103CF000694665610122CB718B4866610731A56118
:103D000016F0A6FA6946032365610122CB71864845
:103D100066610731A56116F09BFA6B460F2165615C
:103D20000122D97180486661D91DA56116F090FA0B
:103D30000523694665610122CB717B4866610731C5
:103D4000A56116F085FA3223694665610122CB71BF
:103D5000754866610731A56116F07AFA4523694610
:103D600065610122CB71704866610731A56116F06B
:103D70006FFA4623694665610122CB716A48666124
:103D80000731A56116F064FA0423694665610122D2
:103D9000CB71654866610731A56116F059FA0E23AB
:103DA000694665610122CB715F4866610731A56193
:103DB00016F04EFA0D23694665610122CB715A480F
:103DC00066610731A56116F043FA352369466561DE
:103DD0000122CB71544866610731A56116F038FAAB
:103DE0003723694665610122CB714F48666107310F
:103DF000A56116F02DFA6B460F226561D91DDA71A7
:103E0000494866610E3AA56116F022FA6A46C02357
:103E10006561D3716B46A661D91D0122A561424837
:103E200016F016FA6A4617236561D3716B46666110
:103E3000D91D0122A5613C4816F00AFA6A461523ED
:103E40006561D3716B466661D91D0122A561364853
:103E500016F0FEF96A46C1236561D3716B46A6610F
:103E6000D91D0122A561304816F0F2F96A464123B6
:103E70006561D3716B466661D91D0122A5612A482F
:103E800016F0E6F96A46C5236561D3716B46A661F3
:103E9000D91D0122A561244816F0DAF96B46656147
:103EA000D91DDF71012266611F48A56116F0D0F9A6
:103EB0006A4612236561D3716B466661D91D012282
:103EC000A561194816F0C4F96A4680236561D3716B
:103ED0006B466661D91D0122A561134816F0B8F939
:103EE0006A4636216561D1716946A6610122A561E4
:103EF00007310D4816F0ACF948236A4669466561FA
:103F00000731D371084866610122A56116F0A0F956
:103F10003A236A46694665610731D37106E0C046B7
:103F2000A83B0020AA3B0020000004409848A6615E
:103F30000122A56116F08CF966236A46694665611F
:103F40000731D371924866610122A56116F080F9AC
:103F5000B0236A46694665610731D3718C48A66112
:103F60000122A56116F074F96A4669466561073158
:103F7000D771874866610122A56116F069F9B123FE
:103F80006A46694665610731D3718148A66101229D
:103F9000A56116F05DF9A0236A466946656107319F
:103FA000D3717B4866610122A56116F051F9212386
:103FB0006A46694665610731D3717548A661012279
:103FC000A56116F045F9B4236A4669466561073173
:103FD000D3716F48A6610122A56116F039F96A46CE
:103FE00002216561D171694666610122A5610731CF
:103FF000674816F02DF9B6236A46694665610731B0
:10400000D3716348A6610122A56116F021F96A46C1
:1040100002216561D171694666610122A56107319E
:104020005B4816F015F96A4602216561D17169464F
:1040300066610122A5610731554816F009F93B2355
:104040006A46694665610731D3715148666101224C
:10405000A56116F0FDF8B7236A4669466561073128
:10406000D3714B48A6610122A56116F0F1F8C62371
:104070006A46694665610731D37145486661012228
:10408000A56116F0E5F8E9236A46694665610731DE
:10409000D3713F48A6610122A56116F0D9F86A469E
:1040A000694665610731D771394866610122A561AA
:1040B00016F0CEF8F7236A46694665610731D37179
:1040C0003348A6610122A56116F0C2F8A9236A4609
:1040D000694665610731D3712D4866610122A5618A
:1040E00016F0B6F851236A46694665610731D37107
:1040F000274866610122A56116F0AAF82C236A46BA
:10410000694665610731D371214866610122A56165
:1041100016F09EF882236A46694665610731D371BD
:104120001B4866610122A56116F092F811236A46C8
:10413000694665610731D37115480122A661A56101
:1041400016F086F87820656100F030FF29236A4672
:104150006946D37107310122A6610D48A56116F0A9
:1041600077F87820656100F021FF6A463623D37125
:104170006B46A661D91D0122A561054816F068F8B5
:104180004822012136206561FFF776FA03B0F0BDC1
:104190000000044070B50A2000F052F90B2000F036
:1041A0004FF90C2000F04CF90D2000F049F90E20D9
:1041B00000F046F90F2000F043F9D02480232406B4
:1041C000DB00636280231B016362802680238025DD
:1041D000DB01B6012D0266620C4963620C48656220
:1041E00004F0DEF901210A2000F0DEF801210B20A5
:1041F00000F0DAF801210C2000F0D6F801210C20A3
:1042000000F0FCF86661656170BDC04640787D01D4
:104210000000044010B5FFF7BDFFFFF77FFC0B4B1C
:104220000B4C1A680B4B1178527819800A4B1A8084
:104230000A4B0020185E01F011FDFF22084B12020C
:104240001A600022074B20701A6010BDE41D002088
:10425000B23B0020A63B0020A43B0020A83B00204E
:10426000743B0020703B002010B50321072000F0B4
:104270009BF80321062000F097F80949094804F04B
:10428000F9FB00220121072000F0A6F800220121FD
:10429000062000F0A1F80122034B1A7010BDC046A1
:1042A00010270000701E0020AE3B002030B587B004
:1042B00000236A46D38209331375324B1B78002BD7
:1042C0003AD000F09DFF00232F4A304C801859410E
:1042D000002935DB00230290039100931F21200069
:1042E000013305AA04F0EEFB033043D8102000F0A0
:1042F0005DFE00F085FF0023234A80185941002904
:1043000022DB002516220290039102231F212000A8
:1043100000956A4404F0F6FB03302FD86B46D88A28
:10432000002809D01A4B984216D01A4B98420FD049
:10433000FF230340012B12D00120404207B030BDC3
:10434000012015494042C5E7012013494042D8E702
:104350000122124B1A60EFE7104B1D60ECE7000AD8
:104360000300613B192BE9D80C4B1B68002BE5D0EF
:104370006038E3E70A4804F0F5F8DDE7094804F09F
:10438000F1F8D9E7AE3B002020A10700701E002005
:10439000037E0000027E0000FFFFFF7F603B0020E5
:1043A00038A8011058A8011010B54024074A83000E
:1043B0009A181268C0005440C0222240044C1B19B5
:1043C0001A60044BC018416010BDC04604C00140D3
:1043D00004D0014000400140064B8000C3181B6818
:1043E000C90092000A435A400C231340024A801825
:1043F0000360704704C0014004D0014080000029E0
:1044000004D0054BC018022303607047034BC0184B
:1044100002230360F9E7C04604E0014004F00140D4
:10442000054B8000C3181B68090159403023034A1B
:104430000B4080180360704704C0014004D0014065
:104440000123D0228340120693629361084A8300BD
:104450009A1811684022514080320A400549C00034
:104460005B181A60044BC018052343607047C046B0
:1044700004C0014004D00140004001400FB400B529
:10448000084883B004F06EF8049B002B07D005A900
:104490001800019103F08EFE034804F063F8012038
:1044A00003F0A0FE7CA801108CA8011070B58C460A
:1044B0001600EFF3108472B60F490B68002BFCD086
:1044C000BFF35F8F6346DB08C5180722C05C6346F5
:1044D0001A40012393401A000240034207D11843B7
:1044E0002870BFF35F8F0A6084F3108870BD614647
:1044F0003000FFF7C3FFC0462C0100D0F8B5CE4610
:1045000047468C4680B51C00EFF3108872B61C49F4
:104510000B68002BFCD0BFF35F8FA24221D807238A
:10452000994602E00132944218D3494601261140CF
:104530008E40D308C718C35C1E42F3D1100033432A
:104540003B70BFF35F8F00220D4B1A6088F3108819
:1045500000280EDBC0BCB946B046F8BD0120404281
:10456000EFE7BFF35F8F00230B6088F31088012013
:1045700040426346002BEDD00898FFF77FFFC0460E
:104580002C0100D0044A1078431CDBB2172B00D951
:10459000102313707047C046E81D00200021044B13
:1045A000044ABFF35F8F02C39342FAD17047C046FB
:1045B000000100D0800100D0084B094A1360094A6D
:1045C0001360094A1360094A1360094A1360094AD3
:1045D0001360094A1360094A136070478080808025
:1045E00000E400E004E400E008E400E00CE400E0A3
:1045F00010E400E014E400E018E400E01CE400E053
:104600001F2318401E3B8340002905D0C021044AC7
:104610004900535013607047802201498B50FAE7DC
:1046200000E100E070B50D00EFF3108672B60F4A9E
:104630001368002BFCD0BFF35F8F0D4B10309B68CD
:1046400084001B590B4A934203D09D4201D001F0D4
:10465000D9F9074B9B681D51BFF35F8FBFF35F8F85
:104660000022024B1A6086F3108870BD240100D02E
:1046700000ED00E0C1010010F0B5DE4657464E46A1
:104680004546E0B5824683B08B461700EFF31088AD
:1046900072B6604A1368002BFCD0BFF35F8F002511
:1046A0005D4B5D579946002D00DA9AE04A466B0053
:1046B0005A4C5E19B6000193A31900939B791370AD
:1046C000574B9A68534610339B00D15899460B1BA1
:1046D0002F2B32D9534B994200D098E0019B0236E0
:1046E000ED18514BAD006353504BA619043B9B1B77
:1046F0004F4A1B055B0D651913436B804D4B012120
:10470000AB80FF23AB715B46AB60009BEF710B434B
:1047100019004A46424B9B689950BFF35F8FBFF325
:104720005F8F00223B4B1A6088F3108803B0F0BC07
:10473000BB46B246A946A046F0BD01200A0082430E
:10474000D379B446BB422DD83B4BB51C190013009E
:104750001B1B5B415943090D8C46334B6519A35311
:10476000324B0099043B5B1B1B05314D5B0D2B430A
:1047700004364B80A619131F9B1B1B055B0D1D43A5
:1047800063468B715B468B602C4B8D80CF711360C1
:104790000143BEE75800C01880002018C679BE4209
:1047A00025D902000623D356002BF3DA9A46131DAF
:1047B0009C4623486346009E9571043EF61A3605D2
:1047C0001B4B760D1E43019B96805A19534692004F
:1047D000A418A3715B46194AA0802260E771A36008
:1047E00097E701F00FF900254B465D575EE76646F7
:1047F0009A46131D9C469088043640050015A6195C
:104800006044801B00050A4E400D3043D2E701F0A2
:10481000F9F863E7240100D0B13B0020EC1D002033
:1048200000ED00E0C101001000A1FFFF1C1E0020F0
:1048300000E0FFFF01BDFFFFAAAA0000014880477A
:1048400001BD00000123034370B59C46EFF30581D1
:10485000EFF3108572B6214A1368002BFCD0BFF32A
:104860005F8F1F4B04001F4AE41A64416243120D1C
:104870001D4C8900A66852B2765866451CD00621A8
:10488000595691421CD012215956914222D01E21D4
:104890005956914220D02A2159560324914210D0D2
:1048A000124B19781A708171BFF35F8F00220B4B86
:1048B0001A6085F3108870BDA3680D4C5C50EFE75B
:1048C00000246100091989005B18FF2199710949C9
:1048D0009980E5E70124F4E70224F2E7240100D0FF
:1048E000EC1D0020AAAA000000ED00E0B13B002072
:1048F000C101001001BDFFFF70B504000E001500DE
:10490000FFF740FE0100200000F006F8A680E580D9
:10491000BFF35F8F70BDC046024BC91889000160AC
:104920007047C0464000003470B5114C114DAC4288
:104930000FD2FF262368002B0CD0FFF723FE0100C7
:104940002000FFF7E9FFA680BFF35F8F0834AC4279
:10495000F0D370BDFFF716FE01002000FFF7DCFF6B
:104960002671BFF35F8F0834AC42E3D3F1E7C04652
:10497000F82300201024002010B50400FFF702FEE9
:1049800001002000FFF7C8FFFF232371BFF35F8FF3
:1049900010BDC0460A4B1968EFF3108072B60A6862
:1049A000002AFCD0BFF35F8F1B68BFF35F8F00222C
:1049B0001A6080F3108840BF002000217047C04675
:1049C000983B0020F0B5DE4657464E464546E0B5DA
:1049D00085B0EFF3058303221A40B34B91005F5873
:1049E000012393409B4602925A468846AF4B1A6079
:1049F000AF4B03935B46AF4843630823FE5E002E34
:104A000037DABB881BB2002B00DBA4E0BB79002B9C
:104A100000D0E5E00823F95E002920DB4B007A692D
:104A20005B18DB00D3189D68DC686B1C00D104E1C7
:104A3000A04801004144826A0B69AE1A9B1A9E424B
:104A400015D30123026A029883401A420FD0994875
:104A500000F0CEFB8C4202DCCCD18542CAD940BFEB
:104A600005B0F0BCBB46B246A946A046F0BD0D61FC
:104A7000EDE77A69730091469B19DB0099444B4638
:104A80009C68DD6800F0B4FB8D42BADC00D1F6E032
:104A9000002D00DADBE04A464B4652691B6992461C
:104AA000039A934200D1CCE04A460821785E5288AE
:104AB0000004514610439847009001910099019AD3
:104AC0000B00134300D1C2E013000A00002B00DBEF
:104AD000D9E020002900801A99414B469860D9609E
:104AE00000229B5E002B00DA8BE75D007C69EA18F0
:104AF000D200A21800949468D268A2468A4200DDCF
:104B00007FE702D1844200D97BE70824A4463B8199
:104B1000BC44009C00972F006546B4463E0006E06A
:104B20005E00F218D200A2189768D268BA468A428C
:104B300007DC00D1B4E0F318DB00E518E35E002BDE
:104B4000EEDA66464A46009F13802E80BB881BB271
:104B5000002B00DA5AE73A69EFF3108172B6136856
:104B6000002BFCD0BFF35F8F0123BE885B42BB806C
:104B700036B23B69BFF35F8F00221A6081F3108861
:104B8000002E00DA42E73B0008333A0099467D697F
:104B900073009B190824115FDB004846EB180029BD
:104BA00013DB9C680093A446DC6806E0A34240D077
:104BB0000023F95E3800002906DB4F007F18FF0054
:104BC000EF19FB68A342F1DD009B068000201E5E0A
:104BD0001980002EDCDA1700BB79002B00D119E711
:104BE0000023BB710823F95E4B1C00D137E73D0061
:104BF0000835AC467C6903E084464B1C00D109E7CC
:104C00004B005B18DB00E0180A00E15E43881BB232
:104C1000002BF1DA01256D42EE178560C66008258C
:104C20007B5F9342E9D0634619803B8903803A81D8
:104C3000E3E7BB686345BBD9C6E7631C00D0F7E672
:104C400005E7534650461B699847002823D14B4639
:104C50001B883A693B81EFF3108372B61168002913
:104C6000FCD0BFF35F8F49467A880A803A697E801C
:104C7000BFF35F8F0021116083F31088C1E6844287
:104C800000D805E7BDE60B4800F0B2FA009B019C96
:104C9000C018614121E753460CCB009201930DE708
:104CA000824500D847E74CE7843B00203C70054034
:104CB000C54900100040054070B52D4C2569002DF8
:104CC00004D00A212B48FFF727FE70BD2A4E03218E
:104CD000294800F083FAE660FFF754FC274B0322D3
:104CE000C018D02322701B061B6801216370244B5F
:104CF0008000A3600F232061022063806369494222
:104D0000A18019800231198647311D83585218310C
:104D10005A5275325C39995218320131995218320F
:104D200001319952183201319952083518329D5289
:104D30000231183299521832013199521832013128
:104D40009952183201319952183201319952183260
:104D5000013199520B4B0C49DC6001303562FFF791
:104D600061FC01210320FFF74BFC084B1D60A8E705
:104D7000341E0020983B00200040054040000034D5
:104D8000FFFF1000843B0020C5490010386005403B
:104D900070B582B00092019301000269EFF31084B4
:104DA00072B61368002BFCD0BFF35F8F0223C85E7E
:104DB0000D6900283FDB4A69430016001B18DB0021
:104DC000D218F35A4B80BFF35F8F00232B6084F31C
:104DD0001088069B1361079B5361009B019C9360A5
:104DE000D460538801335B045B0C1D1C002B20D066
:104DF000ACB20304558023430D69EFF3108C72B6F7
:104E00002C68002CFCD0BFF35F8F8C8814808880C6
:104E10000A69BFF35F8F002010608CF310880A7856
:104E200001309040CA68084952181060180002B05A
:104E300070BD0125DCE7BFF35F8F00232B6084F397
:104E40001088013BF2E7C0463C20000010B54389C2
:104E50000A1493421ADD53009B184269DB00D318F1
:104E60000469EFF3108C72B62268002AFCD0BFF3FD
:104E70005F8F5A88090494B2090C8A4208D00369EA
:104E8000BFF35F8F00221A608CF31088002010BDE2
:104E9000094A22435A80012302698371BFF35F8F5D
:104EA000002111608CF31088027804499340C26895
:104EB000012052181360EAE70080FFFF3C20000049
:104EC000F0B5C64600B582B004000D0000F098F9B8
:104ED00024184D41002D02DA01242F4D644206268C
:104EE0007642F71736196F41AF4214D811D000F04F
:104EF00087F932003B00121A8B41002B15DC002B86
:104F000046D02000290000F0BBF902B080BCB846B2
:104F1000F0BDA642EBD90026002700F071F932005F
:104F20003B00121A8B41002BE9DD00F069F93200D9
:104F30003B00121A8B41002B0ADB00230193174B15
:104F40003200009316483B00FFF722FF0130D8D013
:104F500000233900B0469C46124A1348536A9942CE
:104F600004D8966A4645CCD29942CAD10668EFF376
:104F7000108772B63368002BFCD0BFF35F8F0368D5
:104F8000BFF35F8F66461E6087F3108820BFE5E79A
:104F9000002AB6D0C9E7C046FFFFFF7F9549001041
:104FA000341E002000400540983B0020F0B5C64666
:104FB00000B582B0040000F023F9FA2206000F00C9
:104FC000200000230021920001F094FC8019794117
:104FD00004000D1E02DA01242E4D6442062676429C
:104FE000F71736196F41AF4214D811D000F008F905
:104FF00032003B00121A8B41002B15DC002B46D0EF
:105000002000290000F03CF902B080BCB846F0BD99
:10501000A642EBD90026002700F0F2F832003B0050
:10502000121A8B41002BE9DD00F0EAF832003B0058
:10503000121A8B41002B0ADB00230193164B32001E
:10504000009316483B00FFF7A3FE0130D8D00023A1
:105050003900B0469C46124A1248536A994204D815
:10506000966A4645CCD29942CAD10668EFF31087BA
:1050700072B63368002BFCD0BFF35F8F0368BFF3B9
:105080005F8F66461E6087F3108820BFE5E7002A21
:10509000B6D0C9E7FFFFFF7F95490010341E0020FE
:1050A00000400540983B0020F0B5CE46474680B50D
:1050B00004000D0085B0EFF305868946002E10D060
:1050C000364900204B6AAB4206D38A6A5B1B591EE5
:1050D0008B41A2424041184305B0C0BCB946B0461E
:1050E000F0BD2F4FFB683A7898461800039200F005
:1050F0007FF8039A131D42469B009B5822001B1AFF
:105100009C462B00121A8B419E4210DC0DD020BF12
:10511000224A0020536A4B45DED3926A5B1B591E1C
:105120008B41A24240411843D6E79445EFD900F0A5
:1051300067F822002B00121A8B41002B1BDB002387
:105140000193184B2200009338002B00FFF720FE3C
:10515000002810DD114B5A6A4A451CD39B6AA342B2
:1051600017D301003800FFF771FE0C4A0020536A84
:105170004B45B1D3D1E7094A0020536A4B45ABD325
:105180000020926A5B1BA24240415A1E9341184381
:10519000A2E74A45E5D120BFE3E7C046004005400D
:1051A000341E002095490010036808499C464A6A4D
:1051B00043680020934207D89B1A5A1E93416246C7
:1051C000896A9142404118437047C04600400540FB
:1051D0000CC001487047C046A951001010B5024AE2
:1051E0000248FFF763F910BD90A80110343B00207E
:1051F0000300416A0A00986A596A8A42FAD17047E4
:10520000034B596A0A00986A596A9142FAD1704769
:105210000040054070B505000E00184A536A190099
:10522000946A536A8B42FAD1200019002C00350091
:1052300024184D41AB4216D813D0104B2A005B6A9C
:105240009D4203D90D494B6A9342FCD3934207D147
:105250000A4A02E0516A994202D1916AA142F9D305
:1052600070BDA042E9D9054B5B6A1C005A1CEFD007
:10527000012201246442E5175242E3E70040054061
:10528000064A536A9942FCD807D1044B02E05A6A95
:10529000914202D19A6A9042F9D870470040054085
:1052A000F8B5DE464E4645465746E0B505008B4606
:1052B00018000A99914600F0F9FC0A9B6C001E0246
:1052C0006419304BA400E418636880469E4200D9FC
:1052D00066602F1FFBB29A46012B2FD9C023802274
:1052E000294FAD009B0179591201E3181A6000297A
:1052F0001BD14B4622685B015340E02213408022C1
:105300005201A21813605346012B2FD9802380220B
:105310009B01E31812011A60434666607B51F0BCA2
:10532000BB46B246A946A046F8BD786900F0BEFC6F
:10533000013043001B18033BFDD2DAE75B46012B2B
:10534000CCD1C02303229B01E3181A60023AA36860
:105350001A42FCD04A46236852015A40E0231340C7
:1053600080225201A218084F1360AD005846032353
:10537000216841400B40136001228240A3681A4219
:10538000FCD0C3E700800040383B0020F0B5D64693
:105390004F464646440098462418324BA400E41871
:1053A00063688A469146C0B5FF2B02D880235B0014
:1053B0006360061FF6B2012E2FD9C02380222A4F28
:1053C00085009B0179591201E3181A6000291BD14D
:1053D0004B4622685B015340E02213408022520179
:1053E000A2181360012E30D9802380229B01E3187C
:1053F00012011A6080235B00636043467B51E0BC6E
:10540000BA46B146A846F0BD786900F04FFC0130BD
:1054100043001B18033BFDD2DAE75346012BCCD1E6
:10542000C02303229B01E3181A60023AA3681A42C0
:10543000FCD04A46236852015A40E02313408022A0
:105440005201A218084F13608500504603232168BB
:1054500041400B40136001228240A3681A42FCD0F5
:10546000C2E7C04600800040383B0020014B80006E
:10547000C0587047383B0020F0B5C64600B55B4BBE
:1054800015005A6884460F0082B0FF2A02D8802295
:1054900052005A600322564B54481A600123826816
:1054A0001342FCD0202201685140C0320A405149C9
:1054B0000A6002684D485A40032313400B600223E0
:1054C00082681342FCD0802280264B4B12011A6066
:1054D0004A4C4B4B760046606246636101213B00BB
:1054E00048480095E04600F0E5F929004046794338
:1054F00000F0DCFB444B05005A68FF2A00D85E60D0
:105500008022424B12011A602169002907D060698C
:1055100000F0CCFB013043001B18033BFDD2E0231D
:10552000394A3B4811680B40036002231168594017
:1055300001330B400421036093681942FCD08021A1
:10554000344B090119608021334B490051602361BC
:10555000264B5A68FF2A00D8596003220121244BA8
:105560001A60224A93681942FCD0E0231068034075
:1055700020480360126803234A40022113401B4A5B
:10558000036093681942FCD080211B4B090119600C
:105590008021224B4900516065615A68FF2A00D87A
:1055A000596080221E4B12011A60A169002907D0A0
:1055B000606900F07BFB013043001B18033BFDD208
:1055C000402316490A685A40A0331340154A136015
:1055D0008022154B12011A6080235B004B60084B40
:1055E000A36102B080BCB846F0BDC0463C8000401C
:1055F0003CB000403C9000403CA00040383B0020C4
:10560000006CDC02008002403080004030B000407E
:105610003090004030A00040001BB70048800040A0
:1056200048B000404890004048A00040F0B54546D2
:105630008046A02057464E46DE461C00984B400050
:1056400081469A46E0B585B0019102920394954B4C
:105650009A4509D901235B429944934B9A444B469E
:105660000F2BF4D100208EE00725904C54442F00DE
:105670006F432000390000F019FBAB466E1E404519
:1056800053D07543200029002F0000F00FFB804508
:105690005CD04346751EA8461D005B46FF1A3900C4
:1056A000200000F003FB85425DD0B31E9846022E19
:1056B00000D1BAE05B46FF1A3900200000F0F6FA8C
:1056C000854267D0F31E9846032E69D05B46FF1AC9
:1056D0003900200000F0EAFA854200D176E0331F5D
:1056E0009846042E00D178E05B46FF1A390020006E
:1056F00000F0DCFA854200D17EE0052E00D180E08A
:105700005B462000F91AA84600F0D0FA062580452D
:10571000ADD10029ABD1CA460199D946029A039C62
:10572000053D28E02B00454698463900200000F052
:10573000BDFA002900D1A4E06E1EAB4675432000DF
:1057400029002F0000F0B2FA8045A2D139002000D4
:1057500000F0ACFA00299CD1CA463500D94601991F
:10576000029A039C07E000299FD1CA464546D946C4
:105770000199029A039C50464D4B43430B604B46A4
:1057800001201360256005B0F0BCBB46B246A946B7
:10579000A046F0BD0029E8D0F31E9846032E95D10F
:1057A0000323092120000927984600F07FFAA84228
:1057B000B8D00323062120009B460226033F00F0B9
:1057C00075FA854248D00123984666E70029CCD077
:1057D000331F9846042E00D086E723099D4256D0F9
:1057E0000C2720003900B346013E00F05FFA8542E5
:1057F00032D00223984650E70029B6D0052E00D0BB
:105800007EE719212000192700F050FA85422DD09B
:1058100014212000053F00F049FA854217D00523E6
:105820009B46023B0426984637E7A846A1088D42CE
:1058300014D061088D421CD0444500D00AE70123F2
:10584000CA46012599460199029A039C93E70523CC
:10585000A8469B46042679E7A84677E70223CA466E
:10586000022599460199029A039C84E7A8460525DA
:105870005BE70223CA46012599460199029A039CD7
:1058800079E7CA460199A946029A039C73E7042363
:10589000CA461D0099460199029A039C6BE7C046CF
:1058A00050262F0050F80C0020D1FFFFB0710B00E4
:1058B000001BB700F0B5C646040000B5234816002B
:1058C00098460D0000F0F2F90100300000F0EEF90A
:1058D0004346069A1B04120313439C4623680600A2
:1058E000002B22DB1A4B1B48E218531E9A418023DF
:1058F0005242120B9B011203D218174B1A60174B1E
:105900001A60130001688B43FBD12122144B2560E0
:10591000E318A6601A602268002AFCDA6246E26098
:1059200008221A6080BCB846F0BD3F2322681340AD
:10593000AB42D7D1A3681B051B0D8342D2D1EE2207
:10594000E368D20213406345CCD1EBE7001BB700FC
:105950000040FDBF08C0004000E0004000F00040F3
:10596000043000008023024A9B000B43D36270473F
:1059700000800540002310B50100988A1B8B9847D2
:1059800010BDC046162310B5010018885B889847E3
:1059900010BDC046F8B54746CE4680B50F1E18D09C
:1059A00014239946043304000025012698464B46EB
:1059B0001888434621681B88984701C4431E9841B4
:1059C00001350640AF42F2D13000C0BCB946B04606
:1059D000F8BD0126F8E7C046AA23064A1B0113605A
:1059E0008D235B00D3600449044B19605368002B7E
:1059F000FCDA70470040024000B0FA00006002404C
:105A00007047C04610B50148FEF738FDB4A8011034
:105A100070B5074D074EB54209D20024013E761BF2
:105A2000B608013608CD01349847B442FAD170BDAA
:105A3000E0A201101CA30110054B064A06491A609A
:105A4000064A074B1A6010000B689843FBD1704759
:105A500000E00040BFCDFBFE08C00040FE7F3C00E0
:105A600000F00040044BDB6C002B03D18022034B81
:105A7000D2021A607047C046000011504C201150ED
:105A8000044A054B1A60054A1368DB018033FBD1D9
:105A90007047C046FFFFFF0100F0004008C0004013
:105AA0004022034B9A675A671A67DA667047C04606
:105AB00000F0014010B5FEF771FD10BD70B528492A
:105AC000284D294E6D1AAC102200302C00D93022FE
:105AD0003000920000F0A8FFBC2D3DD823002A3BE7
