:020000041000EA
:1000000000B5324B212058609868022188439860DF
:10001000D860186158612E4B002199600221596106
:100020000121F02299502B49196001219960352056
:1000300000F044F80222904214D00621196600F024
:1000400034F8196E01211966002018661A6600F04E
:100050002CF8196E196E196E052000F02FF8012189
:100060000842F9D1002199601B49196000215960AB
:100070001A491B48016001219960EB211966A021F2
:10008000196600F012F800219960164914480160C1
:100090000121996001BC002800D000471248134993
:1000A000086003C880F30888084703B5996A0420EC
:1000B0000142FBD001200142F8D103BD02B5186610
:1000C0001866FFF7F2FF186E186E02BD00000240BE
:1000D000000000180000070000035F00212200005C
:1000E000F4000018222000A00001001008ED00E03C
:1000F00000000000000000000000000074B24E7A12
:1001000000000420F7010010CB010010CD01001009
:10011000C9010010C9010010C9010010C901001077
:10012000C9010010C9010010C9010010CF01001061
:10013000C9010010C9010010D1010010D301001045
:10014000C1010010C1010010C1010010C101001067
:10015000C1010010C1010010C1010010C101001057
:10016000C1010010C1010010C1010010C101001047
:10017000C1010010C1010010C1010010C101001037
:10018000C1010010C1010010C1010010C101001027
:10019000C1010010C1010010C1010010C101001017
:1001A000C1010010C1010010C1010010C101001007
:1001B000C1010010C1010010C1010010C1010010F7
:1001C000EFF30580103800BE00BE00BE00BE00BECA
:1001D00000BE00BEF2EB887178E1011098E10110D9
:1001E0003802001090A31AE71E481F49086006C88D
:1001F00081F3088810471D480068002801D019487D
:10020000F3E70DA40ECC002902D000F012F8F9E7B4
:100210001749184A002000E001C19142FCD116495B
:100220008847164988471649884700BEFDE701C937
:1002300001C29A42FBD3704798E10110C000002030
:1002400010240020E8040210000004200000042014
:10025000E80402100000032000000320000000005A
:10026000704700000000000008ED00E0000000D032
:1002700010240020B43B0020AD8400108D36001007
:10028000A5840010F8B5C0460448054B10B583425C
:1002900003D0044B002B00D0984710BD1024002041
:1002A000102400200000000006480749091A8B109E
:1002B000C90FC91810B5491003D0044B002B00D04A
:1002C000984710BD102400201024002000000000DA
:1002D00010B5074C2378002B09D1FFF7D5FF054B4C
:1002E000002B02D0044800E000BF0123237010BDA2
:1002F000D83600200000000040A50110054B10B5C5
:10030000002B03D00449054800E000BFFFF7CCFFF5
:1003100010BDC04600000000DC36002040A50110E2
:1003200030B59C466B461C7B0F230500D01703405D
:100330009B181B11132B1FD8A320CA1D40008242FB
:100340001AD80E48EA18145462461078002813D0C0
:100350000722CC17224051189A00D318DB0004332F
:10036000EA186346C9105B1A01335054585C0028E0
:1003700002D001312829F8D130BDC0464406000022
:100380007047C0467047C046C9239B0070B5C5186A
:10039000041D0600A54207D0200028222021283471
:1003A00006F048FCA542F7D1054BF0181433F618B7
:1003B000B04203D01422002106F03CFC70BDC046C0
:1003C00044060000F0B557464E464546DE46E0B5C9
:1003D000A44CA54BA5449A46031D99460893CB23EC
:1003E000DB009846804443468244544609934B467A
:1003F00000269E4F0E940F930A909D4B0A9AD35C51
:10040000002B0DD1C82308989B002822C11819F091
:100410009FFA002804D12278237D9A4200D1F5E08A
:10042000A0220021920010A806F004FC00233868E6
:100430000B940C960D976EE04A0052188D4992006D
:100440008B468D4917008A468C49160089468C498F
:10045000150088468B4914008C46944461460491EB
:1004600011007439FF390591874993448C469444AF
:100470006146924491449044723A783F773E763D8B
:10048000753CFF3AFF3FFF3EFF3DFF3C0691079260
:100490005A460CA9825C6031CA5452460CA9825C4F
:1004A0008831CA544A460CA9825CB031CA544246CB
:1004B0000CA9825CD831CA54049A4CA9825CCA54F3
:1004C000C25D94270CA97F00C919CA540CA9825D8A
:1004D0005131FF31CA540CA9425D7931FF31CA5400
:1004E000025D86240CA9A131FF31CA54059A0CA9DA
:1004F000825CC931FF31CA54069A0CA9825CF13181
:10050000FF31CA54079A0CA9825CA4000919CA5485
:100510000133282B65D0089AD15CE92918D00A004C
:10052000203A5E2A88D90F220792013A0692013AB0
:100530000592053A0492013A9046013A9146013AF1
:100540009246013A0C240B250A26092793469FE779
:10055000D0229200825C0CA96031CA544B4A0CA98B
:10056000825CD831CA54D1229200825C4CA9CA5410
:10057000474A0CA9825C2931FF31CA54454A0CA96B
:10058000825C5131FF31CA54434A0CA9825C7931F3
:10059000FF31CA54D222862492000CA9825CA13178
:1005A000FF31CA543D4A0CA9825CC931FF31CA549B
:1005B0003B4A0CA9825CF131FF31CA54394AA4008C
:1005C000825C0CA90919CA5408210CAA8832D1549A
:1005D0001022693C0CA9FF3C0919CA540133282B8D
:1005E00099D10B9C0C9E23780D9F002B37D02E4B5E
:1005F0002E4A02920193A022012310A90391009395
:10060000310000200F33520003F0D0F9089B013471
:1006100028330893099B1036A34200D0EDE60E9BC9
:10062000C8229A46099B0A9D98460F9B9200190082
:10063000C9239B00E81806F003FB4246534613CB40
:1006400013C203CB03C20022094BEA54B1239B001F
:100650009D44F0BCBB46B246A946A046F0BD144B33
:10066000114AC6E73CFDFFFF44060000E41D0020E0
:100670006C06000084FEFFFF85FEFFFF86FEFFFF85
:1006800087FEFFFF88FEFFFF8EFEFFFF4303000093
:100690004503000046030000470300004903000033
:1006A0004A0300004B0300001C2918009FD9BA0020
:1006B000D5EEE400CF2110B50400C90006F0C6FA5B
:1006C000200010BDF0B5C64600B502780E00303AE5
:1006D000D1B20300092932D8451C407801003039D5
:1006E000CCB2092C18D890008218987852008A1839
:1006F00001003039CCB29F1C092C0BD8D878844625
:1007000030204042604404000020092C3FD880BCC7
:10071000B846F0BD2B003D00022104008C432C2C78
:100720000FD000280BD100235001801A80008018C0
:10073000C000C0183060431E9841C0B2E7E70020F7
:10074000E5E768783038C1B20929F8D8D9788C46FD
:100750003039092928D88100091849006144303905
:100760000C00302149428C46187984446146C9B254
:10077000092914D85B790020190030390929C6D914
:10078000002BC4D1A3001B195B006344CCE790008D
:1007900082185200DD1C60463B008A18BCE7002826
:1007A000CDD10A236343BFE76346002BC7D164233F
:1007B0004343B9E7F8B504000F00654A002106F08D
:1007C00039FA644B3A882360012323713B68E28045
:1007D0001A0C1B0E6372604B2272FB5A63817B689A
:1007E000E3603B892382FB68002B01DA01235B4233
:1007F0001A0C63821B0E63753B692275002B01DAAC
:1008000001235B421A0C8025E3821B0E63761A23B8
:100810006D01390063513B001431753322769942E2
:1008200006D0200061221A3006F00AFA7B236351B9
:1008300080235B01E5583B00474A7833BF181E0010
:10084000681E9F423BD032686319110A6255597085
:10085000110C120EDA70B28899701A71120A5A715C
:10086000B268002A01DA01225242110A9A71D97142
:10087000110C120E5A72F2681972002A01DA012262
:1008800052422800110A9A72D9720D30110C120EC0
:1008900019733100225432002B00103171320E33A3
:1008A000914251D06122E01806F0CAF928006F3554
:1008B0006E307436B742C6D180235B01E550002DFF
:1008C00044D00123671C3F182600012023495B42C6
:1008D0003278013653405A0803405B420B405A407D
:1008E0005308024052420A4053405A0803405B42B8
:1008F0000B405A405308024052420A4053405A08A3
:1009000003405B420B405A405308024052420A40A7
:1009100053405A0803405B420B405A405308024080
:1009200052420A405340B742D2D1DB436219190AFE
:1009300063555170190C1B0ED370802304355B0175
:100940002000E5509170F8BD1D00B2E70023EDE7EF
:10095000041000004C505331840E00002083B8ED89
:10096000F0B5DE464E4657464546DF23E0B5734CAC
:1009700006009346A5441B01994245D10127012158
:100980006F4B704AC35C825C1B04120213436E4AB5
:100990007F42825C13436D4A845C6D4A24061C438B
:1009A000694BC518037801307B405F080B405B4200
:1009B00013405F407B080F407F4217407B405F0839
:1009C0000B405B4213405F407B080F407F42174063
:1009D0007B405F080B405B4213405F407B080F4049
:1009E0007F4217407B405F080B405B4213405F40F3
:1009F0007B089C460F407B42674613405F40854220
:100A0000D0D1FB43A34209D000252800514B9D447F
:100A1000F0BCBB46B246A946A046F0BDB37872789A
:100A20001B041202134332781343F2781206134365
:100A3000494A9342E8D17479337924021C43012C4A
:100A4000E2D10021454A684606F0F4F801225242FC
:100A5000D3176F4601214248209221931E943BAB4D
:100A6000684419609A60DA6074338342F9D1337A4A
:100A7000F2791B0412021343B2793A491343727A92
:100A80000025120613430093354AB37A0020BB5465
:100A9000F27A00247A541F21914268410139994227
:100AA0006C41727BB37B12021B041343327B757C57
:100AB0001343F27B2D0212061A43337C90461D43EA
:100AC0007A60F37C327D1B0212041A43B37C04402B
:100AD0001A43737D3D811B0613435A1C03D02249E0
:100AE0005A1E8A4226D8327EFB60F37D12041B0216
:100AF0001A43B37D1A43737E1B0613435A1C03D05B
:100B000019495A1E8A4231D8310061221A3105A88A
:100B10003B6106F095F8002C31D04346002B2ED0D7
:100B200080231B019D422AD27423FD5C6B425D41F0
:100B3000EDB225E0012300245B42D4E774F1FFFF0E
:100B4000EE0D0000ED0D0000EC0D0000EF0D0000BB
:100B50002083B8ED8C0E00004C505331880E0000FD
:100B6000840E0000850E00003E420F00012331007C
:100B70005B4261221A3105A83B6106F061F800254D
:100B80003B0039003A7D14337531002A0FD05E20C6
:100B90008C4600240021203AD2B290424C410133CD
:100BA00025409C4516D01A78002AF2D161465A1C7D
:100BB00091420FD0531C8B420CD050780028F6D0B5
:100BC000931C994206D09278002AF0D01A00531C48
:100BD0008B42F2D178239846103399464F4B3C0014
:100BE0009C46BC44E246B8447B36E934B944737849
:100BF000B2781B021204134332781343F2781206C0
:100C0000134342461360737932791B021343424601
:100C10009380F279337A12021B041A43B3791A4390
:100C2000737A1B0613435A1C03D03D495A1E8A424D
:100C300070D842469360F27A337B12021B041A4347
:100C4000B37A1A43737B1B0613435A1C03D03449EF
:100C50005A1E8A424ED842463100D3604B4671320A
:100C60004846D21A0E3105F0EBFF002D4ED0434618
:100C70001B68002B4AD0434680229B881201934276
:100C800044D270234246D55C6B425D41EDB24B4687
:100C90001A78002A15D05E21B44600200026203A9A
:100CA000D2B291427041013305409C4230D01A7853
:100CB000002AF2D1664601339C420BD01A78002AF2
:100CC00005D10133A34205D01A78002AF3D00133AD
:100CD0009C42F0D17423743498446F36994454453F
:100CE00085D1002D00D18FE6390058460D4A05F018
:100CF000A7FF8AE6012342465B42D36031004B46A0
:100D000071324846D21A0E3105F09AFF0025BEE72F
:100D10006646DFE7012300255B428AE7F50E000007
:100D20003E420F00860E0000F0B5504C504AA544DC
:100D30008C000021050005F07DFF4E4B0122E1589B
:100D400002A80CF01FFB031FDBB20400012B23D908
:100D5000002825D1E023069A079F160001901B0169
:100D60009A4221D002A80DF0DBFA0443E4B2002C31
:100D700016D1012201214048D5AB68445242196086
:100D80009A60DA6074339842F9D1E0231B019E42E5
:100D900013D00222394BEA542800394B9D44F0BD50
:100DA0000322364BEA54F7E7002FDBD1290001ABD1
:100DB00002A80CF0BDFE0400D4E7002FE9D1019B8E
:100DC000B342E6D12F4B2A689A42E2D1DF23AA68C8
:100DD0001B019A42DDD12C4B2800EE582A4B0124EE
:100DE0009C4601232949AC445B42027801305A40B9
:100DF0005308224052420A4053405A0823405B4263
:100E00000B405A405308224052420A4053405A086D
:100E100023405B420B405A405308224052420A4052
:100E200053405A0823405B420B405A40530822402B
:100E300052420A4053405A0823405B420B40534001
:100E40006045D2D1DB439E42A3D1DF2128009AAA7C
:100E500009010C30FFF784FD00289AD0E0236A686E
:100E60001B01EA50054BEC5496E7C0460CEFFFFF20
:100E7000080E00000CB70110EC100000040E00007A
:100E8000F41000004C505231FC0D00002083B8EDEE
:100E9000F0B51F002C4B2D4CC35CA5440E00040084
:100EA000002B36D0DF231B019A4232D30021684643
:100EB000FFF73AFF264B01216B441800FFF734FF80
:100EC0006B46244A9B5C032B23D0694620480918B3
:100ED000885C03281DD0012B25D001281DD1E023DB
:100EE0006A461B491B015218D35801229446184ADE
:100EF0006A441100CE226046D200A050164A30004B
:100F0000A350DF2212013A600C3105F099FE012056
:100F100000E00220114B9D44F0BD002BF9D1431E8F
:100F200098414000F6E7E02200216B4612018C4612
:100F30009B5869460128DDD1054D481982589A42CF
:100F4000D8D91300D1E7C0466D060000ECE3FFFFDF
:100F5000080E0000040E000074060000141C0000BF
:100F6000F0B54646D6464F46C0B5614B614CC55CB0
:100F7000A544884604001600002D07D05E4BC35CD4
:100F8000002B03D1DF231B019A4208D00025280043
:100F90005A4B9D44E0BCBA46B146A846F0BD584FF6
:100FA000C3590133F2D057480DF0F8F9F72318422E
:100FB000ECD1CE23DB00E35800215A425341E0221A
:100FC000DBB212019AA8994605F034FE4E4B9C22E2
:100FD0009A93E359920001339B936B4641469E528C
:100FE0009DA8320005F02CFE484B01216B449C4625
:100FF0000123474A9AA85B42067801305E40730895
:101000000E407642164073405E080B405B42134030
:101010005E4073080E407642164073405E080B40F7
:101020005B4213405E4073080E40764216407340A8
:101030005E080B405B4213405E4073080E407642F0
:10104000164073405E080B405B421340734060459E
:10105000D2D1DB432D4A02A86A4413604A462D4B85
:101060009200D1580A220CF08DF9002800D08DE7AB
:10107000E026360101AB32009AA9019002A80CF0DB
:1010800087FE070002A80CF0F3FF804602A80DF0CF
:1010900047F9019B9A46B34225D13B004246134390
:1010A0001843C0B200281ED11B4B49466B441800A0
:1010B000FFF73AFE6A461848184B1218D35C012B0A
:1010C00011D103006B44524618009AA918F040FC55
:1010D000002808D1CE234A46DB00E250084AA35834
:1010E0000133A35053E70122034BE2544EE7C046BD
:1010F0006D06000090E1FFFF6E060000701E00000C
:101100007406000050A501104C50523164100000CC
:101110002083B8ED0CB7011068100000040E000029
:10112000F0B55746DE464E464546E0B50768504C9A
:101130003B68504A9B68A5440400934201D000F0EC
:1011400097FFC9239B00FE183D1DB54207D028001C
:1011500028222021283505F06DFDAE42F7D1464BFF
:1011600014220021F81805F065FD2700434B0837CD
:10117000E358002B0AD0424A1F21A05C7427C01AF2
:101180001F3004F09FFE4F437C37E71912AD3B68D8
:10119000502128003B4A07F005F920680368DE6803
:1011A000394B9A469E4201D000F06EFF0122324B2D
:1011B000C2542A7800230430002A07D0C254EA1807
:1011C0005278002A02D00133282BF7D163685021CE
:1011D00028002E4A07F0E6F8206803680600DB685E
:1011E0009846534501D000F057FF0022224BC31808
:1011F0005A702A78002A01D101F01FF900232C30FF
:10120000C254EA185278002A02D00133282BF7D1B1
:101210001A4BE358002B20D026683368DB689846C9
:10122000534501D000F0E8FF134BF31800229A70E9
:10123000002317494A325436F254CA5C002A02D0BD
:101240000133282BF8D1134BE358042B01D900F0BC
:1012500031FF114A9B00D3589F460E4BE358042B95
:1012600001D900F027FF0D4A9B00D3589F46C04686
:10127000E4FCFFFF89030010440600009C0E000000
:10128000880E00003CA601102103001060A601108A
:1012900071A601108C0E000078B601108CB60110FA
:1012A00020680368DE68564501D001F0BEF80022D0
:1012B000A14BA249C318DA70002350327C30C254CB
:1012C000CA5C002A02D00133282BF8D19C4B9D4ADE
:1012D000E61833005021280007F064F89A4B206884
:1012E000E3585A4253410268DBB2D768574501D0F0
:1012F00001F04BF8904A821893712A780023F43059
:10130000002A07D0C254EA185278002A02D00133CA
:10131000282BF7D18D4B8E4AE7183B00502128002F
:1013200007F040F8884B2068E358013B5A4253418C
:101330000268DBB2D2689046524501D001F01EF837
:101340007D4A821853722A786D300023FF30002ABC
:1013500007D0C254EA185278002A02D00133282B51
:10136000F7D1002326931193754BE35C002B01D139
:1013700000F062FF300011A9FFF7A4F900280DD09A
:10138000724BE35C002B01D100F0F4FF380026A97A
:10139000FFF798F9002801D000F052FF2A006D4BAA
:1013A00003CB03C2198811809B789370206803686F
:1013B000DE68564501D000F0C5FF00225E4BC31821
:1013C0001A732A78002A13D00023E530FF30C25464
:1013D000EA185278002A02D00133282BF7D120686E
:1013E0000368DD68554501D000F0BCFF524BC318BF
:1013F00000228D219A7300238900401856495632E5
:10140000C254CA5C002A02D00133282BF8D1534BB6
:10141000E358002B01D100F0F8FE514B2068026820
:10142000D568554501D000F000FF0021424A8218DE
:10143000D173197800290ED097250022AD004019EC
:1014400001338154995C002902D00132282AF8D155
:1014500020680368DD68434BE318554501D000F070
:101460000BFE354A8218002151741978002914D0D6
:10147000AB250022AD00401901338154995C00294D
:1014800002D00132282AF8D120680368DD6855456A
:1014900001D000F0DAFD284BC2180123BF21D3741C
:1014A00048220023890040182F49C254CA5C002AF0
:1014B00002D00133282BF8D123682C4A98461B68A8
:1014C0001B69934201D000F0D0FD1B4B0026434422
:1014D0001D00042343449A460793CB23DB00434477
:1014E000994643460B934B460C935346204F089620
:1014F0000E950F930D971F4B0B9AD35C002B0ED1BB
:10150000C82307989B002822C11818F021FA002848
:1015100005D12A782B7D9A4201D100F058FDA022F6
:1015200026AC92000021200005F084FB0D9B0022D8
:10153000186809950A9492E0440600002DA701104E
:10154000020F000040A70110980E00000A0F0000D3
:1015500050A7011060A7011085A701109C0E000084
:10156000D4A50110120F000071A80110C5030010CE
:10157000E41D00206C0600004B005B189C499B009A
:101580008B469C491F008A469B491E0089469B4901
:101590001D0088469A491C008C469C446146049173
:1015A00019007439FF39059196499B448C469A4439
:1015B000994498449C44723B783F773E763D753C15
:1015C000FF3BFF3FFF3EFF3DFF3C06935B460CA900
:1015D000C35CB8318B5453460CA9C35CE0318B54C7
:1015E0004B460CA9C35C0931FF318B5443460CA90F
:1015F000C35C3131FF318B54049B0CA9C35C59315E
:10160000FF318B54C35DC0270CA97F00C9198B54CF
:101610000CA9835DA931FF318B540CA9435DD131F5
:10162000FF318B54035D88240CA9F931FF318B54B1
:10163000059BA400C35C0CA909198B54634628348C
:10164000C35C0CA909198B54069B0CA9C35C2834F4
:1016500009198B540132282A01D100F0A5FC079BFF
:10166000995CE92901D100F051FC0B00203B5E2B75
:1016700082D90F230693013B9C46013B0593053B12
:101680000493013B9846013B9946013B9A46013B36
:101690000C240B250A2609279B4697E72068036838
:1016A000DE68564501D000F0B8FE0022564B57497F
:1016B000C318DA7000234E327C30C254CA5C002A50
:1016C00002D00133282BF8D1514B9B46E35CA34455
:1016D000002B44D0C8230593C33BA04699465C46E3
:1016E00026AE049629220021049805F0A3FA2000D2
:1016F00018F096FB0700282800D928273A00210077
:10170000049805F09DFA434618680368DB681E00DC
:10171000534501D000F08AFC4B4600223A49C318D9
:10172000049E5A5405993278043100234118002A46
:1017300008D0CA54F2185278002A02D00133282B5C
:10174000F7D10496E4192378002B07D0012399449C
:10175000059B283305934B46082BC3D14446584676
:1017600018F05EFB502103002A4A280006F01AFEFA
:1017700020680368DE68564501D000F0EBFD0022CA
:10178000214BC3189A722A78002A01D100F091FEE9
:1017900000239530FF30C254EA185278002A02D054
:1017A0000133282BF7D120680368DE681A4BE35811
:1017B000002B00D098E3194B564501D000F013FEE2
:1017C0000021114A821891731978002901D100F083
:1017D0008EFE8D250022AD00401901338154995CA5
:1017E000002900D134E60132282AF7D130E6C0467C
:1017F00084FEFFFF85FEFFFF86FEFFFF87FEFFFFE3
:1018000088FEFFFF8EFEFFFF4406000009A70110BF
:10181000A10E000018A701109C0E0000F4A50110F5
:1018200020680368DE68564501D000F0EEFD002216
:10183000AC4BAD49C318DA70002354327C30C2542B
:10184000CA5C002A02D00133282BF8D1A289002AD1
:1018500001D100F03FFE500801D100F038FE012117
:101860000B00084013401B18900834D008401B1888
:10187000D00830D008401B1810092CD008401B1885
:10188000500928D008401B18900924D008401B1884
:10189000D00920D008401B18100A1CD001405B184A
:1018A000500A18D0012108401B18900A13D0084094
:1018B0001B18D00A0FD008401B18100B0BD0084083
:1018C0001B18500B07D008401B18900B03D0014089
:1018D000C918D30BCB1850212800844A06F062FDAA
:1018E00020680368DE68564501D000F066FD0022DE
:1018F0007C4BC3189A712A780023F430002A07D051
:10190000C254EA185278002A02D00133282BF7D1AA
:10191000A289002A01D100F045FD500801D100F054
:1019200041FD93083ED001210E0008401640801969
:101930000B401B18D00830D008401B1810092CD0C1
:1019400008401B18500928D008401B18900924D0C3
:1019500008401B18D00920D008401B18100A1CD0C2
:1019600001405B18500A18D0012108401B18900A4A
:1019700013D008401B18D00A0FD008401B18100BBA
:101980000BD008401B18500B07D008401B18900BB9
:1019900003D00140C918D30BCB1802229A429241BE
:1019A0000A23134050212800514A06F0FBFC20680E
:1019B0000368DE68564501D000F0F7FC0022494B71
:1019C000C3181A722A7845300023FF30002A07D046
:1019D000C254EA185278002A02D00133282BF7D1DA
:1019E000A389002B47D0580801D100F07BFD0121CD
:1019F0000A0008401A4080189A0801D100F06DFDD5
:101A00000A401218D80830D00840121818092CD0F3
:101A100008401218580928D008401218980924D0F4
:101A200008401218D80920D008401218180A1CD0F3
:101A300001405218580A18D0012108401218980A7B
:101A400013D008401218D80A0FD008401218180BEB
:101A50000BD008401218580B07D008401218980BEA
:101A600003D001408A18DB0BD21893009B185B004F
:101A7000022A00D90A33502128001E4A06F092FC9F
:101A800020680368DE68564501D000F0EFFC0022B4
:101A9000144BC3189A722A78002A13D00023953069
:101AA000FF30C254EA185278002A02D00133282BA2
:101AB000F7D120680368DD68554501D000F0CEFC01
:101AC000084BC318002283215A7300238900401851
:101AD00009494532C254CA5C002A0FD00133282B71
:101AE000F8D10BE0440600009DA70110B0A701103B
:101AF000C0A70110D8A70110E9A70110206803684A
:101B0000DD68554501D000F0A7FC00229721594B14
:101B10008900C318DA730023401857495532C2545C
:101B2000CA5C002A00D193E40133282BF7D18FE45B
:101B3000524B5021E35828000133514A06F032FC41
:101B400020680368DE68564501D000F056FC00228C
:101B5000484BC318DA702A7800237C30002A07D05B
:101B6000C254EA185278002A02D00133282BF7D148
:101B7000424BE3585A1C91008B4693445A460B2A19
:101B800001D90B2293469E00F618B3454BD93D4B25
:101B9000049705933C4B9946B0464146059A013659
:101BA000B300D258049B28009B880092CB400121AF
:101BB0000B40013B56318B4378334A46019307393A
:101BC000330006F0EFFB2D4B2068E25893009B1882
:101BD0004246D11AE9231B01E3584A005B1A5942D5
:101BE0004B4101680532C968DFB28846514500D0D3
:101BF00025E2132A15D81F4B8118CF5429780029C4
:101C00000FD093009B18DB000433C0180023049FFF
:101C1000C154EA185178002902D00133282BF7D19A
:101C20000497B345B8D1194BE358002B00D1E1E23A
:101C3000174B20680268D568554501D000F01EFC9E
:101C400000210C4A821811741978002901D100F082
:101C50004EFCA1250022AD00401901338154995C4E
:101C6000002901D1FFF7F4FB0132282AF6D1FFF752
:101C7000EFFBC0464406000009A80110940E0000C6
:101C8000D0A6011040B70110F8A601109C0E00006C
:101C900088A501102068954B0268D668564500D08B
:101CA0007AE30021924A8218D1701978002909D06C
:101CB00000227C3001338154995C002902D001322A
:101CC000282AF8D1B988002901D100F00EFC4B0870
:101CD00001D100F019FC0122904640460A40034021
:101CE0009B188E0801D100F00AFC0640F618C808BF
:101CF00001D100F002FC434603409B190A099346B8
:101D0000049301D100F0F7FB42465F463A409B182E
:101D10004A09944601D100F0D7FB47463A409B1848
:101D20008A0900D1B3E33A409B18CA0900D1AEE357
:101D30003A409B180A0A00D1A9E3170042463A40EC
:101D40009B184F0A0122002F00D19CE31740DB199A
:101D50008F0A00D197E31740DB19CF0A00D192E335
:101D60001740DB190F0B00D18DE31740DB194F0B28
:101D700000D188E31740DB198F0B00D183E31740B4
:101D8000DB19CF0B00D17EE3024092195E4601338E
:101D900001273E40B6186046624692B2002828D01D
:101DA0003A40B6188A0924D03A40B618CA0920D059
:101DB0003A40B6180A0A1CD03A40B6184A0A18D057
:101DC0003A40B6188A0A14D03A40B618CA0A10D057
:101DD0003A40B6180A0B0CD03A40B6184A0B08D055
:101DE0003A40B618880B04D0012202409619C90B5C
:101DF0007618B10089194900022E00D90A313D4AEE
:101E0000A258002A00D19BE23B4801900091280093
:101E100050213A4A06F0C6FA20680368DE68564543
:101E200000D037E300220100314BA431C3181A71EE
:101E30002A780023002A08D0CA54EA185278002AC7
:101E400002D00133282BF7D120682D4B26AAC2CB14
:101E5000C2C21B6800271360264B26AEE2589B4681
:101E6000F0239946EA3B1D000492049A016853420C
:101E70005341CA68033390469F4200D348E2336817
:101E80009C46E9231B01E358DB1B59424B41DBB263
:101E9000D04500D032E2164A41198B546346197876
:101EA000002913D04B460433049301239C44049B24
:101EB0000022C31860469954815C002902D0013287
:101EC000282AF8D15B46E358206804935023013751
:101ED000023599440436C8E7064BE358002B00D17D
:101EE000D8E6084B2068D7E6074B65E468A50110E3
:101EF000440600009C0E000074A5011090A601107D
:101F000070B7011058A50110D4A50110D0239B0073
:101F1000C35C0CA9B8318B54DD4B0CA9C35C3131C7
:101F2000FF318B54D1230CA99B00C35C5931FF3185
:101F30008B54D84B0CA9C35C8131FF318B54D64BE9
:101F40000CA9C35CA931FF318B54D44B0CA9C35CE1
:101F5000D131FF318B54D22388249B000CA9C35C60
:101F6000F931FF318B54CE4BA400C35C0CA9091985
:101F70008B54CC4B2834C35C0CA909198B54CA4B25
:101F80002834C35C0CA909198B5408210CABE0332D
:101F900099541023693C0CA9FF3C09198B54013258
:101FA000282A01D0FFF75BFB099D0A9C2B78002BA8
:101FB00039D1BE4BBE4A02920193A02201230020D8
:101FC0000093089903940F33520001F0EFFC089B33
:101FD000013510330893079B283307930C9B9D42D0
:101FE00001D0FFF788FA0B9BC92098460E9BC822A8
:101FF0009B460F9B800019009200404404F020FE95
:102000002A005B4613CB13C203CB03C20022414616
:10201000A84BCA54C7239B009D44F0BCBB46B246A4
:10202000A946A046F0BDA24BA34AC4E74B461A01FD
:10203000002300210093049BB047FFF783FB2B0094
:10204000002112010097C047EBE5012200923032D7
:102050009A4BFF320021A8472368994A98461B688B
:102060001B69934201D1FFF730FA40469847D1E708
:1020700038009847FFF779F80022009211320021CA
:10208000FF32A847FFF700FA012300220093002146
:102090002B00B047FFF79AF800231022009300218D
:1020A0002B00C047874BE358002B01D0FFF7B4F853
:1020B000FFF7D3F820680368DE68564500D08BE14F
:1020C0000022814B8149C318DA7000234A327C30E8
:1020D000C254CA5C002A02D00133282BF8D17C4BB1
:1020E0005021E35828007B4A06F05CF92068036819
:1020F000DE68564500D068E100220100724BCC3109
:10210000C3185A712A780023002A08D0CA54EA1842
:102110005278002A02D00133282BF7D12068F4230B
:102120001B019B466C4B0026082598466B4F5B466F
:10213000E35C0122F3401A423FD00368DB68994612
:10214000AB1C0493D14569D1132D35DC00215E4BC6
:102150004219D154A9004919C900043141184E222D
:1021600000234046CA54C25C002A02D00133282B07
:10217000F8D180466B1C9C4620683B680268D56895
:102180006246554544D1132A16DC002581184E4A73
:102190008D54197800290FD0624692006244D20013
:1021A00004328018002201338154995C002902D046
:1021B0000132282AF8D12068049D01360837062EFE
:1021C000B5D10368DD6855452ED1002297213E4BDD
:1021D0008900C318DA730023401841494532C254BC
:1021E000CA5C002A01D1FFF733F90133282BF6D15D
:1021F000FFF72EF93B4B1CE5002200210092300036
:10220000394B2032C047FFF71EF8384BFFF706F96D
:10221000002112010091A8472068CDE70021344B2E
:102220002A010091C847A5E7324B00220092F03204
:102230000021A847FFF70CF9013B1193FFF7A0F825
:10224000119B002B01DAFFF7A9F8269F002F01DA76
:10225000FFF7A4F8FF1AFB17FA18FA21FF435A40B8
:1022600001231000FF17890090469F4303F002FEF0
:102270000191FA214046890003F0FCFD2D370090C2
:102280003B00502128001C4A06F08CF8FFF78EF81E
:10229000430300004503000046030000470300001D
:1022A000490300004A0300004B030000D5EEE400A0
:1022B0001C2918006C0600009FD9BA0070A80110F4
:1022C000C50300109C0E00004406000029A8011060
:1022D0003C0F0000E0A7011039A8011014B701104D
:1022E0004DA80110ACA5011070A6011018A6011090
:1022F00038A801104CA801106CA701100093002110
:1023000063462A01C047824B2068E3580493DDE509
:10231000524500D0C5E0002297217E4B8900C318AA
:10232000DA73002340187C493C32C254CA5C002A4C
:1023300001D1FFF78DF80133282BF6D1FFF788F88C
:10234000764862E50023C022009300212B00B047AD
:10235000FFF745F80023A022009300212B00B0478F
:10236000FFF721FA0022002100926D4BE032A847CE
:10237000FFF74DF8013B2693FFF710F800939022EA
:102380002B000021C047FEF7ECFF009360222B00DA
:102390000021B847FEF7BEFF002200210092303234
:1023A000B0478FE40023FFF7FDFA0023802200935B
:1023B00000212B00B047FFF713FB0023602200939E
:1023C00000212B00B047FFF7A3FA0023502200930F
:1023D00000212B00B047A1E6002200210092514BC2
:1023E0003032B0477BE6002200210092E032B04755
:1023F00020680368DD68FFF72EF800233022009381
:1024000000212B00B047FFF7B3FB00220021009210
:10241000454B3032B047FFF719FA002200210092F5
:10242000424B3032B047FFF74FF9002200210092B3
:102430003F4B3032B047FEF749FF354AA258002AD9
:1024400001D0FEF7F3FE3B4BE358042B00D937E6EF
:10245000394A9B00D3589F46384BE6E600220021BC
:102460000092374BD032A847FFF748FB0023A02249
:10247000009300212B00B047FFF71BFB00220092C6
:102480000132FF32D4E6024092190E0980E45E4622
:10249000049A7DE400234022009300212B00B047E2
:1024A000D2E4002200210092264BF032C047FEF712
:1024B000CFFF17496158002901D1FFF77CF99A73C2
:1024C0004521214BFFF785F90126049A60E4012399
:1024D000FFF701FA0023FFF7FEF983001B185B00EA
:1024E000FFF7C9FA0A23FFF7C6FA002387E4174B60
:1024F000E318FEF7B8FF01367BE4330079E40132DC
:102500009100891849007AE401230A2177E4C04642
:102510009C0E000044060000ADA601107CA5011031
:1025200084A7011028A801109CA7011008A701107A
:102530002CA701108C0E0000A0B6011008A80110F5
:10254000E8A70110ACA60110D4A50110120F0000DD
:10255000F0B5424C424BA54404006B4418000021E6
:10256000404A04F067FB25682B685E693E4B9E423B
:102570004DD13E4BEB5C002B39D0002101A8FEF77A
:10258000D3FB3B4B01216B441800FEF7CDFB394ACE
:1025900001AB9B5C032B2AD0684635494018825C0E
:1025A000032A24D0012B48D0012A43D1E0231B0168
:1025B000C3582F4A01206A441100CE22D200A850ED
:1025C0002D4A0C31AB50DF252C4B2D016B441D6087
:1025D000234B2A006B44180004F032FB2900204BE7
:1025E000221D6B441800FEF7BBF9002809D1EA232D
:1025F00001221B01E254224B22492432E01804F04C
:102600001FFB2000FEF78CFD1F4B9D44F0BD802278
:102610001A4B134928006B4452016944B047022801
:10262000E5D00128EDD16B4680220D4952015B189F
:102630009958D4E71343E4D0D9E7E02601AB36013B
:1026400000209B5901A9012AB7D16A46084FD21927
:1026500092599A42B1D91300ABE7C046E4D3FFFFC9
:10266000141C000004100000910E00106D06000004
:102670000C0E0000040E000074060000142C000074
:10268000120F000094A801101C2C0000F0B5454664
:10269000DE4657464E46E0B5954C0D00A544040075
:1026A0001B291ED0934B29229C468444002160465E
:1026B000E14604F0BFFA904BE358052B06D88F4A49
:1026C0009B00D3589F460D2D00D12AE22000FEF733
:1026D00027FD8B4B9D44F0BCBB46B246A946A046A5
:1026E000F0BD0023844A0021835004328350814B83
:1026F0002922C01804F09EFA2000FEF711FDE8E739
:102700000D2DE3D1A089002801D100F017FC41086C
:1027100001D100F00BFF0122130011400340C91842
:10272000830801D100F015FF13405B18C10830D0B9
:1027300011405B1801092CD011405B18410928D0C9
:1027400011405B18810924D011405B18C10920D0C9
:102750000A409B18010A1CD0012211405B18410A53
:1027600017D011405B18810A13D011405B18C10AC1
:102770000FD011405B18010B0BD011405B18410BBF
:1027800007D011405B18810B03D00A40D218C30B4D
:10279000D3189A00D21852009246022B01D90A325D
:1027A0009246A3689846013306D05346DB436268DD
:1027B00002929A4200D8CAE31C224846514904F0CA
:1027C0003FFA83E7504B9D4200D1DCE24F4B9D42E4
:1027D00000D1C2E14E4BE358002B00D1E2E233209E
:1027E0000321FA229200954200D1A5E1494A95427F
:1027F00000D0F3E2E9252D016059013003F062FBBE
:10280000615163E7424BE3581E1E00D09DE10D2D40
:1028100000D191E0404BE01817F002FB082D00D1E9
:10282000C3E27F2D00D1C0E22B00203B5E2B00D9FC
:102830004CE75F2800D949E7374B2018C554374B80
:10284000C018067042E7324BE3581E1E00D07CE1F0
:102850000D2D00D189E100DC45E37F2D01D100F091
:102860004DFE01DD00F0FDFD2A002C3A0D2A00D9B5
:102870002CE72B4BD340DB0700D427E7294B2A4812
:10288000E358DB00C01820181F0017F0C9FA06280B
:1028900000D91BE7244AE3191B189D54234A9B18AF
:1028A0001E7013E7224B0521E05883001B18DA1F26
:1028B000042A01D80631C91A1E4AAA18012A00D8CA
:1028C00052E2FA229200954200D135E1114A954236
:1028D00090D00F4AA258002A01D100F0BFFC0D2D64
:1028E00000D134E1313D082D00D9EFE62FE1C0469B
:1028F000E4C2FFFF120F00008C0E0000B4B60110FE
:102900001C3D00007CA90110EA030000EB0300005D
:102910009C0E0000E9030000A10E0000A20E0000C2
:10292000F53F0000980E0000020F0000030F0000AA
:10293000940E000016FCFFFFF24D04ABED18231DB2
:102940001900F14A28009B4604F07AF9EF4BF04851
:10295000E11804ABC018612204F072F9EA231B01EC
:10296000E35C002B01D000F03DFCEA4B04AA9F1869
:1029700038002900FDF71EFF8022266852013368C7
:1029800003979B69BF58E44AB246934201D000F0D6
:10299000EDFDE24BF35C002B01D100F0A8FDE04B14
:1029A000F35C002B01D000F0A2FDDF231B019F424E
:1029B00001D000F09CFDDB4AB358013301D100F097
:1029C00096FDD9480BF0EAFCF723184201D000F03D
:1029D0008EFDCE23DB00F35800215A425341D8B27A
:1029E0000290E022A1A88046120104F023F940469B
:1029F000CE4BCC4AA193B35803990133A2933A002A
:102A00000781A4A804F01CF9C94B04AA9B189C4692
:102A10000123260001214446C64A5B422078013446
:102A200058404308084040421040434058080B407B
:102A30005B42134058404308084040421040434026
:102A400058080B405B42134058404308084040423E
:102A50001040434058080B405B4213405840430825
:102A6000084040421040434058080B405B4213402E
:102A700043406445D2D1DB433400AD4A04A95350EE
:102A8000029AAD4B9100C9580A2208A80AF07AFCB4
:102A9000002801D000F02BFDE022414607AB1201D7
:102AA000079008A80BF074F9070008A80BF0E0FAEB
:102AB000060008A80BF034FCE021079B09010393F2
:102AC0008B4201D000F00FFD3A0003003243134364
:102AD000DBB2002B01D000F006FD984B04AA9E1833
:102AE00030000299FEF720F9954B3000F35C012B82
:102AF00001D000F0F8FC4146039A16F029FF0028A7
:102B000001D000F0F0FCCE235146029ADB00CA50FF
:102B1000844A8B5801338B5029005846894A04F067
:102B20008FF80023884A0021A3500432A35048465E
:102B3000292204F07FF8C9E5E9252D016059013803
:102B4000401803F0BFF96151C0E50D2DE9D01D22F9
:102B500048467E4904F074F8B8E500237C4AA35047
:102B60000C3AA3507B4AA350B0E5664D04ABED1878
:102B7000231D19002800644A9B4604F061F8764B37
:102B8000E35C002B01D100F0CDFC744904ABC91803
:102B9000714BE018FDF796FD002801D100F083FC91
:102BA0006E4B04AA9E586E4BE35C002B01D100F0E3
:102BB000D6FC6C4904ABC918694BE018FDF782FDDF
:102BC000002801D100F06FFC664B04AA9A58EA2352
:102BD0001B01E35C002B00D004E304A98C465F4B8F
:102BE000290063441E605F4B63441A60494B634491
:102BF00018001F00FDF7DEFD8022266852013368B1
:102C000003979B69BF58444AB246934201D000F0F3
:102C1000ADFC424BF35C002B01D100F068FC404B53
:102C2000F35C002B01D000F062FCDF231B019F420C
:102C300001D000F05CFC3B4AB358013301D100F0F5
:102C400056FC39480BF0AAFBF72302001A4011008A
:102C5000184201D000F04BFCCE23DB00F3585A425F
:102C60005341D8B20290E022A1A88046120103F09D
:102C7000E1FF40462D4B2B4AA193B35803990133F2
:102C80003A00A2930781A4A803F0DAFF01232700EA
:102C900001214446274A5B42207804AE584043084D
:102CA000084040421040434058080B405B421340EC
:102CB00058404308084040421040434058080B40E9
:102CC0005B42134058404308084040421040434094
:102CD00058080B405B4213405840430808404042AC
:102CE0001040434058080B405B421340434010489B
:102CF00001348019A042CFD1DB430D4A3C009351EF
:102D0000BEE6C0467C1E0000880E0000A10E00003A
:102D1000901E0000042D0000610F00106D060000E1
:102D20006E0600007406000050A501104C50523190
:102D3000701000002083B8ED0CB701107410000073
:102D4000040E0000860E00008C0E0000F0A801109A
:102D50009C0E0000940E0000020F0000881E000070
:102D60000A0F00008C1E0000664B0321ED186B1E3D
:102D70009D410135401903F0A5F80022624BE15056
:102D8000043BE250A2E46149614A6358A25C934269
:102D900015D20133E922635000231201A3505A4A8D
:102DA000A35093E4342004211BE5002800D18DE4D6
:102DB000EA2320181B01C0180023037086E4002AB0
:102DC00000D155E3534B29214846534A05F0EAFA0E
:102DD0004E4BE358002B00D178E43320302D01DD39
:102DE00000F041FC0D2D00D070E4E9231B01E558F3
:102DF0004A4A04ABD2181100494BAD00C1CBC1C146
:102E00001B6848460B60AD580022464B0021E55038
:102E10000433E250293203F00DFF022D00D129E3E3
:102E2000032D00D052E400223F4BE2503F4B9C4622
:102E3000364BA444E3586746002B00D193E33C4A49
:102E40001F21A05CC01A1F3003F03CF874234B43D1
:102E50007C33E3189D6808220021380003F0EAFE65
:102E6000002D00DB8BE3334B9C46284BA444E358F6
:102E70006746002B34D02E4A1F21A05CC01A1F3099
:102E800003F020F874234B437C33E318082200211D
:102E90003800DD6803F0CEFE01239846002D01DAEC
:102EA000FFF714FCFA212800890002F0E3FFFA2161
:102EB00006008900280002F0DDFF33000091380091
:102EC00008211D4A05F06EFA4346012B01D1FFF798
:102ED000FDFB3B0008331F000C4BE358002BCAD10D
:102EE00023000833D2E7082D00D107E3092D01D0D4
:102EF000FFF7ECFB01230C4AA1585B1AA350FFF724
:102F0000E5FBC04615FCFFFF940E00009C0E000080
:102F1000890E0000BCA80110ECA80110042D0000CF
:102F200080B701108C0E0000980E0000020F000008
:102F3000880E00000A0F000044A50110A3689846FF
:102F4000013300D138E46368029300239A46A94D07
:102F500004ABED18231D1900A74A28009B4603F077
:102F60006FFE7420A54E04A9AB5D71225843A44B9B
:102F7000C01804ABC018A34BC018F4235B01591848
:102F800003F05EFEA85D1F21013002F09BFF9E4A08
:102F9000A955AB5C1E2B01D80133AB545646029B9E
:102FA000944A9A4F9A48F61804ABFF18D65000215D
:102FB0007022C018039703F03DFE04A98C4601233C
:102FC000F420944A3B606244023B1360924A400101
:102FD0006244136039007122604403F031FE4246BE
:102FE000531C6B60029B1D2B00D963E21D2E00D980
:102FF000A0E200230493A5235B009E4203D3202379
:10300000049A1A430492854BE358002B00D09EE5A6
:10301000EA231B01E35C002B00D0E3E0039F2900BF
:103020003800FDF7C7FB80222668520133680397FA
:103030009B69BF587A4A0296934200D0B8E2794B16
:10304000F35C002B00D152E2774BF35C002B00D0F5
:103050004DE2DF231B019F4200D048E2734BF3583F
:10306000013300D143E272480BF098F9F7230200D4
:103070001A401100184200D039E2CE23DB00F35889
:10308000A1A85A425341DAB20592E02280461201C9
:1030900003F0D0FD4246674B0399A193634BA4A86C
:1030A000F35826000133A29317813A0003F0C8FDBC
:1030B000614B04AA9B189C460123012144465F4AA8
:1030C0005B42207801345840430808404042104099
:1030D000434058080B405B421340584043080840A7
:1030E00040421040434058080B405B421340584058
:1030F0004308084040421040434058080B405B42A0
:10310000134058404308084040421040434058088C
:103110000B405B42134043406445D2D1DB43464AF7
:1031200004A95350059A464B9100C9580A2208A891
:1031300034000AF027F9002800D0D8E1E022414607
:1031400007AB1201079008A80AF022FE070008A8A2
:103150000AF08EFF060008A80BF0E2F8E021079BBA
:10316000090103938B4200D03CE23A000300324352
:103170001343DBB2002B00D034E2324B04AA9E187A
:1031800030000599FDF7D0FD2F4B3000F35C012B8B
:1031900000D027E24146039A16F0DAFB002800D05F
:1031A00020E2CE230299059ADB00CA501F4A8B58B1
:1031B00001338B5029005846244A03F041FD524602
:1031C000234B0021E250049A0433E2540522214BA0
:1031D0004846E25000220433E250293203F02AFD2F
:1031E000FFF774FA282248461B4903F029FDFFF730
:1031F0006DFAC0467C1E0000880E0000840E0000A0
:10320000083D0000ECE1FFFF850E0000042D0000EA
:10321000082D00000C2D0000102D00009C0E000059
:10322000610F00106D0600006E06000074060000BD
:1032300050A501104C505231701000002083B8EDA1
:103240000CB7011074100000040E0000860E000080
:103250003C0F00008C0E000010A901100D2D00D1B4
:103260003BE1313DAA46082D01D9FFF72FFAE24D87
:1032700004ABED18231D19002800E04A9B4603F01B
:10328000DFFCEA231B01E35C002BABD15246012398
:103290009340A2892900534002932B81D84B04AA62
:1032A0009F183800FDF786FA80222668520133689D
:1032B00003979B69BF58D34A0496934200D07FE19D
:1032C000D14BF35C002B00D111E1D04BF35C002B10
:1032D00000D00CE1DF231B019F4200D007E1CC4A64
:1032E000B358013300D102E1CA480BF057F8F72375
:1032F00002001A401100184200D0F8E0CE23DB0093
:10330000F3585A425341D8B20590E022A1A8804612
:10331000120103F08FFC4046BF4BBD4AA193B35846
:1033200003990133A2933A000781A4A803F088FC13
:10333000BA4B04AA9B182600012440469C46012152
:10334000B74A64420378013063405C080B405B423B
:10335000134063405C080B405B42134063405C08D1
:103360000B405B42134063405C080B405B421340E0
:1033700063405C080B405B42134063405C080B40B9
:103380005B4213405C4063080C406442144063405D
:103390005C080B405B4213405C406045D2D1E34384
:1033A0009E4A04A95350059A9E4B9100C9580A227F
:1033B00008A8340009F0E6FF002800D097E0E022DA
:1033C000414607AB1201079008A80AF0E1FC07008C
:1033D00008A80AF04DFE060008A80AF0A1FFE021A7
:1033E000079B090103938B4200D000E13A000300E0
:1033F00032431343DBB2002B00D0F8E08A4B04AA1F
:103400009E1830000599FDF78FFC884B3000F35C67
:10341000012B00D0EBE04146039A16F099FA002800
:1034200000D0E4E0CE230499059ADB00CA50784A24
:103430008B5801338B50029B7D4A2B8129005846C3
:1034400003F0FEFB0521504602F03CFD794B0521BF
:10345000E050504602F036FDE9231B01E150FFF732
:1034600035F9754BED18012D00D843E5FFF72EF91E
:10347000724BA8E42100724B0831E358002B0AD0AC
:103480005E4A1F21A05CC01A1F3002F01BFD74238E
:1034900059437C3161186B4B61221031E01803F005
:1034A000CFFBFFF713F923224846674903F0C8FB17
:1034B000FFF70CF9452B00D891E0772B00D887E077
:1034C000B32B6ED9F92B62D90022A5230492029A5C
:1034D0005B009A4200D396E58DE5E9221201A258DD
:1034E0009B189A46C3E601225146484BCA541E22F5
:1034F0004846564903F0A4FBFFF7E8F8544BE5585B
:10350000544BED00E818201816F08AFC002801D171
:10351000FFF7DCF8504A63191B189B1800221A7039
:10352000FFF7D4F801267642FFF73DFB0A239A46BF
:10353000FFF737F901230493452E00D85BE5772E7A
:1035400000D88BE0B32E1DD90E23049A1A4304929F
:1035500059E58B005B185B009A46FFF722F90122C0
:103560005242FFF734FB2300083373E43A0050461D
:1035700003999847002801D0FFF7CEFAB7E7002358
:1035800098468FE40623049A1A43049233E50023F5
:103590000493F92E00D836E51023049A1A430492B6
:1035A00029E50023B32E18D908221A430492F0E724
:1035B00030003A0003999847002800D0FAE596E7D2
:1035C00030003A0003999847002800D033E78EE78F
:1035D000772E4DD90423B32EE6D804930BE50023B0
:1035E0000493A9E70122094B0299CA547FE70122FB
:1035F000064B0499CA547AE77C1E0000880E00002E
:10360000042D0000610F00106D0600006E06000022
:103610007406000050A501104C505231701000008B
:103620002083B8ED0CB7011074100000040E0000E8
:10363000860E0000940E000018FCFFFFD8A80110B1
:103640009C0E0000A10E000058A9011038A901101D
:10365000980E0000020F0000010F00000223049AE0
:103660001A430492CFE4854205DC313DFFF7C0FBED
:1036700000230493C7E4342D01D0FFF727F8002B73
:1036800001D1FFF723F8FFF762FAC04670B5604832
:1036900084B00CF047F900280BD15E4803AB02AAB6
:1036A00001A902F0CFF800280AD15B48594900F07F
:1036B000F1FF5A4814F012FE55480CF04FF9ECE7B0
:1036C000039A0299019801F0E3FF00F0D9FE00F09F
:1036D000ADFE142000F0C0FFD02380221B06520351
:1036E0005A625A610BF050FF002828D14C4D4D48CA
:1036F0000CF018F94C4C002846D12000FEF728FFAA
:103700004A4D00F0DFFE0100B7280BDCB02824DDB5
:10371000B139062906D889006B589F4644492000D4
:10372000FEF7B4FF052001F04DFDEAE74149F6E759
:10373000FA218900F3E74049F1E71B21EFE7002078
:1037400000F094F801223D49383009F01BFD434256
:103750005841334D3A4BE854C9E70D28DFD005DC1A
:103760000828DCD00A2807D10D21D8E71B28D6D09D
:103770007F2804D10821D2E70928D0D0D2E703005E
:10378000203B5E2BCBD9CDE7200000212D4A20C065
:1037900003F050FA01225242D3172261636184235D
:1037A000E25004330121E25023002648A160E16782
:1037B000F033201819609A60DA6074338342F9D1CB
:1037C0000025214B2900E5500433E5501F4B6122B1
:1037D000E5501F4BE5501F4BE5500433E5541E4B9D
:1037E000E01803F027FA1D4B2900E018102203F01F
:1037F00021FA1B4B2922E018290003F01BFA194B70
:103800000848E5500433E5540CF0A8F875E7C046C5
:10381000003800208807020098A9011085030010D5
:103820006C140020FC37002010240020CCB60110BE
:10383000E9030000EA030000EB030000CCA901103B
:103840006D060000880E00008C0E0000940E000033
:10385000980E00009C0E0000A10E0000020F000058
:10386000120F00003C0F000001207047002801D11A
:10387000014870470020FCE7E81A0020012070474B
:10388000002801D1014870470020FCE7A01D00205E
:103890000EB4F0B582B008AB01936B46D0248027FC
:1038A0008025DE1C36232406AD01FF013370310074
:1038B000A7610122A5610A4816F0D6FD019B65614A
:1038C0001B6801223370310067610548A56116F05D
:1038D000CBFD656102B0F0BC08BC03B01847C04620
:1038E00000000440F0B5CE4647461E00D024802399
:1038F00080B5240683B09B018025A3610F002A2395
:10390000694681469046ED010122A56101312648B4
:103910000B7016F0A9FD40464B4601121A12DBB29D
:103920001B02D2B2C9B209041A430A4303061A435E
:10393000656101A901921C48042216F095FD2B2314
:103940006A46A56193706B460122991C164816F0D1
:103950008BFD3B123212FFB23F02DBB2D2B2120435
:103960003B43134336063343656104220E4801A9E5
:10397000019316F079FD0A9BA561002B12D02C2330
:103980006A46D3706B460122D91C074816F06CFDBD
:10399000D02380221B06D2015A6103B0C0BCB946B5
:1039A000B046F0BD2E23EBE700000440F0B54E46D4
:1039B00057464546DE46E0B593B00E001C99070019
:1039C0008946BD490A9088460024095F07920D93F5
:1039D000814200DCC1E0B94809900024005FB04298
:1039E00000DCBAE04C466243D21900D5B5E063432F
:1039F000F34200D5B1E0F443E41734402500FC4322
:103A0000013AE4173C40914200DC4A1E5B19013B3D
:103A1000984200DCA8E01D990EA8091401721D99B6
:103A2000091241721D99817211A98A4650461E9948
:103A3000091401701E99091241701E9981700121AB
:103A4000200000912900FFF74DFF0D9A002A7FDD2D
:103A50000798030053430B931E9B013300D185E06D
:103A60004B46002B74DD0023C3461D000200C846F0
:103A7000340046440E95069625004646079B05925F
:103A8000D71A0C972B000135002B54DB099B002221
:103A90009B5EAB425CDB079B002B4CDD0C9B0B9AC7
:103AA0001900013A0A9B0492089500229146002BC6
:103AB00000DAD7E007200127049A1C00521A0240BE
:103AC00097404A46D51ACA1090464A460393C146C3
:103AD0000292B8462F005D468B4607E0032251460E
:103AE000774816F0C1FC3B199E4212DD0022AB5E06
:103AF0000134A342F7DB4A461F9B9B5C42461A42B5
:103B0000ECD003226E4810A916F0AEFC3B199E4281
:103B1000ECDC029B59469946AB460022039B4E457E
:103B200002DD4846721E121A0133D318059A01317C
:103B30009142BAD1089D069B9D42A3D1079B059A4D
:103B40000E9DD2180D9B0135B046069EAB428FD11B
:103B5000D02380221B0692015A6113B0F0BCBB46F1
:103B6000B246A946A046F0BD431E54E74B46002B83
:103B7000EEDD002300271D000590059B079A0F9599
:103B80009B1A9B464B46F4185B464D46C346089429
:103B90000E9333000136002B4BDB099B00229B5E0A
:103BA000B342D5DB0B9A0E99013A0692079A0A9B0B
:103BB000002A3EDD0C96002B6ADB00220292069A58
:103BC0001C00501A0722024001209040029A0391E3
:103BD000D61ACA10B14690465E4683460493002228
:103BE000B35E0134A34212DB42461F9B9B5C5A46E4
:103BF0001A422DD150467A78B9783B7801704270DC
:103C00008370514603222E4816F02EFC03374B4694
:103C10001B199D42E3DC029AB3460399049B95422B
:103C20001CDC00220133D318059A01319142C2D124
:103C30000C9E089BB342ACD1059B079AA9469B18E2
:103C40000F9D05930D9B0135D846AB4295D17FE77B
:103C5000032210A91A4816F007FCD7E710006A1EC5
:103C6000121ADFE7F218501E1043C017002402405A
:103C70009A4201DDD41A013C581C2418D01A9A42E9
:103C800000DC012081462300864200DD12E74DE77B
:103C9000EA18501E1043C0170240D01A0400934285
:103CA00000DB012402940138934200DB0020013341
:103CB000C318A54283DCB7E7A83B0020AA3B00203D
:103CC0000000044070B5D0248025002200210F2080
:103CD00000F08EFC2D022406002201210F2000F0AE
:103CE00087FC65610021114801F0F6F900220021EE
:103CF0000F2000F07DFC012200210F2000F078FC55
:103D0000A5610021094801F0E7F9002200210F20F8
:103D100000F06EFC002201210F2000F069FC6561BB
:103D20000021034801F0D8F970BDC04610270000FB
:103D3000400D0300F0B583B0FFF7C4FFA022FE4B97
:103D400052001A80FD4BD0241A806A46E023802658
:103D50008025D3716B462406AD01F601A661D91DFD
:103D60000122A561F64816F07FFB00276B466561CE
:103D7000D91DDF7101226661F148A56116F074FB5F
:103D80006A4603216561D171694666610122A561B8
:103D90000731EB4816F068FB69460920656101228E
:103DA000C87166610731A561E54816F05DFB08231F
:103DB00068466561C11DC37101226661E048A56165
:103DC00016F052FB684616226561C11DC27166611C
:103DD0000122A561DA4816F047FB6A460A216561AF
:103DE000D171694666610122A5610731D44816F098
:103DF0003BFB3F236A46694665610731D371D04872
:103E000066610122A56116F02FFB78236A46694698
:103E100065610731D371CA4866610122A56116F058
:103E200023FB4C236A46694665610731D371C44858
:103E300066610122A56116F017FB694609226561DA
:103E400007310A70BE486661083AA56116F00CFB9E
:103E50006A460A206561D07168466661C11D01220B
:103E6000A561B74816F000FB6A4608216561D1716B
:103E7000694666610122A5610731B14816F0F4FA7E
:103E80006A4616216561D171694666610122A561A4
:103E90000731AB4816F0E8FA1A236A4669466561AD
:103EA0000731D371A64866610122A56116F0DCFADC
:103EB00069460F2065610122C87166610731A561FD
:103EC0009F4816F0D1FAE123694665610122CB7162
:103ED0009B48A6610731A56116F0C6FA694665617F
:103EE0000122CF71964866610731A56116F0BCFAD0
:103EF0006946162065610122C87166610731A561B6
:103F00008F4816F0B1FA1923694665610122CB7119
:103F10008B4866610731A56116F0A6FA694603234E
:103F200065610122CB71864866610731A56116F093
:103F30009BFA6B460F2165610122D9718048666149
:103F4000D91DA56116F090FA052369466561012225
:103F5000CB717B4866610731A56116F085FA322383
:103F6000694665610122CB71754866610731A561BB
:103F700016F07AFA4523694665610122CB717048D3
:103F800066610731A56116F06FFA462369466561DF
:103F90000122CB716A4866610731A56116F064FAA7
:103FA0000423694665610122CB716548666107316A
:103FB000A56116F059FA0E23694665610122CB719D
:103FC0005F4866610731A56116F04EFA0D23694618
:103FD00065610122CB715A4866610731A56116F00F
:103FE00043FA3523694665610122CB715448666105
:103FF0000731A56116F038FA372369466561012259
:10400000CB714F4866610731A56116F02DFA6B46FA
:104010000F226561D91DDA71494866610E3AA561C2
:1040200016F022FA6A46C0236561D3716B46A66119
:10403000D91D0122A561424816F016FA6A461723D7
:104040006561D3716B466661D91D0122A5613C484B
:1040500016F00AFA6A4615236561D3716B466661EC
:10406000D91D0122A561364816F0FEF96A46C12322
:104070006561D3716B46A661D91D0122A5613048E7
:1040800016F0F2F96A4641236561D3716B466661A9
:10409000D91D0122A5612A4816F0E6F96A46C52312
:1040A0006561D3716B46A661D91D0122A5612448C3
:1040B00016F0DAF96B466561D91DDF710122666180
:1040C0001F48A56116F0D0F96A4612236561D371C5
:1040D0006B466661D91D0122A561194816F0C4F925
:1040E0006A4680236561D3716B466661D91D0122E2
:1040F000A561134816F0B8F96A4636216561D17199
:104100006946A6610122A56107310D4816F0ACF998
:1041100048236A46694665610731D371084866617C
:104120000122A56116F0A0F93A236A466946656145
:104130000731D37106E0C046A83B0020AA3B00200F
:10414000000004409848A6610122A56116F08CF990
:1041500066236A46694665610731D3719248666194
:104160000122A56116F080F9B0236A4669466561AF
:104170000731D3718C48A6610122A56116F074F94C
:104180006A46694665610731D771874866610122D1
:10419000A56116F069F9B1236A4669466561073180
:1041A000D3718148A6610122A56116F05DF9A023B3
:1041B0006A46694665610731D3717B4866610122B1
:1041C000A56116F051F921236A46694665610731F8
:1041D000D3717548A6610122A56116F045F9B42393
:1041E0006A46694665610731D3716F48A66101224D
:1041F000A56116F039F96A4602216561D1716946F7
:1042000066610122A5610731674816F02DF9B623D2
:104210006A46694665610731D3716348A661012228
:10422000A56116F021F96A4602216561D1716946DE
:1042300066610122A56107315B4816F015F96A46EF
:1042400002216561D171694666610122A56107316C
:10425000554816F009F93B236A46694665610731FE
:10426000D371514866610122A56116F0FDF8B723AC
:104270006A46694665610731D3714B48A6610122E0
:10428000A56116F0F1F8C6236A46694665610731F3
:10429000D371454866610122A56116F0E5F8E9236E
:1042A0006A46694665610731D3713F48A6610122BC
:1042B000A56116F0D9F86A46694665610731D7717C
:1042C000394866610122A56116F0CEF8F7236A46E7
:1042D000694665610731D3713348A6610122A56142
:1042E00016F0C2F8A9236A46694665610731D371A1
:1042F0002D4866610122A56116F0B6F851236A4681
:10430000694665610731D371274866610122A5615D
:1043100016F0AAF82C236A46694665610731D37105
:10432000214866610122A56116F09EF882236A4643
:10433000694665610731D3711B4866610122A56139
:1043400016F092F811236A46694665610731D37108
:1043500015480122A661A56116F086F878206561EE
:1043600000F030FF29236A466946D37107310122E4
:10437000A6610D48A56116F077F87820656100F018
:1043800021FF6A463623D3716B46A661D91D0122EF
:10439000A561054816F068F84822012136206561BC
:1043A000FFF776FA03B0F0BD0000044070B50A20B4
:1043B00000F052F90B2000F04FF90C2000F04CF9FE
:1043C0000D2000F049F90E2000F046F90F2000F012
:1043D00043F9D02480232406DB00636280231B0181
:1043E0006362802680238025DB01B6012D02666290
:1043F0000C4963620C48656204F0DEF901210A2071
:1044000000F0DEF801210B2000F0DAF801210C2089
:1044100000F0D6F801210C2000F0FCF8666165611F
:1044200070BDC04640787D010000044010B5FFF724
:10443000BDFFFFF77FFC0B4B0B4C1A680B4B117841
:10444000527819800A4B1A800A4B0020185E01F03E
:1044500011FDFF22084B12021A600022074B207048
:104460001A6010BDE41D0020B23B0020A63B0020D6
:10447000A43B0020A83B0020743B0020703B0020A0
:1044800010B50321072000F09BF80321062000F05F
:1044900097F80949094804F0F9FB00220121072097
:1044A00000F0A6F800220121062000F0A1F8012268
:1044B000034B1A7010BDC04610270000701E00206C
:1044C000AE3B002030B587B000236A46D382093363
:1044D0001375324B1B78002B3AD000F09DFF002360
:1044E0002F4A304C80185941002935DB00230290B7
:1044F000039100931F212000013305AA04F0EEFB75
:10450000033043D8102000F05DFE00F085FF00234B
:10451000234A80185941002922DB002516220290E7
:10452000039102231F21200000956A4404F0F6FB4A
:1045300003302FD86B46D88A002809D01A4B9842EE
:1045400016D01A4B98420FD0FF230340012B12D0F4
:104550000120404207B030BD012015494042C5E767
:10456000012013494042D8E70122124B1A60EFE7BD
:10457000104B1D60ECE7000A0300613B192BE9D8E2
:104580000C4B1B68002BE5D06038E3E70A4804F0C9
:10459000F5F8DDE7094804F0F1F8D9E7AE3B002073
:1045A00020A10700701E0020037E0000027E000094
:1045B000FFFFFF7F603B0020F0AA011010AB01104D
:1045C00010B54024074A83009A181268C00054406E
:1045D000C0222240044C1B191A60044BC0184160D1
:1045E00010BDC04604C0014004D00140004001405D
:1045F000064B8000C3181B68C90092000A435A404A
:104600000C231340024A80180360704704C0014025
:1046100004D001408000002904D0054BC0180223BB
:1046200003607047034BC01802230360F9E7C046DC
:1046300004E0014004F00140054B8000C3181B68F2
:10464000090159403023034A0B408018036070472A
:1046500004C0014004D001400123D022834012064F
:1046600093629361084A83009A181168402251406E
:1046700080320A400549C0005B181A60044BC0181C
:10468000052343607047C04604C0014004D0014088
:10469000004001400FB400B5084883B004F06EF844
:1046A000049B002B07D005A91800019103F08EFE92
:1046B000034804F063F8012003F0A0FE34AB0110BE
:1046C00044AB011070B58C461600EFF3108472B63F
:1046D0000F490B68002BFCD0BFF35F8F6346DB08EC
:1046E000C5180722C05C63461A40012393401A0094
:1046F0000240034207D118432870BFF35F8F0A605E
:1047000084F3108870BD61463000FFF7C3FFC046D8
:104710002C0100D0F8B5CE4647468C4680B51C002B
:10472000EFF3108872B61C490B68002BFCD0BFF366
:104730005F8FA24221D80723994602E001329442BA
:1047400018D34946012611408E40D308C718C35CD0
:104750001E42F3D1100033433B70BFF35F8F002242
:104760000D4B1A6088F3108800280EDBC0BCB946D8
:10477000B046F8BD01204042EFE7BFF35F8F002352
:104780000B6088F31088012040426346002BEDD077
:104790000898FFF77FFFC0462C0100D0044A10782C
:1047A000431CDBB2172B00D9102313707047C0468F
:1047B000E81D00200021044B044ABFF35F8F02C3B1
:1047C0009342FAD17047C046000100D0800100D06A
:1047D000084B094A1360094A1360094A1360094AE1
:1047E0001360094A1360094A1360094A1360094AB1
:1047F000136070478080808000E400E004E400E003
:1048000008E400E00CE400E010E400E014E400E060
:1048100018E400E01CE400E01F2318401E3B834026
:10482000002905D0C021044A490053501360704745
:10483000802201498B50FAE700E100E070B50D00DD
:10484000EFF3108672B60F4A1368002BFCD0BFF34B
:104850005F8F0D4B10309B6884001B590B4A9342AD
:1048600003D09D4201D001F0D9F9074B9B681D513F
:10487000BFF35F8FBFF35F8F0022024B1A6086F396
:10488000108870BD240100D000ED00E0C1010010CF
:10489000F0B5DE4657464E464546E0B5824683B003
:1048A0008B461700EFF3108872B6604A1368002B2E
:1048B000FCD0BFF35F8F00255D4B5D579946002DFF
:1048C00000DA9AE04A466B005A4C5E19B600019332
:1048D000A31900939B791370574B9A685346103372
:1048E0009B00D15899460B1B2F2B32D9534B994221
:1048F00000D098E0019B0236ED18514BAD00635398
:10490000504BA619043B9B1B4F4A1B055B0D6519B9
:1049100013436B804D4B0121AB80FF23AB715B4692
:10492000AB60009BEF710B4319004A46424B9B68FA
:104930009950BFF35F8FBFF35F8F00223B4B1A602C
:1049400088F3108803B0F0BCBB46B246A946A04627
:10495000F0BD01200A008243D379B446BB422DD872
:104960003B4BB51C190013001B1B5B415943090D40
:104970008C46334B6519A353324B0099043B5B1BA8
:104980001B05314D5B0D2B4304364B80A619131FBD
:104990009B1B1B055B0D1D4363468B715B468B6048
:1049A0002C4B8D80CF7113600143BEE75800C018B7
:1049B00080002018C679BE4225D902000623D356AE
:1049C000002BF3DA9A46131D9C4623486346009E4B
:1049D0009571043EF61A36051B4B760D1E43019B5E
:1049E00096805A1953469200A418A3715B46194A3F
:1049F000A0802260E771A36097E701F00FF900251E
:104A00004B465D575EE766469A46131D9C46908866
:104A1000043640050015A6196044801B00050A4EA7
:104A2000400D3043D2E701F0F9F863E7240100D0EC
:104A3000B13B0020EC1D002000ED00E0C1010010A2
:104A400000A1FFFF1C1E002000E0FFFF01BDFFFFD3
:104A5000AAAA00000148804701BD000001230343CA
:104A600070B59C46EFF30581EFF3108572B6214ACD
:104A70001368002BFCD0BFF35F8F1F4B04001F4A4D
:104A8000E41A64416243120D1D4C8900A66852B2BB
:104A9000765866451CD00621595691421CD01221E9
:104AA0005956914222D01E215956914220D02A2196
:104AB00059560324914210D0124B19781A70817103
:104AC000BFF35F8F00220B4B1A6085F3108870BD17
:104AD000A3680D4C5C50EFE70024610009198900C0
:104AE0005B18FF21997109499980E5E70124F4E7F2
:104AF0000224F2E7240100D0EC1D0020AAAA000045
:104B000000ED00E0B13B0020C101001001BDFFFF3E
:104B100070B504000E001500FFF740FE01002000F4
:104B200000F006F8A680E580BFF35F8F70BDC04639
:104B3000024BC918890001607047C046400000342C
:104B400070B5114C114DAC420FD2FF262368002BDB
:104B50000CD0FFF723FE01002000FFF7E9FFA6803D
:104B6000BFF35F8F0834AC42F0D370BDFFF716FE81
:104B700001002000FFF7DCFF2671BFF35F8F0834D0
:104B8000AC42E3D3F1E7C046F82300201024002014
:104B900010B50400FFF702FE01002000FFF7C8FF78
:104BA000FF232371BFF35F8F10BDC0460A4B196806
:104BB000EFF3108072B60A68002AFCD0BFF35F8F53
:104BC0001B68BFF35F8F00221A6080F3108840BF1C
:104BD000002000217047C046983B0020F0B5DE461B
:104BE00057464E464546E0B585B0EFF305830322B0
:104BF0001A40B34B91005F58012393409B460292A9
:104C00005A468846AF4B1A60AF4B03935B46AF489A
:104C100043630823FE5E002E37DABB881BB2002BED
:104C200000DBA4E0BB79002B00D0E5E00823F95EAF
:104C3000002920DB4B007A695B18DB00D3189D68E4
:104C4000DC686B1C00D104E1A04801004144826A89
:104C50000B69AE1A9B1A9E4215D30123026A029871
:104C600083401A420FD0994800F0CEFB8C4202DC00
:104C7000CCD18542CAD940BF05B0F0BCBB46B246D4
:104C8000A946A046F0BD0D61EDE77A697300914633
:104C90009B19DB0099444B469C68DD6800F0B4FB2F
:104CA0008D42BADC00D1F6E0002D00DADBE04A46A6
:104CB0004B4652691B699246039A934200D1CCE05D
:104CC0004A460821785E52880004514610439847AE
:104CD000009001910099019A0B00134300D1C2E0AA
:104CE00013000A00002B00DBD9E020002900801A05
:104CF00099414B469860D96000229B5E002B00DAF8
:104D00008BE75D007C69EA18D200A21800949468D1
:104D1000D268A2468A4200DD7FE702D1844200D9F0
:104D20007BE70824A4463B81BC44009C00972F00ED
:104D30006546B4463E0006E05E00F218D200A218B6
:104D40009768D268BA468A4207DC00D1B4E0F3180B
:104D5000DB00E518E35E002BEEDA66464A46009F6C
:104D600013802E80BB881BB2002B00DA5AE73A6909
:104D7000EFF3108172B61368002BFCD0BFF35F8F86
:104D80000123BE885B42BB8036B23B69BFF35F8FB5
:104D900000221A6081F31088002E00DA42E73B00FF
:104DA00008333A0099467D6973009B190824115F06
:104DB000DB004846EB18002913DB9C680093A446EF
:104DC000DC6806E0A34240D00023F95E38000029E9
:104DD00006DB4F007F18FF00EF19FB68A342F1DDEF
:104DE000009B068000201E5E1980002EDCDA170072
:104DF000BB79002B00D119E70023BB710823F95EB2
:104E00004B1C00D137E73D000835AC467C6903E018
:104E100084464B1C00D109E74B005B18DB00E0180F
:104E20000A00E15E43881BB2002BF1DA01256D42D6
:104E3000EE178560C66008257B5F9342E9D0634624
:104E400019803B8903803A81E3E7BB686345BBD99E
:104E5000C6E7631C00D0F7E605E7534650461B69DA
:104E60009847002823D14B461B883A693B81EFF3D2
:104E7000108372B611680029FCD0BFF35F8F4946DA
:104E80007A880A803A697E80BFF35F8F00211160C3
:104E900083F31088C1E6844200D805E7BDE60B48DD
:104EA00000F0B2FA009B019CC018614121E7534613
:104EB0000CCB009201930DE7824500D847E74CE701
:104EC000843B00203C700540DD4B00100040054055
:104ED00070B52D4C2569002D04D00A212B48FFF711
:104EE00027FE70BD2A4E0321294800F083FAE660B0
:104EF000FFF754FC274B0322C018D02322701B0657
:104F00001B6801216370244B8000A3600F23206184
:104F10000220638063694942A180198002311986A9
:104F200047311D83585218315A5275325C399952A3
:104F30001832013199521832013199521832013127
:104F40009952083518329D5202311832995218324E
:104F50000131995218320131995218320131995266
:104F60001832013199521832013199520B4B0C49C8
:104F7000DC6001303562FFF761FC01210320FFF79F
:104F80004BFC084B1D60A8E7341E0020983B002016
:104F90000040054040000034FFFF1000843B00202B
:104FA000DD4B00103860054070B582B0009201936F
:104FB00001000269EFF3108472B61368002BFCD075
:104FC000BFF35F8F0223C85E0D6900283FDB4A698B
:104FD000430016001B18DB00D218F35A4B80BFF3B6
:104FE0005F8F00232B6084F31088069B1361079B5F
:104FF0005361009B019C9360D460538801335B0430
:105000005B0C1D1C002B20D0ACB203045580234345
:105010000D69EFF3108C72B62C68002CFCD0BFF336
:105020005F8F8C88148088800A69BFF35F8F0020AF
:1050300010608CF310880A7801309040CA680849E3
:1050400052181060180002B070BD0125DCE7BFF3F4
:105050005F8F00232B6084F31088013BF2E7C0468A
:105060003C20000010B543890A1493421ADD530016
:105070009B184269DB00D3180469EFF3108C72B6F9
:105080002268002AFCD0BFF35F8F5A88090494B2CB
:10509000090C8A4208D00369BFF35F8F00221A60AF
:1050A0008CF31088002010BD094A22435A80012346
:1050B00002698371BFF35F8F002111608CF3108848
:1050C000027804499340C268012052181360EAE74D
:1050D0000080FFFF3C200000F0B5C64600B582B05E
:1050E00004000D0000F098F924184D41002D02DA5B
:1050F00001242F4D644206267642F71736196F4178
:10510000AF4214D811D000F087F932003B00121AD8
:105110008B41002B15DC002B46D02000290000F02D
:10512000BBF902B080BCB846F0BDA642EBD9002660
:10513000002700F071F932003B00121A8B41002B5E
:10514000E9DD00F069F932003B00121A8B41002BB7
:105150000ADB00230193174B3200009316483B00F3
:10516000FFF722FF0130D8D000233900B0469C461B
:10517000124A1348536A994204D8966A4645CCD2DB
:105180009942CAD10668EFF3108772B63368002BD4
:10519000FCD0BFF35F8F0368BFF35F8F66461E606E
:1051A00087F3108820BFE5E7002AB6D0C9E7C046DC
:1051B000FFFFFF7FAD4B0010341E00200040054074
:1051C000983B0020F0B5C64600B582B0040000F060
:1051D00023F9FA2206000F0020000023002192008C
:1051E00001F094FC8019794104000D1E02DA0124BB
:1051F0002E4D644206267642F71736196F41AF42AC
:1052000014D811D000F008F932003B00121A8B417B
:10521000002B15DC002B46D02000290000F03CF9C3
:1052200002B080BCB846F0BDA642EBD900260027EC
:1052300000F0F2F832003B00121A8B41002BE9DD3E
:1052400000F0EAF832003B00121A8B41002B0ADB17
:1052500000230193164B3200009316483B00FFF7E2
:10526000A3FE0130D8D000233900B0469C46124A34
:105270001248536A994204D8966A4645CCD299425C
:10528000CAD10668EFF3108772B63368002BFCD0E2
:10529000BFF35F8F0368BFF35F8F66461E6087F3BF
:1052A000108820BFE5E7002AB6D0C9E7FFFFFF7FDF
:1052B000AD4B0010341E002000400540983B0020FC
:1052C000F0B5CE46474680B504000D0085B0EFF33B
:1052D00005868946002E10D0364900204B6AAB4225
:1052E00006D38A6A5B1B591E8B41A2424041184378
:1052F00005B0C0BCB946B046F0BD2F4FFB683A7848
:1053000098461800039200F07FF8039A131D424656
:105310009B009B5822001B1A9C462B00121A8B41A3
:105320009E4210DC0DD020BF224A0020536A4B451C
:10533000DED3926A5B1B591E8B41A2424041184347
:10534000D6E79445EFD900F067F822002B00121A37
:105350008B41002B1BDB00230193184B2200009391
:1053600038002B00FFF720FE002810DD114B5A6A91
:105370004A451CD39B6AA34217D301003800FFF7AC
:1053800071FE0C4A0020536A4B45B1D3D1E7094A5C
:105390000020536A4B45ABD30020926A5B1BA242AC
:1053A00040415A1E93411843A2E74A45E5D120BF28
:1053B000E3E7C04600400540341E0020AD4B00101E
:1053C000036808499C464A6A43680020934207D80C
:1053D0009B1A5A1E93416246896A91424041184382
:1053E0007047C046004005400CC001487047C046A9
:1053F000C153001010B5024A0248FFF763F910BD0F
:1054000048AB0110343B00200300416A0A00986A4F
:10541000596A8A42FAD17047034B596A0A00986A5E
:10542000596A9142FAD170470040054070B50500B5
:105430000E00184A536A1900946A536A8B42FAD1D3
:10544000200019002C00350024184D41AB4216D81D
:1054500013D0104B2A005B6A9D4203D90D494B6A59
:105460009342FCD3934207D10A4A02E0516A99421F
:1054700002D1916AA142F9D370BDA042E9D9054B8E
:105480005B6A1C005A1CEFD0012201246442E5171C
:105490005242E3E700400540064A536A9942FCD86D
:1054A00007D1044B02E05A6A914202D19A6A9042B3
:1054B000F9D8704700400540F8B5DE464E464546EF
:1054C0005746E0B505008B4618000A99914600F052
:1054D000F9FC0A9B6C001E026419304BA400E4180E
:1054E000636880469E4200D966602F1FFBB29A46D1
:1054F000012B2FD9C0238022294FAD009B01795960
:105500001201E3181A6000291BD14B4622685B0187
:105510005340E022134080225201A21813605346E8
:10552000012B2FD9802380229B01E31812011A60DE
:10553000434666607B51F0BCBB46B246A946A046D6
:10554000F8BD786900F0BEFC013043001B18033B36
:10555000FDD2DAE75B46012BCCD1C02303229B01AD
:10556000E3181A60023AA3681A42FCD04A4623683C
:1055700052015A40E023134080225201A218084FE2
:105580001360AD0058460323216841400B4013606F
:1055900001228240A3681A42FCD0C3E70080004089
:1055A000383B0020F0B5D6464F4646464400984664
:1055B0002418324BA400E41863688A469146C0B5AB
:1055C000FF2B02D880235B006360061FF6B2012E1A
:1055D0002FD9C02380222A4F85009B0179591201BF
:1055E000E3181A6000291BD14B4622685B01534027
:1055F000E022134080225201A2181360012E30D9FC
:10560000802380229B01E31812011A6080235B0033
:10561000636043467B51E0BCBA46B146A846F0BD44
:10562000786900F04FFC013043001B18033BFDD2AA
:10563000DAE75346012BCCD1C02303229B01E318A8
:105640001A60023AA3681A42FCD04A462368520103
:105650005A40E023134080225201A218084F1360E1
:10566000850050460323216841400B40136001220E
:105670008240A3681A42FCD0C2E7C04600800040C6
:10568000383B0020014B8000C0587047383B002059
:10569000F0B5C64600B55B4B15005A6884460F004E
:1056A00082B0FF2A02D8802252005A600322564B51
:1056B00054481A60012382681342FCD020220168FA
:1056C0005140C0320A4051490A6002684D485A4070
:1056D000032313400B60022382681342FCD0802214
:1056E00080264B4B12011A604A4C4B4B76004660A9
:1056F0006246636101213B0048480095E04600F0A6
:10570000E5F929004046794300F0DCFB444B0500F5
:105710005A68FF2A00D85E608022424B12011A604C
:105720002169002907D0606900F0CCFB01304300FB
:105730001B18033BFDD2E023394A3B4811680B405C
:10574000036002231168594001330B4004210360B8
:1057500093681942FCD08021344B090119608021E3
:10576000334B490051602361264B5A68FF2A00D809
:10577000596003220121244B1A60224A936819427E
:10578000FCD0E02310680340204803601268032324
:105790004A40022113401B4A036093681942FCD01F
:1057A00080211B4B090119608021224B4900516067
:1057B00065615A68FF2A00D8596080221E4B120189
:1057C0001A60A169002907D0606900F07BFB0130F5
:1057D00043001B18033BFDD2402316490A685A4078
:1057E000A0331340154A13608022154B12011A6032
:1057F00080235B004B60084BA36102B080BCB846BD
:10580000F0BDC0463C8000403CB000403C900040B1
:105810003CA00040383B0020006CDC0200800240CD
:105820003080004030B000403090004030A0004058
:10583000001BB7004880004048B00040489000403E
:1058400048A00040F0B545468046A02057464E4649
:10585000DE461C00984B400081469A46E0B585B074
:10586000019102920394954B9A4509D901235B4219
:105870009944934B9A444B460F2BF4D100208EE071
:105880000725904C54442F006F432000390000F04E
:1058900019FBAB466E1E404553D0754320002900CE
:1058A0002F0000F00FFB80455CD04346751EA846D4
:1058B0001D005B46FF1A3900200000F003FB854203
:1058C0005DD0B31E9846022E00D1BAE05B46FF1AA7
:1058D0003900200000F0F6FA854267D0F31E9846A2
:1058E000032E69D05B46FF1A3900200000F0EAFA67
:1058F000854200D176E0331F9846042E00D178E02F
:105900005B46FF1A3900200000F0DCFA854200D126
:105910007EE0052E00D180E05B462000F91AA84603
:1059200000F0D0FA06258045ADD10029ABD1CA469A
:105930000199D946029A039C053D28E02B00454673
:1059400098463900200000F0BDFA002900D1A4E0FB
:105950006E1EAB467543200029002F0000F0B2FAFE
:105960008045A2D13900200000F0ACFA00299CD17A
:10597000CA463500D9460199029A039C07E00029DE
:105980009FD1CA464546D9460199029A039C504682
:105990004D4B43430B604B4601201360256005B01F
:1059A000F0BCBB46B246A946A046F0BD0029E8D0EF
:1059B000F31E9846032E95D10323092120000927C1
:1059C000984600F07FFAA842B8D0032306212000B1
:1059D0009B460226033F00F075FA854248D001231A
:1059E000984666E70029CCD0331F9846042E00D095
:1059F00086E723099D4256D00C2720003900B34684
:105A0000013E00F05FFA854232D00223984650E70B
:105A10000029B6D0052E00D07EE7192120001927D5
:105A200000F050FA85422DD014212000053F00F0EF
:105A300049FA854217D005239B46023B0426984627
:105A400037E7A846A1088D4214D061088D421CD0CA
:105A5000444500D00AE70123CA4601259946019929
:105A6000029A039C93E70523A8469B46042679E700
:105A7000A84677E70223CA46022599460199029A69
:105A8000039C84E7A84605255BE70223CA46012557
:105A900099460199029A039C79E7CA460199A94659
:105AA000029A039C73E70423CA461D009946019994
:105AB000029A039C6BE7C04650262F0050F80C005A
:105AC00020D1FFFFB0710B00001BB700F0B5C64638
:105AD000040000B52348160098460D0000F0F2F9C6
